{
  "contractName": "CommitteeL2",
  "abi": [
    {
      "inputs": [
        {
          "internalType": "address",
          "name": "_operator",
          "type": "address"
        }
      ],
      "stateMutability": "nonpayable",
      "type": "constructor"
    },
    {
      "inputs": [],
      "name": "owner",
      "outputs": [
        {
          "internalType": "address",
          "name": "",
          "type": "address"
        }
      ],
      "stateMutability": "view",
      "type": "function"
    },
    {
      "inputs": [
        {
          "internalType": "address",
          "name": "newOwner",
          "type": "address"
        }
      ],
      "name": "transferOwnership",
      "outputs": [],
      "stateMutability": "nonpayable",
      "type": "function"
    },
    {
      "inputs": [
        {
          "internalType": "address",
          "name": "_seigMan",
          "type": "address"
        }
      ],
      "name": "setSeigManager",
      "outputs": [],
      "stateMutability": "nonpayable",
      "type": "function"
    },
    {
      "inputs": [],
      "name": "updateSeigniorage",
      "outputs": [
        {
          "internalType": "bool",
          "name": "",
          "type": "bool"
        }
      ],
      "stateMutability": "nonpayable",
      "type": "function"
    },
    {
      "inputs": [],
      "name": "isCommitteeLayer",
      "outputs": [
        {
          "internalType": "bool",
          "name": "",
          "type": "bool"
        }
      ],
      "stateMutability": "view",
      "type": "function"
    }
  ],
  "bytecode": "0x608060405234801561001057600080fd5b506040516102ae3803806102ae8339818101604052602081101561003357600080fd5b5051600080546001600160a01b03199081163317909155600180546001600160a01b039093169290911691909117905561023c806100726000396000f3fe608060405234801561001057600080fd5b50600436106100575760003560e01c8063764a78561461005c5780637657f20a146100785780638da5cb5b146100a0578063c4acd792146100c4578063f2fde38b146100cc575b600080fd5b6100646100f2565b604080519115158252519081900360200190f35b61009e6004803603602081101561008e57600080fd5b50356001600160a01b031661018b565b005b6100a86101ad565b604080516001600160a01b039092168252519081900360200190f35b6100646101bc565b61009e600480360360208110156100e257600080fd5b50356001600160a01b03166101c1565b6002546000906001600160a01b031661010a57600080fd5b600260009054906101000a90046001600160a01b03166001600160a01b031663764a78566040518163ffffffff1660e01b8152600401602060405180830381600087803b15801561015a57600080fd5b505af115801561016e573d6000803e3d6000fd5b505050506040513d602081101561018457600080fd5b5051905090565b600280546001600160a01b0319166001600160a01b0392909216919091179055565b6000546001600160a01b031681565b600190565b6000546001600160a01b031633146101d857600080fd5b6001600160a01b0381161561020357600080546001600160a01b0319166001600160a01b0383161790555b5056fea2646970667358221220c7cc8f363afc1ba7ebce82dc5b0d2c79af2616ba08674520c955f232018ebbb564736f6c63430006020033",
  "source": "// SPDX-License-Identifier: MIT\npragma solidity ^0.6.0;\n\nimport \"../shared/Ownabled.sol\";\nimport \"./StorageStateElection.sol\"; \n\nimport { IDAOCommittee } from \"../interfaces/IDAOCommittee.sol\"; \nimport { IERC20 } from  \"../../node_modules/@openzeppelin/contracts/token/ERC20/IERC20.sol\";\nimport { SafeMath } from \"../../node_modules/@openzeppelin/contracts/math/SafeMath.sol\";\nimport { SeigManagerI } from \"../interfaces/SeigManagerI.sol\";\nimport { CommitteeL2I } from \"../interfaces/CommitteeL2I.sol\";\n\ncontract CommitteeL2 is Ownabled , CommitteeL2I{ \n    using SafeMath for uint256; \n    address operator;\n    address seigManager;\n    \n    constructor(address _operator) public { \n        operator = _operator; \n    }\n    \n    function setSeigManager(address _seigMan) public override { \n        seigManager =_seigMan; \n    } \n    \n    function updateSeigniorage() public override returns (bool) { \n        require(seigManager!=address(0));\n        return SeigManagerI(seigManager).updateSeigniorage();\n    }\n    \n    function isCommitteeLayer() public override view returns (bool) { \n        return true;\n    }\n}\n",
  "sourcePath": "/Users/zena/plasmawork/tokamak-dao-contracts/contracts/dao/CommitteeL2.sol",
  "compiler": {
    "name": "solc",
    "version": "0.6.2+commit.bacdbe57.Emscripten.clang"
  },
  "schemaVersion": "3.3.2",
  "updatedAt": "2020-12-17T03:40:16.484Z",
  "devdoc": {
    "methods": {}
  },
  "userdoc": {
    "methods": {}
  }
}