{
  "contractName": "CommitteeL2Factory",
  "abi": [
    {
      "inputs": [],
      "name": "owner",
      "outputs": [
        {
          "internalType": "address",
          "name": "",
          "type": "address"
        }
      ],
      "stateMutability": "view",
      "type": "function"
    },
    {
      "inputs": [
        {
          "internalType": "address",
          "name": "newOwner",
          "type": "address"
        }
      ],
      "name": "transferOwnership",
      "outputs": [],
      "stateMutability": "nonpayable",
      "type": "function"
    },
    {
      "inputs": [
        {
          "internalType": "address",
          "name": "_operator",
          "type": "address"
        },
        {
          "internalType": "address",
          "name": "_seigManager",
          "type": "address"
        }
      ],
      "name": "deploy",
      "outputs": [
        {
          "internalType": "address",
          "name": "",
          "type": "address"
        }
      ],
      "stateMutability": "nonpayable",
      "type": "function"
    }
  ],
  "bytecode": "0x6080604052600080546001600160a01b031916331790556104d4806100256000396000f3fe608060405234801561001057600080fd5b50600436106100415760003560e01c8063545e7c61146100465780638da5cb5b14610090578063f2fde38b14610098575b600080fd5b6100746004803603604081101561005c57600080fd5b506001600160a01b03813581169160200135166100c0565b604080516001600160a01b039092168252519081900360200190f35b61007461018f565b6100be600480360360208110156100ae57600080fd5b50356001600160a01b031661019e565b005b600080546001600160a01b031633146100d857600080fd5b6000836040516100e7906101e3565b6001600160a01b03909116815260405190819003602001906000f080158015610114573d6000803e3d6000fd5b509050806001600160a01b0316637657f20a846040518263ffffffff1660e01b815260040180826001600160a01b03166001600160a01b03168152602001915050600060405180830381600087803b15801561016f57600080fd5b505af1158015610183573d6000803e3d6000fd5b50929695505050505050565b6000546001600160a01b031681565b6000546001600160a01b031633146101b557600080fd5b6001600160a01b038116156101e057600080546001600160a01b0319166001600160a01b0383161790555b50565b6102ae806101f18339019056fe608060405234801561001057600080fd5b506040516102ae3803806102ae8339818101604052602081101561003357600080fd5b5051600080546001600160a01b03199081163317909155600180546001600160a01b039093169290911691909117905561023c806100726000396000f3fe608060405234801561001057600080fd5b50600436106100575760003560e01c8063764a78561461005c5780637657f20a146100785780638da5cb5b146100a0578063c4acd792146100c4578063f2fde38b146100cc575b600080fd5b6100646100f2565b604080519115158252519081900360200190f35b61009e6004803603602081101561008e57600080fd5b50356001600160a01b031661018b565b005b6100a86101ad565b604080516001600160a01b039092168252519081900360200190f35b6100646101bc565b61009e600480360360208110156100e257600080fd5b50356001600160a01b03166101c1565b6002546000906001600160a01b031661010a57600080fd5b600260009054906101000a90046001600160a01b03166001600160a01b031663764a78566040518163ffffffff1660e01b8152600401602060405180830381600087803b15801561015a57600080fd5b505af115801561016e573d6000803e3d6000fd5b505050506040513d602081101561018457600080fd5b5051905090565b600280546001600160a01b0319166001600160a01b0392909216919091179055565b6000546001600160a01b031681565b600190565b6000546001600160a01b031633146101d857600080fd5b6001600160a01b0381161561020357600080546001600160a01b0319166001600160a01b0383161790555b5056fea2646970667358221220c7cc8f363afc1ba7ebce82dc5b0d2c79af2616ba08674520c955f232018ebbb564736f6c63430006020033a2646970667358221220f053433b1c67fbadc084e1bb88957c046ab1c3e4bb2eeabcf7cf34b282e1652664736f6c63430006020033",
  "source": "// SPDX-License-Identifier: MIT\npragma solidity ^0.6.0;\nimport \"../shared/Ownabled.sol\";\nimport { CommitteeL2 } from \"../dao/CommitteeL2.sol\";\nimport { CommitteeL2FactoryI } from \"../interfaces/CommitteeL2FactoryI.sol\";\n\ncontract CommitteeL2Factory is CommitteeL2FactoryI, Ownabled {\n   \n   // layer2 deploy... make coinages \n  function deploy(address _operator, address _seigManager) onlyOwner external override returns (address) {\n    CommitteeL2 c = new CommitteeL2(_operator);\n    c.setSeigManager(_seigManager); \n    return address(c);\n  }\n}\n",
  "sourcePath": "/Users/zena/plasmawork/tokamak-dao-contracts/contracts/factory/CommitteeL2Factory.sol",
  "compiler": {
    "name": "solc",
    "version": "0.6.2+commit.bacdbe57.Emscripten.clang"
  },
  "schemaVersion": "3.3.2",
  "updatedAt": "2020-12-17T03:40:16.564Z",
  "devdoc": {
    "methods": {}
  },
  "userdoc": {
    "methods": {}
  }
}