{
  "contractName": "DAOAgendaManager",
  "abi": [
    {
      "inputs": [
        {
          "internalType": "address",
          "name": "_ton",
          "type": "address"
        }
      ],
      "stateMutability": "nonpayable",
      "type": "constructor"
    },
    {
      "anonymous": false,
      "inputs": [
        {
          "indexed": true,
          "internalType": "address",
          "name": "account",
          "type": "address"
        }
      ],
      "name": "AgendaManagerAdded",
      "type": "event"
    },
    {
      "anonymous": false,
      "inputs": [
        {
          "indexed": true,
          "internalType": "address",
          "name": "account",
          "type": "address"
        }
      ],
      "name": "AgendaManagerRemoved",
      "type": "event"
    },
    {
      "inputs": [],
      "name": "activityFeeManager",
      "outputs": [
        {
          "internalType": "address",
          "name": "",
          "type": "address"
        }
      ],
      "stateMutability": "view",
      "type": "function"
    },
    {
      "inputs": [
        {
          "internalType": "address",
          "name": "account",
          "type": "address"
        }
      ],
      "name": "addAgendaManager",
      "outputs": [],
      "stateMutability": "nonpayable",
      "type": "function"
    },
    {
      "inputs": [],
      "name": "admin",
      "outputs": [
        {
          "internalType": "address",
          "name": "",
          "type": "address"
        }
      ],
      "stateMutability": "view",
      "type": "function"
    },
    {
      "inputs": [
        {
          "internalType": "uint256",
          "name": "",
          "type": "uint256"
        }
      ],
      "name": "agendas",
      "outputs": [
        {
          "internalType": "address",
          "name": "creator",
          "type": "address"
        },
        {
          "internalType": "enum DAOAgendaManager.AgendaStatus",
          "name": "status",
          "type": "uint8"
        },
        {
          "internalType": "enum DAOAgendaManager.AgendaResult",
          "name": "result",
          "type": "uint8"
        },
        {
          "internalType": "uint256",
          "name": "group",
          "type": "uint256"
        },
        {
          "internalType": "bool",
          "name": "executed",
          "type": "bool"
        },
        {
          "internalType": "uint256",
          "name": "fees",
          "type": "uint256"
        },
        {
          "internalType": "address",
          "name": "target",
          "type": "address"
        },
        {
          "internalType": "bytes",
          "name": "functionBytecode",
          "type": "bytes"
        },
        {
          "internalType": "string",
          "name": "description",
          "type": "string"
        }
      ],
      "stateMutability": "view",
      "type": "function"
    },
    {
      "inputs": [],
      "name": "createAgendaFees",
      "outputs": [
        {
          "internalType": "uint256",
          "name": "",
          "type": "uint256"
        }
      ],
      "stateMutability": "view",
      "type": "function"
    },
    {
      "inputs": [
        {
          "internalType": "address",
          "name": "account",
          "type": "address"
        }
      ],
      "name": "isAgendaManager",
      "outputs": [
        {
          "internalType": "bool",
          "name": "",
          "type": "bool"
        }
      ],
      "stateMutability": "view",
      "type": "function"
    },
    {
      "inputs": [],
      "name": "minimunNoticePeriodMin",
      "outputs": [
        {
          "internalType": "uint256",
          "name": "",
          "type": "uint256"
        }
      ],
      "stateMutability": "view",
      "type": "function"
    },
    {
      "inputs": [],
      "name": "minimunVotingPeriodMin",
      "outputs": [
        {
          "internalType": "uint256",
          "name": "",
          "type": "uint256"
        }
      ],
      "stateMutability": "view",
      "type": "function"
    },
    {
      "inputs": [],
      "name": "numAgendas",
      "outputs": [
        {
          "internalType": "uint256",
          "name": "",
          "type": "uint256"
        }
      ],
      "stateMutability": "view",
      "type": "function"
    },
    {
      "inputs": [],
      "name": "numExecAgendas",
      "outputs": [
        {
          "internalType": "uint256",
          "name": "",
          "type": "uint256"
        }
      ],
      "stateMutability": "view",
      "type": "function"
    },
    {
      "inputs": [],
      "name": "owner",
      "outputs": [
        {
          "internalType": "address",
          "name": "",
          "type": "address"
        }
      ],
      "stateMutability": "view",
      "type": "function"
    },
    {
      "inputs": [],
      "name": "quorum",
      "outputs": [
        {
          "internalType": "uint256",
          "name": "numerator",
          "type": "uint256"
        },
        {
          "internalType": "uint256",
          "name": "denominator",
          "type": "uint256"
        }
      ],
      "stateMutability": "view",
      "type": "function"
    },
    {
      "inputs": [],
      "name": "renounceAgendaManager",
      "outputs": [],
      "stateMutability": "nonpayable",
      "type": "function"
    },
    {
      "inputs": [],
      "name": "ton",
      "outputs": [
        {
          "internalType": "address",
          "name": "",
          "type": "address"
        }
      ],
      "stateMutability": "view",
      "type": "function"
    },
    {
      "inputs": [
        {
          "internalType": "address",
          "name": "newAdmin",
          "type": "address"
        }
      ],
      "name": "transferAdmin",
      "outputs": [],
      "stateMutability": "nonpayable",
      "type": "function"
    },
    {
      "inputs": [
        {
          "internalType": "address",
          "name": "newOwner",
          "type": "address"
        }
      ],
      "name": "transferOwnership",
      "outputs": [],
      "stateMutability": "nonpayable",
      "type": "function"
    },
    {
      "inputs": [
        {
          "internalType": "address",
          "name": "target",
          "type": "address"
        },
        {
          "internalType": "address",
          "name": "newOwner",
          "type": "address"
        }
      ],
      "name": "transfertargetOwnership",
      "outputs": [],
      "stateMutability": "nonpayable",
      "type": "function"
    },
    {
      "inputs": [
        {
          "internalType": "uint256",
          "name": "_createAgendaFees",
          "type": "uint256"
        }
      ],
      "name": "setCreateAgendaFees",
      "outputs": [],
      "stateMutability": "nonpayable",
      "type": "function"
    },
    {
      "inputs": [
        {
          "internalType": "uint256",
          "name": "_minimunNoticePeriodMin",
          "type": "uint256"
        }
      ],
      "name": "setMinimunNoticePeriodMin",
      "outputs": [],
      "stateMutability": "nonpayable",
      "type": "function"
    },
    {
      "inputs": [
        {
          "internalType": "uint256",
          "name": "_minimunVotingPeriodMin",
          "type": "uint256"
        }
      ],
      "name": "setMinimunVotingPeriodMin",
      "outputs": [],
      "stateMutability": "nonpayable",
      "type": "function"
    },
    {
      "inputs": [
        {
          "internalType": "address",
          "name": "_man",
          "type": "address"
        }
      ],
      "name": "setActivityFeeManager",
      "outputs": [],
      "stateMutability": "nonpayable",
      "type": "function"
    },
    {
      "inputs": [
        {
          "internalType": "uint256",
          "name": "quorumNumerator",
          "type": "uint256"
        },
        {
          "internalType": "uint256",
          "name": "quorumDenominator",
          "type": "uint256"
        }
      ],
      "name": "setQuorum",
      "outputs": [],
      "stateMutability": "nonpayable",
      "type": "function"
    },
    {
      "inputs": [
        {
          "internalType": "uint256",
          "name": "_AgendaID",
          "type": "uint256"
        },
        {
          "internalType": "address",
          "name": "_user",
          "type": "address"
        }
      ],
      "name": "userHasVoted",
      "outputs": [
        {
          "internalType": "bool",
          "name": "",
          "type": "bool"
        }
      ],
      "stateMutability": "view",
      "type": "function"
    },
    {
      "inputs": [],
      "name": "getQuorumRatio",
      "outputs": [
        {
          "internalType": "uint256",
          "name": "numerator",
          "type": "uint256"
        },
        {
          "internalType": "uint256",
          "name": "denominator",
          "type": "uint256"
        }
      ],
      "stateMutability": "view",
      "type": "function"
    },
    {
      "inputs": [
        {
          "internalType": "uint256",
          "name": "_AgendaID",
          "type": "uint256"
        }
      ],
      "name": "getAgendaNoticeEndTimeSeconds",
      "outputs": [
        {
          "internalType": "uint256",
          "name": "",
          "type": "uint256"
        }
      ],
      "stateMutability": "view",
      "type": "function"
    },
    {
      "inputs": [
        {
          "internalType": "uint256",
          "name": "_AgendaID",
          "type": "uint256"
        }
      ],
      "name": "getAgendaVotingStartTimeSeconds",
      "outputs": [
        {
          "internalType": "uint256",
          "name": "",
          "type": "uint256"
        }
      ],
      "stateMutability": "view",
      "type": "function"
    },
    {
      "inputs": [
        {
          "internalType": "uint256",
          "name": "_AgendaID",
          "type": "uint256"
        }
      ],
      "name": "getAgendaVotingEndTimeSeconds",
      "outputs": [
        {
          "internalType": "uint256",
          "name": "",
          "type": "uint256"
        }
      ],
      "stateMutability": "view",
      "type": "function"
    },
    {
      "inputs": [
        {
          "internalType": "uint256",
          "name": "_AgendaID",
          "type": "uint256"
        }
      ],
      "name": "detailedAgenda",
      "outputs": [
        {
          "internalType": "address[2]",
          "name": "creator",
          "type": "address[2]"
        },
        {
          "internalType": "uint256[8]",
          "name": "datas",
          "type": "uint256[8]"
        },
        {
          "internalType": "uint256[3]",
          "name": "counting",
          "type": "uint256[3]"
        },
        {
          "internalType": "uint256",
          "name": "fees",
          "type": "uint256"
        },
        {
          "internalType": "bool",
          "name": "executed",
          "type": "bool"
        },
        {
          "internalType": "bytes",
          "name": "functionBytecode",
          "type": "bytes"
        },
        {
          "internalType": "string",
          "name": "description",
          "type": "string"
        },
        {
          "internalType": "address[]",
          "name": "voters",
          "type": "address[]"
        }
      ],
      "stateMutability": "view",
      "type": "function"
    },
    {
      "inputs": [
        {
          "internalType": "uint256",
          "name": "_AgendaID",
          "type": "uint256"
        },
        {
          "internalType": "address",
          "name": "voter",
          "type": "address"
        }
      ],
      "name": "detailedAgendaVoteInfo",
      "outputs": [
        {
          "internalType": "bool",
          "name": "hasVoted",
          "type": "bool"
        },
        {
          "internalType": "uint256",
          "name": "vote",
          "type": "uint256"
        },
        {
          "internalType": "string",
          "name": "comment",
          "type": "string"
        }
      ],
      "stateMutability": "view",
      "type": "function"
    },
    {
      "inputs": [
        {
          "internalType": "uint256",
          "name": "_AgendaID",
          "type": "uint256"
        }
      ],
      "name": "getAgendaStatus",
      "outputs": [
        {
          "internalType": "bool",
          "name": "exist",
          "type": "bool"
        },
        {
          "internalType": "uint256",
          "name": "status",
          "type": "uint256"
        }
      ],
      "stateMutability": "view",
      "type": "function"
    },
    {
      "inputs": [],
      "name": "totalAgendas",
      "outputs": [
        {
          "internalType": "uint256",
          "name": "",
          "type": "uint256"
        }
      ],
      "stateMutability": "view",
      "type": "function"
    },
    {
      "inputs": [],
      "name": "getNumExecAgendas",
      "outputs": [
        {
          "internalType": "uint256",
          "name": "",
          "type": "uint256"
        }
      ],
      "stateMutability": "view",
      "type": "function"
    },
    {
      "inputs": [],
      "name": "getCreateAgendaFees",
      "outputs": [
        {
          "internalType": "uint256",
          "name": "",
          "type": "uint256"
        }
      ],
      "stateMutability": "view",
      "type": "function"
    },
    {
      "inputs": [],
      "name": "getMinimunNoticePeriodMin",
      "outputs": [
        {
          "internalType": "uint256",
          "name": "",
          "type": "uint256"
        }
      ],
      "stateMutability": "view",
      "type": "function"
    },
    {
      "inputs": [],
      "name": "getMinimunVotingPeriodMin",
      "outputs": [
        {
          "internalType": "uint256",
          "name": "",
          "type": "uint256"
        }
      ],
      "stateMutability": "view",
      "type": "function"
    },
    {
      "inputs": [],
      "name": "getActivityFeeManager",
      "outputs": [
        {
          "internalType": "address",
          "name": "",
          "type": "address"
        }
      ],
      "stateMutability": "view",
      "type": "function"
    },
    {
      "inputs": [
        {
          "internalType": "uint256",
          "name": "_AgendaID",
          "type": "uint256"
        }
      ],
      "name": "getAgendaResult",
      "outputs": [
        {
          "internalType": "uint256",
          "name": "result",
          "type": "uint256"
        },
        {
          "internalType": "bool",
          "name": "executed",
          "type": "bool"
        },
        {
          "internalType": "address",
          "name": "target",
          "type": "address"
        },
        {
          "internalType": "bytes",
          "name": "functionBytecode",
          "type": "bytes"
        }
      ],
      "stateMutability": "view",
      "type": "function"
    },
    {
      "inputs": [
        {
          "internalType": "uint256",
          "name": "_group",
          "type": "uint256"
        },
        {
          "internalType": "address",
          "name": "_target",
          "type": "address"
        },
        {
          "internalType": "address",
          "name": "_creator",
          "type": "address"
        },
        {
          "internalType": "uint256",
          "name": "_noticePeriodMin",
          "type": "uint256"
        },
        {
          "internalType": "bytes",
          "name": "_functionBytecode",
          "type": "bytes"
        },
        {
          "internalType": "string",
          "name": "_description",
          "type": "string"
        },
        {
          "internalType": "uint256",
          "name": "_fees",
          "type": "uint256"
        }
      ],
      "name": "newAgenda",
      "outputs": [
        {
          "internalType": "uint256",
          "name": "agendaID",
          "type": "uint256"
        }
      ],
      "stateMutability": "nonpayable",
      "type": "function"
    },
    {
      "inputs": [
        {
          "internalType": "uint256",
          "name": "_AgendaID",
          "type": "uint256"
        },
        {
          "internalType": "address[]",
          "name": "committees",
          "type": "address[]"
        }
      ],
      "name": "electCommiitteeForAgenda",
      "outputs": [
        {
          "internalType": "bool",
          "name": "",
          "type": "bool"
        }
      ],
      "stateMutability": "nonpayable",
      "type": "function"
    },
    {
      "inputs": [
        {
          "internalType": "uint256",
          "name": "_AgendaID",
          "type": "uint256"
        },
        {
          "internalType": "address",
          "name": "user",
          "type": "address"
        }
      ],
      "name": "validCommitteeForAgenda",
      "outputs": [
        {
          "internalType": "bool",
          "name": "",
          "type": "bool"
        }
      ],
      "stateMutability": "view",
      "type": "function"
    },
    {
      "inputs": [
        {
          "internalType": "uint256",
          "name": "_AgendaID",
          "type": "uint256"
        },
        {
          "internalType": "address",
          "name": "voter",
          "type": "address"
        },
        {
          "internalType": "address",
          "name": "_layer",
          "type": "address"
        },
        {
          "internalType": "uint256",
          "name": "_vote",
          "type": "uint256"
        },
        {
          "internalType": "string",
          "name": "_comment",
          "type": "string"
        },
        {
          "internalType": "uint256",
          "name": "_majority",
          "type": "uint256"
        }
      ],
      "name": "castVote",
      "outputs": [],
      "stateMutability": "nonpayable",
      "type": "function"
    },
    {
      "inputs": [
        {
          "internalType": "uint256",
          "name": "_AgendaID",
          "type": "uint256"
        }
      ],
      "name": "setExecuteAgenda",
      "outputs": [
        {
          "internalType": "bool",
          "name": "success",
          "type": "bool"
        },
        {
          "internalType": "uint256",
          "name": "result",
          "type": "uint256"
        },
        {
          "internalType": "bool",
          "name": "executed",
          "type": "bool"
        },
        {
          "internalType": "address",
          "name": "target",
          "type": "address"
        },
        {
          "internalType": "bytes",
          "name": "functionBytecode",
          "type": "bytes"
        }
      ],
      "stateMutability": "nonpayable",
      "type": "function"
    }
  ],
  "bytecode": "0x60806040523480156200001157600080fd5b5060405162002cd238038062002cd2833981810160405260208110156200003757600080fd5b505160008054336001600160a01b0319918216811790925560018054909116821790556200006590620000c1565b615460600855610b406009556000600781905560408051808201909152600180825260026020909201829052600b55600c55600380546001600160a01b0319166001600160a01b0393909316929092179091556005556200018e565b620000dc8160026200011360201b620028221790919060201c565b6040516001600160a01b038216907f33b2170787bdf77c4262c9bf57f4af9c221a084e18cc578d1a952807d76a9d9090600090a250565b6200012882826001600160e01b036200015816565b156200013357600080fd5b6001600160a01b0316600090815260209190915260409020805460ff19166001179055565b60006001600160a01b0382166200016e57600080fd5b506001600160a01b03166000908152602091909152604090205460ff1690565b612b34806200019e6000396000f3fe608060405234801561001057600080fd5b506004361061025d5760003560e01c8063790ef1be11610146578063becc24c7116100c3578063de6bd38611610087578063de6bd38614610d76578063e3bc145f14610d93578063ee55662014610d9b578063f2fde38b14610da3578063f851a44014610dc9578063f9ac7eaa14610dd15761025d565b8063becc24c714610ce6578063c24fd6cc14610d14578063c5b6e9a914610d1c578063cc48b94714610d42578063d1c9c0a314610d4a5761025d565b806396c2bb411161010a57806396c2bb4114610a13578063ab4da90c14610ac9578063aeb2f17114610c9b578063b4f69b6a14610ca3578063be26816d14610cc05761025d565b8063790ef1be1461091b5780637a3d5468146109c35780637c3d7b35146109e65780638da5cb5b146109ee5780638e94472a146109f65761025d565b806346bf4eda116101df5780635b193a8d116101a35780635b193a8d146107f15780635fc48d7e146107f9578063699cc358146108255780636bcaab5e1461082d5780636ef89738146108ed57806375829def146108f55761025d565b806346bf4eda1461061157806347d877bb146106195780634b607383146106e45780634cb5a1491461071e5780635ac4b83d146107e95761025d565b80632522a32f116102265780632522a32f14610430578063284d776e14610438578063334bbf35146104705780633c4a819c1461048d5780633da2371f146105f45761025d565b8062e3fd4214610262578063162de1041461027c5780631703a018146102a05780631e6e9bb4146102c157806324d013d314610411575b600080fd5b61026a610dd9565b60408051918252519081900360200190f35b610284610ddf565b604080516001600160a01b039092168252519081900360200190f35b6102a8610def565b6040805192835260208301919091528051918290030190f35b61026a600480360360e08110156102d757600080fd5b8135916001600160a01b03602082013581169260408301359091169160608101359181019060a081016080820135600160201b81111561031657600080fd5b82018360208201111561032857600080fd5b803590602001918460018302840111600160201b8311171561034957600080fd5b91908080601f0160208091040260200160405190810160405280939291908181526020018383808284376000920191909152509295949360208101935035915050600160201b81111561039b57600080fd5b8201836020820111156103ad57600080fd5b803590602001918460018302840111600160201b831117156103ce57600080fd5b91908080601f0160208091040260200160405190810160405280939291908181526020018383808284376000920191909152509295505091359250610df8915050565b61042e6004803603602081101561042757600080fd5b50356110a1565b005b61026a6110bd565b6104556004803603602081101561044e57600080fd5b50356110c3565b60408051921515835260208301919091528051918290030190f35b61026a6004803603602081101561048657600080fd5b503561111c565b6104aa600480360360208110156104a357600080fd5b503561119e565b6040516001600160a01b038a168152602081018960038111156104c957fe5b60ff1681526020018860038111156104dd57fe5b60ff16815260200187815260200186151515158152602001858152602001846001600160a01b03166001600160a01b031681526020018060200180602001838103835285818151815260200191508051906020019080838360005b83811015610550578181015183820152602001610538565b50505050905090810190601f16801561057d5780820380516001836020036101000a031916815260200191505b50838103825284518152845160209182019186019080838360005b838110156105b0578181015183820152602001610598565b50505050905090810190601f1680156105dd5780820380516001836020036101000a031916815260200191505b509b50505050505050505050505060405180910390f35b61026a6004803603602081101561060a57600080fd5b5035611327565b61026a6113a1565b6106366004803603602081101561062f57600080fd5b50356113a7565b604051808615151515815260200185815260200184151515158152602001836001600160a01b03166001600160a01b0316815260200180602001828103825283818151815260200191508051906020019080838360005b838110156106a557818101518382015260200161068d565b50505050905090810190601f1680156106d25780820380516001836020036101000a031916815260200191505b50965050505050505060405180910390f35b61070a600480360360208110156106fa57600080fd5b50356001600160a01b031661154d565b604080519115158252519081900360200190f35b61042e600480360360c081101561073457600080fd5b8135916001600160a01b03602082013581169260408301359091169160608101359181019060a081016080820135600160201b81111561077357600080fd5b82018360208201111561078557600080fd5b803590602001918460018302840111600160201b831117156107a657600080fd5b91908080601f0160208091040260200160405190810160405280939291908181526020018383808284376000920191909152509295505091359250611566915050565b61026a611800565b61026a611806565b61070a6004803603604081101561080f57600080fd5b50803590602001356001600160a01b031661180c565b61026a6118a5565b61084a6004803603602081101561084357600080fd5b50356118ab565b6040518085815260200184151515158152602001836001600160a01b03166001600160a01b0316815260200180602001828103825283818151815260200191508051906020019080838360005b838110156108af578181015183820152602001610897565b50505050905090810190601f1680156108dc5780820380516001836020036101000a031916815260200191505b509550505050505060405180910390f35b6102a8611a56565b61042e6004803603602081101561090b57600080fd5b50356001600160a01b0316611a60565b61070a6004803603604081101561093157600080fd5b81359190810190604081016020820135600160201b81111561095257600080fd5b82018360208201111561096457600080fd5b803590602001918460208302840111600160201b8311171561098557600080fd5b919080806020026020016040519081016040528093929190818152602001838360200280828437600092019190915250929550611aa5945050505050565b61042e600480360360408110156109d957600080fd5b5080359060200135611bfc565b61026a611c55565b610284611c5b565b61042e60048036036020811015610a0c57600080fd5b5035611c6a565b610a3f60048036036040811015610a2957600080fd5b50803590602001356001600160a01b0316611c86565b604051808415151515815260200183815260200180602001828103825283818151815260200191508051906020019080838360005b83811015610a8c578181015183820152602001610a74565b50505050905090810190601f168015610ab95780820380516001836020036101000a031916815260200191505b5094505050505060405180910390f35b610ae660048036036020811015610adf57600080fd5b5035611e87565b6040518089600260200280838360005b83811015610b0e578181015183820152602001610af6565b5050505090500188600860200280838360005b83811015610b39578181015183820152602001610b21565b5050505090500187600360200280838360005b83811015610b64578181015183820152602001610b4c565b5050505090500186815260200185151515158152602001806020018060200180602001848103845287818151815260200191508051906020019080838360005b83811015610bbc578181015183820152602001610ba4565b50505050905090810190601f168015610be95780820380516001836020036101000a031916815260200191505b50848103835286518152865160209182019188019080838360005b83811015610c1c578181015183820152602001610c04565b50505050905090810190601f168015610c495780820380516001836020036101000a031916815260200191505b508481038252855181528551602091820191808801910280838360005b83811015610c7e578181015183820152602001610c66565b505050509050019b50505050505050505050505060405180910390f35b61026a612368565b61042e60048036036020811015610cb957600080fd5b503561236e565b61042e60048036036020811015610cd657600080fd5b50356001600160a01b031661238a565b61042e60048036036040811015610cfc57600080fd5b506001600160a01b03813581169160200135166123a5565b61026a612430565b61042e60048036036020811015610d3257600080fd5b50356001600160a01b0316612436565b610284612482565b61070a60048036036040811015610d6057600080fd5b50803590602001356001600160a01b0316612491565b61026a60048036036020811015610d8c57600080fd5b503561251f565b61026a612599565b61028461259f565b61042e60048036036020811015610db957600080fd5b50356001600160a01b03166125ae565b610284612609565b61042e612618565b60085481565b6004546001600160a01b03165b90565b600b54600c5482565b600080546001600160a01b03163314610e1057600080fd5b600854851015610e67576040805162461bcd60e51b815260206004820152601c60248201527f6d696e696d756e4e6f74696365506572696f642069732073686f727400000000604482015290519081900360640190fd5b610e6f612890565b6001600160a01b038781168252600060208084018281526040808601849052608080870185905260a08701805142908190528151603c8f02909101950194909452835190910184905282516060908101859052925101839052610120850189905261014085018890529084018c90528a831661010085015260e08401869052600a80546001810182559252835160129092027fc65a7bb8d6351c1cf70c95a316cc6a92839c986682d98bc35f958f4883f9d2a8018054929093166001600160a01b0319909216919091178083559051839291829060ff60a01b1916600160a01b836003811115610f5b57fe5b021790555060408201518154829060ff60a81b1916600160a81b836003811115610f8157fe5b021790555060608201516001820155608082015160028201805460ff191691151591909117905560a0820151610fbd906003830190600561290e565b5060c0820151610fd3906008830190600361294c565b5060e0820151600b820155610100820151600c820180546001600160a01b0319166001600160a01b03909216919091179055610120820151805161102191600d840191602090910190612979565b50610140820151805161103e91600e840191602090910190612979565b50610160820151805161105b91600f8401916020909101906129e6565b5061018082015180516110789160118401916020909101906129e6565b5050600a5460058190556110949150600163ffffffff61262316565b9998505050505050505050565b6000546001600160a01b031633146110b857600080fd5b600955565b60075481565b600a546000908190831015611110576001600a84815481106110e157fe5b6000918252602090912060129091020154600160a01b900460ff16600381111561110757fe5b91509150611117565b5060009050805b915091565b6000600554821061116c576040805162461bcd60e51b8152602060048201526015602482015274139bdd0818481d985b1a59081059d95b9918481259605a1b604482015290519081900360640190fd5b600a828154811061117957fe5b906000526020600020906012020160030160036005811061119657fe5b015492915050565b600a81815481106111ab57fe5b60009182526020918290206012909102018054600180830154600280850154600b860154600c870154600d8801805460408051601f6000199a841615610100029a909a01909216969096049788018b90048b0281018b019095528685526001600160a01b038089169b5060ff600160a01b8a0481169b600160a81b909a0481169a9799951697939692169491939192909183018282801561128d5780601f106112625761010080835404028352916020019161128d565b820191906000526020600020905b81548152906001019060200180831161127057829003601f168201915b50505050600e8301805460408051602060026001851615610100026000190190941693909304601f810184900484028201840190925281815294959493509083018282801561131d5780601f106112f25761010080835404028352916020019161131d565b820191906000526020600020905b81548152906001019060200180831161130057829003601f168201915b5050505050905089565b60006005548210611377576040805162461bcd60e51b8152602060048201526015602482015274139bdd0818481d985b1a59081059d95b9918481259605a1b604482015290519081900360640190fd5b600a828154811061138457fe5b906000526020600020906012020160030160026005811061119657fe5b60065481565b600080548190819081906060906001600160a01b031633146113c857600080fd5b600a548610611416576040805162461bcd60e51b81526020600482015260156024820152742fa0b3b2b73230a4a21034b99034b73b30b634b21760591b604482015290519081900360640190fd5b6000600a878154811061142557fe5b600091825260209091206002601290920201908101805460ff19166001908117909155426007830155815460ff60a01b1916600160a11b17825560065491925061146f919061266c565b6006558054600190600160a81b900460ff16600381111561148c57fe5b600283810154600c850154600d860180546040805160206101006001851615026000190190931696909604601f810183900483028701830190915280865260ff909416946001600160a01b039093169391929183918301828280156115325780601f1061150757610100808354040283529160200191611532565b820191906000526020600020905b81548152906001019060200180831161151557829003601f168201915b50505050509050955095509550955095505091939590929450565b600061156060028363ffffffff6126c616565b92915050565b6000546001600160a01b0316331461157d57600080fd5b600a54861080156115c057506001600a878154811061159857fe5b6000918252602090912060129091020154600160a01b900460ff1660038111156115be57fe5b145b611609576040805162461bcd60e51b815260206004820152601560248201527439ba30ba3ab99034b9903737ba103b37ba34b7339760591b604482015290519081900360640190fd5b6000600a878154811061161857fe5b906000526020600020906012020190506040518060800160405280600115158152602001866001600160a01b0316815260200185815260200184815250816010016000886001600160a01b03166001600160a01b0316815260200190815260200160002060008201518160000160006101000a81548160ff02191690831515021790555060208201518160000160016101000a8154816001600160a01b0302191690836001600160a01b031602179055506040820151816001015560608201518160020190805190602001906116ef929190612979565b505050600f810180546001810182556000918252602082200180546001600160a01b0319166001600160a01b0389161790558414156117505761174260016008830160005b01549063ffffffff61266c16565b6008820160005b0155611789565b60018414156117735761176860016008830181611734565b600882016001611749565b6117836001600883016002611734565b600a8201555b60088101548210156117b4578054600390829060ff60a81b1916600160a81b835b02179055506117f7565b60098101548210156117d9578054600190829060ff60a81b1916600160a81b836117aa565b600a8101548210156117f757805460ff60a81b1916600160a91b1781555b50505050505050565b60095481565b60065490565b60006005548310611864576040805162461bcd60e51b815260206004820152601760248201527f4e6f7420612076616c69642050726f706f73616c204964000000000000000000604482015290519081900360640190fd5b600a838154811061187157fe5b600091825260208083206001600160a01b03861684526010601290930201919091019052604090205460ff16905092915050565b600a5490565b600080600060606005548510611908576040805162461bcd60e51b815260206004820152601860248201527f4e6f7420612076616c6964205f4167656e646149442049640000000000000000604482015290519081900360640190fd5b600a858154811061191557fe5b6000918252602090912060129091020154600160a81b900460ff16600381111561193b57fe5b600a868154811061194857fe5b906000526020600020906012020160020160009054906101000a900460ff16600a878154811061197457fe5b9060005260206000209060120201600c0160009054906101000a90046001600160a01b0316600a88815481106119a657fe5b6000918252602091829020600d60129092020101805460408051601f600260001961010060018716150201909416939093049283018590048502810185019091528181529192839190830182828015611a405780601f10611a1557610100808354040283529160200191611a40565b820191906000526020600020905b815481529060010190602001808311611a2357829003601f168201915b5050505050905093509350935093509193509193565b600b54600c549091565b6001546001600160a01b03163314611a7757600080fd5b6001600160a01b03811615611aa257600180546001600160a01b0319166001600160a01b0383161790555b50565b600080546001600160a01b03163314611abd57600080fd5b600a5483108015611b0057506000600a8481548110611ad857fe5b6000918252602090912060129091020154600160a01b900460ff166003811115611afe57fe5b145b611b47576040805162461bcd60e51b815260206004820152601360248201527230b3b2b73230903430b99032bc3834b932b21760691b604482015290519081900360640190fd5b6000600a8481548110611b5657fe5b60009182526020909120601290910201905060015b8351811015611bcd576000848281518110611b8257fe5b602090810291909101810151601185018054600180820183556000928352939091200180546001600160a01b0319166001600160a01b03909216919091179055919091019050611b6b565b504260058201819055600954603c02016006820155805460ff60a01b1916600160a01b17905550600192915050565b6000546001600160a01b03163314611c1357600080fd5b600082118015611c235750600081115b8015611c2e57508082105b611c3757600080fd5b60408051808201909152828152602001819052600b91909155600c55565b60095490565b6000546001600160a01b031681565b6000546001600160a01b03163314611c8157600080fd5b600855565b60008060606005548510611cd9576040805162461bcd60e51b8152602060048201526015602482015274139bdd0818481d985b1a59081059d95b9918481259605a1b604482015290519081900360640190fd5b600a8581548110611ce657fe5b600091825260208083206001600160a01b03881684526010601290930201919091019052604090205460ff1615611e6957600a8581548110611d2457fe5b600091825260208083206001600160a01b038816845260106012909302019190910190526040902054600a805460ff9092169187908110611d6157fe5b90600052602060002090601202016010016000866001600160a01b03166001600160a01b0316815260200190815260200160002060010154600a8781548110611da657fe5b600091825260208083206001600160a01b038a16845260129290920290910160100181526040918290206002908101805484516001821615610100026000190190911692909204601f8101849004840283018401909452838252929091839190830182828015611e575780601f10611e2c57610100808354040283529160200191611e57565b820191906000526020600020905b815481529060010190602001808311611e3a57829003601f168201915b50505050509050925092509250611e80565b505060408051602081019091526000808252915081905b9250925092565b611e8f612a47565b611e97612a65565b611e9f612a84565b60008060608060606005548910611ef5576040805162461bcd60e51b8152602060048201526015602482015274139bdd0818481d985b1a59081059d95b9918481259605a1b604482015290519081900360640190fd5b611efd612890565b600a8a81548110611f0a57fe5b6000918252602091829020604080516101a0810190915260129092020180546001600160a01b0381168352919290919083019060ff600160a01b909104166003811115611f5357fe5b6003811115611f5e57fe5b81528154602090910190600160a81b900460ff166003811115611f7d57fe5b6003811115611f8857fe5b815260018201546020820152600282015460ff161515604080830191909152805160a081019182905260609092019190600384019060059082845b815481526020019060010190808311611fc357505050918352505060408051606081019182905260209092019190600884019060039082845b815481526020019060010190808311611ffc575050509183525050600b820154602080830191909152600c8301546001600160a01b0316604080840191909152600d84018054825160026101006001841615026000190190921691909104601f8101859004850282018501909352828152606090940193929091908301828280156120c85780601f1061209d576101008083540402835291602001916120c8565b820191906000526020600020905b8154815290600101906020018083116120ab57829003601f168201915b5050509183525050600e8201805460408051602060026001851615610100026000190190941693909304601f810184900484028201840190925281815293820193929183018282801561215c5780601f106121315761010080835404028352916020019161215c565b820191906000526020600020905b81548152906001019060200180831161213f57829003601f168201915b50505050508152602001600f82018054806020026020016040519081016040528092919081815260200182805480156121be57602002820191906000526020600020905b81546001600160a01b031681526001909101906020018083116121a0575b505050505081526020016011820180548060200260200160405190810160405280929190818152602001828054801561222057602002820191906000526020600020905b81546001600160a01b03168152600190910190602001808311612202575b5050505050815250509050612233612a65565b6040518061010001604052808360200151600381111561224f57fe5b81526020018360400151600381111561226457fe5b8152602001836060015181526020018360a0015160006005811061228457fe5b602002015181526020018360a0015160016005811061229f57fe5b602002015181526020018360a001516002600581106122ba57fe5b602002015181526020018360a001516003600581106122d557fe5b602002015181526020018360a001516004600581106122f057fe5b602090810291909101519091526040805180820190915284516001600160a01b039081168252610100860151169181019190915260c084015160e0850151608086015161012087015161014088015161016090980151949f50949d50919b509950975090955091935090915050919395975091939597565b60085490565b6000546001600160a01b0316331461238557600080fd5b600755565b6123933361154d565b61239c57600080fd5b611aa2816126fb565b6000546001600160a01b031633146123bc57600080fd5b816001600160a01b031663f2fde38b826040518263ffffffff1660e01b815260040180826001600160a01b03166001600160a01b03168152602001915050600060405180830381600087803b15801561241457600080fd5b505af1158015612428573d6000803e3d6000fd5b505050505050565b60075490565b6000546001600160a01b0316331461244d57600080fd5b6001600160a01b03811661246057600080fd5b600480546001600160a01b0319166001600160a01b0392909216919091179055565b6003546001600160a01b031681565b60006001600160a01b0382166124a657600080fd5b6000600a84815481106124b557fe5b60009182526020822060129091020191505b6011820154811015612514578160110181815481106124e257fe5b6000918252602090912001546001600160a01b038581169116141561250c57600192505050611560565b6001016124c7565b506000949350505050565b6000600554821061256f576040805162461bcd60e51b8152602060048201526015602482015274139bdd0818481d985b1a59081059d95b9918481259605a1b604482015290519081900360640190fd5b600a828154811061257c57fe5b906000526020600020906012020160030160016005811061119657fe5b60055481565b6004546001600160a01b031681565b6000546001600160a01b03163314806125d157506001546001600160a01b031633145b6125da57600080fd5b6001600160a01b03811615611aa257600080546001600160a01b0383166001600160a01b031990911617905550565b6001546001600160a01b031681565b61262133612743565b565b600061266583836040518060400160405280601e81526020017f536166654d6174683a207375627472616374696f6e206f766572666c6f77000081525061278b565b9392505050565b600082820183811015612665576040805162461bcd60e51b815260206004820152601b60248201527f536166654d6174683a206164646974696f6e206f766572666c6f770000000000604482015290519081900360640190fd5b60006001600160a01b0382166126db57600080fd5b506001600160a01b03166000908152602091909152604090205460ff1690565b61270c60028263ffffffff61282216565b6040516001600160a01b038216907f33b2170787bdf77c4262c9bf57f4af9c221a084e18cc578d1a952807d76a9d9090600090a250565b61275460028263ffffffff61285b16565b6040516001600160a01b038216907fcc37a8a80a166e07608aa5b9571c2e3db9ff7977d08581dd15fefdf95487098690600090a250565b6000818484111561281a5760405162461bcd60e51b81526004018080602001828103825283818151815260200191508051906020019080838360005b838110156127df5781810151838201526020016127c7565b50505050905090810190601f16801561280c5780820380516001836020036101000a031916815260200191505b509250505060405180910390fd5b505050900390565b61282c82826126c6565b1561283657600080fd5b6001600160a01b0316600090815260209190915260409020805460ff19166001179055565b61286582826126c6565b61286e57600080fd5b6001600160a01b0316600090815260209190915260409020805460ff19169055565b604080516101a081019091526000808252602082019081526020016000815260006020820181905260408201526060016128c8612aa2565b81526020016128d5612a84565b81526020016000815260200160006001600160a01b03168152602001606081526020016060815260200160608152602001606081525090565b826005810192821561293c579160200282015b8281111561293c578251825591602001919060010190612921565b50612948929150612ac0565b5090565b826003810192821561293c579160200282018281111561293c578251825591602001919060010190612921565b828054600181600116156101000203166002900490600052602060002090601f016020900481019282601f106129ba57805160ff191683800117855561293c565b8280016001018555821561293c579182018281111561293c578251825591602001919060010190612921565b828054828255906000526020600020908101928215612a3b579160200282015b82811115612a3b57825182546001600160a01b0319166001600160a01b03909116178255602090920191600190910190612a06565b50612948929150612ada565b60405180604001604052806002906020820280388339509192915050565b6040518061010001604052806008906020820280388339509192915050565b60405180606001604052806003906020820280388339509192915050565b6040518060a001604052806005906020820280388339509192915050565b610dec91905b808211156129485760008155600101612ac6565b610dec91905b808211156129485780546001600160a01b0319168155600101612ae056fea2646970667358221220099fbcc18f1405af91f5429bc4b414127c341979bd29110936b08fe60a755bc064736f6c63430006020033",
  "source": "// SPDX-License-Identifier: MIT\npragma solidity ^0.6.0;\n\nimport \"../shared/OwnableAdmin.sol\"; \n\nimport { SafeMath } from \"../../node_modules/@openzeppelin/contracts/math/SafeMath.sol\";\nimport { IERC20 } from  \"../../node_modules/@openzeppelin/contracts/token/ERC20/IERC20.sol\"; \nimport { DAOAgendaManagerRole } from \"../roles/DAOAgendaManagerRole.sol\"; \n\ncontract DAOAgendaManager is OwnableAdmin, DAOAgendaManagerRole { \n     \n    using SafeMath for uint256; \n    address public ton ;  \n    address public activityFeeManager ;  \n    \n    uint256 public numAgendas;\n    uint256 public numExecAgendas; \n    \n    uint256 public createAgendaFees; //   \n    \n    uint256 public minimunNoticePeriodMin;\n    uint256 public minimunVotingPeriodMin; \n    \n    Agenda[] public agendas;  \n    \n    Ratio public quorum;\n    \n    struct Ratio {\n        uint256 numerator;\n        uint256 denominator;\n    } \n    \n    // times 0:creationDate 1:noticeEndTime  2:votingStartTime 3:votingEndTime  4:execTime\n    // counting abstainVotes yesVotes noVotes\n    struct Agenda {\n        address creator;\n        AgendaStatus status;\n        AgendaResult result;\n        uint group;\n        bool executed;\n        uint[5] times; \n        uint256[3] counting;\n        uint256 fees;\n        address target;\n        bytes functionBytecode;\n        string description;\n        address[] voters;  \n        mapping(address => Voter) voterInfo;\n        address[] committees;\n    }\n    \n    //votor : based operator \n    struct Voter {\n        bool hasVoted;\n        address layer2;\n        uint vote;\n        string comment;\n    } \n     \n    enum VoteChoice { ABSTAIN, YES, NO }\n    enum AgendaStatus { NOTICE, VOTING, EXEC, ENDED }\n    enum AgendaResult { UNDEFINED, ACCEPT, REJECT, DISMISS }\n     \n    \n    constructor(address _ton) public { \n        minimunNoticePeriodMin = 60*24*15; //  15 days , with minutes \n        minimunVotingPeriodMin = 60*24*2; //  2 days , with minutes \n        \n        createAgendaFees = 0; \n        quorum = Ratio(1,2);\n        ton = _ton;\n        numAgendas =0; \n    } \n         \n    function setCreateAgendaFees(uint256 _createAgendaFees)  onlyOwner public { \n        createAgendaFees = _createAgendaFees;\n    }\n    function setMinimunNoticePeriodMin(uint256 _minimunNoticePeriodMin)  onlyOwner public { \n        minimunNoticePeriodMin = _minimunNoticePeriodMin;\n    }\n    function setMinimunVotingPeriodMin(uint256 _minimunVotingPeriodMin)  onlyOwner public { \n        minimunVotingPeriodMin = _minimunVotingPeriodMin;\n    }\n     \n      \n    function setActivityFeeManager(address _man)  onlyOwner public {\n        require(_man != address(0)); \n        activityFeeManager = _man;\n    }   \n    function setQuorum(uint256 quorumNumerator, uint256 quorumDenominator)  onlyOwner public {\n        require( quorumNumerator > 0 && quorumDenominator > 0 &&  quorumNumerator < quorumDenominator ); \n        quorum = Ratio(quorumNumerator,quorumDenominator);\n    }  \n    \n    function userHasVoted(uint256 _AgendaID, address _user) public view  returns (bool)\n    {\n        require( _AgendaID < numAgendas,  \"Not a valid Proposal Id\" );\n        return (agendas[_AgendaID].voterInfo[_user].hasVoted);\n    }\n    \n    function getQuorumRatio() public view  returns (uint256 numerator, uint256 denominator ) { \n        return (quorum.numerator , quorum.denominator);\n    }\n     \n    function getAgendaNoticeEndTimeSeconds(uint256 _AgendaID) public view  returns (uint)\n    {\n         // times 0:creationDate 1:noticeEndTime  2:votingStartTime 3:votingEndTime  4:execTime\n        require( _AgendaID < numAgendas,  \"Not a valid Agenda Id\" ); \n        return ( agendas[_AgendaID].times[1] );\n    } \n    \n    function getAgendaVotingStartTimeSeconds(uint256 _AgendaID) public view  returns (uint)\n    {\n         // times 0:creationDate 1:noticeEndTime  2:votingStartTime 3:votingEndTime  4:execTime\n        require( _AgendaID < numAgendas,  \"Not a valid Agenda Id\" ); \n        return ( agendas[_AgendaID].times[2] );\n    }\n    function getAgendaVotingEndTimeSeconds(uint256 _AgendaID) public view  returns (uint)\n    {\n         // times 0:creationDate 1:noticeEndTime  2:votingStartTime 3:votingEndTime  4:execTime\n        require( _AgendaID < numAgendas,  \"Not a valid Agenda Id\" ); \n        return ( agendas[_AgendaID].times[3] );\n    }\n    \n    function detailedAgenda(uint256 _AgendaID) \n        public view  returns (address[2] memory  creator, uint[8] memory datas, uint256[3] memory counting,uint256 fees, bool executed, bytes memory functionBytecode,string memory description,  address[] memory voters ) {\n        //returns (address,uint[3] memory,uint[3] memory ,uint256[5] memory ,bool ,address[] memory ) {\n        require( _AgendaID < numAgendas,  \"Not a valid Agenda Id\" );\n        Agenda memory agenda = agendas[_AgendaID]; \n        uint[8] memory args1 = [ uint(agenda.status) ,uint(agenda.result) , uint(agenda.group) , agenda.times[0],agenda.times[1],agenda.times[2],agenda.times[3] ,agenda.times[4] ];\n        \n        return ( [agenda.creator, agenda.target], args1, agenda.counting,agenda.fees, agenda.executed , agenda.functionBytecode , agenda.description ,agenda.voters);\n    }\n\n    function detailedAgendaVoteInfo(uint256 _AgendaID, address voter) \n        public view returns (bool hasVoted , uint256 vote, string memory comment) {\n            \n        require( _AgendaID < numAgendas,  \"Not a valid Agenda Id\" );     \n\n        if(agendas[_AgendaID].voterInfo[voter].hasVoted )  {\n            return ( agendas[_AgendaID].voterInfo[voter].hasVoted , agendas[_AgendaID].voterInfo[voter].vote , agendas[_AgendaID].voterInfo[voter].comment );  \n        } else {\n            return (false, 0, '' );  \n        } \n    } \n    \n    function getAgendaStatus(uint256 _AgendaID) public view returns (bool exist, uint status) {\n         \n        if(_AgendaID < agendas.length)\n            return (true, uint(agendas[_AgendaID].status) ); \n        else \n            return (false, 0);\n    }\n\n    function totalAgendas() public view returns (uint256) { \n        return agendas.length;\n    } \n    function getNumExecAgendas() public view returns (uint256) { \n        return numExecAgendas;\n    } \n    \n    function getCreateAgendaFees() public view returns (uint256) { return createAgendaFees;}\n    function getMinimunNoticePeriodMin() public view returns (uint256) { return minimunNoticePeriodMin;}\n    function getMinimunVotingPeriodMin() public view returns (uint256) { return minimunVotingPeriodMin;}\n     \n    function getActivityFeeManager() public view returns (address) { return activityFeeManager;}\n    function getAgendaResult(uint256 _AgendaID) public view  returns (uint result,bool executed, address target, bytes memory functionBytecode){\n        require( _AgendaID < numAgendas,  \"Not a valid _AgendaID Id\" );    \n        return ( uint(agendas[_AgendaID].result), agendas[_AgendaID].executed, agendas[_AgendaID].target, agendas[_AgendaID].functionBytecode );\n    }\n   \n    function newAgenda( uint _group, address _target, address _creator, uint _noticePeriodMin,bytes memory _functionBytecode,string memory _description, uint256 _fees ) \n        onlyOwner public returns (uint256 agendaID) {\n        \n        require(_noticePeriodMin >= minimunNoticePeriodMin ,'minimunNoticePeriod is short') ;\n         \n        Agenda memory p;\n        p.creator = _creator;\n        p.status = AgendaStatus.NOTICE;\n        p.result = AgendaResult.UNDEFINED;\n        p.executed = false;\n        //times   0: creationDate  1: notice-endTime  2: voting-start 3: voting-end 4: execTime\n        p.times[0] = now;\n        p.times[1] = now + 60 * _noticePeriodMin * 1 seconds;\n        p.times[2] = 0;\n        p.times[3] = 0; \n        p.times[4] = 0;\n        p.functionBytecode = _functionBytecode;\n        p.description = _description;\n        p.group = _group; \n        p.target = _target;  \n        p.fees = _fees; \n        //p.proposalHash = keccak256(abi.encodePacked(functionBytecode, p.target)); \n        \n        agendas.push(p);\n        \n        numAgendas = agendas.length; \n        agendaID = numAgendas.sub(1);\n        return agendaID;\n    }\n    \n    \n    function electCommiitteeForAgenda(uint256 _AgendaID, address[] memory committees ) onlyOwner public returns (bool) {\n       \n        require( _AgendaID < agendas.length && agendas[_AgendaID].status == AgendaStatus.NOTICE, \"agenda has expired.\" );  \n        Agenda storage curagenda = agendas[_AgendaID]; \n        \n        uint256 i=0; \n        for(i=1; i< committees.length; i++){\n            address _addr = committees[i];\n            curagenda.committees.push(_addr); \n        }\n        curagenda.times[2] = now;\n        curagenda.times[3] = now + 60 * minimunVotingPeriodMin * 1 seconds;  \n        curagenda.status = AgendaStatus.VOTING ;  \n        return true;\n    }\n    \n    function validCommitteeForAgenda(uint256 _AgendaID, address user) public view returns (bool) {\n        require(user!=address(0));\n        Agenda storage curagenda = agendas[_AgendaID]; \n        uint256 i=0; \n        for(i=0; i< curagenda.committees.length; i++){\n             if(user == curagenda.committees[i]) return true;\n        }\n        return false; \n    }\n    \n    function castVote(uint256 _AgendaID,  address voter,address _layer, uint _vote , string memory _comment, uint256 _majority ) onlyOwner public  \n    {  \n        \n        require( _AgendaID < agendas.length && agendas[_AgendaID].status == AgendaStatus.VOTING, \"status is not voting.\" ); \n        /*\n        require( agendas[_AgendaID].times[2] >= now  && agendas[_AgendaID].times[3] <= now , \"voting period has expired.\" );\n        require( validCommitteeForAgenda(  _AgendaID, voter ),\"you are not a committee member on this agenda.\"); \n        require( !userHasVoted(_AgendaID, voter), \"voter already voted on this proposal\" );\n        */\n        \n        Agenda storage curagenda = agendas[_AgendaID];\n        \n        curagenda.voterInfo[voter] = Voter({\n            hasVoted: true, \n            layer2:_layer,\n            vote: _vote, \n            comment: _comment\n        });\n             \n        curagenda.voters.push(voter); \n        \n        // counting 0:abstainVotes 1:yesVotes 2:noVotes \n        if(_vote == uint(VoteChoice.ABSTAIN) ) curagenda.counting[0] = curagenda.counting[0].add(1);\n        else if(_vote == uint(VoteChoice.YES)) curagenda.counting[1] = curagenda.counting[1].add(1);\n        else curagenda.counting[2] = curagenda.counting[2].add(1); \n        \n        if( _majority < curagenda.counting[0] ){  curagenda.result = AgendaResult.DISMISS; }\n        else if(_majority < curagenda.counting[1] ) { curagenda.result = AgendaResult.ACCEPT; }\n        else if(_majority < curagenda.counting[2] ) { curagenda.result = AgendaResult.REJECT; } \n          \n    }  \n    \n    \n    function setExecuteAgenda(uint256 _AgendaID) onlyOwner public returns ( bool success,  uint result, bool executed, address target, bytes memory functionBytecode)  \n    {   \n        require( _AgendaID < agendas.length   ,\"_AgendaID is invalid.\" );   \n        /*\n        require( _AgendaID < agendas.length && agendas[_AgendaID].status == AgendaStatus.IN_PROGRESS ,\"agenda has expired.\" );   \n        require( getAgendaExpirationTimeSeconds(_AgendaID) < now && agendas[_AgendaID].target != address(0), \"for this agenda, the voting time is not expired\" );\n        require( agendas[_AgendaID].result == AgendaResult.ACCEPT , \"for this agenda, not accept\" );\n        require( !agendas[_AgendaID].executed , \"for this agenda, already executed\" );\n        */\n        Agenda storage curagenda = agendas[_AgendaID];\n        curagenda.executed = true;\n        curagenda.times[4] = now; \n        curagenda.status = AgendaStatus.EXEC;\n        numExecAgendas = numExecAgendas.add(1);\n        \n        return ( true, uint(curagenda.result), curagenda.executed, curagenda.target, curagenda.functionBytecode );\n    }   \n     \n}\n",
  "sourcePath": "/Users/zena/plasmawork/tokamak-dao-contracts/contracts/dao/DAOAgendaManager.sol",
  "compiler": {
    "name": "solc",
    "version": "0.6.2+commit.bacdbe57.Emscripten.clang"
  },
  "schemaVersion": "3.3.2",
  "updatedAt": "2020-12-17T03:40:16.489Z",
  "devdoc": {
    "methods": {}
  },
  "userdoc": {
    "methods": {}
  }
}