{
  "contractName": "DAOActivityFeeManager",
  "abi": [
    {
      "inputs": [
        {
          "internalType": "address",
          "name": "_ton",
          "type": "address"
        }
      ],
      "stateMutability": "nonpayable",
      "type": "constructor"
    },
    {
      "anonymous": false,
      "inputs": [
        {
          "indexed": true,
          "internalType": "address",
          "name": "account",
          "type": "address"
        }
      ],
      "name": "ActivityFeeManagerAdded",
      "type": "event"
    },
    {
      "anonymous": false,
      "inputs": [
        {
          "indexed": true,
          "internalType": "address",
          "name": "account",
          "type": "address"
        }
      ],
      "name": "ActivityFeeManagerRemoved",
      "type": "event"
    },
    {
      "inputs": [],
      "name": "activityfeePerVoting",
      "outputs": [
        {
          "internalType": "uint256",
          "name": "",
          "type": "uint256"
        }
      ],
      "stateMutability": "view",
      "type": "function"
    },
    {
      "inputs": [
        {
          "internalType": "address",
          "name": "",
          "type": "address"
        }
      ],
      "name": "activityfees",
      "outputs": [
        {
          "internalType": "uint256",
          "name": "total",
          "type": "uint256"
        },
        {
          "internalType": "uint256",
          "name": "remain",
          "type": "uint256"
        },
        {
          "internalType": "uint256",
          "name": "claim",
          "type": "uint256"
        }
      ],
      "stateMutability": "view",
      "type": "function"
    },
    {
      "inputs": [
        {
          "internalType": "address",
          "name": "account",
          "type": "address"
        }
      ],
      "name": "addActivityFeeManager",
      "outputs": [],
      "stateMutability": "nonpayable",
      "type": "function"
    },
    {
      "inputs": [],
      "name": "admin",
      "outputs": [
        {
          "internalType": "address",
          "name": "",
          "type": "address"
        }
      ],
      "stateMutability": "view",
      "type": "function"
    },
    {
      "inputs": [
        {
          "internalType": "uint256",
          "name": "",
          "type": "uint256"
        }
      ],
      "name": "agendaActivityfees",
      "outputs": [
        {
          "internalType": "uint256",
          "name": "",
          "type": "uint256"
        }
      ],
      "stateMutability": "view",
      "type": "function"
    },
    {
      "inputs": [
        {
          "internalType": "uint256",
          "name": "",
          "type": "uint256"
        },
        {
          "internalType": "address",
          "name": "",
          "type": "address"
        }
      ],
      "name": "agendaVoters",
      "outputs": [
        {
          "internalType": "bool",
          "name": "",
          "type": "bool"
        }
      ],
      "stateMutability": "view",
      "type": "function"
    },
    {
      "inputs": [],
      "name": "daoVault",
      "outputs": [
        {
          "internalType": "address",
          "name": "",
          "type": "address"
        }
      ],
      "stateMutability": "view",
      "type": "function"
    },
    {
      "inputs": [
        {
          "internalType": "address",
          "name": "account",
          "type": "address"
        }
      ],
      "name": "isActivityFeeManager",
      "outputs": [
        {
          "internalType": "bool",
          "name": "",
          "type": "bool"
        }
      ],
      "stateMutability": "view",
      "type": "function"
    },
    {
      "inputs": [],
      "name": "owner",
      "outputs": [
        {
          "internalType": "address",
          "name": "",
          "type": "address"
        }
      ],
      "stateMutability": "view",
      "type": "function"
    },
    {
      "inputs": [],
      "name": "renounceActivityFeeManager",
      "outputs": [],
      "stateMutability": "nonpayable",
      "type": "function"
    },
    {
      "inputs": [],
      "name": "ton",
      "outputs": [
        {
          "internalType": "address",
          "name": "",
          "type": "address"
        }
      ],
      "stateMutability": "view",
      "type": "function"
    },
    {
      "inputs": [],
      "name": "totalActivityFees",
      "outputs": [
        {
          "internalType": "uint256",
          "name": "",
          "type": "uint256"
        }
      ],
      "stateMutability": "view",
      "type": "function"
    },
    {
      "inputs": [
        {
          "internalType": "address",
          "name": "newAdmin",
          "type": "address"
        }
      ],
      "name": "transferAdmin",
      "outputs": [],
      "stateMutability": "nonpayable",
      "type": "function"
    },
    {
      "inputs": [
        {
          "internalType": "address",
          "name": "newOwner",
          "type": "address"
        }
      ],
      "name": "transferOwnership",
      "outputs": [],
      "stateMutability": "nonpayable",
      "type": "function"
    },
    {
      "inputs": [
        {
          "internalType": "address",
          "name": "target",
          "type": "address"
        },
        {
          "internalType": "address",
          "name": "newOwner",
          "type": "address"
        }
      ],
      "name": "transfertargetOwnership",
      "outputs": [],
      "stateMutability": "nonpayable",
      "type": "function"
    },
    {
      "inputs": [
        {
          "internalType": "uint256",
          "name": "_activityfeePerVoting",
          "type": "uint256"
        }
      ],
      "name": "setActivityfeePerVoting",
      "outputs": [],
      "stateMutability": "nonpayable",
      "type": "function"
    },
    {
      "inputs": [
        {
          "internalType": "address",
          "name": "_daoVault",
          "type": "address"
        }
      ],
      "name": "setDaoVault",
      "outputs": [],
      "stateMutability": "nonpayable",
      "type": "function"
    },
    {
      "inputs": [],
      "name": "getTON",
      "outputs": [
        {
          "internalType": "address",
          "name": "",
          "type": "address"
        }
      ],
      "stateMutability": "view",
      "type": "function"
    },
    {
      "inputs": [],
      "name": "getDaoVault",
      "outputs": [
        {
          "internalType": "address",
          "name": "",
          "type": "address"
        }
      ],
      "stateMutability": "view",
      "type": "function"
    },
    {
      "inputs": [
        {
          "internalType": "address",
          "name": "user",
          "type": "address"
        }
      ],
      "name": "getActivityfees",
      "outputs": [
        {
          "internalType": "uint256",
          "name": "total",
          "type": "uint256"
        },
        {
          "internalType": "uint256",
          "name": "remain",
          "type": "uint256"
        },
        {
          "internalType": "uint256",
          "name": "claim",
          "type": "uint256"
        }
      ],
      "stateMutability": "view",
      "type": "function"
    },
    {
      "inputs": [
        {
          "internalType": "uint256",
          "name": "_AgendaID",
          "type": "uint256"
        },
        {
          "internalType": "uint256",
          "name": "fees",
          "type": "uint256"
        }
      ],
      "name": "payActivityFees",
      "outputs": [
        {
          "internalType": "bool",
          "name": "",
          "type": "bool"
        }
      ],
      "stateMutability": "nonpayable",
      "type": "function"
    },
    {
      "inputs": [
        {
          "internalType": "address",
          "name": "user",
          "type": "address"
        },
        {
          "internalType": "uint256",
          "name": "amount",
          "type": "uint256"
        }
      ],
      "name": "claim",
      "outputs": [
        {
          "internalType": "uint256",
          "name": "",
          "type": "uint256"
        }
      ],
      "stateMutability": "nonpayable",
      "type": "function"
    },
    {
      "inputs": [],
      "name": "getActivityfeePerVoting",
      "outputs": [
        {
          "internalType": "uint256",
          "name": "",
          "type": "uint256"
        }
      ],
      "stateMutability": "view",
      "type": "function"
    },
    {
      "inputs": [],
      "name": "calculateActivityFees",
      "outputs": [
        {
          "internalType": "uint256",
          "name": "",
          "type": "uint256"
        }
      ],
      "stateMutability": "view",
      "type": "function"
    }
  ],
  "bytecode": "0x608060405234801561001057600080fd5b50604051610bfd380380610bfd8339818101604052602081101561003357600080fd5b505160008054336001600160a01b03199182168117909255600180549091168217905561005f90610089565b6000600555600380546001600160a01b0319166001600160a01b039290921691909117905561014f565b6100a18160026100d860201b610a301790919060201c565b6040516001600160a01b038216907f6d00d7329fca18060945e6b9277a7fc76f60d132f47793d89a9df6f30465817390600090a250565b6100eb82826001600160e01b0361011a16565b156100f557600080fd5b6001600160a01b0316600090815260209190915260409020805460ff19166001179055565b60006001600160a01b03821661012f57600080fd5b506001600160a01b03166000908152602091909152604090205460ff1690565b610a9f8061015e6000396000f3fe608060405234801561001057600080fd5b50600436106101585760003560e01c806391e70759116100c3578063d1628bb01161007c578063d1628bb014610365578063de0760fc14610382578063f1c41b51146103a8578063f2fde38b146103b0578063f851a440146103d6578063fa04be6e146103de57610158565b806391e70759146102af5780639bfc1266146102b7578063aad3ec96146102bf578063becc24c7146102eb578063cc48b94714610319578063cc9efba91461032157610158565b806358ba5f161161011557806358ba5f16146102285780635903bd6c1461024b578063613a3fd91461025357806375829def146102795780638d63537f1461029f5780638da5cb5b146102a757610158565b80630e3557411461015d57806328b2418e146101815780632a43be2c146101c15780632f5b5ccc146101cb5780634b799db1146101fa5780634f64ecf214610220575b600080fd5b610165610404565b604080516001600160a01b039092168252519081900360200190f35b6101ad6004803603604081101561019757600080fd5b50803590602001356001600160a01b0316610414565b604080519115158252519081900360200190f35b6101c9610434565b005b6101e8600480360360208110156101e157600080fd5b503561043f565b60408051918252519081900360200190f35b6101c96004803603602081101561021057600080fd5b50356001600160a01b0316610451565b6101e86104b2565b6101ad6004803603604081101561023e57600080fd5b50803590602001356104d6565b610165610510565b6101ad6004803603602081101561026957600080fd5b50356001600160a01b031661051f565b6101c96004803603602081101561028f57600080fd5b50356001600160a01b0316610532565b6101e8610577565b61016561057d565b61016561058c565b6101e861059b565b6101e8600480360360408110156102d557600080fd5b506001600160a01b0381351690602001356105a1565b6101c96004803603604081101561030157600080fd5b506001600160a01b0381358116916020013516610622565b6101656106ad565b6103476004803603602081101561033757600080fd5b50356001600160a01b03166106bc565b60408051938452602084019290925282820152519081900360600190f35b6101c96004803603602081101561037b57600080fd5b503561071f565b6101c96004803603602081101561039857600080fd5b50356001600160a01b0316610750565b6101e861076b565b6101c9600480360360208110156103c657600080fd5b50356001600160a01b0316610771565b6101656107cc565b610347600480360360208110156103f457600080fd5b50356001600160a01b03166107db565b6003546001600160a01b03165b90565b600860209081526000928352604080842090915290825290205460ff1681565b61043d336107fc565b565b60076020526000908152604090205481565b6000546001600160a01b031633148061047457506001546001600160a01b031633145b61047d57600080fd5b6001600160a01b03811661049057600080fd5b600480546001600160a01b0319166001600160a01b0392909216919091179055565b6000806104bd61076b565b905080156104cc579050610411565b6000915050610411565b600080546001600160a01b031633146104ee57600080fd5b81156105065760008381526007602052604090208290555b5060015b92915050565b6004546001600160a01b031681565b600061050a60028363ffffffff61084416565b6001546001600160a01b0316331461054957600080fd5b6001600160a01b0381161561057457600180546001600160a01b0319166001600160a01b0383161790555b50565b60095481565b6000546001600160a01b031681565b6004546001600160a01b031690565b60055481565b600080546001600160a01b031633146105b957600080fd5b6001600160a01b0383166000908152600660205260409020600181015483116106185760018101546105f1908463ffffffff61087916565b6001820155600281015461060b908463ffffffff6108c216565b600290910155508061050a565b600091505061050a565b6000546001600160a01b0316331461063957600080fd5b816001600160a01b031663f2fde38b826040518263ffffffff1660e01b815260040180826001600160a01b03166001600160a01b03168152602001915050600060405180830381600087803b15801561069157600080fd5b505af11580156106a5573d6000803e3d6000fd5b505050505050565b6003546001600160a01b031681565b6001600160a01b038116600090815260066020526040812054819081901561070e575050506001600160a01b038116600090815260066020526040902080546001820154600290920154909190610718565b5060009150819050805b9193909250565b6000546001600160a01b031633148061074257506001546001600160a01b031633145b61074b57600080fd5b600555565b6107593361051f565b61076257600080fd5b6105748161091c565b60055490565b6000546001600160a01b031633148061079457506001546001600160a01b031633145b61079d57600080fd5b6001600160a01b0381161561057457600080546001600160a01b0383166001600160a01b031990911617905550565b6001546001600160a01b031681565b60066020526000908152604090208054600182015460029092015490919083565b61080d60028263ffffffff61096416565b6040516001600160a01b038216907fc138ce239545bd7a4e0b8d62475f61a98bed0b8be12d4c7a5446cb674297250090600090a250565b60006001600160a01b03821661085957600080fd5b506001600160a01b03166000908152602091909152604090205460ff1690565b60006108bb83836040518060400160405280601e81526020017f536166654d6174683a207375627472616374696f6e206f766572666c6f770000815250610999565b9392505050565b6000828201838110156108bb576040805162461bcd60e51b815260206004820152601b60248201527f536166654d6174683a206164646974696f6e206f766572666c6f770000000000604482015290519081900360640190fd5b61092d60028263ffffffff610a3016565b6040516001600160a01b038216907f6d00d7329fca18060945e6b9277a7fc76f60d132f47793d89a9df6f30465817390600090a250565b61096e8282610844565b61097757600080fd5b6001600160a01b0316600090815260209190915260409020805460ff19169055565b60008184841115610a285760405162461bcd60e51b81526004018080602001828103825283818151815260200191508051906020019080838360005b838110156109ed5781810151838201526020016109d5565b50505050905090810190601f168015610a1a5780820380516001836020036101000a031916815260200191505b509250505060405180910390fd5b505050900390565b610a3a8282610844565b15610a4457600080fd5b6001600160a01b0316600090815260209190915260409020805460ff1916600117905556fea2646970667358221220e5ab1e932b517bf3ab6f900ee7e1cdfabc1bccf1eb328368195467ac83b8c16164736f6c63430006020033",
  "source": "// SPDX-License-Identifier: MIT\npragma solidity ^0.6.0;\n\nimport \"../shared/OwnableAdmin.sol\";\nimport { SafeMath } from \"../../node_modules/@openzeppelin/contracts/math/SafeMath.sol\";\nimport { IERC20 } from  \"../../node_modules/@openzeppelin/contracts/token/ERC20/IERC20.sol\";\nimport \"../roles/DAOActivityFeeManagerRole.sol\";\n\ncontract DAOActivityFeeManager is OwnableAdmin , DAOActivityFeeManagerRole {\n    \n    using SafeMath for uint256; \n    address public ton ;  \n    address public daoVault ;   \n     \n    uint256 public activityfeePerVoting;\n    \n    mapping (address => ActivityFee) public activityfees;\n    mapping (uint256 => uint256) public agendaActivityfees; // agenda's activity fees \n    mapping (uint256 => mapping(address=>bool)) public agendaVoters;\n    uint256 public totalActivityFees; \n    \n    struct ActivityFee {\n        uint256 total;\n        uint256 remain;\n        uint256 claim;\n    }\n     \n    constructor(address _ton) public {  \n       \n        activityfeePerVoting = 0; \n        ton = _ton;\n    }\n            \n    function setActivityfeePerVoting(uint256 _activityfeePerVoting)  onlyAdminAndOwner public { \n        activityfeePerVoting = _activityfeePerVoting;\n    }  \n     \n    function setDaoVault(address _daoVault)  onlyAdminAndOwner public {\n        require(_daoVault != address(0)); \n        daoVault = _daoVault;\n    } \n      \n     \n    function getTON() public view returns (address) { return ton;}\n     \n    function getDaoVault() public view returns (address) { return daoVault;} \n    \n    \n    function getActivityfees(address user) public view returns (uint256 total, uint256 remain,uint256 claim) { \n        if( activityfees[user].total > 0 ) { return ( activityfees[user].total, activityfees[user].remain, activityfees[user].claim ); } \n        else { return(0,0,0); } \n    }   \n    \n    function payActivityFees(uint256 _AgendaID , uint256 fees ) onlyOwner public returns ( bool )  \n    { \n         \n        if( fees > 0 ){ \n            agendaActivityfees[_AgendaID] = fees; \n        } \n        \n        return true;\n    }    \n    \n    function claim(address user, uint256 amount) onlyOwner  public  returns ( uint256 )  \n    { \n       ActivityFee storage af = activityfees[user] ;\n       \n       if( af.remain >= amount ){\n           af.remain = af.remain.sub( amount );\n           af.claim = af.claim.add( amount );\n           return amount;\n       } else {\n           return 0;\n       }  \n    } \n    \n    \n    function getActivityfeePerVoting()  public view returns ( uint256 )  \n    { \n        return activityfeePerVoting;\n    }   \n    \n    /*\n    function claim(uint256 amount)  public  returns (uint256 ){ \n        address dauvault = store.getDaoVault();\n        require( dauvault != address(0)  ,'dauvault is zreo') ;\n        \n        address activityFeeManager = store.getActivityFeeManager();\n        require( activityFeeManager != address(0)  ,'activityFeeManager is zreo') ;\n        \n        require( amount > 0 ,'amount is zreo') ;\n        (uint256 total, uint256 remain, ) = DAOActivityFeeManagerI(activityFeeManager).getActivityfees(msg.sender); \n        require(total >= amount && remain >= amount ,'lack of remain') ;\n        \n        uint256  storeclaim = DAOActivityFeeManagerI(activityFeeManager).claim(msg.sender, amount) ;\n        require(amount == storeclaim ,'store claim fail' ) ;\n         \n        // from daovault to sender  \n        (bool success, bytes memory execresult) = address(dauvault).call(abi.encodeWithSignature(\"claimCommittee(address,uint256)\",msg.sender,amount));\n        require(success,'fail to claimCommittee');\n        uint256 callclaimamount = abi.decode(execresult, (uint256));  \n        require(callclaimamount > 0,'callclaimamount is zero' );\n        \n        emit ClaimActivityFees(msg.sender, amount , callclaimamount, storeclaim );\n        \n        return callclaimamount;\n    }   \n    \n    function getActivityfees() public view returns (uint256 total, uint256 remain, uint256 claimdone) {\n        address activityFeeManager = store.getActivityFeeManager();\n        require( activityFeeManager != address(0)  ,'activityFeeManager is zreo') ;\n        \n        return DAOActivityFeeManagerI(activityFeeManager).getActivityfees(msg.sender);\n    }  \n    */\n    \n     function calculateActivityFees()  public view returns ( uint256 )  \n    {    \n        uint256 uintFees = getActivityfeePerVoting();\n        \n         if( uintFees > 0){\n            return uintFees;\n        } else{\n            return 0;\n        }\n    }  \n}",
  "sourcePath": "/Users/zena/plasmawork/tokamak-dao-contracts/contracts/dao/DAOActivityManager.sol",
  "compiler": {
    "name": "solc",
    "version": "0.6.2+commit.bacdbe57.Emscripten.clang"
  },
  "schemaVersion": "3.3.2",
  "updatedAt": "2020-12-17T03:40:16.486Z",
  "devdoc": {
    "methods": {}
  },
  "userdoc": {
    "methods": {}
  }
}