{
  "contractName": "DAOCommitteeStore",
  "abi": [
    {
      "inputs": [
        {
          "internalType": "address",
          "name": "_ton",
          "type": "address"
        }
      ],
      "stateMutability": "nonpayable",
      "type": "constructor"
    },
    {
      "inputs": [],
      "name": "activityFeeManager",
      "outputs": [
        {
          "internalType": "address",
          "name": "",
          "type": "address"
        }
      ],
      "stateMutability": "view",
      "type": "function"
    },
    {
      "inputs": [],
      "name": "admin",
      "outputs": [
        {
          "internalType": "address",
          "name": "",
          "type": "address"
        }
      ],
      "stateMutability": "view",
      "type": "function"
    },
    {
      "inputs": [],
      "name": "agendaManager",
      "outputs": [
        {
          "internalType": "address",
          "name": "",
          "type": "address"
        }
      ],
      "stateMutability": "view",
      "type": "function"
    },
    {
      "inputs": [
        {
          "internalType": "address",
          "name": "",
          "type": "address"
        }
      ],
      "name": "committeeId",
      "outputs": [
        {
          "internalType": "uint256",
          "name": "",
          "type": "uint256"
        }
      ],
      "stateMutability": "view",
      "type": "function"
    },
    {
      "inputs": [
        {
          "internalType": "uint256",
          "name": "",
          "type": "uint256"
        }
      ],
      "name": "committees",
      "outputs": [
        {
          "internalType": "address",
          "name": "",
          "type": "address"
        }
      ],
      "stateMutability": "view",
      "type": "function"
    },
    {
      "inputs": [],
      "name": "daoElection",
      "outputs": [
        {
          "internalType": "address",
          "name": "",
          "type": "address"
        }
      ],
      "stateMutability": "view",
      "type": "function"
    },
    {
      "inputs": [],
      "name": "daoVault",
      "outputs": [
        {
          "internalType": "address",
          "name": "",
          "type": "address"
        }
      ],
      "stateMutability": "view",
      "type": "function"
    },
    {
      "inputs": [],
      "name": "maxCommittees",
      "outputs": [
        {
          "internalType": "uint256",
          "name": "",
          "type": "uint256"
        }
      ],
      "stateMutability": "view",
      "type": "function"
    },
    {
      "inputs": [
        {
          "internalType": "address",
          "name": "",
          "type": "address"
        }
      ],
      "name": "memberId",
      "outputs": [
        {
          "internalType": "uint256",
          "name": "",
          "type": "uint256"
        }
      ],
      "stateMutability": "view",
      "type": "function"
    },
    {
      "inputs": [
        {
          "internalType": "uint256",
          "name": "",
          "type": "uint256"
        }
      ],
      "name": "members",
      "outputs": [
        {
          "internalType": "address",
          "name": "layer2",
          "type": "address"
        },
        {
          "internalType": "address",
          "name": "operator",
          "type": "address"
        },
        {
          "internalType": "string",
          "name": "name",
          "type": "string"
        },
        {
          "internalType": "uint256",
          "name": "memberSince",
          "type": "uint256"
        },
        {
          "internalType": "uint256",
          "name": "castingcount",
          "type": "uint256"
        },
        {
          "internalType": "uint256",
          "name": "l2balance",
          "type": "uint256"
        },
        {
          "internalType": "uint256",
          "name": "committeeJoinTime",
          "type": "uint256"
        },
        {
          "internalType": "uint256",
          "name": "getBlanceTime",
          "type": "uint256"
        }
      ],
      "stateMutability": "view",
      "type": "function"
    },
    {
      "inputs": [],
      "name": "owner",
      "outputs": [
        {
          "internalType": "address",
          "name": "",
          "type": "address"
        }
      ],
      "stateMutability": "view",
      "type": "function"
    },
    {
      "inputs": [],
      "name": "ton",
      "outputs": [
        {
          "internalType": "address",
          "name": "",
          "type": "address"
        }
      ],
      "stateMutability": "view",
      "type": "function"
    },
    {
      "inputs": [
        {
          "internalType": "address",
          "name": "newAdmin",
          "type": "address"
        }
      ],
      "name": "transferAdmin",
      "outputs": [],
      "stateMutability": "nonpayable",
      "type": "function"
    },
    {
      "inputs": [
        {
          "internalType": "address",
          "name": "newOwner",
          "type": "address"
        }
      ],
      "name": "transferOwnership",
      "outputs": [],
      "stateMutability": "nonpayable",
      "type": "function"
    },
    {
      "inputs": [
        {
          "internalType": "address",
          "name": "target",
          "type": "address"
        },
        {
          "internalType": "address",
          "name": "newOwner",
          "type": "address"
        }
      ],
      "name": "transfertargetOwnership",
      "outputs": [],
      "stateMutability": "nonpayable",
      "type": "function"
    },
    {
      "inputs": [],
      "name": "initCommitteeSlot",
      "outputs": [
        {
          "internalType": "bool",
          "name": "",
          "type": "bool"
        }
      ],
      "stateMutability": "nonpayable",
      "type": "function"
    },
    {
      "inputs": [],
      "name": "totalCommittees",
      "outputs": [
        {
          "internalType": "uint256",
          "name": "",
          "type": "uint256"
        }
      ],
      "stateMutability": "view",
      "type": "function"
    },
    {
      "inputs": [],
      "name": "lengthCommitteeSlotIndex",
      "outputs": [
        {
          "internalType": "uint256",
          "name": "",
          "type": "uint256"
        }
      ],
      "stateMutability": "view",
      "type": "function"
    },
    {
      "inputs": [],
      "name": "getCommittees",
      "outputs": [
        {
          "internalType": "address[]",
          "name": "",
          "type": "address[]"
        }
      ],
      "stateMutability": "view",
      "type": "function"
    },
    {
      "inputs": [
        {
          "internalType": "uint256",
          "name": "_indexSlot",
          "type": "uint256"
        }
      ],
      "name": "detailedCommittee",
      "outputs": [
        {
          "internalType": "address",
          "name": "layer2",
          "type": "address"
        },
        {
          "internalType": "address",
          "name": "operator",
          "type": "address"
        },
        {
          "internalType": "string",
          "name": "name",
          "type": "string"
        },
        {
          "internalType": "uint256",
          "name": "memberSince",
          "type": "uint256"
        },
        {
          "internalType": "uint256",
          "name": "castingcount",
          "type": "uint256"
        },
        {
          "internalType": "uint256",
          "name": "balance",
          "type": "uint256"
        },
        {
          "internalType": "uint256",
          "name": "joinTime",
          "type": "uint256"
        },
        {
          "internalType": "uint256",
          "name": "balanceTime",
          "type": "uint256"
        }
      ],
      "stateMutability": "view",
      "type": "function"
    },
    {
      "inputs": [
        {
          "internalType": "address",
          "name": "_operator",
          "type": "address"
        }
      ],
      "name": "isCommittee",
      "outputs": [
        {
          "internalType": "bool",
          "name": "_iscommittee",
          "type": "bool"
        },
        {
          "internalType": "uint256",
          "name": "_committeeIndex",
          "type": "uint256"
        }
      ],
      "stateMutability": "view",
      "type": "function"
    },
    {
      "inputs": [
        {
          "internalType": "address",
          "name": "_operator",
          "type": "address"
        }
      ],
      "name": "existsMember",
      "outputs": [
        {
          "internalType": "bool",
          "name": "",
          "type": "bool"
        }
      ],
      "stateMutability": "view",
      "type": "function"
    },
    {
      "inputs": [
        {
          "internalType": "address",
          "name": "_operator",
          "type": "address"
        }
      ],
      "name": "retireCommittee",
      "outputs": [
        {
          "internalType": "bool",
          "name": "",
          "type": "bool"
        }
      ],
      "stateMutability": "nonpayable",
      "type": "function"
    },
    {
      "inputs": [
        {
          "internalType": "uint256",
          "name": "_indexSlot",
          "type": "uint256"
        },
        {
          "internalType": "uint256",
          "name": "_indexMember",
          "type": "uint256"
        },
        {
          "internalType": "address",
          "name": "_newOperator",
          "type": "address"
        },
        {
          "internalType": "uint256",
          "name": "_balance",
          "type": "uint256"
        }
      ],
      "name": "changeCommittee",
      "outputs": [
        {
          "internalType": "bool",
          "name": "result",
          "type": "bool"
        }
      ],
      "stateMutability": "nonpayable",
      "type": "function"
    },
    {
      "inputs": [
        {
          "internalType": "address",
          "name": "_layer2",
          "type": "address"
        },
        {
          "internalType": "address",
          "name": "_operator",
          "type": "address"
        },
        {
          "internalType": "string",
          "name": "name",
          "type": "string"
        }
      ],
      "name": "addMember",
      "outputs": [
        {
          "internalType": "uint256",
          "name": "memberindex",
          "type": "uint256"
        }
      ],
      "stateMutability": "nonpayable",
      "type": "function"
    },
    {
      "inputs": [
        {
          "internalType": "address",
          "name": "user",
          "type": "address"
        }
      ],
      "name": "detailedMember",
      "outputs": [
        {
          "internalType": "uint256",
          "name": "_committeeId",
          "type": "uint256"
        },
        {
          "internalType": "address",
          "name": "layer2",
          "type": "address"
        },
        {
          "internalType": "address",
          "name": "operaor",
          "type": "address"
        },
        {
          "internalType": "string",
          "name": "name",
          "type": "string"
        },
        {
          "internalType": "uint256",
          "name": "memberSince",
          "type": "uint256"
        },
        {
          "internalType": "uint256",
          "name": "castingcount",
          "type": "uint256"
        }
      ],
      "stateMutability": "view",
      "type": "function"
    },
    {
      "inputs": [
        {
          "internalType": "address",
          "name": "user",
          "type": "address"
        }
      ],
      "name": "getMemberid",
      "outputs": [
        {
          "internalType": "uint256",
          "name": "",
          "type": "uint256"
        }
      ],
      "stateMutability": "view",
      "type": "function"
    },
    {
      "inputs": [],
      "name": "getTON",
      "outputs": [
        {
          "internalType": "address",
          "name": "",
          "type": "address"
        }
      ],
      "stateMutability": "view",
      "type": "function"
    },
    {
      "inputs": [],
      "name": "getDaoElection",
      "outputs": [
        {
          "internalType": "address",
          "name": "",
          "type": "address"
        }
      ],
      "stateMutability": "view",
      "type": "function"
    },
    {
      "inputs": [],
      "name": "getActivityFeeManager",
      "outputs": [
        {
          "internalType": "address",
          "name": "",
          "type": "address"
        }
      ],
      "stateMutability": "view",
      "type": "function"
    },
    {
      "inputs": [],
      "name": "getDaoVault",
      "outputs": [
        {
          "internalType": "address",
          "name": "",
          "type": "address"
        }
      ],
      "stateMutability": "view",
      "type": "function"
    },
    {
      "inputs": [],
      "name": "getAganedManager",
      "outputs": [
        {
          "internalType": "address",
          "name": "",
          "type": "address"
        }
      ],
      "stateMutability": "view",
      "type": "function"
    },
    {
      "inputs": [
        {
          "internalType": "uint256",
          "name": "_maxCommittees",
          "type": "uint256"
        }
      ],
      "name": "setMaxCommittees",
      "outputs": [],
      "stateMutability": "nonpayable",
      "type": "function"
    },
    {
      "inputs": [
        {
          "internalType": "address",
          "name": "_daoElection",
          "type": "address"
        }
      ],
      "name": "setDaoElection",
      "outputs": [],
      "stateMutability": "nonpayable",
      "type": "function"
    },
    {
      "inputs": [
        {
          "internalType": "address",
          "name": "_agendaManager",
          "type": "address"
        }
      ],
      "name": "setAgendaManager",
      "outputs": [],
      "stateMutability": "nonpayable",
      "type": "function"
    },
    {
      "inputs": [
        {
          "internalType": "address",
          "name": "_daoVault",
          "type": "address"
        }
      ],
      "name": "setDaoVault",
      "outputs": [],
      "stateMutability": "nonpayable",
      "type": "function"
    },
    {
      "inputs": [
        {
          "internalType": "address",
          "name": "_man",
          "type": "address"
        }
      ],
      "name": "setActivityFeeManager",
      "outputs": [],
      "stateMutability": "nonpayable",
      "type": "function"
    },
    {
      "inputs": [
        {
          "internalType": "address",
          "name": "voter",
          "type": "address"
        }
      ],
      "name": "castVote",
      "outputs": [],
      "stateMutability": "nonpayable",
      "type": "function"
    }
  ],
  "bytecode": "0x60806040523480156200001157600080fd5b5060405162001c9438038062001c94833981810160405260208110156200003757600080fd5b505160008054336001600160a01b03199182168117909255600180548216909217909155600280549091166001600160a01b0383161790556003600755600854620001bb57604080516101008101825260008082526020808301828152845180830186528381529484019485524260608501526080840183905260a0840183905260c0840183905260e084018390526008805460018101825593819052845193027ff3f7a9fe364faab93b216da50a3214154f22a0a2b415b23a84c8169e8b636ee3810180546001600160a01b039586166001600160a01b031991821617825592517ff3f7a9fe364faab93b216da50a3214154f22a0a2b415b23a84c8169e8b636ee483018054919096169316929092179093559351805193949362000185937ff3f7a9fe364faab93b216da50a3214154f22a0a2b415b23a84c8169e8b636ee5019291909101906200020b565b50606082015181600301556080820151816004015560a0820151816005015560c0820151816006015560e0820151816007015550505b6009546200020457600980546001810182556000919091527f6e1540171b6c0c960b71a7020d9f60077f6af931a8bbf590da0223dacf75c7af0180546001600160a01b03191690555b50620002b0565b828054600181600116156101000203166002900490600052602060002090601f016020900481019282601f106200024e57805160ff19168380011785556200027e565b828001600101855582156200027e579182015b828111156200027e57825182559160200191906001019062000261565b506200028c92915062000290565b5090565b620002ad91905b808211156200028c576000815560010162000297565b90565b6119d480620002c06000396000f3fe608060405234801561001057600080fd5b50600436106102325760003560e01c80638c9540d311610130578063cc48b947116100b8578063f2fde38b1161007c578063f2fde38b14610837578063f566d6621461085d578063f5e820fd1461087a578063f851a44014610897578063fe8ea6771461089f57610232565b8063cc48b94714610725578063e4a4c58d1461072d578063e5307b531461074a578063e76557dc14610809578063ee5566201461082f57610232565b8063b25415c0116100ff578063b25415c01461069b578063b2f214a7146106a3578063b98b5153146106ab578063becc24c7146106d1578063c5b6e9a9146106ff57610232565b80638c9540d3146106245780638da5cb5b1461066557806391e707591461066d57806397c740d11461067557610232565b80633441ad86116101be57806353358fc41161018257806353358fc4146104015780635903bd6c146104275780635daf08ca1461042f57806375829def1461051957806388a915241461053f57610232565b80633441ad861461035f57806339106821146103675780633e6f71e51461038d57806349c39f14146103b35780634b799db1146103db57610232565b80631fc1b7de116102055780631fc1b7de146102f3578063211bc4f51461033f578063277b98e61461034757806327ac4d931461034f57806327fd92fd1461035757610232565b806301486ba5146102375780630e3557411461026f578063162de10414610293578063196c7d511461029b575b600080fd5b61025d6004803603602081101561024d57600080fd5b50356001600160a01b03166108a7565b60408051918252519081900360200190f35b6102776108c6565b604080516001600160a01b039092168252519081900360200190f35b6102776108d6565b6102a36108e5565b60408051602080825283518183015283519192839290830191858101910280838360005b838110156102df5781810151838201526020016102c7565b505050509050019250505060405180910390f35b61032b6004803603608081101561030957600080fd5b508035906020810135906001600160a01b036040820135169060600135610947565b604080519115158252519081900360200190f35b61025d610afb565b610277610b05565b61032b610b14565b610277610b84565b61025d610b93565b61025d6004803603602081101561037d57600080fd5b50356001600160a01b0316610b99565b61025d600480360360208110156103a357600080fd5b50356001600160a01b0316610bab565b6103d9600480360360208110156103c957600080fd5b50356001600160a01b0316610bbd565b005b6103d9600480360360208110156103f157600080fd5b50356001600160a01b0316610c09565b6103d96004803603602081101561041757600080fd5b50356001600160a01b0316610c55565b610277610ce0565b61044c6004803603602081101561044557600080fd5b5035610cef565b60405180896001600160a01b03166001600160a01b03168152602001886001600160a01b03166001600160a01b0316815260200180602001878152602001868152602001858152602001848152602001838152602001828103825288818151815260200191508051906020019080838360005b838110156104d75781810151838201526020016104bf565b50505050905090810190601f1680156105045780820380516001836020036101000a031916815260200191505b50995050505050505050505060405180910390f35b6103d96004803603602081101561052f57600080fd5b50356001600160a01b0316610dd8565b6105656004803603602081101561055557600080fd5b50356001600160a01b0316610e1d565b60405180878152602001866001600160a01b03166001600160a01b03168152602001856001600160a01b03166001600160a01b0316815260200180602001848152602001838152602001828103825285818151815260200191508051906020019080838360005b838110156105e45781810151838201526020016105cc565b50505050905090810190601f1680156106115780820380516001836020036101000a031916815260200191505b5097505050505050505060405180910390f35b61064a6004803603602081101561063a57600080fd5b50356001600160a01b031661102c565b60408051921515835260208301919091528051918290030190f35b6102776110b5565b6102776110c4565b61032b6004803603602081101561068b57600080fd5b50356001600160a01b03166110d3565b61025d611119565b61027761111f565b61032b600480360360208110156106c157600080fd5b50356001600160a01b031661112e565b6103d9600480360360408110156106e757600080fd5b506001600160a01b03813581169160200135166111bf565b6103d96004803603602081101561071557600080fd5b50356001600160a01b031661124a565b610277611296565b6103d96004803603602081101561074357600080fd5b50356112a5565b61025d6004803603606081101561076057600080fd5b6001600160a01b03823581169260208101359091169181019060608101604082013564010000000081111561079457600080fd5b8201836020820111156107a657600080fd5b803590602001918460018302840111640100000000831117156107c857600080fd5b91908080601f0160208091040260200160405190810160405280939291908181526020018383808284376000920191909152509295506112cd945050505050565b6103d96004803603602081101561081f57600080fd5b50356001600160a01b03166115b4565b610277611600565b6103d96004803603602081101561084d57600080fd5b50356001600160a01b031661160f565b61044c6004803603602081101561087357600080fd5b503561166a565b6102776004803603602081101561089057600080fd5b5035611867565b61027761188e565b61027761189d565b6001600160a01b0381166000908152600a60205260409020545b919050565b6002546001600160a01b03165b90565b6005546001600160a01b031690565b6060600980548060200260200160405190810160405280929190818152602001828054801561093d57602002820191906000526020600020905b81546001600160a01b0316815260019091019060200180831161091f575b5050505050905090565b600080546001600160a01b0316331461095f57600080fd5b600085118015610970575060095485105b6109b9576040805162461bcd60e51b8152602060048201526015602482015274736c6f74206973206e6f7420617661696c61626c6560581b604482015290519081900360640190fd5b6000841180156109ca575060085484105b610a1b576040805162461bcd60e51b815260206004820152601c60248201527f6d656d626572496e646578206973206e6f7420617661696c61626c6500000000604482015290519081900360640190fd5b600060098681548110610a2a57fe5b60009182526020808320909101546001600160a01b0316808352600b909152604082209190915560098054919250859188908110610a6457fe5b600091825260208083209190910180546001600160a01b0319166001600160a01b039485161790559186168152600b909152604081208790556008805487908110610aab57fe5b6000918252602090912060089091020160018101549091506001600160a01b03868116911614610ada57600080fd5b60058101939093555050426006820181905560079091015550600192915050565b6009546000190190565b6006546001600160a01b031690565b60075460095460009160010111156108d357600954805b600754600101811015610b7f5760098054600181810183556000929092527f6e1540171b6c0c960b71a7020d9f60077f6af931a8bbf590da0223dacf75c7af0180546001600160a01b031916905501610b2b565b505090565b6006546001600160a01b031681565b60075481565b600a6020526000908152604090205481565b600b6020526000908152604090205481565b6000546001600160a01b03163314610bd457600080fd5b6001600160a01b038116610be757600080fd5b600680546001600160a01b0319166001600160a01b0392909216919091179055565b6000546001600160a01b03163314610c2057600080fd5b6001600160a01b038116610c3357600080fd5b600480546001600160a01b0319166001600160a01b0392909216919091179055565b6000546001600160a01b03163314610c6c57600080fd5b6001600160a01b0381166000908152600a602052604090205460088054610cba9160019184908110610c9a57fe5b9060005260206000209060080201600401546118ac90919063ffffffff16565b60088281548110610cc757fe5b9060005260206000209060080201600401819055505050565b6004546001600160a01b031681565b60088181548110610cfc57fe5b600091825260209182902060089091020180546001808301546002808501805460408051601f600019978416156101000297909701909216939093049485018890048802810188019092528382526001600160a01b0394851697509190931694909190830182828015610db05780601f10610d8557610100808354040283529160200191610db0565b820191906000526020600020905b815481529060010190602001808311610d9357829003601f168201915b5050505050908060030154908060040154908060050154908060060154908060070154905088565b6001546001600160a01b03163314610def57600080fd5b6001600160a01b03811615610e1a57600180546001600160a01b0319166001600160a01b0383161790555b50565b6001600160a01b0381166000908152600a602052604081205481908190606090829081908015801590610e51575060085481105b156110025760088181548110610e6357fe5b60009182526020909120600160089092020101546001600160a01b03898116911614610e8e57600080fd5b6001600160a01b0388166000908152600b60205260409020546008805483908110610eb557fe5b600091825260209091206008918202015481546001600160a01b03909116919084908110610edf57fe5b906000526020600020906008020160010160009054906101000a90046001600160a01b031660088481548110610f1157fe5b906000526020600020906008020160020160088581548110610f2f57fe5b90600052602060002090600802016003015460088681548110610f4e57fe5b600091825260209182902060046008909202010154835460408051601f600260001961010060018716150201909416939093049283018590048502810185019091528181529192859190830182828015610fe95780601f10610fbe57610100808354040283529160200191610fe9565b820191906000526020600020905b815481529060010190602001808311610fcc57829003601f168201915b5050505050925096509650965096509650965050611023565b50506040805160208101909152600080825295508594508493509150829050805b91939550919395565b6000806001600160a01b0383161580159061105e57506001600160a01b0383166000908152600a602052604090205415155b801561108157506001600160a01b0383166000908152600b602052604090205415155b156110a95750506001600160a01b0381166000908152600b60205260409020546001906110b0565b5060009050805b915091565b6000546001600160a01b031681565b6004546001600160a01b031690565b60006001600160a01b0382161580159061110457506001600160a01b0382166000908152600a602052604090205415155b15611111575060016108c1565b5060006108c1565b60095490565b6003546001600160a01b031690565b600080546001600160a01b0316331461114657600080fd5b6001600160a01b0382166000908152600b602052604090205480156111b55760006009828154811061117457fe5b600091825260208083209190910180546001600160a01b0319166001600160a01b039485161790559185168152600b909152604081205550600190506108c1565b60009150506108c1565b6000546001600160a01b031633146111d657600080fd5b816001600160a01b031663f2fde38b826040518263ffffffff1660e01b815260040180826001600160a01b03166001600160a01b03168152602001915050600060405180830381600087803b15801561122e57600080fd5b505af1158015611242573d6000803e3d6000fd5b505050505050565b6000546001600160a01b0316331461126157600080fd5b6001600160a01b03811661127457600080fd5b600580546001600160a01b0319166001600160a01b0392909216919091179055565b6002546001600160a01b031681565b6000546001600160a01b031633146112bc57600080fd5b60078190556112c9610b14565b5050565b600080546001600160a01b031633146112e557600080fd5b6112ee836110d3565b1561131257506001600160a01b0382166000908152600a60205260409020546115ad565b60085461145657604080516101008101825260008082526020808301828152845180830186528381529484019485524260608501526080840183905260a0840183905260c0840183905260e084018390526008805460018101825593819052845193027ff3f7a9fe364faab93b216da50a3214154f22a0a2b415b23a84c8169e8b636ee3810180546001600160a01b039586166001600160a01b031991821617825592517ff3f7a9fe364faab93b216da50a3214154f22a0a2b415b23a84c8169e8b636ee4830180549190961693169290921790935593518051939493611420937ff3f7a9fe364faab93b216da50a3214154f22a0a2b415b23a84c8169e8b636ee501929190910190611906565b50606082015181600301556080820151816004015560a0820151816005015560c0820151816006015560e0820151816007015550505b60408051610100810182526001600160a01b038087168252858116602080840191825293830186815242606085015260006080850181905260a0850181905260c0850181905260e085018190526008805460018101825591819052855191027ff3f7a9fe364faab93b216da50a3214154f22a0a2b415b23a84c8169e8b636ee3810180549286166001600160a01b031993841617815593517ff3f7a9fe364faab93b216da50a3214154f22a0a2b415b23a84c8169e8b636ee4820180549190961692169190911790935551805193949193611558937ff3f7a9fe364faab93b216da50a3214154f22a0a2b415b23a84c8169e8b636ee501929190910190611906565b50606082015160038201556080820151600482015560a0820151600582015560c0820151600682015560e090910151600790910155506008546001600160a01b0383166000908152600a602052604090208190555b9392505050565b6000546001600160a01b031633146115cb57600080fd5b6001600160a01b0381166115de57600080fd5b600380546001600160a01b0319166001600160a01b0392909216919091179055565b6005546001600160a01b031681565b6000546001600160a01b031633148061163257506001546001600160a01b031633145b61163b57600080fd5b6001600160a01b03811615610e1a57600080546001600160a01b0383166001600160a01b031990911617905550565b600080606060008060008060008089118015611687575060095489105b6116c7576040805162461bcd60e51b815260206004820152600c60248201526b1a5b9d985b1a59081cdb1bdd60a21b604482015290519081900360640190fd5b600060098a815481106116d657fe5b60009182526020808320909101546001600160a01b0316808352600a909152604090912054909150801580159061170e575060085481105b156118335760006008828154811061172257fe5b906000526020600020906008020190508060000160009054906101000a90046001600160a01b03168160010160009054906101000a90046001600160a01b03168260020183600301548460040154856005015486600601548760070154858054600181600116156101000203166002900480601f0160208091040260200160405190810160405280929190818152602001828054600181600116156101000203166002900480156118145780601f106117e957610100808354040283529160200191611814565b820191906000526020600020905b8154815290600101906020018083116117f757829003601f168201915b505050505095509a509a509a509a509a509a509a509a5050505061185c565b505060408051602081019091526000808252985088975095508694508493508392508291508190505b919395975091939597565b6009818154811061187457fe5b6000918252602090912001546001600160a01b0316905081565b6001546001600160a01b031681565b6003546001600160a01b031681565b6000828201838110156115ad576040805162461bcd60e51b815260206004820152601b60248201527f536166654d6174683a206164646974696f6e206f766572666c6f770000000000604482015290519081900360640190fd5b828054600181600116156101000203166002900490600052602060002090601f016020900481019282601f1061194757805160ff1916838001178555611974565b82800160010185558215611974579182015b82811115611974578251825591602001919060010190611959565b50611980929150611984565b5090565b6108d391905b80821115611980576000815560010161198a56fea26469706673582212209ef998bf2facd19f2542e0bfc883ec9793ad4eb0477a12467e84b29021167a9764736f6c63430006020033",
  "source": "// SPDX-License-Identifier: MIT\npragma solidity ^0.6.0;\n\nimport \"../shared/OwnableAdmin.sol\";\nimport { SafeMath } from \"../../node_modules/@openzeppelin/contracts/math/SafeMath.sol\";\nimport { IERC20 } from  \"../../node_modules/@openzeppelin/contracts/token/ERC20/IERC20.sol\";\n\ncontract DAOCommitteeStore is OwnableAdmin{\n    \n    using SafeMath for uint256; \n    address public ton ; \n    address public daoElection ; \n    address public daoVault ; \n    address public activityFeeManager ;  \n    address public agendaManager ;   \n    \n    uint256 public maxCommittees ; \n    \n    Member[] public members;\n    address[] public committees;\n\n    mapping (address => uint256) public memberId;  \n    mapping (address => uint256) public committeeId;  \n    \n    struct Member {\n        address layer2;\n        address operator;\n        string name;\n        uint memberSince;\n        uint256 castingcount;\n        uint256 l2balance;\n        uint committeeJoinTime;\n        uint getBlanceTime;\n    } \n    \n   \n    \n    constructor(address _ton) public { \n      \n        ton = _ton;\n        maxCommittees = 3; \n        if(members.length==0)  members.push( Member(address(0),address(0),'',now, 0,0,0,0 ) );\n        if(committees.length==0)  committees.push(address(0)); \n    } \n    \n    function initCommitteeSlot() public returns (bool) { \n        \n        if( committees.length < (maxCommittees+1) ){\n            uint256 len = committees.length;\n            uint256 i=0;\n            for( i=len; i< (maxCommittees+1) ; i++){\n                  // Committee memory comm = Committee(0,0,0,0);\n                  // committeeSlots.push(comm); \n                  committees.push(address(0));\n            }\n        }\n    } \n    \n    function totalCommittees() public view returns (uint256) { return committees.length-1;}\n    function lengthCommitteeSlotIndex() public view returns (uint256) { return committees.length;}\n    function getCommittees() public view returns (address[] memory) {  return committees; }   \n    \n    function detailedCommittee(uint256 _indexSlot) \n        public view returns ( address layer2,  address operator, string memory name, uint memberSince , uint256 castingcount , uint256 balance, uint joinTime, uint balanceTime) {\n        \n        require( _indexSlot > 0 && _indexSlot < committees.length ,'invalid slot' );\n        address _operator = committees[_indexSlot];\n        uint256 memIndex = memberId[_operator]; \n        \n        if(memIndex > 0 && memIndex < members.length ){ \n            Member storage mem = members[memIndex];  \n            return ( mem.layer2,  mem.operator, mem.name, mem.memberSince , mem.castingcount, mem.l2balance, mem.committeeJoinTime, mem.getBlanceTime ) ;\n        }else{\n           return ( address(0), address(0), '', 0,0,0,0,0 ); \n        }\n            \n    } \n    \n    function isCommittee(address _operator) public view returns (bool _iscommittee, uint256 _committeeIndex) { \n        if( _operator != address(0) && memberId[_operator] != 0 && committeeId[_operator] !=0  ) return (true,committeeId[_operator]);\n        else return (false,0);  \n    }  \n    \n    function existsMember(address _operator) public view returns (bool) { \n        if( _operator != address(0) && memberId[_operator] != 0  ) return true;\n        else return false;  \n    }  \n    \n    function retireCommittee(address _operator)  onlyOwner public returns (bool){ \n        \n        uint256 commIndex =  committeeId[_operator];\n        if( commIndex > 0 ){ \n           committees[commIndex] = address(0) ;\n           committeeId[_operator] = 0;\n           return true;\n        } else{\n            return false; \n        } \n    }\n    \n    function changeCommittee( uint256 _indexSlot, uint256 _indexMember, address _newOperator, uint256 _balance)  onlyOwner public returns (bool result) { \n        require( _indexSlot > 0 && _indexSlot < committees.length ,'slot is not available'); \n        require( _indexMember > 0 &&  _indexMember < members.length ,'memberIndex is not available'); \n        \n        address _preOperator = committees[_indexSlot];\n        committeeId[_preOperator] = 0;\n        \n        committees[_indexSlot] = _newOperator;\n        committeeId[_newOperator] = _indexSlot; \n        \n        Member storage curmember = members[_indexMember]; \n        require(curmember.operator == _newOperator );   \n        \n        curmember.l2balance = _balance;\n        curmember.committeeJoinTime = now;\n        curmember.getBlanceTime = now; \n        \n        return true;  \n    } \n    \n    function addMember( address _layer2, address _operator, string memory name)  onlyOwner public returns (uint256 memberindex)  {  \n        \n        if(existsMember(_operator) ) {\n           return memberId[_operator];\n           \n        }else{\n            \n            if(members.length==0)  members.push( Member(address(0),address(0),'',now, 0,0,0,0 ) );\n            \n            members.push( Member(_layer2, _operator ,name, now, 0,0,0,0) ); \n            uint256 _index = members.length ;\n            memberId[_operator] = _index;\n            \n            return _index;\n        }  \n    }\n    \n    function detailedMember(address user) public view returns (uint256 _committeeId, address layer2,  address operaor, string memory name, uint memberSince , uint256 castingcount) {\n        \n        uint256 mindex = memberId[user];\n        if( mindex > 0  && mindex < members.length ){\n            require( user == members[mindex].operator ); \n            return ( committeeId[user],members[mindex].layer2, members[mindex].operator, members[mindex].name, members[mindex].memberSince, members[mindex].castingcount );   \n        } else {\n            return ( 0, address(0),address(0), '', 0, 0);\n        } \n    } \n    \n    function getMemberid(address user) public view returns (uint256) { return memberId[user];}\n    function getTON() public view returns (address) { return ton;}\n    function getDaoElection() public view returns (address) { return daoElection;}\n    function getActivityFeeManager() public view returns (address) { return activityFeeManager;} \n    function getDaoVault() public view returns (address) { return daoVault;} \n    function getAganedManager() public view returns (address) { return agendaManager;} \n      \n    function setMaxCommittees(uint256 _maxCommittees)  onlyOwner public { \n        maxCommittees = _maxCommittees;\n        initCommitteeSlot();\n    }\n    \n    function setDaoElection(address _daoElection)  onlyOwner public {\n        require(_daoElection != address(0)); \n        daoElection = _daoElection;\n    }\n    function setAgendaManager(address _agendaManager)  onlyOwner public {\n        require(_agendaManager != address(0)); \n        agendaManager = _agendaManager;\n    }\n     \n    function setDaoVault(address _daoVault)  onlyOwner public {\n        require(_daoVault != address(0)); \n        daoVault = _daoVault;\n    } \n    \n    function setActivityFeeManager(address _man)  onlyOwner public {\n        require(_man != address(0)); \n        activityFeeManager = _man;\n    }   \n    \n    //=====  \n    \n    function castVote( address voter ) onlyOwner public  \n    {   \n        // add castingcount of member , for statistics \n        uint256 _memberId = memberId[voter];\n        members[_memberId].castingcount = members[_memberId].castingcount.add(1); \n    }  \n     \n}",
  "sourcePath": "/Users/zena/plasmawork/tokamak-dao-contracts/contracts/dao/DAOCommitteeStore.sol",
  "compiler": {
    "name": "solc",
    "version": "0.6.2+commit.bacdbe57.Emscripten.clang"
  },
  "schemaVersion": "3.3.2",
  "updatedAt": "2020-12-17T03:40:16.525Z",
  "devdoc": {
    "methods": {}
  },
  "userdoc": {
    "methods": {}
  }
}