{
  "contractName": "DAOCommitteeProxy",
  "abi": [
    {
      "inputs": [
        {
          "internalType": "contract DAOCommitteeStore",
          "name": "_storage",
          "type": "address"
        }
      ],
      "stateMutability": "nonpayable",
      "type": "constructor"
    },
    {
      "anonymous": false,
      "inputs": [
        {
          "indexed": true,
          "internalType": "address",
          "name": "implementation",
          "type": "address"
        }
      ],
      "name": "Upgraded",
      "type": "event"
    },
    {
      "stateMutability": "nonpayable",
      "type": "fallback"
    },
    {
      "inputs": [],
      "name": "_implementation",
      "outputs": [
        {
          "internalType": "address",
          "name": "",
          "type": "address"
        }
      ],
      "stateMutability": "view",
      "type": "function"
    },
    {
      "inputs": [],
      "name": "getProxyActivityFeeManager",
      "outputs": [
        {
          "internalType": "address",
          "name": "",
          "type": "address"
        }
      ],
      "stateMutability": "view",
      "type": "function"
    },
    {
      "inputs": [],
      "name": "getProxyAgendamanager",
      "outputs": [
        {
          "internalType": "address",
          "name": "",
          "type": "address"
        }
      ],
      "stateMutability": "view",
      "type": "function"
    },
    {
      "inputs": [],
      "name": "getProxyStore",
      "outputs": [
        {
          "internalType": "address",
          "name": "",
          "type": "address"
        }
      ],
      "stateMutability": "view",
      "type": "function"
    },
    {
      "inputs": [],
      "name": "owner",
      "outputs": [
        {
          "internalType": "address",
          "name": "",
          "type": "address"
        }
      ],
      "stateMutability": "view",
      "type": "function"
    },
    {
      "inputs": [],
      "name": "pauseProxy",
      "outputs": [
        {
          "internalType": "bool",
          "name": "",
          "type": "bool"
        }
      ],
      "stateMutability": "view",
      "type": "function"
    },
    {
      "inputs": [
        {
          "internalType": "address",
          "name": "newOwner",
          "type": "address"
        }
      ],
      "name": "transferOwnership",
      "outputs": [],
      "stateMutability": "nonpayable",
      "type": "function"
    },
    {
      "inputs": [
        {
          "internalType": "bool",
          "name": "_pause",
          "type": "bool"
        }
      ],
      "name": "setProxyPause",
      "outputs": [],
      "stateMutability": "nonpayable",
      "type": "function"
    },
    {
      "inputs": [
        {
          "internalType": "address payable",
          "name": "_storeAddress",
          "type": "address"
        }
      ],
      "name": "setProxyStore",
      "outputs": [],
      "stateMutability": "nonpayable",
      "type": "function"
    },
    {
      "inputs": [
        {
          "internalType": "address",
          "name": "_addr",
          "type": "address"
        }
      ],
      "name": "setProxyAgendaManager",
      "outputs": [],
      "stateMutability": "nonpayable",
      "type": "function"
    },
    {
      "inputs": [
        {
          "internalType": "address",
          "name": "_addr",
          "type": "address"
        }
      ],
      "name": "setProxyAactivityfeeManager",
      "outputs": [],
      "stateMutability": "nonpayable",
      "type": "function"
    },
    {
      "inputs": [
        {
          "internalType": "address",
          "name": "impl",
          "type": "address"
        }
      ],
      "name": "upgradeTo",
      "outputs": [],
      "stateMutability": "nonpayable",
      "type": "function"
    },
    {
      "inputs": [],
      "name": "implementation",
      "outputs": [
        {
          "internalType": "address",
          "name": "",
          "type": "address"
        }
      ],
      "stateMutability": "view",
      "type": "function"
    }
  ],
  "bytecode": "0x608060405234801561001057600080fd5b506040516106393803806106398339818101604052602081101561003357600080fd5b5051600380546001600160a01b03199081163317909155600080546001600160a01b03909316929091169190911790556004805460ff60a01b1916600160a01b1790556105b4806100856000396000f3fe608060405234801561001057600080fd5b50600436106100cf5760003560e01c806363a8fd891161008c5780637cb00d25116100665780637cb00d25146101ab57806389b02eb9146101ca5780638da5cb5b146101f0578063f2fde38b146101f8576100cf565b806363a8fd8914610161578063667c70d31461017d578063692531cb146101a3576100cf565b806316827306146100d95780632a267cc1146100ff5780632cfd067a146101235780633659cfe61461012b57806359679b0f146101515780635c60da1b14610159575b6100d761021e565b005b6100d7600480360360208110156100ef57600080fd5b50356001600160a01b0316610279565b610107610333565b604080516001600160a01b039092168252519081900360200190f35b610107610342565b6100d76004803603602081101561014157600080fd5b50356001600160a01b0316610351565b6101076103cd565b6101076103dc565b6101696103eb565b604080519115158252519081900360200190f35b6100d76004803603602081101561019357600080fd5b50356001600160a01b03166103fb565b61010761049a565b6100d7600480360360208110156101c157600080fd5b503515156104a9565b6100d7600480360360208110156101e057600080fd5b50356001600160a01b03166104de565b61010761052a565b6100d76004803603602081101561020e57600080fd5b50356001600160a01b0316610539565b60006102286103dc565b90506001600160a01b0381161580159061024c5750600454600160a01b900460ff16155b61025557600080fd5b3660008037600080366000845af43d6000803e808015610274573d6000f35b3d6000fd5b6003546001600160a01b0316331461029057600080fd5b6000546001600160a01b03166102a557600080fd5b6001600160a01b0381166102b857600080fd5b600280546001600160a01b0319166001600160a01b03838116918217909255600080546040805163c5b6e9a960e01b815260048101949094525193169263c5b6e9a992602480820193929182900301818387803b15801561031857600080fd5b505af115801561032c573d6000803e3d6000fd5b5050505050565b6002546001600160a01b031690565b6000546001600160a01b031690565b6003546001600160a01b0316331461036857600080fd5b6004546001600160a01b038281169116141561038357600080fd5b600480546001600160a01b0319166001600160a01b0383169081179091556040517fbc7cd75a20ee27fd9adebab32041f755214dbc6bffa90cc0225b39da2e5c2d3b90600090a250565b6004546001600160a01b031681565b6004546001600160a01b031690565b600454600160a01b900460ff1681565b6003546001600160a01b0316331461041257600080fd5b6000546001600160a01b031661042757600080fd5b6001600160a01b03811661043a57600080fd5b600180546001600160a01b0319166001600160a01b038381169182179092556000805460408051631270e7c560e21b81526004810194909452519316926349c39f1492602480820193929182900301818387803b15801561031857600080fd5b6001546001600160a01b031690565b6003546001600160a01b031633146104c057600080fd5b60048054911515600160a01b0260ff60a01b19909216919091179055565b6003546001600160a01b031633146104f557600080fd5b6001600160a01b03811661050857600080fd5b600080546001600160a01b0319166001600160a01b0392909216919091179055565b6003546001600160a01b031681565b6003546001600160a01b0316331461055057600080fd5b6001600160a01b0381161561057b57600380546001600160a01b0319166001600160a01b0383161790555b5056fea2646970667358221220362787119a9924fa6c6629d3161311fb8737497abaabecf0750e978a3d8529b864736f6c63430006020033",
  "source": "// SPDX-License-Identifier: MIT\npragma solidity ^0.6.0;\n\nimport \"../shared/Ownabled.sol\";\nimport \"./StorageStateCommittee.sol\"; \n\ncontract DAOCommitteeProxy is StorageStateCommittee , Ownabled { \n\n  address public _implementation;\n  bool public pauseProxy;\n  \n  event Upgraded(address indexed implementation);\n     \n  constructor(DAOCommitteeStore _storage  ) public { \n    store = _storage; \n    pauseProxy = true;\n  } \n  \n  function setProxyPause(bool _pause) onlyOwner public {\n      pauseProxy = _pause; \n  }\n  \n  function setProxyStore(address payable _storeAddress) onlyOwner public {\n      require(_storeAddress != address(0)); \n      store = DAOCommitteeStore(_storeAddress); \n  }\n  function setProxyAgendaManager(address _addr) onlyOwner validStore public {\n      require(_addr != address(0)); \n      agendaManager = IDAOAgendamanager(_addr); \n      store.setAgendaManager(_addr);\n  }\n  \n  function setProxyAactivityfeeManager(address _addr) onlyOwner validStore public {\n      require(_addr != address(0)); \n      activityfeeManager = IDAOActivityFeeManager(_addr); \n      store.setActivityFeeManager(_addr);\n  }\n\n  function upgradeTo(address impl) public onlyOwner {\n    require(_implementation != impl);\n    _implementation = impl;\n    emit Upgraded(impl);\n  }  \n  \n  function implementation() public view returns (address) {\n    return _implementation;\n  } \n  \n  fallback () external {\n        _fallback();\n  }\n    \n  function _fallback()  internal{\n    address _impl = implementation();\n    require(_impl != address(0) && pauseProxy==false);\n    /*bytes memory data = msg.data;\n     \n    assembly {\n       \n      let result := delegatecall(gas(), _impl, add(data, 0x20), mload(data), 0, 0)\n      \n      \n      let size := returndatasize\n      let ptr := mload(0x40)\n      returndatacopy(ptr, 0, size)\n      \n      \n      // Copy the returned data.\n      returndatacopy(0, 0, returndatasize())\n            \n      switch result\n      case 0 { revert(ptr, size) }\n      default { return(ptr, size) }\n      \n    }*/\n    \n    assembly {\n        // Copy msg.data. We take full control of memory in this inline assembly\n        // block because it will not return to Solidity code. We overwrite the\n        // Solidity scratch pad at memory position 0.\n        calldatacopy(0, 0, calldatasize())\n\n        // Call the implementation.\n        // out and outsize are 0 because we don't know the size yet.\n        let result := delegatecall(gas(), _impl, 0, calldatasize(), 0, 0)\n\n        // Copy the returned data.\n        returndatacopy(0, 0, returndatasize())\n\n        switch result\n        // delegatecall returns 0 on error.\n        case 0 { revert(0, returndatasize()) }\n        default { return(0, returndatasize()) }\n    }\n  }\n\n}",
  "sourcePath": "/Users/zena/plasmawork/tokamak-dao-contracts/contracts/dao/DAOCommitteeProxy.sol",
  "compiler": {
    "name": "solc",
    "version": "0.6.2+commit.bacdbe57.Emscripten.clang"
  },
  "schemaVersion": "3.3.2",
  "updatedAt": "2020-12-17T03:40:16.520Z",
  "devdoc": {
    "methods": {}
  },
  "userdoc": {
    "methods": {}
  }
}