{
  "contractName": "DAOCommittee",
  "abi": [
    {
      "anonymous": false,
      "inputs": [
        {
          "indexed": true,
          "internalType": "address",
          "name": "from",
          "type": "address"
        },
        {
          "indexed": true,
          "internalType": "uint256",
          "name": "id",
          "type": "uint256"
        },
        {
          "indexed": true,
          "internalType": "uint256",
          "name": "group",
          "type": "uint256"
        },
        {
          "indexed": false,
          "internalType": "address",
          "name": "target",
          "type": "address"
        },
        {
          "indexed": false,
          "internalType": "uint256",
          "name": "noticePeriodMin",
          "type": "uint256"
        },
        {
          "indexed": false,
          "internalType": "bytes",
          "name": "functionBytecode",
          "type": "bytes"
        },
        {
          "indexed": false,
          "internalType": "string",
          "name": "description",
          "type": "string"
        }
      ],
      "name": "AgendaCreated",
      "type": "event"
    },
    {
      "anonymous": false,
      "inputs": [
        {
          "indexed": true,
          "internalType": "address",
          "name": "from",
          "type": "address"
        },
        {
          "indexed": true,
          "internalType": "uint256",
          "name": "id",
          "type": "uint256"
        },
        {
          "indexed": false,
          "internalType": "address",
          "name": "target",
          "type": "address"
        },
        {
          "indexed": false,
          "internalType": "bytes",
          "name": "functionBytecode",
          "type": "bytes"
        }
      ],
      "name": "AgendaExecuted",
      "type": "event"
    },
    {
      "anonymous": false,
      "inputs": [
        {
          "indexed": true,
          "internalType": "address",
          "name": "from",
          "type": "address"
        },
        {
          "indexed": true,
          "internalType": "uint256",
          "name": "id",
          "type": "uint256"
        },
        {
          "indexed": false,
          "internalType": "uint256",
          "name": "voting",
          "type": "uint256"
        }
      ],
      "name": "AgendaVoteCasted",
      "type": "event"
    },
    {
      "inputs": [],
      "name": "getProxyActivityFeeManager",
      "outputs": [
        {
          "internalType": "address",
          "name": "",
          "type": "address"
        }
      ],
      "stateMutability": "view",
      "type": "function"
    },
    {
      "inputs": [],
      "name": "getProxyAgendamanager",
      "outputs": [
        {
          "internalType": "address",
          "name": "",
          "type": "address"
        }
      ],
      "stateMutability": "view",
      "type": "function"
    },
    {
      "inputs": [],
      "name": "getProxyStore",
      "outputs": [
        {
          "internalType": "address",
          "name": "",
          "type": "address"
        }
      ],
      "stateMutability": "view",
      "type": "function"
    },
    {
      "inputs": [],
      "name": "owner",
      "outputs": [
        {
          "internalType": "address",
          "name": "",
          "type": "address"
        }
      ],
      "stateMutability": "view",
      "type": "function"
    },
    {
      "inputs": [
        {
          "internalType": "address",
          "name": "newOwner",
          "type": "address"
        }
      ],
      "name": "transferOwnership",
      "outputs": [],
      "stateMutability": "nonpayable",
      "type": "function"
    },
    {
      "inputs": [
        {
          "internalType": "address",
          "name": "_store",
          "type": "address"
        }
      ],
      "name": "setStore",
      "outputs": [],
      "stateMutability": "nonpayable",
      "type": "function"
    },
    {
      "inputs": [
        {
          "internalType": "address",
          "name": "_daoElection",
          "type": "address"
        }
      ],
      "name": "setDaoElection",
      "outputs": [],
      "stateMutability": "nonpayable",
      "type": "function"
    },
    {
      "inputs": [
        {
          "internalType": "address",
          "name": "_daoVault",
          "type": "address"
        }
      ],
      "name": "setDaoVault",
      "outputs": [],
      "stateMutability": "nonpayable",
      "type": "function"
    },
    {
      "inputs": [
        {
          "internalType": "address",
          "name": "_manager",
          "type": "address"
        }
      ],
      "name": "setAgendamanager",
      "outputs": [],
      "stateMutability": "nonpayable",
      "type": "function"
    },
    {
      "inputs": [
        {
          "internalType": "address",
          "name": "_manager",
          "type": "address"
        }
      ],
      "name": "setActivityfeemanager",
      "outputs": [],
      "stateMutability": "nonpayable",
      "type": "function"
    },
    {
      "inputs": [
        {
          "internalType": "uint256",
          "name": "_maxCommittees",
          "type": "uint256"
        }
      ],
      "name": "setMaxCommittees",
      "outputs": [],
      "stateMutability": "nonpayable",
      "type": "function"
    },
    {
      "inputs": [
        {
          "internalType": "uint256",
          "name": "_indexSlot",
          "type": "uint256"
        },
        {
          "internalType": "address",
          "name": "_layer2",
          "type": "address"
        },
        {
          "internalType": "address",
          "name": "_operator",
          "type": "address"
        },
        {
          "internalType": "string",
          "name": "_name",
          "type": "string"
        },
        {
          "internalType": "uint256",
          "name": "totalbalance",
          "type": "uint256"
        }
      ],
      "name": "applyCommittee",
      "outputs": [
        {
          "internalType": "uint256",
          "name": "applyResultCode",
          "type": "uint256"
        }
      ],
      "stateMutability": "nonpayable",
      "type": "function"
    },
    {
      "inputs": [],
      "name": "retireCommittee",
      "outputs": [
        {
          "internalType": "bool",
          "name": "",
          "type": "bool"
        }
      ],
      "stateMutability": "nonpayable",
      "type": "function"
    },
    {
      "inputs": [
        {
          "internalType": "uint256",
          "name": "_minimunNoticePeriod",
          "type": "uint256"
        }
      ],
      "name": "setMinimunNoticePeriodMin",
      "outputs": [],
      "stateMutability": "nonpayable",
      "type": "function"
    },
    {
      "inputs": [
        {
          "internalType": "uint256",
          "name": "_minimunVotingPeriod",
          "type": "uint256"
        }
      ],
      "name": "setMinimunVotingPeriodMin",
      "outputs": [],
      "stateMutability": "nonpayable",
      "type": "function"
    },
    {
      "inputs": [
        {
          "internalType": "uint256",
          "name": "quorumNumerator",
          "type": "uint256"
        },
        {
          "internalType": "uint256",
          "name": "quorumDenominator",
          "type": "uint256"
        }
      ],
      "name": "setQuorum",
      "outputs": [],
      "stateMutability": "nonpayable",
      "type": "function"
    },
    {
      "inputs": [
        {
          "internalType": "uint256",
          "name": "_fees",
          "type": "uint256"
        }
      ],
      "name": "setCreateAgendaFees",
      "outputs": [],
      "stateMutability": "nonpayable",
      "type": "function"
    },
    {
      "inputs": [
        {
          "internalType": "uint256",
          "name": "_group",
          "type": "uint256"
        },
        {
          "internalType": "address",
          "name": "_target",
          "type": "address"
        },
        {
          "internalType": "uint256",
          "name": "_noticePeriodMin",
          "type": "uint256"
        },
        {
          "internalType": "bytes",
          "name": "functionBytecode",
          "type": "bytes"
        },
        {
          "internalType": "string",
          "name": "_description",
          "type": "string"
        }
      ],
      "name": "createAgenda",
      "outputs": [
        {
          "internalType": "uint256",
          "name": "",
          "type": "uint256"
        }
      ],
      "stateMutability": "nonpayable",
      "type": "function"
    },
    {
      "inputs": [
        {
          "internalType": "uint256",
          "name": "_AgendaID",
          "type": "uint256"
        }
      ],
      "name": "electCommiitteeForAgenda",
      "outputs": [],
      "stateMutability": "nonpayable",
      "type": "function"
    },
    {
      "inputs": [
        {
          "internalType": "address",
          "name": "_target",
          "type": "address"
        },
        {
          "internalType": "bytes",
          "name": "_functionBytecode",
          "type": "bytes"
        }
      ],
      "name": "checkRisk",
      "outputs": [
        {
          "internalType": "bool",
          "name": "",
          "type": "bool"
        }
      ],
      "stateMutability": "pure",
      "type": "function"
    },
    {
      "inputs": [
        {
          "internalType": "uint256",
          "name": "_AgendaID",
          "type": "uint256"
        },
        {
          "internalType": "uint256",
          "name": "_vote",
          "type": "uint256"
        },
        {
          "internalType": "string",
          "name": "_comment",
          "type": "string"
        }
      ],
      "name": "castVote",
      "outputs": [],
      "stateMutability": "nonpayable",
      "type": "function"
    },
    {
      "inputs": [
        {
          "internalType": "uint256",
          "name": "_AgendaID",
          "type": "uint256"
        }
      ],
      "name": "executeAgenda",
      "outputs": [],
      "stateMutability": "nonpayable",
      "type": "function"
    },
    {
      "inputs": [],
      "name": "getMajority",
      "outputs": [
        {
          "internalType": "uint256",
          "name": "majority",
          "type": "uint256"
        }
      ],
      "stateMutability": "view",
      "type": "function"
    }
  ],
  "bytecode": "0x6080604052600380546001600160a01b031916331790556137e3806100256000396000f3fe608060405234801561001057600080fd5b506004361061014d5760003560e01c8063692531cb116100c3578063a318f4f71161007c578063a318f4f7146104e1578063b4f69b6a14610626578063e4a4c58d14610643578063e76557dc14610660578063f021158114610686578063f2fde38b1461068e5761014d565b8063692531cb1461044e5780637a3d5468146104565780637e4510cf146104795780638da5cb5b146104965780638e94472a1461049e578063993b2953146104bb5761014d565b80632a267cc1116101155780632a267cc11461024a5780632cfd067a1461026e57806336d14184146102765780634a276b7a1461034e5780634b799db1146104025780635294d4b0146104285761014d565b8063087cbd40146101525780631bfa2e9c1461017a578063216f486b1461019657806324d013d3146101b357806324f99b1e146101d0575b600080fd5b6101786004803603602081101561016857600080fd5b50356001600160a01b03166106b4565b005b610182610700565b604080519115158252519081900360200190f35b610178600480360360208110156101ac57600080fd5b5035610840565b610178600480360360208110156101c957600080fd5b5035610ff3565b610178600480360360608110156101e657600080fd5b813591602081013591810190606081016040820135600160201b81111561020c57600080fd5b82018360208201111561021e57600080fd5b803590602001918460018302840111600160201b8311171561023f57600080fd5b509092509050611087565b61025261179c565b604080516001600160a01b039092168252519081900360200190f35b6102526117ab565b61033c600480360360a081101561028c57600080fd5b8135916001600160a01b03602082013581169260408301359091169190810190608081016060820135600160201b8111156102c657600080fd5b8201836020820111156102d857600080fd5b803590602001918460018302840111600160201b831117156102f957600080fd5b91908080601f01602080910402602001604051908101604052809392919081815260200183838082843760009201919091525092955050913592506117ba915050565b60408051918252519081900360200190f35b6101826004803603604081101561036457600080fd5b6001600160a01b038235169190810190604081016020820135600160201b81111561038e57600080fd5b8201836020820111156103a057600080fd5b803590602001918460018302840111600160201b831117156103c157600080fd5b91908080601f016020809104026020016040519081016040528093929190818152602001838380828437600092019190915250929550611cef945050505050565b6101786004803603602081101561041857600080fd5b50356001600160a01b0316611d94565b6101786004803603602081101561043e57600080fd5b50356001600160a01b0316611df6565b610252611ebb565b6101786004803603604081101561046c57600080fd5b5080359060200135611eca565b6101786004803603602081101561048f57600080fd5b5035611f66565b6102526126d0565b610178600480360360208110156104b457600080fd5b50356126df565b610178600480360360208110156104d157600080fd5b50356001600160a01b0316612758565b61033c600480360360a08110156104f757600080fd5b8135916001600160a01b036020820135169160408201359190810190608081016060820135600160201b81111561052d57600080fd5b82018360208201111561053f57600080fd5b803590602001918460018302840111600160201b8311171561056057600080fd5b91908080601f0160208091040260200160405190810160405280939291908181526020018383808284376000920191909152509295949360208101935035915050600160201b8111156105b257600080fd5b8201836020820111156105c457600080fd5b803590602001918460018302840111600160201b831117156105e557600080fd5b91908080601f01602080910402602001604051908101604052809392919081815260200183838082843760009201919091525092955061281d945050505050565b6101786004803603602081101561063c57600080fd5b50356131be565b6101786004803603602081101561065957600080fd5b5035613237565b6101786004803603602081101561067657600080fd5b50356001600160a01b0316613296565b61033c6132f8565b610178600480360360208110156106a457600080fd5b50356001600160a01b0316613497565b6003546001600160a01b031633146106cb57600080fd5b6001600160a01b0381166106de57600080fd5b600080546001600160a01b0319166001600160a01b0392909216919091179055565b6000805460408051638c9540d360e01b8152336004820152815184936001600160a01b031692638c9540d39260248082019391829003018186803b15801561074757600080fd5b505afa15801561075b573d6000803e3d6000fd5b505050506040513d604081101561077157600080fd5b50519050806107c0576040805162461bcd60e51b8152602060048201526016602482015275796f7520617265206e6f7420636f6d6d69697474656560501b604482015290519081900360640190fd5b600080546040805163b98b515360e01b815233600482015290516001600160a01b039092169263b98b5153926024808401936020939083900390910190829087803b15801561080e57600080fd5b505af1158015610822573d6000803e3d6000fd5b505050506040513d602081101561083857600080fd5b505191505090565b6000546001600160a01b031661085557600080fd5b6001546001600160a01b031661086a57600080fd5b61087261361b565b61087a613639565b60015460408051632ad36a4360e21b81526004810186905290516000926001600160a01b03169163ab4da90c9160248083019286929190829003018186803b1580156108c557600080fd5b505afa1580156108d9573d6000803e3d6000fd5b505050506040513d6000823e601f3d908101601f1916820160405261024081101561090357600080fd5b6101a08201516101c08301516101e08401805160408051908701956101408801959493919290880191889184600160201b82111561094057600080fd5b90830190602082018581111561095557600080fd5b8251600160201b81118282018810171561096e57600080fd5b82525081516020918201929091019080838360005b8381101561099b578181015183820152602001610983565b50505050905090810190601f1680156109c85780820380516001836020036101000a031916815260200191505b5060405260200180516040519392919084600160201b8211156109ea57600080fd5b9083019060208201858111156109ff57600080fd5b8251600160201b811182820188101715610a1857600080fd5b82525081516020918201929091019080838360005b83811015610a45578181015183820152602001610a2d565b50505050905090810190601f168015610a725780820380516001836020036101000a031916815260200191505b5060405260200180516040519392919084600160201b821115610a9457600080fd5b908301906020820185811115610aa957600080fd5b82518660208202830111600160201b82111715610ac557600080fd5b82525081516020918201928201910280838360005b83811015610af2578181015183820152602001610ada565b50505050905001604052505050505050945050509250925060006001600160a01b031683600060028110610b2257fe5b60200201516001600160a01b031614158015610b3f575081516001145b610b7a5760405162461bcd60e51b815260040180806020018281038252602281526020018061375e6022913960400191505060405180910390fd5b60c08201514211610bbc5760405162461bcd60e51b815260040180806020018281038252602f8152602001806136e6602f913960400191505060405180910390fd5b6020820151600114610c15576040805162461bcd60e51b815260206004820152601b60248201527f666f722074686973206167656e64612c206e6f74206163636570740000000000604482015290519081900360640190fd5b8015610c525760405162461bcd60e51b81526004018080602001828103825260218152602001806136a16021913960400191505060405180910390fd5b6000806000806060600160009054906101000a90046001600160a01b03166001600160a01b03166347d877bb8a6040518263ffffffff1660e01b815260040180828152602001915050600060405180830381600087803b158015610cb557600080fd5b505af1158015610cc9573d6000803e3d6000fd5b505050506040513d6000823e601f3d908101601f1916820160405260a0811015610cf257600080fd5b8151602083015160408085015160608601516080870180519351959794969295919491939282019284600160201b821115610d2c57600080fd5b908301906020820185811115610d4157600080fd5b8251600160201b811182820188101715610d5a57600080fd5b82525081516020918201929091019080838360005b83811015610d87578181015183820152602001610d6f565b50505050905090810190601f168015610db45780820380516001836020036101000a031916815260200191505b5060405250505094509450945094509450848015610dd25750600184145b8015610ddb5750825b8015610def57506001600160a01b03821615155b610e38576040805162461bcd60e51b81526020600482015260156024820152746661696c20736574457865637574654167656e646160581b604482015290519081900360640190fd5b6000826001600160a01b0316826040518082805190602001908083835b60208310610e745780518252601f199092019160209182019101610e55565b6001836020036101000a0380198251168184511680821785525050505050509050019150506000604051808303816000865af19150503d8060008114610ed6576040519150601f19603f3d011682016040523d82523d6000602084013e610edb565b606091505b5050905080610f29576040805162461bcd60e51b8152602060048201526015602482015274195e1958dd5d1948199d5b98dd1a5bdb8819985a5b605a1b604482015290519081900360640190fd5b89336001600160a01b03167ffc605ddbe39f66ff9ccc194683bba02fc90a55799302672a9c5db17da2487bdc858560405180836001600160a01b03166001600160a01b0316815260200180602001828103825283818151815260200191508051906020019080838360005b83811015610fac578181015183820152602001610f94565b50505050905090810190601f168015610fd95780820380516001836020036101000a031916815260200191505b50935050505060405180910390a350505050505050505050565b6003546001600160a01b0316331461100a57600080fd5b6001546001600160a01b031661101f57600080fd5b600154604080516324d013d360e01b81526004810184905290516001600160a01b03909216916324d013d39160248082019260009290919082900301818387803b15801561106c57600080fd5b505af1158015611080573d6000803e3d6000fd5b5050505050565b6000546001600160a01b031661109c57600080fd5b6001546001600160a01b03166110b157600080fd5b60006110bb6132f8565b905060008111611105576040805162461bcd60e51b815260206004820152601060248201526f6d616a6f72697479206973207a65726f60801b604482015290519081900360640190fd5b600284111561111357600080fd5b600080546040805163222a454960e21b8152336004820152905183926001600160a01b0316916388a915249160248083019286929190829003018186803b15801561115d57600080fd5b505afa158015611171573d6000803e3d6000fd5b505050506040513d6000823e601f3d908101601f1916820160405260c081101561119a57600080fd5b815160208301516040808501516060860180519251949693959194939182019284600160201b8211156111cc57600080fd5b9083019060208201858111156111e157600080fd5b8251600160201b8111828201881017156111fa57600080fd5b82525081516020918201929091019080838360005b8381101561122757818101518382015260200161120f565b50505050905090810190601f1680156112545780820380516001836020036101000a031916815260200191505b5060405250949650929450505083151591506112b99050576040805162461bcd60e51b815260206004820152601f60248201527f796f7520617265206e6f74206120636f6d6d6974746565206d656d6265722e00604482015290519081900360640190fd5b60015460408051631426bbb760e11b8152600481018a9052815160009384936001600160a01b039091169263284d776e9260248083019392829003018186803b15801561130557600080fd5b505afa158015611319573d6000803e3d6000fd5b505050506040513d604081101561132f57600080fd5b508051602090910151909250905081801561134a5750600181145b611391576040805162461bcd60e51b815260206004820152601360248201527230b3b2b73230903430b99032bc3834b932b21760691b604482015290519081900360640190fd5b60015460408051632fe246bf60e11b8152600481018c905233602482015290516001600160a01b0390921691635fc48d7e91604480820192602092909190829003018186803b1580156113e357600080fd5b505afa1580156113f7573d6000803e3d6000fd5b505050506040513d602081101561140d57600080fd5b50511561144b5760405162461bcd60e51b81526004018080602001828103825260218152602001806136806021913960400191505060405180910390fd5b60015460408051633da2371f60e01b8152600481018c9052905142926001600160a01b031691633da2371f916024808301926020929190829003018186803b15801561149657600080fd5b505afa1580156114aa573d6000803e3d6000fd5b505050506040513d60208110156114c057600080fd5b50511180159061154757506001546040805163334bbf3560e01b8152600481018c905290516001600160a01b039092169163334bbf3591602480820192602092909190829003018186803b15801561151757600080fd5b505afa15801561152b573d6000803e3d6000fd5b505050506040513d602081101561154157600080fd5b50514211155b6115825760405162461bcd60e51b81526004018080602001828103825260288152602001806137366028913960400191505060405180910390fd5b6001546040805163d1c9c0a360e01b8152600481018c905233602482015290516001600160a01b039092169163d1c9c0a391604480820192602092909190829003018186803b1580156115d457600080fd5b505afa1580156115e8573d6000803e3d6000fd5b505050506040513d60208110156115fe57600080fd5b505161163b5760405162461bcd60e51b815260040180806020018281038252602e815260200180613780602e913960400191505060405180910390fd5b600154604051634cb5a14960e01b8152600481018b815233602483018190526001600160a01b038781166044850152606484018d905260a484018a905260c06084850190815260c485018c9052941693634cb5a149938e9389928f928f928f928f9260e401858580828437600081840152601f19601f82011690508083019250505098505050505050505050600060405180830381600087803b1580156116e157600080fd5b505af11580156116f5573d6000803e3d6000fd5b505060008054604080516314cd63f160e21b815233600482015290516001600160a01b0390921694506353358fc49350602480820193929182900301818387803b15801561174257600080fd5b505af1158015611756573d6000803e3d6000fd5b5050604080518b815290518c93503392507fbc2fcbc6d260f59ec3a8ede06a6be2d7513970389bdbb9ab7010cb6838c5eef89181900360200190a3505050505050505050565b6002546001600160a01b031690565b6000546001600160a01b031690565b60006001600160a01b038516158015906117dc57506001600160a01b03841615155b61182d576040805162461bcd60e51b815260206004820152601e60248201527f206f70657261746f722063616e206e6f74207a65726f20616464726573730000604482015290519081900360640190fd5b60008060009054906101000a90046001600160a01b03166001600160a01b031663b2f214a76040518163ffffffff1660e01b815260040160206040518083038186803b15801561187c57600080fd5b505afa158015611890573d6000803e3d6000fd5b505050506040513d60208110156118a657600080fd5b505190506001600160a01b03811633146118c4576002915050611ce6565b6000805460408051638c9540d360e01b81526001600160a01b0389811660048301528251931692638c9540d392602480840193919291829003018186803b15801561190e57600080fd5b505afa158015611922573d6000803e3d6000fd5b505050506040513d604081101561193857600080fd5b50519050801561194e5760035b92505050611ce6565b6000809054906101000a90046001600160a01b03166001600160a01b031663b25415c06040518163ffffffff1660e01b815260040160206040518083038186803b15801561199b57600080fd5b505afa1580156119af573d6000803e3d6000fd5b505050506040513d60208110156119c557600080fd5b505188106119d4576004611945565b6000805460405163e5307b5360e01b81526001600160a01b038a8116600483019081528a821660248401526060604484019081528a5160648501528a51929094169363e5307b53938d938d938d939092909160849091019060208501908083838d5b83811015611a4e578181015183820152602001611a36565b50505050905090810190601f168015611a7b5780820380516001836020036101000a031916815260200191505b50945050505050602060405180830381600087803b158015611a9c57600080fd5b505af1158015611ab0573d6000803e3d6000fd5b505050506040513d6020811015611ac657600080fd5b505190506001811015611adf5760059350505050611ce6565b6000805460408051637ab36b3160e11b8152600481018d905290516001600160a01b039092169163f566d662916024808201928692909190829003018186803b158015611b2b57600080fd5b505afa158015611b3f573d6000803e3d6000fd5b505050506040513d6000823e601f3d908101601f19168201604052610100811015611b6957600080fd5b81516020830151604080850180519151939592948301929184600160201b821115611b9357600080fd5b908301906020820185811115611ba857600080fd5b8251600160201b811182820188101715611bc157600080fd5b82525081516020918201929091019080838360005b83811015611bee578181015183820152602001611bd6565b50505050905090810190601f168015611c1b5780820380516001836020036101000a031916815260200191505b50604052606001519550505050878311159150611c419050576006945050505050611ce6565b6000805460408051630fe0dbef60e11b8152600481018e9052602481018690526001600160a01b038c81166044830152606482018b905291519190921692631fc1b7de92608480820193602093909283900390910190829087803b158015611ca857600080fd5b505af1158015611cbc573d6000803e3d6000fd5b505050506040513d6020811015611cd257600080fd5b5051611cdd57600080fd5b60019450505050505b95945050505050565b60006001600160a01b038316611d3b576040805162461bcd60e51b815260206004820152600c60248201526b18da1958dac81d185c99d95d60a21b604482015290519081900360640190fd5b6000825111611d8a576040805162461bcd60e51b8152602060048201526016602482015275636865636b2066756e6374696f6e42797465636f646560501b604482015290519081900360640190fd5b5060005b92915050565b6003546001600160a01b03163314611dab57600080fd5b6000805460408051634b799db160e01b81526001600160a01b03858116600483015291519190921692634b799db1926024808201939182900301818387803b15801561106c57600080fd5b6003546001600160a01b03163314611e0d57600080fd5b6000546001600160a01b0316611e2257600080fd5b6001600160a01b038116611e3557600080fd5b600080546040805163c5b6e9a960e01b81526001600160a01b0385811660048301529151919092169263c5b6e9a9926024808201939182900301818387803b158015611e8057600080fd5b505af1158015611e94573d6000803e3d6000fd5b5050600280546001600160a01b0319166001600160a01b0394909416939093179092555050565b6001546001600160a01b031690565b6003546001600160a01b03163314611ee157600080fd5b6001546001600160a01b0316611ef657600080fd5b60015460408051630f47aa8d60e31b8152600481018590526024810184905290516001600160a01b0390921691637a3d54689160448082019260009290919082900301818387803b158015611f4a57600080fd5b505af1158015611f5e573d6000803e3d6000fd5b505050505050565b6000546001600160a01b0316611f7b57600080fd5b6001546001600160a01b0316611f9057600080fd5b600160009054906101000a90046001600160a01b03166001600160a01b031663699cc3586040518163ffffffff1660e01b815260040160206040518083038186803b158015611fde57600080fd5b505afa158015611ff2573d6000803e3d6000fd5b505050506040513d602081101561200857600080fd5b50518110612055576040805162461bcd60e51b8152602060048201526015602482015274139bdd0818481d985b1a59081059d95b9918481259605a1b604482015290519081900360640190fd5b61205d61361b565b612065613639565b60015460408051632ad36a4360e21b81526004810186905290516000926060926001600160a01b039091169163ab4da90c916024808201928792909190829003018186803b1580156120b657600080fd5b505afa1580156120ca573d6000803e3d6000fd5b505050506040513d6000823e601f3d908101601f191682016040526102408110156120f457600080fd5b6101a08201516101c08301516101e08401805160408051908701956101408801959493919290880191889184600160201b82111561213157600080fd5b90830190602082018581111561214657600080fd5b8251600160201b81118282018810171561215f57600080fd5b82525081516020918201929091019080838360005b8381101561218c578181015183820152602001612174565b50505050905090810190601f1680156121b95780820380516001836020036101000a031916815260200191505b5060405260200180516040519392919084600160201b8211156121db57600080fd5b9083019060208201858111156121f057600080fd5b8251600160201b81118282018810171561220957600080fd5b82525081516020918201929091019080838360005b8381101561223657818101518382015260200161221e565b50505050905090810190601f1680156122635780820380516001836020036101000a031916815260200191505b5060405260200180516040519392919084600160201b82111561228557600080fd5b90830190602082018581111561229a57600080fd5b82518660208202830111600160201b821117156122b657600080fd5b82525081516020918201928201910280838360005b838110156122e35781810151838201526020016122cb565b5050505090500160405250505050509550955050509350935060008460016002811061230b57fe5b602002015190506001600160a01b03811615801590612328575082155b6123635760405162461bcd60e51b81526004018080602001828103825260278152602001806136596027913960400191505060405180910390fd5b61236d8183611cef565b156123ad576040805162461bcd60e51b815260206004820152600b60248201526a63616e206265207269736b60a81b604482015290519081900360640190fd5b83511580156123bb57508351155b61240c576040805162461bcd60e51b815260206004820152601b60248201527f556e7375697461626c6520737461747573206f7220726573756c740000000000604482015290519081900360640190fd5b60808401514211612464576040805162461bcd60e51b815260206004820152601a60248201527f6e6f74696365456e6454696d65206973206e6f7420656e646564000000000000604482015290519081900360640190fd5b60a0840151158015612478575060c0840151155b8015612486575060e0840151155b6124c15760405162461bcd60e51b81526004018080602001828103825260248152602001806136c26024913960400191505060405180910390fd5b600154600080546040805163196c7d5160e01b815290516001600160a01b039485169463790ef1be948c949091169263196c7d519260048083019392829003018186803b15801561251157600080fd5b505afa158015612525573d6000803e3d6000fd5b505050506040513d6000823e601f3d908101601f19168201604052602081101561254e57600080fd5b8101908080516040519392919084600160201b82111561256d57600080fd5b90830190602082018581111561258257600080fd5b82518660208202830111600160201b8211171561259e57600080fd5b82525081516020918201928201910280838360005b838110156125cb5781810151838201526020016125b3565b505050509050016040525050506040518363ffffffff1660e01b81526004018083815260200180602001828103825283818151815260200191508051906020019060200280838360005b8381101561262d578181015183820152602001612615565b505050509050019350505050602060405180830381600087803b15801561265357600080fd5b505af1158015612667573d6000803e3d6000fd5b505050506040513d602081101561267d57600080fd5b5051611f5e576040805162461bcd60e51b815260206004820152601f60248201527f20656c656374436f6d6d696974746565466f724167656e6461206661696c7300604482015290519081900360640190fd5b6003546001600160a01b031681565b6003546001600160a01b031633146126f657600080fd5b6001546001600160a01b031661270b57600080fd5b6001546040805163474a239560e11b81526004810184905290516001600160a01b0390921691638e94472a9160248082019260009290919082900301818387803b15801561106c57600080fd5b6003546001600160a01b0316331461276f57600080fd5b6000546001600160a01b031661278457600080fd5b6001600160a01b03811661279757600080fd5b6000805460408051631270e7c560e21b81526001600160a01b038581166004830152915191909216926349c39f14926024808201939182900301818387803b1580156127e257600080fd5b505af11580156127f6573d6000803e3d6000fd5b5050600180546001600160a01b0319166001600160a01b0394909416939093179092555050565b600080546001600160a01b031661283357600080fd5b6001546001600160a01b031661284857600080fd5b6002546001600160a01b031661285d57600080fd5b600160009054906101000a90046001600160a01b03166001600160a01b031663aeb2f1716040518163ffffffff1660e01b815260040160206040518083038186803b1580156128ab57600080fd5b505afa1580156128bf573d6000803e3d6000fd5b505050506040513d60208110156128d557600080fd5b505184101561292b576040805162461bcd60e51b815260206004820152601a60248201527f546865206e6f7469636520706572696f642069732073686f7274000000000000604482015290519081900360640190fd5b60008060009054906101000a90046001600160a01b03166001600160a01b0316630e3557416040518163ffffffff1660e01b815260040160206040518083038186803b15801561297a57600080fd5b505afa15801561298e573d6000803e3d6000fd5b505050506040513d60208110156129a457600080fd5b505190506001600160a01b0381166129bb57600080fd5b60015460408051633093f5b360e21b815290516000926001600160a01b03169163c24fd6cc916004808301926020929190829003018186803b158015612a0057600080fd5b505afa158015612a14573d6000803e3d6000fd5b505050506040513d6020811015612a2a57600080fd5b505190508015612e525760005460408051630e35574160e01b8152905183926001600160a01b031691630e355741916004808301926020929190829003018186803b158015612a7857600080fd5b505afa158015612a8c573d6000803e3d6000fd5b505050506040513d6020811015612aa257600080fd5b5051604080516370a0823160e01b815233600482015290516001600160a01b03909216916370a0823191602480820192602092909190829003018186803b158015612aec57600080fd5b505afa158015612b00573d6000803e3d6000fd5b505050506040513d6020811015612b1657600080fd5b50511015612b64576040805162461bcd60e51b81526020600482015260166024820152756e6f7420656e6f75676820746f6e2062616c616e636560501b604482015290519081900360640190fd5b60005460408051630e35574160e01b8152905183926001600160a01b031691630e355741916004808301926020929190829003018186803b158015612ba857600080fd5b505afa158015612bbc573d6000803e3d6000fd5b505050506040513d6020811015612bd257600080fd5b505160408051636eb1769f60e11b815233600482015230602482015290516001600160a01b039092169163dd62ed3e91604480820192602092909190829003018186803b158015612c2257600080fd5b505afa158015612c36573d6000803e3d6000fd5b505050506040513d6020811015612c4c57600080fd5b50511015612ca1576040805162461bcd60e51b815260206004820152601760248201527f746f6b656e20616c6c6f77616e6365206973206c61636b000000000000000000604482015290519081900360640190fd5b60008060009054906101000a90046001600160a01b03166001600160a01b0316630e3557416040518163ffffffff1660e01b815260040160206040518083038186803b158015612cf057600080fd5b505afa158015612d04573d6000803e3d6000fd5b505050506040513d6020811015612d1a57600080fd5b505160408051336024820152604480820186905282518083039091018152606490910182526020810180516001600160e01b031663079cc67960e41b178152915181516001600160a01b0390941693919290918291908083835b60208310612d935780518252601f199092019160209182019101612d74565b6001836020036101000a0380198251168184511680821785525050505050509050019150506000604051808303816000865af19150503d8060008114612df5576040519150601f19603f3d011682016040523d82523d6000602084013e612dfa565b606091505b5050905080612e50576040805162461bcd60e51b815260206004820152601c60248201527f4372656174654167656e6461466565732d6275726e206661696c656400000000604482015290519081900360640190fd5b505b600254604080516327b2767960e11b815290516000926001600160a01b031691634f64ecf2916004808301926020929190829003018186803b158015612e9757600080fd5b505afa158015612eab573d6000803e3d6000fd5b505050506040513d6020811015612ec157600080fd5b810190808051906020019092919050505090506000600160009054906101000a90046001600160a01b03166001600160a01b0316631e6e9bb48b8b338c8c8c896040518863ffffffff1660e01b815260040180888152602001876001600160a01b03166001600160a01b03168152602001866001600160a01b03166001600160a01b031681526020018581526020018060200180602001848152602001838103835286818151815260200191508051906020019080838360005b83811015612f93578181015183820152602001612f7b565b50505050905090810190601f168015612fc05780820380516001836020036101000a031916815260200191505b50838103825285518152855160209182019187019080838360005b83811015612ff3578181015183820152602001612fdb565b50505050905090810190601f1680156130205780820380516001836020036101000a031916815260200191505b509950505050505050505050602060405180830381600087803b15801561304657600080fd5b505af115801561305a573d6000803e3d6000fd5b505050506040513d602081101561307057600080fd5b810190808051906020019092919050505090508981336001600160a01b03167f9da3f3f78a682f0ea8f8ea96931a4b631513f66f836c9f65117fe0fc442f90288c8c8c8c60405180856001600160a01b03166001600160a01b031681526020018481526020018060200180602001838103835285818151815260200191508051906020019080838360005b838110156131135781810151838201526020016130fb565b50505050905090810190601f1680156131405780820380516001836020036101000a031916815260200191505b50838103825284518152845160209182019186019080838360005b8381101561317357818101518382015260200161315b565b50505050905090810190601f1680156131a05780820380516001836020036101000a031916815260200191505b50965050505050505060405180910390a49998505050505050505050565b6003546001600160a01b031633146131d557600080fd5b6001546001600160a01b03166131ea57600080fd5b60015460408051635a7b4db560e11b81526004810184905290516001600160a01b039092169163b4f69b6a9160248082019260009290919082900301818387803b15801561106c57600080fd5b6003546001600160a01b0316331461324e57600080fd5b600080546040805163e4a4c58d60e01b81526004810185905290516001600160a01b039092169263e4a4c58d9260248084019382900301818387803b15801561106c57600080fd5b6003546001600160a01b031633146132ad57600080fd5b60008054604080516339d955f760e21b81526001600160a01b0385811660048301529151919092169263e76557dc926024808201939182900301818387803b15801561106c57600080fd5b6001546000906001600160a01b031661331057600080fd5b60015460408051630ddf12e760e31b8152815160009384936001600160a01b0390911692636ef897389260048083019392829003018186803b15801561335557600080fd5b505afa158015613369573d6000803e3d6000fd5b505050506040513d604081101561337f57600080fd5b5080516020909101519092509050811580159061339c5750600081115b80156133a757508181115b6133ed576040805162461bcd60e51b81526020600482015260126024820152714e6f7420612076616c69642071756f72756d60701b604482015290519081900360640190fd5b60008060009054906101000a90046001600160a01b03166001600160a01b031663211bc4f56040518163ffffffff1660e01b815260040160206040518083038186803b15801561343c57600080fd5b505afa158015613450573d6000803e3d6000fd5b505050506040513d602081101561346657600080fd5b50519050600061347c828563ffffffff6134dc16565b905061348e818463ffffffff61353c16565b94505050505090565b6003546001600160a01b031633146134ae57600080fd5b6001600160a01b038116156134d957600380546001600160a01b0319166001600160a01b0383161790555b50565b6000826134eb57506000611d8e565b828202828482816134f857fe5b04146135355760405162461bcd60e51b81526004018080602001828103825260218152602001806137156021913960400191505060405180910390fd5b9392505050565b600061353583836040518060400160405280601a81526020017f536166654d6174683a206469766973696f6e206279207a65726f000000000000815250600081836136055760405162461bcd60e51b81526004018080602001828103825283818151815260200191508051906020019080838360005b838110156135ca5781810151838201526020016135b2565b50505050905090810190601f1680156135f75780820380516001836020036101000a031916815260200191505b509250505060405180910390fd5b50600083858161361157fe5b0495945050505050565b60405180604001604052806002906020820280388339509192915050565b604051806101000160405280600890602082028038833950919291505056fe636865636b20746172676574202d206661696c206f7220616c72656164792065786563757465647573657220616c726561647920766f746564206f6e2074686973206167656e6461666f722074686973206167656e64612c20616c72656164792065786563757465644974206973206e6f7420636f6d6d697474656520656c656374696f6e20706572696f642e666f722074686973206167656e64612c2074686520766f74696e672074696d65206973206e6f742065787069726564536166654d6174683a206d756c7469706c69636174696f6e206f766572666c6f77666f722074686973206167656e64612c2074686520766f74696e672074696d6520657870697265646167656e646120737461747573206d75737420626520494e5f50524f47524553532e796f7520617265206e6f74206120636f6d6d6974746565206d656d626572206f6e2074686973206167656e64612ea2646970667358221220dd3167c459626eccb570459d14a7d70e93cd2ddc7b38940570d122e5ab99383364736f6c63430006020033",
  "source": "// SPDX-License-Identifier: MIT\npragma solidity ^0.6.0;\n\nimport \"../shared/Ownabled.sol\";\nimport \"./StorageStateCommittee.sol\"; \n\nimport { SafeMath } from \"../../node_modules/@openzeppelin/contracts/math/SafeMath.sol\";\nimport { IERC20 } from  \"../../node_modules/@openzeppelin/contracts/token/ERC20/IERC20.sol\";  \n\ncontract DAOCommittee is StorageStateCommittee , Ownabled { \n    using SafeMath for uint256; \n     \n    //////////////////////////////\n    // Events\n    ////////////////////////////// \n    event AgendaCreated(address indexed from, uint256 indexed id, uint indexed group, address target, uint256 noticePeriodMin,bytes functionBytecode,string description); \n    event AgendaVoteCasted( address indexed from, uint256 indexed id, uint voting ); \n    event AgendaExecuted(  address indexed from, uint256 indexed id, address target, bytes functionBytecode );\n    \n    enum ApplyResult { NONE, SUCCESS, NOT_ELECTION, ALREADY_COMMITTEE, SLOT_INVALID, ADDMEMBER_FAIL, LOW_BALANCE }\n     \n    function setStore(address _store)  public onlyOwner {\n        require( _store != address(0)); \n        store = DAOCommitteeStore(_store); \n    } \n    function setDaoElection(address _daoElection)   public  onlyOwner {  store.setDaoElection(_daoElection); }\n    function setDaoVault(address _daoVault)  public  onlyOwner {  store.setDaoVault(_daoVault); } \n     \n    function setAgendamanager(address _manager)  public onlyOwner validStore { \n        require( _manager != address(0)); \n        store.setAgendaManager(_manager);   \n        agendaManager = IDAOAgendamanager(_manager); \n    } \n    function setActivityfeemanager(address _manager)  public onlyOwner validStore { \n        require( _manager != address(0)); \n        store.setActivityFeeManager(_manager);   \n        activityfeeManager = IDAOActivityFeeManager(_manager); \n    } \n    function setMaxCommittees(uint256 _maxCommittees) public onlyOwner  {  store.setMaxCommittees(_maxCommittees); }  \n    \n    //--dao election\n    function applyCommittee( uint256 _indexSlot, address _layer2, address _operator, string memory _name , uint256 totalbalance ) \n        public returns (uint applyResultCode) { \n        \n        require( _layer2!=address(0) && _operator!=address(0),' operator can not zero address' );\n        \n        address elect = store.getDaoElection();  \n        if(elect != msg.sender ){ return uint(ApplyResult.NOT_ELECTION);  } \n        (bool _iscommittee, ) = store.isCommittee(_operator) ;\n         \n        if( _iscommittee ) {  return uint(ApplyResult.ALREADY_COMMITTEE);  }   \n        if( _indexSlot >= store.lengthCommitteeSlotIndex() ) {  return uint(ApplyResult.SLOT_INVALID);  }   \n        uint256 _memberindex = store.addMember( _layer2, _operator, _name) ; \n        \n        if( _memberindex < 1 ) {  return uint(ApplyResult.ADDMEMBER_FAIL);  }    \n       \n        // compare prev committee's balance \n        ( , , , , , uint256 balance,,) = store.detailedCommittee(_indexSlot) ;\n        \n        if( balance > totalbalance ) { return uint(ApplyResult.LOW_BALANCE); }\n         \n        require( store.changeCommittee(_indexSlot, _memberindex, _operator, totalbalance) );\n        \n        return uint(ApplyResult.SUCCESS); \n    } \n    \n    function retireCommittee() public returns (bool){  \n        (bool _iscommittee, ) = store.isCommittee(msg.sender) ;\n        require(_iscommittee,'you are not commiittee');\n        return store.retireCommittee(msg.sender) ; \n    } \n    \n     // ----- agendaManager \n    function setMinimunNoticePeriodMin(uint256 _minimunNoticePeriod)  public onlyOwner validAgendaManager { agendaManager.setMinimunNoticePeriodMin(_minimunNoticePeriod); }\n    function setMinimunVotingPeriodMin(uint256 _minimunVotingPeriod)  public  onlyOwner validAgendaManager { agendaManager.setMinimunVotingPeriodMin(_minimunVotingPeriod); }\n    function setQuorum(uint256 quorumNumerator, uint256 quorumDenominator)   public onlyOwner validAgendaManager  {  agendaManager.setQuorum(quorumNumerator,quorumDenominator); }\n    function setCreateAgendaFees(uint256 _fees)  public onlyOwner validAgendaManager {  agendaManager.setCreateAgendaFees(_fees); } \n   \n    function createAgenda( uint _group, address _target, uint _noticePeriodMin,bytes memory functionBytecode,string memory _description ) \n        public  validStore validAgendaManager validActivityfeeManager returns (uint256) {\n         \n        require( _noticePeriodMin >= agendaManager.getMinimunNoticePeriodMin(), \"The notice period is short\"); \n        address tonaddress = store.getTON();\n        require( tonaddress != address(0) ); \n        \n        // pay to create agenda, burn ton. \n        uint256 createAgendaFees = agendaManager.getCreateAgendaFees(); \n            \n        if( createAgendaFees > 0 ){  \n            require( IERC20(store.getTON()).balanceOf(msg.sender) >= createAgendaFees , 'not enough ton balance');\n            require( IERC20(store.getTON()).allowance(msg.sender,address(this)) >= createAgendaFees, 'token allowance is lack');  \n            (bool success, ) = address(store.getTON()).call(abi.encodeWithSignature(\"burnFrom(address,uint256)\",msg.sender,createAgendaFees));\n            \n            require(success,'CreateAgendaFees-burn failed');   \n        } \n         \n        uint256 _fees = activityfeeManager.calculateActivityFees() ;\n        uint256 agendaID = agendaManager.newAgenda( _group, _target, msg.sender, _noticePeriodMin ,functionBytecode, _description, _fees ) ;\n        \n        emit AgendaCreated(msg.sender, agendaID, _group, _target, _noticePeriodMin, functionBytecode, _description);\n        return agendaID; \n    } \n    \n    function electCommiitteeForAgenda(uint256 _AgendaID) public validStore validAgendaManager  {\n        \n        require( _AgendaID < agendaManager.totalAgendas(),  \"Not a valid Agenda Id\" );\n        (address[2] memory _address, uint[8] memory datas,  , , bool executed, bytes memory functionBytecode, ,  ) = agendaManager.detailedAgenda(_AgendaID);\n         \n        address _target = _address[1];\n        require(_target!=address(0) && !executed ,'check target - fail or already executed'  ); \n        require(!checkRisk(_target, functionBytecode),'can be risk');\n        \n        //// times 0:creationDate 1:noticeEndTime  2:votingStartTime 3:votingEndTime  4:execTime\n        //uint[8] memory args1 = [ uint(agenda.status) ,uint(agenda.result) , uint(agenda.group) , agenda.times[0],\n        // 4: noticeEndTime , 5:votingStartTime , 6:votingEndTime , 7:execTime ];\n        \n        require( datas[0] == uint(AgendaStatus.NOTICE) && datas[0]==uint(AgendaResult.UNDEFINED) ,'Unsuitable status or result' );\n        require( datas[4] < now  ,'noticeEndTime is not ended' );\n        require( datas[5]==0 &&  datas[6]==0 && datas[7]==0 ,'It is not committee election period.' );\n         \n        require(agendaManager.electCommiitteeForAgenda(_AgendaID, store.getCommittees() ),' electCommiitteeForAgenda fails') ;  \n    } \n    \n    function checkRisk( address _target, bytes memory _functionBytecode)  public pure returns (bool){\n        require(_target!=address(0)  ,'check target'  );\n        require(_functionBytecode.length > 0 ,'check functionBytecode'  ); \n        return false; \n    }\n\n    /**\n    * @dev casts a vote.\n    * @param _AgendaID the agenda id \n    * @param _vote  0 for abstain, 1 for yes, 2 for no\n    */\n    function castVote(uint256 _AgendaID, uint _vote, string calldata _comment) external validStore validAgendaManager\n    { \n        uint256 _majority = getMajority();\n        require( _majority > 0 ,'majority is zero');\n        \n        require(_vote <= uint(VoteChoice.NO) );  \n        \n        //(bool _iscommittee, uint256 _committeeIndex ) = store.isCommittee(msg.sender) ;\n        //_committeeIndex \n        (uint256 _committeeId, address _layer2, , , , ) = store.detailedMember(msg.sender) ;\n        \n        require(_committeeId > 0 , \"you are not a committee member.\"); \n        (bool exist, uint status) =  agendaManager.getAgendaStatus(_AgendaID); \n        require( exist && status == uint(AgendaStatus.VOTING),\"agenda has expired.\" ); \n        require( !agendaManager.userHasVoted(_AgendaID, msg.sender), \"user already voted on this agenda\" );\n        require( agendaManager.getAgendaVotingStartTimeSeconds(_AgendaID) <= now && now <=agendaManager.getAgendaVotingEndTimeSeconds(_AgendaID) , \"for this agenda, the voting time expired\" );\n        require( agendaManager.validCommitteeForAgenda(_AgendaID, msg.sender ),\"you are not a committee member on this agenda.\"); \n        \n        agendaManager.castVote(_AgendaID, msg.sender, _layer2, _vote, _comment, _majority);\n        store.castVote( msg.sender); \n        \n        emit AgendaVoteCasted( msg.sender, _AgendaID, _vote ); \n    } \n\n     \n    function executeAgenda(uint256 _AgendaID) public validStore validAgendaManager {\n       \n        //require( store.validMember(msg.sender), \"you are not a committee member.\"); \n        //(bool exist ,  ) = agendaManager.getAgendaStatus(_AgendaID);\n        \n        //uint[8] memory datas = [ uint(agenda.status) ,uint(agenda.result) , uint(agenda.group) , \n        //3:agenda.times[0], 4: agenda.times[1], 5:agenda.times[2], 6:agenda.times[3] , 7: agenda.times[4] ];\n         \n             \n        ( address[2] memory creator, uint[8] memory datas, ,  , bool executed, ,, )  = agendaManager.detailedAgenda(_AgendaID) ;\n        require( creator[0]!=address(0) && datas[0] == uint(AgendaStatus.VOTING) ,\"agenda status must be IN_PROGRESS.\" );   \n        require( datas[6] < now , \"for this agenda, the voting time is not expired\" );\n        require( datas[1] == uint(AgendaResult.ACCEPT) , \"for this agenda, not accept\" );\n        require( executed == false , \"for this agenda, already executed\" );\n        \n        (bool agendaupdate, uint result, bool exec, address target, bytes memory functionBytecode) = agendaManager.setExecuteAgenda(_AgendaID) ;\n       \n        require( agendaupdate && result == uint(AgendaResult.ACCEPT) && exec && target!=address(0) ,'fail setExecuteAgenda');\n         \n        (bool success, ) = address(target).call(functionBytecode); \n        require(success,'execute function fail');  \n         \n        emit AgendaExecuted( msg.sender, _AgendaID, target, functionBytecode ); \n    }   \n    \n    /* \n    function detailedAgenda(uint256 _AgendaID) \n        public  view validAgendaManager  returns (address[2] memory users, uint[8] memory datas, uint256[3] memory counting, uint256 fees, bool executed, bytes memory functionBytecode,string memory description,  address[] memory voters) {\n       return agendaManager.detailedAgenda(_AgendaID) ;\n    } \n    \n    // public \n    function detailedAgendaVoteInfo(uint256 _AgendaID) \n        public  view validAgendaManager returns (bool hasVoted , uint256 vote, string memory comment ) {\n        return agendaManager.detailedAgendaVoteInfo(_AgendaID, msg.sender) ;\n    } \n     \n    function totalAgendas() public view validAgendaManager returns (uint256) {   return agendaManager.totalAgendas() ; }\n    function getNumExecAgendas() public view validAgendaManager returns (uint256) { \n        return agendaManager.getNumExecAgendas() ;\n    } \n     */\n    function getMajority() public view validAgendaManager returns (uint256 majority) {\n        (uint256 ratioNum, uint256 ratioDeno ) = agendaManager.getQuorumRatio();\n        require( ratioNum > 0 && ratioDeno > 0  && ratioDeno > ratioNum , \"Not a valid quorum\"  );\n        uint256 totalcommittees = store.totalCommittees();\n         \n        uint256  total = totalcommittees.mul(ratioNum);\n        majority =  total.div(ratioDeno) ;\n        \n       // if( total % ratioDeno > 0 ) majority =  majority.add(1) ;\n    }\n     \n     \n}\n",
  "sourcePath": "/Users/zena/plasmawork/tokamak-dao-contracts/contracts/dao/DAOCommittee.sol",
  "compiler": {
    "name": "solc",
    "version": "0.6.2+commit.bacdbe57.Emscripten.clang"
  },
  "schemaVersion": "3.3.2",
  "updatedAt": "2020-12-17T03:40:16.506Z",
  "devdoc": {
    "methods": {
      "castVote(uint256,uint256,string)": {
        "details": "casts a vote.",
        "params": {
          "_AgendaID": "the agenda id ",
          "_vote": "0 for abstain, 1 for yes, 2 for no"
        }
      }
    }
  },
  "userdoc": {
    "methods": {}
  }
}