{
  "contractName": "DAOElectionProxy",
  "abi": [
    {
      "inputs": [
        {
          "internalType": "contract DAOElectionStore",
          "name": "_storage",
          "type": "address"
        }
      ],
      "stateMutability": "nonpayable",
      "type": "constructor"
    },
    {
      "anonymous": false,
      "inputs": [
        {
          "indexed": true,
          "internalType": "address",
          "name": "implementation",
          "type": "address"
        }
      ],
      "name": "Upgraded",
      "type": "event"
    },
    {
      "stateMutability": "nonpayable",
      "type": "fallback"
    },
    {
      "inputs": [],
      "name": "_implementation",
      "outputs": [
        {
          "internalType": "address",
          "name": "",
          "type": "address"
        }
      ],
      "stateMutability": "view",
      "type": "function"
    },
    {
      "inputs": [],
      "name": "getProxyCommitteeL2Factory",
      "outputs": [
        {
          "internalType": "address",
          "name": "",
          "type": "address"
        }
      ],
      "stateMutability": "view",
      "type": "function"
    },
    {
      "inputs": [],
      "name": "getProxyDAOCommittee",
      "outputs": [
        {
          "internalType": "address",
          "name": "",
          "type": "address"
        }
      ],
      "stateMutability": "view",
      "type": "function"
    },
    {
      "inputs": [],
      "name": "getProxyLayer2Registry",
      "outputs": [
        {
          "internalType": "address",
          "name": "",
          "type": "address"
        }
      ],
      "stateMutability": "view",
      "type": "function"
    },
    {
      "inputs": [],
      "name": "getProxySeigManager",
      "outputs": [
        {
          "internalType": "address",
          "name": "",
          "type": "address"
        }
      ],
      "stateMutability": "view",
      "type": "function"
    },
    {
      "inputs": [],
      "name": "getProxyStore",
      "outputs": [
        {
          "internalType": "address",
          "name": "",
          "type": "address"
        }
      ],
      "stateMutability": "view",
      "type": "function"
    },
    {
      "inputs": [],
      "name": "owner",
      "outputs": [
        {
          "internalType": "address",
          "name": "",
          "type": "address"
        }
      ],
      "stateMutability": "view",
      "type": "function"
    },
    {
      "inputs": [],
      "name": "pauseProxy",
      "outputs": [
        {
          "internalType": "bool",
          "name": "",
          "type": "bool"
        }
      ],
      "stateMutability": "view",
      "type": "function"
    },
    {
      "inputs": [
        {
          "internalType": "address",
          "name": "newOwner",
          "type": "address"
        }
      ],
      "name": "transferOwnership",
      "outputs": [],
      "stateMutability": "nonpayable",
      "type": "function"
    },
    {
      "inputs": [
        {
          "internalType": "bool",
          "name": "_pause",
          "type": "bool"
        }
      ],
      "name": "setProxyPause",
      "outputs": [],
      "stateMutability": "nonpayable",
      "type": "function"
    },
    {
      "inputs": [
        {
          "internalType": "address payable",
          "name": "_storeAddress",
          "type": "address"
        }
      ],
      "name": "setProxyStore",
      "outputs": [],
      "stateMutability": "nonpayable",
      "type": "function"
    },
    {
      "inputs": [
        {
          "internalType": "address",
          "name": "_addr",
          "type": "address"
        }
      ],
      "name": "setProxyDaoCommittee",
      "outputs": [],
      "stateMutability": "nonpayable",
      "type": "function"
    },
    {
      "inputs": [
        {
          "internalType": "address",
          "name": "_addr",
          "type": "address"
        }
      ],
      "name": "setProxyCommitteeL2Factory",
      "outputs": [],
      "stateMutability": "nonpayable",
      "type": "function"
    },
    {
      "inputs": [
        {
          "internalType": "address",
          "name": "_addr",
          "type": "address"
        }
      ],
      "name": "setProxyLayer2Registry",
      "outputs": [],
      "stateMutability": "nonpayable",
      "type": "function"
    },
    {
      "inputs": [
        {
          "internalType": "address",
          "name": "_addr",
          "type": "address"
        }
      ],
      "name": "setProxySeigManager",
      "outputs": [],
      "stateMutability": "nonpayable",
      "type": "function"
    },
    {
      "inputs": [
        {
          "internalType": "address",
          "name": "impl",
          "type": "address"
        }
      ],
      "name": "upgradeTo",
      "outputs": [],
      "stateMutability": "nonpayable",
      "type": "function"
    },
    {
      "inputs": [],
      "name": "implementation",
      "outputs": [
        {
          "internalType": "address",
          "name": "",
          "type": "address"
        }
      ],
      "stateMutability": "view",
      "type": "function"
    }
  ],
  "bytecode": "0x608060405234801561001057600080fd5b5060405161082d38038061082d8339818101604052602081101561003357600080fd5b5051600580546001600160a01b03199081163317909155600080546001600160a01b03909316929091169190911790556006805460ff60a01b1916600160a01b1790556107a8806100856000396000f3fe608060405234801561001057600080fd5b506004361061010b5760003560e01c80638da5cb5b116100a2578063e1106f2b11610071578063e1106f2b14610234578063eee64f331461025a578063efe306ff14610280578063f2fde38b14610288578063f3e0b9c4146102ae5761010b565b80638da5cb5b146101f65780638e1d002a146101fe578063b6519cd014610224578063bddd2fb11461022c5761010b565b80635c60da1b116100de5780635c60da1b1461018d57806363a8fd89146101955780637cb00d25146101b157806389b02eb9146101d05761010b565b8063186e6691146101155780632cfd067a1461013b5780633659cfe61461015f57806359679b0f14610185575b6101136102b6565b005b6101136004803603602081101561012b57600080fd5b50356001600160a01b0316610311565b6101436103cb565b604080516001600160a01b039092168252519081900360200190f35b6101136004803603602081101561017557600080fd5b50356001600160a01b03166103da565b610143610456565b610143610465565b61019d610474565b604080519115158252519081900360200190f35b610113600480360360208110156101c757600080fd5b50351515610484565b610113600480360360208110156101e657600080fd5b50356001600160a01b03166104b9565b610143610505565b6101136004803603602081101561021457600080fd5b50356001600160a01b0316610514565b6101436105b3565b6101436105c2565b6101136004803603602081101561024a57600080fd5b50356001600160a01b03166105d1565b6101136004803603602081101561027057600080fd5b50356001600160a01b0316610670565b61014361070f565b6101136004803603602081101561029e57600080fd5b50356001600160a01b031661071e565b610143610763565b60006102c0610465565b90506001600160a01b038116158015906102e45750600654600160a01b900460ff16155b6102ed57600080fd5b3660008037600080366000845af43d6000803e80801561030c573d6000f35b3d6000fd5b6005546001600160a01b0316331461032857600080fd5b6000546001600160a01b031661033d57600080fd5b6001600160a01b03811661035057600080fd5b600380546001600160a01b0319166001600160a01b03838116918217909255600080546040805163e2812cf160e01b815260048101949094525193169263e2812cf192602480820193929182900301818387803b1580156103b057600080fd5b505af11580156103c4573d6000803e3d6000fd5b5050505050565b6000546001600160a01b031690565b6005546001600160a01b031633146103f157600080fd5b6006546001600160a01b038281169116141561040c57600080fd5b600680546001600160a01b0319166001600160a01b0383169081179091556040517fbc7cd75a20ee27fd9adebab32041f755214dbc6bffa90cc0225b39da2e5c2d3b90600090a250565b6006546001600160a01b031681565b6006546001600160a01b031690565b600654600160a01b900460ff1681565b6005546001600160a01b0316331461049b57600080fd5b60068054911515600160a01b0260ff60a01b19909216919091179055565b6005546001600160a01b031633146104d057600080fd5b6001600160a01b0381166104e357600080fd5b600080546001600160a01b0319166001600160a01b0392909216919091179055565b6005546001600160a01b031681565b6005546001600160a01b0316331461052b57600080fd5b6000546001600160a01b031661054057600080fd5b6001600160a01b03811661055357600080fd5b600180546001600160a01b0319166001600160a01b038381169182179092556000805460408051633d71678d60e01b8152600481019490945251931692633d71678d92602480820193929182900301818387803b1580156103b057600080fd5b6004546001600160a01b031690565b6002546001600160a01b031690565b6005546001600160a01b031633146105e857600080fd5b6000546001600160a01b03166105fd57600080fd5b6001600160a01b03811661061057600080fd5b600480546001600160a01b0319166001600160a01b0383811691821783556000805460408051633b2bf90560e11b81529586019490945292519290911692637657f20a926024808301939282900301818387803b1580156103b057600080fd5b6005546001600160a01b0316331461068757600080fd5b6000546001600160a01b031661069c57600080fd5b6001600160a01b0381166106af57600080fd5b600280546001600160a01b0319166001600160a01b038381169182179092556000805460408051630d34e65960e41b815260048101949094525193169263d34e659092602480820193929182900301818387803b1580156103b057600080fd5b6003546001600160a01b031690565b6005546001600160a01b0316331461073557600080fd5b6001600160a01b0381161561076057600580546001600160a01b0319166001600160a01b0383161790555b50565b6001546001600160a01b03169056fea264697066735822122097c123414c45bc755fdbcb4a630bead18a472adbbdbff06210a322759ea26a8b64736f6c63430006020033",
  "source": "// SPDX-License-Identifier: MIT\npragma solidity ^0.6.0;\n\nimport \"../shared/Ownabled.sol\";\nimport \"./StorageStateElection.sol\"; \n\ncontract DAOElectionProxy is StorageStateElection , Ownabled { \n\n  address public _implementation;\n  bool public pauseProxy;\n  \n  event Upgraded(address indexed implementation);\n     \n  constructor(DAOElectionStore _storage) public { \n    store = _storage; \n    pauseProxy = true;\n  } \n  \n  function setProxyPause(bool _pause) onlyOwner public {\n      pauseProxy = _pause; \n  }\n   \n  function setProxyStore(address payable _storeAddress) onlyOwner public {\n      require(_storeAddress != address(0)); \n      store = DAOElectionStore(_storeAddress); \n  }\n  function setProxyDaoCommittee(address _addr) onlyOwner validStore public {\n      require(_addr != address(0)); \n      daoCommittee = IDAOCommittee(_addr); \n      store.setDaoCommittee(_addr);\n  }\n  function setProxyCommitteeL2Factory(address _addr) onlyOwner validStore public {\n      require(_addr != address(0)); \n      committeeL2Factory = CommitteeL2FactoryI(_addr); \n      store.setCommitteeL2Factory(_addr);\n  } \n  function setProxyLayer2Registry(address _addr) onlyOwner validStore public {\n      require(_addr != address(0)); \n      layer2Registry = Layer2RegistryI(_addr); \n      store.seLayer2Registry(_addr);\n  } \n  function setProxySeigManager(address _addr) onlyOwner validStore public {\n      require(_addr != address(0)); \n      seigManager = SeigManagerI(_addr); \n      store.setSeigManager(_addr);\n  } \n        \n  function upgradeTo(address impl) public onlyOwner {\n    require(_implementation != impl);\n    _implementation = impl;\n    emit Upgraded(impl);\n  }  \n  \n  function implementation() public view returns (address) {\n    return _implementation;\n  } \n  \n  fallback () external {\n        _fallback();\n  }\n  \n  function _fallback() internal {\n    address _impl = implementation();\n    require(_impl != address(0) && pauseProxy==false);\n    assembly {\n        // Copy msg.data. We take full control of memory in this inline assembly\n        // block because it will not return to Solidity code. We overwrite the\n        // Solidity scratch pad at memory position 0.\n        calldatacopy(0, 0, calldatasize())\n\n        // Call the implementation.\n        // out and outsize are 0 because we don't know the size yet.\n        let result := delegatecall(gas(), _impl, 0, calldatasize(), 0, 0)\n\n        // Copy the returned data.\n        returndatacopy(0, 0, returndatasize())\n\n        switch result\n        // delegatecall returns 0 on error.\n        case 0 { revert(0, returndatasize()) }\n        default { return(0, returndatasize()) }\n    }\n  }\n\n}",
  "sourcePath": "/Users/zena/plasmawork/tokamak-dao-contracts/contracts/dao/DAOElectionProxy.sol",
  "compiler": {
    "name": "solc",
    "version": "0.6.2+commit.bacdbe57.Emscripten.clang"
  },
  "schemaVersion": "3.3.2",
  "updatedAt": "2020-12-17T03:40:16.549Z",
  "devdoc": {
    "methods": {}
  },
  "userdoc": {
    "methods": {}
  }
}