{
  "contractName": "DAOElection",
  "abi": [
    {
      "inputs": [],
      "name": "getProxyCommitteeL2Factory",
      "outputs": [
        {
          "internalType": "address",
          "name": "",
          "type": "address"
        }
      ],
      "stateMutability": "view",
      "type": "function"
    },
    {
      "inputs": [],
      "name": "getProxyDAOCommittee",
      "outputs": [
        {
          "internalType": "address",
          "name": "",
          "type": "address"
        }
      ],
      "stateMutability": "view",
      "type": "function"
    },
    {
      "inputs": [],
      "name": "getProxyLayer2Registry",
      "outputs": [
        {
          "internalType": "address",
          "name": "",
          "type": "address"
        }
      ],
      "stateMutability": "view",
      "type": "function"
    },
    {
      "inputs": [],
      "name": "getProxySeigManager",
      "outputs": [
        {
          "internalType": "address",
          "name": "",
          "type": "address"
        }
      ],
      "stateMutability": "view",
      "type": "function"
    },
    {
      "inputs": [],
      "name": "getProxyStore",
      "outputs": [
        {
          "internalType": "address",
          "name": "",
          "type": "address"
        }
      ],
      "stateMutability": "view",
      "type": "function"
    },
    {
      "inputs": [],
      "name": "owner",
      "outputs": [
        {
          "internalType": "address",
          "name": "",
          "type": "address"
        }
      ],
      "stateMutability": "view",
      "type": "function"
    },
    {
      "inputs": [
        {
          "internalType": "address",
          "name": "newOwner",
          "type": "address"
        }
      ],
      "name": "transferOwnership",
      "outputs": [],
      "stateMutability": "nonpayable",
      "type": "function"
    },
    {
      "inputs": [
        {
          "internalType": "address",
          "name": "_store",
          "type": "address"
        }
      ],
      "name": "setStore",
      "outputs": [],
      "stateMutability": "nonpayable",
      "type": "function"
    },
    {
      "inputs": [],
      "name": "setDaoCommittee",
      "outputs": [],
      "stateMutability": "nonpayable",
      "type": "function"
    },
    {
      "inputs": [],
      "name": "setCommitteeL2Factory",
      "outputs": [],
      "stateMutability": "nonpayable",
      "type": "function"
    },
    {
      "inputs": [],
      "name": "setLayer2Registry",
      "outputs": [],
      "stateMutability": "nonpayable",
      "type": "function"
    },
    {
      "inputs": [],
      "name": "setSeigManager",
      "outputs": [],
      "stateMutability": "nonpayable",
      "type": "function"
    },
    {
      "inputs": [],
      "name": "applyCommitteeByOperator",
      "outputs": [
        {
          "internalType": "uint256",
          "name": "",
          "type": "uint256"
        }
      ],
      "stateMutability": "nonpayable",
      "type": "function"
    },
    {
      "inputs": [
        {
          "internalType": "uint256",
          "name": "_index",
          "type": "uint256"
        }
      ],
      "name": "applyCommittee",
      "outputs": [
        {
          "internalType": "uint256",
          "name": "",
          "type": "uint256"
        }
      ],
      "stateMutability": "nonpayable",
      "type": "function"
    },
    {
      "inputs": [
        {
          "internalType": "string",
          "name": "name",
          "type": "string"
        }
      ],
      "name": "createLayer2",
      "outputs": [
        {
          "internalType": "uint256",
          "name": "layerIndex",
          "type": "uint256"
        }
      ],
      "stateMutability": "nonpayable",
      "type": "function"
    },
    {
      "inputs": [
        {
          "internalType": "address",
          "name": "_layer",
          "type": "address"
        }
      ],
      "name": "updateSeigniorage",
      "outputs": [
        {
          "internalType": "bool",
          "name": "",
          "type": "bool"
        }
      ],
      "stateMutability": "nonpayable",
      "type": "function"
    },
    {
      "inputs": [],
      "name": "numLayer2s",
      "outputs": [
        {
          "internalType": "uint256",
          "name": "",
          "type": "uint256"
        }
      ],
      "stateMutability": "view",
      "type": "function"
    },
    {
      "inputs": [
        {
          "internalType": "address",
          "name": "_layer",
          "type": "address"
        }
      ],
      "name": "totalSupplyLayer2s",
      "outputs": [
        {
          "internalType": "uint256",
          "name": "totalsupply",
          "type": "uint256"
        }
      ],
      "stateMutability": "view",
      "type": "function"
    },
    {
      "inputs": [
        {
          "internalType": "address",
          "name": "_layer",
          "type": "address"
        }
      ],
      "name": "balanceOfLayer2s",
      "outputs": [
        {
          "internalType": "uint256",
          "name": "amount",
          "type": "uint256"
        }
      ],
      "stateMutability": "view",
      "type": "function"
    }
  ],
  "bytecode": "0x6080604052600580546001600160a01b031916331790556116ce806100256000396000f3fe608060405234801561001057600080fd5b50600436106101215760003560e01c8063ae6326b8116100ad578063eb0b75a011610071578063eb0b75a014610267578063efe306ff1461026f578063f2fde38b14610277578063f3e0b9c41461029d578063faec93b3146102a557610121565b8063ae6326b814610203578063b6519cd014610229578063bddd2fb114610231578063d2c5f62914610239578063d4d25d611461024157610121565b8063605937cb116100f4578063605937cb146101945780636f7748aa1461019c57806389ea4300146101a45780638da5cb5b146101de578063a6d1cab5146101e657610121565b8063087cbd40146101265780630d42d4971461014e5780632a108d50146101685780632cfd067a14610170575b600080fd5b61014c6004803603602081101561013c57600080fd5b50356001600160a01b031661034b565b005b610156610397565b60408051918252519081900360200190f35b61014c610417565b6101786104f5565b604080516001600160a01b039092168252519081900360200190f35b610156610504565b61014c610695565b6101ca600480360360208110156101ba57600080fd5b50356001600160a01b0316610773565b604080519115158252519081900360200190f35b6101786108c1565b610156600480360360208110156101fc57600080fd5b50356108d0565b6101566004803603602081101561021957600080fd5b50356001600160a01b0316610cc0565b610178610e56565b610178610e65565b61014c610e74565b6101566004803603602081101561025757600080fd5b50356001600160a01b0316610f52565b61014c6110c2565b6101786111a0565b61014c6004803603602081101561028d57600080fd5b50356001600160a01b03166111af565b6101786111f4565b610156600480360360208110156102bb57600080fd5b8101906020810181356401000000008111156102d657600080fd5b8201836020820111156102e857600080fd5b8035906020019184600183028401116401000000008311171561030a57600080fd5b91908080601f016020809104026020016040519081016040528093929190818152602001838380828437600092019190915250929550611203945050505050565b6005546001600160a01b0316331461036257600080fd5b6001600160a01b03811661037557600080fd5b600080546001600160a01b0319166001600160a01b0392909216919091179055565b60008060009054906101000a90046001600160a01b03166001600160a01b03166377172b036040518163ffffffff1660e01b815260040160206040518083038186803b1580156103e657600080fd5b505afa1580156103fa573d6000803e3d6000fd5b505050506040513d602081101561041057600080fd5b5051905090565b6005546001600160a01b0316331461042e57600080fd5b6000546001600160a01b031661044357600080fd5b60008060009054906101000a90046001600160a01b03166001600160a01b031663b6f205936040518163ffffffff1660e01b815260040160206040518083038186803b15801561049257600080fd5b505afa1580156104a6573d6000803e3d6000fd5b505050506040513d60208110156104bc57600080fd5b505190506001600160a01b0381166104d357600080fd5b600480546001600160a01b0319166001600160a01b0392909216919091179055565b6000546001600160a01b031690565b600080546001600160a01b031661051a57600080fd5b6001546001600160a01b031661056e576040805162461bcd60e51b8152602060048201526014602482015273756e76616c69642044414f436f6d6d697474656560601b604482015290519081900360640190fd5b6004546001600160a01b03166105c2576040805162461bcd60e51b8152602060048201526014602482015273756e76616c696420536569674d616e616765726560601b604482015290519081900360640190fd5b600080546040805163979cb91760e01b8152336004820152815184936001600160a01b03169263979cb9179260248082019391829003018186803b15801561060957600080fd5b505afa15801561061d573d6000803e3d6000fd5b505050506040513d604081101561063357600080fd5b508051602090910151909250905081610685576040805162461bcd60e51b815260206004820152600f60248201526e3737ba1032bc34b9ba103630bcb2b960891b604482015290519081900360640190fd5b61068e816108d0565b9250505090565b6005546001600160a01b031633146106ac57600080fd5b6000546001600160a01b03166106c157600080fd5b60008060009054906101000a90046001600160a01b03166001600160a01b0316634d2d45326040518163ffffffff1660e01b815260040160206040518083038186803b15801561071057600080fd5b505afa158015610724573d6000803e3d6000fd5b505050506040513d602081101561073a57600080fd5b505190506001600160a01b03811661075157600080fd5b600380546001600160a01b0319166001600160a01b0392909216919091179055565b600080546001600160a01b031661078957600080fd5b60008054604080516360c1087960e11b81526001600160a01b038681166004830152825193169263c18210f292602480840193919291829003018186803b1580156107d357600080fd5b505afa1580156107e7573d6000803e3d6000fd5b505050506040513d60408110156107fd57600080fd5b5051905080610853576040805162461bcd60e51b815260206004820152601760248201527f6e6f74206578697374206c617965722061646472657373000000000000000000604482015290519081900360640190fd5b826001600160a01b031663764a78566040518163ffffffff1660e01b8152600401602060405180830381600087803b15801561088e57600080fd5b505af11580156108a2573d6000803e3d6000fd5b505050506040513d60208110156108b857600080fd5b50919392505050565b6005546001600160a01b031681565b600080546001600160a01b03166108e657600080fd5b6001546001600160a01b031661093a576040805162461bcd60e51b8152602060048201526014602482015273756e76616c69642044414f436f6d6d697474656560601b604482015290519081900360640190fd5b6004546001600160a01b031661098e576040805162461bcd60e51b8152602060048201526014602482015273756e76616c696420536569674d616e616765726560601b604482015290519081900360640190fd5b600080546040805163979cb91760e01b815233600482015281516001600160a01b039093169263979cb91792602480840193919291829003018186803b1580156109d757600080fd5b505afa1580156109eb573d6000803e3d6000fd5b505050506040513d6040811015610a0157600080fd5b5051905080610a4e576040805162461bcd60e51b81526020600482015260146024820152733cb7ba9030b932903737ba1037b832b930ba37b960611b604482015290519081900360640190fd5b6000805460408051635da9550760e01b815260048101879052905183926060926001600160a01b0390911691635da95507916024808201928792909190829003018186803b158015610a9f57600080fd5b505afa158015610ab3573d6000803e3d6000fd5b505050506040513d6000823e601f3d908101601f191682016040526080811015610adc57600080fd5b81516020830151604080850180519151939592948301929184640100000000821115610b0757600080fd5b908301906020820185811115610b1c57600080fd5b8251640100000000811182820188101715610b3657600080fd5b82525081516020918201929091019080838360005b83811015610b63578181015183820152602001610b4b565b50505050905090810190601f168015610b905780820380516001836020036101000a031916815260200191505b5060405250939650919450925060009150610bac905084610cc0565b600154604051630db4506160e21b8152600481018a81526001600160a01b03888116602484015287811660448401526084830185905260a060648401908152875160a4850152875195965060009591909416936336d14184938d938b938b938b938b939260c49091019060208601908083838f5b83811015610c38578181015183820152602001610c20565b50505050905090810190601f168015610c655780820380516001836020036101000a031916815260200191505b509650505050505050602060405180830381600087803b158015610c8857600080fd5b505af1158015610c9c573d6000803e3d6000fd5b505050506040513d6020811015610cb257600080fd5b505198975050505050505050565b6004546000906001600160a01b0316610d17576040805162461bcd60e51b8152602060048201526014602482015273756e76616c696420536569674d616e616765726560601b604482015290519081900360640190fd5b6004805460408051634c063c1960e01b81526001600160a01b0386811694820194909452905160009390921691634c063c1991602480820192602092909190829003018186803b158015610d6a57600080fd5b505afa158015610d7e573d6000803e3d6000fd5b505050506040513d6020811015610d9457600080fd5b505190506001600160a01b038116610dea576040805162461bcd60e51b8152602060048201526014602482015273636f696e6167656c61796572206973207a65726f60601b604482015290519081900360640190fd5b806001600160a01b03166318160ddd6040518163ffffffff1660e01b815260040160206040518083038186803b158015610e2357600080fd5b505afa158015610e37573d6000803e3d6000fd5b505050506040513d6020811015610e4d57600080fd5b50519392505050565b6004546001600160a01b031690565b6002546001600160a01b031690565b6005546001600160a01b03163314610e8b57600080fd5b6000546001600160a01b0316610ea057600080fd5b60008060009054906101000a90046001600160a01b03166001600160a01b03166398cee3986040518163ffffffff1660e01b815260040160206040518083038186803b158015610eef57600080fd5b505afa158015610f03573d6000803e3d6000fd5b505050506040513d6020811015610f1957600080fd5b505190506001600160a01b038116610f3057600080fd5b600180546001600160a01b0319166001600160a01b0392909216919091179055565b6004546000906001600160a01b0316610fa9576040805162461bcd60e51b8152602060048201526014602482015273756e76616c696420536569674d616e616765726560601b604482015290519081900360640190fd5b6004805460408051634c063c1960e01b81526001600160a01b0386811694820194909452905160009390921691634c063c1991602480820192602092909190829003018186803b158015610ffc57600080fd5b505afa158015611010573d6000803e3d6000fd5b505050506040513d602081101561102657600080fd5b505190506001600160a01b03811661107c576040805162461bcd60e51b8152602060048201526014602482015273636f696e6167656c61796572206973207a65726f60601b604482015290519081900360640190fd5b604080516370a0823160e01b815233600482015290516001600160a01b038316916370a08231916024808301926020929190829003018186803b158015610e2357600080fd5b6005546001600160a01b031633146110d957600080fd5b6000546001600160a01b03166110ee57600080fd5b60008060009054906101000a90046001600160a01b03166001600160a01b03166321c73e9f6040518163ffffffff1660e01b815260040160206040518083038186803b15801561113d57600080fd5b505afa158015611151573d6000803e3d6000fd5b505050506040513d602081101561116757600080fd5b505190506001600160a01b03811661117e57600080fd5b600280546001600160a01b0319166001600160a01b0392909216919091179055565b6003546001600160a01b031690565b6005546001600160a01b031633146111c657600080fd5b6001600160a01b038116156111f157600580546001600160a01b0319166001600160a01b0383161790555b50565b6001546001600160a01b031690565b6004546000906001600160a01b031661125a576040805162461bcd60e51b8152602060048201526014602482015273756e76616c696420536569674d616e616765726560601b604482015290519081900360640190fd5b6003546001600160a01b03166112b0576040805162461bcd60e51b8152602060048201526016602482015275756e76616c6964204c6179657232526567697374727960501b604482015290519081900360640190fd5b6002546001600160a01b031661130d576040805162461bcd60e51b815260206004820152601a60248201527f756e76616c696420436f6d6d69747465654c32466163746f7279000000000000604482015290519081900360640190fd5b3380611353576040805162461bcd60e51b815260206004820152601060248201526f6f70657261746f72206973207a65726f60801b604482015290519081900360640190fd5b600080546040805163979cb91760e01b81526001600160a01b038581166004830152825193169263979cb91792602480840193919291829003018186803b15801561139d57600080fd5b505afa1580156113b1573d6000803e3d6000fd5b505050506040513d60408110156113c757600080fd5b50519050801561141e576040805162461bcd60e51b815260206004820152601a60248201527f6f70657261746f7220616c726561647920726567697374657264000000000000604482015290519081900360640190fd5b600254600480546040805163545e7c6160e01b81526001600160a01b0387811694820194909452918316602483015251600093929092169163545e7c619160448082019260209290919082900301818787803b15801561147d57600080fd5b505af1158015611491573d6000803e3d6000fd5b505050506040513d60208110156114a757600080fd5b505190506001600160a01b0381166114ff576040805162461bcd60e51b81526020600482015260166024820152756465706c6f796564206c61796572206973207a65726f60501b604482015290519081900360640190fd5b6003546004805460408051635e58d38f60e11b81526001600160a01b0386811694820194909452918316602483015251919092169163bcb1a71e9160448083019260209291908290030181600087803b15801561155b57600080fd5b505af115801561156f573d6000803e3d6000fd5b505050506040513d602081101561158557600080fd5b505161159057600080fd5b6000805460405163b77f0b9360e01b81526001600160a01b038481166004830190815287821660248401526060604484019081528a5160648501528a51929094169463b77f0b939487948a948d94936084909201916020860191908190849084905b8381101561160a5781810151838201526020016115f2565b50505050905090810190601f1680156116375780820380516001836020036101000a031916815260200191505b50945050505050602060405180830381600087803b15801561165857600080fd5b505af115801561166c573d6000803e3d6000fd5b505050506040513d602081101561168257600080fd5b505193508361169057600080fd5b50505091905056fea26469706673582212207f87b7d017a3e978cdd8aeee7036ad09122ca04af7450a7431ce4f385cf6f2ba64736f6c63430006020033",
  "source": "// SPDX-License-Identifier: MIT\npragma solidity ^0.6.0;\n\nimport \"../shared/Ownabled.sol\";\nimport \"./StorageStateElection.sol\"; \n\nimport { IDAOCommittee } from \"../interfaces/IDAOCommittee.sol\"; \nimport { IERC20 } from  \"../../node_modules/@openzeppelin/contracts/token/ERC20/IERC20.sol\";\nimport { SafeMath } from \"../../node_modules/@openzeppelin/contracts/math/SafeMath.sol\";\n\nimport { CommitteeL2I } from \"../interfaces/CommitteeL2I.sol\";  \n\n\ncontract DAOElection is StorageStateElection , Ownabled { \n    using SafeMath for uint256; \n    \n    function setStore(address _store)  public onlyOwner{\n        require( _store != address(0)); \n        store = DAOElectionStore(_store); \n    } \n    function setDaoCommittee()  public onlyOwner validStore { \n        address manager = store.getDaoCommittee();\n        require( manager != address(0)); \n        daoCommittee = IDAOCommittee(manager); \n    }  \n    function setCommitteeL2Factory()  public onlyOwner validStore { \n        address manager = store.getCommitteeL2Factory();\n        require( manager != address(0)); \n        committeeL2Factory = CommitteeL2FactoryI(manager); \n    } \n    function setLayer2Registry()  public onlyOwner validStore { \n        address manager = store.getLayer2Registry();\n        require( manager != address(0)); \n        layer2Registry = Layer2RegistryI(manager); \n    } \n    function setSeigManager()  public onlyOwner validStore { \n        address manager = store.getSeigManager();\n        require( manager != address(0)); \n        seigManager = SeigManagerI(manager); \n    }  \n    \n    // \n    function applyCommitteeByOperator() public validStore validDAOCommittee validSeigManager returns (uint) {\n        (bool exist , uint256 _layerIndex  ) = store.existLayerByOperator(msg.sender);\n        require(exist,'not exist layer');\n        return applyCommittee(_layerIndex);\n    } \n    \n    function applyCommittee(uint256 _index) public validStore validDAOCommittee validSeigManager returns (uint) {\n        (bool exist ,   ) = store.existLayerByOperator(msg.sender);\n        require( exist ,'you are not operator'); \n         \n        (address layer2,address operator, string memory name,  ) = store.detailedLayer2s(_index) ;\n         \n        uint256 totalbalance = totalSupplyLayer2s(layer2) ;\n         \n        uint applyResultCode = daoCommittee.applyCommittee(_index, layer2, operator,name ,totalbalance );\n         \n        return applyResultCode;\n    } \n    \n    //  need to check \n    function createLayer2( string memory name) public validSeigManager validLayer2Registry validCommitteeL2Factory returns (uint256 layerIndex){\n        address operator = msg.sender;\n        require( operator!= address(0),'operator is zero');  \n        (bool exist ,   ) = store.existLayerByOperator(operator); \n        require( !exist,'operator already registerd'); \n         \n        //  create CommitteeL2 , set seigManager \n        address layer = committeeL2Factory.deploy(operator, address(seigManager));\n        require( layer!= address(0),'deployed layer is zero');\n        \n        // register CommitteeL2 to registry : registerAndDeployCoinage or register \n        require ( layer2Registry.registerAndDeployCoinage(layer, address(seigManager) ) ); \n        \n        // register.store \n        layerIndex = store.registerLayer2( layer,operator,name) ; \n        require( layerIndex > 0);\n        return layerIndex; \n    }  \n         \n    \n    function updateSeigniorage(address _layer)  public validStore returns (bool){ \n        (bool exist ,   ) = store.existLayerByLayer(_layer); \n        require(exist ,'not exist layer address');\n        CommitteeL2I(_layer).updateSeigniorage();\n    }\n    \n    function numLayer2s() public view returns (uint256 ){ return store.getNumLayer2s(); } \n    \n    function totalSupplyLayer2s(address _layer) public view validSeigManager returns (uint256 totalsupply){  \n        address coinagelayer = seigManager.coinages(_layer);\n        require( coinagelayer!= address(0),'coinagelayer is zero');\n        return IERC20(coinagelayer).totalSupply();\n    }\n    \n    function balanceOfLayer2s(address _layer) public view validSeigManager returns (uint256 amount){ \n         \n        address coinagelayer = seigManager.coinages(_layer);\n        require( coinagelayer!= address(0),'coinagelayer is zero');\n        return IERC20(coinagelayer).balanceOf(msg.sender);\n    }\n    \n    \n    \n}\n\n",
  "sourcePath": "/Users/zena/plasmawork/tokamak-dao-contracts/contracts/dao/DAOElection.sol",
  "compiler": {
    "name": "solc",
    "version": "0.6.2+commit.bacdbe57.Emscripten.clang"
  },
  "schemaVersion": "3.3.2",
  "updatedAt": "2020-12-17T03:40:16.539Z",
  "devdoc": {
    "methods": {}
  },
  "userdoc": {
    "methods": {}
  }
}