{
  "contractName": "DAOElectionStore",
  "abi": [
    {
      "inputs": [
        {
          "internalType": "address",
          "name": "_ton",
          "type": "address"
        }
      ],
      "stateMutability": "nonpayable",
      "type": "constructor"
    },
    {
      "inputs": [],
      "name": "admin",
      "outputs": [
        {
          "internalType": "address",
          "name": "",
          "type": "address"
        }
      ],
      "stateMutability": "view",
      "type": "function"
    },
    {
      "inputs": [],
      "name": "committeeL2Factory",
      "outputs": [
        {
          "internalType": "address",
          "name": "",
          "type": "address"
        }
      ],
      "stateMutability": "view",
      "type": "function"
    },
    {
      "inputs": [],
      "name": "daoCommittee",
      "outputs": [
        {
          "internalType": "address",
          "name": "",
          "type": "address"
        }
      ],
      "stateMutability": "view",
      "type": "function"
    },
    {
      "inputs": [],
      "name": "depositManager",
      "outputs": [
        {
          "internalType": "address",
          "name": "",
          "type": "address"
        }
      ],
      "stateMutability": "view",
      "type": "function"
    },
    {
      "inputs": [
        {
          "internalType": "address",
          "name": "",
          "type": "address"
        }
      ],
      "name": "layer2Id",
      "outputs": [
        {
          "internalType": "uint256",
          "name": "",
          "type": "uint256"
        }
      ],
      "stateMutability": "view",
      "type": "function"
    },
    {
      "inputs": [
        {
          "internalType": "address",
          "name": "",
          "type": "address"
        }
      ],
      "name": "layer2IdByLayer",
      "outputs": [
        {
          "internalType": "uint256",
          "name": "",
          "type": "uint256"
        }
      ],
      "stateMutability": "view",
      "type": "function"
    },
    {
      "inputs": [],
      "name": "layer2Registry",
      "outputs": [
        {
          "internalType": "address",
          "name": "",
          "type": "address"
        }
      ],
      "stateMutability": "view",
      "type": "function"
    },
    {
      "inputs": [
        {
          "internalType": "address",
          "name": "",
          "type": "address"
        }
      ],
      "name": "layer2Valid",
      "outputs": [
        {
          "internalType": "bool",
          "name": "",
          "type": "bool"
        }
      ],
      "stateMutability": "view",
      "type": "function"
    },
    {
      "inputs": [
        {
          "internalType": "uint256",
          "name": "",
          "type": "uint256"
        }
      ],
      "name": "layer2s",
      "outputs": [
        {
          "internalType": "address",
          "name": "layer2",
          "type": "address"
        },
        {
          "internalType": "address",
          "name": "operator",
          "type": "address"
        },
        {
          "internalType": "string",
          "name": "name",
          "type": "string"
        },
        {
          "internalType": "uint256",
          "name": "since",
          "type": "uint256"
        }
      ],
      "stateMutability": "view",
      "type": "function"
    },
    {
      "inputs": [],
      "name": "numLayer2s",
      "outputs": [
        {
          "internalType": "uint256",
          "name": "",
          "type": "uint256"
        }
      ],
      "stateMutability": "view",
      "type": "function"
    },
    {
      "inputs": [],
      "name": "owner",
      "outputs": [
        {
          "internalType": "address",
          "name": "",
          "type": "address"
        }
      ],
      "stateMutability": "view",
      "type": "function"
    },
    {
      "inputs": [],
      "name": "seigManager",
      "outputs": [
        {
          "internalType": "address",
          "name": "",
          "type": "address"
        }
      ],
      "stateMutability": "view",
      "type": "function"
    },
    {
      "inputs": [],
      "name": "ton",
      "outputs": [
        {
          "internalType": "address",
          "name": "",
          "type": "address"
        }
      ],
      "stateMutability": "view",
      "type": "function"
    },
    {
      "inputs": [
        {
          "internalType": "address",
          "name": "newAdmin",
          "type": "address"
        }
      ],
      "name": "transferAdmin",
      "outputs": [],
      "stateMutability": "nonpayable",
      "type": "function"
    },
    {
      "inputs": [
        {
          "internalType": "address",
          "name": "newOwner",
          "type": "address"
        }
      ],
      "name": "transferOwnership",
      "outputs": [],
      "stateMutability": "nonpayable",
      "type": "function"
    },
    {
      "inputs": [
        {
          "internalType": "address",
          "name": "target",
          "type": "address"
        },
        {
          "internalType": "address",
          "name": "newOwner",
          "type": "address"
        }
      ],
      "name": "transfertargetOwnership",
      "outputs": [],
      "stateMutability": "nonpayable",
      "type": "function"
    },
    {
      "inputs": [
        {
          "internalType": "address",
          "name": "_operator",
          "type": "address"
        }
      ],
      "name": "existLayerByOperator",
      "outputs": [
        {
          "internalType": "bool",
          "name": "exist",
          "type": "bool"
        },
        {
          "internalType": "uint256",
          "name": "_layerId",
          "type": "uint256"
        }
      ],
      "stateMutability": "view",
      "type": "function"
    },
    {
      "inputs": [
        {
          "internalType": "address",
          "name": "_layer",
          "type": "address"
        }
      ],
      "name": "existLayerByLayer",
      "outputs": [
        {
          "internalType": "bool",
          "name": "exist",
          "type": "bool"
        },
        {
          "internalType": "uint256",
          "name": "_layerId",
          "type": "uint256"
        }
      ],
      "stateMutability": "view",
      "type": "function"
    },
    {
      "inputs": [
        {
          "internalType": "address",
          "name": "_layer",
          "type": "address"
        },
        {
          "internalType": "address",
          "name": "_operator",
          "type": "address"
        },
        {
          "internalType": "string",
          "name": "_name",
          "type": "string"
        }
      ],
      "name": "registerLayer2",
      "outputs": [
        {
          "internalType": "uint256",
          "name": "",
          "type": "uint256"
        }
      ],
      "stateMutability": "nonpayable",
      "type": "function"
    },
    {
      "inputs": [
        {
          "internalType": "address",
          "name": "_daoCommittee",
          "type": "address"
        }
      ],
      "name": "setDaoCommittee",
      "outputs": [],
      "stateMutability": "nonpayable",
      "type": "function"
    },
    {
      "inputs": [
        {
          "internalType": "address",
          "name": "_layer2Registry",
          "type": "address"
        }
      ],
      "name": "seLayer2Registry",
      "outputs": [],
      "stateMutability": "nonpayable",
      "type": "function"
    },
    {
      "inputs": [
        {
          "internalType": "address",
          "name": "_depositManager",
          "type": "address"
        }
      ],
      "name": "setDepositManager",
      "outputs": [],
      "stateMutability": "nonpayable",
      "type": "function"
    },
    {
      "inputs": [
        {
          "internalType": "address",
          "name": "_seigManager",
          "type": "address"
        }
      ],
      "name": "setSeigManager",
      "outputs": [],
      "stateMutability": "nonpayable",
      "type": "function"
    },
    {
      "inputs": [
        {
          "internalType": "address",
          "name": "_committeeL2Factory",
          "type": "address"
        }
      ],
      "name": "setCommitteeL2Factory",
      "outputs": [],
      "stateMutability": "nonpayable",
      "type": "function"
    },
    {
      "inputs": [],
      "name": "getTON",
      "outputs": [
        {
          "internalType": "address",
          "name": "",
          "type": "address"
        }
      ],
      "stateMutability": "view",
      "type": "function"
    },
    {
      "inputs": [],
      "name": "getDaoCommittee",
      "outputs": [
        {
          "internalType": "address",
          "name": "",
          "type": "address"
        }
      ],
      "stateMutability": "view",
      "type": "function"
    },
    {
      "inputs": [],
      "name": "getLayer2Registry",
      "outputs": [
        {
          "internalType": "address",
          "name": "",
          "type": "address"
        }
      ],
      "stateMutability": "view",
      "type": "function"
    },
    {
      "inputs": [],
      "name": "getDepositManager",
      "outputs": [
        {
          "internalType": "address",
          "name": "",
          "type": "address"
        }
      ],
      "stateMutability": "view",
      "type": "function"
    },
    {
      "inputs": [],
      "name": "getSeigManager",
      "outputs": [
        {
          "internalType": "address",
          "name": "",
          "type": "address"
        }
      ],
      "stateMutability": "view",
      "type": "function"
    },
    {
      "inputs": [],
      "name": "getCommitteeL2Factory",
      "outputs": [
        {
          "internalType": "address",
          "name": "",
          "type": "address"
        }
      ],
      "stateMutability": "view",
      "type": "function"
    },
    {
      "inputs": [],
      "name": "getNumLayer2s",
      "outputs": [
        {
          "internalType": "uint256",
          "name": "",
          "type": "uint256"
        }
      ],
      "stateMutability": "view",
      "type": "function"
    },
    {
      "inputs": [
        {
          "internalType": "uint256",
          "name": "_index",
          "type": "uint256"
        }
      ],
      "name": "detailedLayer2s",
      "outputs": [
        {
          "internalType": "address",
          "name": "layer2",
          "type": "address"
        },
        {
          "internalType": "address",
          "name": "operator",
          "type": "address"
        },
        {
          "internalType": "string",
          "name": "name",
          "type": "string"
        },
        {
          "internalType": "uint256",
          "name": "since",
          "type": "uint256"
        }
      ],
      "stateMutability": "view",
      "type": "function"
    },
    {
      "inputs": [
        {
          "internalType": "address",
          "name": "_operator",
          "type": "address"
        }
      ],
      "name": "detailedLayer2sByOperator",
      "outputs": [
        {
          "internalType": "address",
          "name": "layer2",
          "type": "address"
        },
        {
          "internalType": "address",
          "name": "operator",
          "type": "address"
        },
        {
          "internalType": "string",
          "name": "name",
          "type": "string"
        },
        {
          "internalType": "uint256",
          "name": "since",
          "type": "uint256"
        }
      ],
      "stateMutability": "view",
      "type": "function"
    },
    {
      "inputs": [
        {
          "internalType": "address",
          "name": "_layer",
          "type": "address"
        }
      ],
      "name": "detailedLayer2sByLayer",
      "outputs": [
        {
          "internalType": "address",
          "name": "layer2",
          "type": "address"
        },
        {
          "internalType": "address",
          "name": "operator",
          "type": "address"
        },
        {
          "internalType": "string",
          "name": "name",
          "type": "string"
        },
        {
          "internalType": "uint256",
          "name": "since",
          "type": "uint256"
        }
      ],
      "stateMutability": "view",
      "type": "function"
    }
  ],
  "bytecode": "0x608060405234801561001057600080fd5b506040516112623803806112628339818101604052602081101561003357600080fd5b505160008054336001600160a01b0319918216811783556001805483169091179055600780549091166001600160a01b03909316929092179091556111e490819061007e90396000f3fe608060405234801561001057600080fd5b50600436106102065760003560e01c80638da5cb5b1161011a578063cc48b947116100ad578063dfc84a431161007c578063dfc84a4314610654578063e2812cf11461067a578063eeac9431146106a0578063f2fde38b146106a8578063f851a440146106ce57610206565b8063cc48b947146105f8578063cf2a239c14610600578063d09ee04d14610608578063d34e65901461062e57610206565b8063b77f0b93116100e9578063b77f0b93146104ab578063becc24c71461056a578063c18210f214610598578063cc0b15c8146105be57610206565b80638da5cb5b14610452578063979cb9171461045a57806398cee3981461049b578063b6f20593146104a357610206565b80635da955071161019d57806375829def1161016c57806375829def146103bb5780637657f20a146103e157806377172b03146104075780637ae392631461040f5780638362d96c1461042c57610206565b80635da955071461038657806360804bae146103a35780636c7ac9d8146103ab5780636fb7f558146103b357610206565b80632caae3f6116101d95780632caae3f61461027957806331ae1f02146103505780633d71678d146103585780634d2d45321461037e57610206565b80630d42d4971461020b5780630e3557411461022557806321c73e9f14610249578063228d71a914610251575b600080fd5b6102136106d6565b60408051918252519081900360200190f35b61022d6106dc565b604080516001600160a01b039092168252519081900360200190f35b61022d6106ec565b6102776004803603602081101561026757600080fd5b50356001600160a01b03166106fb565b005b61029f6004803603602081101561028f57600080fd5b50356001600160a01b0316610747565b60405180856001600160a01b03166001600160a01b03168152602001846001600160a01b03166001600160a01b0316815260200180602001838152602001828103825284818151815260200191508051906020019080838360005b838110156103125781810151838201526020016102fa565b50505050905090810190601f16801561033f5780820380516001836020036101000a031916815260200191505b509550505050505060405180910390f35b61022d610780565b6102776004803603602081101561036e57600080fd5b50356001600160a01b031661078f565b61022d6107db565b61029f6004803603602081101561039c57600080fd5b50356107ea565b61022d610971565b61022d610980565b61022d61098f565b610277600480360360208110156103d157600080fd5b50356001600160a01b031661099e565b610277600480360360208110156103f757600080fd5b50356001600160a01b03166109e3565b610213610a2f565b61029f6004803603602081101561042557600080fd5b5035610a35565b6102136004803603602081101561044257600080fd5b50356001600160a01b0316610b06565b61022d610b18565b6104806004803603602081101561047057600080fd5b50356001600160a01b0316610b27565b60408051921515835260208301919091528051918290030190f35b61022d610b76565b61022d610b85565b610213600480360360608110156104c157600080fd5b6001600160a01b0382358116926020810135909116918101906060810160408201356401000000008111156104f557600080fd5b82018360208201111561050757600080fd5b8035906020019184600183028401116401000000008311171561052957600080fd5b91908080601f016020809104026020016040519081016040528093929190818152602001838380828437600092019190915250929550610b94945050505050565b6102776004803603604081101561058057600080fd5b506001600160a01b0381358116916020013516610e6d565b610480600480360360208110156105ae57600080fd5b50356001600160a01b0316610ef8565b6105e4600480360360208110156105d457600080fd5b50356001600160a01b0316610f3b565b604080519115158252519081900360200190f35b61022d610f50565b61022d610f5f565b61029f6004803603602081101561061e57600080fd5b50356001600160a01b0316610f6e565b6102776004803603602081101561064457600080fd5b50356001600160a01b0316610f97565b6102136004803603602081101561066a57600080fd5b50356001600160a01b0316610fe3565b6102776004803603602081101561069057600080fd5b50356001600160a01b0316610ff5565b61022d611041565b610277600480360360208110156106be57600080fd5b50356001600160a01b0316611050565b61022d6110ab565b60085481565b6007546001600160a01b03165b90565b6006546001600160a01b031690565b6000546001600160a01b0316331461071257600080fd5b6001600160a01b03811661072557600080fd5b600480546001600160a01b0319166001600160a01b0392909216919091179055565b6001600160a01b0381166000908152600b602052604081205481906060908290610770816107ea565b9450945094509450509193509193565b6004546001600160a01b031690565b6000546001600160a01b031633146107a657600080fd5b6001600160a01b0381166107b957600080fd5b600280546001600160a01b0319166001600160a01b0392909216919091179055565b6003546001600160a01b031690565b600080606060006008548510610838576040805162461bcd60e51b815260206004820152600e60248201526d0d2dcecc2d8d2c840bed2dcc8caf60931b604482015290519081900360640190fd5b6009858154811061084557fe5b6000918252602090912060049091020154600980546001600160a01b03909216918790811061087057fe5b906000526020600020906004020160010160009054906101000a90046001600160a01b0316600987815481106108a257fe5b9060005260206000209060040201600201600988815481106108c057fe5b600091825260209182902060036004909202010154825460408051601f60026000196101006001871615020190941693909304928301859004850281018501909152818152919284919083018282801561095b5780601f106109305761010080835404028352916020019161095b565b820191906000526020600020905b81548152906001019060200180831161093e57829003601f168201915b5050505050915093509350935093509193509193565b6006546001600160a01b031681565b6004546001600160a01b031681565b6005546001600160a01b031681565b6001546001600160a01b031633146109b557600080fd5b6001600160a01b038116156109e057600180546001600160a01b0319166001600160a01b0383161790555b50565b6000546001600160a01b031633146109fa57600080fd5b6001600160a01b038116610a0d57600080fd5b600580546001600160a01b0319166001600160a01b0392909216919091179055565b60085490565b60098181548110610a4257fe5b600091825260209182902060049091020180546001808301546002808501805460408051601f600019978416156101000297909701909216939093049485018890048802810188019092528382526001600160a01b0394851697509190931694909190830182828015610af65780601f10610acb57610100808354040283529160200191610af6565b820191906000526020600020905b815481529060010190602001808311610ad957829003601f168201915b5050505050908060030154905084565b600a6020526000908152604090205481565b6000546001600160a01b031681565b6001600160a01b0381166000908152600a6020526040812054819015610b6a5750506001600160a01b0381166000908152600a6020526040902054600190610b71565b5060009050805b915091565b6002546001600160a01b031690565b6005546001600160a01b031690565b600080546001600160a01b03163314610bac57600080fd5b6001600160a01b03841615801590610bcc57506001600160a01b03831615155b610c075760405162461bcd60e51b815260040180806020018281038252602281526020018061118d6022913960400191505060405180910390fd5b600954610d0757604080516080810182526000808252602080830182815284518083018652838152948401948552426060850152600980546001810182559352835160049093027f6e1540171b6c0c960b71a7020d9f60077f6af931a8bbf590da0223dacf75c7af810180546001600160a01b039586166001600160a01b031991821617825592517f6e1540171b6c0c960b71a7020d9f60077f6af931a8bbf590da0223dacf75c7b0830180549190961693169290921790935593518051939493610cf9937f6e1540171b6c0c960b71a7020d9f60077f6af931a8bbf590da0223dacf75c7b1019291909101906110ba565b506060820151816003015550505b6001600160a01b0383166000908152600a602052604090205415610d2d57506000610e66565b610d35611138565b50604080516080810182526001600160a01b038087168252858116602080840191825293830186815242606085015260098054600181018255600091909152845160049091027f6e1540171b6c0c960b71a7020d9f60077f6af931a8bbf590da0223dacf75c7af810180549286166001600160a01b031993841617815593517f6e1540171b6c0c960b71a7020d9f60077f6af931a8bbf590da0223dacf75c7b08201805491909616921691909117909355518051939485949293610e21937f6e1540171b6c0c960b71a7020d9f60077f6af931a8bbf590da0223dacf75c7b190910192909101906110ba565b506060919091015160039091015550506009546001600160a01b038084166000908152600a602090815260408083208590559287168252600b90522081905560088190555b9392505050565b6000546001600160a01b03163314610e8457600080fd5b816001600160a01b031663f2fde38b826040518263ffffffff1660e01b815260040180826001600160a01b03166001600160a01b03168152602001915050600060405180830381600087803b158015610edc57600080fd5b505af1158015610ef0573d6000803e3d6000fd5b505050505050565b6001600160a01b0381166000908152600b6020526040812054819015610b6a5750506001600160a01b0381166000908152600b6020526040902054600190610b71565b600c6020526000908152604090205460ff1681565b6007546001600160a01b031681565b6003546001600160a01b031681565b6001600160a01b0381166000908152600a602052604081205481906060908290610770816107ea565b6000546001600160a01b03163314610fae57600080fd5b6001600160a01b038116610fc157600080fd5b600680546001600160a01b0319166001600160a01b0392909216919091179055565b600b6020526000908152604090205481565b6000546001600160a01b0316331461100c57600080fd5b6001600160a01b03811661101f57600080fd5b600380546001600160a01b0319166001600160a01b0392909216919091179055565b6002546001600160a01b031681565b6000546001600160a01b031633148061107357506001546001600160a01b031633145b61107c57600080fd5b6001600160a01b038116156109e057600080546001600160a01b0383166001600160a01b031990911617905550565b6001546001600160a01b031681565b828054600181600116156101000203166002900490600052602060002090601f016020900481019282601f106110fb57805160ff1916838001178555611128565b82800160010185558215611128579182015b8281111561112857825182559160200191906001019061110d565b50611134929150611172565b5090565b604051806080016040528060006001600160a01b0316815260200160006001600160a01b0316815260200160608152602001600081525090565b6106e991905b80821115611134576000815560010161117856fe6c61796572206f72206f70657261746f72206973207a65726f206164647265737320a2646970667358221220460a2ae3f53bf2c454ad8d0d0606c4e3dc8114fa7005bfc23f7c6aca6805ae9b64736f6c63430006020033",
  "source": "// SPDX-License-Identifier: MIT\npragma solidity ^0.6.0;\n\nimport \"../shared/OwnableAdmin.sol\";\nimport { CommitteeL2 } from \"./CommitteeL2.sol\";\nimport { SafeMath } from \"../../node_modules/@openzeppelin/contracts/math/SafeMath.sol\";\nimport { IERC20 } from  \"../../node_modules/@openzeppelin/contracts/token/ERC20/IERC20.sol\";\n\ncontract DAOElectionStore is OwnableAdmin{\n    using SafeMath for uint256;   \n    \n    address public daoCommittee ;   \n    address public layer2Registry ;  \n    address public depositManager ;  \n    address public seigManager ; \n    address public committeeL2Factory ;  \n    \n    address public ton ; \n    uint256 public numLayer2s; \n    Layer[] public layer2s; \n\n    mapping (address => uint256) public layer2Id; \n    mapping (address => uint256) public layer2IdByLayer; \n    mapping (address => bool) public layer2Valid; \n    \n    struct Layer {\n        address layer2;\n        address operator;\n        string name;\n        uint since; \n    }\n    \n    constructor(address _ton) public { \n        ton = _ton;\n    }  \n   \n    \n    function existLayerByOperator(address _operator) public view returns (bool exist , uint256 _layerId ){\n       if( layer2Id[_operator] > 0 ) return (true,layer2Id[_operator]);\n       else return (false,0); \n    } \n    \n    function existLayerByLayer(address _layer) public view returns (bool exist , uint256 _layerId){\n       if( layer2IdByLayer[_layer] > 0 ) return (true,layer2IdByLayer[_layer]);\n       else return (false,0); \n    } \n    \n    function registerLayer2(address _layer, address _operator, string memory _name) onlyOwner public returns (uint256 ) {\n        \n        require( _layer!=address(0) && _operator!=address(0) ,'layer or operator is zero address ');\n        if( layer2s.length == 0 ) layer2s.push( Layer(address(0),address(0), '', now) );\n        \n        if(layer2Id[_operator] !=0 ) { \n            return 0;\n            \n        } else{ \n            Layer memory la = Layer(_layer,_operator, _name, now);\n            layer2s.push(la);  \n            uint256 layerIndex = layer2s.length;\n            layer2Id[_operator] = layerIndex; \n            layer2IdByLayer[_layer] = layerIndex; \n            numLayer2s = layer2s.length;\n            \n            return layerIndex;\n        }\n        \n    }  \n    \n    \n    function setDaoCommittee(address _daoCommittee)  onlyOwner public {\n        require(_daoCommittee != address(0)); \n        daoCommittee = _daoCommittee;\n    }  \n    \n    function seLayer2Registry(address _layer2Registry)  onlyOwner public {\n        require(_layer2Registry != address(0)); \n        layer2Registry = _layer2Registry;\n    }  \n    \n    function setDepositManager(address _depositManager)  onlyOwner public {\n        require(_depositManager != address(0)); \n        depositManager = _depositManager;\n    }  \n    \n    function setSeigManager(address _seigManager)  onlyOwner public {\n        require(_seigManager != address(0)); \n        seigManager = _seigManager;\n    }  \n    \n    function setCommitteeL2Factory(address _committeeL2Factory)  onlyOwner public {\n        require(_committeeL2Factory != address(0)); \n        committeeL2Factory = _committeeL2Factory;\n    }   \n\n    function getTON() public view returns (address) { return ton;}\n    function getDaoCommittee() public view returns (address) { return daoCommittee;}\n    function getLayer2Registry() public view returns (address) { return layer2Registry;}\n    \n    function getDepositManager() public view returns (address) { return depositManager;}\n    function getSeigManager() public view returns (address) { return seigManager;}\n    function getCommitteeL2Factory() public view returns (address) { return committeeL2Factory;}\n    \n    function getNumLayer2s() public view returns (uint256 ){ return numLayer2s; }\n    \n    \n    function detailedLayer2s(uint256 _index) public view returns (address layer2,address operator, string memory name, uint since){ \n        require(_index < numLayer2s ,'invalid _index' );  \n        return ( layer2s[_index].layer2 , layer2s[_index].operator ,  layer2s[_index].name ,  layer2s[_index].since );\n    }\n    \n    function detailedLayer2sByOperator(address _operator) public view returns (address layer2,address operator, string memory name, uint since){ \n        \n        uint256 _index = layer2Id[_operator];\n        return detailedLayer2s(  _index);  \n    }\n    function detailedLayer2sByLayer(address _layer) public view returns (address layer2,address operator, string memory name, uint since){ \n        \n        uint256 _index = layer2IdByLayer[_layer];\n        return detailedLayer2s(  _index);  \n    }\n     \n}",
  "sourcePath": "/Users/zena/plasmawork/tokamak-dao-contracts/contracts/dao/DAOElectionStore.sol",
  "compiler": {
    "name": "solc",
    "version": "0.6.2+commit.bacdbe57.Emscripten.clang"
  },
  "schemaVersion": "3.3.2",
  "updatedAt": "2020-12-17T03:40:16.553Z",
  "devdoc": {
    "methods": {}
  },
  "userdoc": {
    "methods": {}
  }
}