{
  "contractName": "DAOVault",
  "abi": [
    {
      "inputs": [
        {
          "internalType": "address",
          "name": "_ton",
          "type": "address"
        }
      ],
      "stateMutability": "nonpayable",
      "type": "constructor"
    },
    {
      "anonymous": false,
      "inputs": [
        {
          "indexed": false,
          "internalType": "address",
          "name": "from",
          "type": "address"
        },
        {
          "indexed": false,
          "internalType": "uint256",
          "name": "amount",
          "type": "uint256"
        },
        {
          "indexed": false,
          "internalType": "bool",
          "name": "result",
          "type": "bool"
        }
      ],
      "name": "TransferActivityFeeManager",
      "type": "event"
    },
    {
      "anonymous": false,
      "inputs": [
        {
          "indexed": false,
          "internalType": "address",
          "name": "from",
          "type": "address"
        },
        {
          "indexed": false,
          "internalType": "uint256",
          "name": "amount",
          "type": "uint256"
        }
      ],
      "name": "TransferCommittee",
      "type": "event"
    },
    {
      "anonymous": false,
      "inputs": [
        {
          "indexed": false,
          "internalType": "address",
          "name": "token",
          "type": "address"
        },
        {
          "indexed": false,
          "internalType": "address",
          "name": "from",
          "type": "address"
        },
        {
          "indexed": false,
          "internalType": "uint256",
          "name": "amount",
          "type": "uint256"
        }
      ],
      "name": "TransferErc20",
      "type": "event"
    },
    {
      "inputs": [],
      "name": "daoActivityFeeManager",
      "outputs": [
        {
          "internalType": "address",
          "name": "",
          "type": "address"
        }
      ],
      "stateMutability": "view",
      "type": "function"
    },
    {
      "inputs": [],
      "name": "daoCommittee",
      "outputs": [
        {
          "internalType": "address",
          "name": "",
          "type": "address"
        }
      ],
      "stateMutability": "view",
      "type": "function"
    },
    {
      "inputs": [],
      "name": "owner",
      "outputs": [
        {
          "internalType": "address",
          "name": "",
          "type": "address"
        }
      ],
      "stateMutability": "view",
      "type": "function"
    },
    {
      "inputs": [],
      "name": "ton",
      "outputs": [
        {
          "internalType": "address",
          "name": "",
          "type": "address"
        }
      ],
      "stateMutability": "view",
      "type": "function"
    },
    {
      "inputs": [
        {
          "internalType": "address",
          "name": "newOwner",
          "type": "address"
        }
      ],
      "name": "transferOwnership",
      "outputs": [],
      "stateMutability": "nonpayable",
      "type": "function"
    },
    {
      "inputs": [
        {
          "internalType": "address",
          "name": "_addr",
          "type": "address"
        }
      ],
      "name": "setDaoCommittee",
      "outputs": [],
      "stateMutability": "nonpayable",
      "type": "function"
    },
    {
      "inputs": [
        {
          "internalType": "address",
          "name": "_addr",
          "type": "address"
        }
      ],
      "name": "setDAOActivityFeeManager",
      "outputs": [],
      "stateMutability": "nonpayable",
      "type": "function"
    },
    {
      "inputs": [
        {
          "internalType": "uint256",
          "name": "amount",
          "type": "uint256"
        }
      ],
      "name": "approveTonDao",
      "outputs": [],
      "stateMutability": "nonpayable",
      "type": "function"
    },
    {
      "inputs": [
        {
          "internalType": "uint256",
          "name": "amount",
          "type": "uint256"
        }
      ],
      "name": "approveTonDaoCommittee",
      "outputs": [],
      "stateMutability": "nonpayable",
      "type": "function"
    },
    {
      "inputs": [
        {
          "internalType": "uint256",
          "name": "amount",
          "type": "uint256"
        }
      ],
      "name": "approveTonDAOActivityFeeManager",
      "outputs": [],
      "stateMutability": "nonpayable",
      "type": "function"
    },
    {
      "inputs": [
        {
          "internalType": "address",
          "name": "to",
          "type": "address"
        },
        {
          "internalType": "uint256",
          "name": "amount",
          "type": "uint256"
        }
      ],
      "name": "approveTon",
      "outputs": [],
      "stateMutability": "nonpayable",
      "type": "function"
    },
    {
      "inputs": [
        {
          "internalType": "address",
          "name": "committee",
          "type": "address"
        },
        {
          "internalType": "uint256",
          "name": "amount",
          "type": "uint256"
        }
      ],
      "name": "claimCommittee",
      "outputs": [
        {
          "internalType": "uint256",
          "name": "",
          "type": "uint256"
        }
      ],
      "stateMutability": "nonpayable",
      "type": "function"
    },
    {
      "inputs": [
        {
          "internalType": "address",
          "name": "user",
          "type": "address"
        },
        {
          "internalType": "uint256",
          "name": "amount",
          "type": "uint256"
        }
      ],
      "name": "claimActivityFeeManager",
      "outputs": [
        {
          "internalType": "bool",
          "name": "",
          "type": "bool"
        }
      ],
      "stateMutability": "nonpayable",
      "type": "function"
    },
    {
      "inputs": [
        {
          "internalType": "address",
          "name": "erc20token",
          "type": "address"
        },
        {
          "internalType": "address",
          "name": "to",
          "type": "address"
        },
        {
          "internalType": "uint256",
          "name": "amount",
          "type": "uint256"
        }
      ],
      "name": "transfer",
      "outputs": [],
      "stateMutability": "nonpayable",
      "type": "function"
    }
  ],
  "bytecode": "0x608060405234801561001057600080fd5b50604051610b17380380610b178339818101604052602081101561003357600080fd5b5051600080546001600160a01b03199081163317909155600180546001600160a01b0390931692909116919091179055610aa5806100726000396000f3fe608060405234801561001057600080fd5b50600436106100ea5760003560e01c8063c66ac07e1161008c578063ee3cad8111610066578063ee3cad811461026e578063eeac94311461028b578063efd0541714610293578063f2fde38b146102b0576100ea565b8063c66ac07e146101e8578063ca6594ff14610226578063cc48b94714610266576100ea565b8063834abb61116100c8578063834abb61146101605780638da5cb5b14610186578063a9822d3f146101aa578063beabacc8146101b2576100ea565b80630f56810b146100ef578063302bfa871461010e5780633d71678d1461013a575b600080fd5b61010c6004803603602081101561010557600080fd5b50356102d6565b005b61010c6004803603604081101561012457600080fd5b506001600160a01b03813516906020013561031b565b61010c6004803603602081101561015057600080fd5b50356001600160a01b03166103cd565b61010c6004803603602081101561017657600080fd5b50356001600160a01b0316610406565b61018e61043f565b604080516001600160a01b039092168252519081900360200190f35b61018e61044e565b61010c600480360360608110156101c857600080fd5b506001600160a01b0381358116916020810135909116906040013561045d565b610214600480360360408110156101fe57600080fd5b506001600160a01b038135169060200135610579565b60408051918252519081900360200190f35b6102526004803603604081101561023c57600080fd5b506001600160a01b038135169060200135610752565b604080519115158252519081900360200190f35b61018e610987565b61010c6004803603602081101561028457600080fd5b5035610996565b61018e6109ee565b61010c600480360360208110156102a957600080fd5b50356109fd565b61010c600480360360208110156102c657600080fd5b50356001600160a01b0316610a29565b6000546001600160a01b031633146102ed57600080fd5b6001546001600160a01b031661030257600080fd5b600254610318906001600160a01b03168261031b565b50565b6000546001600160a01b0316331461033257600080fd5b6001546001600160a01b031661034757600080fd5b6001546040805163095ea7b360e01b81526001600160a01b038581166004830152602482018590529151919092169163095ea7b39160448083019260209291908290030181600087803b15801561039d57600080fd5b505af11580156103b1573d6000803e3d6000fd5b505050506040513d60208110156103c757600080fd5b50505050565b6000546001600160a01b031633146103e457600080fd5b600280546001600160a01b0319166001600160a01b0392909216919091179055565b6000546001600160a01b0316331461041d57600080fd5b600380546001600160a01b0319166001600160a01b0392909216919091179055565b6000546001600160a01b031681565b6003546001600160a01b031681565b6000546001600160a01b0316331461047457600080fd5b6001600160a01b0383161580159061048c5750600081115b61049557600080fd5b826001600160a01b031663a9059cbb83836040518363ffffffff1660e01b815260040180836001600160a01b03166001600160a01b0316815260200182815260200192505050602060405180830381600087803b1580156104f557600080fd5b505af1158015610509573d6000803e3d6000fd5b505050506040513d602081101561051f57600080fd5b505161052a57600080fd5b604080516001600160a01b0380861682528416602082015280820183905290517f885659fe89289ab9fe52ee4e1395c6853ca1eb6746529e4a00f980f1eec07bd99181900360600190a1505050565b6001546000906001600160a01b0316158015906105a057506002546001600160a01b031615155b80156105b657506002546001600160a01b031633145b6105fa576040805162461bcd60e51b815260206004820152601060248201526f6e6f742064616f436f6d6d697474656560801b604482015290519081900360640190fd5b600154604080516370a0823160e01b8152306004820152905184926001600160a01b0316916370a08231916024808301926020929190829003018186803b15801561064457600080fd5b505afa158015610658573d6000803e3d6000fd5b505050506040513d602081101561066e57600080fd5b50511161067a57600080fd5b6001546040805163a9059cbb60e01b81526001600160a01b038681166004830152602482018690529151919092169163a9059cbb9160448083019260209291908290030181600087803b1580156106d057600080fd5b505af11580156106e4573d6000803e3d6000fd5b505050506040513d60208110156106fa57600080fd5b505161070557600080fd5b604080516001600160a01b03851681526020810184905281517fd589dbe7f38312ab18d5605a2757796a92ef0e0f82ea955f158cb4464fdd760a929181900390910190a150805b92915050565b6001546000906001600160a01b03161580159061077957506003546001600160a01b031615155b801561078f57506003546001600160a01b031633145b6107e0576040805162461bcd60e51b815260206004820152601960248201527f6e6f742064616f41637469766974794665654d616e6167657200000000000000604482015290519081900360640190fd5b600154604080516370a0823160e01b8152306004820152905184926001600160a01b0316916370a08231916024808301926020929190829003018186803b15801561082a57600080fd5b505afa15801561083e573d6000803e3d6000fd5b505050506040513d602081101561085457600080fd5b50511115610936576001546040805163a9059cbb60e01b81526001600160a01b038681166004830152602482018690529151600093929092169163a9059cbb9160448082019260209290919082900301818787803b1580156108b557600080fd5b505af11580156108c9573d6000803e3d6000fd5b505050506040513d60208110156108df57600080fd5b5051604080516001600160a01b0387168152602081018690528215158183015290519192507f54e08871fd6291b3325c6d12f7a90666d58cac16035caf6969e6c57b14b5844c919081900360600190a1905061074c565b604080516001600160a01b03851681526020810184905260008183015290517f54e08871fd6291b3325c6d12f7a90666d58cac16035caf6969e6c57b14b5844c9181900360600190a150600061074c565b6001546001600160a01b031681565b6000546001600160a01b031633146109ad57600080fd5b6001546001600160a01b03166109c257600080fd5b6002546109d8906001600160a01b03168261031b565b600354610318906001600160a01b03168261031b565b6002546001600160a01b031681565b6000546001600160a01b03163314610a1457600080fd5b6001546001600160a01b03166109d857600080fd5b6000546001600160a01b03163314610a4057600080fd5b6001600160a01b0381161561031857600080546001600160a01b0383166001600160a01b03199091161790555056fea2646970667358221220e956fd3e029975f8c594fcf99ee525eee353d0537d351de384619dff4df6133564736f6c63430006020033",
  "source": "// SPDX-License-Identifier: MIT\npragma solidity ^0.6.0;\n\nimport \"../shared/Ownabled.sol\";\nimport { IDAOCommittee } from \"../interfaces/IDAOCommittee.sol\"; \nimport { IDAOElection } from \"../interfaces/IDAOElection.sol\"; \nimport { IERC20 } from  \"../../node_modules/@openzeppelin/contracts/token/ERC20/IERC20.sol\";\nimport { SafeMath } from \"../../node_modules/@openzeppelin/contracts/math/SafeMath.sol\";\n\ncontract DAOVault is Ownabled {\n    using SafeMath for uint256;\n    \n    address public ton;\n    address public daoCommittee;\n    address public daoActivityFeeManager;\n    \n    \n    //////////////////////////////\n    // Modifiers\n    //////////////////////////////\n    \n    modifier onlyDAOCommittee() {\n      require( ton!=address(0) && daoCommittee!=address(0) && msg.sender == daoCommittee , \"not daoCommittee\");\n      _;\n    }\n    \n    modifier onlyDAOActivityFeeManager() {\n      require( ton!=address(0) && daoActivityFeeManager!=address(0) && msg.sender == daoActivityFeeManager , \"not daoActivityFeeManager\");\n      _;\n    } \n    \n    //////////////////////////////\n    // Events\n    //////////////////////////////\n    \n    event TransferCommittee(address from, uint256 amount);\n    event TransferActivityFeeManager(address from, uint256 amount, bool result); \n    event TransferErc20(address token, address from, uint256 amount); \n\n    constructor(address _ton) public {\n        ton = _ton;\n    } \n    /*\n    function setTON(address _ton) external onlyOwner {\n       ton = _ton; \n    }*/\n    function setDaoCommittee( address _addr ) public onlyOwner {\n      daoCommittee = _addr;  \n    }\n     \n    function setDAOActivityFeeManager( address _addr ) public onlyOwner {\n      daoActivityFeeManager = _addr; \n    }\n\n    function approveTonDao( uint256 amount ) public onlyOwner {\n       require( ton != address(0) ); \n       approveTon(daoCommittee, amount );  \n       approveTon(daoActivityFeeManager, amount ); \n    }\n    \n    function approveTonDaoCommittee( uint256 amount ) public onlyOwner {\n       require( ton != address(0) ); \n       approveTon(daoCommittee, amount ); \n    }\n    \n    function approveTonDAOActivityFeeManager( uint256 amount ) public onlyOwner {\n       require( ton != address(0) ); \n       approveTon(daoActivityFeeManager, amount ); \n    }\n    \n    function approveTon( address to, uint256 amount ) public onlyOwner {\n       require( ton != address(0) ); \n       IERC20(ton).approve(to , amount); \n    }\n    \n    function claimCommittee(address committee, uint256 amount) external onlyDAOCommittee returns (uint256) {\n         \n        require( IERC20(ton).balanceOf(address(this)) > amount ); \n        require( IERC20(ton).transfer(committee,amount) ) ; \n        emit TransferCommittee(committee, amount);\n        return amount;\n    }\n    \n    function claimActivityFeeManager(address user, uint256 amount) external onlyDAOActivityFeeManager returns (bool) {\n        \n        if(IERC20(ton).balanceOf(address(this)) > amount ){\n         \n           bool res = IERC20(ton).transfer(user,amount);\n           emit TransferActivityFeeManager(user, amount, res);\n           return res;\n           \n        }else {\n            \n            emit TransferActivityFeeManager(user, amount, false);\n            return false; \n        }  \n        \n    }\n    \n    function transfer(address erc20token, address to,  uint256 amount) external onlyOwner {\n        require( erc20token != address(0) && amount > 0 ) ;\n        require(IERC20(erc20token).transfer(to,amount));\n        emit TransferErc20(erc20token, to, amount);\n    }\n    \n} ",
  "sourcePath": "/Users/zena/plasmawork/tokamak-dao-contracts/contracts/dao/DAOVault.sol",
  "compiler": {
    "name": "solc",
    "version": "0.6.2+commit.bacdbe57.Emscripten.clang"
  },
  "schemaVersion": "3.3.2",
  "updatedAt": "2020-12-17T03:40:16.557Z",
  "devdoc": {
    "methods": {}
  },
  "userdoc": {
    "methods": {}
  }
}