{
  "contractName": "OwnableAdmin",
  "abi": [
    {
      "inputs": [],
      "stateMutability": "nonpayable",
      "type": "constructor"
    },
    {
      "inputs": [],
      "name": "admin",
      "outputs": [
        {
          "internalType": "address",
          "name": "",
          "type": "address"
        }
      ],
      "stateMutability": "view",
      "type": "function"
    },
    {
      "inputs": [],
      "name": "owner",
      "outputs": [
        {
          "internalType": "address",
          "name": "",
          "type": "address"
        }
      ],
      "stateMutability": "view",
      "type": "function"
    },
    {
      "inputs": [
        {
          "internalType": "address",
          "name": "newOwner",
          "type": "address"
        }
      ],
      "name": "transferOwnership",
      "outputs": [],
      "stateMutability": "nonpayable",
      "type": "function"
    },
    {
      "inputs": [
        {
          "internalType": "address",
          "name": "newAdmin",
          "type": "address"
        }
      ],
      "name": "transferAdmin",
      "outputs": [],
      "stateMutability": "nonpayable",
      "type": "function"
    },
    {
      "inputs": [
        {
          "internalType": "address",
          "name": "target",
          "type": "address"
        },
        {
          "internalType": "address",
          "name": "newOwner",
          "type": "address"
        }
      ],
      "name": "transfertargetOwnership",
      "outputs": [],
      "stateMutability": "nonpayable",
      "type": "function"
    }
  ],
  "bytecode": "0x608060405234801561001057600080fd5b5060008054336001600160a01b0319918216811783556001805490921617905561028390819061004090396000f3fe608060405234801561001057600080fd5b50600436106100575760003560e01c806375829def1461005c5780638da5cb5b14610084578063becc24c7146100a8578063f2fde38b146100d6578063f851a440146100fc575b600080fd5b6100826004803603602081101561007257600080fd5b50356001600160a01b0316610104565b005b61008c610149565b604080516001600160a01b039092168252519081900360200190f35b610082600480360360408110156100be57600080fd5b506001600160a01b0381358116916020013516610158565b610082600480360360208110156100ec57600080fd5b50356001600160a01b03166101e3565b61008c61023e565b6001546001600160a01b0316331461011b57600080fd5b6001600160a01b0381161561014657600180546001600160a01b0319166001600160a01b0383161790555b50565b6000546001600160a01b031681565b6000546001600160a01b0316331461016f57600080fd5b816001600160a01b031663f2fde38b826040518263ffffffff1660e01b815260040180826001600160a01b03166001600160a01b03168152602001915050600060405180830381600087803b1580156101c757600080fd5b505af11580156101db573d6000803e3d6000fd5b505050505050565b6000546001600160a01b031633148061020657506001546001600160a01b031633145b61020f57600080fd5b6001600160a01b0381161561014657600080546001600160a01b0383166001600160a01b031990911617905550565b6001546001600160a01b03168156fea2646970667358221220f65973222847603131591fdcb80b82922d368d8fc8517600e6353943a9c753c464736f6c63430006020033",
  "source": "// SPDX-License-Identifier: MIT\npragma solidity ^0.6.0;\n\ninterface OwnableTarget {\n  function renounceOwnership() external;\n  function transferOwnership(address newOwner) external;\n}\n\ncontract OwnableAdmin {\n    address public owner;\n    address public admin;\n\n    constructor() public {\n        owner = msg.sender;\n        admin = msg.sender;\n    }\n\n    modifier onlyOwner() {\n        require(msg.sender == owner);\n        _;\n    }\n    modifier onlyAdmin() {\n        require(msg.sender == admin);\n        _;\n    }\n    modifier onlyAdminAndOwner() {\n        require(msg.sender == owner || msg.sender == admin );\n        _;\n    }\n    function transferOwnership(address newOwner) public onlyAdminAndOwner {\n        if (newOwner != address(0)) {\n            owner = newOwner;\n        }\n    }\n    function transferAdmin(address newAdmin) public onlyAdmin {\n        if (newAdmin != address(0)) {\n            admin = newAdmin;\n        }\n    }\n    function transfertargetOwnership(address target, address newOwner) public onlyOwner {\n        OwnableTarget(target).transferOwnership(newOwner);\n    }\n}",
  "sourcePath": "/Users/zena/plasmawork/tokamak-dao-contracts/contracts/shared/OwnableAdmin.sol",
  "compiler": {
    "name": "solc",
    "version": "0.6.2+commit.bacdbe57.Emscripten.clang"
  },
  "schemaVersion": "3.3.2",
  "updatedAt": "2020-12-17T03:40:16.578Z",
  "devdoc": {
    "methods": {}
  },
  "userdoc": {
    "methods": {}
  }
}