{
  "contractName": "StorageStateCommittee",
  "abi": [
    {
      "inputs": [],
      "name": "getProxyStore",
      "outputs": [
        {
          "internalType": "address",
          "name": "",
          "type": "address"
        }
      ],
      "stateMutability": "view",
      "type": "function"
    },
    {
      "inputs": [],
      "name": "getProxyAgendamanager",
      "outputs": [
        {
          "internalType": "address",
          "name": "",
          "type": "address"
        }
      ],
      "stateMutability": "view",
      "type": "function"
    },
    {
      "inputs": [],
      "name": "getProxyActivityFeeManager",
      "outputs": [
        {
          "internalType": "address",
          "name": "",
          "type": "address"
        }
      ],
      "stateMutability": "view",
      "type": "function"
    }
  ],
  "bytecode": "0x608060405234801561001057600080fd5b5060d28061001f6000396000f3fe6080604052348015600f57600080fd5b5060043610603c5760003560e01c80632a267cc11460415780632cfd067a146063578063692531cb146069575b600080fd5b6047606f565b604080516001600160a01b039092168252519081900360200190f35b6047607e565b6047608d565b6002546001600160a01b031690565b6000546001600160a01b031690565b6001546001600160a01b03169056fea2646970667358221220c52b90a56fffcd649e4ed35dfe1528e6892e34b5f10d98931272f124a7e4d9d864736f6c63430006020033",
  "source": "// SPDX-License-Identifier: MIT\npragma solidity ^0.6.0;\n\nimport \"./DAOCommitteeStore.sol\"; \nimport { IDAOAgendamanager } from \"../interfaces/IDAOAgendamanager.sol\"; \nimport { IDAOActivityFeeManager } from \"../interfaces/IDAOActivityFeeManager.sol\"; \n\n\ncontract StorageStateCommittee {\n    DAOCommitteeStore  store; \n    IDAOAgendamanager agendaManager ;\n    IDAOActivityFeeManager activityfeeManager; \n    \n    struct Ratio {\n        uint256 numerator;\n        uint256 denominator;\n    }\n    \n    struct ActivityFee {\n        uint256 total;\n        uint256 remain;\n        uint256 claim;\n    }\n    \n    // times    creationDate  expirationTime execTime\n    // counting abstainVotes yesVotes noVotes\n    struct Agenda {\n        address creator;\n        AgendaStatus status;\n        AgendaResult result;\n        AgendaGroup group;\n        bool executed;\n        uint[3] times; \n        uint256[3] counting;\n        address target;\n        bytes functionBytecode;\n        string description;\n        address[] voters;  \n        mapping(address => Voter) voterInfo;   \n    }\n    \n    struct Voter {\n        bool hasVoted;\n        uint vote;\n        bool claim;\n    } \n    \n    struct Member {\n        address member;\n        string name;\n        uint memberSince;\n        uint256 castingcount;\n    } \n    \n    enum VoteChoice { ABSTAIN, YES, NO }\n    enum AgendaStatus { NOTICE, VOTING, EXEC, ENDED }\n    enum AgendaResult { UNDEFINED, ACCEPT, REJECT, DISMISS }\n    enum AgendaGroup { DAOVault, TON, PowerTON, SeigManager, Others }\n    \n    modifier validStore() {\n        require(address(store) != address(0)); \n        _;\n    }  \n    \n    modifier validAgendaManager() {\n        require(address(agendaManager) != address(0)); \n        _;\n    }  \n    \n    modifier validActivityfeeManager() {\n        require(address(activityfeeManager) != address(0)); \n        _;\n    }  \n\n    function getProxyStore() public view returns( address ) { return address(store); }\n    function getProxyAgendamanager() public view  returns( address ) { return address(agendaManager); }\n    function getProxyActivityFeeManager() public view returns( address ) { return address(activityfeeManager); }\n\n}",
  "sourcePath": "/Users/zena/plasmawork/tokamak-dao-contracts/contracts/dao/StorageStateCommittee.sol",
  "compiler": {
    "name": "solc",
    "version": "0.6.2+commit.bacdbe57.Emscripten.clang"
  },
  "schemaVersion": "3.3.2",
  "updatedAt": "2020-12-17T03:40:16.560Z",
  "devdoc": {
    "methods": {}
  },
  "userdoc": {
    "methods": {}
  }
}