{
  "contractName": "StorageStateElection",
  "abi": [
    {
      "inputs": [],
      "name": "getProxyStore",
      "outputs": [
        {
          "internalType": "address",
          "name": "",
          "type": "address"
        }
      ],
      "stateMutability": "view",
      "type": "function"
    },
    {
      "inputs": [],
      "name": "getProxySeigManager",
      "outputs": [
        {
          "internalType": "address",
          "name": "",
          "type": "address"
        }
      ],
      "stateMutability": "view",
      "type": "function"
    },
    {
      "inputs": [],
      "name": "getProxyLayer2Registry",
      "outputs": [
        {
          "internalType": "address",
          "name": "",
          "type": "address"
        }
      ],
      "stateMutability": "view",
      "type": "function"
    },
    {
      "inputs": [],
      "name": "getProxyCommitteeL2Factory",
      "outputs": [
        {
          "internalType": "address",
          "name": "",
          "type": "address"
        }
      ],
      "stateMutability": "view",
      "type": "function"
    },
    {
      "inputs": [],
      "name": "getProxyDAOCommittee",
      "outputs": [
        {
          "internalType": "address",
          "name": "",
          "type": "address"
        }
      ],
      "stateMutability": "view",
      "type": "function"
    }
  ],
  "bytecode": "0x608060405234801561001057600080fd5b50610110806100206000396000f3fe6080604052348015600f57600080fd5b506004361060505760003560e01c80632cfd067a146055578063b6519cd0146077578063bddd2fb114607d578063efe306ff146083578063f3e0b9c4146089575b600080fd5b605b608f565b604080516001600160a01b039092168252519081900360200190f35b605b609e565b605b60ad565b605b60bc565b605b60cb565b6000546001600160a01b031690565b6004546001600160a01b031690565b6002546001600160a01b031690565b6003546001600160a01b031690565b6001546001600160a01b03169056fea2646970667358221220e017d3796767fa6a11c430e429b3143dea3c2fc9e3ef2fc6041585d84b7d0af264736f6c63430006020033",
  "source": "// SPDX-License-Identifier: MIT\npragma solidity ^0.6.0;\n\nimport \"./DAOElectionStore.sol\"; \nimport { IDAOCommittee } from \"../interfaces/IDAOCommittee.sol\"; \nimport { CommitteeL2FactoryI } from \"../interfaces/CommitteeL2FactoryI.sol\"; \nimport { Layer2RegistryI } from \"../interfaces/Layer2RegistryI.sol\"; \nimport { SeigManagerI } from \"../interfaces/SeigManagerI.sol\"; \n\n\ncontract StorageStateElection {\n    DAOElectionStore  store;\n    IDAOCommittee daoCommittee ;\n    CommitteeL2FactoryI committeeL2Factory;\n    Layer2RegistryI layer2Registry;\n    SeigManagerI seigManager;\n    \n    struct Ratio {\n        uint256 numerator;\n        uint256 denominator;\n    }\n    \n    modifier validStore() {\n        require(address(store) != address(0)); \n        _;\n    }\n    modifier validDAOCommittee() {\n        require(address(daoCommittee) != address(0),'unvalid DAOCommittee'); \n        _;\n    }\n    modifier validCommitteeL2Factory() {\n        require(address(committeeL2Factory) != address(0),'unvalid CommitteeL2Factory'); \n        _;\n    }\n    modifier validLayer2Registry() {\n        require(address(layer2Registry) != address(0),'unvalid Layer2Registry'); \n        _;\n    }\n    modifier validSeigManager() {\n        require(address(seigManager) != address(0),'unvalid SeigManagere'); \n        _;\n    }\n\n\n    function getProxyStore() public view  returns (address) { return address(store); }\n    function getProxySeigManager () public view  returns (address){ return address(seigManager); }\n    function getProxyLayer2Registry() public view  returns (address){ return address(layer2Registry); }\n    function getProxyCommitteeL2Factory() public view  returns (address){ return address(committeeL2Factory); }\n    function getProxyDAOCommittee() public view  returns (address){ return address(daoCommittee); }\n \n}",
  "sourcePath": "/Users/zena/plasmawork/tokamak-dao-contracts/contracts/dao/StorageStateElection.sol",
  "compiler": {
    "name": "solc",
    "version": "0.6.2+commit.bacdbe57.Emscripten.clang"
  },
  "schemaVersion": "3.3.2",
  "updatedAt": "2020-12-17T03:40:16.562Z",
  "devdoc": {
    "methods": {}
  },
  "userdoc": {
    "methods": {}
  }
}