{
  "contractName": "CandidateFactory",
  "abi": [
    {
      "inputs": [
        {
          "internalType": "address",
          "name": "_candidate",
          "type": "address"
        },
        {
          "internalType": "string",
          "name": "_name",
          "type": "string"
        },
        {
          "internalType": "address",
          "name": "_seigManager",
          "type": "address"
        },
        {
          "internalType": "address",
          "name": "_layer2registry",
          "type": "address"
        }
      ],
      "name": "deploy",
      "outputs": [
        {
          "internalType": "address",
          "name": "",
          "type": "address"
        }
      ],
      "stateMutability": "nonpayable",
      "type": "function"
    }
  ],
  "bytecode": "0x608060405234801561001057600080fd5b50610ac0806100206000396000f3fe608060405234801561001057600080fd5b506004361061002b5760003560e01c806337d5af5f14610030575b600080fd5b6100fc6004803603608081101561004657600080fd5b6001600160a01b03823516919081019060408101602082013564010000000081111561007157600080fd5b82018360208201111561008357600080fd5b803590602001918460018302840111640100000000831117156100a557600080fd5b91908080601f016020809104026020016040519081016040528093929190818152602001838380828437600092019190915250929550506001600160a01b0383358116945060209093013590921691506101189050565b604080516001600160a01b039092168252519081900360200190f35b60008085856040516101299061029a565b6001600160a01b0383168152604060208083018281528451928401929092528351606084019185019080838360005b83811015610170578181015183820152602001610158565b50505050905090810190601f16801561019d5780820380516001836020036101000a031916815260200191505b509350505050604051809103906000f0801580156101bf573d6000803e3d6000fd5b509050806001600160a01b0316637657f20a856040518263ffffffff1660e01b815260040180826001600160a01b03168152602001915050600060405180830381600087803b15801561021157600080fd5b505af1158015610225573d6000803e3d6000fd5b50505050806001600160a01b031663f2fde38b876040518263ffffffff1660e01b815260040180826001600160a01b03168152602001915050600060405180830381600087803b15801561027857600080fd5b505af115801561028c573d6000803e3d6000fd5b509298975050505050505050565b6107e3806102a88339019056fe608060405234801561001057600080fd5b506040516107e33803806107e38339818101604052604081101561003357600080fd5b81516020830180516040519294929383019291908464010000000082111561005a57600080fd5b90830190602082018581111561006f57600080fd5b825164010000000081118282018810171561008957600080fd5b82525081516020918201929091019080838360005b838110156100b657818101518382015260200161009e565b50505050905090810190601f1680156100e35780820380516001836020036101000a031916815260200191505b506040525050600080546001600160a01b031916331790555061010c6301ffc9a760e01b610152565b600280546001600160a01b0319166001600160a01b038416179055805161013a9060049060208401906101d9565b5061014b631dffc87160e21b610152565b505061027a565b6001600160e01b031980821614156101b1576040805162461bcd60e51b815260206004820152601c60248201527f4552433136353a20696e76616c696420696e7465726661636520696400000000604482015290519081900360640190fd5b6001600160e01b0319166000908152600160208190526040909120805460ff19169091179055565b828054600181600116156101000203166002900490600052602060002090601f01602090048101928261020f5760008555610255565b82601f1061022857805160ff1916838001178555610255565b82800160010185558215610255579182015b8281111561025557825182559160200191906001019061023a565b50610261929150610265565b5090565b5b808211156102615760008155600101610266565b61055a806102896000396000f3fe608060405234801561001057600080fd5b50600436106100f55760003560e01c8063764a7856116100975780638da5cb5b116100665780638da5cb5b14610255578063a2b0da541461024d578063b2359b3f1461025d578063f2fde38b14610294576100f5565b8063764a78561461021d5780637657f20a1461022557806377ff21c41461024d578063882eed2c1461024d576100f5565b8063570ca735116100d3578063570ca7351461016c57806358c3b870146101905780636c8381f81461020d5780636fb7f55814610215576100f5565b806301ffc9a7146100fa57806311e4c91414610135578063183d2d1c14610164575b600080fd5b6101216004803603602081101561011057600080fd5b50356001600160e01b0319166102ba565b604080519115158252519081900360200190f35b6101526004803603602081101561014b57600080fd5b50356102d9565b60408051918252519081900360200190f35b6101526102df565b6101746102e4565b604080516001600160a01b039092168252519081900360200190f35b6101986102f3565b6040805160208082528351818301528351919283929083019185019080838360005b838110156101d25781810151838201526020016101ba565b50505050905090810190601f1680156101ff5780820380516001836020036101000a031916815260200191505b509250505060405180910390f35b610174610381565b610174610390565b61012161039f565b61024b6004803603602081101561023b57600080fd5b50356001600160a01b0316610480565b005b6101216102df565b6101746104b9565b6102656104c8565b60405180836001600160a01b03168152602001826001600160a01b031681526020019250505060405180910390f35b61024b600480360360208110156102aa57600080fd5b50356001600160a01b03166104df565b6001600160e01b03191660009081526001602052604090205460ff1690565b50600190565b600190565b6002546001600160a01b031690565b6004805460408051602060026001851615610100026000190190941693909304601f810184900484028201840190925281815292918301828280156103795780601f1061034e57610100808354040283529160200191610379565b820191906000526020600020905b81548152906001019060200180831161035c57829003601f168201915b505050505081565b6002546001600160a01b031681565b6003546001600160a01b031681565b6003546000906001600160a01b03166103ff576040805162461bcd60e51b815260206004820152601e60248201527f43616e6469646174653a20536569674d616e61676572206973207a65726f0000604482015290519081900360640190fd5b600360009054906101000a90046001600160a01b03166001600160a01b031663764a78566040518163ffffffff1660e01b8152600401602060405180830381600087803b15801561044f57600080fd5b505af1158015610463573d6000803e3d6000fd5b505050506040513d602081101561047957600080fd5b5051905090565b6000546001600160a01b0316331461049757600080fd5b600380546001600160a01b0319166001600160a01b0392909216919091179055565b6000546001600160a01b031681565b6002546000546001600160a01b0391821691169091565b6000546001600160a01b031633146104f657600080fd5b6001600160a01b0381161561052157600080546001600160a01b0319166001600160a01b0383161790555b5056fea2646970667358221220a602c93cf3b81d2c8d040cdcdf36417de45f9ecff3c6fe086784d90cc96a7fff64736f6c63430007060033a26469706673582212203ed671abe0d65ffcd4487964ca9c3995db48f6f0fd205de3e725311c96bbcee064736f6c63430007060033",
  "immutableReferences": {},
  "source": "// SPDX-License-Identifier: MIT\npragma solidity ^0.7.6;\n\nimport { Candidate } from \"../dao/Candidate.sol\";\nimport { ICandidateFactory } from \"../interfaces/ICandidateFactory.sol\";\n\ncontract CandidateFactory is ICandidateFactory {\n    // layer2 deploy... make coinages\n    function deploy(address _candidate, string memory _name, address _seigManager, address _layer2registry) public override returns (address) {\n        Candidate c = new Candidate(_candidate, _name);\n        c.setSeigManager(_seigManager);\n        //c.setLayer2Registry(_layer2registry);\n        c.transferOwnership(_candidate);\n        return address(c);\n    }\n}\n",
  "sourcePath": "/data/github/onther/tokamak-dao-contracts3/contracts/factory/CandidateFactory.sol",
  "compiler": {
    "name": "solc",
    "version": "0.7.6+commit.7338295f.Emscripten.clang"
  },
  "schemaVersion": "3.3.2",
  "updatedAt": "2021-01-19T05:03:33.471Z",
  "networkType": "ethereum",
  "devdoc": {
    "kind": "dev",
    "methods": {},
    "version": 1
  },
  "userdoc": {
    "kind": "user",
    "methods": {},
    "version": 1
  }
}