{
  "contractName": "CandidateFactory",
  "abi": [
    {
      "inputs": [
        {
          "internalType": "address",
          "name": "_candidate",
          "type": "address"
        },
        {
          "internalType": "string",
          "name": "_name",
          "type": "string"
        },
        {
          "internalType": "address",
          "name": "_seigManager",
          "type": "address"
        },
        {
          "internalType": "address",
          "name": "_layer2registry",
          "type": "address"
        }
      ],
      "name": "deploy",
      "outputs": [
        {
          "internalType": "address",
          "name": "",
          "type": "address"
        }
      ],
      "stateMutability": "nonpayable",
      "type": "function"
    }
  ],
  "bytecode": "0x608060405234801561001057600080fd5b50610a0c806100206000396000f3fe608060405234801561001057600080fd5b506004361061002b5760003560e01c806337d5af5f14610030575b600080fd5b6100fc6004803603608081101561004657600080fd5b6001600160a01b03823516919081019060408101602082013564010000000081111561007157600080fd5b82018360208201111561008357600080fd5b803590602001918460018302840111640100000000831117156100a557600080fd5b91908080601f016020809104026020016040519081016040528093929190818152602001838380828437600092019190915250929550506001600160a01b0383358116945060209093013590921691506101189050565b604080516001600160a01b039092168252519081900360200190f35b60008085856040516101299061029a565b6001600160a01b0383168152604060208083018281528451928401929092528351606084019185019080838360005b83811015610170578181015183820152602001610158565b50505050905090810190601f16801561019d5780820380516001836020036101000a031916815260200191505b509350505050604051809103906000f0801580156101bf573d6000803e3d6000fd5b509050806001600160a01b0316637657f20a856040518263ffffffff1660e01b815260040180826001600160a01b03168152602001915050600060405180830381600087803b15801561021157600080fd5b505af1158015610225573d6000803e3d6000fd5b50505050806001600160a01b031663f2fde38b876040518263ffffffff1660e01b815260040180826001600160a01b03168152602001915050600060405180830381600087803b15801561027857600080fd5b505af115801561028c573d6000803e3d6000fd5b509298975050505050505050565b61072f806102a88339019056fe608060405234801561001057600080fd5b5060405161072f38038061072f8339818101604052604081101561003357600080fd5b81516020830180516040519294929383019291908464010000000082111561005a57600080fd5b90830190602082018581111561006f57600080fd5b825164010000000081118282018810171561008957600080fd5b82525081516020918201929091019080838360005b838110156100b657818101518382015260200161009e565b50505050905090810190601f1680156100e35780820380516001836020036101000a031916815260200191505b50604052505060008054336001600160a01b031991821617909155600180549091166001600160a01b03851617905550805161012690600390602084019061012e565b5050506101cf565b828054600181600116156101000203166002900490600052602060002090601f01602090048101928261016457600085556101aa565b82601f1061017d57805160ff19168380011785556101aa565b828001600101855582156101aa579182015b828111156101aa57825182559160200191906001019061018f565b506101b69291506101ba565b5090565b5b808211156101b657600081556001016101bb565b610551806101de6000396000f3fe608060405234801561001057600080fd5b50600436106100ea5760003560e01c8063764a78561161008c5780638da5cb5b116100665780638da5cb5b14610249578063a2b0da5414610241578063b2359b3f14610251578063f2fde38b14610288576100ea565b8063764a7856146101ff5780637657f20a1461021b578063882eed2c14610241576100ea565b806358c3b870116100c857806358c3b8701461014a5780635f94f678146101c75780636c8381f8146101ef5780636fb7f558146101f7576100ea565b806311e4c914146100ef578063183d2d1c1461011e578063570ca73514610126575b600080fd5b61010c6004803603602081101561010557600080fd5b50356102ae565b60408051918252519081900360200190f35b61010c6102b4565b61012e6102b9565b604080516001600160a01b039092168252519081900360200190f35b6101526102c8565b6040805160208082528351818301528351919283929083019185019080838360005b8381101561018c578181015183820152602001610174565b50505050905090810190601f1680156101b95780820380516001836020036101000a031916815260200191505b509250505060405180910390f35b6101ed600480360360208110156101dd57600080fd5b50356001600160a01b0316610356565b005b61012e610378565b61012e610387565b610207610396565b604080519115158252519081900360200190f35b6101ed6004803603602081101561023157600080fd5b50356001600160a01b0316610477565b6102076102b4565b61012e6104b0565b6102596104bf565b60405180836001600160a01b03168152602001826001600160a01b031681526020019250505060405180910390f35b6101ed6004803603602081101561029e57600080fd5b50356001600160a01b03166104d6565b50600190565b600190565b6001546001600160a01b031690565b6003805460408051602060026001851615610100026000190190941693909304601f8101849004840282018401909252818152929183018282801561034e5780601f106103235761010080835404028352916020019161034e565b820191906000526020600020905b81548152906001019060200180831161033157829003601f168201915b505050505081565b600180546001600160a01b0319166001600160a01b0392909216919091179055565b6001546001600160a01b031681565b6002546001600160a01b031681565b6002546000906001600160a01b03166103f6576040805162461bcd60e51b815260206004820152601e60248201527f43616e6469646174653a20536569674d616e61676572206973207a65726f0000604482015290519081900360640190fd5b600260009054906101000a90046001600160a01b03166001600160a01b031663764a78566040518163ffffffff1660e01b8152600401602060405180830381600087803b15801561044657600080fd5b505af115801561045a573d6000803e3d6000fd5b505050506040513d602081101561047057600080fd5b5051905090565b6000546001600160a01b0316331461048e57600080fd5b600280546001600160a01b0319166001600160a01b0392909216919091179055565b6000546001600160a01b031681565b6001546000546001600160a01b0391821691169091565b6000546001600160a01b031633146104ed57600080fd5b6001600160a01b0381161561051857600080546001600160a01b0319166001600160a01b0383161790555b5056fea26469706673582212207b42f8e89b245c86a636601781b554f5e893d13332daaaece5a42a201b8adedd64736f6c63430007060033a26469706673582212206fbf485eb6fb91dfcd526d8bde42bf3a3b56220e0d6172d6e298548e4c3513cc64736f6c63430007060033",
  "immutableReferences": {},
  "source": "// SPDX-License-Identifier: MIT\npragma solidity ^0.7.6;\n\nimport { Candidate } from \"../dao/Candidate.sol\";\nimport { ICandidateFactory } from \"../interfaces/ICandidateFactory.sol\";\n\ncontract CandidateFactory is ICandidateFactory {\n    // layer2 deploy... make coinages\n    function deploy(address _candidate, string memory _name, address _seigManager, address _layer2registry) public override returns (address) {\n        Candidate c = new Candidate(_candidate, _name);\n        c.setSeigManager(_seigManager);\n        //c.setLayer2Registry(_layer2registry);\n        c.transferOwnership(_candidate);\n        return address(c);\n    }\n}\n",
  "sourcePath": "/data/github/onther/tokamak-dao-contracts3/contracts/factory/CandidateFactory.sol",
  "compiler": {
    "name": "solc",
    "version": "0.7.6+commit.7338295f.Emscripten.clang"
  },
  "schemaVersion": "3.3.2",
  "updatedAt": "2021-01-10T10:13:10.072Z",
  "devdoc": {
    "kind": "dev",
    "methods": {},
    "version": 1
  },
  "userdoc": {
    "kind": "user",
    "methods": {},
    "version": 1
  }
}