{
  "contractName": "Candidate",
  "abi": [
    {
      "inputs": [
        {
          "internalType": "address",
          "name": "_candidate",
          "type": "address"
        },
        {
          "internalType": "string",
          "name": "_memo",
          "type": "string"
        }
      ],
      "stateMutability": "nonpayable",
      "type": "constructor"
    },
    {
      "inputs": [],
      "name": "candidate",
      "outputs": [
        {
          "internalType": "address",
          "name": "",
          "type": "address"
        }
      ],
      "stateMutability": "view",
      "type": "function"
    },
    {
      "inputs": [],
      "name": "memo",
      "outputs": [
        {
          "internalType": "string",
          "name": "",
          "type": "string"
        }
      ],
      "stateMutability": "view",
      "type": "function"
    },
    {
      "inputs": [],
      "name": "owner",
      "outputs": [
        {
          "internalType": "address",
          "name": "",
          "type": "address"
        }
      ],
      "stateMutability": "view",
      "type": "function"
    },
    {
      "inputs": [],
      "name": "seigManager",
      "outputs": [
        {
          "internalType": "address",
          "name": "",
          "type": "address"
        }
      ],
      "stateMutability": "view",
      "type": "function"
    },
    {
      "inputs": [
        {
          "internalType": "bytes4",
          "name": "interfaceId",
          "type": "bytes4"
        }
      ],
      "name": "supportsInterface",
      "outputs": [
        {
          "internalType": "bool",
          "name": "",
          "type": "bool"
        }
      ],
      "stateMutability": "view",
      "type": "function"
    },
    {
      "inputs": [
        {
          "internalType": "address",
          "name": "newOwner",
          "type": "address"
        }
      ],
      "name": "transferOwnership",
      "outputs": [],
      "stateMutability": "nonpayable",
      "type": "function"
    },
    {
      "inputs": [
        {
          "internalType": "address",
          "name": "_seigMan",
          "type": "address"
        }
      ],
      "name": "setSeigManager",
      "outputs": [],
      "stateMutability": "nonpayable",
      "type": "function"
    },
    {
      "inputs": [],
      "name": "updateSeigniorage",
      "outputs": [
        {
          "internalType": "bool",
          "name": "",
          "type": "bool"
        }
      ],
      "stateMutability": "nonpayable",
      "type": "function"
    },
    {
      "inputs": [],
      "name": "isCommitteeLayer2",
      "outputs": [
        {
          "internalType": "bool",
          "name": "",
          "type": "bool"
        }
      ],
      "stateMutability": "view",
      "type": "function"
    },
    {
      "inputs": [],
      "name": "candidateAndOwner",
      "outputs": [
        {
          "internalType": "address",
          "name": "",
          "type": "address"
        },
        {
          "internalType": "address",
          "name": "",
          "type": "address"
        }
      ],
      "stateMutability": "view",
      "type": "function"
    },
    {
      "inputs": [],
      "name": "isCandidateContract",
      "outputs": [
        {
          "internalType": "bool",
          "name": "",
          "type": "bool"
        }
      ],
      "stateMutability": "view",
      "type": "function"
    },
    {
      "inputs": [],
      "name": "operator",
      "outputs": [
        {
          "internalType": "address",
          "name": "",
          "type": "address"
        }
      ],
      "stateMutability": "view",
      "type": "function"
    },
    {
      "inputs": [],
      "name": "isLayer2",
      "outputs": [
        {
          "internalType": "bool",
          "name": "",
          "type": "bool"
        }
      ],
      "stateMutability": "view",
      "type": "function"
    },
    {
      "inputs": [],
      "name": "currentFork",
      "outputs": [
        {
          "internalType": "uint256",
          "name": "",
          "type": "uint256"
        }
      ],
      "stateMutability": "view",
      "type": "function"
    },
    {
      "inputs": [
        {
          "internalType": "uint256",
          "name": "forkNumber",
          "type": "uint256"
        }
      ],
      "name": "lastEpoch",
      "outputs": [
        {
          "internalType": "uint256",
          "name": "",
          "type": "uint256"
        }
      ],
      "stateMutability": "view",
      "type": "function"
    }
  ],
  "bytecode": "0x608060405234801561001057600080fd5b506040516107e33803806107e38339818101604052604081101561003357600080fd5b81516020830180516040519294929383019291908464010000000082111561005a57600080fd5b90830190602082018581111561006f57600080fd5b825164010000000081118282018810171561008957600080fd5b82525081516020918201929091019080838360005b838110156100b657818101518382015260200161009e565b50505050905090810190601f1680156100e35780820380516001836020036101000a031916815260200191505b506040525050600080546001600160a01b031916331790555061010c6301ffc9a760e01b610152565b600280546001600160a01b0319166001600160a01b038416179055805161013a9060049060208401906101d9565b5061014b631dffc87160e21b610152565b505061027a565b6001600160e01b031980821614156101b1576040805162461bcd60e51b815260206004820152601c60248201527f4552433136353a20696e76616c696420696e7465726661636520696400000000604482015290519081900360640190fd5b6001600160e01b0319166000908152600160208190526040909120805460ff19169091179055565b828054600181600116156101000203166002900490600052602060002090601f01602090048101928261020f5760008555610255565b82601f1061022857805160ff1916838001178555610255565b82800160010185558215610255579182015b8281111561025557825182559160200191906001019061023a565b50610261929150610265565b5090565b5b808211156102615760008155600101610266565b61055a806102896000396000f3fe608060405234801561001057600080fd5b50600436106100f55760003560e01c8063764a7856116100975780638da5cb5b116100665780638da5cb5b14610255578063a2b0da541461024d578063b2359b3f1461025d578063f2fde38b14610294576100f5565b8063764a78561461021d5780637657f20a1461022557806377ff21c41461024d578063882eed2c1461024d576100f5565b8063570ca735116100d3578063570ca7351461016c57806358c3b870146101905780636c8381f81461020d5780636fb7f55814610215576100f5565b806301ffc9a7146100fa57806311e4c91414610135578063183d2d1c14610164575b600080fd5b6101216004803603602081101561011057600080fd5b50356001600160e01b0319166102ba565b604080519115158252519081900360200190f35b6101526004803603602081101561014b57600080fd5b50356102d9565b60408051918252519081900360200190f35b6101526102df565b6101746102e4565b604080516001600160a01b039092168252519081900360200190f35b6101986102f3565b6040805160208082528351818301528351919283929083019185019080838360005b838110156101d25781810151838201526020016101ba565b50505050905090810190601f1680156101ff5780820380516001836020036101000a031916815260200191505b509250505060405180910390f35b610174610381565b610174610390565b61012161039f565b61024b6004803603602081101561023b57600080fd5b50356001600160a01b0316610480565b005b6101216102df565b6101746104b9565b6102656104c8565b60405180836001600160a01b03168152602001826001600160a01b031681526020019250505060405180910390f35b61024b600480360360208110156102aa57600080fd5b50356001600160a01b03166104df565b6001600160e01b03191660009081526001602052604090205460ff1690565b50600190565b600190565b6002546001600160a01b031690565b6004805460408051602060026001851615610100026000190190941693909304601f810184900484028201840190925281815292918301828280156103795780601f1061034e57610100808354040283529160200191610379565b820191906000526020600020905b81548152906001019060200180831161035c57829003601f168201915b505050505081565b6002546001600160a01b031681565b6003546001600160a01b031681565b6003546000906001600160a01b03166103ff576040805162461bcd60e51b815260206004820152601e60248201527f43616e6469646174653a20536569674d616e61676572206973207a65726f0000604482015290519081900360640190fd5b600360009054906101000a90046001600160a01b03166001600160a01b031663764a78566040518163ffffffff1660e01b8152600401602060405180830381600087803b15801561044f57600080fd5b505af1158015610463573d6000803e3d6000fd5b505050506040513d602081101561047957600080fd5b5051905090565b6000546001600160a01b0316331461049757600080fd5b600380546001600160a01b0319166001600160a01b0392909216919091179055565b6000546001600160a01b031681565b6002546000546001600160a01b0391821691169091565b6000546001600160a01b031633146104f657600080fd5b6001600160a01b0381161561052157600080546001600160a01b0319166001600160a01b0383161790555b5056fea2646970667358221220a602c93cf3b81d2c8d040cdcdf36417de45f9ecff3c6fe086784d90cc96a7fff64736f6c63430007060033",
  "immutableReferences": {},
  "source": "// SPDX-License-Identifier: MIT\npragma solidity ^0.7.6;\n\nimport \"../shared/Ownabled.sol\";\n\nimport { IDAOCommittee } from \"../interfaces/IDAOCommittee.sol\";\nimport { IERC20 } from  \"../../node_modules/@openzeppelin/contracts/token/ERC20/IERC20.sol\";\nimport { SafeMath } from \"../../node_modules/@openzeppelin/contracts/math/SafeMath.sol\";\nimport { ISeigManager } from \"../interfaces/ISeigManager.sol\";\nimport { ICandidate } from \"../interfaces/ICandidate.sol\";\nimport { ILayer2Registry } from \"../interfaces/ILayer2Registry.sol\";\nimport { ERC165 } from \"../../node_modules/@openzeppelin/contracts/introspection/ERC165.sol\";\n\ncontract Candidate is Ownabled, ICandidate, ERC165 {\n    using SafeMath for uint256;\n    address public candidate;\n    address public seigManager;\n    string public memo;\n    \n    constructor(address _candidate, string memory _memo) {\n        candidate = _candidate;\n        memo = _memo;\n\n        _registerInterface(ICandidate(address(this)).isCandidateContract.selector);\n    }\n    \n    function setSeigManager(address _seigMan) public onlyOwner override {\n        seigManager =_seigMan;\n    }\n\n    function updateSeigniorage() public override returns (bool) {\n        require(seigManager != address(0), \"Candidate: SeigManager is zero\");\n        return ISeigManager(seigManager).updateSeigniorage();\n    }\n    \n    function isCommitteeLayer2() public override view returns (bool) {\n        return true;\n    }\n\n    function candidateAndOwner() public override view returns (address, address) {\n        return (candidate, owner);\n    }\n\n    function isCandidateContract() public override view returns (bool) {\n        return true;\n    }\n\n    function operator() public view returns (address) { return candidate; }\n    function isLayer2() public view returns (bool) { return true; }\n    function currentFork() public view returns (uint) { return 1; }\n    function lastEpoch(uint forkNumber) public view returns (uint) { return 1; }\n    /*function changeCandidate(address _candidate) public {\n        candidate = _candidate;\n    }*/\n}\n",
  "sourcePath": "/data/github/onther/tokamak-dao-contracts3/contracts/dao/Candidate.sol",
  "compiler": {
    "name": "solc",
    "version": "0.7.6+commit.7338295f.Emscripten.clang"
  },
  "schemaVersion": "3.3.2",
  "updatedAt": "2021-01-12T01:26:21.470Z",
  "devdoc": {
    "kind": "dev",
    "methods": {
      "supportsInterface(bytes4)": {
        "details": "See {IERC165-supportsInterface}. Time complexity O(1), guaranteed to always use less than 30 000 gas."
      }
    },
    "version": 1
  },
  "userdoc": {
    "kind": "user",
    "methods": {},
    "version": 1
  }
}