{
  "contractName": "CandidateFactory",
  "abi": [
    {
      "inputs": [
        {
          "internalType": "address",
          "name": "_candidate",
          "type": "address"
        },
        {
          "internalType": "bool",
          "name": "_isLayer2Candidate",
          "type": "bool"
        },
        {
          "internalType": "string",
          "name": "_name",
          "type": "string"
        },
        {
          "internalType": "address",
          "name": "_committee",
          "type": "address"
        },
        {
          "internalType": "address",
          "name": "_seigManager",
          "type": "address"
        }
      ],
      "name": "deploy",
      "outputs": [
        {
          "internalType": "address",
          "name": "",
          "type": "address"
        }
      ],
      "stateMutability": "nonpayable",
      "type": "function"
    }
  ],
  "bytecode": "0x608060405234801561001057600080fd5b50611cf4806100206000396000f3fe608060405234801561001057600080fd5b506004361061002b5760003560e01c8063e64a31f614610030575b600080fd5b610103600480360360a081101561004657600080fd5b6001600160a01b0382351691602081013515159181019060608101604082013564010000000081111561007857600080fd5b82018360208201111561008a57600080fd5b803590602001918460018302840111640100000000831117156100ac57600080fd5b91908080601f016020809104026020016040519081016040528093929190818152602001838380828437600092019190915250929550506001600160a01b03833581169450602090930135909216915061011f9050565b604080516001600160a01b039092168252519081900360200190f35b600080868686868660405161013390610269565b80866001600160a01b03168152602001851515815260200180602001846001600160a01b03168152602001836001600160a01b03168152602001828103825285818151815260200191508051906020019080838360005b838110156101a257818101518382015260200161018a565b50505050905090810190601f1680156101cf5780820380516001836020036101000a031916815260200191505b509650505050505050604051809103906000f0801580156101f4573d6000803e3d6000fd5b509050806001600160a01b031663f2fde38b856040518263ffffffff1660e01b815260040180826001600160a01b03168152602001915050600060405180830381600087803b15801561024657600080fd5b505af115801561025a573d6000803e3d6000fd5b50929998505050505050505050565b611a48806102778339019056fe60806040523480156200001157600080fd5b5060405162001a4838038062001a48833981810160405260a08110156200003757600080fd5b815160208301516040808501805191519395929483019291846401000000008211156200006357600080fd5b9083019060208201858111156200007957600080fd5b82516401000000008111828201881017156200009457600080fd5b82525081516020918201929091019080838360005b83811015620000c3578181015183820152602001620000a9565b50505050905090810190601f168015620000f15780820380516001836020036101000a031916815260200191505b50604090815260208201519101519092509050600062000110620002bc565b600080546001600160a01b0319166001600160a01b0383169081178255604051929350917f8be0079c531659141344cd1fd0a4f28419497f9722a3daafe3b4186f6b6457e0908290a3506200016c6301ffc9a760e01b620002c0565b60028054610100600160a81b0319166101006001600160a01b038816021760ff1916851515179081905560ff16156200025957600260019054906101000a90046001600160a01b03166001600160a01b031663882eed2c6040518163ffffffff1660e01b815260040160206040518083038186803b158015620001ee57600080fd5b505afa15801562000203573d6000803e3d6000fd5b505050506040513d60208110156200021a57600080fd5b5051620002595760405162461bcd60e51b815260040180806020018281038252602281526020018062001a266022913960400191505060405180910390fd5b600480546001600160a01b038085166001600160a01b031992831617909255600580549284169290911691909117905582516200029e90600390602086019062000348565b50620002b1631dffc87160e21b620002c0565b5050505050620003f4565b3390565b6001600160e01b0319808216141562000320576040805162461bcd60e51b815260206004820152601c60248201527f4552433136353a20696e76616c696420696e7465726661636520696400000000604482015290519081900360640190fd5b6001600160e01b0319166000908152600160208190526040909120805460ff19169091179055565b828054600181600116156101000203166002900490600052602060002090601f016020900481019282620003805760008555620003cb565b82601f106200039b57805160ff1916838001178555620003cb565b82800160010185558215620003cb579182015b82811115620003cb578251825591602001919060010190620003ae565b50620003d9929150620003dd565b5090565b5b80821115620003d95760008155600101620003de565b61162280620004046000396000f3fe608060405234801561001057600080fd5b506004361061014d5760003560e01c8063764a7856116100c35780638da5cb5b1161007c5780638da5cb5b146103ce578063af500ba3146103d6578063bddae40e146103fc578063c4ef9c0014610422578063d864e7401461042a578063f2fde38b146104325761014d565b8063764a7856146103885780637657f20a1461039057806377ff21c4146103b6578063817b1cd2146103be578063882eed2c146103b65780638bf7a3ab146103c65761014d565b806325d608611161011557806325d608611461025f578063570ca735146102cf57806358c3b870146102f35780636c8381f8146103705780636fb7f55814610378578063715018a6146103805761014d565b806301ffc9a71461015257806311e4c9141461018d57806311f19e04146101bc578063183d2d1c146101d957806324f99b1e146101e1575b600080fd5b6101796004803603602081101561016857600080fd5b50356001600160e01b031916610458565b604080519115158252519081900360200190f35b6101aa600480360360208110156101a357600080fd5b5035610477565b60408051918252519081900360200190f35b610179600480360360208110156101d257600080fd5b503561047d565b6101aa61062b565b61025d600480360360608110156101f757600080fd5b81359160208101359181019060608101604082013564010000000081111561021e57600080fd5b82018360208201111561023057600080fd5b8035906020019184600183028401116401000000008311171561025257600080fd5b509092509050610630565b005b61025d6004803603602081101561027557600080fd5b81019060208101813564010000000081111561029057600080fd5b8201836020820111156102a257600080fd5b803590602001918460018302840111640100000000831117156102c457600080fd5b509092509050610805565b6102d76109c9565b604080516001600160a01b039092168252519081900360200190f35b6102fb6109dd565b6040805160208082528351818301528351919283929083019185019080838360005b8381101561033557818101518382015260200161031d565b50505050905090810190601f1680156103625780820380516001836020036101000a031916815260200191505b509250505060405180910390f35b6102d7610a6b565b6102d7610a7f565b61025d610a8e565b610179610b30565b61025d600480360360208110156103a657600080fd5b50356001600160a01b0316610c53565b61017961062b565b6101aa610ccd565b61025d610da0565b6102d7610ff5565b6101aa600480360360208110156103ec57600080fd5b50356001600160a01b0316611004565b61025d6004803603602081101561041257600080fd5b50356001600160a01b03166110ec565b610179611166565b6102d76112d9565b61025d6004803603602081101561044857600080fd5b50356001600160a01b03166112e8565b6001600160e01b03191660009081526001602052604090205460ff1690565b50600190565b60025460009060ff161561055f576000600260019054906101000a90046001600160a01b03169050336001600160a01b0316816001600160a01b031663570ca7356040518163ffffffff1660e01b815260040160206040518083038186803b1580156104e857600080fd5b505afa1580156104fc573d6000803e3d6000fd5b505050506040513d602081101561051257600080fd5b50516001600160a01b0316146105595760405162461bcd60e51b81526004018080602001828103825260368152602001806115b76036913960400191505060405180910390fd5b506105ad565b60025461010090046001600160a01b031633146105ad5760405162461bcd60e51b81526004018080602001828103825260378152602001806115236037913960400191505060405180910390fd5b600480546040805163047c678160e21b8152928301859052516001600160a01b03909116916311f19e049160248083019260209291908290030181600087803b1580156105f957600080fd5b505af115801561060d573d6000803e3d6000fd5b505050506040513d602081101561062357600080fd5b505192915050565b600190565b60025460ff161561070f576000600260019054906101000a90046001600160a01b03169050336001600160a01b0316816001600160a01b031663570ca7356040518163ffffffff1660e01b815260040160206040518083038186803b15801561069857600080fd5b505afa1580156106ac573d6000803e3d6000fd5b505050506040513d60208110156106c257600080fd5b50516001600160a01b0316146107095760405162461bcd60e51b81526004018080602001828103825260368152602001806115b76036913960400191505060405180910390fd5b5061075d565b60025461010090046001600160a01b0316331461075d5760405162461bcd60e51b81526004018080602001828103825260378152602001806115236037913960400191505060405180910390fd5b6004805460405163127ccd8f60e11b815291820186815260248301869052606060448401908152606484018590526001600160a01b03909216926324f99b1e92889288928892889291608401848480828437600081840152601f19601f82011690508083019250505095505050505050600060405180830381600087803b1580156107e757600080fd5b505af11580156107fb573d6000803e3d6000fd5b5050505050505050565b60025460ff16156108e4576000600260019054906101000a90046001600160a01b03169050336001600160a01b0316816001600160a01b031663570ca7356040518163ffffffff1660e01b815260040160206040518083038186803b15801561086d57600080fd5b505afa158015610881573d6000803e3d6000fd5b505050506040513d602081101561089757600080fd5b50516001600160a01b0316146108de5760405162461bcd60e51b81526004018080602001828103825260368152602001806115b76036913960400191505060405180910390fd5b50610932565b60025461010090046001600160a01b031633146109325760405162461bcd60e51b81526004018080602001828103825260378152602001806115236037913960400191505060405180910390fd5b61093e6003838361145b565b507fda033346b344f4675799a7ab4d837f0deb62d4afcdcaba4613913b4c25838cb3600260019054906101000a90046001600160a01b0316838360405180846001600160a01b03168152602001806020018281038252848482818152602001925080828437600083820152604051601f909101601f1916909201829003965090945050505050a15050565b60025461010090046001600160a01b031690565b6003805460408051602060026001851615610100026000190190941693909304601f81018490048402820184019092528181529291830182828015610a635780601f10610a3857610100808354040283529160200191610a63565b820191906000526020600020905b815481529060010190602001808311610a4657829003601f168201915b505050505081565b60025461010090046001600160a01b031681565b6005546001600160a01b031681565b610a966113e0565b6000546001600160a01b03908116911614610ae6576040805162461bcd60e51b81526020600482018190526024820152600080516020611597833981519152604482015290519081900360640190fd5b600080546040516001600160a01b03909116907f8be0079c531659141344cd1fd0a4f28419497f9722a3daafe3b4186f6b6457e0908390a3600080546001600160a01b0319169055565b6005546000906001600160a01b0316610b90576040805162461bcd60e51b815260206004820152601e60248201527f43616e6469646174653a20536569674d616e61676572206973207a65726f0000604482015290519081900360640190fd5b60025460ff1615610bd25760405162461bcd60e51b815260040180806020018281038252603d81526020018061155a603d913960400191505060405180910390fd5b600560009054906101000a90046001600160a01b03166001600160a01b031663764a78566040518163ffffffff1660e01b8152600401602060405180830381600087803b158015610c2257600080fd5b505af1158015610c36573d6000803e3d6000fd5b505050506040513d6020811015610c4c57600080fd5b5051905090565b610c5b6113e0565b6000546001600160a01b03908116911614610cab576040805162461bcd60e51b81526020600482018190526024820152600080516020611597833981519152604482015290519081900360640190fd5b600580546001600160a01b0319166001600160a01b0392909216919091179055565b600080610cd86113e4565b90506001600160a01b038116610d35576040805162461bcd60e51b815260206004820152601a60248201527f43616e6469646174653a20636f696e616765206973207a65726f000000000000604482015290519081900360640190fd5b806001600160a01b03166318160ddd6040518163ffffffff1660e01b815260040160206040518083038186803b158015610d6e57600080fd5b505afa158015610d82573d6000803e3d6000fd5b505050506040513d6020811015610d9857600080fd5b505191505090565b60025460ff1615610e7f576000600260019054906101000a90046001600160a01b03169050336001600160a01b0316816001600160a01b031663570ca7356040518163ffffffff1660e01b815260040160206040518083038186803b158015610e0857600080fd5b505afa158015610e1c573d6000803e3d6000fd5b505050506040513d6020811015610e3257600080fd5b50516001600160a01b031614610e795760405162461bcd60e51b81526004018080602001828103825260368152602001806115b76036913960400191505060405180910390fd5b50610ecd565b60025461010090046001600160a01b03163314610ecd5760405162461bcd60e51b81526004018080602001828103825260378152602001806115236037913960400191505060405180910390fd5b60025460009060ff1615610f63576000600260019054906101000a90046001600160a01b03169050806001600160a01b031663570ca7356040518163ffffffff1660e01b815260040160206040518083038186803b158015610f2e57600080fd5b505afa158015610f42573d6000803e3d6000fd5b505050506040513d6020811015610f5857600080fd5b50519150610f769050565b5060025461010090046001600160a01b03165b600460009054906101000a90046001600160a01b03166001600160a01b0316636becff27826040518263ffffffff1660e01b815260040180826001600160a01b03168152602001915050600060405180830381600087803b158015610fda57600080fd5b505af1158015610fee573d6000803e3d6000fd5b5050505050565b6000546001600160a01b031690565b60008061100f6113e4565b90506001600160a01b03811661106c576040805162461bcd60e51b815260206004820152601d60248201527f44414f436f6d6d69747465653a20636f696e616765206973207a65726f000000604482015290519081900360640190fd5b806001600160a01b03166370a08231846040518263ffffffff1660e01b815260040180826001600160a01b0316815260200191505060206040518083038186803b1580156110b957600080fd5b505afa1580156110cd573d6000803e3d6000fd5b505050506040513d60208110156110e357600080fd5b50519392505050565b6110f46113e0565b6000546001600160a01b03908116911614611144576040805162461bcd60e51b81526020600482018190526024820152600080516020611597833981519152604482015290519081900360640190fd5b600480546001600160a01b0319166001600160a01b0392909216919091179055565b60025460009060ff1615611248576000600260019054906101000a90046001600160a01b03169050336001600160a01b0316816001600160a01b031663570ca7356040518163ffffffff1660e01b815260040160206040518083038186803b1580156111d157600080fd5b505afa1580156111e5573d6000803e3d6000fd5b505050506040513d60208110156111fb57600080fd5b50516001600160a01b0316146112425760405162461bcd60e51b81526004018080602001828103825260368152602001806115b76036913960400191505060405180910390fd5b50611296565b60025461010090046001600160a01b031633146112965760405162461bcd60e51b81526004018080602001828103825260378152602001806115236037913960400191505060405180910390fd5b600480546040805162313be760ea1b815290516001600160a01b039092169263c4ef9c009282820192602092908290030181600087803b158015610c2257600080fd5b6004546001600160a01b031681565b6112f06113e0565b6000546001600160a01b03908116911614611340576040805162461bcd60e51b81526020600482018190526024820152600080516020611597833981519152604482015290519081900360640190fd5b6001600160a01b0381166113855760405162461bcd60e51b81526004018080602001828103825260268152602001806114fd6026913960400191505060405180910390fd5b600080546040516001600160a01b03808516939216917f8be0079c531659141344cd1fd0a4f28419497f9722a3daafe3b4186f6b6457e091a3600080546001600160a01b0319166001600160a01b0392909216919091179055565b3390565b600254600090819060ff161561140b575060025461010090046001600160a01b031661140e565b50305b60055460408051634c063c1960e01b81526001600160a01b03848116600483015291519190921691634c063c19916024808301926020929190829003018186803b158015610d6e57600080fd5b828054600181600116156101000203166002900490600052602060002090601f01602090048101928261149157600085556114d7565b82601f106114aa5782800160ff198235161785556114d7565b828001600101855582156114d7579182015b828111156114d75782358255916020019190600101906114bc565b506114e39291506114e7565b5090565b5b808211156114e357600081556001016114e856fe4f776e61626c653a206e6577206f776e657220697320746865207a65726f206164647265737343616e6469646174653a2073656e646572206973206e6f74207468652063616e646964617465206f66207468697320636f6e747261637443616e6469646174653a20796f752073686f756c642075706461746520736569676e696f726167652066726f6d206c617965723220636f6e74726163744f776e61626c653a2063616c6c6572206973206e6f7420746865206f776e657243616e6469646174653a2073656e646572206973206e6f7420746865206f70657261746f72206f66207468697320636f6e7472616374a2646970667358221220692b68f98cd88887c681eac0bdc3c652ea823feb0f70a20f7176d2ea65d7d5ef64736f6c6343000706003343616e6469646174653a20696e76616c6964206c617965723220636f6e7472616374a26469706673582212207f06e8c87323e0828ee5e031b7b6bd18dbd9a820a7ab3b9e3af90f22b1a1bbdc64736f6c63430007060033",
  "immutableReferences": {},
  "source": "// SPDX-License-Identifier: MIT\npragma solidity ^0.7.6;\n\nimport { Candidate } from \"../dao/Candidate.sol\";\nimport { ICandidateFactory } from \"../interfaces/ICandidateFactory.sol\";\n\ncontract CandidateFactory is ICandidateFactory {\n    function deploy(\n        address _candidate,\n        bool _isLayer2Candidate,\n        string memory _name,\n        address _committee,\n        address _seigManager\n    )\n        public\n        override\n        returns (address)\n    {\n        Candidate c = new Candidate(\n            _candidate,\n            _isLayer2Candidate,\n            _name,\n            _committee,\n            _seigManager\n        );\n        c.transferOwnership(_committee);\n        return address(c);\n    }\n}\n",
  "sourcePath": "/data/github/onther/tokamak-dao-contracts3/contracts/factory/CandidateFactory.sol",
  "compiler": {
    "name": "solc",
    "version": "0.7.6+commit.7338295f.Emscripten.clang"
  },
  "schemaVersion": "3.3.2",
  "updatedAt": "2021-02-08T00:06:52.852Z",
  "networkType": "ethereum",
  "devdoc": {
    "kind": "dev",
    "methods": {},
    "version": 1
  },
  "userdoc": {
    "kind": "user",
    "methods": {},
    "version": 1
  }
}