{
  "contractName": "Candidate",
  "abi": [
    {
      "inputs": [
        {
          "internalType": "address",
          "name": "_candidate",
          "type": "address"
        },
        {
          "internalType": "string",
          "name": "_memo",
          "type": "string"
        }
      ],
      "stateMutability": "nonpayable",
      "type": "constructor"
    },
    {
      "inputs": [],
      "name": "candidate",
      "outputs": [
        {
          "internalType": "address",
          "name": "",
          "type": "address"
        }
      ],
      "stateMutability": "view",
      "type": "function"
    },
    {
      "inputs": [],
      "name": "memo",
      "outputs": [
        {
          "internalType": "string",
          "name": "",
          "type": "string"
        }
      ],
      "stateMutability": "view",
      "type": "function"
    },
    {
      "inputs": [],
      "name": "owner",
      "outputs": [
        {
          "internalType": "address",
          "name": "",
          "type": "address"
        }
      ],
      "stateMutability": "view",
      "type": "function"
    },
    {
      "inputs": [],
      "name": "seigManager",
      "outputs": [
        {
          "internalType": "address",
          "name": "",
          "type": "address"
        }
      ],
      "stateMutability": "view",
      "type": "function"
    },
    {
      "inputs": [
        {
          "internalType": "address",
          "name": "newOwner",
          "type": "address"
        }
      ],
      "name": "transferOwnership",
      "outputs": [],
      "stateMutability": "nonpayable",
      "type": "function"
    },
    {
      "inputs": [
        {
          "internalType": "address",
          "name": "_seigMan",
          "type": "address"
        }
      ],
      "name": "setSeigManager",
      "outputs": [],
      "stateMutability": "nonpayable",
      "type": "function"
    },
    {
      "inputs": [],
      "name": "updateSeigniorage",
      "outputs": [
        {
          "internalType": "bool",
          "name": "",
          "type": "bool"
        }
      ],
      "stateMutability": "nonpayable",
      "type": "function"
    },
    {
      "inputs": [],
      "name": "isCommitteeLayer2",
      "outputs": [
        {
          "internalType": "bool",
          "name": "",
          "type": "bool"
        }
      ],
      "stateMutability": "view",
      "type": "function"
    },
    {
      "inputs": [],
      "name": "candidateAndOwner",
      "outputs": [
        {
          "internalType": "address",
          "name": "",
          "type": "address"
        },
        {
          "internalType": "address",
          "name": "",
          "type": "address"
        }
      ],
      "stateMutability": "view",
      "type": "function"
    },
    {
      "inputs": [],
      "name": "operator",
      "outputs": [
        {
          "internalType": "address",
          "name": "",
          "type": "address"
        }
      ],
      "stateMutability": "view",
      "type": "function"
    },
    {
      "inputs": [],
      "name": "isLayer2",
      "outputs": [
        {
          "internalType": "bool",
          "name": "",
          "type": "bool"
        }
      ],
      "stateMutability": "view",
      "type": "function"
    },
    {
      "inputs": [],
      "name": "currentFork",
      "outputs": [
        {
          "internalType": "uint256",
          "name": "",
          "type": "uint256"
        }
      ],
      "stateMutability": "view",
      "type": "function"
    },
    {
      "inputs": [
        {
          "internalType": "uint256",
          "name": "forkNumber",
          "type": "uint256"
        }
      ],
      "name": "lastEpoch",
      "outputs": [
        {
          "internalType": "uint256",
          "name": "",
          "type": "uint256"
        }
      ],
      "stateMutability": "view",
      "type": "function"
    },
    {
      "inputs": [
        {
          "internalType": "address",
          "name": "_candidate",
          "type": "address"
        }
      ],
      "name": "changeCandidate",
      "outputs": [],
      "stateMutability": "nonpayable",
      "type": "function"
    }
  ],
  "bytecode": "0x608060405234801561001057600080fd5b5060405161072f38038061072f8339818101604052604081101561003357600080fd5b81516020830180516040519294929383019291908464010000000082111561005a57600080fd5b90830190602082018581111561006f57600080fd5b825164010000000081118282018810171561008957600080fd5b82525081516020918201929091019080838360005b838110156100b657818101518382015260200161009e565b50505050905090810190601f1680156100e35780820380516001836020036101000a031916815260200191505b50604052505060008054336001600160a01b031991821617909155600180549091166001600160a01b03851617905550805161012690600390602084019061012e565b5050506101cf565b828054600181600116156101000203166002900490600052602060002090601f01602090048101928261016457600085556101aa565b82601f1061017d57805160ff19168380011785556101aa565b828001600101855582156101aa579182015b828111156101aa57825182559160200191906001019061018f565b506101b69291506101ba565b5090565b5b808211156101b657600081556001016101bb565b610551806101de6000396000f3fe608060405234801561001057600080fd5b50600436106100ea5760003560e01c8063764a78561161008c5780638da5cb5b116100665780638da5cb5b14610249578063a2b0da5414610241578063b2359b3f14610251578063f2fde38b14610288576100ea565b8063764a7856146101ff5780637657f20a1461021b578063882eed2c14610241576100ea565b806358c3b870116100c857806358c3b8701461014a5780635f94f678146101c75780636c8381f8146101ef5780636fb7f558146101f7576100ea565b806311e4c914146100ef578063183d2d1c1461011e578063570ca73514610126575b600080fd5b61010c6004803603602081101561010557600080fd5b50356102ae565b60408051918252519081900360200190f35b61010c6102b4565b61012e6102b9565b604080516001600160a01b039092168252519081900360200190f35b6101526102c8565b6040805160208082528351818301528351919283929083019185019080838360005b8381101561018c578181015183820152602001610174565b50505050905090810190601f1680156101b95780820380516001836020036101000a031916815260200191505b509250505060405180910390f35b6101ed600480360360208110156101dd57600080fd5b50356001600160a01b0316610356565b005b61012e610378565b61012e610387565b610207610396565b604080519115158252519081900360200190f35b6101ed6004803603602081101561023157600080fd5b50356001600160a01b0316610477565b6102076102b4565b61012e6104b0565b6102596104bf565b60405180836001600160a01b03168152602001826001600160a01b031681526020019250505060405180910390f35b6101ed6004803603602081101561029e57600080fd5b50356001600160a01b03166104d6565b50600190565b600190565b6001546001600160a01b031690565b6003805460408051602060026001851615610100026000190190941693909304601f8101849004840282018401909252818152929183018282801561034e5780601f106103235761010080835404028352916020019161034e565b820191906000526020600020905b81548152906001019060200180831161033157829003601f168201915b505050505081565b600180546001600160a01b0319166001600160a01b0392909216919091179055565b6001546001600160a01b031681565b6002546001600160a01b031681565b6002546000906001600160a01b03166103f6576040805162461bcd60e51b815260206004820152601e60248201527f43616e6469646174653a20536569674d616e61676572206973207a65726f0000604482015290519081900360640190fd5b600260009054906101000a90046001600160a01b03166001600160a01b031663764a78566040518163ffffffff1660e01b8152600401602060405180830381600087803b15801561044657600080fd5b505af115801561045a573d6000803e3d6000fd5b505050506040513d602081101561047057600080fd5b5051905090565b6000546001600160a01b0316331461048e57600080fd5b600280546001600160a01b0319166001600160a01b0392909216919091179055565b6000546001600160a01b031681565b6001546000546001600160a01b0391821691169091565b6000546001600160a01b031633146104ed57600080fd5b6001600160a01b0381161561051857600080546001600160a01b0319166001600160a01b0383161790555b5056fea2646970667358221220fd330c39ad2b6fb7db3a1f345a6db09ee7201f04812f7e673339ebb55e9ca73d64736f6c63430007060033",
  "immutableReferences": {},
  "source": "// SPDX-License-Identifier: MIT\npragma solidity ^0.7.6;\n\nimport \"../shared/Ownabled.sol\";\n\nimport { IDAOCommittee } from \"../interfaces/IDAOCommittee.sol\";\nimport { IERC20 } from  \"../../node_modules/@openzeppelin/contracts/token/ERC20/IERC20.sol\";\nimport { SafeMath } from \"../../node_modules/@openzeppelin/contracts/math/SafeMath.sol\";\nimport { ISeigManager } from \"../interfaces/ISeigManager.sol\";\nimport { ICandidate } from \"../interfaces/ICandidate.sol\";\nimport { ILayer2Registry } from \"../interfaces/ILayer2Registry.sol\";\n\ncontract Candidate is Ownabled, ICandidate {\n    using SafeMath for uint256;\n    address public candidate;\n    address public seigManager;\n    //address public layer2Registry;\n    string public memo;\n    \n    constructor(address _candidate, string memory _memo) {\n        candidate = _candidate;\n        memo = _memo;\n    }\n    \n    function setSeigManager(address _seigMan) public onlyOwner override {\n        seigManager =_seigMan;\n    }\n\n    /*function setLayer2Registry(address _layer2Registry) public onlyOwner override {\n        layer2Registry = _layer2Registry;\n    }*/\n\n    function updateSeigniorage() public override returns (bool) {\n        require(seigManager != address(0), \"Candidate: SeigManager is zero\");\n        return ISeigManager(seigManager).updateSeigniorage();\n    }\n    \n    /*function registerAndDeployCoinage() public override returns (bool) {\n        return Layer2RegistryI(layer2Registry).registerAndDeployCoinage(address(this), seigManager);\n    }*/\n\n    function isCommitteeLayer2() public override view returns (bool) {\n        return true;\n    }\n\n    function candidateAndOwner() public override view returns (address, address) {\n        return (candidate, owner);\n    }\n\n    function operator() public view returns (address) { return candidate; }\n    function isLayer2() public view returns (bool) { return true; }\n    function currentFork() public view returns (uint) { return 1; }\n    function lastEpoch(uint forkNumber) public view returns (uint) { return 1; }\n    function changeCandidate(address _candidate) public {\n        candidate = _candidate;\n    }\n}\n",
  "sourcePath": "/data/github/onther/tokamak-dao-contracts3/contracts/dao/Candidate.sol",
  "compiler": {
    "name": "solc",
    "version": "0.7.6+commit.7338295f.Emscripten.clang"
  },
  "schemaVersion": "3.3.2",
  "updatedAt": "2021-01-04T05:24:13.052Z",
  "devdoc": {
    "kind": "dev",
    "methods": {},
    "version": 1
  },
  "userdoc": {
    "kind": "user",
    "methods": {},
    "version": 1
  }
}