{
  "contractName": "DAOAgendaManager",
  "abi": [
    {
      "inputs": [
        {
          "internalType": "address",
          "name": "_ton",
          "type": "address"
        }
      ],
      "stateMutability": "nonpayable",
      "type": "constructor"
    },
    {
      "anonymous": false,
      "inputs": [
        {
          "indexed": true,
          "internalType": "uint256",
          "name": "agendaID",
          "type": "uint256"
        },
        {
          "indexed": false,
          "internalType": "uint256",
          "name": "result",
          "type": "uint256"
        }
      ],
      "name": "AgendaResultChanged",
      "type": "event"
    },
    {
      "anonymous": false,
      "inputs": [
        {
          "indexed": true,
          "internalType": "uint256",
          "name": "agendaID",
          "type": "uint256"
        },
        {
          "indexed": false,
          "internalType": "uint256",
          "name": "prevStatus",
          "type": "uint256"
        },
        {
          "indexed": false,
          "internalType": "uint256",
          "name": "newStatus",
          "type": "uint256"
        }
      ],
      "name": "AgendaStatusChanged",
      "type": "event"
    },
    {
      "anonymous": false,
      "inputs": [
        {
          "indexed": true,
          "internalType": "address",
          "name": "previousOwner",
          "type": "address"
        },
        {
          "indexed": true,
          "internalType": "address",
          "name": "newOwner",
          "type": "address"
        }
      ],
      "name": "OwnershipTransferred",
      "type": "event"
    },
    {
      "inputs": [
        {
          "internalType": "uint256",
          "name": "",
          "type": "uint256"
        }
      ],
      "name": "agendas",
      "outputs": [
        {
          "internalType": "uint256",
          "name": "createdTimestamp",
          "type": "uint256"
        },
        {
          "internalType": "uint256",
          "name": "noticeEndTimestamp",
          "type": "uint256"
        },
        {
          "internalType": "uint256",
          "name": "votingPeriodInSeconds",
          "type": "uint256"
        },
        {
          "internalType": "uint256",
          "name": "votingStartedTimestamp",
          "type": "uint256"
        },
        {
          "internalType": "uint256",
          "name": "votingEndTimestamp",
          "type": "uint256"
        },
        {
          "internalType": "uint256",
          "name": "executedTimestamp",
          "type": "uint256"
        },
        {
          "internalType": "uint256",
          "name": "countingYes",
          "type": "uint256"
        },
        {
          "internalType": "uint256",
          "name": "countingNo",
          "type": "uint256"
        },
        {
          "internalType": "uint256",
          "name": "countingAbstain",
          "type": "uint256"
        },
        {
          "internalType": "uint256",
          "name": "reward",
          "type": "uint256"
        },
        {
          "internalType": "enum LibAgenda.AgendaStatus",
          "name": "status",
          "type": "uint8"
        },
        {
          "internalType": "enum LibAgenda.AgendaResult",
          "name": "result",
          "type": "uint8"
        },
        {
          "internalType": "bool",
          "name": "executed",
          "type": "bool"
        }
      ],
      "stateMutability": "view",
      "type": "function"
    },
    {
      "inputs": [],
      "name": "committee",
      "outputs": [
        {
          "internalType": "contract IDAOCommittee",
          "name": "",
          "type": "address"
        }
      ],
      "stateMutability": "view",
      "type": "function"
    },
    {
      "inputs": [],
      "name": "createAgendaFees",
      "outputs": [
        {
          "internalType": "uint256",
          "name": "",
          "type": "uint256"
        }
      ],
      "stateMutability": "view",
      "type": "function"
    },
    {
      "inputs": [],
      "name": "minimunNoticePeriodSeconds",
      "outputs": [
        {
          "internalType": "uint256",
          "name": "",
          "type": "uint256"
        }
      ],
      "stateMutability": "view",
      "type": "function"
    },
    {
      "inputs": [],
      "name": "minimunVotingPeriodSeconds",
      "outputs": [
        {
          "internalType": "uint256",
          "name": "",
          "type": "uint256"
        }
      ],
      "stateMutability": "view",
      "type": "function"
    },
    {
      "inputs": [],
      "name": "owner",
      "outputs": [
        {
          "internalType": "address",
          "name": "",
          "type": "address"
        }
      ],
      "stateMutability": "view",
      "type": "function"
    },
    {
      "inputs": [],
      "name": "quorum",
      "outputs": [
        {
          "internalType": "uint256",
          "name": "numerator",
          "type": "uint256"
        },
        {
          "internalType": "uint256",
          "name": "denominator",
          "type": "uint256"
        }
      ],
      "stateMutability": "view",
      "type": "function"
    },
    {
      "inputs": [],
      "name": "renounceOwnership",
      "outputs": [],
      "stateMutability": "nonpayable",
      "type": "function"
    },
    {
      "inputs": [],
      "name": "ton",
      "outputs": [
        {
          "internalType": "address",
          "name": "",
          "type": "address"
        }
      ],
      "stateMutability": "view",
      "type": "function"
    },
    {
      "inputs": [
        {
          "internalType": "address",
          "name": "newOwner",
          "type": "address"
        }
      ],
      "name": "transferOwnership",
      "outputs": [],
      "stateMutability": "nonpayable",
      "type": "function"
    },
    {
      "inputs": [
        {
          "internalType": "uint256",
          "name": "",
          "type": "uint256"
        },
        {
          "internalType": "address",
          "name": "",
          "type": "address"
        }
      ],
      "name": "voterInfos",
      "outputs": [
        {
          "internalType": "bool",
          "name": "isVoter",
          "type": "bool"
        },
        {
          "internalType": "bool",
          "name": "hasVoted",
          "type": "bool"
        },
        {
          "internalType": "uint256",
          "name": "vote",
          "type": "uint256"
        }
      ],
      "stateMutability": "view",
      "type": "function"
    },
    {
      "inputs": [
        {
          "internalType": "uint256",
          "name": "_status",
          "type": "uint256"
        }
      ],
      "name": "getStatus",
      "outputs": [
        {
          "internalType": "enum LibAgenda.AgendaStatus",
          "name": "emnustatus",
          "type": "uint8"
        }
      ],
      "stateMutability": "pure",
      "type": "function"
    },
    {
      "inputs": [
        {
          "internalType": "address",
          "name": "_committee",
          "type": "address"
        }
      ],
      "name": "setCommittee",
      "outputs": [],
      "stateMutability": "nonpayable",
      "type": "function"
    },
    {
      "inputs": [
        {
          "internalType": "uint256",
          "name": "_createAgendaFees",
          "type": "uint256"
        }
      ],
      "name": "setCreateAgendaFees",
      "outputs": [],
      "stateMutability": "nonpayable",
      "type": "function"
    },
    {
      "inputs": [
        {
          "internalType": "uint256",
          "name": "_minimunNoticePeriodSeconds",
          "type": "uint256"
        }
      ],
      "name": "setMinimunNoticePeriodSeconds",
      "outputs": [],
      "stateMutability": "nonpayable",
      "type": "function"
    },
    {
      "inputs": [
        {
          "internalType": "uint256",
          "name": "_minimunVotingPeriodSeconds",
          "type": "uint256"
        }
      ],
      "name": "setMinimunVotingPeriodSeconds",
      "outputs": [],
      "stateMutability": "nonpayable",
      "type": "function"
    },
    {
      "inputs": [
        {
          "internalType": "uint256",
          "name": "quorumNumerator",
          "type": "uint256"
        },
        {
          "internalType": "uint256",
          "name": "quorumDenominator",
          "type": "uint256"
        }
      ],
      "name": "setQuorum",
      "outputs": [],
      "stateMutability": "nonpayable",
      "type": "function"
    },
    {
      "inputs": [
        {
          "internalType": "uint256",
          "name": "_agendaID",
          "type": "uint256"
        },
        {
          "internalType": "address",
          "name": "_user",
          "type": "address"
        }
      ],
      "name": "hasVoted",
      "outputs": [
        {
          "internalType": "bool",
          "name": "",
          "type": "bool"
        }
      ],
      "stateMutability": "view",
      "type": "function"
    },
    {
      "inputs": [
        {
          "internalType": "uint256",
          "name": "_agendaID",
          "type": "uint256"
        },
        {
          "internalType": "address",
          "name": "_user",
          "type": "address"
        }
      ],
      "name": "getVoteStatus",
      "outputs": [
        {
          "internalType": "bool",
          "name": "",
          "type": "bool"
        },
        {
          "internalType": "uint256",
          "name": "",
          "type": "uint256"
        }
      ],
      "stateMutability": "view",
      "type": "function"
    },
    {
      "inputs": [
        {
          "internalType": "uint256",
          "name": "_agendaID",
          "type": "uint256"
        }
      ],
      "name": "getAgendaNoticeEndTimeSeconds",
      "outputs": [
        {
          "internalType": "uint256",
          "name": "",
          "type": "uint256"
        }
      ],
      "stateMutability": "view",
      "type": "function"
    },
    {
      "inputs": [
        {
          "internalType": "uint256",
          "name": "_agendaID",
          "type": "uint256"
        }
      ],
      "name": "getAgendaVotingStartTimeSeconds",
      "outputs": [
        {
          "internalType": "uint256",
          "name": "",
          "type": "uint256"
        }
      ],
      "stateMutability": "view",
      "type": "function"
    },
    {
      "inputs": [
        {
          "internalType": "uint256",
          "name": "_agendaID",
          "type": "uint256"
        }
      ],
      "name": "getAgendaVotingEndTimeSeconds",
      "outputs": [
        {
          "internalType": "uint256",
          "name": "",
          "type": "uint256"
        }
      ],
      "stateMutability": "view",
      "type": "function"
    },
    {
      "inputs": [
        {
          "internalType": "uint256",
          "name": "_agendaID",
          "type": "uint256"
        }
      ],
      "name": "canExecuteAgenda",
      "outputs": [
        {
          "internalType": "bool",
          "name": "",
          "type": "bool"
        }
      ],
      "stateMutability": "view",
      "type": "function"
    },
    {
      "inputs": [
        {
          "internalType": "uint256",
          "name": "_agendaID",
          "type": "uint256"
        }
      ],
      "name": "getAgendaStatus",
      "outputs": [
        {
          "internalType": "uint256",
          "name": "status",
          "type": "uint256"
        }
      ],
      "stateMutability": "view",
      "type": "function"
    },
    {
      "inputs": [],
      "name": "totalAgendas",
      "outputs": [
        {
          "internalType": "uint256",
          "name": "",
          "type": "uint256"
        }
      ],
      "stateMutability": "view",
      "type": "function"
    },
    {
      "inputs": [
        {
          "internalType": "uint256",
          "name": "_agendaID",
          "type": "uint256"
        }
      ],
      "name": "getAgendaResult",
      "outputs": [
        {
          "internalType": "uint256",
          "name": "result",
          "type": "uint256"
        },
        {
          "internalType": "bool",
          "name": "executed",
          "type": "bool"
        }
      ],
      "stateMutability": "view",
      "type": "function"
    },
    {
      "inputs": [
        {
          "internalType": "address[]",
          "name": "_targets",
          "type": "address[]"
        },
        {
          "internalType": "uint256",
          "name": "_noticePeriodSeconds",
          "type": "uint256"
        },
        {
          "internalType": "uint256",
          "name": "_votingPeriodSeconds",
          "type": "uint256"
        },
        {
          "internalType": "uint256",
          "name": "_reward",
          "type": "uint256"
        },
        {
          "internalType": "bytes[]",
          "name": "_functionBytecodes",
          "type": "bytes[]"
        }
      ],
      "name": "newAgenda",
      "outputs": [
        {
          "internalType": "uint256",
          "name": "agendaID",
          "type": "uint256"
        }
      ],
      "stateMutability": "nonpayable",
      "type": "function"
    },
    {
      "inputs": [
        {
          "internalType": "uint256",
          "name": "_agendaID",
          "type": "uint256"
        },
        {
          "internalType": "address",
          "name": "_user",
          "type": "address"
        }
      ],
      "name": "isVoter",
      "outputs": [
        {
          "internalType": "bool",
          "name": "",
          "type": "bool"
        }
      ],
      "stateMutability": "view",
      "type": "function"
    },
    {
      "inputs": [
        {
          "internalType": "uint256",
          "name": "_agendaID",
          "type": "uint256"
        },
        {
          "internalType": "address",
          "name": "_voter",
          "type": "address"
        },
        {
          "internalType": "uint256",
          "name": "_vote",
          "type": "uint256"
        }
      ],
      "name": "castVote",
      "outputs": [
        {
          "internalType": "bool",
          "name": "",
          "type": "bool"
        }
      ],
      "stateMutability": "nonpayable",
      "type": "function"
    },
    {
      "inputs": [
        {
          "internalType": "uint256",
          "name": "_agendaID",
          "type": "uint256"
        }
      ],
      "name": "setExecutedAgenda",
      "outputs": [],
      "stateMutability": "nonpayable",
      "type": "function"
    },
    {
      "inputs": [
        {
          "internalType": "uint256",
          "name": "_agendaID",
          "type": "uint256"
        },
        {
          "internalType": "enum LibAgenda.AgendaResult",
          "name": "_result",
          "type": "uint8"
        }
      ],
      "name": "setResult",
      "outputs": [],
      "stateMutability": "nonpayable",
      "type": "function"
    },
    {
      "inputs": [
        {
          "internalType": "uint256",
          "name": "_agendaID",
          "type": "uint256"
        },
        {
          "internalType": "uint256",
          "name": "_status",
          "type": "uint256"
        }
      ],
      "name": "setStatus",
      "outputs": [],
      "stateMutability": "nonpayable",
      "type": "function"
    },
    {
      "inputs": [
        {
          "internalType": "uint256",
          "name": "_agendaID",
          "type": "uint256"
        },
        {
          "internalType": "enum LibAgenda.AgendaStatus",
          "name": "_status",
          "type": "uint8"
        }
      ],
      "name": "setStatus",
      "outputs": [],
      "stateMutability": "nonpayable",
      "type": "function"
    },
    {
      "inputs": [
        {
          "internalType": "uint256",
          "name": "_agendaID",
          "type": "uint256"
        }
      ],
      "name": "endAgendaVoting",
      "outputs": [],
      "stateMutability": "nonpayable",
      "type": "function"
    },
    {
      "inputs": [
        {
          "internalType": "uint256",
          "name": "_agendaID",
          "type": "uint256"
        }
      ],
      "name": "getExecutionInfo",
      "outputs": [
        {
          "internalType": "address[]",
          "name": "target",
          "type": "address[]"
        },
        {
          "internalType": "bytes[]",
          "name": "functionBytecode",
          "type": "bytes[]"
        }
      ],
      "stateMutability": "view",
      "type": "function"
    },
    {
      "inputs": [
        {
          "internalType": "uint256",
          "name": "_agendaID",
          "type": "uint256"
        }
      ],
      "name": "isVotableStatus",
      "outputs": [
        {
          "internalType": "bool",
          "name": "",
          "type": "bool"
        }
      ],
      "stateMutability": "view",
      "type": "function"
    },
    {
      "inputs": [
        {
          "internalType": "uint256",
          "name": "_agendaID",
          "type": "uint256"
        }
      ],
      "name": "getVotingCount",
      "outputs": [
        {
          "internalType": "uint256",
          "name": "countingYes",
          "type": "uint256"
        },
        {
          "internalType": "uint256",
          "name": "countingNo",
          "type": "uint256"
        },
        {
          "internalType": "uint256",
          "name": "countingAbstain",
          "type": "uint256"
        }
      ],
      "stateMutability": "view",
      "type": "function"
    },
    {
      "inputs": [
        {
          "internalType": "uint256",
          "name": "_agendaID",
          "type": "uint256"
        }
      ],
      "name": "getAgendaTimestamps",
      "outputs": [
        {
          "internalType": "uint256",
          "name": "createdTimestamp",
          "type": "uint256"
        },
        {
          "internalType": "uint256",
          "name": "noticeEndTimestamp",
          "type": "uint256"
        },
        {
          "internalType": "uint256",
          "name": "votingStartedTimestamp",
          "type": "uint256"
        },
        {
          "internalType": "uint256",
          "name": "votingEndTimestamp",
          "type": "uint256"
        },
        {
          "internalType": "uint256",
          "name": "executedTimestamp",
          "type": "uint256"
        }
      ],
      "stateMutability": "view",
      "type": "function"
    },
    {
      "inputs": [],
      "name": "numAgendas",
      "outputs": [
        {
          "internalType": "uint256",
          "name": "",
          "type": "uint256"
        }
      ],
      "stateMutability": "view",
      "type": "function"
    },
    {
      "inputs": [
        {
          "internalType": "uint256",
          "name": "_agendaID",
          "type": "uint256"
        }
      ],
      "name": "getVoters",
      "outputs": [
        {
          "internalType": "address[]",
          "name": "",
          "type": "address[]"
        }
      ],
      "stateMutability": "view",
      "type": "function"
    }
  ],
  "bytecode": "0x60806040523480156200001157600080fd5b5060405162002a0638038062002a068339810160408190526200003491620000ee565b600062000040620000ea565b600080546001600160a01b0319166001600160a01b0383169081178255604051929350917f8be0079c531659141344cd1fd0a4f28419497f9722a3daafe3b4186f6b6457e0908290a3506213c6806004556202a30060055568056bc75e2d6310000060039081556040805180820190915260028082526020909101829052600955600a55600180546001600160a01b0319166001600160a01b03929092169190911790556200011e565b3390565b60006020828403121562000100578081fd5b81516001600160a01b038116811462000117578182fd5b9392505050565b6128d8806200012e6000396000f3fe608060405234801561001057600080fd5b50600436106102475760003560e01c80638425a46d1161013b578063cc48b947116100b8578063d864e7401161007c578063d864e74014610559578063d896dd6414610561578063de6bd38614610574578063e3bc145f14610382578063f2fde38b1461058757610247565b8063cc48b94714610502578063cdeed6051461050a578063d0e7907f1461052b578063d10d2b5014610533578063d1f0473f1461054657610247565b80638ea5938c116100ff5780638ea5938c1461049f578063921d383a146104a7578063aee4a42a146104ba578063b4f69b6a146104dc578063bddae40e146104ef57610247565b80638425a46d1461042057806386b646f214610433578063885b4696146104535780638da5cb5b146104665780638e3f5f831461047b57610247565b806356150a36116101c957806373ba37451161018d57806373ba3745146103b357806377f28d5b146103d45780637a3d5468146103e75780637e77eb23146103fa57806382e408131461040d57610247565b806356150a361461034f5780635c622a0e14610362578063699cc358146103825780636bcaab5e1461038a578063715018a6146103ab57610247565b806337184a321161021057806337184a32146102c65780633c4a819c146102db5780633da2371f14610307578063438596321461031a5780634a47f59b1461032d57610247565b8062b74c451461024c5780631703a018146102755780632522a32f1461028b578063284d776e146102a0578063334bbf35146102b3575b600080fd5b61025f61025a36600461208f565b61059a565b60405161026c9190612283565b60405180910390f35b61027d6105f9565b60405161026c92919061271a565b610293610602565b60405161026c9190612701565b6102936102ae36600461205f565b610608565b6102936102c136600461205f565b610663565b6102d96102d436600461205f565b6106ad565b005b6102ee6102e936600461205f565b6107bc565b60405161026c9d9c9b9a99989796959493929190612761565b61029361031536600461205f565b61083b565b61025f61032836600461208f565b610885565b61034061033b36600461208f565b6108da565b60405161026c9392919061228e565b6102d961035d3660046120f5565b61090b565b61037561037036600461205f565b6109ef565b60405161026c91906122b6565b610293610a3d565b61039d61039836600461205f565b610a43565b60405161026c92919061270a565b6102d9610ace565b6103c66103c136600461205f565b610b70565b60405161026c9291906121dc565b61025f6103e236600461205f565b610cbf565b6102d96103f5366004612143565b610d32565b61025f6104083660046120be565b610ddf565b6102d961041b366004612143565b610fda565b61025f61042e36600461205f565b6110e6565b61044661044136600461205f565b61115e565b60405161026c91906121c9565b6102d961046136600461205f565b6111de565b61046e6112c7565b60405161026c91906121b5565b61048e61048936600461205f565b6112d6565b60405161026c95949392919061273e565b610293611325565b6102936104b5366004611fd5565b61132b565b6104cd6104c836600461205f565b6116f8565b60405161026c93929190612728565b6102d96104ea36600461205f565b611738565b6102d96104fd366004611f9d565b611795565b61046e611835565b61051d61051836600461208f565b611844565b60405161026c9291906122a6565b6102936118a8565b6102d961054136600461205f565b6118ae565b6102d961055436600461205f565b61190b565b61046e611968565b6102d961056f36600461211c565b611977565b61029361058236600461205f565b611a62565b6102d9610595366004611f9d565b611aac565b60006001600160a01b0382166105cb5760405162461bcd60e51b81526004016105c29061238b565b60405180910390fd5b5060008281526007602090815260408083206001600160a01b038516845290915290205460ff165b92915050565b600954600a5482565b60035481565b600654600090821061062c5760405162461bcd60e51b81526004016105c290612640565b6006828154811061063957fe5b60009182526020909120600a600d90920201015460ff16600581111561065b57fe5b90505b919050565b60065460009082106106875760405162461bcd60e51b81526004016105c290612456565b6006828154811061069457fe5b90600052602060002090600d0201600401549050919050565b6106b5611ba4565b6000546001600160a01b03908116911614610705576040805162461bcd60e51b81526020600482018190526024820152600080516020612863833981519152604482015290519081900360640190fd5b60065481106107265760405162461bcd60e51b81526004016105c2906122c4565b60006006828154811061073557fe5b60009182526020909120600c600d90920201908101805460ff1916600117905542600580830191909155600a82015491925083916000805160206128838339815191529160ff919091169081111561078957fe5b600460405161079992919061271a565b60405180910390a2600a810180546004919060ff19166001835b02179055505050565b600681815481106107cc57600080fd5b60009182526020909120600d9091020180546001820154600283015460038401546004850154600586015460068701546007880154600889015460098a0154600a8b0154600c909b0154999b509799969895979496939592949193909260ff808316926101009004811691168d565b600654600090821061085f5760405162461bcd60e51b81526004016105c290612456565b6006828154811061086c57fe5b90600052602060002090600d0201600301549050919050565b60065460009083106108a95760405162461bcd60e51b81526004016105c290612342565b5060009182526007602090815260408084206001600160a01b03939093168452919052902054610100900460ff1690565b60076020908152600092835260408084209091529082529020805460019091015460ff808316926101009004169083565b610913611ba4565b6000546001600160a01b03908116911614610963576040805162461bcd60e51b81526020600482018190526024820152600080516020612863833981519152604482015290519081900360640190fd5b60006006838154811061097257fe5b90600052602060002090600d020190508181600a0160016101000a81548160ff021916908360038111156109a257fe5b0217905550827ff874b3fe678e8c9f4bd9dd7051e2bd81708e378e98526f16586e7bf60b77effc8360038111156109d557fe5b6040516109e29190612701565b60405180910390a2505050565b60006001821415610a025750600161065e565b6002821415610a135750600261065e565b6004821415610a245750600461065e565b6005821415610a355750600561065e565b50600061065e565b60065490565b60065460009081908310610a695760405162461bcd60e51b81526004016105c290612682565b60068381548110610a7657fe5b90600052602060002090600d0201600a0160019054906101000a900460ff166003811115610aa057fe5b60068481548110610aad57fe5b60009182526020909120600c600d90920201015490925060ff169050915091565b610ad6611ba4565b6000546001600160a01b03908116911614610b26576040805162461bcd60e51b81526020600482018190526024820152600080516020612863833981519152604482015290519081900360640190fd5b600080546040516001600160a01b03909116907f8be0079c531659141344cd1fd0a4f28419497f9722a3daafe3b4186f6b6457e0908390a3600080546001600160a01b0319169055565b600081815260086020908152604091829020805483518184028101840190945280845260609384938392600184019291849190830182828015610bdc57602002820191906000526020600020905b81546001600160a01b03168152600190910190602001808311610bbe575b5050505050915080805480602002602001604051908101604052809291908181526020016000905b82821015610caf5760008481526020908190208301805460408051601f6002600019610100600187161502019094169390930492830185900485028101850190915281815292830182828015610c9b5780601f10610c7057610100808354040283529160200191610c9b565b820191906000526020600020905b815481529060010190602001808311610c7e57829003601f168201915b505050505081526020019060010190610c04565b5050505090509250925050915091565b60008060068381548110610ccf57fe5b60009182526020909120600d9091020190506003600a82015460ff166005811115610cf657fe5b148015610d1a57506001600a820154610100900460ff166003811115610d1857fe5b145b8015610d2b5750600c81015460ff16155b9392505050565b610d3a611ba4565b6000546001600160a01b03908116911614610d8a576040805162461bcd60e51b81526020600482018190526024820152600080516020612863833981519152604482015290519081900360640190fd5b600082118015610d9a5750600081115b8015610da557508082105b610dc15760405162461bcd60e51b81526004016105c2906125d4565b60408051808201909152828152602001819052600991909155600a55565b6000610de9611ba4565b6000546001600160a01b03908116911614610e39576040805162461bcd60e51b81526020600482018190526024820152600080516020612863833981519152604482015290519081900360640190fd5b60038210610e595760405162461bcd60e51b81526004016105c2906123d1565b610e62846110e6565b610e7e5760405162461bcd60e51b81526004016105c2906126cc565b600060068581548110610e8d57fe5b60009182526020909120600d9091020190506001600a82015460ff166005811115610eb457fe5b1415610ec357610ec385611ba8565b610ecd858561059a565b610ee95760405162461bcd60e51b81526004016105c29061230b565b610ef38585610885565b15610f105760405162461bcd60e51b81526004016105c290612609565b8060040154421115610f345760405162461bcd60e51b81526004016105c2906124ed565b60008581526007602090815260408083206001600160a01b03881684529091528120805461ff0019166101001781556001810185905590841415610f8c576008820154610f82906001611d91565b6008830155610fce565b6001841415610faf576006820154610fa5906001611d91565b6006830155610fce565b6002841415610247576007820154610fc8906001611d91565b60078301555b50600195945050505050565b610fe2611ba4565b6000546001600160a01b03908116911614611032576040805162461bcd60e51b81526020600482018190526024820152600080516020612863833981519152604482015290519081900360640190fd5b60065482106110535760405162461bcd60e51b81526004016105c290612342565b816000805160206128838339815191526006848154811061107057fe5b60009182526020909120600a600d90920201015460ff16600581111561109257fe5b836040516110a192919061271a565b60405180910390a26110b2816109ef565b600683815481106110bf57fe5b60009182526020909120600a600d9092020101805460ff191660018360058111156107b357fe5b600080600683815481106110f657fe5b60009182526020909120600d9091020190506002600a82015460ff16600581111561111d57fe5b14801561112e575042816004015410155b80610d2b57506001600a82015460ff16600581111561114957fe5b148015610d2b57506001015442101592915050565b60606006828154811061116d57fe5b90600052602060002090600d0201600b018054806020026020016040519081016040528092919081815260200182805480156111d257602002820191906000526020600020905b81546001600160a01b031681526001909101906020018083116111b4575b50505050509050919050565b6111e6611ba4565b6000546001600160a01b03908116911614611236576040805162461bcd60e51b81526020600482018190526024820152600080516020612863833981519152604482015290519081900360640190fd5b60006006828154811061124557fe5b60009182526020909120600d9091020190506002600a82015460ff16600581111561126c57fe5b146112895760405162461bcd60e51b81526004016105c29061249d565b42816004015411156112ad5760405162461bcd60e51b81526004016105c29061258b565b6112b8826005611977565b6112c382600361090b565b5050565b6000546001600160a01b031690565b600080600080600080600687815481106112ec57fe5b60009182526020909120600d909102018054600182015460038301546004840154600590940154929b919a509850919650945092505050565b60045481565b6000611335611ba4565b6000546001600160a01b03908116911614611385576040805162461bcd60e51b81526020600482018190526024820152600080516020612863833981519152604482015290519081900360640190fd5b6004548610156113a75760405162461bcd60e51b81526004016105c290612408565b506006546113b3611deb565b60016101408201818152600061016084018190526101a08401819052428085528a0160208501908152604085018a8152606086018381526080870184815260a0880185815261012089018d815260068054808b018255975289517ff652222313e28459528d920b65115c16c04f3efc82aaedc97be59f3f377c0d3f600d90980297880190815595517ff652222313e28459528d920b65115c16c04f3efc82aaedc97be59f3f377c0d4088015593517ff652222313e28459528d920b65115c16c04f3efc82aaedc97be59f3f377c0d4187015591517ff652222313e28459528d920b65115c16c04f3efc82aaedc97be59f3f377c0d42860155517ff652222313e28459528d920b65115c16c04f3efc82aaedc97be59f3f377c0d43850155517ff652222313e28459528d920b65115c16c04f3efc82aaedc97be59f3f377c0d4484015560c08601517ff652222313e28459528d920b65115c16c04f3efc82aaedc97be59f3f377c0d4584015560e08601517ff652222313e28459528d920b65115c16c04f3efc82aaedc97be59f3f377c0d468401556101008601517ff652222313e28459528d920b65115c16c04f3efc82aaedc97be59f3f377c0d47840155517ff652222313e28459528d920b65115c16c04f3efc82aaedc97be59f3f377c0d4883015591517ff652222313e28459528d920b65115c16c04f3efc82aaedc97be59f3f377c0d499091018054859460ff1991909116908360058111156115d457fe5b0217905550610160820151600a8201805461ff0019166101008360038111156115f957fe5b0217905550610180820151805161161a91600b840191602090910190611e65565b506101a09190910151600c909101805460ff19169115159190911790556000828152600860205260408120905b898110156116ea57818b8b8381811061165c57fe5b90506020020160208101906116719190611f9d565b815460018082018455600093845260209093200180546001600160a01b0319166001600160a01b039290921691909117905582018686838181106116b157fe5b90506020028101906116c391906127df565b8254600181018455600093845260209093206116e193019190611eca565b50600101611647565b505050979650505050505050565b6000806000806006858154811061170b57fe5b90600052602060002090600d02019050806006015481600701548260080154935093509350509193909250565b611740611ba4565b6000546001600160a01b03908116911614611790576040805162461bcd60e51b81526020600482018190526024820152600080516020612863833981519152604482015290519081900360640190fd5b600355565b61179d611ba4565b6000546001600160a01b039081169116146117ed576040805162461bcd60e51b81526020600482018190526024820152600080516020612863833981519152604482015290519081900360640190fd5b6001600160a01b0381166118135760405162461bcd60e51b81526004016105c29061254a565b600280546001600160a01b0319166001600160a01b0392909216919091179055565b6001546001600160a01b031681565b6006546000908190841061186a5760405162461bcd60e51b81526004016105c290612342565b505060008281526007602090815260408083206001600160a01b03851684529091529020805460019091015461010090910460ff16905b9250929050565b60055481565b6118b6611ba4565b6000546001600160a01b03908116911614611906576040805162461bcd60e51b81526020600482018190526024820152600080516020612863833981519152604482015290519081900360640190fd5b600455565b611913611ba4565b6000546001600160a01b03908116911614611963576040805162461bcd60e51b81526020600482018190526024820152600080516020612863833981519152604482015290519081900360640190fd5b600555565b6002546001600160a01b031681565b61197f611ba4565b6000546001600160a01b039081169116146119cf576040805162461bcd60e51b81526020600482018190526024820152600080516020612863833981519152604482015290519081900360640190fd5b6000600683815481106119de57fe5b90600052602060002090600d020190508260008051602061288383398151915282600a0160009054906101000a900460ff166005811115611a1b57fe5b846005811115611a2757fe5b604051611a3592919061271a565b60405180910390a2600a8101805483919060ff19166001836005811115611a5857fe5b0217905550505050565b6006546000908210611a865760405162461bcd60e51b81526004016105c290612456565b60068281548110611a9357fe5b90600052602060002090600d0201600101549050919050565b611ab4611ba4565b6000546001600160a01b03908116911614611b04576040805162461bcd60e51b81526020600482018190526024820152600080516020612863833981519152604482015290519081900360640190fd5b6001600160a01b038116611b495760405162461bcd60e51b815260040180806020018281038252602681526020018061283d6026913960400191505060405180910390fd5b600080546040516001600160a01b03808516939216917f8be0079c531659141344cd1fd0a4f28419497f9722a3daafe3b4186f6b6457e091a3600080546001600160a01b0319166001600160a01b0392909216919091179055565b3390565b600060068281548110611bb757fe5b90600052602060002090600d02019050428160030181905550611be7816002015442611d9190919063ffffffff16565b6004820155600a810180546002919060ff191660018302179055506002546040805162f8f26b60e21b815290516000926001600160a01b0316916303e3c9ac916004808301926020929190829003018186803b158015611c4657600080fd5b505afa158015611c5a573d6000803e3d6000fd5b505050506040513d601f19601f82011682018060405250810190611c7e9190612077565b905060005b81811015611d6e57600254604051632ed7846560e11b81526000916001600160a01b031690635daf08ca90611cbc908590600401612701565b60206040518083038186803b158015611cd457600080fd5b505afa158015611ce8573d6000803e3d6000fd5b505050506040513d601f19601f82011682018060405250810190611d0c9190611fb9565b600b85018054600181810183556000928352602080842090920180546001600160a01b039095166001600160a01b03199095168517905588835260078252604080842094845293909152919020805460ff191682179055919091019050611c83565b5082600080516020612883833981519152600160026040516109e292919061271a565b600082820183811015610d2b576040805162461bcd60e51b815260206004820152601b60248201527f536166654d6174683a206164646974696f6e206f766572666c6f770000000000604482015290519081900360640190fd5b604051806101c001604052806000815260200160008152602001600081526020016000815260200160008152602001600081526020016000815260200160008152602001600081526020016000815260200160006005811115611e4a57fe5b81526020016000815260606020820152600060409091015290565b828054828255906000526020600020908101928215611eba579160200282015b82811115611eba57825182546001600160a01b0319166001600160a01b03909116178255602090920191600190910190611e85565b50611ec6929150611f46565b5090565b828054600181600116156101000203166002900490600052602060002090601f016020900481019282611f005760008555611eba565b82601f10611f195782800160ff19823516178555611eba565b82800160010185558215611eba579182015b82811115611eba578235825591602001919060010190611f2b565b5b80821115611ec65760008155600101611f47565b60008083601f840112611f6c578182fd5b50813567ffffffffffffffff811115611f83578182fd5b60208301915083602080830285010111156118a157600080fd5b600060208284031215611fae578081fd5b8135610d2b81612824565b600060208284031215611fca578081fd5b8151610d2b81612824565b600080600080600080600060a0888a031215611fef578283fd5b873567ffffffffffffffff80821115612006578485fd5b6120128b838c01611f5b565b909950975060208a0135965060408a0135955060608a0135945060808a013591508082111561203f578384fd5b5061204c8a828b01611f5b565b989b979a50959850939692959293505050565b600060208284031215612070578081fd5b5035919050565b600060208284031215612088578081fd5b5051919050565b600080604083850312156120a1578182fd5b8235915060208301356120b381612824565b809150509250929050565b6000806000606084860312156120d2578283fd5b8335925060208401356120e481612824565b929592945050506040919091013590565b60008060408385031215612107578182fd5b823591506020830135600481106120b3578182fd5b6000806040838503121561212e578182fd5b823591506020830135600681106120b3578182fd5b60008060408385031215612155578182fd5b50508035926020909101359150565b6000815180845260208085019450808401835b8381101561219c5781516001600160a01b031687529582019590820190600101612177565b509495945050505050565b600681106121b157fe5b9052565b6001600160a01b0391909116815260200190565b600060208252610d2b6020830184612164565b6000604082526121ef6040830185612164565b602083820381850152818551808452828401915082838202850101838801865b8381101561227457601f1980888503018652825180518086528a5b81811015612245578281018a01518782018b0152890161222a565b81811115612255578b8a83890101525b5096880196601f0190911693909301860192509085019060010161220f565b50909998505050505050505050565b901515815260200190565b92151583529015156020830152604082015260600190565b9115158252602082015260400190565b602081016105f382846121a7565b60208082526027908201527f44414f4167656e64614d616e616765723a205f6167656e646149442069732069604082015266373b30b634b21760c91b606082015260800190565b60208082526019908201527f44414f436f6d6d69747465653a206e6f74206120766f74657200000000000000604082015260600190565b60208082526029908201527f44414f4167656e64614d616e616765723a204e6f7420612076616c69642050726040820152681bdc1bdcd85b08125960ba1b606082015260800190565b60208082526026908201527f44414f4167656e64614d616e616765723a20757365722061646472657373206960408201526573207a65726f60d01b606082015260800190565b6020808252601a908201527f44414f436f6d6d69747465653a20696e76616c696420766f7465000000000000604082015260600190565b6020808252602e908201527f44414f4167656e64614d616e616765723a206d696e696d756e4e6f746963655060408201526d195c9a5bd9081a5cc81cda1bdc9d60921b606082015260800190565b60208082526027908201527f44414f4167656e64614d616e616765723a204e6f7420612076616c6964204167604082015266195b991848125960ca1b606082015260800190565b60208082526030908201527f44414f4167656e64614d616e616765723a206167656e6461207374617475732060408201526f6973206e6f74206368616e6761626c6560801b606082015260800190565b6020808252603a908201527f44414f4167656e64614d616e616765723a20666f722074686973206167656e6460408201527f612c2074686520766f74696e672074696d652065787069726564000000000000606082015260800190565b60208082526021908201527f44414f4167656e64614d616e616765723a2061646472657373206973207a65726040820152606f60f81b606082015260800190565b60208082526029908201527f44414f4167656e64614d616e616765723a20766f74696e67206973206e6f7420604082015268195b991959081e595d60ba1b606082015260800190565b6020808252818101527f44414f4167656e64614d616e616765723a20696e76616c69642071756f72756d604082015260600190565b6020808252601b908201527f44414f436f6d6d69747465653a20616c726561647920766f7465640000000000604082015260600190565b60208082526022908201527f44414f4167656e64614d616e616765723a20696e76616c6964206167656e64206040820152611a5960f21b606082015260800190565b6020808252602a908201527f44414f4167656e64614d616e616765723a204e6f7420612076616c6964205f6160408201526919d95b9918525108125960b21b606082015260800190565b6020808252818101527f44414f4167656e64614d616e616765723a20696e76616c696420737461747573604082015260600190565b90815260200190565b9182521515602082015260400190565b918252602082015260400190565b9283526020830191909152604082015260600190565b948552602085019390935260408401919091526060830152608082015260a00190565b60006101a0820190508e82528d60208301528c60408301528b60608301528a60808301528960a08301528860c08301528760e083015286610100830152856101208301526127b36101408301866121a7565b600484106127bd57fe5b836101608301528215156101808301529e9d5050505050505050505050505050565b6000808335601e198436030181126127f5578283fd5b83018035915067ffffffffffffffff82111561280f578283fd5b6020019150368190038213156118a157600080fd5b6001600160a01b038116811461283957600080fd5b5056fe4f776e61626c653a206e6577206f776e657220697320746865207a65726f20616464726573734f776e61626c653a2063616c6c6572206973206e6f7420746865206f776e657227e1508d1d92ba0e1e406fad0138e0f3dd44688f5018dbe7f5718da02931eb7ca26469706673582212201799cb20a3918ad7e33dda10b97d90ca67d8e634fae545d3718cc90622ae7b6264736f6c63430007060033",
  "immutableReferences": {},
  "source": "// SPDX-License-Identifier: MIT\npragma solidity ^0.7.6;\npragma abicoder v2;\n\nimport { SafeMath } from \"../../node_modules/@openzeppelin/contracts/math/SafeMath.sol\";\nimport { IERC20 } from  \"../../node_modules/@openzeppelin/contracts/token/ERC20/IERC20.sol\";\nimport { IDAOCommittee } from \"../interfaces/IDAOCommittee.sol\";\nimport { LibAgenda } from \"../lib/Agenda.sol\";\nimport \"../../node_modules/@openzeppelin/contracts/access/Ownable.sol\";\n\ncontract DAOAgendaManager is Ownable {\n    using SafeMath for uint256;\n    using LibAgenda for *;\n\n    enum VoteChoice { ABSTAIN, YES, NO, MAX }\n\n    struct Ratio {\n        uint256 numerator;\n        uint256 denominator;\n    }\n    \n    address public ton;\n    IDAOCommittee public committee;\n    \n    uint256 public createAgendaFees; // (TON)\n    \n    uint256 public minimunNoticePeriodSeconds;\n    uint256 public minimunVotingPeriodSeconds;\n    \n    LibAgenda.Agenda[] public agendas;\n    mapping(uint256 => mapping(address => LibAgenda.Voter)) public voterInfos;\n    mapping(uint256 => LibAgenda.AgendaExecutionInfo) internal executionInfos;\n    \n    Ratio public quorum;\n    \n    event AgendaStatusChanged(\n        uint256 indexed agendaID,\n        uint256 prevStatus,\n        uint256 newStatus\n    );\n\n    event AgendaResultChanged(\n        uint256 indexed agendaID,\n        uint256 result\n    );\n\n    modifier validAgenda(uint256 _agendaID) {\n        require(_agendaID < agendas.length, \"DAOAgendaManager: invalid agenda id\");\n        _;\n    }\n    \n    constructor(address _ton/*, address _activityRewardManager*/) {\n        minimunNoticePeriodSeconds = 60 * 60 * 24 * 15; //  15 days , on seconds\n        minimunVotingPeriodSeconds = 60 * 60 * 24 * 2; //  2 days , on seconds\n        \n        createAgendaFees = 100000000000000000000; // 100 TON\n        quorum = Ratio(2, 3);\n        ton = _ton;\n        //numAgendas = 0;\n    }\n\n    function getStatus(uint _status) public pure returns (LibAgenda.AgendaStatus emnustatus) {\n        if (_status == uint(LibAgenda.AgendaStatus.NOTICE))\n            return LibAgenda.AgendaStatus.NOTICE;\n        else if (_status == uint(LibAgenda.AgendaStatus.VOTING))\n            return LibAgenda.AgendaStatus.VOTING;\n        else if (_status == uint(LibAgenda.AgendaStatus.EXECUTED))\n            return LibAgenda.AgendaStatus.EXECUTED;\n        else if (_status == uint(LibAgenda.AgendaStatus.ENDED))\n            return LibAgenda.AgendaStatus.ENDED;\n        else\n            return LibAgenda.AgendaStatus.NONE;\n    }\n\n    function setCommittee(address _committee) public onlyOwner {\n        require(_committee != address(0), \"DAOAgendaManager: address is zero\");\n        committee = IDAOCommittee(_committee);\n    }\n\n    function setStatus(uint256 _agendaID, uint _status) public onlyOwner {\n        require(_agendaID < agendas.length, \"DAOAgendaManager: Not a valid Proposal Id\");\n\n        emit AgendaStatusChanged(_agendaID, uint(agendas[_agendaID].status), _status);\n        agendas[_agendaID].status = getStatus(_status);\n    }\n\n    function setCreateAgendaFees(uint256 _createAgendaFees) public onlyOwner {\n        createAgendaFees = _createAgendaFees;\n    }\n\n    function setMinimunNoticePeriodSeconds(uint256 _minimunNoticePeriodSeconds) public onlyOwner {\n        minimunNoticePeriodSeconds = _minimunNoticePeriodSeconds;\n    }\n\n    function setMinimunVotingPeriodSeconds(uint256 _minimunVotingPeriodSeconds) public onlyOwner {\n        minimunVotingPeriodSeconds = _minimunVotingPeriodSeconds;\n    }\n      \n    function setQuorum(uint256 quorumNumerator, uint256 quorumDenominator) public onlyOwner {\n        require(quorumNumerator > 0 && quorumDenominator > 0 && quorumNumerator < quorumDenominator, \"DAOAgendaManager: invalid quorum\");\n        quorum = Ratio(quorumNumerator,quorumDenominator);\n    }\n    \n    function hasVoted(uint256 _agendaID, address _user) public view returns (bool) {\n        require(_agendaID < agendas.length, \"DAOAgendaManager: Not a valid Proposal Id\");\n        return voterInfos[_agendaID][_user].hasVoted;\n    }\n\n    function getVoteStatus(uint256 _agendaID, address _user) public view returns (bool, uint256) {\n        require(_agendaID < agendas.length, \"DAOAgendaManager: Not a valid Proposal Id\");\n        \n        LibAgenda.Voter storage voter = voterInfos[_agendaID][_user];\n\n        return (\n            voter.hasVoted,\n            voter.vote\n        );\n    }\n    \n    function getAgendaNoticeEndTimeSeconds(uint256 _agendaID) public view returns (uint) {\n        require(_agendaID < agendas.length, \"DAOAgendaManager: Not a valid Agenda Id\");\n        return agendas[_agendaID].noticeEndTimestamp;\n    }\n    \n    function getAgendaVotingStartTimeSeconds(uint256 _agendaID) public view returns (uint) {\n        require(_agendaID < agendas.length, \"DAOAgendaManager: Not a valid Agenda Id\");\n        return agendas[_agendaID].votingStartedTimestamp;\n    }\n\n    function getAgendaVotingEndTimeSeconds(uint256 _agendaID) public view returns (uint) {\n        require(_agendaID < agendas.length, \"DAOAgendaManager: Not a valid Agenda Id\");\n        return agendas[_agendaID].votingEndTimestamp;\n    }\n\n    function canExecuteAgenda(uint256 _agendaID) public view returns (bool) {\n        LibAgenda.Agenda storage agenda = agendas[_agendaID];\n\n        return agenda.status == LibAgenda.AgendaStatus.WAITING_EXEC &&\n            agenda.result == LibAgenda.AgendaResult.ACCEPT &&\n            agenda.executed == false;\n\n        /*require(agenda.status == uint(LibAgenda.AgendaStatus.WAITING_EXEC), \"DAOAgendaManager: agenda status must be WAITING_EXEC.\");\n        //require(agenda.votingEndTimestamp < block.timestamp, \"DAOAgendaManager: for this agenda, the voting time is not expired\");\n        require(agenda.result == LibAgenda.AgendaResult.ACCEPT, \"DAOAgendaManager: for this agenda, not accept\");\n        require(agenda.executed == false, \"DAOAgendaManager: already executed agenda\");*/\n    }\n    \n    function getAgendaStatus(uint256 _agendaID) public view returns (uint status) {\n        require(_agendaID < agendas.length, \"DAOAgendaManager: invalid agend id\");\n        return uint(agendas[_agendaID].status);\n    }\n\n    function totalAgendas() public view returns (uint256) {\n        return agendas.length;\n    }\n\n    function getAgendaResult(uint256 _agendaID) public view returns (uint result, bool executed) {\n        require(_agendaID < agendas.length, \"DAOAgendaManager: Not a valid _agendaID Id\");\n        return (uint(agendas[_agendaID].result), agendas[_agendaID].executed);\n    }\n   \n    function newAgenda(\n        address[] calldata _targets,\n        uint256 _noticePeriodSeconds,\n        uint256 _votingPeriodSeconds,\n        uint256 _reward,\n        bytes[] calldata _functionBytecodes\n    )\n        onlyOwner\n        public\n        returns (uint256 agendaID)\n    {\n        require(_noticePeriodSeconds >= minimunNoticePeriodSeconds, \"DAOAgendaManager: minimunNoticePeriod is short\");\n        agendaID = agendas.length;\n         \n        LibAgenda.Agenda memory p;\n        p.status = LibAgenda.AgendaStatus.NOTICE;\n        p.result = LibAgenda.AgendaResult.PENDING;\n        p.executed = false;\n        p.createdTimestamp = block.timestamp;\n        p.noticeEndTimestamp = block.timestamp + _noticePeriodSeconds;\n        p.votingPeriodInSeconds = _votingPeriodSeconds;\n        p.votingStartedTimestamp = 0;\n        p.votingEndTimestamp = 0;\n        p.executedTimestamp = 0;\n        p.reward = _reward;\n        \n        agendas.push(p);\n\n        LibAgenda.AgendaExecutionInfo storage executionInfo = executionInfos[agendaID];\n        for (uint256 i = 0; i < _targets.length; i++) {\n            executionInfo.targets.push(_targets[i]);\n            executionInfo.functionBytecodes.push(_functionBytecodes[i]);\n        }\n\n        //numAgendas = agendas.length;\n        //agendaID = numAgendas.sub(1);\n    }\n\n    /*function startVoting(uint256 _agendaID) public {\n        LibAgenda.Agenda storage agenda = agendas[_agendaID];\n        require(\n            agenda.status == LibAgenda.AgendaStatus.NOTICE,\n            \"DAOAgendaManager: invalid status\"\n        );\n        require(\n            agenda.noticeEndTimestamp <= block.timestamp,\n            \"DAOAgendaManager: can not start voting yet\"\n        );\n\n        agenda.votingStartedTimestamp = block.timestamp;\n        agenda.votingEndTimestamp = block.timestamp.add(agenda.votingPeriodInSeconds);\n        agenda.status = LibAgenda.AgendaStatus.VOTING;\n\n        uint256 memberCount = committee.maxMember();\n        for (uint256 i = 0; i < memberCount; i++) {\n            address voter = committee.members(i);\n            agenda.voters.push(voter);\n            voterInfos[_agendaID][voter].isVoter = true;\n        }\n\n        emit AgendaStatusChanged(_agendaID, uint(LibAgenda.AgendaStatus.NOTICE), uint(LibAgenda.AgendaStatus.VOTING));\n    }*/\n\n    function isVoter(uint256 _agendaID, address _user) public view returns (bool) {\n        require(_user != address(0), \"DAOAgendaManager: user address is zero\");\n        return voterInfos[_agendaID][_user].isVoter;\n    }\n    \n    function castVote(\n        uint256 _agendaID,\n        address _voter,\n        uint _vote\n    )\n        public\n        onlyOwner\n        returns (bool)\n    {\n        require(_vote < uint(VoteChoice.MAX), \"DAOCommittee: invalid vote\");\n\n        require(\n            isVotableStatus(_agendaID),\n            \"DAOAgendaManager: invalid status\"\n        );\n\n        LibAgenda.Agenda storage agenda = agendas[_agendaID];\n\n        if (agenda.status == LibAgenda.AgendaStatus.NOTICE) {\n            _startVoting(_agendaID);\n        }\n\n        require(isVoter(_agendaID, _voter), \"DAOCommittee: not a voter\");\n        require(!hasVoted(_agendaID, _voter), \"DAOCommittee: already voted\");\n\n        require(\n            block.timestamp <= agenda.votingEndTimestamp,\n            \"DAOAgendaManager: for this agenda, the voting time expired\"\n        );\n        \n        LibAgenda.Voter storage voter = voterInfos[_agendaID][_voter];\n        voter.hasVoted = true;\n        voter.vote = _vote;\n             \n        // counting 0:abstainVotes 1:yesVotes 2:noVotes\n        if (_vote == uint(VoteChoice.ABSTAIN))\n            agenda.countingAbstain = agenda.countingAbstain.add(1);\n        else if (_vote == uint(VoteChoice.YES))\n            agenda.countingYes = agenda.countingYes.add(1);\n        else if (_vote == uint(VoteChoice.NO))\n            agenda.countingNo = agenda.countingNo.add(1);\n        else\n            revert();\n        \n        return true;\n    }\n    \n    function setExecutedAgenda(uint256 _agendaID)\n        public\n        onlyOwner\n    {\n        require(_agendaID < agendas.length, \"DAOAgendaManager: _agendaID is invalid.\");\n\n        LibAgenda.Agenda storage agenda = agendas[_agendaID];\n        agenda.executed = true;\n        agenda.executedTimestamp = block.timestamp;\n\n        emit AgendaStatusChanged(_agendaID, uint(agenda.status), uint(LibAgenda.AgendaStatus.EXECUTED));\n\n        agenda.status = LibAgenda.AgendaStatus.EXECUTED;\n    }\n\n    function _startVoting(uint256 _agendaID) internal {\n        LibAgenda.Agenda storage agenda = agendas[_agendaID];\n\n        agenda.votingStartedTimestamp = block.timestamp;\n        agenda.votingEndTimestamp = block.timestamp.add(agenda.votingPeriodInSeconds);\n        agenda.status = LibAgenda.AgendaStatus.VOTING;\n\n        uint256 memberCount = committee.maxMember();\n        for (uint256 i = 0; i < memberCount; i++) {\n            address voter = committee.members(i);\n            agenda.voters.push(voter);\n            voterInfos[_agendaID][voter].isVoter = true;\n        }\n\n        emit AgendaStatusChanged(_agendaID, uint(LibAgenda.AgendaStatus.NOTICE), uint(LibAgenda.AgendaStatus.VOTING));\n    }\n    \n    function checkAndEndVoting(uint256 _agendaID) internal {\n        LibAgenda.Agenda storage agenda = agendas[_agendaID];\n\n        require(\n            agenda.status == LibAgenda.AgendaStatus.VOTING,\n            \"DAOAgendaManager: status is not voting.\"\n        );\n    }\n\n    function setResult(uint256 _agendaID, LibAgenda.AgendaResult _result)\n        public\n        onlyOwner\n    {\n        LibAgenda.Agenda storage agenda = agendas[_agendaID];\n        agenda.result = _result;\n\n        emit AgendaResultChanged(_agendaID, uint256(_result));\n    }\n     \n    function setStatus(uint256 _agendaID, LibAgenda.AgendaStatus _status)\n        public\n        onlyOwner\n    {\n        LibAgenda.Agenda storage agenda = agendas[_agendaID];\n\n        emit AgendaStatusChanged(_agendaID, uint256(agenda.status), uint256(_status));\n        agenda.status = _status;\n    }\n\n    function endAgendaVoting(uint256 _agendaID)\n        public\n        onlyOwner\n    {\n        LibAgenda.Agenda storage agenda = agendas[_agendaID];\n\n        require(\n            agenda.status == LibAgenda.AgendaStatus.VOTING,\n            \"DAOAgendaManager: agenda status is not changable\"\n        );\n\n        require(\n            agenda.votingEndTimestamp <= block.timestamp,\n            \"DAOAgendaManager: voting is not ended yet\"\n        );\n\n        setStatus(_agendaID, LibAgenda.AgendaStatus.ENDED);\n        setResult(_agendaID, LibAgenda.AgendaResult.DISMISS);\n    }\n     \n    function getExecutionInfo(uint256 _agendaID)\n        public\n        view\n        returns(\n            address[] memory target,\n            bytes[] memory functionBytecode\n        )\n    {\n        LibAgenda.AgendaExecutionInfo storage agenda = executionInfos[_agendaID];\n        return (\n            agenda.targets,\n            agenda.functionBytecodes\n        );\n    }\n\n    function isVotableStatus(uint256 _agendaID) public view returns (bool) {\n        LibAgenda.Agenda storage agenda = agendas[_agendaID];\n        return (agenda.status == LibAgenda.AgendaStatus.VOTING &&\n                agenda.votingEndTimestamp >= block.timestamp) ||\n            (agenda.status == LibAgenda.AgendaStatus.NOTICE &&\n                agenda.noticeEndTimestamp <= block.timestamp);\n\n    }\n\n    function getVotingCount(uint256 _agendaID)\n        public\n        view\n        returns (\n            uint256 countingYes,\n            uint256 countingNo,\n            uint256 countingAbstain\n        )\n    {\n        LibAgenda.Agenda storage agenda = agendas[_agendaID];\n        return (\n            agenda.countingYes,\n            agenda.countingNo,\n            agenda.countingAbstain\n        );\n    }\n\n    function getAgendaTimestamps(uint256 _agendaID)\n        public\n        view\n        returns (\n            uint256 createdTimestamp,\n            uint256 noticeEndTimestamp,\n            uint256 votingStartedTimestamp,\n            uint256 votingEndTimestamp,\n            uint256 executedTimestamp\n        )\n    {\n        LibAgenda.Agenda storage agenda = agendas[_agendaID];\n        return (\n            agenda.createdTimestamp,\n            agenda.noticeEndTimestamp,\n            agenda.votingStartedTimestamp,\n            agenda.votingEndTimestamp,\n            agenda.executedTimestamp\n        );\n    }\n\n    function numAgendas() public view returns (uint256) {\n        return agendas.length;\n    }\n\n    function getVoters(uint256 _agendaID) public view returns (address[] memory) {\n        return agendas[_agendaID].voters;\n    }\n}\n",
  "sourcePath": "/data/github/onther/tokamak-dao-contracts3/contracts/dao/DAOAgendaManager.sol",
  "compiler": {
    "name": "solc",
    "version": "0.7.6+commit.7338295f.Emscripten.clang"
  },
  "schemaVersion": "3.3.2",
  "updatedAt": "2021-01-19T05:03:17.991Z",
  "networkType": "ethereum",
  "devdoc": {
    "kind": "dev",
    "methods": {
      "owner()": {
        "details": "Returns the address of the current owner."
      },
      "renounceOwnership()": {
        "details": "Leaves the contract without owner. It will not be possible to call `onlyOwner` functions anymore. Can only be called by the current owner. NOTE: Renouncing ownership will leave the contract without an owner, thereby removing any functionality that is only available to the owner."
      },
      "transferOwnership(address)": {
        "details": "Transfers ownership of the contract to a new account (`newOwner`). Can only be called by the current owner."
      }
    },
    "version": 1
  },
  "userdoc": {
    "kind": "user",
    "methods": {},
    "version": 1
  }
}