{
  "contractName": "DAOAgendaManager",
  "abi": [
    {
      "inputs": [],
      "stateMutability": "nonpayable",
      "type": "constructor"
    },
    {
      "anonymous": false,
      "inputs": [
        {
          "indexed": true,
          "internalType": "uint256",
          "name": "agendaID",
          "type": "uint256"
        },
        {
          "indexed": false,
          "internalType": "uint256",
          "name": "result",
          "type": "uint256"
        }
      ],
      "name": "AgendaResultChanged",
      "type": "event"
    },
    {
      "anonymous": false,
      "inputs": [
        {
          "indexed": true,
          "internalType": "uint256",
          "name": "agendaID",
          "type": "uint256"
        },
        {
          "indexed": false,
          "internalType": "uint256",
          "name": "prevStatus",
          "type": "uint256"
        },
        {
          "indexed": false,
          "internalType": "uint256",
          "name": "newStatus",
          "type": "uint256"
        }
      ],
      "name": "AgendaStatusChanged",
      "type": "event"
    },
    {
      "anonymous": false,
      "inputs": [
        {
          "indexed": true,
          "internalType": "address",
          "name": "previousOwner",
          "type": "address"
        },
        {
          "indexed": true,
          "internalType": "address",
          "name": "newOwner",
          "type": "address"
        }
      ],
      "name": "OwnershipTransferred",
      "type": "event"
    },
    {
      "inputs": [
        {
          "internalType": "uint256",
          "name": "",
          "type": "uint256"
        }
      ],
      "name": "agendas",
      "outputs": [
        {
          "internalType": "uint256",
          "name": "createdTimestamp",
          "type": "uint256"
        },
        {
          "internalType": "uint256",
          "name": "noticeEndTimestamp",
          "type": "uint256"
        },
        {
          "internalType": "uint256",
          "name": "votingPeriodInSeconds",
          "type": "uint256"
        },
        {
          "internalType": "uint256",
          "name": "votingStartedTimestamp",
          "type": "uint256"
        },
        {
          "internalType": "uint256",
          "name": "votingEndTimestamp",
          "type": "uint256"
        },
        {
          "internalType": "uint256",
          "name": "executedTimestamp",
          "type": "uint256"
        },
        {
          "internalType": "uint256",
          "name": "countingYes",
          "type": "uint256"
        },
        {
          "internalType": "uint256",
          "name": "countingNo",
          "type": "uint256"
        },
        {
          "internalType": "uint256",
          "name": "countingAbstain",
          "type": "uint256"
        },
        {
          "internalType": "uint256",
          "name": "reward",
          "type": "uint256"
        },
        {
          "internalType": "enum LibAgenda.AgendaStatus",
          "name": "status",
          "type": "uint8"
        },
        {
          "internalType": "enum LibAgenda.AgendaResult",
          "name": "result",
          "type": "uint8"
        },
        {
          "internalType": "bool",
          "name": "executed",
          "type": "bool"
        }
      ],
      "stateMutability": "view",
      "type": "function",
      "constant": true
    },
    {
      "inputs": [],
      "name": "committee",
      "outputs": [
        {
          "internalType": "contract IDAOCommittee",
          "name": "",
          "type": "address"
        }
      ],
      "stateMutability": "view",
      "type": "function",
      "constant": true
    },
    {
      "inputs": [],
      "name": "createAgendaFees",
      "outputs": [
        {
          "internalType": "uint256",
          "name": "",
          "type": "uint256"
        }
      ],
      "stateMutability": "view",
      "type": "function",
      "constant": true
    },
    {
      "inputs": [],
      "name": "minimumNoticePeriodSeconds",
      "outputs": [
        {
          "internalType": "uint256",
          "name": "",
          "type": "uint256"
        }
      ],
      "stateMutability": "view",
      "type": "function",
      "constant": true
    },
    {
      "inputs": [],
      "name": "minimumVotingPeriodSeconds",
      "outputs": [
        {
          "internalType": "uint256",
          "name": "",
          "type": "uint256"
        }
      ],
      "stateMutability": "view",
      "type": "function",
      "constant": true
    },
    {
      "inputs": [],
      "name": "owner",
      "outputs": [
        {
          "internalType": "address",
          "name": "",
          "type": "address"
        }
      ],
      "stateMutability": "view",
      "type": "function",
      "constant": true
    },
    {
      "inputs": [],
      "name": "renounceOwnership",
      "outputs": [],
      "stateMutability": "nonpayable",
      "type": "function"
    },
    {
      "inputs": [
        {
          "internalType": "address",
          "name": "newOwner",
          "type": "address"
        }
      ],
      "name": "transferOwnership",
      "outputs": [],
      "stateMutability": "nonpayable",
      "type": "function"
    },
    {
      "inputs": [
        {
          "internalType": "uint256",
          "name": "",
          "type": "uint256"
        },
        {
          "internalType": "address",
          "name": "",
          "type": "address"
        }
      ],
      "name": "voterInfos",
      "outputs": [
        {
          "internalType": "bool",
          "name": "isVoter",
          "type": "bool"
        },
        {
          "internalType": "bool",
          "name": "hasVoted",
          "type": "bool"
        },
        {
          "internalType": "uint256",
          "name": "vote",
          "type": "uint256"
        }
      ],
      "stateMutability": "view",
      "type": "function",
      "constant": true
    },
    {
      "inputs": [
        {
          "internalType": "uint256",
          "name": "_status",
          "type": "uint256"
        }
      ],
      "name": "getStatus",
      "outputs": [
        {
          "internalType": "enum LibAgenda.AgendaStatus",
          "name": "emnustatus",
          "type": "uint8"
        }
      ],
      "stateMutability": "pure",
      "type": "function",
      "constant": true
    },
    {
      "inputs": [
        {
          "internalType": "address",
          "name": "_committee",
          "type": "address"
        }
      ],
      "name": "setCommittee",
      "outputs": [],
      "stateMutability": "nonpayable",
      "type": "function"
    },
    {
      "inputs": [
        {
          "internalType": "uint256",
          "name": "_createAgendaFees",
          "type": "uint256"
        }
      ],
      "name": "setCreateAgendaFees",
      "outputs": [],
      "stateMutability": "nonpayable",
      "type": "function"
    },
    {
      "inputs": [
        {
          "internalType": "uint256",
          "name": "_minimunNoticePeriodSeconds",
          "type": "uint256"
        }
      ],
      "name": "setMinimumNoticePeriodSeconds",
      "outputs": [],
      "stateMutability": "nonpayable",
      "type": "function"
    },
    {
      "inputs": [
        {
          "internalType": "uint256",
          "name": "_minimumVotingPeriodSeconds",
          "type": "uint256"
        }
      ],
      "name": "setMinimumVotingPeriodSeconds",
      "outputs": [],
      "stateMutability": "nonpayable",
      "type": "function"
    },
    {
      "inputs": [
        {
          "internalType": "uint256",
          "name": "_agendaID",
          "type": "uint256"
        },
        {
          "internalType": "address",
          "name": "_user",
          "type": "address"
        }
      ],
      "name": "hasVoted",
      "outputs": [
        {
          "internalType": "bool",
          "name": "",
          "type": "bool"
        }
      ],
      "stateMutability": "view",
      "type": "function",
      "constant": true
    },
    {
      "inputs": [
        {
          "internalType": "uint256",
          "name": "_agendaID",
          "type": "uint256"
        },
        {
          "internalType": "address",
          "name": "_user",
          "type": "address"
        }
      ],
      "name": "getVoteStatus",
      "outputs": [
        {
          "internalType": "bool",
          "name": "",
          "type": "bool"
        },
        {
          "internalType": "uint256",
          "name": "",
          "type": "uint256"
        }
      ],
      "stateMutability": "view",
      "type": "function",
      "constant": true
    },
    {
      "inputs": [
        {
          "internalType": "uint256",
          "name": "_agendaID",
          "type": "uint256"
        }
      ],
      "name": "getAgendaNoticeEndTimeSeconds",
      "outputs": [
        {
          "internalType": "uint256",
          "name": "",
          "type": "uint256"
        }
      ],
      "stateMutability": "view",
      "type": "function",
      "constant": true
    },
    {
      "inputs": [
        {
          "internalType": "uint256",
          "name": "_agendaID",
          "type": "uint256"
        }
      ],
      "name": "getAgendaVotingStartTimeSeconds",
      "outputs": [
        {
          "internalType": "uint256",
          "name": "",
          "type": "uint256"
        }
      ],
      "stateMutability": "view",
      "type": "function",
      "constant": true
    },
    {
      "inputs": [
        {
          "internalType": "uint256",
          "name": "_agendaID",
          "type": "uint256"
        }
      ],
      "name": "getAgendaVotingEndTimeSeconds",
      "outputs": [
        {
          "internalType": "uint256",
          "name": "",
          "type": "uint256"
        }
      ],
      "stateMutability": "view",
      "type": "function",
      "constant": true
    },
    {
      "inputs": [
        {
          "internalType": "uint256",
          "name": "_agendaID",
          "type": "uint256"
        }
      ],
      "name": "canExecuteAgenda",
      "outputs": [
        {
          "internalType": "bool",
          "name": "",
          "type": "bool"
        }
      ],
      "stateMutability": "view",
      "type": "function",
      "constant": true
    },
    {
      "inputs": [
        {
          "internalType": "uint256",
          "name": "_agendaID",
          "type": "uint256"
        }
      ],
      "name": "getAgendaStatus",
      "outputs": [
        {
          "internalType": "uint256",
          "name": "status",
          "type": "uint256"
        }
      ],
      "stateMutability": "view",
      "type": "function",
      "constant": true
    },
    {
      "inputs": [],
      "name": "totalAgendas",
      "outputs": [
        {
          "internalType": "uint256",
          "name": "",
          "type": "uint256"
        }
      ],
      "stateMutability": "view",
      "type": "function",
      "constant": true
    },
    {
      "inputs": [
        {
          "internalType": "uint256",
          "name": "_agendaID",
          "type": "uint256"
        }
      ],
      "name": "getAgendaResult",
      "outputs": [
        {
          "internalType": "uint256",
          "name": "result",
          "type": "uint256"
        },
        {
          "internalType": "bool",
          "name": "executed",
          "type": "bool"
        }
      ],
      "stateMutability": "view",
      "type": "function",
      "constant": true
    },
    {
      "inputs": [
        {
          "internalType": "address[]",
          "name": "_targets",
          "type": "address[]"
        },
        {
          "internalType": "uint256",
          "name": "_noticePeriodSeconds",
          "type": "uint256"
        },
        {
          "internalType": "uint256",
          "name": "_votingPeriodSeconds",
          "type": "uint256"
        },
        {
          "internalType": "uint256",
          "name": "_reward",
          "type": "uint256"
        },
        {
          "internalType": "bytes[]",
          "name": "_functionBytecodes",
          "type": "bytes[]"
        }
      ],
      "name": "newAgenda",
      "outputs": [
        {
          "internalType": "uint256",
          "name": "agendaID",
          "type": "uint256"
        }
      ],
      "stateMutability": "nonpayable",
      "type": "function"
    },
    {
      "inputs": [
        {
          "internalType": "uint256",
          "name": "_agendaID",
          "type": "uint256"
        },
        {
          "internalType": "address",
          "name": "_user",
          "type": "address"
        }
      ],
      "name": "isVoter",
      "outputs": [
        {
          "internalType": "bool",
          "name": "",
          "type": "bool"
        }
      ],
      "stateMutability": "view",
      "type": "function",
      "constant": true
    },
    {
      "inputs": [
        {
          "internalType": "uint256",
          "name": "_agendaID",
          "type": "uint256"
        },
        {
          "internalType": "address",
          "name": "_voter",
          "type": "address"
        },
        {
          "internalType": "uint256",
          "name": "_vote",
          "type": "uint256"
        }
      ],
      "name": "castVote",
      "outputs": [
        {
          "internalType": "bool",
          "name": "",
          "type": "bool"
        }
      ],
      "stateMutability": "nonpayable",
      "type": "function"
    },
    {
      "inputs": [
        {
          "internalType": "uint256",
          "name": "_agendaID",
          "type": "uint256"
        }
      ],
      "name": "setExecutedAgenda",
      "outputs": [],
      "stateMutability": "nonpayable",
      "type": "function"
    },
    {
      "inputs": [
        {
          "internalType": "uint256",
          "name": "_agendaID",
          "type": "uint256"
        },
        {
          "internalType": "enum LibAgenda.AgendaResult",
          "name": "_result",
          "type": "uint8"
        }
      ],
      "name": "setResult",
      "outputs": [],
      "stateMutability": "nonpayable",
      "type": "function"
    },
    {
      "inputs": [
        {
          "internalType": "uint256",
          "name": "_agendaID",
          "type": "uint256"
        },
        {
          "internalType": "uint256",
          "name": "_status",
          "type": "uint256"
        }
      ],
      "name": "setStatus",
      "outputs": [],
      "stateMutability": "nonpayable",
      "type": "function"
    },
    {
      "inputs": [
        {
          "internalType": "uint256",
          "name": "_agendaID",
          "type": "uint256"
        },
        {
          "internalType": "enum LibAgenda.AgendaStatus",
          "name": "_status",
          "type": "uint8"
        }
      ],
      "name": "setStatus",
      "outputs": [],
      "stateMutability": "nonpayable",
      "type": "function"
    },
    {
      "inputs": [
        {
          "internalType": "uint256",
          "name": "_agendaID",
          "type": "uint256"
        }
      ],
      "name": "endAgendaVoting",
      "outputs": [],
      "stateMutability": "nonpayable",
      "type": "function"
    },
    {
      "inputs": [
        {
          "internalType": "uint256",
          "name": "_agendaID",
          "type": "uint256"
        }
      ],
      "name": "getExecutionInfo",
      "outputs": [
        {
          "internalType": "address[]",
          "name": "target",
          "type": "address[]"
        },
        {
          "internalType": "bytes[]",
          "name": "functionBytecode",
          "type": "bytes[]"
        }
      ],
      "stateMutability": "view",
      "type": "function",
      "constant": true
    },
    {
      "inputs": [
        {
          "internalType": "uint256",
          "name": "_agendaID",
          "type": "uint256"
        }
      ],
      "name": "isVotableStatus",
      "outputs": [
        {
          "internalType": "bool",
          "name": "",
          "type": "bool"
        }
      ],
      "stateMutability": "view",
      "type": "function",
      "constant": true
    },
    {
      "inputs": [
        {
          "internalType": "uint256",
          "name": "_agendaID",
          "type": "uint256"
        }
      ],
      "name": "getVotingCount",
      "outputs": [
        {
          "internalType": "uint256",
          "name": "countingYes",
          "type": "uint256"
        },
        {
          "internalType": "uint256",
          "name": "countingNo",
          "type": "uint256"
        },
        {
          "internalType": "uint256",
          "name": "countingAbstain",
          "type": "uint256"
        }
      ],
      "stateMutability": "view",
      "type": "function",
      "constant": true
    },
    {
      "inputs": [
        {
          "internalType": "uint256",
          "name": "_agendaID",
          "type": "uint256"
        }
      ],
      "name": "getAgendaTimestamps",
      "outputs": [
        {
          "internalType": "uint256",
          "name": "createdTimestamp",
          "type": "uint256"
        },
        {
          "internalType": "uint256",
          "name": "noticeEndTimestamp",
          "type": "uint256"
        },
        {
          "internalType": "uint256",
          "name": "votingStartedTimestamp",
          "type": "uint256"
        },
        {
          "internalType": "uint256",
          "name": "votingEndTimestamp",
          "type": "uint256"
        },
        {
          "internalType": "uint256",
          "name": "executedTimestamp",
          "type": "uint256"
        }
      ],
      "stateMutability": "view",
      "type": "function",
      "constant": true
    },
    {
      "inputs": [],
      "name": "numAgendas",
      "outputs": [
        {
          "internalType": "uint256",
          "name": "",
          "type": "uint256"
        }
      ],
      "stateMutability": "view",
      "type": "function",
      "constant": true
    },
    {
      "inputs": [
        {
          "internalType": "uint256",
          "name": "_agendaID",
          "type": "uint256"
        }
      ],
      "name": "getVoters",
      "outputs": [
        {
          "internalType": "address[]",
          "name": "",
          "type": "address[]"
        }
      ],
      "stateMutability": "view",
      "type": "function",
      "constant": true
    }
  ],
  "bytecode": "0x608060405234801561001057600080fd5b50600061001b610085565b600080546001600160a01b0319166001600160a01b0383169081178255604051929350917f8be0079c531659141344cd1fd0a4f28419497f9722a3daafe3b4186f6b6457e0908290a3506213c6806003556202a30060045568056bc75e2d63100000600255610089565b3390565b61278f806100986000396000f3fe608060405234801561001057600080fd5b50600436106102265760003560e01c80637e77eb2311610130578063b4f69b6a116100b8578063d896dd641161007c578063d896dd6414610507578063de6bd3861461051a578063e3bc145f14610366578063e3c361561461052d578063f2fde38b1461053557610226565b8063b4f69b6a146104a5578063bddae40e146104b8578063c0bc5304146104cb578063cdeed605146104de578063d864e740146104ff57610226565b8063885b4696116100ff578063885b4696146104245780638da5cb5b146104375780638e3f5f831461044c578063921d383a14610470578063aee4a42a1461048357610226565b80637e77eb23146103cb57806382e40813146103de5780638425a46d146103f157806386b646f21461040457610226565b806343859632116101b3578063699cc35811610182578063699cc358146103665780636bcaab5e1461036e578063715018a61461038f57806373ba37451461039757806377f28d5b146103b857610226565b806343859632146102fe5780634a47f59b1461031157806356150a36146103335780635c622a0e1461034657610226565b8063284d776e116101fa578063284d776e14610286578063334bbf351461029957806337184a32146102ac5780633c4a819c146102bf5780633da2371f146102eb57610226565b8062b74c451461022b5780630af5aa3c1461025457806323d09fdf146102695780632522a32f1461027e575b600080fd5b61023e610239366004611f7b565b610548565b60405161024b919061216f565b60405180910390f35b61025c6105a7565b60405161024b91906125b8565b61027c610277366004611f4b565b6105ad565b005b61025c61060a565b61025c610294366004611f4b565b610610565b61025c6102a7366004611f4b565b61066b565b61027c6102ba366004611f4b565b6106b5565b6102d26102cd366004611f4b565b6107c4565b60405161024b9d9c9b9a99989796959493929190612618565b61025c6102f9366004611f4b565b610843565b61023e61030c366004611f7b565b61088d565b61032461031f366004611f7b565b6108e2565b60405161024b9392919061217a565b61027c610341366004611fe1565b610913565b610359610354366004611f4b565b6109f7565b60405161024b91906121a2565b61025c610a45565b61038161037c366004611f4b565b610a4b565b60405161024b9291906125c1565b61027c610ad6565b6103aa6103a5366004611f4b565b610b78565b60405161024b9291906120c8565b61023e6103c6366004611f4b565b610cc7565b61023e6103d9366004611faa565b610d3a565b61027c6103ec36600461202f565b610f35565b61023e6103ff366004611f4b565b611041565b610417610412366004611f4b565b6110b9565b60405161024b91906120b5565b61027c610432366004611f4b565b611139565b61043f611222565b60405161024b91906120a1565b61045f61045a366004611f4b565b611231565b60405161024b9594939291906125f5565b61025c61047e366004611ec1565b611280565b610496610491366004611f4b565b611653565b60405161024b939291906125df565b61027c6104b3366004611f4b565b611693565b61027c6104c6366004611e89565b6116f0565b61027c6104d9366004611f4b565b611790565b6104f16104ec366004611f7b565b6117ed565b60405161024b929190612192565b61043f611851565b61027c610515366004612008565b611860565b61025c610528366004611f4b565b61194b565b61025c611995565b61027c610543366004611e89565b61199b565b60006001600160a01b0382166105795760405162461bcd60e51b815260040161057090612277565b60405180910390fd5b5060008281526006602090815260408083206001600160a01b038516845290915290205460ff165b92915050565b60035481565b6105b5611a93565b6000546001600160a01b03908116911614610605576040805162461bcd60e51b8152602060048201819052602482015260008051602061271a833981519152604482015290519081900360640190fd5b600355565b60025481565b60055460009082106106345760405162461bcd60e51b8152600401610570906124a9565b6005828154811061064157fe5b60009182526020909120600a600d90920201015460ff16600581111561066357fe5b90505b919050565b600554600090821061068f5760405162461bcd60e51b8152600401610570906122f4565b6005828154811061069c57fe5b90600052602060002090600d0201600401549050919050565b6106bd611a93565b6000546001600160a01b0390811691161461070d576040805162461bcd60e51b8152602060048201819052602482015260008051602061271a833981519152604482015290519081900360640190fd5b600554811061072e5760405162461bcd60e51b8152600401610570906121b0565b60006005828154811061073d57fe5b60009182526020909120600c600d90920201908101805460ff1916600117905542600580830191909155600a820154919250839160008051602061273a8339815191529160ff919091169081111561079157fe5b60046040516107a19291906125d1565b60405180910390a2600a810180546004919060ff19166001835b02179055505050565b600581815481106107d457600080fd5b60009182526020909120600d9091020180546001820154600283015460038401546004850154600586015460068701546007880154600889015460098a0154600a8b0154600c909b0154999b509799969895979496939592949193909260ff808316926101009004811691168d565b60055460009082106108675760405162461bcd60e51b8152600401610570906122f4565b6005828154811061087457fe5b90600052602060002090600d0201600301549050919050565b60055460009083106108b15760405162461bcd60e51b81526004016105709061222e565b5060009182526006602090815260408084206001600160a01b03939093168452919052902054610100900460ff1690565b60066020908152600092835260408084209091529082529020805460019091015460ff808316926101009004169083565b61091b611a93565b6000546001600160a01b0390811691161461096b576040805162461bcd60e51b8152602060048201819052602482015260008051602061271a833981519152604482015290519081900360640190fd5b60006005838154811061097a57fe5b90600052602060002090600d020190508181600a0160016101000a81548160ff021916908360038111156109aa57fe5b0217905550827ff874b3fe678e8c9f4bd9dd7051e2bd81708e378e98526f16586e7bf60b77effc8360038111156109dd57fe5b6040516109ea91906125b8565b60405180910390a2505050565b60006001821415610a0a57506001610666565b6002821415610a1b57506002610666565b6004821415610a2c57506004610666565b6005821415610a3d57506005610666565b506000610666565b60055490565b60055460009081908310610a715760405162461bcd60e51b8152600401610570906124eb565b60058381548110610a7e57fe5b90600052602060002090600d0201600a0160019054906101000a900460ff166003811115610aa857fe5b60058481548110610ab557fe5b60009182526020909120600c600d90920201015490925060ff169050915091565b610ade611a93565b6000546001600160a01b03908116911614610b2e576040805162461bcd60e51b8152602060048201819052602482015260008051602061271a833981519152604482015290519081900360640190fd5b600080546040516001600160a01b03909116907f8be0079c531659141344cd1fd0a4f28419497f9722a3daafe3b4186f6b6457e0908390a3600080546001600160a01b0319169055565b600081815260076020908152604091829020805483518184028101840190945280845260609384938392600184019291849190830182828015610be457602002820191906000526020600020905b81546001600160a01b03168152600190910190602001808311610bc6575b5050505050915080805480602002602001604051908101604052809291908181526020016000905b82821015610cb75760008481526020908190208301805460408051601f6002600019610100600187161502019094169390930492830185900485028101850190915281815292830182828015610ca35780601f10610c7857610100808354040283529160200191610ca3565b820191906000526020600020905b815481529060010190602001808311610c8657829003601f168201915b505050505081526020019060010190610c0c565b5050505090509250925050915091565b60008060058381548110610cd757fe5b60009182526020909120600d9091020190506003600a82015460ff166005811115610cfe57fe5b148015610d2257506001600a820154610100900460ff166003811115610d2057fe5b145b8015610d335750600c81015460ff16155b9392505050565b6000610d44611a93565b6000546001600160a01b03908116911614610d94576040805162461bcd60e51b8152602060048201819052602482015260008051602061271a833981519152604482015290519081900360640190fd5b60038210610db45760405162461bcd60e51b8152600401610570906122bd565b610dbd84611041565b610dd95760405162461bcd60e51b815260040161057090612583565b600060058581548110610de857fe5b60009182526020909120600d9091020190506001600a82015460ff166005811115610e0f57fe5b1415610e1e57610e1e85611a97565b610e288585610548565b610e445760405162461bcd60e51b8152600401610570906121f7565b610e4e858561088d565b15610e6b5760405162461bcd60e51b815260040161057090612472565b8060040154421115610e8f5760405162461bcd60e51b81526004016105709061238b565b60008581526006602090815260408083206001600160a01b03881684529091528120805461ff0019166101001781556001810185905590841415610ee7576008820154610edd906001611c7d565b6008830155610f29565b6001841415610f0a576006820154610f00906001611c7d565b6006830155610f29565b6002841415610226576007820154610f23906001611c7d565b60078301555b50600195945050505050565b610f3d611a93565b6000546001600160a01b03908116911614610f8d576040805162461bcd60e51b8152602060048201819052602482015260008051602061271a833981519152604482015290519081900360640190fd5b6005548210610fae5760405162461bcd60e51b81526004016105709061222e565b8160008051602061273a83398151915260058481548110610fcb57fe5b60009182526020909120600a600d90920201015460ff166005811115610fed57fe5b83604051610ffc9291906125d1565b60405180910390a261100d816109f7565b6005838154811061101a57fe5b60009182526020909120600a600d9092020101805460ff191660018360058111156107bb57fe5b6000806005838154811061105157fe5b60009182526020909120600d9091020190506002600a82015460ff16600581111561107857fe5b148015611089575042816004015410155b80610d3357506001600a82015460ff1660058111156110a457fe5b148015610d3357506001015442101592915050565b6060600582815481106110c857fe5b90600052602060002090600d0201600b0180548060200260200160405190810160405280929190818152602001828054801561112d57602002820191906000526020600020905b81546001600160a01b0316815260019091019060200180831161110f575b50505050509050919050565b611141611a93565b6000546001600160a01b03908116911614611191576040805162461bcd60e51b8152602060048201819052602482015260008051602061271a833981519152604482015290519081900360640190fd5b6000600582815481106111a057fe5b60009182526020909120600d9091020190506002600a82015460ff1660058111156111c757fe5b146111e45760405162461bcd60e51b81526004016105709061233b565b42816004015411156112085760405162461bcd60e51b815260040161057090612429565b611213826005611860565b61121e826003610913565b5050565b6000546001600160a01b031690565b6000806000806000806005878154811061124757fe5b60009182526020909120600d909102018054600182015460038301546004840154600590940154929b919a509850919650945092505050565b600061128a611a93565b6000546001600160a01b039081169116146112da576040805162461bcd60e51b8152602060048201819052602482015260008051602061271a833981519152604482015290519081900360640190fd5b6003548610156112fc5760405162461bcd60e51b815260040161057090612535565b50600554611308611cd7565b60016101408201818152600061016084018190526101a08401819052428085528a0160208501908152604085018a8152606086018381526080870184815260a0880185815261012089018d815260058054808b018255978190528a517f036b6384b5eca791c62761152d0c79bb0604c104a5fb6f4eb0703f3154bb3db0600d90990298890190815596517f036b6384b5eca791c62761152d0c79bb0604c104a5fb6f4eb0703f3154bb3db189015594517f036b6384b5eca791c62761152d0c79bb0604c104a5fb6f4eb0703f3154bb3db288015592517f036b6384b5eca791c62761152d0c79bb0604c104a5fb6f4eb0703f3154bb3db387015590517f036b6384b5eca791c62761152d0c79bb0604c104a5fb6f4eb0703f3154bb3db4860155517f036b6384b5eca791c62761152d0c79bb0604c104a5fb6f4eb0703f3154bb3db585015560c08701517f036b6384b5eca791c62761152d0c79bb0604c104a5fb6f4eb0703f3154bb3db685015560e08701517f036b6384b5eca791c62761152d0c79bb0604c104a5fb6f4eb0703f3154bb3db78501556101008701517f036b6384b5eca791c62761152d0c79bb0604c104a5fb6f4eb0703f3154bb3db8850155517f036b6384b5eca791c62761152d0c79bb0604c104a5fb6f4eb0703f3154bb3db984015592517f036b6384b5eca791c62761152d0c79bb0604c104a5fb6f4eb0703f3154bb3dba909201805486959294919260ff199190911691849081111561152f57fe5b0217905550610160820151600a8201805461ff00191661010083600381111561155457fe5b0217905550610180820151805161157591600b840191602090910190611d51565b506101a09190910151600c909101805460ff19169115159190911790556000828152600760205260408120905b8981101561164557818b8b838181106115b757fe5b90506020020160208101906115cc9190611e89565b815460018082018455600093845260209093200180546001600160a01b0319166001600160a01b0392909216919091179055820186868381811061160c57fe5b905060200281019061161e9190612696565b82546001810184556000938452602090932061163c93019190611db6565b506001016115a2565b505050979650505050505050565b6000806000806005858154811061166657fe5b90600052602060002090600d02019050806006015481600701548260080154935093509350509193909250565b61169b611a93565b6000546001600160a01b039081169116146116eb576040805162461bcd60e51b8152602060048201819052602482015260008051602061271a833981519152604482015290519081900360640190fd5b600255565b6116f8611a93565b6000546001600160a01b03908116911614611748576040805162461bcd60e51b8152602060048201819052602482015260008051602061271a833981519152604482015290519081900360640190fd5b6001600160a01b03811661176e5760405162461bcd60e51b8152600401610570906123e8565b600180546001600160a01b0319166001600160a01b0392909216919091179055565b611798611a93565b6000546001600160a01b039081169116146117e8576040805162461bcd60e51b8152602060048201819052602482015260008051602061271a833981519152604482015290519081900360640190fd5b600455565b600554600090819084106118135760405162461bcd60e51b81526004016105709061222e565b505060008281526006602090815260408083206001600160a01b03851684529091529020805460019091015461010090910460ff16905b9250929050565b6001546001600160a01b031681565b611868611a93565b6000546001600160a01b039081169116146118b8576040805162461bcd60e51b8152602060048201819052602482015260008051602061271a833981519152604482015290519081900360640190fd5b6000600583815481106118c757fe5b90600052602060002090600d020190508260008051602061273a83398151915282600a0160009054906101000a900460ff16600581111561190457fe5b84600581111561191057fe5b60405161191e9291906125d1565b60405180910390a2600a8101805483919060ff1916600183600581111561194157fe5b0217905550505050565b600554600090821061196f5760405162461bcd60e51b8152600401610570906122f4565b6005828154811061197c57fe5b90600052602060002090600d0201600101549050919050565b60045481565b6119a3611a93565b6000546001600160a01b039081169116146119f3576040805162461bcd60e51b8152602060048201819052602482015260008051602061271a833981519152604482015290519081900360640190fd5b6001600160a01b038116611a385760405162461bcd60e51b81526004018080602001828103825260268152602001806126f46026913960400191505060405180910390fd5b600080546040516001600160a01b03808516939216917f8be0079c531659141344cd1fd0a4f28419497f9722a3daafe3b4186f6b6457e091a3600080546001600160a01b0319166001600160a01b0392909216919091179055565b3390565b600060058281548110611aa657fe5b90600052602060002090600d02019050428160030181905550611ad6816002015442611c7d90919063ffffffff16565b600482810191909155600a8201805460ff191660021790556001546040805162f8f26b60e21b815290516000936001600160a01b03909316926303e3c9ac92808201926020929091829003018186803b158015611b3257600080fd5b505afa158015611b46573d6000803e3d6000fd5b505050506040513d601f19601f82011682018060405250810190611b6a9190611f63565b905060005b81811015611c5a57600154604051632ed7846560e11b81526000916001600160a01b031690635daf08ca90611ba89085906004016125b8565b60206040518083038186803b158015611bc057600080fd5b505afa158015611bd4573d6000803e3d6000fd5b505050506040513d601f19601f82011682018060405250810190611bf89190611ea5565b600b85018054600181810183556000928352602080842090920180546001600160a01b039095166001600160a01b03199095168517905588835260068252604080842094845293909152919020805460ff191682179055919091019050611b6f565b508260008051602061273a833981519152600160026040516109ea9291906125d1565b600082820183811015610d33576040805162461bcd60e51b815260206004820152601b60248201527f536166654d6174683a206164646974696f6e206f766572666c6f770000000000604482015290519081900360640190fd5b604051806101c001604052806000815260200160008152602001600081526020016000815260200160008152602001600081526020016000815260200160008152602001600081526020016000815260200160006005811115611d3657fe5b81526020016000815260606020820152600060409091015290565b828054828255906000526020600020908101928215611da6579160200282015b82811115611da657825182546001600160a01b0319166001600160a01b03909116178255602090920191600190910190611d71565b50611db2929150611e32565b5090565b828054600181600116156101000203166002900490600052602060002090601f016020900481019282611dec5760008555611da6565b82601f10611e055782800160ff19823516178555611da6565b82800160010185558215611da6579182015b82811115611da6578235825591602001919060010190611e17565b5b80821115611db25760008155600101611e33565b60008083601f840112611e58578182fd5b50813567ffffffffffffffff811115611e6f578182fd5b602083019150836020808302850101111561184a57600080fd5b600060208284031215611e9a578081fd5b8135610d33816126db565b600060208284031215611eb6578081fd5b8151610d33816126db565b600080600080600080600060a0888a031215611edb578283fd5b873567ffffffffffffffff80821115611ef2578485fd5b611efe8b838c01611e47565b909950975060208a0135965060408a0135955060608a0135945060808a0135915080821115611f2b578384fd5b50611f388a828b01611e47565b989b979a50959850939692959293505050565b600060208284031215611f5c578081fd5b5035919050565b600060208284031215611f74578081fd5b5051919050565b60008060408385031215611f8d578182fd5b823591506020830135611f9f816126db565b809150509250929050565b600080600060608486031215611fbe578283fd5b833592506020840135611fd0816126db565b929592945050506040919091013590565b60008060408385031215611ff3578182fd5b82359150602083013560048110611f9f578182fd5b6000806040838503121561201a578182fd5b82359150602083013560068110611f9f578182fd5b60008060408385031215612041578182fd5b50508035926020909101359150565b6000815180845260208085019450808401835b838110156120885781516001600160a01b031687529582019590820190600101612063565b509495945050505050565b6006811061209d57fe5b9052565b6001600160a01b0391909116815260200190565b600060208252610d336020830184612050565b6000604082526120db6040830185612050565b602083820381850152818551808452828401915082838202850101838801865b8381101561216057601f1980888503018652825180518086528a5b81811015612131578281018a01518782018b01528901612116565b81811115612141578b8a83890101525b5096880196601f019091169390930186019250908501906001016120fb565b50909998505050505050505050565b901515815260200190565b92151583529015156020830152604082015260600190565b9115158252602082015260400190565b602081016105a18284612093565b60208082526027908201527f44414f4167656e64614d616e616765723a205f6167656e646149442069732069604082015266373b30b634b21760c91b606082015260800190565b60208082526019908201527f44414f436f6d6d69747465653a206e6f74206120766f74657200000000000000604082015260600190565b60208082526029908201527f44414f4167656e64614d616e616765723a204e6f7420612076616c69642050726040820152681bdc1bdcd85b08125960ba1b606082015260800190565b60208082526026908201527f44414f4167656e64614d616e616765723a20757365722061646472657373206960408201526573207a65726f60d01b606082015260800190565b6020808252601a908201527f44414f436f6d6d69747465653a20696e76616c696420766f7465000000000000604082015260600190565b60208082526027908201527f44414f4167656e64614d616e616765723a204e6f7420612076616c6964204167604082015266195b991848125960ca1b606082015260800190565b60208082526030908201527f44414f4167656e64614d616e616765723a206167656e6461207374617475732060408201526f6973206e6f74206368616e6761626c6560801b606082015260800190565b6020808252603a908201527f44414f4167656e64614d616e616765723a20666f722074686973206167656e6460408201527f612c2074686520766f74696e672074696d652065787069726564000000000000606082015260800190565b60208082526021908201527f44414f4167656e64614d616e616765723a2061646472657373206973207a65726040820152606f60f81b606082015260800190565b60208082526029908201527f44414f4167656e64614d616e616765723a20766f74696e67206973206e6f7420604082015268195b991959081e595d60ba1b606082015260800190565b6020808252601b908201527f44414f436f6d6d69747465653a20616c726561647920766f7465640000000000604082015260600190565b60208082526022908201527f44414f4167656e64614d616e616765723a20696e76616c6964206167656e64206040820152611a5960f21b606082015260800190565b6020808252602a908201527f44414f4167656e64614d616e616765723a204e6f7420612076616c6964205f6160408201526919d95b9918525108125960b21b606082015260800190565b6020808252602e908201527f44414f4167656e64614d616e616765723a206d696e696d756d4e6f746963655060408201526d195c9a5bd9081a5cc81cda1bdc9d60921b606082015260800190565b6020808252818101527f44414f4167656e64614d616e616765723a20696e76616c696420737461747573604082015260600190565b90815260200190565b9182521515602082015260400190565b918252602082015260400190565b9283526020830191909152604082015260600190565b948552602085019390935260408401919091526060830152608082015260a00190565b60006101a0820190508e82528d60208301528c60408301528b60608301528a60808301528960a08301528860c08301528760e0830152866101008301528561012083015261266a610140830186612093565b6004841061267457fe5b836101608301528215156101808301529e9d5050505050505050505050505050565b6000808335601e198436030181126126ac578283fd5b83018035915067ffffffffffffffff8211156126c6578283fd5b60200191503681900382131561184a57600080fd5b6001600160a01b03811681146126f057600080fd5b5056fe4f776e61626c653a206e6577206f776e657220697320746865207a65726f20616464726573734f776e61626c653a2063616c6c6572206973206e6f7420746865206f776e657227e1508d1d92ba0e1e406fad0138e0f3dd44688f5018dbe7f5718da02931eb7ca26469706673582212209c3b5ad84498528712cd39b0f8f7c20229e15b636a470aab7bfd573ed286971e64736f6c63430007060033",
  "immutableReferences": {},
  "source": "// SPDX-License-Identifier: MIT\npragma solidity ^0.7.6;\npragma abicoder v2;\n\nimport { SafeMath } from \"../../node_modules/@openzeppelin/contracts/math/SafeMath.sol\";\nimport { IERC20 } from  \"../../node_modules/@openzeppelin/contracts/token/ERC20/IERC20.sol\";\nimport { IDAOCommittee } from \"../interfaces/IDAOCommittee.sol\";\nimport { LibAgenda } from \"../lib/Agenda.sol\";\nimport \"../../node_modules/@openzeppelin/contracts/access/Ownable.sol\";\n\ncontract DAOAgendaManager is Ownable {\n    using SafeMath for uint256;\n    using LibAgenda for *;\n\n    enum VoteChoice { ABSTAIN, YES, NO, MAX }\n\n    IDAOCommittee public committee;\n    \n    uint256 public createAgendaFees; // (TON)\n    \n    uint256 public minimumNoticePeriodSeconds;\n    uint256 public minimumVotingPeriodSeconds;\n    \n    LibAgenda.Agenda[] public agendas;\n    mapping(uint256 => mapping(address => LibAgenda.Voter)) public voterInfos;\n    mapping(uint256 => LibAgenda.AgendaExecutionInfo) internal executionInfos;\n    \n    event AgendaStatusChanged(\n        uint256 indexed agendaID,\n        uint256 prevStatus,\n        uint256 newStatus\n    );\n\n    event AgendaResultChanged(\n        uint256 indexed agendaID,\n        uint256 result\n    );\n\n    modifier validAgenda(uint256 _agendaID) {\n        require(_agendaID < agendas.length, \"DAOAgendaManager: invalid agenda id\");\n        _;\n    }\n    \n    constructor() {\n        minimumNoticePeriodSeconds = 60 * 60 * 24 * 15; //  15 days , on seconds\n        minimumVotingPeriodSeconds = 60 * 60 * 24 * 2; //  2 days , on seconds\n        \n        createAgendaFees = 100000000000000000000; // 100 TON\n    }\n\n    function getStatus(uint _status) public pure returns (LibAgenda.AgendaStatus emnustatus) {\n        if (_status == uint(LibAgenda.AgendaStatus.NOTICE))\n            return LibAgenda.AgendaStatus.NOTICE;\n        else if (_status == uint(LibAgenda.AgendaStatus.VOTING))\n            return LibAgenda.AgendaStatus.VOTING;\n        else if (_status == uint(LibAgenda.AgendaStatus.EXECUTED))\n            return LibAgenda.AgendaStatus.EXECUTED;\n        else if (_status == uint(LibAgenda.AgendaStatus.ENDED))\n            return LibAgenda.AgendaStatus.ENDED;\n        else\n            return LibAgenda.AgendaStatus.NONE;\n    }\n\n    function setCommittee(address _committee) public onlyOwner {\n        require(_committee != address(0), \"DAOAgendaManager: address is zero\");\n        committee = IDAOCommittee(_committee);\n    }\n\n    function setStatus(uint256 _agendaID, uint _status) public onlyOwner {\n        require(_agendaID < agendas.length, \"DAOAgendaManager: Not a valid Proposal Id\");\n\n        emit AgendaStatusChanged(_agendaID, uint(agendas[_agendaID].status), _status);\n        agendas[_agendaID].status = getStatus(_status);\n    }\n\n    function setCreateAgendaFees(uint256 _createAgendaFees) public onlyOwner {\n        createAgendaFees = _createAgendaFees;\n    }\n\n    function setMinimumNoticePeriodSeconds(uint256 _minimunNoticePeriodSeconds) public onlyOwner {\n        minimumNoticePeriodSeconds = _minimunNoticePeriodSeconds;\n    }\n\n    function setMinimumVotingPeriodSeconds(uint256 _minimumVotingPeriodSeconds) public onlyOwner {\n        minimumVotingPeriodSeconds = _minimumVotingPeriodSeconds;\n    }\n      \n    function hasVoted(uint256 _agendaID, address _user) public view returns (bool) {\n        require(_agendaID < agendas.length, \"DAOAgendaManager: Not a valid Proposal Id\");\n        return voterInfos[_agendaID][_user].hasVoted;\n    }\n\n    function getVoteStatus(uint256 _agendaID, address _user) public view returns (bool, uint256) {\n        require(_agendaID < agendas.length, \"DAOAgendaManager: Not a valid Proposal Id\");\n        \n        LibAgenda.Voter storage voter = voterInfos[_agendaID][_user];\n\n        return (\n            voter.hasVoted,\n            voter.vote\n        );\n    }\n    \n    function getAgendaNoticeEndTimeSeconds(uint256 _agendaID) public view returns (uint) {\n        require(_agendaID < agendas.length, \"DAOAgendaManager: Not a valid Agenda Id\");\n        return agendas[_agendaID].noticeEndTimestamp;\n    }\n    \n    function getAgendaVotingStartTimeSeconds(uint256 _agendaID) public view returns (uint) {\n        require(_agendaID < agendas.length, \"DAOAgendaManager: Not a valid Agenda Id\");\n        return agendas[_agendaID].votingStartedTimestamp;\n    }\n\n    function getAgendaVotingEndTimeSeconds(uint256 _agendaID) public view returns (uint) {\n        require(_agendaID < agendas.length, \"DAOAgendaManager: Not a valid Agenda Id\");\n        return agendas[_agendaID].votingEndTimestamp;\n    }\n\n    function canExecuteAgenda(uint256 _agendaID) public view returns (bool) {\n        LibAgenda.Agenda storage agenda = agendas[_agendaID];\n\n        return agenda.status == LibAgenda.AgendaStatus.WAITING_EXEC &&\n            agenda.result == LibAgenda.AgendaResult.ACCEPT &&\n            agenda.executed == false;\n\n        /*require(agenda.status == uint(LibAgenda.AgendaStatus.WAITING_EXEC), \"DAOAgendaManager: agenda status must be WAITING_EXEC.\");\n        //require(agenda.votingEndTimestamp < block.timestamp, \"DAOAgendaManager: for this agenda, the voting time is not expired\");\n        require(agenda.result == LibAgenda.AgendaResult.ACCEPT, \"DAOAgendaManager: for this agenda, not accept\");\n        require(agenda.executed == false, \"DAOAgendaManager: already executed agenda\");*/\n    }\n    \n    function getAgendaStatus(uint256 _agendaID) public view returns (uint status) {\n        require(_agendaID < agendas.length, \"DAOAgendaManager: invalid agend id\");\n        return uint(agendas[_agendaID].status);\n    }\n\n    function totalAgendas() public view returns (uint256) {\n        return agendas.length;\n    }\n\n    function getAgendaResult(uint256 _agendaID) public view returns (uint result, bool executed) {\n        require(_agendaID < agendas.length, \"DAOAgendaManager: Not a valid _agendaID Id\");\n        return (uint(agendas[_agendaID].result), agendas[_agendaID].executed);\n    }\n   \n    function newAgenda(\n        address[] calldata _targets,\n        uint256 _noticePeriodSeconds,\n        uint256 _votingPeriodSeconds,\n        uint256 _reward,\n        bytes[] calldata _functionBytecodes\n    )\n        onlyOwner\n        public\n        returns (uint256 agendaID)\n    {\n        require(_noticePeriodSeconds >= minimumNoticePeriodSeconds, \"DAOAgendaManager: minimumNoticePeriod is short\");\n        agendaID = agendas.length;\n         \n        LibAgenda.Agenda memory p;\n        p.status = LibAgenda.AgendaStatus.NOTICE;\n        p.result = LibAgenda.AgendaResult.PENDING;\n        p.executed = false;\n        p.createdTimestamp = block.timestamp;\n        p.noticeEndTimestamp = block.timestamp + _noticePeriodSeconds;\n        p.votingPeriodInSeconds = _votingPeriodSeconds;\n        p.votingStartedTimestamp = 0;\n        p.votingEndTimestamp = 0;\n        p.executedTimestamp = 0;\n        p.reward = _reward;\n        \n        agendas.push(p);\n\n        LibAgenda.AgendaExecutionInfo storage executionInfo = executionInfos[agendaID];\n        for (uint256 i = 0; i < _targets.length; i++) {\n            executionInfo.targets.push(_targets[i]);\n            executionInfo.functionBytecodes.push(_functionBytecodes[i]);\n        }\n\n        //numAgendas = agendas.length;\n        //agendaID = numAgendas.sub(1);\n    }\n\n    /*function startVoting(uint256 _agendaID) public {\n        LibAgenda.Agenda storage agenda = agendas[_agendaID];\n        require(\n            agenda.status == LibAgenda.AgendaStatus.NOTICE,\n            \"DAOAgendaManager: invalid status\"\n        );\n        require(\n            agenda.noticeEndTimestamp <= block.timestamp,\n            \"DAOAgendaManager: can not start voting yet\"\n        );\n\n        agenda.votingStartedTimestamp = block.timestamp;\n        agenda.votingEndTimestamp = block.timestamp.add(agenda.votingPeriodInSeconds);\n        agenda.status = LibAgenda.AgendaStatus.VOTING;\n\n        uint256 memberCount = committee.maxMember();\n        for (uint256 i = 0; i < memberCount; i++) {\n            address voter = committee.members(i);\n            agenda.voters.push(voter);\n            voterInfos[_agendaID][voter].isVoter = true;\n        }\n\n        emit AgendaStatusChanged(_agendaID, uint(LibAgenda.AgendaStatus.NOTICE), uint(LibAgenda.AgendaStatus.VOTING));\n    }*/\n\n    function isVoter(uint256 _agendaID, address _user) public view returns (bool) {\n        require(_user != address(0), \"DAOAgendaManager: user address is zero\");\n        return voterInfos[_agendaID][_user].isVoter;\n    }\n    \n    function castVote(\n        uint256 _agendaID,\n        address _voter,\n        uint _vote\n    )\n        public\n        onlyOwner\n        returns (bool)\n    {\n        require(_vote < uint(VoteChoice.MAX), \"DAOCommittee: invalid vote\");\n\n        require(\n            isVotableStatus(_agendaID),\n            \"DAOAgendaManager: invalid status\"\n        );\n\n        LibAgenda.Agenda storage agenda = agendas[_agendaID];\n\n        if (agenda.status == LibAgenda.AgendaStatus.NOTICE) {\n            _startVoting(_agendaID);\n        }\n\n        require(isVoter(_agendaID, _voter), \"DAOCommittee: not a voter\");\n        require(!hasVoted(_agendaID, _voter), \"DAOCommittee: already voted\");\n\n        require(\n            block.timestamp <= agenda.votingEndTimestamp,\n            \"DAOAgendaManager: for this agenda, the voting time expired\"\n        );\n        \n        LibAgenda.Voter storage voter = voterInfos[_agendaID][_voter];\n        voter.hasVoted = true;\n        voter.vote = _vote;\n             \n        // counting 0:abstainVotes 1:yesVotes 2:noVotes\n        if (_vote == uint(VoteChoice.ABSTAIN))\n            agenda.countingAbstain = agenda.countingAbstain.add(1);\n        else if (_vote == uint(VoteChoice.YES))\n            agenda.countingYes = agenda.countingYes.add(1);\n        else if (_vote == uint(VoteChoice.NO))\n            agenda.countingNo = agenda.countingNo.add(1);\n        else\n            revert();\n        \n        return true;\n    }\n    \n    function setExecutedAgenda(uint256 _agendaID)\n        public\n        onlyOwner\n    {\n        require(_agendaID < agendas.length, \"DAOAgendaManager: _agendaID is invalid.\");\n\n        LibAgenda.Agenda storage agenda = agendas[_agendaID];\n        agenda.executed = true;\n        agenda.executedTimestamp = block.timestamp;\n\n        emit AgendaStatusChanged(_agendaID, uint(agenda.status), uint(LibAgenda.AgendaStatus.EXECUTED));\n\n        agenda.status = LibAgenda.AgendaStatus.EXECUTED;\n    }\n\n    function _startVoting(uint256 _agendaID) internal {\n        LibAgenda.Agenda storage agenda = agendas[_agendaID];\n\n        agenda.votingStartedTimestamp = block.timestamp;\n        agenda.votingEndTimestamp = block.timestamp.add(agenda.votingPeriodInSeconds);\n        agenda.status = LibAgenda.AgendaStatus.VOTING;\n\n        uint256 memberCount = committee.maxMember();\n        for (uint256 i = 0; i < memberCount; i++) {\n            address voter = committee.members(i);\n            agenda.voters.push(voter);\n            voterInfos[_agendaID][voter].isVoter = true;\n        }\n\n        emit AgendaStatusChanged(_agendaID, uint(LibAgenda.AgendaStatus.NOTICE), uint(LibAgenda.AgendaStatus.VOTING));\n    }\n    \n    function checkAndEndVoting(uint256 _agendaID) internal {\n        LibAgenda.Agenda storage agenda = agendas[_agendaID];\n\n        require(\n            agenda.status == LibAgenda.AgendaStatus.VOTING,\n            \"DAOAgendaManager: status is not voting.\"\n        );\n    }\n\n    function setResult(uint256 _agendaID, LibAgenda.AgendaResult _result)\n        public\n        onlyOwner\n    {\n        LibAgenda.Agenda storage agenda = agendas[_agendaID];\n        agenda.result = _result;\n\n        emit AgendaResultChanged(_agendaID, uint256(_result));\n    }\n     \n    function setStatus(uint256 _agendaID, LibAgenda.AgendaStatus _status)\n        public\n        onlyOwner\n    {\n        LibAgenda.Agenda storage agenda = agendas[_agendaID];\n\n        emit AgendaStatusChanged(_agendaID, uint256(agenda.status), uint256(_status));\n        agenda.status = _status;\n    }\n\n    function endAgendaVoting(uint256 _agendaID)\n        public\n        onlyOwner\n    {\n        LibAgenda.Agenda storage agenda = agendas[_agendaID];\n\n        require(\n            agenda.status == LibAgenda.AgendaStatus.VOTING,\n            \"DAOAgendaManager: agenda status is not changable\"\n        );\n\n        require(\n            agenda.votingEndTimestamp <= block.timestamp,\n            \"DAOAgendaManager: voting is not ended yet\"\n        );\n\n        setStatus(_agendaID, LibAgenda.AgendaStatus.ENDED);\n        setResult(_agendaID, LibAgenda.AgendaResult.DISMISS);\n    }\n     \n    function getExecutionInfo(uint256 _agendaID)\n        public\n        view\n        returns(\n            address[] memory target,\n            bytes[] memory functionBytecode\n        )\n    {\n        LibAgenda.AgendaExecutionInfo storage agenda = executionInfos[_agendaID];\n        return (\n            agenda.targets,\n            agenda.functionBytecodes\n        );\n    }\n\n    function isVotableStatus(uint256 _agendaID) public view returns (bool) {\n        LibAgenda.Agenda storage agenda = agendas[_agendaID];\n        return (agenda.status == LibAgenda.AgendaStatus.VOTING &&\n                agenda.votingEndTimestamp >= block.timestamp) ||\n            (agenda.status == LibAgenda.AgendaStatus.NOTICE &&\n                agenda.noticeEndTimestamp <= block.timestamp);\n\n    }\n\n    function getVotingCount(uint256 _agendaID)\n        public\n        view\n        returns (\n            uint256 countingYes,\n            uint256 countingNo,\n            uint256 countingAbstain\n        )\n    {\n        LibAgenda.Agenda storage agenda = agendas[_agendaID];\n        return (\n            agenda.countingYes,\n            agenda.countingNo,\n            agenda.countingAbstain\n        );\n    }\n\n    function getAgendaTimestamps(uint256 _agendaID)\n        public\n        view\n        returns (\n            uint256 createdTimestamp,\n            uint256 noticeEndTimestamp,\n            uint256 votingStartedTimestamp,\n            uint256 votingEndTimestamp,\n            uint256 executedTimestamp\n        )\n    {\n        LibAgenda.Agenda storage agenda = agendas[_agendaID];\n        return (\n            agenda.createdTimestamp,\n            agenda.noticeEndTimestamp,\n            agenda.votingStartedTimestamp,\n            agenda.votingEndTimestamp,\n            agenda.executedTimestamp\n        );\n    }\n\n    function numAgendas() public view returns (uint256) {\n        return agendas.length;\n    }\n\n    function getVoters(uint256 _agendaID) public view returns (address[] memory) {\n        return agendas[_agendaID].voters;\n    }\n}\n",
  "sourcePath": "/data/github/onther/tokamak-dao-contracts3/contracts/dao/DAOAgendaManager.sol",
  "compiler": {
    "name": "solc",
    "version": "0.7.6+commit.7338295f.Emscripten.clang"
  },
  "schemaVersion": "3.3.2",
  "updatedAt": "2021-01-20T00:57:29.448Z",
  "networkType": "ethereum",
  "devdoc": {
    "kind": "dev",
    "methods": {
      "owner()": {
        "details": "Returns the address of the current owner."
      },
      "renounceOwnership()": {
        "details": "Leaves the contract without owner. It will not be possible to call `onlyOwner` functions anymore. Can only be called by the current owner. NOTE: Renouncing ownership will leave the contract without an owner, thereby removing any functionality that is only available to the owner."
      },
      "transferOwnership(address)": {
        "details": "Transfers ownership of the contract to a new account (`newOwner`). Can only be called by the current owner."
      }
    },
    "version": 1
  },
  "userdoc": {
    "kind": "user",
    "methods": {},
    "version": 1
  }
}