{
  "contractName": "DAOAgendaManager",
  "abi": [
    {
      "inputs": [],
      "stateMutability": "nonpayable",
      "type": "constructor"
    },
    {
      "anonymous": false,
      "inputs": [
        {
          "indexed": true,
          "internalType": "uint256",
          "name": "agendaID",
          "type": "uint256"
        },
        {
          "indexed": false,
          "internalType": "uint256",
          "name": "result",
          "type": "uint256"
        }
      ],
      "name": "AgendaResultChanged",
      "type": "event"
    },
    {
      "anonymous": false,
      "inputs": [
        {
          "indexed": true,
          "internalType": "uint256",
          "name": "agendaID",
          "type": "uint256"
        },
        {
          "indexed": false,
          "internalType": "uint256",
          "name": "prevStatus",
          "type": "uint256"
        },
        {
          "indexed": false,
          "internalType": "uint256",
          "name": "newStatus",
          "type": "uint256"
        }
      ],
      "name": "AgendaStatusChanged",
      "type": "event"
    },
    {
      "anonymous": false,
      "inputs": [
        {
          "indexed": true,
          "internalType": "address",
          "name": "previousOwner",
          "type": "address"
        },
        {
          "indexed": true,
          "internalType": "address",
          "name": "newOwner",
          "type": "address"
        }
      ],
      "name": "OwnershipTransferred",
      "type": "event"
    },
    {
      "inputs": [
        {
          "internalType": "uint256",
          "name": "",
          "type": "uint256"
        }
      ],
      "name": "agendas",
      "outputs": [
        {
          "internalType": "uint256",
          "name": "createdTimestamp",
          "type": "uint256"
        },
        {
          "internalType": "uint256",
          "name": "noticeEndTimestamp",
          "type": "uint256"
        },
        {
          "internalType": "uint256",
          "name": "votingPeriodInSeconds",
          "type": "uint256"
        },
        {
          "internalType": "uint256",
          "name": "votingStartedTimestamp",
          "type": "uint256"
        },
        {
          "internalType": "uint256",
          "name": "votingEndTimestamp",
          "type": "uint256"
        },
        {
          "internalType": "uint256",
          "name": "executableLimitTimestamp",
          "type": "uint256"
        },
        {
          "internalType": "uint256",
          "name": "executedTimestamp",
          "type": "uint256"
        },
        {
          "internalType": "uint256",
          "name": "countingYes",
          "type": "uint256"
        },
        {
          "internalType": "uint256",
          "name": "countingNo",
          "type": "uint256"
        },
        {
          "internalType": "uint256",
          "name": "countingAbstain",
          "type": "uint256"
        },
        {
          "internalType": "enum LibAgenda.AgendaStatus",
          "name": "status",
          "type": "uint8"
        },
        {
          "internalType": "enum LibAgenda.AgendaResult",
          "name": "result",
          "type": "uint8"
        },
        {
          "internalType": "bool",
          "name": "executed",
          "type": "bool"
        }
      ],
      "stateMutability": "view",
      "type": "function",
      "constant": true
    },
    {
      "inputs": [],
      "name": "committee",
      "outputs": [
        {
          "internalType": "contract IDAOCommittee",
          "name": "",
          "type": "address"
        }
      ],
      "stateMutability": "view",
      "type": "function",
      "constant": true
    },
    {
      "inputs": [],
      "name": "createAgendaFees",
      "outputs": [
        {
          "internalType": "uint256",
          "name": "",
          "type": "uint256"
        }
      ],
      "stateMutability": "view",
      "type": "function",
      "constant": true
    },
    {
      "inputs": [],
      "name": "executingPeriodSeconds",
      "outputs": [
        {
          "internalType": "uint256",
          "name": "",
          "type": "uint256"
        }
      ],
      "stateMutability": "view",
      "type": "function",
      "constant": true
    },
    {
      "inputs": [],
      "name": "minimumNoticePeriodSeconds",
      "outputs": [
        {
          "internalType": "uint256",
          "name": "",
          "type": "uint256"
        }
      ],
      "stateMutability": "view",
      "type": "function",
      "constant": true
    },
    {
      "inputs": [],
      "name": "minimumVotingPeriodSeconds",
      "outputs": [
        {
          "internalType": "uint256",
          "name": "",
          "type": "uint256"
        }
      ],
      "stateMutability": "view",
      "type": "function",
      "constant": true
    },
    {
      "inputs": [],
      "name": "owner",
      "outputs": [
        {
          "internalType": "address",
          "name": "",
          "type": "address"
        }
      ],
      "stateMutability": "view",
      "type": "function",
      "constant": true
    },
    {
      "inputs": [],
      "name": "renounceOwnership",
      "outputs": [],
      "stateMutability": "nonpayable",
      "type": "function"
    },
    {
      "inputs": [
        {
          "internalType": "address",
          "name": "newOwner",
          "type": "address"
        }
      ],
      "name": "transferOwnership",
      "outputs": [],
      "stateMutability": "nonpayable",
      "type": "function"
    },
    {
      "inputs": [
        {
          "internalType": "uint256",
          "name": "",
          "type": "uint256"
        },
        {
          "internalType": "address",
          "name": "",
          "type": "address"
        }
      ],
      "name": "voterInfos",
      "outputs": [
        {
          "internalType": "bool",
          "name": "isVoter",
          "type": "bool"
        },
        {
          "internalType": "bool",
          "name": "hasVoted",
          "type": "bool"
        },
        {
          "internalType": "uint256",
          "name": "vote",
          "type": "uint256"
        }
      ],
      "stateMutability": "view",
      "type": "function",
      "constant": true
    },
    {
      "inputs": [
        {
          "internalType": "uint256",
          "name": "_status",
          "type": "uint256"
        }
      ],
      "name": "getStatus",
      "outputs": [
        {
          "internalType": "enum LibAgenda.AgendaStatus",
          "name": "emnustatus",
          "type": "uint8"
        }
      ],
      "stateMutability": "pure",
      "type": "function",
      "constant": true
    },
    {
      "inputs": [
        {
          "internalType": "address",
          "name": "_committee",
          "type": "address"
        }
      ],
      "name": "setCommittee",
      "outputs": [],
      "stateMutability": "nonpayable",
      "type": "function"
    },
    {
      "inputs": [
        {
          "internalType": "uint256",
          "name": "_createAgendaFees",
          "type": "uint256"
        }
      ],
      "name": "setCreateAgendaFees",
      "outputs": [],
      "stateMutability": "nonpayable",
      "type": "function"
    },
    {
      "inputs": [
        {
          "internalType": "uint256",
          "name": "_minimumNoticePeriodSeconds",
          "type": "uint256"
        }
      ],
      "name": "setMinimumNoticePeriodSeconds",
      "outputs": [],
      "stateMutability": "nonpayable",
      "type": "function"
    },
    {
      "inputs": [
        {
          "internalType": "uint256",
          "name": "_executingPeriodSeconds",
          "type": "uint256"
        }
      ],
      "name": "setExecutingPeriodSeconds",
      "outputs": [],
      "stateMutability": "nonpayable",
      "type": "function"
    },
    {
      "inputs": [
        {
          "internalType": "uint256",
          "name": "_minimumVotingPeriodSeconds",
          "type": "uint256"
        }
      ],
      "name": "setMinimumVotingPeriodSeconds",
      "outputs": [],
      "stateMutability": "nonpayable",
      "type": "function"
    },
    {
      "inputs": [
        {
          "internalType": "address[]",
          "name": "_targets",
          "type": "address[]"
        },
        {
          "internalType": "uint256",
          "name": "_noticePeriodSeconds",
          "type": "uint256"
        },
        {
          "internalType": "uint256",
          "name": "_votingPeriodSeconds",
          "type": "uint256"
        },
        {
          "internalType": "bytes[]",
          "name": "_functionBytecodes",
          "type": "bytes[]"
        }
      ],
      "name": "newAgenda",
      "outputs": [
        {
          "internalType": "uint256",
          "name": "agendaID",
          "type": "uint256"
        }
      ],
      "stateMutability": "nonpayable",
      "type": "function"
    },
    {
      "inputs": [
        {
          "internalType": "uint256",
          "name": "_agendaID",
          "type": "uint256"
        },
        {
          "internalType": "address",
          "name": "_voter",
          "type": "address"
        },
        {
          "internalType": "uint256",
          "name": "_vote",
          "type": "uint256"
        }
      ],
      "name": "castVote",
      "outputs": [
        {
          "internalType": "bool",
          "name": "",
          "type": "bool"
        }
      ],
      "stateMutability": "nonpayable",
      "type": "function"
    },
    {
      "inputs": [
        {
          "internalType": "uint256",
          "name": "_agendaID",
          "type": "uint256"
        }
      ],
      "name": "setExecutedAgenda",
      "outputs": [],
      "stateMutability": "nonpayable",
      "type": "function"
    },
    {
      "inputs": [
        {
          "internalType": "uint256",
          "name": "_agendaID",
          "type": "uint256"
        },
        {
          "internalType": "enum LibAgenda.AgendaResult",
          "name": "_result",
          "type": "uint8"
        }
      ],
      "name": "setResult",
      "outputs": [],
      "stateMutability": "nonpayable",
      "type": "function"
    },
    {
      "inputs": [
        {
          "internalType": "uint256",
          "name": "_agendaID",
          "type": "uint256"
        },
        {
          "internalType": "uint256",
          "name": "_status",
          "type": "uint256"
        }
      ],
      "name": "setStatus",
      "outputs": [],
      "stateMutability": "nonpayable",
      "type": "function"
    },
    {
      "inputs": [
        {
          "internalType": "uint256",
          "name": "_agendaID",
          "type": "uint256"
        },
        {
          "internalType": "enum LibAgenda.AgendaStatus",
          "name": "_status",
          "type": "uint8"
        }
      ],
      "name": "setStatus",
      "outputs": [],
      "stateMutability": "nonpayable",
      "type": "function"
    },
    {
      "inputs": [
        {
          "internalType": "uint256",
          "name": "_agendaID",
          "type": "uint256"
        }
      ],
      "name": "endAgendaVoting",
      "outputs": [],
      "stateMutability": "nonpayable",
      "type": "function"
    },
    {
      "inputs": [
        {
          "internalType": "uint256",
          "name": "_agendaID",
          "type": "uint256"
        },
        {
          "internalType": "address",
          "name": "_candidate",
          "type": "address"
        }
      ],
      "name": "isVoter",
      "outputs": [
        {
          "internalType": "bool",
          "name": "",
          "type": "bool"
        }
      ],
      "stateMutability": "view",
      "type": "function",
      "constant": true
    },
    {
      "inputs": [
        {
          "internalType": "uint256",
          "name": "_agendaID",
          "type": "uint256"
        },
        {
          "internalType": "address",
          "name": "_user",
          "type": "address"
        }
      ],
      "name": "hasVoted",
      "outputs": [
        {
          "internalType": "bool",
          "name": "",
          "type": "bool"
        }
      ],
      "stateMutability": "view",
      "type": "function",
      "constant": true
    },
    {
      "inputs": [
        {
          "internalType": "uint256",
          "name": "_agendaID",
          "type": "uint256"
        },
        {
          "internalType": "address",
          "name": "_user",
          "type": "address"
        }
      ],
      "name": "getVoteStatus",
      "outputs": [
        {
          "internalType": "bool",
          "name": "",
          "type": "bool"
        },
        {
          "internalType": "uint256",
          "name": "",
          "type": "uint256"
        }
      ],
      "stateMutability": "view",
      "type": "function",
      "constant": true
    },
    {
      "inputs": [
        {
          "internalType": "uint256",
          "name": "_agendaID",
          "type": "uint256"
        }
      ],
      "name": "getAgendaNoticeEndTimeSeconds",
      "outputs": [
        {
          "internalType": "uint256",
          "name": "",
          "type": "uint256"
        }
      ],
      "stateMutability": "view",
      "type": "function",
      "constant": true
    },
    {
      "inputs": [
        {
          "internalType": "uint256",
          "name": "_agendaID",
          "type": "uint256"
        }
      ],
      "name": "getAgendaVotingStartTimeSeconds",
      "outputs": [
        {
          "internalType": "uint256",
          "name": "",
          "type": "uint256"
        }
      ],
      "stateMutability": "view",
      "type": "function",
      "constant": true
    },
    {
      "inputs": [
        {
          "internalType": "uint256",
          "name": "_agendaID",
          "type": "uint256"
        }
      ],
      "name": "getAgendaVotingEndTimeSeconds",
      "outputs": [
        {
          "internalType": "uint256",
          "name": "",
          "type": "uint256"
        }
      ],
      "stateMutability": "view",
      "type": "function",
      "constant": true
    },
    {
      "inputs": [
        {
          "internalType": "uint256",
          "name": "_agendaID",
          "type": "uint256"
        }
      ],
      "name": "canExecuteAgenda",
      "outputs": [
        {
          "internalType": "bool",
          "name": "",
          "type": "bool"
        }
      ],
      "stateMutability": "view",
      "type": "function",
      "constant": true
    },
    {
      "inputs": [
        {
          "internalType": "uint256",
          "name": "_agendaID",
          "type": "uint256"
        }
      ],
      "name": "getAgendaStatus",
      "outputs": [
        {
          "internalType": "uint256",
          "name": "status",
          "type": "uint256"
        }
      ],
      "stateMutability": "view",
      "type": "function",
      "constant": true
    },
    {
      "inputs": [],
      "name": "totalAgendas",
      "outputs": [
        {
          "internalType": "uint256",
          "name": "",
          "type": "uint256"
        }
      ],
      "stateMutability": "view",
      "type": "function",
      "constant": true
    },
    {
      "inputs": [
        {
          "internalType": "uint256",
          "name": "_agendaID",
          "type": "uint256"
        }
      ],
      "name": "getAgendaResult",
      "outputs": [
        {
          "internalType": "uint256",
          "name": "result",
          "type": "uint256"
        },
        {
          "internalType": "bool",
          "name": "executed",
          "type": "bool"
        }
      ],
      "stateMutability": "view",
      "type": "function",
      "constant": true
    },
    {
      "inputs": [
        {
          "internalType": "uint256",
          "name": "_agendaID",
          "type": "uint256"
        }
      ],
      "name": "getExecutionInfo",
      "outputs": [
        {
          "internalType": "address[]",
          "name": "target",
          "type": "address[]"
        },
        {
          "internalType": "bytes[]",
          "name": "functionBytecode",
          "type": "bytes[]"
        }
      ],
      "stateMutability": "view",
      "type": "function",
      "constant": true
    },
    {
      "inputs": [
        {
          "internalType": "uint256",
          "name": "_agendaID",
          "type": "uint256"
        }
      ],
      "name": "isVotableStatus",
      "outputs": [
        {
          "internalType": "bool",
          "name": "",
          "type": "bool"
        }
      ],
      "stateMutability": "view",
      "type": "function",
      "constant": true
    },
    {
      "inputs": [
        {
          "internalType": "uint256",
          "name": "_agendaID",
          "type": "uint256"
        }
      ],
      "name": "getVotingCount",
      "outputs": [
        {
          "internalType": "uint256",
          "name": "countingYes",
          "type": "uint256"
        },
        {
          "internalType": "uint256",
          "name": "countingNo",
          "type": "uint256"
        },
        {
          "internalType": "uint256",
          "name": "countingAbstain",
          "type": "uint256"
        }
      ],
      "stateMutability": "view",
      "type": "function",
      "constant": true
    },
    {
      "inputs": [
        {
          "internalType": "uint256",
          "name": "_agendaID",
          "type": "uint256"
        }
      ],
      "name": "getAgendaTimestamps",
      "outputs": [
        {
          "internalType": "uint256",
          "name": "createdTimestamp",
          "type": "uint256"
        },
        {
          "internalType": "uint256",
          "name": "noticeEndTimestamp",
          "type": "uint256"
        },
        {
          "internalType": "uint256",
          "name": "votingStartedTimestamp",
          "type": "uint256"
        },
        {
          "internalType": "uint256",
          "name": "votingEndTimestamp",
          "type": "uint256"
        },
        {
          "internalType": "uint256",
          "name": "executedTimestamp",
          "type": "uint256"
        }
      ],
      "stateMutability": "view",
      "type": "function",
      "constant": true
    },
    {
      "inputs": [],
      "name": "numAgendas",
      "outputs": [
        {
          "internalType": "uint256",
          "name": "",
          "type": "uint256"
        }
      ],
      "stateMutability": "view",
      "type": "function",
      "constant": true
    },
    {
      "inputs": [
        {
          "internalType": "uint256",
          "name": "_agendaID",
          "type": "uint256"
        }
      ],
      "name": "getVoters",
      "outputs": [
        {
          "internalType": "address[]",
          "name": "",
          "type": "address[]"
        }
      ],
      "stateMutability": "view",
      "type": "function",
      "constant": true
    }
  ],
  "bytecode": "0x608060405234801561001057600080fd5b50600061001b610085565b600080546001600160a01b0319166001600160a01b0383169081178255604051929350917f8be0079c531659141344cd1fd0a4f28419497f9722a3daafe3b4186f6b6457e0908290a35061012c60038190556004819055600555662386f26fc10000600255610089565b3390565b612698806100986000396000f3fe608060405234801561001057600080fd5b506004361061023c5760003560e01c80637e77eb231161013b578063c0bc5304116100b8578063de6bd3861161007c578063de6bd38614610543578063e3bc145f1461037c578063e3c3615614610556578063e7015fef1461055e578063f2fde38b146105665761023c565b8063c0bc5304146104e1578063cdeed605146104f4578063d30bbcbf14610515578063d864e74014610528578063d896dd64146105305761023c565b80638da5cb5b116100ff5780638da5cb5b146104605780638e3f5f8314610475578063aee4a42a14610499578063b4f69b6a146104bb578063bddae40e146104ce5761023c565b80637e77eb23146103f457806382e40813146104075780638425a46d1461041a57806386b646f21461042d578063885b46961461044d5761023c565b806343859632116101c957806369b1227a1161018d57806369b1227a146103845780636bcaab5e14610397578063715018a6146103b857806373ba3745146103c057806377f28d5b146103e15761023c565b806343859632146103145780634a47f59b1461032757806356150a36146103495780635c622a0e1461035c578063699cc3581461037c5761023c565b8063284d776e11610210578063284d776e1461029c578063334bbf35146102af57806337184a32146102c25780633c4a819c146102d55780633da2371f146103015761023c565b8062b74c45146102415780630af5aa3c1461026a57806323d09fdf1461027f5780632522a32f14610294575b600080fd5b61025461024f366004611e84565b610579565b6040516102619190612078565b60405180910390f35b6102726105d8565b60405161026191906124c1565b61029261028d366004611e54565b6105de565b005b61027261063b565b6102726102aa366004611e54565b610641565b6102726102bd366004611e54565b61069c565b6102926102d0366004611e54565b6106e6565b6102e86102e3366004611e54565b6107ef565b6040516102619d9c9b9a99989796959493929190612521565b61027261030f366004611e54565b61086e565b610254610322366004611e84565b6108b8565b61033a610335366004611e84565b61090d565b60405161026193929190612083565b610292610357366004611eea565b61093e565b61036f61036a366004611e54565b610a22565b60405161026191906120ab565b610272610a70565b610292610392366004611e54565b610a76565b6103aa6103a5366004611e54565b610ad3565b6040516102619291906124ca565b610292610b5e565b6103d36103ce366004611e54565b610c00565b604051610261929190611fd1565b6102546103ef366004611e54565b610d4f565b610254610402366004611eb3565b610de2565b610292610415366004611f38565b610fdd565b610254610428366004611e54565b6110e9565b61044061043b366004611e54565b611141565b6040516102619190611fbe565b61029261045b366004611e54565b6111c1565b6104686112aa565b6040516102619190611faa565b610488610483366004611e54565b6112b9565b6040516102619594939291906124fe565b6104ac6104a7366004611e54565b611308565b604051610261939291906124e8565b6102926104c9366004611e54565b611348565b6102926104dc366004611d9c565b6113a5565b6102926104ef366004611e54565b611445565b610507610502366004611e84565b6114a2565b60405161026192919061209b565b610272610523366004611dd4565b611506565b6104686117c8565b61029261053e366004611f11565b6117d7565b610272610551366004611e54565b6118c2565b61027261190c565b610272611912565b610292610574366004611d9c565b611918565b60006001600160a01b0382166105aa5760405162461bcd60e51b81526004016105a190612180565b60405180910390fd5b5060008281526007602090815260408083206001600160a01b038516845290915290205460ff165b92915050565b60035481565b6105e6611a10565b6000546001600160a01b03908116911614610636576040805162461bcd60e51b81526020600482018190526024820152600080516020612623833981519152604482015290519081900360640190fd5b600355565b60025481565b60065460009082106106655760405162461bcd60e51b81526004016105a19061237b565b6006828154811061067257fe5b60009182526020909120600a600d90920201015460ff16600581111561069457fe5b90505b919050565b60065460009082106106c05760405162461bcd60e51b81526004016105a1906121fd565b600682815481106106cd57fe5b90600052602060002090600d0201600401549050919050565b6106ee611a10565b6000546001600160a01b0390811691161461073e576040805162461bcd60e51b81526020600482018190526024820152600080516020612623833981519152604482015290519081900360640190fd5b600654811061075f5760405162461bcd60e51b81526004016105a1906120b9565b60006006828154811061076e57fe5b60009182526020909120600c600d90920201908101805460ff19166001179055426006820155600a81015490915082906000805160206126438339815191529060ff1660058111156107bc57fe5b60046040516107cc9291906124da565b60405180910390a2600a810180546004919060ff19166001835b02179055505050565b600681815481106107ff57600080fd5b60009182526020909120600d9091020180546001820154600283015460038401546004850154600586015460068701546007880154600889015460098a0154600a8b0154600c909b0154999b509799969895979496939592949193909260ff808316926101009004811691168d565b60065460009082106108925760405162461bcd60e51b81526004016105a1906121fd565b6006828154811061089f57fe5b90600052602060002090600d0201600301549050919050565b60065460009083106108dc5760405162461bcd60e51b81526004016105a190612100565b5060009182526007602090815260408084206001600160a01b03939093168452919052902054610100900460ff1690565b60076020908152600092835260408084209091529082529020805460019091015460ff808316926101009004169083565b610946611a10565b6000546001600160a01b03908116911614610996576040805162461bcd60e51b81526020600482018190526024820152600080516020612623833981519152604482015290519081900360640190fd5b6000600683815481106109a557fe5b90600052602060002090600d020190508181600a0160016101000a81548160ff021916908360038111156109d557fe5b0217905550827ff874b3fe678e8c9f4bd9dd7051e2bd81708e378e98526f16586e7bf60b77effc836003811115610a0857fe5b604051610a1591906124c1565b60405180910390a2505050565b60006001821415610a3557506001610697565b6002821415610a4657506002610697565b6004821415610a5757506004610697565b6005821415610a6857506005610697565b506000610697565b60065490565b610a7e611a10565b6000546001600160a01b03908116911614610ace576040805162461bcd60e51b81526020600482018190526024820152600080516020612623833981519152604482015290519081900360640190fd5b600555565b60065460009081908310610af95760405162461bcd60e51b81526004016105a1906123f4565b60068381548110610b0657fe5b90600052602060002090600d0201600a0160019054906101000a900460ff166003811115610b3057fe5b60068481548110610b3d57fe5b60009182526020909120600c600d90920201015490925060ff169050915091565b610b66611a10565b6000546001600160a01b03908116911614610bb6576040805162461bcd60e51b81526020600482018190526024820152600080516020612623833981519152604482015290519081900360640190fd5b600080546040516001600160a01b03909116907f8be0079c531659141344cd1fd0a4f28419497f9722a3daafe3b4186f6b6457e0908390a3600080546001600160a01b0319169055565b600081815260086020908152604091829020805483518184028101840190945280845260609384938392600184019291849190830182828015610c6c57602002820191906000526020600020905b81546001600160a01b03168152600190910190602001808311610c4e575b5050505050915080805480602002602001604051908101604052809291908181526020016000905b82821015610d3f5760008481526020908190208301805460408051601f6002600019610100600187161502019094169390930492830185900485028101850190915281815292830182828015610d2b5780601f10610d0057610100808354040283529160200191610d2b565b820191906000526020600020905b815481529060010190602001808311610d0e57829003601f168201915b505050505081526020019060010190610c94565b5050505090509250925050915091565b60008060068381548110610d5f57fe5b60009182526020909120600d9091020190506003600a82015460ff166005811115610d8657fe5b148015610d97575080600501544211155b8015610dba57506001600a820154610100900460ff166003811115610db857fe5b145b8015610dca575042816004015411155b8015610ddb5750600c81015460ff16155b9392505050565b6000610dec611a10565b6000546001600160a01b03908116911614610e3c576040805162461bcd60e51b81526020600482018190526024820152600080516020612623833981519152604482015290519081900360640190fd5b60038210610e5c5760405162461bcd60e51b81526004016105a190612149565b610e65846110e9565b610e815760405162461bcd60e51b81526004016105a19061248c565b600060068581548110610e9057fe5b60009182526020909120600d9091020190506001600a82015460ff166005811115610eb757fe5b1415610ec657610ec685611a14565b610ed08585610579565b610eec5760405162461bcd60e51b81526004016105a1906121c6565b610ef685856108b8565b15610f135760405162461bcd60e51b81526004016105a1906123bd565b8060040154421115610f375760405162461bcd60e51b81526004016105a190612294565b60008581526007602090815260408083206001600160a01b03881684529091528120805461ff0019166101001781556001810185905590841415610f8f576009820154610f85906001611c0a565b6009830155610fd1565b6001841415610fb2576007820154610fa8906001611c0a565b6007830155610fd1565b600284141561023c576008820154610fcb906001611c0a565b60088301555b50600195945050505050565b610fe5611a10565b6000546001600160a01b03908116911614611035576040805162461bcd60e51b81526020600482018190526024820152600080516020612623833981519152604482015290519081900360640190fd5b60065482106110565760405162461bcd60e51b81526004016105a190612100565b816000805160206126438339815191526006848154811061107357fe5b60009182526020909120600a600d90920201015460ff16600581111561109557fe5b836040516110a49291906124da565b60405180910390a26110b581610a22565b600683815481106110c257fe5b60009182526020909120600a600d9092020101805460ff191660018360058111156107e657fe5b600080600683815481106110f957fe5b90600052602060002090600d02019050806004015442111580610ddb57506001600a82015460ff16600581111561112c57fe5b148015610ddb57506001015442101592915050565b60606006828154811061115057fe5b90600052602060002090600d0201600b018054806020026020016040519081016040528092919081815260200182805480156111b557602002820191906000526020600020905b81546001600160a01b03168152600190910190602001808311611197575b50505050509050919050565b6111c9611a10565b6000546001600160a01b03908116911614611219576040805162461bcd60e51b81526020600482018190526024820152600080516020612623833981519152604482015290519081900360640190fd5b60006006828154811061122857fe5b60009182526020909120600d9091020190506002600a82015460ff16600581111561124f57fe5b1461126c5760405162461bcd60e51b81526004016105a190612244565b42816004015411156112905760405162461bcd60e51b81526004016105a190612332565b61129b8260056117d7565b6112a682600361093e565b5050565b6000546001600160a01b031690565b600080600080600080600687815481106112cf57fe5b60009182526020909120600d909102018054600182015460038301546004840154600690940154929b919a509850919650945092505050565b6000806000806006858154811061131b57fe5b90600052602060002090600d02019050806007015481600801548260090154935093509350509193909250565b611350611a10565b6000546001600160a01b039081169116146113a0576040805162461bcd60e51b81526020600482018190526024820152600080516020612623833981519152604482015290519081900360640190fd5b600255565b6113ad611a10565b6000546001600160a01b039081169116146113fd576040805162461bcd60e51b81526020600482018190526024820152600080516020612623833981519152604482015290519081900360640190fd5b6001600160a01b0381166114235760405162461bcd60e51b81526004016105a1906122f1565b600180546001600160a01b0319166001600160a01b0392909216919091179055565b61144d611a10565b6000546001600160a01b0390811691161461149d576040805162461bcd60e51b81526020600482018190526024820152600080516020612623833981519152604482015290519081900360640190fd5b600455565b600654600090819084106114c85760405162461bcd60e51b81526004016105a190612100565b505060008281526007602090815260408083206001600160a01b03851684529091529020805460019091015461010090910460ff16905b9250929050565b6000611510611a10565b6000546001600160a01b03908116911614611560576040805162461bcd60e51b81526020600482018190526024820152600080516020612623833981519152604482015290519081900360640190fd5b6003548510156115825760405162461bcd60e51b81526004016105a19061243e565b600680549050905060606006604051806101c00160405280428152602001884201815260200187815260200160008152602001600081526020016000815260200160008152602001600081526020016000815260200160008152602001600160058111156115ec57fe5b815260200160008152602080820185905260006040928301819052845460018181018755958252908290208451600d909202019081559083015181850155908201516002820155606082015160038201556080820151600482015560a082015160058083019190915560c0830151600683015560e0830151600783015561010083015160088301556101208301516009830155610140830151600a83018054949593949193909260ff199092169184908111156116a557fe5b0217905550610160820151600a8201805461ff0019166101008360038111156116ca57fe5b021790555061018082015180516116eb91600b840191602090910190611c64565b506101a09190910151600c909101805460ff19169115159190911790556000828152600860205260408120905b888110156117bb57818a8a8381811061172d57fe5b90506020020160208101906117429190611d9c565b815460018082018455600093845260209093200180546001600160a01b0319166001600160a01b0392909216919091179055820186868381811061178257fe5b9050602002810190611794919061259f565b8254600181018455600093845260209093206117b293019190611cc9565b50600101611718565b5050509695505050505050565b6001546001600160a01b031681565b6117df611a10565b6000546001600160a01b0390811691161461182f576040805162461bcd60e51b81526020600482018190526024820152600080516020612623833981519152604482015290519081900360640190fd5b60006006838154811061183e57fe5b90600052602060002090600d020190508260008051602061264383398151915282600a0160009054906101000a900460ff16600581111561187b57fe5b84600581111561188757fe5b6040516118959291906124da565b60405180910390a2600a8101805483919060ff191660018360058111156118b857fe5b0217905550505050565b60065460009082106118e65760405162461bcd60e51b81526004016105a1906121fd565b600682815481106118f357fe5b90600052602060002090600d0201600101549050919050565b60045481565b60055481565b611920611a10565b6000546001600160a01b03908116911614611970576040805162461bcd60e51b81526020600482018190526024820152600080516020612623833981519152604482015290519081900360640190fd5b6001600160a01b0381166119b55760405162461bcd60e51b81526004018080602001828103825260268152602001806125fd6026913960400191505060405180910390fd5b600080546040516001600160a01b03808516939216917f8be0079c531659141344cd1fd0a4f28419497f9722a3daafe3b4186f6b6457e091a3600080546001600160a01b0319166001600160a01b0392909216919091179055565b3390565b600060068281548110611a2357fe5b90600052602060002090600d02019050428160030181905550611a53816002015442611c0a90919063ffffffff16565b60048201819055600554611a679190611c0a565b6005820155600a8101805460ff191660021790556001546040805162f8f26b60e21b815290516000926001600160a01b0316916303e3c9ac916004808301926020929190829003018186803b158015611abf57600080fd5b505afa158015611ad3573d6000803e3d6000fd5b505050506040513d601f19601f82011682018060405250810190611af79190611e6c565b905060005b81811015611be757600154604051632ed7846560e11b81526000916001600160a01b031690635daf08ca90611b359085906004016124c1565b60206040518083038186803b158015611b4d57600080fd5b505afa158015611b61573d6000803e3d6000fd5b505050506040513d601f19601f82011682018060405250810190611b859190611db8565b600b85018054600181810183556000928352602080842090920180546001600160a01b039095166001600160a01b03199095168517905588835260078252604080842094845293909152919020805460ff191682179055919091019050611afc565b508260008051602061264383398151915260016002604051610a159291906124da565b600082820183811015610ddb576040805162461bcd60e51b815260206004820152601b60248201527f536166654d6174683a206164646974696f6e206f766572666c6f770000000000604482015290519081900360640190fd5b828054828255906000526020600020908101928215611cb9579160200282015b82811115611cb957825182546001600160a01b0319166001600160a01b03909116178255602090920191600190910190611c84565b50611cc5929150611d45565b5090565b828054600181600116156101000203166002900490600052602060002090601f016020900481019282611cff5760008555611cb9565b82601f10611d185782800160ff19823516178555611cb9565b82800160010185558215611cb9579182015b82811115611cb9578235825591602001919060010190611d2a565b5b80821115611cc55760008155600101611d46565b60008083601f840112611d6b578182fd5b50813567ffffffffffffffff811115611d82578182fd5b60208301915083602080830285010111156114ff57600080fd5b600060208284031215611dad578081fd5b8135610ddb816125e4565b600060208284031215611dc9578081fd5b8151610ddb816125e4565b60008060008060008060808789031215611dec578182fd5b863567ffffffffffffffff80821115611e03578384fd5b611e0f8a838b01611d5a565b909850965060208901359550604089013594506060890135915080821115611e35578384fd5b50611e4289828a01611d5a565b979a9699509497509295939492505050565b600060208284031215611e65578081fd5b5035919050565b600060208284031215611e7d578081fd5b5051919050565b60008060408385031215611e96578182fd5b823591506020830135611ea8816125e4565b809150509250929050565b600080600060608486031215611ec7578283fd5b833592506020840135611ed9816125e4565b929592945050506040919091013590565b60008060408385031215611efc578182fd5b82359150602083013560048110611ea8578182fd5b60008060408385031215611f23578182fd5b82359150602083013560068110611ea8578182fd5b60008060408385031215611f4a578182fd5b50508035926020909101359150565b6000815180845260208085019450808401835b83811015611f915781516001600160a01b031687529582019590820190600101611f6c565b509495945050505050565b60068110611fa657fe5b9052565b6001600160a01b0391909116815260200190565b600060208252610ddb6020830184611f59565b600060408252611fe46040830185611f59565b602083820381850152818551808452828401915082838202850101838801865b8381101561206957601f1980888503018652825180518086528a5b8181101561203a578281018a01518782018b0152890161201f565b8181111561204a578b8a83890101525b5096880196601f01909116939093018601925090850190600101612004565b50909998505050505050505050565b901515815260200190565b92151583529015156020830152604082015260600190565b9115158252602082015260400190565b602081016105d28284611f9c565b60208082526027908201527f44414f4167656e64614d616e616765723a205f6167656e646149442069732069604082015266373b30b634b21760c91b606082015260800190565b60208082526029908201527f44414f4167656e64614d616e616765723a204e6f7420612076616c69642050726040820152681bdc1bdcd85b08125960ba1b606082015260800190565b6020808252601e908201527f44414f4167656e64614d616e616765723a20696e76616c696420766f74650000604082015260600190565b60208082526026908201527f44414f4167656e64614d616e616765723a20757365722061646472657373206960408201526573207a65726f60d01b606082015260800190565b6020808252601d908201527f44414f4167656e64614d616e616765723a206e6f74206120766f746572000000604082015260600190565b60208082526027908201527f44414f4167656e64614d616e616765723a204e6f7420612076616c6964204167604082015266195b991848125960ca1b606082015260800190565b60208082526030908201527f44414f4167656e64614d616e616765723a206167656e6461207374617475732060408201526f6973206e6f74206368616e6761626c6560801b606082015260800190565b6020808252603a908201527f44414f4167656e64614d616e616765723a20666f722074686973206167656e6460408201527f612c2074686520766f74696e672074696d652065787069726564000000000000606082015260800190565b60208082526021908201527f44414f4167656e64614d616e616765723a2061646472657373206973207a65726040820152606f60f81b606082015260800190565b60208082526029908201527f44414f4167656e64614d616e616765723a20766f74696e67206973206e6f7420604082015268195b991959081e595d60ba1b606082015260800190565b60208082526022908201527f44414f4167656e64614d616e616765723a20696e76616c6964206167656e64206040820152611a5960f21b606082015260800190565b6020808252601f908201527f44414f4167656e64614d616e616765723a20616c726561647920766f74656400604082015260600190565b6020808252602a908201527f44414f4167656e64614d616e616765723a204e6f7420612076616c6964205f6160408201526919d95b9918525108125960b21b606082015260800190565b6020808252602e908201527f44414f4167656e64614d616e616765723a206d696e696d756d4e6f746963655060408201526d195c9a5bd9081a5cc81cda1bdc9d60921b606082015260800190565b6020808252818101527f44414f4167656e64614d616e616765723a20696e76616c696420737461747573604082015260600190565b90815260200190565b9182521515602082015260400190565b918252602082015260400190565b9283526020830191909152604082015260600190565b948552602085019390935260408401919091526060830152608082015260a00190565b60006101a0820190508e82528d60208301528c60408301528b60608301528a60808301528960a08301528860c08301528760e08301528661010083015285610120830152612573610140830186611f9c565b6004841061257d57fe5b836101608301528215156101808301529e9d5050505050505050505050505050565b6000808335601e198436030181126125b5578283fd5b83018035915067ffffffffffffffff8211156125cf578283fd5b6020019150368190038213156114ff57600080fd5b6001600160a01b03811681146125f957600080fd5b5056fe4f776e61626c653a206e6577206f776e657220697320746865207a65726f20616464726573734f776e61626c653a2063616c6c6572206973206e6f7420746865206f776e657227e1508d1d92ba0e1e406fad0138e0f3dd44688f5018dbe7f5718da02931eb7ca2646970667358221220a4965497075aa95ed0f0dac1474d3ccfa473db15a4f14cbeb628d90415bd54a264736f6c63430007060033",
  "immutableReferences": {},
  "source": "// SPDX-License-Identifier: MIT\npragma solidity ^0.7.6;\npragma abicoder v2;\n\nimport { SafeMath } from \"../../node_modules/@openzeppelin/contracts/math/SafeMath.sol\";\nimport { IERC20 } from  \"../../node_modules/@openzeppelin/contracts/token/ERC20/IERC20.sol\";\nimport { IDAOCommittee } from \"../interfaces/IDAOCommittee.sol\";\nimport { ICandidate } from \"../interfaces/ICandidate.sol\";\nimport { LibAgenda } from \"../lib/Agenda.sol\";\nimport \"../../node_modules/@openzeppelin/contracts/access/Ownable.sol\";\n\ncontract DAOAgendaManager is Ownable {\n    using SafeMath for uint256;\n    using LibAgenda for *;\n\n    enum VoteChoice { ABSTAIN, YES, NO, MAX }\n\n    IDAOCommittee public committee;\n    \n    uint256 public createAgendaFees; // (TON)\n    \n    uint256 public minimumNoticePeriodSeconds;\n    uint256 public minimumVotingPeriodSeconds;\n    uint256 public executingPeriodSeconds;\n    \n    LibAgenda.Agenda[] public agendas;\n    mapping(uint256 => mapping(address => LibAgenda.Voter)) public voterInfos;\n    mapping(uint256 => LibAgenda.AgendaExecutionInfo) internal executionInfos;\n    \n    event AgendaStatusChanged(\n        uint256 indexed agendaID,\n        uint256 prevStatus,\n        uint256 newStatus\n    );\n\n    event AgendaResultChanged(\n        uint256 indexed agendaID,\n        uint256 result\n    );\n\n    modifier validAgenda(uint256 _agendaID) {\n        require(_agendaID < agendas.length, \"DAOAgendaManager: invalid agenda id\");\n        _;\n    }\n    \n    constructor() {\n        //minimumNoticePeriodSeconds = 60 * 60 * 24 * 15; //  15 days, on seconds\n        //minimumVotingPeriodSeconds = 60 * 60 * 24 * 2; //  2 days, on seconds\n        //executingPeriodSeconds = 60 * 60 * 24 * 7; //  7 days, on seconds\n\n        minimumNoticePeriodSeconds = 300;\n        minimumVotingPeriodSeconds = 300;\n        executingPeriodSeconds = 300;\n        \n        //createAgendaFees = 100000000000000000000; // 100 TON\n        createAgendaFees = 10000000000000000; // 100 TON\n    }\n\n    function getStatus(uint _status) public pure returns (LibAgenda.AgendaStatus emnustatus) {\n        if (_status == uint(LibAgenda.AgendaStatus.NOTICE))\n            return LibAgenda.AgendaStatus.NOTICE;\n        else if (_status == uint(LibAgenda.AgendaStatus.VOTING))\n            return LibAgenda.AgendaStatus.VOTING;\n        else if (_status == uint(LibAgenda.AgendaStatus.EXECUTED))\n            return LibAgenda.AgendaStatus.EXECUTED;\n        else if (_status == uint(LibAgenda.AgendaStatus.ENDED))\n            return LibAgenda.AgendaStatus.ENDED;\n        else\n            return LibAgenda.AgendaStatus.NONE;\n    }\n\n    /// @notice Set DAOCommitteeProxy contract address\n    /// @param _committee New DAOCommitteeProxy contract address\n    function setCommittee(address _committee) public onlyOwner {\n        require(_committee != address(0), \"DAOAgendaManager: address is zero\");\n        committee = IDAOCommittee(_committee);\n    }\n\n    /// @notice Set status of the agenda\n    /// @param _agendaID agenda ID\n    /// @param _status New status of the agenda\n    function setStatus(uint256 _agendaID, uint _status) public onlyOwner {\n        require(_agendaID < agendas.length, \"DAOAgendaManager: Not a valid Proposal Id\");\n\n        emit AgendaStatusChanged(_agendaID, uint(agendas[_agendaID].status), _status);\n        agendas[_agendaID].status = getStatus(_status);\n    }\n\n    /// @notice Set the fee(TON) of creating an agenda\n    /// @param _createAgendaFees New fee(TON)\n    function setCreateAgendaFees(uint256 _createAgendaFees) public onlyOwner {\n        createAgendaFees = _createAgendaFees;\n    }\n\n    /// @notice Set the minimum notice period in seconds\n    /// @param _minimumNoticePeriodSeconds New minimum notice period in seconds\n    function setMinimumNoticePeriodSeconds(uint256 _minimumNoticePeriodSeconds) public onlyOwner {\n        minimumNoticePeriodSeconds = _minimumNoticePeriodSeconds;\n    }\n\n    /// @notice Set the executing period in seconds\n    /// @param _executingPeriodSeconds New executing period in seconds\n    function setExecutingPeriodSeconds(uint256 _executingPeriodSeconds) public onlyOwner {\n        executingPeriodSeconds = _executingPeriodSeconds;\n    }\n\n    /// @notice Set the minimum voting period in seconds\n    /// @param _minimumVotingPeriodSeconds New minimum voting period in seconds\n    function setMinimumVotingPeriodSeconds(uint256 _minimumVotingPeriodSeconds) public onlyOwner {\n        minimumVotingPeriodSeconds = _minimumVotingPeriodSeconds;\n    }\n      \n    /// @notice Creates an agenda\n    /// @param _targets Target addresses for executions of the agenda\n    /// @param _noticePeriodSeconds Notice period in seconds\n    /// @param _votingPeriodSeconds Voting period in seconds\n    /// @param _functionBytecodes RLP-Encoded parameters for executions of the agenda\n    /// @return agendaID Created agenda ID\n    function newAgenda(\n        address[] calldata _targets,\n        uint256 _noticePeriodSeconds,\n        uint256 _votingPeriodSeconds,\n        bytes[] calldata _functionBytecodes\n    )\n        onlyOwner\n        public\n        returns (uint256 agendaID)\n    {\n        require(\n            _noticePeriodSeconds >= minimumNoticePeriodSeconds,\n            \"DAOAgendaManager: minimumNoticePeriod is short\"\n        );\n\n        agendaID = agendas.length;\n         \n        address[] memory emptyArray;\n        agendas.push(LibAgenda.Agenda({\n            status: LibAgenda.AgendaStatus.NOTICE,\n            result: LibAgenda.AgendaResult.PENDING,\n            executed: false,\n            createdTimestamp: block.timestamp,\n            noticeEndTimestamp: block.timestamp + _noticePeriodSeconds,\n            votingPeriodInSeconds: _votingPeriodSeconds,\n            votingStartedTimestamp: 0,\n            votingEndTimestamp: 0,\n            executableLimitTimestamp: 0,\n            executedTimestamp: 0,\n            countingYes: 0,\n            countingNo: 0,\n            countingAbstain: 0,\n            voters: emptyArray\n        }));\n\n        LibAgenda.AgendaExecutionInfo storage executionInfo = executionInfos[agendaID];\n        for (uint256 i = 0; i < _targets.length; i++) {\n            executionInfo.targets.push(_targets[i]);\n            executionInfo.functionBytecodes.push(_functionBytecodes[i]);\n        }\n\n        //numAgendas = agendas.length;\n        //agendaID = numAgendas.sub(1);\n    }\n\n    /// @notice Casts vote for an agenda\n    /// @param _agendaID Agenda ID\n    /// @param _voter Voter\n    /// @param _vote Voting type\n    /// @return Whether or not the execution succeeded\n    function castVote(\n        uint256 _agendaID,\n        address _voter,\n        uint _vote\n    )\n        public\n        onlyOwner\n        returns (bool)\n    {\n        require(_vote < uint(VoteChoice.MAX), \"DAOAgendaManager: invalid vote\");\n\n        require(\n            isVotableStatus(_agendaID),\n            \"DAOAgendaManager: invalid status\"\n        );\n\n        LibAgenda.Agenda storage agenda = agendas[_agendaID];\n\n        if (agenda.status == LibAgenda.AgendaStatus.NOTICE) {\n            _startVoting(_agendaID);\n        }\n\n        require(isVoter(_agendaID, _voter), \"DAOAgendaManager: not a voter\");\n        require(!hasVoted(_agendaID, _voter), \"DAOAgendaManager: already voted\");\n\n        require(\n            block.timestamp <= agenda.votingEndTimestamp,\n            \"DAOAgendaManager: for this agenda, the voting time expired\"\n        );\n        \n        LibAgenda.Voter storage voter = voterInfos[_agendaID][_voter];\n        voter.hasVoted = true;\n        voter.vote = _vote;\n             \n        // counting 0:abstainVotes 1:yesVotes 2:noVotes\n        if (_vote == uint(VoteChoice.ABSTAIN))\n            agenda.countingAbstain = agenda.countingAbstain.add(1);\n        else if (_vote == uint(VoteChoice.YES))\n            agenda.countingYes = agenda.countingYes.add(1);\n        else if (_vote == uint(VoteChoice.NO))\n            agenda.countingNo = agenda.countingNo.add(1);\n        else\n            revert();\n        \n        return true;\n    }\n    \n    /// @notice Set the agenda status as executed\n    /// @param _agendaID Agenda ID\n    function setExecutedAgenda(uint256 _agendaID)\n        public\n        onlyOwner\n    {\n        require(_agendaID < agendas.length, \"DAOAgendaManager: _agendaID is invalid.\");\n\n        LibAgenda.Agenda storage agenda = agendas[_agendaID];\n        agenda.executed = true;\n        agenda.executedTimestamp = block.timestamp;\n\n        emit AgendaStatusChanged(_agendaID, uint(agenda.status), uint(LibAgenda.AgendaStatus.EXECUTED));\n\n        agenda.status = LibAgenda.AgendaStatus.EXECUTED;\n    }\n\n    /// @notice Set the agenda result\n    /// @param _agendaID Agenda ID\n    /// @param _result New result\n    function setResult(uint256 _agendaID, LibAgenda.AgendaResult _result)\n        public\n        onlyOwner\n    {\n        LibAgenda.Agenda storage agenda = agendas[_agendaID];\n        agenda.result = _result;\n\n        emit AgendaResultChanged(_agendaID, uint256(_result));\n    }\n     \n    /// @notice Set the agenda status\n    /// @param _agendaID Agenda ID\n    /// @param _status New status\n    function setStatus(uint256 _agendaID, LibAgenda.AgendaStatus _status)\n        public\n        onlyOwner\n    {\n        LibAgenda.Agenda storage agenda = agendas[_agendaID];\n\n        emit AgendaStatusChanged(_agendaID, uint256(agenda.status), uint256(_status));\n        agenda.status = _status;\n    }\n\n    /// @notice Set the agenda status as ended(denied or dismissed)\n    /// @param _agendaID Agenda ID\n    function endAgendaVoting(uint256 _agendaID)\n        public\n        onlyOwner\n    {\n        LibAgenda.Agenda storage agenda = agendas[_agendaID];\n\n        require(\n            agenda.status == LibAgenda.AgendaStatus.VOTING,\n            \"DAOAgendaManager: agenda status is not changable\"\n        );\n\n        require(\n            agenda.votingEndTimestamp <= block.timestamp,\n            \"DAOAgendaManager: voting is not ended yet\"\n        );\n\n        setStatus(_agendaID, LibAgenda.AgendaStatus.ENDED);\n        setResult(_agendaID, LibAgenda.AgendaResult.DISMISS);\n    }\n     \n    function _startVoting(uint256 _agendaID) internal {\n        LibAgenda.Agenda storage agenda = agendas[_agendaID];\n\n        agenda.votingStartedTimestamp = block.timestamp;\n        agenda.votingEndTimestamp = block.timestamp.add(agenda.votingPeriodInSeconds);\n        agenda.executableLimitTimestamp = agenda.votingEndTimestamp.add(executingPeriodSeconds);\n        agenda.status = LibAgenda.AgendaStatus.VOTING;\n\n        uint256 memberCount = committee.maxMember();\n        for (uint256 i = 0; i < memberCount; i++) {\n            address voter = committee.members(i);\n            agenda.voters.push(voter);\n            voterInfos[_agendaID][voter].isVoter = true;\n        }\n\n        emit AgendaStatusChanged(_agendaID, uint(LibAgenda.AgendaStatus.NOTICE), uint(LibAgenda.AgendaStatus.VOTING));\n    }\n    \n    function checkAndEndVoting(uint256 _agendaID) internal {\n        LibAgenda.Agenda storage agenda = agendas[_agendaID];\n\n        require(\n            agenda.status == LibAgenda.AgendaStatus.VOTING,\n            \"DAOAgendaManager: status is not voting.\"\n        );\n    }\n\n    function isVoter(uint256 _agendaID, address _candidate) public view returns (bool) {\n        require(_candidate != address(0), \"DAOAgendaManager: user address is zero\");\n        return voterInfos[_agendaID][_candidate].isVoter;\n    }\n    \n    function hasVoted(uint256 _agendaID, address _user) public view returns (bool) {\n        require(_agendaID < agendas.length, \"DAOAgendaManager: Not a valid Proposal Id\");\n        return voterInfos[_agendaID][_user].hasVoted;\n    }\n\n    function getVoteStatus(uint256 _agendaID, address _user) public view returns (bool, uint256) {\n        require(_agendaID < agendas.length, \"DAOAgendaManager: Not a valid Proposal Id\");\n        \n        LibAgenda.Voter storage voter = voterInfos[_agendaID][_user];\n\n        return (\n            voter.hasVoted,\n            voter.vote\n        );\n    }\n    \n    function getAgendaNoticeEndTimeSeconds(uint256 _agendaID) public view returns (uint) {\n        require(_agendaID < agendas.length, \"DAOAgendaManager: Not a valid Agenda Id\");\n        return agendas[_agendaID].noticeEndTimestamp;\n    }\n    \n    function getAgendaVotingStartTimeSeconds(uint256 _agendaID) public view returns (uint) {\n        require(_agendaID < agendas.length, \"DAOAgendaManager: Not a valid Agenda Id\");\n        return agendas[_agendaID].votingStartedTimestamp;\n    }\n\n    function getAgendaVotingEndTimeSeconds(uint256 _agendaID) public view returns (uint) {\n        require(_agendaID < agendas.length, \"DAOAgendaManager: Not a valid Agenda Id\");\n        return agendas[_agendaID].votingEndTimestamp;\n    }\n\n    function canExecuteAgenda(uint256 _agendaID) public view returns (bool) {\n        LibAgenda.Agenda storage agenda = agendas[_agendaID];\n\n        return agenda.status == LibAgenda.AgendaStatus.WAITING_EXEC &&\n            block.timestamp <= agenda.executableLimitTimestamp &&\n            agenda.result == LibAgenda.AgendaResult.ACCEPT &&\n            agenda.votingEndTimestamp <= block.timestamp &&\n            agenda.executed == false;\n    }\n    \n    function getAgendaStatus(uint256 _agendaID) public view returns (uint status) {\n        require(_agendaID < agendas.length, \"DAOAgendaManager: invalid agend id\");\n        return uint(agendas[_agendaID].status);\n    }\n\n    function totalAgendas() public view returns (uint256) {\n        return agendas.length;\n    }\n\n    function getAgendaResult(uint256 _agendaID) public view returns (uint result, bool executed) {\n        require(_agendaID < agendas.length, \"DAOAgendaManager: Not a valid _agendaID Id\");\n        return (uint(agendas[_agendaID].result), agendas[_agendaID].executed);\n    }\n   \n    function getExecutionInfo(uint256 _agendaID)\n        public\n        view\n        returns(\n            address[] memory target,\n            bytes[] memory functionBytecode\n        )\n    {\n        LibAgenda.AgendaExecutionInfo storage agenda = executionInfos[_agendaID];\n        return (\n            agenda.targets,\n            agenda.functionBytecodes\n        );\n    }\n\n    function isVotableStatus(uint256 _agendaID) public view returns (bool) {\n        LibAgenda.Agenda storage agenda = agendas[_agendaID];\n\n        return block.timestamp <= agenda.votingEndTimestamp ||\n            (agenda.status == LibAgenda.AgendaStatus.NOTICE &&\n                agenda.noticeEndTimestamp <= block.timestamp);\n    }\n\n    function getVotingCount(uint256 _agendaID)\n        public\n        view\n        returns (\n            uint256 countingYes,\n            uint256 countingNo,\n            uint256 countingAbstain\n        )\n    {\n        LibAgenda.Agenda storage agenda = agendas[_agendaID];\n        return (\n            agenda.countingYes,\n            agenda.countingNo,\n            agenda.countingAbstain\n        );\n    }\n\n    function getAgendaTimestamps(uint256 _agendaID)\n        public\n        view\n        returns (\n            uint256 createdTimestamp,\n            uint256 noticeEndTimestamp,\n            uint256 votingStartedTimestamp,\n            uint256 votingEndTimestamp,\n            uint256 executedTimestamp\n        )\n    {\n        LibAgenda.Agenda storage agenda = agendas[_agendaID];\n        return (\n            agenda.createdTimestamp,\n            agenda.noticeEndTimestamp,\n            agenda.votingStartedTimestamp,\n            agenda.votingEndTimestamp,\n            agenda.executedTimestamp\n        );\n    }\n\n    function numAgendas() public view returns (uint256) {\n        return agendas.length;\n    }\n\n    function getVoters(uint256 _agendaID) public view returns (address[] memory) {\n        return agendas[_agendaID].voters;\n    }\n}\n",
  "sourcePath": "/data/github/onther/tokamak-dao-contracts3/contracts/dao/DAOAgendaManager.sol",
  "compiler": {
    "name": "solc",
    "version": "0.7.6+commit.7338295f.Emscripten.clang"
  },
  "schemaVersion": "3.3.2",
  "updatedAt": "2021-02-18T18:33:47.683Z",
  "networkType": "ethereum",
  "devdoc": {
    "kind": "dev",
    "methods": {
      "castVote(uint256,address,uint256)": {
        "params": {
          "_agendaID": "Agenda ID",
          "_vote": "Voting type",
          "_voter": "Voter"
        },
        "returns": {
          "_0": "Whether or not the execution succeeded"
        }
      },
      "endAgendaVoting(uint256)": {
        "params": {
          "_agendaID": "Agenda ID"
        }
      },
      "newAgenda(address[],uint256,uint256,bytes[])": {
        "params": {
          "_functionBytecodes": "RLP-Encoded parameters for executions of the agenda",
          "_noticePeriodSeconds": "Notice period in seconds",
          "_targets": "Target addresses for executions of the agenda",
          "_votingPeriodSeconds": "Voting period in seconds"
        },
        "returns": {
          "agendaID": "Created agenda ID"
        }
      },
      "owner()": {
        "details": "Returns the address of the current owner."
      },
      "renounceOwnership()": {
        "details": "Leaves the contract without owner. It will not be possible to call `onlyOwner` functions anymore. Can only be called by the current owner. NOTE: Renouncing ownership will leave the contract without an owner, thereby removing any functionality that is only available to the owner."
      },
      "setCommittee(address)": {
        "params": {
          "_committee": "New DAOCommitteeProxy contract address"
        }
      },
      "setCreateAgendaFees(uint256)": {
        "params": {
          "_createAgendaFees": "New fee(TON)"
        }
      },
      "setExecutedAgenda(uint256)": {
        "params": {
          "_agendaID": "Agenda ID"
        }
      },
      "setExecutingPeriodSeconds(uint256)": {
        "params": {
          "_executingPeriodSeconds": "New executing period in seconds"
        }
      },
      "setMinimumNoticePeriodSeconds(uint256)": {
        "params": {
          "_minimumNoticePeriodSeconds": "New minimum notice period in seconds"
        }
      },
      "setMinimumVotingPeriodSeconds(uint256)": {
        "params": {
          "_minimumVotingPeriodSeconds": "New minimum voting period in seconds"
        }
      },
      "setResult(uint256,uint8)": {
        "params": {
          "_agendaID": "Agenda ID",
          "_result": "New result"
        }
      },
      "setStatus(uint256,uint256)": {
        "params": {
          "_agendaID": "agenda ID",
          "_status": "New status of the agenda"
        }
      },
      "setStatus(uint256,uint8)": {
        "params": {
          "_agendaID": "Agenda ID",
          "_status": "New status"
        }
      },
      "transferOwnership(address)": {
        "details": "Transfers ownership of the contract to a new account (`newOwner`). Can only be called by the current owner."
      }
    },
    "version": 1
  },
  "userdoc": {
    "kind": "user",
    "methods": {
      "castVote(uint256,address,uint256)": {
        "notice": "Casts vote for an agenda"
      },
      "endAgendaVoting(uint256)": {
        "notice": "Set the agenda status as ended(denied or dismissed)"
      },
      "newAgenda(address[],uint256,uint256,bytes[])": {
        "notice": "Creates an agenda"
      },
      "setCommittee(address)": {
        "notice": "Set DAOCommitteeProxy contract address"
      },
      "setCreateAgendaFees(uint256)": {
        "notice": "Set the fee(TON) of creating an agenda"
      },
      "setExecutedAgenda(uint256)": {
        "notice": "Set the agenda status as executed"
      },
      "setExecutingPeriodSeconds(uint256)": {
        "notice": "Set the executing period in seconds"
      },
      "setMinimumNoticePeriodSeconds(uint256)": {
        "notice": "Set the minimum notice period in seconds"
      },
      "setMinimumVotingPeriodSeconds(uint256)": {
        "notice": "Set the minimum voting period in seconds"
      },
      "setResult(uint256,uint8)": {
        "notice": "Set the agenda result"
      },
      "setStatus(uint256,uint256)": {
        "notice": "Set status of the agenda"
      },
      "setStatus(uint256,uint8)": {
        "notice": "Set the agenda status"
      }
    },
    "version": 1
  }
}