{
  "contractName": "DAOAgendaManager",
  "abi": [
    {
      "inputs": [
        {
          "internalType": "address",
          "name": "_ton",
          "type": "address"
        }
      ],
      "stateMutability": "nonpayable",
      "type": "constructor"
    },
    {
      "anonymous": false,
      "inputs": [
        {
          "indexed": true,
          "internalType": "uint256",
          "name": "agendaID",
          "type": "uint256"
        },
        {
          "indexed": false,
          "internalType": "uint256",
          "name": "result",
          "type": "uint256"
        }
      ],
      "name": "AgendaResultChanged",
      "type": "event"
    },
    {
      "anonymous": false,
      "inputs": [
        {
          "indexed": true,
          "internalType": "uint256",
          "name": "agendaID",
          "type": "uint256"
        },
        {
          "indexed": false,
          "internalType": "uint256",
          "name": "prevStatus",
          "type": "uint256"
        },
        {
          "indexed": false,
          "internalType": "uint256",
          "name": "newStatus",
          "type": "uint256"
        }
      ],
      "name": "AgendaStatusChanged",
      "type": "event"
    },
    {
      "anonymous": false,
      "inputs": [
        {
          "indexed": true,
          "internalType": "address",
          "name": "previousOwner",
          "type": "address"
        },
        {
          "indexed": true,
          "internalType": "address",
          "name": "newOwner",
          "type": "address"
        }
      ],
      "name": "OwnershipTransferred",
      "type": "event"
    },
    {
      "inputs": [],
      "name": "activityRewardManager",
      "outputs": [
        {
          "internalType": "address",
          "name": "",
          "type": "address"
        }
      ],
      "stateMutability": "view",
      "type": "function"
    },
    {
      "inputs": [
        {
          "internalType": "uint256",
          "name": "",
          "type": "uint256"
        }
      ],
      "name": "agendas",
      "outputs": [
        {
          "internalType": "uint256",
          "name": "createdTimestamp",
          "type": "uint256"
        },
        {
          "internalType": "uint256",
          "name": "noticeEndTimestamp",
          "type": "uint256"
        },
        {
          "internalType": "uint256",
          "name": "votingPeriodInSeconds",
          "type": "uint256"
        },
        {
          "internalType": "uint256",
          "name": "votingStartedTimestamp",
          "type": "uint256"
        },
        {
          "internalType": "uint256",
          "name": "votingEndTimestamp",
          "type": "uint256"
        },
        {
          "internalType": "uint256",
          "name": "executedTimestamp",
          "type": "uint256"
        },
        {
          "internalType": "uint256",
          "name": "countingYes",
          "type": "uint256"
        },
        {
          "internalType": "uint256",
          "name": "countingNo",
          "type": "uint256"
        },
        {
          "internalType": "uint256",
          "name": "countingAbstain",
          "type": "uint256"
        },
        {
          "internalType": "uint256",
          "name": "reward",
          "type": "uint256"
        },
        {
          "internalType": "enum LibAgenda.AgendaStatus",
          "name": "status",
          "type": "uint8"
        },
        {
          "internalType": "enum LibAgenda.AgendaResult",
          "name": "result",
          "type": "uint8"
        },
        {
          "internalType": "bool",
          "name": "executed",
          "type": "bool"
        }
      ],
      "stateMutability": "view",
      "type": "function"
    },
    {
      "inputs": [],
      "name": "committee",
      "outputs": [
        {
          "internalType": "contract IDAOCommittee",
          "name": "",
          "type": "address"
        }
      ],
      "stateMutability": "view",
      "type": "function"
    },
    {
      "inputs": [],
      "name": "createAgendaFees",
      "outputs": [
        {
          "internalType": "uint256",
          "name": "",
          "type": "uint256"
        }
      ],
      "stateMutability": "view",
      "type": "function"
    },
    {
      "inputs": [
        {
          "internalType": "uint256",
          "name": "",
          "type": "uint256"
        }
      ],
      "name": "executionInfos",
      "outputs": [
        {
          "internalType": "address",
          "name": "target",
          "type": "address"
        },
        {
          "internalType": "bytes",
          "name": "functionBytecode",
          "type": "bytes"
        }
      ],
      "stateMutability": "view",
      "type": "function"
    },
    {
      "inputs": [],
      "name": "minimunNoticePeriodSeconds",
      "outputs": [
        {
          "internalType": "uint256",
          "name": "",
          "type": "uint256"
        }
      ],
      "stateMutability": "view",
      "type": "function"
    },
    {
      "inputs": [],
      "name": "minimunVotingPeriodSeconds",
      "outputs": [
        {
          "internalType": "uint256",
          "name": "",
          "type": "uint256"
        }
      ],
      "stateMutability": "view",
      "type": "function"
    },
    {
      "inputs": [],
      "name": "owner",
      "outputs": [
        {
          "internalType": "address",
          "name": "",
          "type": "address"
        }
      ],
      "stateMutability": "view",
      "type": "function"
    },
    {
      "inputs": [],
      "name": "quorum",
      "outputs": [
        {
          "internalType": "uint256",
          "name": "numerator",
          "type": "uint256"
        },
        {
          "internalType": "uint256",
          "name": "denominator",
          "type": "uint256"
        }
      ],
      "stateMutability": "view",
      "type": "function"
    },
    {
      "inputs": [],
      "name": "renounceOwnership",
      "outputs": [],
      "stateMutability": "nonpayable",
      "type": "function"
    },
    {
      "inputs": [],
      "name": "ton",
      "outputs": [
        {
          "internalType": "address",
          "name": "",
          "type": "address"
        }
      ],
      "stateMutability": "view",
      "type": "function"
    },
    {
      "inputs": [
        {
          "internalType": "address",
          "name": "newOwner",
          "type": "address"
        }
      ],
      "name": "transferOwnership",
      "outputs": [],
      "stateMutability": "nonpayable",
      "type": "function"
    },
    {
      "inputs": [
        {
          "internalType": "uint256",
          "name": "",
          "type": "uint256"
        },
        {
          "internalType": "address",
          "name": "",
          "type": "address"
        }
      ],
      "name": "voterInfos",
      "outputs": [
        {
          "internalType": "bool",
          "name": "isVoter",
          "type": "bool"
        },
        {
          "internalType": "bool",
          "name": "hasVoted",
          "type": "bool"
        },
        {
          "internalType": "uint256",
          "name": "vote",
          "type": "uint256"
        }
      ],
      "stateMutability": "view",
      "type": "function"
    },
    {
      "inputs": [
        {
          "internalType": "uint256",
          "name": "_status",
          "type": "uint256"
        }
      ],
      "name": "getStatus",
      "outputs": [
        {
          "internalType": "enum LibAgenda.AgendaStatus",
          "name": "emnustatus",
          "type": "uint8"
        }
      ],
      "stateMutability": "pure",
      "type": "function"
    },
    {
      "inputs": [
        {
          "internalType": "address",
          "name": "_committee",
          "type": "address"
        }
      ],
      "name": "setCommittee",
      "outputs": [],
      "stateMutability": "nonpayable",
      "type": "function"
    },
    {
      "inputs": [
        {
          "internalType": "uint256",
          "name": "_createAgendaFees",
          "type": "uint256"
        }
      ],
      "name": "setCreateAgendaFees",
      "outputs": [],
      "stateMutability": "nonpayable",
      "type": "function"
    },
    {
      "inputs": [
        {
          "internalType": "uint256",
          "name": "_minimunNoticePeriodSeconds",
          "type": "uint256"
        }
      ],
      "name": "setMinimunNoticePeriodSeconds",
      "outputs": [],
      "stateMutability": "nonpayable",
      "type": "function"
    },
    {
      "inputs": [
        {
          "internalType": "uint256",
          "name": "_minimunVotingPeriodSeconds",
          "type": "uint256"
        }
      ],
      "name": "setMinimunVotingPeriodSeconds",
      "outputs": [],
      "stateMutability": "nonpayable",
      "type": "function"
    },
    {
      "inputs": [
        {
          "internalType": "address",
          "name": "_man",
          "type": "address"
        }
      ],
      "name": "setActivityRewardManager",
      "outputs": [],
      "stateMutability": "nonpayable",
      "type": "function"
    },
    {
      "inputs": [
        {
          "internalType": "uint256",
          "name": "quorumNumerator",
          "type": "uint256"
        },
        {
          "internalType": "uint256",
          "name": "quorumDenominator",
          "type": "uint256"
        }
      ],
      "name": "setQuorum",
      "outputs": [],
      "stateMutability": "nonpayable",
      "type": "function"
    },
    {
      "inputs": [
        {
          "internalType": "uint256",
          "name": "_agendaID",
          "type": "uint256"
        },
        {
          "internalType": "address",
          "name": "_user",
          "type": "address"
        }
      ],
      "name": "hasVoted",
      "outputs": [
        {
          "internalType": "bool",
          "name": "",
          "type": "bool"
        }
      ],
      "stateMutability": "view",
      "type": "function"
    },
    {
      "inputs": [
        {
          "internalType": "uint256",
          "name": "_agendaID",
          "type": "uint256"
        }
      ],
      "name": "getAgendaNoticeEndTimeSeconds",
      "outputs": [
        {
          "internalType": "uint256",
          "name": "",
          "type": "uint256"
        }
      ],
      "stateMutability": "view",
      "type": "function"
    },
    {
      "inputs": [
        {
          "internalType": "uint256",
          "name": "_agendaID",
          "type": "uint256"
        }
      ],
      "name": "getAgendaVotingStartTimeSeconds",
      "outputs": [
        {
          "internalType": "uint256",
          "name": "",
          "type": "uint256"
        }
      ],
      "stateMutability": "view",
      "type": "function"
    },
    {
      "inputs": [
        {
          "internalType": "uint256",
          "name": "_agendaID",
          "type": "uint256"
        }
      ],
      "name": "getAgendaVotingEndTimeSeconds",
      "outputs": [
        {
          "internalType": "uint256",
          "name": "",
          "type": "uint256"
        }
      ],
      "stateMutability": "view",
      "type": "function"
    },
    {
      "inputs": [
        {
          "internalType": "uint256",
          "name": "_agendaID",
          "type": "uint256"
        }
      ],
      "name": "canExecuteAgenda",
      "outputs": [
        {
          "internalType": "bool",
          "name": "",
          "type": "bool"
        }
      ],
      "stateMutability": "view",
      "type": "function"
    },
    {
      "inputs": [
        {
          "internalType": "uint256",
          "name": "_agendaID",
          "type": "uint256"
        }
      ],
      "name": "getAgendaStatus",
      "outputs": [
        {
          "internalType": "uint256",
          "name": "status",
          "type": "uint256"
        }
      ],
      "stateMutability": "view",
      "type": "function"
    },
    {
      "inputs": [],
      "name": "totalAgendas",
      "outputs": [
        {
          "internalType": "uint256",
          "name": "",
          "type": "uint256"
        }
      ],
      "stateMutability": "view",
      "type": "function"
    },
    {
      "inputs": [
        {
          "internalType": "uint256",
          "name": "_agendaID",
          "type": "uint256"
        }
      ],
      "name": "getAgendaResult",
      "outputs": [
        {
          "internalType": "uint256",
          "name": "result",
          "type": "uint256"
        },
        {
          "internalType": "bool",
          "name": "executed",
          "type": "bool"
        }
      ],
      "stateMutability": "view",
      "type": "function"
    },
    {
      "inputs": [
        {
          "internalType": "address",
          "name": "_target",
          "type": "address"
        },
        {
          "internalType": "uint256",
          "name": "_noticePeriodSeconds",
          "type": "uint256"
        },
        {
          "internalType": "uint256",
          "name": "_votingPeriodSeconds",
          "type": "uint256"
        },
        {
          "internalType": "uint256",
          "name": "_reward",
          "type": "uint256"
        },
        {
          "internalType": "bytes",
          "name": "_functionBytecode",
          "type": "bytes"
        }
      ],
      "name": "newAgenda",
      "outputs": [
        {
          "internalType": "uint256",
          "name": "agendaID",
          "type": "uint256"
        }
      ],
      "stateMutability": "nonpayable",
      "type": "function"
    },
    {
      "inputs": [
        {
          "internalType": "uint256",
          "name": "_agendaID",
          "type": "uint256"
        }
      ],
      "name": "startVoting",
      "outputs": [],
      "stateMutability": "nonpayable",
      "type": "function"
    },
    {
      "inputs": [
        {
          "internalType": "uint256",
          "name": "_agendaID",
          "type": "uint256"
        },
        {
          "internalType": "address",
          "name": "_user",
          "type": "address"
        }
      ],
      "name": "isVoter",
      "outputs": [
        {
          "internalType": "bool",
          "name": "",
          "type": "bool"
        }
      ],
      "stateMutability": "view",
      "type": "function"
    },
    {
      "inputs": [
        {
          "internalType": "uint256",
          "name": "_agendaID",
          "type": "uint256"
        },
        {
          "internalType": "address",
          "name": "_voter",
          "type": "address"
        },
        {
          "internalType": "uint256",
          "name": "_vote",
          "type": "uint256"
        }
      ],
      "name": "castVote",
      "outputs": [
        {
          "internalType": "bool",
          "name": "",
          "type": "bool"
        }
      ],
      "stateMutability": "nonpayable",
      "type": "function"
    },
    {
      "inputs": [
        {
          "internalType": "uint256",
          "name": "_agendaID",
          "type": "uint256"
        }
      ],
      "name": "setExecutedAgenda",
      "outputs": [],
      "stateMutability": "nonpayable",
      "type": "function"
    },
    {
      "inputs": [
        {
          "internalType": "uint256",
          "name": "_agendaID",
          "type": "uint256"
        },
        {
          "internalType": "enum LibAgenda.AgendaResult",
          "name": "_result",
          "type": "uint8"
        }
      ],
      "name": "setResult",
      "outputs": [],
      "stateMutability": "nonpayable",
      "type": "function"
    },
    {
      "inputs": [
        {
          "internalType": "uint256",
          "name": "_agendaID",
          "type": "uint256"
        },
        {
          "internalType": "uint256",
          "name": "_status",
          "type": "uint256"
        }
      ],
      "name": "setStatus",
      "outputs": [],
      "stateMutability": "nonpayable",
      "type": "function"
    },
    {
      "inputs": [
        {
          "internalType": "uint256",
          "name": "_agendaID",
          "type": "uint256"
        },
        {
          "internalType": "enum LibAgenda.AgendaStatus",
          "name": "_status",
          "type": "uint8"
        }
      ],
      "name": "setStatus",
      "outputs": [],
      "stateMutability": "nonpayable",
      "type": "function"
    },
    {
      "inputs": [
        {
          "internalType": "uint256",
          "name": "_agendaID",
          "type": "uint256"
        }
      ],
      "name": "getExecutionInfo",
      "outputs": [
        {
          "internalType": "address",
          "name": "target",
          "type": "address"
        },
        {
          "internalType": "bytes",
          "name": "functionBytecode",
          "type": "bytes"
        }
      ],
      "stateMutability": "view",
      "type": "function"
    },
    {
      "inputs": [
        {
          "internalType": "uint256",
          "name": "_agendaID",
          "type": "uint256"
        }
      ],
      "name": "getVotingCount",
      "outputs": [
        {
          "internalType": "uint256",
          "name": "countingYes",
          "type": "uint256"
        },
        {
          "internalType": "uint256",
          "name": "countingNo",
          "type": "uint256"
        },
        {
          "internalType": "uint256",
          "name": "countingAbstain",
          "type": "uint256"
        }
      ],
      "stateMutability": "view",
      "type": "function"
    },
    {
      "inputs": [
        {
          "internalType": "uint256",
          "name": "_agendaID",
          "type": "uint256"
        }
      ],
      "name": "getAgendaTimestamps",
      "outputs": [
        {
          "internalType": "uint256",
          "name": "createdTimestamp",
          "type": "uint256"
        },
        {
          "internalType": "uint256",
          "name": "noticeEndTimestamp",
          "type": "uint256"
        },
        {
          "internalType": "uint256",
          "name": "votingStartedTimestamp",
          "type": "uint256"
        },
        {
          "internalType": "uint256",
          "name": "votingEndTimestamp",
          "type": "uint256"
        },
        {
          "internalType": "uint256",
          "name": "executedTimestamp",
          "type": "uint256"
        }
      ],
      "stateMutability": "view",
      "type": "function"
    },
    {
      "inputs": [],
      "name": "numAgendas",
      "outputs": [
        {
          "internalType": "uint256",
          "name": "",
          "type": "uint256"
        }
      ],
      "stateMutability": "view",
      "type": "function"
    },
    {
      "inputs": [
        {
          "internalType": "uint256",
          "name": "_agendaID",
          "type": "uint256"
        }
      ],
      "name": "getVoters",
      "outputs": [
        {
          "internalType": "address[]",
          "name": "",
          "type": "address[]"
        }
      ],
      "stateMutability": "view",
      "type": "function"
    }
  ],
  "bytecode": "0x608060405234801561001057600080fd5b506040516200294c3803806200294c8339818101604052602081101561003557600080fd5b505160006100416100ed565b600080546001600160a01b0319166001600160a01b0383169081178255604051929350917f8be0079c531659141344cd1fd0a4f28419497f9722a3daafe3b4186f6b6457e0908290a3506213c6806005556202a30060065568056bc75e2d6310000060045560408051808201909152600180825260026020909201829052600a819055600b9190915580546001600160a01b0319166001600160a01b03929092169190911790556100f1565b3390565b61284b80620001016000396000f3fe608060405234801561001057600080fd5b50600436106102525760003560e01c80637a3d546811610146578063b4f69b6a116100c3578063d1f0473f11610087578063d1f0473f146108c8578063d864e740146108e5578063d896dd64146108ed578063de6bd38614610913578063e3bc145f146104e0578063f2fde38b1461093057610252565b8063b4f69b6a14610858578063bddae40e14610875578063cc48b9471461089b578063d0e7907f146108a3578063d10d2b50146108ab57610252565b80638da5cb5b1161010a5780638da5cb5b1461079f5780638e3f5f83146107a75780638ea5938c146107ef578063aee4a42a146107f7578063b4e6393e1461083257610252565b80637a3d5468146106965780637e77eb23146106b957806382e40813146106eb57806386b646f21461070e578063879b00a01461077b57610252565b80634a47f59b116101d4578063715018a611610198578063715018a61461051e578063728af9d11461052657806373ba3745146105cb57806377f28d5b146105e8578063783c82881461060557610252565b80634a47f59b1461043057806356150a361461047c5780635c622a0e146104a2578063699cc358146104e05780636bcaab5e146104e857610252565b806337184a321161021b57806337184a321461030c5780633c4a819c1461032b5780633d2f5bda146103ca5780633da2371f146103e7578063438596321461040457610252565b8062b74c45146102575780631703a018146102975780632522a32f146102b8578063284d776e146102d2578063334bbf35146102ef575b600080fd5b6102836004803603604081101561026d57600080fd5b50803590602001356001600160a01b0316610956565b604080519115158252519081900360200190f35b61029f6109c9565b6040805192835260208301919091528051918290030190f35b6102c06109d2565b60408051918252519081900360200190f35b6102c0600480360360208110156102e857600080fd5b50356109d8565b6102c06004803603602081101561030557600080fd5b5035610a52565b6103296004803603602081101561032257600080fd5b5035610abb565b005b6103486004803603602081101561034157600080fd5b5035610be8565b604051808e81526020018d81526020018c81526020018b81526020018a815260200189815260200188815260200187815260200186815260200185815260200184600581111561039457fe5b81526020018360038111156103a557fe5b815260200182151581526020019d505050505050505050505050505060405180910390f35b610329600480360360208110156103e057600080fd5b5035610c67565b6102c0600480360360208110156103fd57600080fd5b5035610ee6565b6102836004803603604081101561041a57600080fd5b50803590602001356001600160a01b0316610f4f565b61045c6004803603604081101561044657600080fd5b50803590602001356001600160a01b0316610fc3565b604080519315158452911515602084015282820152519081900360600190f35b6103296004803603604081101561049257600080fd5b508035906020013560ff16610ff4565b6104bf600480360360208110156104b857600080fd5b50356110d4565b604051808260058111156104cf57fe5b815260200191505060405180910390f35b6102c0611122565b610505600480360360208110156104fe57600080fd5b5035611128565b6040805192835290151560208301528051918290030190f35b6103296111d2565b6105436004803603602081101561053c57600080fd5b5035611274565b60405180836001600160a01b0316815260200180602001828103825283818151815260200191508051906020019080838360005b8381101561058f578181015183820152602001610577565b50505050905090810190601f1680156105bc5780820380516001836020036101000a031916815260200191505b50935050505060405180910390f35b610543600480360360208110156105e157600080fd5b5035611328565b610283600480360360208110156105fe57600080fd5b50356113e6565b6102c0600480360360a081101561061b57600080fd5b6001600160a01b038235169160208101359160408201359160608101359181019060a08101608082013564010000000081111561065757600080fd5b82018360208201111561066957600080fd5b8035906020019184600183028401116401000000008311171561068b57600080fd5b509092509050611459565b610329600480360360408110156106ac57600080fd5b50803590602001356117c6565b610283600480360360608110156106cf57600080fd5b508035906001600160a01b0360208201351690604001356118a8565b6103296004803603604081101561070157600080fd5b5080359060200135611c38565b61072b6004803603602081101561072457600080fd5b5035611d63565b60408051602080825283518183015283519192839290830191858101910280838360005b8381101561076757818101518382015260200161074f565b505050509050019250505060405180910390f35b610783611de3565b604080516001600160a01b039092168252519081900360200190f35b610783611df2565b6107c4600480360360208110156107bd57600080fd5b5035611e01565b6040805195865260208601949094528484019290925260608401526080830152519081900360a00190f35b6102c0611e50565b6108146004803603602081101561080d57600080fd5b5035611e56565b60408051938452602084019290925282820152519081900360600190f35b6103296004803603602081101561084857600080fd5b50356001600160a01b0316611e96565b6103296004803603602081101561086e57600080fd5b5035611f55565b6103296004803603602081101561088b57600080fd5b50356001600160a01b0316611fb2565b610783612071565b6102c0612080565b610329600480360360208110156108c157600080fd5b5035612086565b610329600480360360208110156108de57600080fd5b50356120e3565b610783612140565b6103296004803603604081101561090357600080fd5b508035906020013560ff1661214f565b6102c06004803603602081101561092957600080fd5b503561223c565b6103296004803603602081101561094657600080fd5b50356001600160a01b03166122a5565b60006001600160a01b03821661099d5760405162461bcd60e51b81526004018080602001828103825260268152602001806125bc6026913960400191505060405180910390fd5b5060009182526008602090815260408084206001600160a01b0393909316845291905290205460ff1690565b600a54600b5482565b60045481565b6007546000908210610a1b5760405162461bcd60e51b815260040180806020018281038252602281526020018061279c6022913960400191505060405180910390fd5b60078281548110610a2857fe5b60009182526020909120600a600d90920201015460ff166005811115610a4a57fe5b90505b919050565b6007546000908210610a955760405162461bcd60e51b815260040180806020018281038252602781526020018061265d6027913960400191505060405180910390fd5b60078281548110610aa257fe5b90600052602060002090600d0201600401549050919050565b610ac361239d565b6000546001600160a01b03908116911614610b13576040805162461bcd60e51b8152602060048201819052602482015260008051602061275c833981519152604482015290519081900360640190fd5b6007548110610b535760405162461bcd60e51b815260040180806020018281038252602781526020018061256c6027913960400191505060405180910390fd5b600060078281548110610b6257fe5b60009182526020909120600c600d90920201908101805460ff1916600117905542600580830191909155600a820154919250839160008051602061277c8339815191529160ff9190911690811115610bb657fe5b60408051918252600460208301528051918290030190a2600a810180546004919060ff19166001835b02179055505050565b60078181548110610bf857600080fd5b60009182526020909120600d9091020180546001820154600283015460038401546004850154600586015460068701546007880154600889015460098a0154600a8b0154600c909b0154999b509799969895979496939592949193909260ff808316926101009004811691168d565b600060078281548110610c7657fe5b60009182526020909120600d9091020190506001600a82015460ff166005811115610c9d57fe5b14610cef576040805162461bcd60e51b815260206004820181905260248201527f44414f4167656e64614d616e616765723a20696e76616c696420737461747573604482015290519081900360640190fd5b4281600101541115610d325760405162461bcd60e51b815260040180806020018281038252602a8152602001806126b3602a913960400191505060405180910390fd5b42600382018190556002820154610d4991906123a1565b600482810191909155600a8201805460ff191660021790556003546040805162f8f26b60e21b815290516000936001600160a01b03909316926303e3c9ac92808201926020929091829003018186803b158015610da557600080fd5b505afa158015610db9573d6000803e3d6000fd5b505050506040513d6020811015610dcf57600080fd5b5051905060005b81811015610eb75760035460408051632ed7846560e11b81526004810184905290516000926001600160a01b031691635daf08ca916024808301926020929190829003018186803b158015610e2a57600080fd5b505afa158015610e3e573d6000803e3d6000fd5b505050506040513d6020811015610e5457600080fd5b5051600b85018054600180820183556000928352602080842090920180546001600160a01b0319166001600160a01b03909516948517905588835260088252604080842094845293909152919020805460ff191682179055919091019050610dd6565b506040805160018152600260208201528151859260008051602061277c833981519152928290030190a2505050565b6007546000908210610f295760405162461bcd60e51b815260040180806020018281038252602781526020018061265d6027913960400191505060405180910390fd5b60078281548110610f3657fe5b90600052602060002090600d0201600301549050919050565b6007546000908310610f925760405162461bcd60e51b81526004018080602001828103825260298152602001806125936029913960400191505060405180910390fd5b5060009182526008602090815260408084206001600160a01b03939093168452919052902054610100900460ff1690565b60086020908152600092835260408084209091529082529020805460019091015460ff808316926101009004169083565b610ffc61239d565b6000546001600160a01b0390811691161461104c576040805162461bcd60e51b8152602060048201819052602482015260008051602061275c833981519152604482015290519081900360640190fd5b60006007838154811061105b57fe5b90600052602060002090600d020190508181600a0160016101000a81548160ff0219169083600381111561108b57fe5b0217905550827ff874b3fe678e8c9f4bd9dd7051e2bd81708e378e98526f16586e7bf60b77effc8360038111156110be57fe5b60408051918252519081900360200190a2505050565b600060018214156110e757506001610a4d565b60028214156110f857506002610a4d565b600482141561110957506004610a4d565b600582141561111a57506005610a4d565b506000610a4d565b60075490565b6007546000908190831061116d5760405162461bcd60e51b815260040180806020018281038252602a8152602001806127be602a913960400191505060405180910390fd5b6007838154811061117a57fe5b90600052602060002090600d0201600a0160019054906101000a900460ff1660038111156111a457fe5b600784815481106111b157fe5b60009182526020909120600c600d90920201015490925060ff169050915091565b6111da61239d565b6000546001600160a01b0390811691161461122a576040805162461bcd60e51b8152602060048201819052602482015260008051602061275c833981519152604482015290519081900360640190fd5b600080546040516001600160a01b03909116907f8be0079c531659141344cd1fd0a4f28419497f9722a3daafe3b4186f6b6457e0908390a3600080546001600160a01b0319169055565b6009602090815260009182526040918290208054600180830180548651600261010094831615949094026000190190911692909204601f81018690048602830186019096528582526001600160a01b0390921694929390929083018282801561131e5780601f106112f35761010080835404028352916020019161131e565b820191906000526020600020905b81548152906001019060200180831161130157829003601f168201915b5050505050905082565b60008181526009602090815260408083208054600180830180548551600261010094831615949094026000190190911692909204601f810187900487028301870190955284825260609593946001600160a01b0390931693909283918301828280156113d55780601f106113aa576101008083540402835291602001916113d5565b820191906000526020600020905b8154815290600101906020018083116113b857829003601f168201915b505050505090509250925050915091565b600080600783815481106113f657fe5b60009182526020909120600d9091020190506003600a82015460ff16600581111561141d57fe5b14801561144157506001600a820154610100900460ff16600381111561143f57fe5b145b80156114525750600c81015460ff16155b9392505050565b600061146361239d565b6000546001600160a01b039081169116146114b3576040805162461bcd60e51b8152602060048201819052602482015260008051602061275c833981519152604482015290519081900360640190fd5b6005548610156114f45760405162461bcd60e51b815260040180806020018281038252602e815260200180612608602e913960400191505060405180910390fd5b506007546115006123fb565b60016101408201818152600061016084018190526101a08401819052428085528a0160208501908152604085018a8152606086018381526080870184815260a0880185815261012089018d815260078054808b018255975289517fa66cc928b5edb82af9bd49922954155ab7b0942694bea4ce44661d9a8736c688600d90980297880190815595517fa66cc928b5edb82af9bd49922954155ab7b0942694bea4ce44661d9a8736c68988015593517fa66cc928b5edb82af9bd49922954155ab7b0942694bea4ce44661d9a8736c68a87015591517fa66cc928b5edb82af9bd49922954155ab7b0942694bea4ce44661d9a8736c68b860155517fa66cc928b5edb82af9bd49922954155ab7b0942694bea4ce44661d9a8736c68c850155517fa66cc928b5edb82af9bd49922954155ab7b0942694bea4ce44661d9a8736c68d84015560c08601517fa66cc928b5edb82af9bd49922954155ab7b0942694bea4ce44661d9a8736c68e84015560e08601517fa66cc928b5edb82af9bd49922954155ab7b0942694bea4ce44661d9a8736c68f8401556101008601517fa66cc928b5edb82af9bd49922954155ab7b0942694bea4ce44661d9a8736c690840155517fa66cc928b5edb82af9bd49922954155ab7b0942694bea4ce44661d9a8736c69183015591517fa66cc928b5edb82af9bd49922954155ab7b0942694bea4ce44661d9a8736c6929091018054859460ff19919091169083600581111561172157fe5b0217905550610160820151600a8201805461ff00191661010083600381111561174657fe5b0217905550610180820151805161176791600b840191602090910190612475565b506101a09190910151600c909101805460ff1916911515919091179055600082815260096020526040902080546001600160a01b0319166001600160a01b038a161781556117b96001820186866124da565b5050509695505050505050565b6117ce61239d565b6000546001600160a01b0390811691161461181e576040805162461bcd60e51b8152602060048201819052602482015260008051602061275c833981519152604482015290519081900360640190fd5b60008211801561182e5750600081115b801561183957508082105b61188a576040805162461bcd60e51b815260206004820181905260248201527f44414f4167656e64614d616e616765723a20696e76616c69642071756f72756d604482015290519081900360640190fd5b60408051808201909152828152602001819052600a91909155600b55565b60006118b261239d565b6000546001600160a01b03908116911614611902576040805162461bcd60e51b8152602060048201819052602482015260008051602061275c833981519152604482015290519081900360640190fd5b60038210611957576040805162461bcd60e51b815260206004820152601a60248201527f44414f436f6d6d69747465653a20696e76616c696420766f7465000000000000604482015290519081900360640190fd5b6119618484610956565b6119b2576040805162461bcd60e51b815260206004820152601960248201527f44414f436f6d6d69747465653a206e6f74206120766f74657200000000000000604482015290519081900360640190fd5b6119bc8484610f4f565b15611a0e576040805162461bcd60e51b815260206004820152601b60248201527f44414f436f6d6d69747465653a20616c726561647920766f7465640000000000604482015290519081900360640190fd5b600060078581548110611a1d57fe5b60009182526020909120600d9091020190506002600a82015460ff166005811115611a4457fe5b14611a805760405162461bcd60e51b81526004018080602001828103825260278152602001806126366027913960400191505060405180910390fd5b611a8a8585610956565b611ac55760405162461bcd60e51b815260040180806020018281038252602e8152602001806127e8602e913960400191505060405180910390fd5b611acf8585610f4f565b15611b0b5760405162461bcd60e51b81526004018080602001828103825260248152602001806127176024913960400191505060405180910390fd5b4260078681548110611b1957fe5b90600052602060002090600d02016003015411158015611b57575060078581548110611b4157fe5b90600052602060002090600d0201600401544211155b611b925760405162461bcd60e51b815260040180806020018281038252603a8152602001806126dd603a913960400191505060405180910390fd5b60008581526008602090815260408083206001600160a01b03881684529091528120805461ff0019166101001781556001810185905590841415611bea576008820154611be09060016123a1565b6008830155611c2c565b6001841415611c0d576006820154611c039060016123a1565b6006830155611c2c565b6002841415610252576007820154611c269060016123a1565b60078301555b50600195945050505050565b611c4061239d565b6000546001600160a01b03908116911614611c90576040805162461bcd60e51b8152602060048201819052602482015260008051602061275c833981519152604482015290519081900360640190fd5b6007548210611cd05760405162461bcd60e51b81526004018080602001828103825260298152602001806125936029913960400191505060405180910390fd5b8160008051602061277c83398151915260078481548110611ced57fe5b60009182526020909120600a600d90920201015460ff166005811115611d0f57fe5b60408051918252602082018590528051918290030190a2611d2f816110d4565b60078381548110611d3c57fe5b60009182526020909120600a600d9092020101805460ff19166001836005811115610bdf57fe5b606060078281548110611d7257fe5b90600052602060002090600d0201600b01805480602002602001604051908101604052809291908181526020018280548015611dd757602002820191906000526020600020905b81546001600160a01b03168152600190910190602001808311611db9575b50505050509050919050565b6002546001600160a01b031681565b6000546001600160a01b031690565b60008060008060008060078781548110611e1757fe5b60009182526020909120600d909102018054600182015460038301546004840154600590940154929b919a509850919650945092505050565b60055481565b60008060008060078581548110611e6957fe5b90600052602060002090600d02019050806006015481600701548260080154935093509350509193909250565b611e9e61239d565b6000546001600160a01b03908116911614611eee576040805162461bcd60e51b8152602060048201819052602482015260008051602061275c833981519152604482015290519081900360640190fd5b6001600160a01b038116611f335760405162461bcd60e51b815260040180806020018281038252602f815260200180612684602f913960400191505060405180910390fd5b600280546001600160a01b0319166001600160a01b0392909216919091179055565b611f5d61239d565b6000546001600160a01b03908116911614611fad576040805162461bcd60e51b8152602060048201819052602482015260008051602061275c833981519152604482015290519081900360640190fd5b600455565b611fba61239d565b6000546001600160a01b0390811691161461200a576040805162461bcd60e51b8152602060048201819052602482015260008051602061275c833981519152604482015290519081900360640190fd5b6001600160a01b03811661204f5760405162461bcd60e51b815260040180806020018281038252602181526020018061273b6021913960400191505060405180910390fd5b600380546001600160a01b0319166001600160a01b0392909216919091179055565b6001546001600160a01b031681565b60065481565b61208e61239d565b6000546001600160a01b039081169116146120de576040805162461bcd60e51b8152602060048201819052602482015260008051602061275c833981519152604482015290519081900360640190fd5b600555565b6120eb61239d565b6000546001600160a01b0390811691161461213b576040805162461bcd60e51b8152602060048201819052602482015260008051602061275c833981519152604482015290519081900360640190fd5b600655565b6003546001600160a01b031681565b61215761239d565b6000546001600160a01b039081169116146121a7576040805162461bcd60e51b8152602060048201819052602482015260008051602061275c833981519152604482015290519081900360640190fd5b6000600783815481106121b657fe5b90600052602060002090600d020190508260008051602061277c83398151915282600a0160009054906101000a900460ff1660058111156121f357fe5b8460058111156121ff57fe5b6040805192835260208301919091528051918290030190a2600a8101805483919060ff1916600183600581111561223257fe5b0217905550505050565b600754600090821061227f5760405162461bcd60e51b815260040180806020018281038252602781526020018061265d6027913960400191505060405180910390fd5b6007828154811061228c57fe5b90600052602060002090600d0201600101549050919050565b6122ad61239d565b6000546001600160a01b039081169116146122fd576040805162461bcd60e51b8152602060048201819052602482015260008051602061275c833981519152604482015290519081900360640190fd5b6001600160a01b0381166123425760405162461bcd60e51b81526004018080602001828103825260268152602001806125e26026913960400191505060405180910390fd5b600080546040516001600160a01b03808516939216917f8be0079c531659141344cd1fd0a4f28419497f9722a3daafe3b4186f6b6457e091a3600080546001600160a01b0319166001600160a01b0392909216919091179055565b3390565b600082820183811015611452576040805162461bcd60e51b815260206004820152601b60248201527f536166654d6174683a206164646974696f6e206f766572666c6f770000000000604482015290519081900360640190fd5b604051806101c00160405280600081526020016000815260200160008152602001600081526020016000815260200160008152602001600081526020016000815260200160008152602001600081526020016000600581111561245a57fe5b81526020016000815260606020820152600060409091015290565b8280548282559060005260206000209081019282156124ca579160200282015b828111156124ca57825182546001600160a01b0319166001600160a01b03909116178255602090920191600190910190612495565b506124d6929150612556565b5090565b828054600181600116156101000203166002900490600052602060002090601f01602090048101928261251057600085556124ca565b82601f106125295782800160ff198235161785556124ca565b828001600101855582156124ca579182015b828111156124ca57823582559160200191906001019061253b565b5b808211156124d6576000815560010161255756fe44414f4167656e64614d616e616765723a205f6167656e6461494420697320696e76616c69642e44414f4167656e64614d616e616765723a204e6f7420612076616c69642050726f706f73616c20496444414f4167656e64614d616e616765723a20757365722061646472657373206973207a65726f4f776e61626c653a206e6577206f776e657220697320746865207a65726f206164647265737344414f4167656e64614d616e616765723a206d696e696d756e4e6f74696365506572696f642069732073686f727444414f4167656e64614d616e616765723a20737461747573206973206e6f7420766f74696e672e44414f4167656e64614d616e616765723a204e6f7420612076616c6964204167656e646120496444414f4167656e64614d616e616765723a2041637469766974795265776172644d616e61676572206973207a65726f44414f4167656e64614d616e616765723a2063616e206e6f7420737461727420766f74696e672079657444414f4167656e64614d616e616765723a20666f722074686973206167656e64612c2074686520766f74696e672074696d652065787069726564766f74657220616c726561647920766f746564206f6e20746869732070726f706f73616c44414f4167656e64614d616e616765723a2061646472657373206973207a65726f4f776e61626c653a2063616c6c6572206973206e6f7420746865206f776e657227e1508d1d92ba0e1e406fad0138e0f3dd44688f5018dbe7f5718da02931eb7c44414f4167656e64614d616e616765723a20696e76616c6964206167656e6420696444414f4167656e64614d616e616765723a204e6f7420612076616c6964205f6167656e64614944204964796f7520617265206e6f74206120636f6d6d6974746565206d656d626572206f6e2074686973206167656e64612ea26469706673582212205b927fed7f6d8ae270633aec5b8079393e668f5225b017f70c16f66995d9ed5964736f6c63430007060033",
  "immutableReferences": {},
  "source": "// SPDX-License-Identifier: MIT\npragma solidity ^0.7.6;\n\nimport { SafeMath } from \"../../node_modules/@openzeppelin/contracts/math/SafeMath.sol\";\nimport { IERC20 } from  \"../../node_modules/@openzeppelin/contracts/token/ERC20/IERC20.sol\";\nimport { IDAOCommittee } from \"../interfaces/IDAOCommittee.sol\";\nimport { LibAgenda } from \"../lib/Agenda.sol\";\nimport \"../../node_modules/@openzeppelin/contracts/access/Ownable.sol\";\n\ncontract DAOAgendaManager is Ownable {\n    using SafeMath for uint256;\n    using LibAgenda for *;\n\n    enum VoteChoice { ABSTAIN, YES, NO, MAX }\n\n    struct Ratio {\n        uint256 numerator;\n        uint256 denominator;\n    }\n    \n    address public ton;\n    address public activityRewardManager;\n    IDAOCommittee public committee;\n    \n    //uint256 public numAgendas;\n    //uint256 public numExecAgendas;\n    \n    uint256 public createAgendaFees; // (TON)\n    \n    uint256 public minimunNoticePeriodSeconds;\n    uint256 public minimunVotingPeriodSeconds;\n    \n    LibAgenda.Agenda[] public agendas;\n    mapping(uint256 => mapping(address => LibAgenda.Voter)) public voterInfos;\n    mapping(uint256 => LibAgenda.AgendaExecutionInfo) public executionInfos;\n    \n    Ratio public quorum;\n    \n    event AgendaStatusChanged(\n        uint256 indexed agendaID,\n        uint256 prevStatus,\n        uint256 newStatus\n    );\n\n    event AgendaResultChanged(\n        uint256 indexed agendaID,\n        uint256 result\n    );\n\n    modifier validAgenda(uint256 _agendaID) {\n        require(_agendaID < agendas.length, \"DAOAgendaManager: invalid agenda id\");\n        _;\n    }\n    \n    constructor(address _ton/*, address _activityRewardManager*/) {\n        minimunNoticePeriodSeconds = 60 * 60 * 24 * 15; //  15 days , on seconds\n        minimunVotingPeriodSeconds = 60 * 60 * 24 * 2; //  2 days , on seconds\n        \n        createAgendaFees = 100000000000000000000; // 100 TON\n        quorum = Ratio(1, 2);\n        ton = _ton;\n        //numAgendas = 0;\n    }\n\n    function getStatus(uint _status) public pure returns (LibAgenda.AgendaStatus emnustatus) {\n        if (_status == uint(LibAgenda.AgendaStatus.NOTICE))\n            return LibAgenda.AgendaStatus.NOTICE;\n        else if (_status == uint(LibAgenda.AgendaStatus.VOTING))\n            return LibAgenda.AgendaStatus.VOTING;\n        else if (_status == uint(LibAgenda.AgendaStatus.EXECUTED))\n            return LibAgenda.AgendaStatus.EXECUTED;\n        else if (_status == uint(LibAgenda.AgendaStatus.ENDED))\n            return LibAgenda.AgendaStatus.ENDED;\n        else\n            return LibAgenda.AgendaStatus.NONE;\n    }\n\n    function setCommittee(address _committee) public onlyOwner {\n        require(_committee != address(0), \"DAOAgendaManager: address is zero\");\n        committee = IDAOCommittee(_committee);\n    }\n\n    function setStatus(uint256 _agendaID, uint _status) public onlyOwner {\n        require(_agendaID < agendas.length, \"DAOAgendaManager: Not a valid Proposal Id\");\n\n        emit AgendaStatusChanged(_agendaID, uint(agendas[_agendaID].status), _status);\n        agendas[_agendaID].status = getStatus(_status);\n    }\n\n    function setCreateAgendaFees(uint256 _createAgendaFees) public onlyOwner {\n        createAgendaFees = _createAgendaFees;\n    }\n\n    function setMinimunNoticePeriodSeconds(uint256 _minimunNoticePeriodSeconds) public onlyOwner {\n        minimunNoticePeriodSeconds = _minimunNoticePeriodSeconds;\n    }\n\n    function setMinimunVotingPeriodSeconds(uint256 _minimunVotingPeriodSeconds) public onlyOwner {\n        minimunVotingPeriodSeconds = _minimunVotingPeriodSeconds;\n    }\n      \n    function setActivityRewardManager(address _man) public onlyOwner {\n        require(_man != address(0), \"DAOAgendaManager: ActivityRewardManager is zero\");\n        activityRewardManager = _man;\n    }\n\n    function setQuorum(uint256 quorumNumerator, uint256 quorumDenominator) public onlyOwner {\n        require(quorumNumerator > 0 && quorumDenominator > 0 && quorumNumerator < quorumDenominator, \"DAOAgendaManager: invalid quorum\");\n        quorum = Ratio(quorumNumerator,quorumDenominator);\n    }\n    \n    function hasVoted(uint256 _agendaID, address _user) public view returns (bool) {\n        require(_agendaID < agendas.length, \"DAOAgendaManager: Not a valid Proposal Id\");\n        return voterInfos[_agendaID][_user].hasVoted;\n    }\n    \n    function getAgendaNoticeEndTimeSeconds(uint256 _agendaID) public view returns (uint) {\n        require(_agendaID < agendas.length, \"DAOAgendaManager: Not a valid Agenda Id\");\n        return agendas[_agendaID].noticeEndTimestamp;\n    }\n    \n    function getAgendaVotingStartTimeSeconds(uint256 _agendaID) public view returns (uint) {\n        require(_agendaID < agendas.length, \"DAOAgendaManager: Not a valid Agenda Id\");\n        return agendas[_agendaID].votingStartedTimestamp;\n    }\n\n    function getAgendaVotingEndTimeSeconds(uint256 _agendaID) public view returns (uint) {\n        require(_agendaID < agendas.length, \"DAOAgendaManager: Not a valid Agenda Id\");\n        return agendas[_agendaID].votingEndTimestamp;\n    }\n\n    function canExecuteAgenda(uint256 _agendaID) public view returns (bool) {\n        LibAgenda.Agenda storage agenda = agendas[_agendaID];\n\n        return agenda.status == LibAgenda.AgendaStatus.WAITING_EXEC &&\n            agenda.result == LibAgenda.AgendaResult.ACCEPT &&\n            agenda.executed == false;\n\n        /*require(agenda.status == uint(LibAgenda.AgendaStatus.WAITING_EXEC), \"DAOAgendaManager: agenda status must be WAITING_EXEC.\");\n        //require(agenda.votingEndTimestamp < block.timestamp, \"DAOAgendaManager: for this agenda, the voting time is not expired\");\n        require(agenda.result == LibAgenda.AgendaResult.ACCEPT, \"DAOAgendaManager: for this agenda, not accept\");\n        require(agenda.executed == false, \"DAOAgendaManager: already executed agenda\");*/\n    }\n    \n    /*function detailedAgenda(uint256 _agendaID)\n        public\n        view\n        returns (\n            address[2] memory creator,\n            uint[8] memory datas,\n            uint256[3] memory counting,\n            uint256 fees,\n            bool executed,\n            bytes memory functionBytecode,\n            address[] memory voters\n        )\n    {\n        require(_agendaID < agendas.length, \"DAOAgendaManager: Not a valid Agenda Id\");\n        LibAgenda.Agenda storage agenda = agendas[_agendaID];\n        uint[8] memory args1 = [\n            uint(agenda.status),\n            uint(agenda.result),\n            //uint(agenda.group),\n            agenda.createdTimestamp,\n            agenda.noticeEndTimestamp,\n            agenda.votingStartedTimestamp,\n            agenda.votingEndTimestamp,\n            agenda.executedTimestamp\n        ];\n        \n        return (\n            [agenda.creator, agenda.target],\n            args1,\n            agenda.counting,\n            agenda.fees,\n            agenda.executed,\n            agenda.functionBytecode,\n            agenda.voters\n        );\n    }*/\n\n    /*function detailedAgendaVoteInfo(uint256 _agendaID, address voter)\n        public\n        view\n        returns (\n            bool hasVoted,\n            uint256 vote,\n            string memory comment\n        )\n    {\n        require(_agendaID < agendas.length, \"DAOAgendaManager: Not a valid Agenda Id\");\n\n        if (voterInfos[_agendaID][voter].hasVoted) {\n            return (voterInfos[_agendaID][voter].hasVoted, voterInfos[_agendaID][voter].vote, voterInfos[_agendaID][voter].comment);\n        } else {\n            return (false, 0, '');\n        }\n    }*/\n    \n    function getAgendaStatus(uint256 _agendaID) public view returns (uint status) {\n        require(_agendaID < agendas.length, \"DAOAgendaManager: invalid agend id\");\n        return uint(agendas[_agendaID].status);\n    }\n\n    function totalAgendas() public view returns (uint256) {\n        return agendas.length;\n    }\n\n    function getAgendaResult(uint256 _agendaID) public view returns (uint result, bool executed) {\n        require(_agendaID < agendas.length, \"DAOAgendaManager: Not a valid _agendaID Id\");\n        return (uint(agendas[_agendaID].result), agendas[_agendaID].executed);\n    }\n   \n    function newAgenda(\n        address _target,\n        uint256 _noticePeriodSeconds,\n        uint256 _votingPeriodSeconds,\n        uint256 _reward,\n        bytes calldata _functionBytecode\n    )\n        onlyOwner\n        public\n        returns (uint256 agendaID)\n    {\n        require(_noticePeriodSeconds >= minimunNoticePeriodSeconds, \"DAOAgendaManager: minimunNoticePeriod is short\");\n        agendaID = agendas.length;\n         \n        LibAgenda.Agenda memory p;\n        p.status = LibAgenda.AgendaStatus.NOTICE;\n        p.result = LibAgenda.AgendaResult.PENDING;\n        p.executed = false;\n        p.createdTimestamp = block.timestamp;\n        p.noticeEndTimestamp = block.timestamp + _noticePeriodSeconds;\n        p.votingPeriodInSeconds = _votingPeriodSeconds;\n        p.votingStartedTimestamp = 0;\n        p.votingEndTimestamp = 0;\n        p.executedTimestamp = 0;\n        p.reward = _reward;\n        \n        agendas.push(p);\n\n        LibAgenda.AgendaExecutionInfo storage executionInfo = executionInfos[agendaID];\n        executionInfo.target = _target;\n        executionInfo.functionBytecode = _functionBytecode;\n\n        //numAgendas = agendas.length;\n        //agendaID = numAgendas.sub(1);\n    }\n\n    function startVoting(uint256 _agendaID) public {\n        LibAgenda.Agenda storage agenda = agendas[_agendaID];\n        require(\n            agenda.status == LibAgenda.AgendaStatus.NOTICE,\n            \"DAOAgendaManager: invalid status\"\n        );\n        require(\n            agenda.noticeEndTimestamp <= block.timestamp,\n            \"DAOAgendaManager: can not start voting yet\"\n        );\n\n        agenda.votingStartedTimestamp = block.timestamp;\n        agenda.votingEndTimestamp = block.timestamp.add(agenda.votingPeriodInSeconds);\n        agenda.status = LibAgenda.AgendaStatus.VOTING;\n\n        uint256 memberCount = committee.maxMember();\n        for (uint256 i = 0; i < memberCount; i++) {\n            address voter = committee.members(i);\n            agenda.voters.push(voter);\n            voterInfos[_agendaID][voter].isVoter = true;\n        }\n\n        emit AgendaStatusChanged(_agendaID, uint(LibAgenda.AgendaStatus.NOTICE), uint(LibAgenda.AgendaStatus.VOTING));\n    }\n    \n    function isVoter(uint256 _agendaID, address _user) public view returns (bool) {\n        require(_user != address(0), \"DAOAgendaManager: user address is zero\");\n        return voterInfos[_agendaID][_user].isVoter;\n    }\n    \n    function castVote(\n        uint256 _agendaID,\n        address _voter,\n        uint _vote\n    )\n        public\n        onlyOwner\n        returns (bool)\n    {\n        require(_vote < uint(VoteChoice.MAX), \"DAOCommittee: invalid vote\");\n        require(isVoter(_agendaID, _voter), \"DAOCommittee: not a voter\");\n        require(!hasVoted(_agendaID, _voter), \"DAOCommittee: already voted\");\n\n        LibAgenda.Agenda storage agenda = agendas[_agendaID];\n        require(\n            agenda.status == LibAgenda.AgendaStatus.VOTING,\n            \"DAOAgendaManager: status is not voting.\"\n        );\n        require(\n            isVoter(_agendaID, _voter),\n            \"you are not a committee member on this agenda.\"\n        );\n        require(\n            !hasVoted(_agendaID, _voter),\n            \"voter already voted on this proposal\"\n        );\n        require(\n            agendas[_agendaID].votingStartedTimestamp <= block.timestamp &&\n            block.timestamp <= agendas[_agendaID].votingEndTimestamp,\n            \"DAOAgendaManager: for this agenda, the voting time expired\"\n        );\n        \n        LibAgenda.Voter storage voter = voterInfos[_agendaID][_voter];\n        voter.hasVoted = true;\n        voter.vote = _vote;\n             \n        // counting 0:abstainVotes 1:yesVotes 2:noVotes\n        if (_vote == uint(VoteChoice.ABSTAIN))\n            agenda.countingAbstain = agenda.countingAbstain.add(1);\n        else if (_vote == uint(VoteChoice.YES))\n            agenda.countingYes = agenda.countingYes.add(1);\n        else if (_vote == uint(VoteChoice.NO))\n            agenda.countingNo = agenda.countingNo.add(1);\n        else\n            revert();\n        \n        return true;\n    }\n    \n    function setExecutedAgenda(uint256 _agendaID)\n        public\n        onlyOwner\n    {\n        require(_agendaID < agendas.length, \"DAOAgendaManager: _agendaID is invalid.\");\n\n        LibAgenda.Agenda storage agenda = agendas[_agendaID];\n        agenda.executed = true;\n        agenda.executedTimestamp = block.timestamp;\n\n        emit AgendaStatusChanged(_agendaID, uint(agenda.status), uint(LibAgenda.AgendaStatus.EXECUTED));\n\n        agenda.status = LibAgenda.AgendaStatus.EXECUTED;\n    }\n\n    function checkAndEndVoting(uint256 _agendaID) internal {\n        LibAgenda.Agenda storage agenda = agendas[_agendaID];\n\n        require(\n            agenda.status == LibAgenda.AgendaStatus.VOTING,\n            \"DAOAgendaManager: status is not voting.\"\n        );\n    }\n\n    /*function agendaStepNext(uint256 _agendaID) public onlyOwner {\n        LibAgenda.Agenda storage agenda = agendas[_agendaID];\n        uint256 prevStatus = agenda.status;\n        uint256 prevResult = agenda.result;\n\n        if (agenda.status == LibAgenda.AgendaStatus.NOTICE) {\n        } else if (agenda.status == LibAgenda.AgendaStatus.VOTING) {\n            // The agenda is on voting process\n            if (agenda.result == LibAgenda.AgendaResult.ACCEPT) {\n                // The agenda is accepted\n                agenda.status = LibAgenda.AgendaStatus.WAITING_EXEC;\n            } else if (\n                agenda.result == LibAgenda.AgendaResult.REJECT ||\n                agenda.result == LibAgenda.AgendaResult.DISMISS\n            ) {\n                // The agenda is rejected\n                agenda.status = LibAgenda.AgendaStatus.ENDED;\n            } else if (\n                agenda.result == LibAgenda.AgendaResult.PENDING &&\n                agenda.votingEndTimestamp < block.timestamp\n            ) {\n                // The agenda is dismissed\n                agenda.status = LibAgenda.AgendaStatus.ENDED;\n                agenda.result = LibAgenda.AgendaResult.DISMISS;\n            }\n        } else if (agenda.status == LibAgenda.AgendaStatus.WAITING_EXEC) {\n        } else if (agenda.status == LibAgenda.AgendaStatus.VOTING) {\n        } else if (agenda.status == LibAgenda.AgendaStatus.VOTING) {\n        } else if (agenda.status == LibAgenda.AgendaStatus.VOTING) {\n        }\n\n        emit AgendaStepNext(\n            _agendaID,\n            prevStatus,\n            prevResult,\n            agenda.status,\n            agenda.result\n        );\n    }*/\n\n    function setResult(uint256 _agendaID, LibAgenda.AgendaResult _result)\n        public\n        onlyOwner\n    {\n        LibAgenda.Agenda storage agenda = agendas[_agendaID];\n        agenda.result = _result;\n\n        emit AgendaResultChanged(_agendaID, uint256(_result));\n    }\n     \n    function setStatus(uint256 _agendaID, LibAgenda.AgendaStatus _status)\n        public\n        onlyOwner\n    {\n        LibAgenda.Agenda storage agenda = agendas[_agendaID];\n\n        emit AgendaStatusChanged(_agendaID, uint256(agenda.status), uint256(_status));\n        agenda.status = _status;\n    }\n     \n    function getExecutionInfo(uint256 _agendaID)\n        public\n        view\n        returns(\n            address target,\n            bytes memory functionBytecode\n        )\n    {\n        LibAgenda.AgendaExecutionInfo storage agenda = executionInfos[_agendaID];\n        return (\n            agenda.target,\n            agenda.functionBytecode\n        );\n    }\n\n    function getVotingCount(uint256 _agendaID)\n        public\n        view\n        returns (\n            uint256 countingYes,\n            uint256 countingNo,\n            uint256 countingAbstain\n        )\n    {\n        LibAgenda.Agenda storage agenda = agendas[_agendaID];\n        return (\n            agenda.countingYes,\n            agenda.countingNo,\n            agenda.countingAbstain\n        );\n    }\n\n    function getAgendaTimestamps(uint256 _agendaID)\n        public\n        view\n        returns (\n            uint256 createdTimestamp,\n            uint256 noticeEndTimestamp,\n            uint256 votingStartedTimestamp,\n            uint256 votingEndTimestamp,\n            uint256 executedTimestamp\n        )\n    {\n        LibAgenda.Agenda storage agenda = agendas[_agendaID];\n        return (\n            agenda.createdTimestamp,\n            agenda.noticeEndTimestamp,\n            agenda.votingStartedTimestamp,\n            agenda.votingEndTimestamp,\n            agenda.executedTimestamp\n        );\n    }\n\n    function numAgendas() public view returns (uint256) {\n        return agendas.length;\n    }\n\n    function getVoters(uint256 _agendaID) public view returns (address[] memory) {\n        return agendas[_agendaID].voters;\n    }\n}\n",
  "sourcePath": "/data/github/onther/tokamak-dao-contracts3/contracts/dao/DAOAgendaManager.sol",
  "compiler": {
    "name": "solc",
    "version": "0.7.6+commit.7338295f.Emscripten.clang"
  },
  "schemaVersion": "3.3.2",
  "updatedAt": "2021-01-07T22:20:17.606Z",
  "devdoc": {
    "kind": "dev",
    "methods": {
      "owner()": {
        "details": "Returns the address of the current owner."
      },
      "renounceOwnership()": {
        "details": "Leaves the contract without owner. It will not be possible to call `onlyOwner` functions anymore. Can only be called by the current owner. NOTE: Renouncing ownership will leave the contract without an owner, thereby removing any functionality that is only available to the owner."
      },
      "transferOwnership(address)": {
        "details": "Transfers ownership of the contract to a new account (`newOwner`). Can only be called by the current owner."
      }
    },
    "version": 1
  },
  "userdoc": {
    "kind": "user",
    "methods": {},
    "version": 1
  }
}