{
  "contractName": "DAOCommitteeProxy",
  "abi": [
    {
      "inputs": [
        {
          "internalType": "address",
          "name": "_ton",
          "type": "address"
        },
        {
          "internalType": "address",
          "name": "_impl",
          "type": "address"
        },
        {
          "internalType": "address",
          "name": "_seigManager",
          "type": "address"
        },
        {
          "internalType": "address",
          "name": "_layer2Registry",
          "type": "address"
        },
        {
          "internalType": "address",
          "name": "_agendaManager",
          "type": "address"
        },
        {
          "internalType": "address",
          "name": "_candidateFactory",
          "type": "address"
        },
        {
          "internalType": "address",
          "name": "_daoVault",
          "type": "address"
        }
      ],
      "stateMutability": "nonpayable",
      "type": "constructor"
    },
    {
      "anonymous": false,
      "inputs": [
        {
          "indexed": true,
          "internalType": "address",
          "name": "from",
          "type": "address"
        },
        {
          "indexed": false,
          "internalType": "address",
          "name": "member",
          "type": "address"
        },
        {
          "indexed": false,
          "internalType": "uint256",
          "name": "totalbalance",
          "type": "uint256"
        },
        {
          "indexed": false,
          "internalType": "uint256",
          "name": "memberIndex",
          "type": "uint256"
        }
      ],
      "name": "ApplyMemberSuccess",
      "type": "event"
    },
    {
      "anonymous": false,
      "inputs": [
        {
          "indexed": true,
          "internalType": "bytes32",
          "name": "role",
          "type": "bytes32"
        },
        {
          "indexed": true,
          "internalType": "bytes32",
          "name": "previousAdminRole",
          "type": "bytes32"
        },
        {
          "indexed": true,
          "internalType": "bytes32",
          "name": "newAdminRole",
          "type": "bytes32"
        }
      ],
      "name": "RoleAdminChanged",
      "type": "event"
    },
    {
      "anonymous": false,
      "inputs": [
        {
          "indexed": true,
          "internalType": "bytes32",
          "name": "role",
          "type": "bytes32"
        },
        {
          "indexed": true,
          "internalType": "address",
          "name": "account",
          "type": "address"
        },
        {
          "indexed": true,
          "internalType": "address",
          "name": "sender",
          "type": "address"
        }
      ],
      "name": "RoleGranted",
      "type": "event"
    },
    {
      "anonymous": false,
      "inputs": [
        {
          "indexed": true,
          "internalType": "bytes32",
          "name": "role",
          "type": "bytes32"
        },
        {
          "indexed": true,
          "internalType": "address",
          "name": "account",
          "type": "address"
        },
        {
          "indexed": true,
          "internalType": "address",
          "name": "sender",
          "type": "address"
        }
      ],
      "name": "RoleRevoked",
      "type": "event"
    },
    {
      "anonymous": false,
      "inputs": [
        {
          "indexed": true,
          "internalType": "address",
          "name": "implementation",
          "type": "address"
        }
      ],
      "name": "Upgraded",
      "type": "event"
    },
    {
      "stateMutability": "nonpayable",
      "type": "fallback"
    },
    {
      "inputs": [],
      "name": "DEFAULT_ADMIN_ROLE",
      "outputs": [
        {
          "internalType": "bytes32",
          "name": "",
          "type": "bytes32"
        }
      ],
      "stateMutability": "view",
      "type": "function",
      "constant": true
    },
    {
      "inputs": [],
      "name": "_implementation",
      "outputs": [
        {
          "internalType": "address",
          "name": "",
          "type": "address"
        }
      ],
      "stateMutability": "view",
      "type": "function",
      "constant": true
    },
    {
      "inputs": [],
      "name": "activityRewardPerSecond",
      "outputs": [
        {
          "internalType": "uint256",
          "name": "",
          "type": "uint256"
        }
      ],
      "stateMutability": "view",
      "type": "function",
      "constant": true
    },
    {
      "inputs": [],
      "name": "agendaManager",
      "outputs": [
        {
          "internalType": "contract IDAOAgendaManager",
          "name": "",
          "type": "address"
        }
      ],
      "stateMutability": "view",
      "type": "function",
      "constant": true
    },
    {
      "inputs": [
        {
          "internalType": "address",
          "name": "_candidate",
          "type": "address"
        }
      ],
      "name": "candidateContract",
      "outputs": [
        {
          "internalType": "address",
          "name": "",
          "type": "address"
        }
      ],
      "stateMutability": "view",
      "type": "function",
      "constant": true
    },
    {
      "inputs": [],
      "name": "candidateFactory",
      "outputs": [
        {
          "internalType": "contract ICandidateFactory",
          "name": "",
          "type": "address"
        }
      ],
      "stateMutability": "view",
      "type": "function",
      "constant": true
    },
    {
      "inputs": [
        {
          "internalType": "address",
          "name": "",
          "type": "address"
        }
      ],
      "name": "candidateInfos",
      "outputs": [
        {
          "internalType": "address",
          "name": "candidateContract",
          "type": "address"
        },
        {
          "internalType": "uint256",
          "name": "memberJoinedTime",
          "type": "uint256"
        },
        {
          "internalType": "uint256",
          "name": "indexMembers",
          "type": "uint256"
        },
        {
          "internalType": "uint256",
          "name": "rewardPeriod",
          "type": "uint256"
        },
        {
          "internalType": "uint256",
          "name": "claimedTimestamp",
          "type": "uint256"
        }
      ],
      "stateMutability": "view",
      "type": "function",
      "constant": true
    },
    {
      "inputs": [
        {
          "internalType": "uint256",
          "name": "",
          "type": "uint256"
        }
      ],
      "name": "candidates",
      "outputs": [
        {
          "internalType": "address",
          "name": "",
          "type": "address"
        }
      ],
      "stateMutability": "view",
      "type": "function",
      "constant": true
    },
    {
      "inputs": [],
      "name": "daoVault",
      "outputs": [
        {
          "internalType": "contract IDAOVault2",
          "name": "",
          "type": "address"
        }
      ],
      "stateMutability": "view",
      "type": "function",
      "constant": true
    },
    {
      "inputs": [
        {
          "internalType": "bytes32",
          "name": "role",
          "type": "bytes32"
        }
      ],
      "name": "getRoleAdmin",
      "outputs": [
        {
          "internalType": "bytes32",
          "name": "",
          "type": "bytes32"
        }
      ],
      "stateMutability": "view",
      "type": "function",
      "constant": true
    },
    {
      "inputs": [
        {
          "internalType": "bytes32",
          "name": "role",
          "type": "bytes32"
        },
        {
          "internalType": "uint256",
          "name": "index",
          "type": "uint256"
        }
      ],
      "name": "getRoleMember",
      "outputs": [
        {
          "internalType": "address",
          "name": "",
          "type": "address"
        }
      ],
      "stateMutability": "view",
      "type": "function",
      "constant": true
    },
    {
      "inputs": [
        {
          "internalType": "bytes32",
          "name": "role",
          "type": "bytes32"
        }
      ],
      "name": "getRoleMemberCount",
      "outputs": [
        {
          "internalType": "uint256",
          "name": "",
          "type": "uint256"
        }
      ],
      "stateMutability": "view",
      "type": "function",
      "constant": true
    },
    {
      "inputs": [
        {
          "internalType": "bytes32",
          "name": "role",
          "type": "bytes32"
        },
        {
          "internalType": "address",
          "name": "account",
          "type": "address"
        }
      ],
      "name": "grantRole",
      "outputs": [],
      "stateMutability": "nonpayable",
      "type": "function"
    },
    {
      "inputs": [
        {
          "internalType": "bytes32",
          "name": "role",
          "type": "bytes32"
        },
        {
          "internalType": "address",
          "name": "account",
          "type": "address"
        }
      ],
      "name": "hasRole",
      "outputs": [
        {
          "internalType": "bool",
          "name": "",
          "type": "bool"
        }
      ],
      "stateMutability": "view",
      "type": "function",
      "constant": true
    },
    {
      "inputs": [
        {
          "internalType": "address",
          "name": "_candidate",
          "type": "address"
        }
      ],
      "name": "isMember",
      "outputs": [
        {
          "internalType": "bool",
          "name": "",
          "type": "bool"
        }
      ],
      "stateMutability": "view",
      "type": "function",
      "constant": true
    },
    {
      "inputs": [],
      "name": "layer2Registry",
      "outputs": [
        {
          "internalType": "contract ILayer2Registry",
          "name": "",
          "type": "address"
        }
      ],
      "stateMutability": "view",
      "type": "function",
      "constant": true
    },
    {
      "inputs": [],
      "name": "maxMember",
      "outputs": [
        {
          "internalType": "uint256",
          "name": "",
          "type": "uint256"
        }
      ],
      "stateMutability": "view",
      "type": "function",
      "constant": true
    },
    {
      "inputs": [
        {
          "internalType": "uint256",
          "name": "",
          "type": "uint256"
        }
      ],
      "name": "members",
      "outputs": [
        {
          "internalType": "address",
          "name": "",
          "type": "address"
        }
      ],
      "stateMutability": "view",
      "type": "function",
      "constant": true
    },
    {
      "inputs": [],
      "name": "pauseProxy",
      "outputs": [
        {
          "internalType": "bool",
          "name": "",
          "type": "bool"
        }
      ],
      "stateMutability": "view",
      "type": "function",
      "constant": true
    },
    {
      "inputs": [],
      "name": "quorum",
      "outputs": [
        {
          "internalType": "uint256",
          "name": "",
          "type": "uint256"
        }
      ],
      "stateMutability": "view",
      "type": "function",
      "constant": true
    },
    {
      "inputs": [
        {
          "internalType": "bytes32",
          "name": "role",
          "type": "bytes32"
        },
        {
          "internalType": "address",
          "name": "account",
          "type": "address"
        }
      ],
      "name": "renounceRole",
      "outputs": [],
      "stateMutability": "nonpayable",
      "type": "function"
    },
    {
      "inputs": [
        {
          "internalType": "bytes32",
          "name": "role",
          "type": "bytes32"
        },
        {
          "internalType": "address",
          "name": "account",
          "type": "address"
        }
      ],
      "name": "revokeRole",
      "outputs": [],
      "stateMutability": "nonpayable",
      "type": "function"
    },
    {
      "inputs": [],
      "name": "seigManager",
      "outputs": [
        {
          "internalType": "contract ISeigManager",
          "name": "",
          "type": "address"
        }
      ],
      "stateMutability": "view",
      "type": "function",
      "constant": true
    },
    {
      "inputs": [
        {
          "internalType": "bytes4",
          "name": "interfaceId",
          "type": "bytes4"
        }
      ],
      "name": "supportsInterface",
      "outputs": [
        {
          "internalType": "bool",
          "name": "",
          "type": "bool"
        }
      ],
      "stateMutability": "view",
      "type": "function",
      "constant": true
    },
    {
      "inputs": [],
      "name": "ton",
      "outputs": [
        {
          "internalType": "address",
          "name": "",
          "type": "address"
        }
      ],
      "stateMutability": "view",
      "type": "function",
      "constant": true
    },
    {
      "inputs": [
        {
          "internalType": "bool",
          "name": "_pause",
          "type": "bool"
        }
      ],
      "name": "setProxyPause",
      "outputs": [],
      "stateMutability": "nonpayable",
      "type": "function"
    },
    {
      "inputs": [
        {
          "internalType": "address",
          "name": "impl",
          "type": "address"
        }
      ],
      "name": "upgradeTo",
      "outputs": [],
      "stateMutability": "nonpayable",
      "type": "function"
    },
    {
      "inputs": [],
      "name": "implementation",
      "outputs": [
        {
          "internalType": "address",
          "name": "",
          "type": "address"
        }
      ],
      "stateMutability": "view",
      "type": "function",
      "constant": true
    }
  ],
  "bytecode": "0x60806040523480156200001157600080fd5b50604051620010bb380380620010bb833981810160405260e08110156200003757600080fd5b508051602082015160408301516060840151608085015160a086015160c0909601519495939492939192909190620000766301ffc9a760e01b62000145565b600080546001600160a01b03199081166001600160a01b038a811691909117909255600e8054821689841617905560058054821688841617905560048054821687841617905560028054821686841617815560038054831686851617905560018054909216928416929092179055600a55670de0b6b3a7640000600b556200011e7f4273ca16e32229270629d776700e1c07e4a1080fc9b26d21f6608efc2b31dc4d62000145565b6200012b600033620001ca565b62000138600030620001ca565b50505050505050620002e0565b6001600160e01b03198082161415620001a5576040805162461bcd60e51b815260206004820152601c60248201527f4552433136353a20696e76616c696420696e7465726661636520696400000000604482015290519081900360640190fd5b6001600160e01b0319166000908152600d60205260409020805460ff19166001179055565b620001d68282620001da565b5050565b6000828152600c60209081526040909120620002019183906200099a62000255821b17901c565b15620001d6576200021162000275565b6001600160a01b0316816001600160a01b0316837f2f8788117e7eff1d82e926ec794901d17c78024a50270940304540a733656f0d60405160405180910390a45050565b60006200026c836001600160a01b03841662000279565b90505b92915050565b3390565b6000620002878383620002c8565b620002bf575081546001818101845560008481526020808220909301849055845484825282860190935260409020919091556200026f565b5060006200026f565b60009081526001919091016020526040902054151590565b610dcb80620002f06000396000f3fe608060405234801561001057600080fd5b50600436106101c45760003560e01c806363a8fd89116100f9578063a217fddf11610097578063ca15c87311610071578063ca15c87314610479578063cc48b94714610496578063cf2a239c1461049e578063d547741f146104a6576101c4565b8063a217fddf14610443578063a230c5241461044b578063b5dd115814610471576101c4565b80637cb00d25116100d35780637cb00d25146103cd5780637f331636146103ec5780639010d07c146103f457806391d1485414610417576101c4565b806363a8fd8914610397578063651d08cd1461039f5780636fb7f558146103c5576101c4565b80633477ee2e116101665780635903bd6c116101405780635903bd6c1461036257806359679b0f1461036a5780635c60da1b146103725780635daf08ca1461037a576101c4565b80633477ee2e146102f357806336568abe146103105780633659cfe61461033c576101c4565b8063248a9ca3116101a2578063248a9ca31461022b57806327fd92fd146102485780632e011c1e1461026c5780632f2ff15d146102c7576101c4565b806301ffc9a7146101ce57806303e3c9ac146102095780631703a01814610223575b6101cc6104d2565b005b6101f5600480360360208110156101e457600080fd5b50356001600160e01b03191661055f565b604080519115158252519081900360200190f35b61021161057e565b60408051918252519081900360200190f35b610211610584565b6102116004803603602081101561024157600080fd5b503561058a565b61025061059f565b604080516001600160a01b039092168252519081900360200190f35b6102926004803603602081101561028257600080fd5b50356001600160a01b03166105ae565b604080516001600160a01b03909616865260208601949094528484019290925260608401526080830152519081900360a00190f35b6101cc600480360360408110156102dd57600080fd5b50803590602001356001600160a01b03166105e7565b6102506004803603602081101561030957600080fd5b5035610653565b6101cc6004803603604081101561032657600080fd5b50803590602001356001600160a01b031661067d565b6101cc6004803603602081101561035257600080fd5b50356001600160a01b03166106de565b6102506107bb565b6102506107ca565b6102506107d9565b6102506004803603602081101561039057600080fd5b50356107e8565b6101f56107f8565b610250600480360360208110156103b557600080fd5b50356001600160a01b0316610808565b610250610826565b6101cc600480360360208110156103e357600080fd5b50351515610835565b610211610899565b6102506004803603604081101561040a57600080fd5b508035906020013561089f565b6101f56004803603604081101561042d57600080fd5b50803590602001356001600160a01b03166108c0565b6102116108d8565b6101f56004803603602081101561046157600080fd5b50356001600160a01b03166108dd565b6102506108fd565b6102116004803603602081101561048f57600080fd5b503561090c565b610250610923565b610250610932565b6101cc600480360360408110156104bc57600080fd5b50803590602001356001600160a01b0316610941565b60006104dc6107d9565b90506001600160a01b038116158015906105005750600e54600160a01b900460ff16155b61053b5760405162461bcd60e51b8152600401808060200182810382526031815260200180610d656031913960400191505060405180910390fd5b3660008037600080366000845af43d6000803e80801561055a573d6000f35b3d6000fd5b6001600160e01b0319166000908152600d602052604090205460ff1690565b60085481565b600a5481565b6000908152600c602052604090206002015490565b6002546001600160a01b031681565b600960205260009081526040902080546001820154600283015460038401546004909401546001600160a01b0390931693919290919085565b6000828152600c602052604090206002015461060a906106056109af565b6108c0565b6106455760405162461bcd60e51b815260040180806020018281038252602f815260200180610c79602f913960400191505060405180910390fd5b61064f82826109b3565b5050565b6006818154811061066357600080fd5b6000918252602090912001546001600160a01b0316905081565b6106856109af565b6001600160a01b0316816001600160a01b0316146106d45760405162461bcd60e51b815260040180806020018281038252602f815260200180610d36602f913960400191505060405180910390fd5b61064f8282610a1c565b6106e96000336108c0565b6107245760405162461bcd60e51b815260040180806020018281038252602d815260200180610d09602d913960400191505060405180910390fd5b600e546001600160a01b03828116911614156107715760405162461bcd60e51b8152600401808060200182810382526031815260200180610ca86031913960400191505060405180910390fd5b600e80546001600160a01b0319166001600160a01b0383169081179091556040517fbc7cd75a20ee27fd9adebab32041f755214dbc6bffa90cc0225b39da2e5c2d3b90600090a250565b6001546001600160a01b031681565b600e546001600160a01b031681565b600e546001600160a01b031690565b6007818154811061066357600080fd5b600e54600160a01b900460ff1681565b6001600160a01b039081166000908152600960205260409020541690565b6005546001600160a01b031681565b6108406000336108c0565b61087b5760405162461bcd60e51b815260040180806020018281038252602d815260200180610d09602d913960400191505060405180910390fd5b600e8054911515600160a01b0260ff60a01b19909216919091179055565b600b5481565b6000828152600c602052604081206108b79083610a85565b90505b92915050565b6000828152600c602052604081206108b79083610a91565b600081565b6001600160a01b0316600090815260096020526040902060010154151590565b6003546001600160a01b031681565b6000818152600c602052604081206108ba90610aa6565b6000546001600160a01b031681565b6004546001600160a01b031681565b6000828152600c602052604090206002015461095f906106056109af565b6106d45760405162461bcd60e51b8152600401808060200182810382526030815260200180610cd96030913960400191505060405180910390fd5b60006108b7836001600160a01b038416610ab1565b3390565b6000828152600c602052604090206109cb908261099a565b1561064f576109d86109af565b6001600160a01b0316816001600160a01b0316837f2f8788117e7eff1d82e926ec794901d17c78024a50270940304540a733656f0d60405160405180910390a45050565b6000828152600c60205260409020610a349082610afb565b1561064f57610a416109af565b6001600160a01b0316816001600160a01b0316837ff6391f5c32d9c69d2a47ea670b442974b53935d1edc7fd64eb21e047a839171b60405160405180910390a45050565b60006108b78383610b10565b60006108b7836001600160a01b038416610b74565b60006108ba82610b8c565b6000610abd8383610b74565b610af3575081546001818101845560008481526020808220909301849055845484825282860190935260409020919091556108ba565b5060006108ba565b60006108b7836001600160a01b038416610b90565b81546000908210610b525760405162461bcd60e51b8152600401808060200182810382526022815260200180610c576022913960400191505060405180910390fd5b826000018281548110610b6157fe5b9060005260206000200154905092915050565b60009081526001919091016020526040902054151590565b5490565b60008181526001830160205260408120548015610c4c5783546000198083019190810190600090879083908110610bc357fe5b9060005260206000200154905080876000018481548110610be057fe5b600091825260208083209091019290925582815260018981019092526040902090840190558654879080610c1057fe5b600190038181906000526020600020016000905590558660010160008781526020019081526020016000206000905560019450505050506108ba565b60009150506108ba56fe456e756d657261626c655365743a20696e646578206f7574206f6620626f756e6473416363657373436f6e74726f6c3a2073656e646572206d75737420626520616e2061646d696e20746f206772616e7444414f436f6d6d697474656550726f78793a20696d706c656d656e746174696f6e2061646472657373206973207a65726f416363657373436f6e74726f6c3a2073656e646572206d75737420626520616e2061646d696e20746f207265766f6b6544414f436f6d6d697474656550726f78793a206d73672e73656e646572206973206e6f7420616e2061646d696e416363657373436f6e74726f6c3a2063616e206f6e6c792072656e6f756e636520726f6c657320666f722073656c6644414f436f6d6d697474656550726f78793a20696d706c206973207a65726f204f522070726f78792069732066616c7365a26469706673582212207a111f13342e1d06c59b68002a5d1bebc0128f820ad183a456da03415298f7f964736f6c63430007060033",
  "immutableReferences": {},
  "source": "// SPDX-License-Identifier: MIT\npragma solidity ^0.7.6;\n\nimport \"./StorageStateCommittee.sol\";\n//import \"../../node_modules/@openzeppelin/contracts/access/Ownable.sol\";\nimport \"../../node_modules/@openzeppelin/contracts/access/AccessControl.sol\";\nimport { ERC165 } from \"../../node_modules/@openzeppelin/contracts/introspection/ERC165.sol\";\n\ncontract DAOCommitteeProxy is StorageStateCommittee, AccessControl, ERC165 {\n    address public _implementation;\n    bool public pauseProxy;\n\n    event Upgraded(address indexed implementation);\n\n    modifier onlyOwner() {\n        require(hasRole(DEFAULT_ADMIN_ROLE, msg.sender), \"DAOCommitteeProxy: msg.sender is not an admin\");\n        _;\n    }\n     \n    constructor(\n        address _ton,\n        address _impl,\n        address _seigManager,\n        address _layer2Registry,\n        address _agendaManager,\n        address _candidateFactory,\n        //address _activityRewardManager,\n        address _daoVault\n    )\n    {\n        ton = _ton;\n        _implementation = _impl;\n        seigManager = ISeigManager(_seigManager);\n        layer2Registry = ILayer2Registry(_layer2Registry);\n        agendaManager = IDAOAgendaManager(_agendaManager);\n        candidateFactory = ICandidateFactory(_candidateFactory);\n        daoVault = IDAOVault2(_daoVault);\n        quorum = 2;\n        activityRewardPerSecond = 1e18;\n\n        _registerInterface(bytes4(keccak256(\"onApprove(address,address,uint256,bytes)\")));\n        _setupRole(DEFAULT_ADMIN_ROLE, msg.sender);\n        _setupRole(DEFAULT_ADMIN_ROLE, address(this));\n    }\n\n    /// @notice Set pause state\n    /// @param _pause true:pause or false:resume\n    function setProxyPause(bool _pause) onlyOwner public {\n        pauseProxy = _pause;\n    }\n\n    /// @notice Set implementation contract\n    /// @param impl New implementation contract address\n    function upgradeTo(address impl) public onlyOwner {\n        require(_implementation != impl, \"DAOCommitteeProxy: implementation address is zero\");\n        _implementation = impl;\n        emit Upgraded(impl);\n    }\n\n    function implementation() public view returns (address) {\n        return _implementation;\n    }\n\n    fallback() external {\n        _fallback();\n    }\n\n    function _fallback() internal {\n        address _impl = implementation();\n        require(_impl != address(0) && pauseProxy == false, \"DAOCommitteeProxy: impl is zero OR proxy is false\");\n\n        assembly {\n            // Copy msg.data. We take full control of memory in this inline assembly\n            // block because it will not return to Solidity code. We overwrite the\n            // Solidity scratch pad at memory position 0.\n            calldatacopy(0, 0, calldatasize())\n\n            // Call the implementation.\n            // out and outsize are 0 because we don't know the size yet.\n            let result := delegatecall(gas(), _impl, 0, calldatasize(), 0, 0)\n\n            // Copy the returned data.\n            returndatacopy(0, 0, returndatasize())\n\n            switch result\n            // delegatecall returns 0 on error.\n            case 0 { revert(0, returndatasize()) }\n            default { return(0, returndatasize()) }\n        }\n    }\n}\n",
  "sourcePath": "/data/github/onther/tokamak-dao-contracts3/contracts/dao/DAOCommitteeProxy.sol",
  "compiler": {
    "name": "solc",
    "version": "0.7.6+commit.7338295f.Emscripten.clang"
  },
  "schemaVersion": "3.3.2",
  "updatedAt": "2021-01-26T04:42:38.283Z",
  "networkType": "ethereum",
  "devdoc": {
    "kind": "dev",
    "methods": {
      "getRoleAdmin(bytes32)": {
        "details": "Returns the admin role that controls `role`. See {grantRole} and {revokeRole}. To change a role's admin, use {_setRoleAdmin}."
      },
      "getRoleMember(bytes32,uint256)": {
        "details": "Returns one of the accounts that have `role`. `index` must be a value between 0 and {getRoleMemberCount}, non-inclusive. Role bearers are not sorted in any particular way, and their ordering may change at any point. WARNING: When using {getRoleMember} and {getRoleMemberCount}, make sure you perform all queries on the same block. See the following https://forum.openzeppelin.com/t/iterating-over-elements-on-enumerableset-in-openzeppelin-contracts/2296[forum post] for more information."
      },
      "getRoleMemberCount(bytes32)": {
        "details": "Returns the number of accounts that have `role`. Can be used together with {getRoleMember} to enumerate all bearers of a role."
      },
      "grantRole(bytes32,address)": {
        "details": "Grants `role` to `account`. If `account` had not been already granted `role`, emits a {RoleGranted} event. Requirements: - the caller must have ``role``'s admin role."
      },
      "hasRole(bytes32,address)": {
        "details": "Returns `true` if `account` has been granted `role`."
      },
      "renounceRole(bytes32,address)": {
        "details": "Revokes `role` from the calling account. Roles are often managed via {grantRole} and {revokeRole}: this function's purpose is to provide a mechanism for accounts to lose their privileges if they are compromised (such as when a trusted device is misplaced). If the calling account had been granted `role`, emits a {RoleRevoked} event. Requirements: - the caller must be `account`."
      },
      "revokeRole(bytes32,address)": {
        "details": "Revokes `role` from `account`. If `account` had been granted `role`, emits a {RoleRevoked} event. Requirements: - the caller must have ``role``'s admin role."
      },
      "setProxyPause(bool)": {
        "params": {
          "_pause": "true:pause or false:resume"
        }
      },
      "supportsInterface(bytes4)": {
        "details": "See {IERC165-supportsInterface}. Time complexity O(1), guaranteed to always use less than 30 000 gas."
      },
      "upgradeTo(address)": {
        "params": {
          "impl": "New implementation contract address"
        }
      }
    },
    "version": 1
  },
  "userdoc": {
    "kind": "user",
    "methods": {
      "setProxyPause(bool)": {
        "notice": "Set pause state"
      },
      "upgradeTo(address)": {
        "notice": "Set implementation contract"
      }
    },
    "version": 1
  }
}