{
  "contractName": "DAOCommittee",
  "abi": [
    {
      "anonymous": false,
      "inputs": [
        {
          "indexed": true,
          "internalType": "address",
          "name": "from",
          "type": "address"
        },
        {
          "indexed": true,
          "internalType": "uint256",
          "name": "id",
          "type": "uint256"
        },
        {
          "indexed": false,
          "internalType": "address[]",
          "name": "targets",
          "type": "address[]"
        },
        {
          "indexed": false,
          "internalType": "uint256",
          "name": "noticePeriodSeconds",
          "type": "uint256"
        },
        {
          "indexed": false,
          "internalType": "uint256",
          "name": "votingPeriodSeconds",
          "type": "uint256"
        }
      ],
      "name": "AgendaCreated",
      "type": "event"
    },
    {
      "anonymous": false,
      "inputs": [
        {
          "indexed": true,
          "internalType": "uint256",
          "name": "id",
          "type": "uint256"
        },
        {
          "indexed": false,
          "internalType": "address[]",
          "name": "target",
          "type": "address[]"
        }
      ],
      "name": "AgendaExecuted",
      "type": "event"
    },
    {
      "anonymous": false,
      "inputs": [
        {
          "indexed": true,
          "internalType": "address",
          "name": "from",
          "type": "address"
        },
        {
          "indexed": true,
          "internalType": "uint256",
          "name": "id",
          "type": "uint256"
        },
        {
          "indexed": false,
          "internalType": "uint256",
          "name": "voting",
          "type": "uint256"
        },
        {
          "indexed": false,
          "internalType": "string",
          "name": "comment",
          "type": "string"
        }
      ],
      "name": "AgendaVoteCasted",
      "type": "event"
    },
    {
      "anonymous": false,
      "inputs": [
        {
          "indexed": true,
          "internalType": "address",
          "name": "from",
          "type": "address"
        },
        {
          "indexed": false,
          "internalType": "address",
          "name": "member",
          "type": "address"
        },
        {
          "indexed": false,
          "internalType": "uint256",
          "name": "totalbalance",
          "type": "uint256"
        },
        {
          "indexed": false,
          "internalType": "uint256",
          "name": "memberIndex",
          "type": "uint256"
        }
      ],
      "name": "ApplyMemberSuccess",
      "type": "event"
    },
    {
      "anonymous": false,
      "inputs": [
        {
          "indexed": true,
          "internalType": "address",
          "name": "candidate",
          "type": "address"
        },
        {
          "indexed": true,
          "internalType": "address",
          "name": "candidateContract",
          "type": "address"
        },
        {
          "indexed": false,
          "internalType": "string",
          "name": "memo",
          "type": "string"
        }
      ],
      "name": "CandidateContractCreated",
      "type": "event"
    },
    {
      "anonymous": false,
      "inputs": [
        {
          "indexed": true,
          "internalType": "uint256",
          "name": "slotIndex",
          "type": "uint256"
        },
        {
          "indexed": false,
          "internalType": "address",
          "name": "prevMember",
          "type": "address"
        },
        {
          "indexed": true,
          "internalType": "address",
          "name": "newMember",
          "type": "address"
        }
      ],
      "name": "ChangedMember",
      "type": "event"
    },
    {
      "anonymous": false,
      "inputs": [
        {
          "indexed": true,
          "internalType": "uint256",
          "name": "prevSlotMax",
          "type": "uint256"
        },
        {
          "indexed": true,
          "internalType": "uint256",
          "name": "slotMax",
          "type": "uint256"
        }
      ],
      "name": "ChangedSlotMaximum",
      "type": "event"
    },
    {
      "anonymous": false,
      "inputs": [
        {
          "indexed": true,
          "internalType": "address",
          "name": "candidate",
          "type": "address"
        },
        {
          "indexed": false,
          "internalType": "uint256",
          "name": "amount",
          "type": "uint256"
        }
      ],
      "name": "ClaimedActivityReward",
      "type": "event"
    },
    {
      "anonymous": false,
      "inputs": [
        {
          "indexed": true,
          "internalType": "address",
          "name": "candidate",
          "type": "address"
        },
        {
          "indexed": true,
          "internalType": "address",
          "name": "candidateContract",
          "type": "address"
        },
        {
          "indexed": false,
          "internalType": "string",
          "name": "memo",
          "type": "string"
        }
      ],
      "name": "OperatorRegistered",
      "type": "event"
    },
    {
      "anonymous": false,
      "inputs": [
        {
          "indexed": true,
          "internalType": "bytes32",
          "name": "role",
          "type": "bytes32"
        },
        {
          "indexed": true,
          "internalType": "bytes32",
          "name": "previousAdminRole",
          "type": "bytes32"
        },
        {
          "indexed": true,
          "internalType": "bytes32",
          "name": "newAdminRole",
          "type": "bytes32"
        }
      ],
      "name": "RoleAdminChanged",
      "type": "event"
    },
    {
      "anonymous": false,
      "inputs": [
        {
          "indexed": true,
          "internalType": "bytes32",
          "name": "role",
          "type": "bytes32"
        },
        {
          "indexed": true,
          "internalType": "address",
          "name": "account",
          "type": "address"
        },
        {
          "indexed": true,
          "internalType": "address",
          "name": "sender",
          "type": "address"
        }
      ],
      "name": "RoleGranted",
      "type": "event"
    },
    {
      "anonymous": false,
      "inputs": [
        {
          "indexed": true,
          "internalType": "bytes32",
          "name": "role",
          "type": "bytes32"
        },
        {
          "indexed": true,
          "internalType": "address",
          "name": "account",
          "type": "address"
        },
        {
          "indexed": true,
          "internalType": "address",
          "name": "sender",
          "type": "address"
        }
      ],
      "name": "RoleRevoked",
      "type": "event"
    },
    {
      "inputs": [],
      "name": "DEFAULT_ADMIN_ROLE",
      "outputs": [
        {
          "internalType": "bytes32",
          "name": "",
          "type": "bytes32"
        }
      ],
      "stateMutability": "view",
      "type": "function",
      "constant": true
    },
    {
      "inputs": [],
      "name": "activityRewardPerSecond",
      "outputs": [
        {
          "internalType": "uint256",
          "name": "",
          "type": "uint256"
        }
      ],
      "stateMutability": "view",
      "type": "function",
      "constant": true
    },
    {
      "inputs": [],
      "name": "agendaManager",
      "outputs": [
        {
          "internalType": "contract IDAOAgendaManager",
          "name": "",
          "type": "address"
        }
      ],
      "stateMutability": "view",
      "type": "function",
      "constant": true
    },
    {
      "inputs": [
        {
          "internalType": "address",
          "name": "_candidate",
          "type": "address"
        }
      ],
      "name": "candidateContract",
      "outputs": [
        {
          "internalType": "address",
          "name": "",
          "type": "address"
        }
      ],
      "stateMutability": "view",
      "type": "function",
      "constant": true
    },
    {
      "inputs": [],
      "name": "candidateFactory",
      "outputs": [
        {
          "internalType": "contract ICandidateFactory",
          "name": "",
          "type": "address"
        }
      ],
      "stateMutability": "view",
      "type": "function",
      "constant": true
    },
    {
      "inputs": [
        {
          "internalType": "address",
          "name": "",
          "type": "address"
        }
      ],
      "name": "candidateInfos",
      "outputs": [
        {
          "internalType": "address",
          "name": "candidateContract",
          "type": "address"
        },
        {
          "internalType": "uint256",
          "name": "memberJoinedTime",
          "type": "uint256"
        },
        {
          "internalType": "uint256",
          "name": "indexMembers",
          "type": "uint256"
        },
        {
          "internalType": "uint256",
          "name": "rewardPeriod",
          "type": "uint256"
        },
        {
          "internalType": "uint256",
          "name": "claimedTimestamp",
          "type": "uint256"
        }
      ],
      "stateMutability": "view",
      "type": "function",
      "constant": true
    },
    {
      "inputs": [
        {
          "internalType": "uint256",
          "name": "",
          "type": "uint256"
        }
      ],
      "name": "candidates",
      "outputs": [
        {
          "internalType": "address",
          "name": "",
          "type": "address"
        }
      ],
      "stateMutability": "view",
      "type": "function",
      "constant": true
    },
    {
      "inputs": [],
      "name": "daoVault",
      "outputs": [
        {
          "internalType": "contract IDAOVault2",
          "name": "",
          "type": "address"
        }
      ],
      "stateMutability": "view",
      "type": "function",
      "constant": true
    },
    {
      "inputs": [
        {
          "internalType": "bytes32",
          "name": "role",
          "type": "bytes32"
        }
      ],
      "name": "getRoleAdmin",
      "outputs": [
        {
          "internalType": "bytes32",
          "name": "",
          "type": "bytes32"
        }
      ],
      "stateMutability": "view",
      "type": "function",
      "constant": true
    },
    {
      "inputs": [
        {
          "internalType": "bytes32",
          "name": "role",
          "type": "bytes32"
        },
        {
          "internalType": "uint256",
          "name": "index",
          "type": "uint256"
        }
      ],
      "name": "getRoleMember",
      "outputs": [
        {
          "internalType": "address",
          "name": "",
          "type": "address"
        }
      ],
      "stateMutability": "view",
      "type": "function",
      "constant": true
    },
    {
      "inputs": [
        {
          "internalType": "bytes32",
          "name": "role",
          "type": "bytes32"
        }
      ],
      "name": "getRoleMemberCount",
      "outputs": [
        {
          "internalType": "uint256",
          "name": "",
          "type": "uint256"
        }
      ],
      "stateMutability": "view",
      "type": "function",
      "constant": true
    },
    {
      "inputs": [
        {
          "internalType": "bytes32",
          "name": "role",
          "type": "bytes32"
        },
        {
          "internalType": "address",
          "name": "account",
          "type": "address"
        }
      ],
      "name": "grantRole",
      "outputs": [],
      "stateMutability": "nonpayable",
      "type": "function"
    },
    {
      "inputs": [
        {
          "internalType": "bytes32",
          "name": "role",
          "type": "bytes32"
        },
        {
          "internalType": "address",
          "name": "account",
          "type": "address"
        }
      ],
      "name": "hasRole",
      "outputs": [
        {
          "internalType": "bool",
          "name": "",
          "type": "bool"
        }
      ],
      "stateMutability": "view",
      "type": "function",
      "constant": true
    },
    {
      "inputs": [
        {
          "internalType": "address",
          "name": "_candidate",
          "type": "address"
        }
      ],
      "name": "isMember",
      "outputs": [
        {
          "internalType": "bool",
          "name": "",
          "type": "bool"
        }
      ],
      "stateMutability": "view",
      "type": "function",
      "constant": true
    },
    {
      "inputs": [],
      "name": "layer2Registry",
      "outputs": [
        {
          "internalType": "contract ILayer2Registry",
          "name": "",
          "type": "address"
        }
      ],
      "stateMutability": "view",
      "type": "function",
      "constant": true
    },
    {
      "inputs": [],
      "name": "maxMember",
      "outputs": [
        {
          "internalType": "uint256",
          "name": "",
          "type": "uint256"
        }
      ],
      "stateMutability": "view",
      "type": "function",
      "constant": true
    },
    {
      "inputs": [
        {
          "internalType": "uint256",
          "name": "",
          "type": "uint256"
        }
      ],
      "name": "members",
      "outputs": [
        {
          "internalType": "address",
          "name": "",
          "type": "address"
        }
      ],
      "stateMutability": "view",
      "type": "function",
      "constant": true
    },
    {
      "inputs": [
        {
          "internalType": "bytes32",
          "name": "role",
          "type": "bytes32"
        },
        {
          "internalType": "address",
          "name": "account",
          "type": "address"
        }
      ],
      "name": "renounceRole",
      "outputs": [],
      "stateMutability": "nonpayable",
      "type": "function"
    },
    {
      "inputs": [
        {
          "internalType": "bytes32",
          "name": "role",
          "type": "bytes32"
        },
        {
          "internalType": "address",
          "name": "account",
          "type": "address"
        }
      ],
      "name": "revokeRole",
      "outputs": [],
      "stateMutability": "nonpayable",
      "type": "function"
    },
    {
      "inputs": [],
      "name": "seigManager",
      "outputs": [
        {
          "internalType": "contract ISeigManager",
          "name": "",
          "type": "address"
        }
      ],
      "stateMutability": "view",
      "type": "function",
      "constant": true
    },
    {
      "inputs": [],
      "name": "ton",
      "outputs": [
        {
          "internalType": "address",
          "name": "",
          "type": "address"
        }
      ],
      "stateMutability": "view",
      "type": "function",
      "constant": true
    },
    {
      "inputs": [
        {
          "internalType": "address",
          "name": "_agendaManager",
          "type": "address"
        }
      ],
      "name": "setSeigManager",
      "outputs": [],
      "stateMutability": "nonpayable",
      "type": "function"
    },
    {
      "inputs": [
        {
          "internalType": "address",
          "name": "_daoVault",
          "type": "address"
        }
      ],
      "name": "setDaoVault",
      "outputs": [],
      "stateMutability": "nonpayable",
      "type": "function"
    },
    {
      "inputs": [
        {
          "internalType": "address",
          "name": "_layer2Registry",
          "type": "address"
        }
      ],
      "name": "setLayer2Registry",
      "outputs": [],
      "stateMutability": "nonpayable",
      "type": "function"
    },
    {
      "inputs": [
        {
          "internalType": "address",
          "name": "_agendaManager",
          "type": "address"
        }
      ],
      "name": "setAgendaManager",
      "outputs": [],
      "stateMutability": "nonpayable",
      "type": "function"
    },
    {
      "inputs": [
        {
          "internalType": "address",
          "name": "_candidateFactory",
          "type": "address"
        }
      ],
      "name": "setCandidateFactory",
      "outputs": [],
      "stateMutability": "nonpayable",
      "type": "function"
    },
    {
      "inputs": [
        {
          "internalType": "address",
          "name": "_ton",
          "type": "address"
        }
      ],
      "name": "setTon",
      "outputs": [],
      "stateMutability": "nonpayable",
      "type": "function"
    },
    {
      "inputs": [
        {
          "internalType": "uint256",
          "name": "_value",
          "type": "uint256"
        }
      ],
      "name": "setActivityRewardPerSecond",
      "outputs": [],
      "stateMutability": "nonpayable",
      "type": "function"
    },
    {
      "inputs": [
        {
          "internalType": "uint256",
          "name": "_maxMember",
          "type": "uint256"
        }
      ],
      "name": "setMaxMember",
      "outputs": [],
      "stateMutability": "nonpayable",
      "type": "function"
    },
    {
      "inputs": [
        {
          "internalType": "string",
          "name": "_memo",
          "type": "string"
        }
      ],
      "name": "createCandidate",
      "outputs": [],
      "stateMutability": "nonpayable",
      "type": "function"
    },
    {
      "inputs": [
        {
          "internalType": "address",
          "name": "_contractAddress",
          "type": "address"
        },
        {
          "internalType": "string",
          "name": "_memo",
          "type": "string"
        }
      ],
      "name": "registerOperator",
      "outputs": [],
      "stateMutability": "nonpayable",
      "type": "function"
    },
    {
      "inputs": [
        {
          "internalType": "address",
          "name": "_operator",
          "type": "address"
        },
        {
          "internalType": "address",
          "name": "_contractAddress",
          "type": "address"
        },
        {
          "internalType": "string",
          "name": "_memo",
          "type": "string"
        }
      ],
      "name": "registerOperatorByOwner",
      "outputs": [],
      "stateMutability": "nonpayable",
      "type": "function"
    },
    {
      "inputs": [
        {
          "internalType": "uint256",
          "name": "_memberIndex",
          "type": "uint256"
        }
      ],
      "name": "changeMember",
      "outputs": [
        {
          "internalType": "bool",
          "name": "",
          "type": "bool"
        }
      ],
      "stateMutability": "nonpayable",
      "type": "function"
    },
    {
      "inputs": [],
      "name": "retireMember",
      "outputs": [
        {
          "internalType": "bool",
          "name": "",
          "type": "bool"
        }
      ],
      "stateMutability": "nonpayable",
      "type": "function"
    },
    {
      "inputs": [
        {
          "internalType": "uint256",
          "name": "_reducingMemberIndex",
          "type": "uint256"
        }
      ],
      "name": "reduceMemberSlot",
      "outputs": [],
      "stateMutability": "nonpayable",
      "type": "function"
    },
    {
      "inputs": [
        {
          "internalType": "address",
          "name": "owner",
          "type": "address"
        },
        {
          "internalType": "address",
          "name": "spender",
          "type": "address"
        },
        {
          "internalType": "uint256",
          "name": "tonAmount",
          "type": "uint256"
        },
        {
          "internalType": "bytes",
          "name": "data",
          "type": "bytes"
        }
      ],
      "name": "onApprove",
      "outputs": [
        {
          "internalType": "bool",
          "name": "",
          "type": "bool"
        }
      ],
      "stateMutability": "nonpayable",
      "type": "function"
    },
    {
      "inputs": [
        {
          "internalType": "uint256",
          "name": "_quorumNumerator",
          "type": "uint256"
        },
        {
          "internalType": "uint256",
          "name": "_quorumDenominator",
          "type": "uint256"
        }
      ],
      "name": "setQuorum",
      "outputs": [],
      "stateMutability": "nonpayable",
      "type": "function"
    },
    {
      "inputs": [
        {
          "internalType": "uint256",
          "name": "_fees",
          "type": "uint256"
        }
      ],
      "name": "setCreateAgendaFees",
      "outputs": [],
      "stateMutability": "nonpayable",
      "type": "function"
    },
    {
      "inputs": [
        {
          "internalType": "uint256",
          "name": "_minimunNoticePeriod",
          "type": "uint256"
        }
      ],
      "name": "setMinimunNoticePeriodSeconds",
      "outputs": [],
      "stateMutability": "nonpayable",
      "type": "function"
    },
    {
      "inputs": [
        {
          "internalType": "uint256",
          "name": "_minimunVotingPeriod",
          "type": "uint256"
        }
      ],
      "name": "setMinimunVotingPeriodSeconds",
      "outputs": [],
      "stateMutability": "nonpayable",
      "type": "function"
    },
    {
      "inputs": [
        {
          "internalType": "uint256",
          "name": "_agendaID",
          "type": "uint256"
        },
        {
          "internalType": "uint256",
          "name": "_vote",
          "type": "uint256"
        },
        {
          "internalType": "string",
          "name": "_comment",
          "type": "string"
        }
      ],
      "name": "castVote",
      "outputs": [],
      "stateMutability": "nonpayable",
      "type": "function"
    },
    {
      "inputs": [
        {
          "internalType": "uint256",
          "name": "_agendaID",
          "type": "uint256"
        }
      ],
      "name": "endAgendaVoting",
      "outputs": [],
      "stateMutability": "nonpayable",
      "type": "function"
    },
    {
      "inputs": [
        {
          "internalType": "uint256",
          "name": "_agendaID",
          "type": "uint256"
        }
      ],
      "name": "executeAgenda",
      "outputs": [],
      "stateMutability": "nonpayable",
      "type": "function"
    },
    {
      "inputs": [
        {
          "internalType": "uint256",
          "name": "_agendaID",
          "type": "uint256"
        },
        {
          "internalType": "uint256",
          "name": "_status",
          "type": "uint256"
        },
        {
          "internalType": "uint256",
          "name": "_result",
          "type": "uint256"
        }
      ],
      "name": "setAgendaStatus",
      "outputs": [],
      "stateMutability": "nonpayable",
      "type": "function"
    },
    {
      "inputs": [
        {
          "internalType": "address",
          "name": "_candidate",
          "type": "address"
        }
      ],
      "name": "updateSeigniorage",
      "outputs": [
        {
          "internalType": "bool",
          "name": "",
          "type": "bool"
        }
      ],
      "stateMutability": "nonpayable",
      "type": "function"
    },
    {
      "inputs": [
        {
          "internalType": "address[]",
          "name": "_candidates",
          "type": "address[]"
        }
      ],
      "name": "updateSeigniorages",
      "outputs": [
        {
          "internalType": "bool",
          "name": "",
          "type": "bool"
        }
      ],
      "stateMutability": "nonpayable",
      "type": "function"
    },
    {
      "inputs": [],
      "name": "claimActivityReward",
      "outputs": [],
      "stateMutability": "nonpayable",
      "type": "function"
    },
    {
      "inputs": [
        {
          "internalType": "address",
          "name": "_candidate",
          "type": "address"
        }
      ],
      "name": "isCandidate",
      "outputs": [
        {
          "internalType": "bool",
          "name": "",
          "type": "bool"
        }
      ],
      "stateMutability": "view",
      "type": "function",
      "constant": true
    },
    {
      "inputs": [],
      "name": "requiredVotesToPass",
      "outputs": [
        {
          "internalType": "uint256",
          "name": "requiredVotes",
          "type": "uint256"
        }
      ],
      "stateMutability": "view",
      "type": "function",
      "constant": true
    },
    {
      "inputs": [
        {
          "internalType": "address",
          "name": "_candidate",
          "type": "address"
        }
      ],
      "name": "totalSupplyOnCandidate",
      "outputs": [
        {
          "internalType": "uint256",
          "name": "totalsupply",
          "type": "uint256"
        }
      ],
      "stateMutability": "view",
      "type": "function",
      "constant": true
    },
    {
      "inputs": [
        {
          "internalType": "address",
          "name": "_candidate",
          "type": "address"
        },
        {
          "internalType": "address",
          "name": "_account",
          "type": "address"
        }
      ],
      "name": "balanceOfOnCandidate",
      "outputs": [
        {
          "internalType": "uint256",
          "name": "amount",
          "type": "uint256"
        }
      ],
      "stateMutability": "view",
      "type": "function",
      "constant": true
    },
    {
      "inputs": [
        {
          "internalType": "address",
          "name": "_candidateContract",
          "type": "address"
        }
      ],
      "name": "totalSupplyOnCandidateContract",
      "outputs": [
        {
          "internalType": "uint256",
          "name": "totalsupply",
          "type": "uint256"
        }
      ],
      "stateMutability": "view",
      "type": "function",
      "constant": true
    },
    {
      "inputs": [
        {
          "internalType": "address",
          "name": "_candidateContract",
          "type": "address"
        },
        {
          "internalType": "address",
          "name": "_account",
          "type": "address"
        }
      ],
      "name": "balanceOfOnCandidateContract",
      "outputs": [
        {
          "internalType": "uint256",
          "name": "amount",
          "type": "uint256"
        }
      ],
      "stateMutability": "view",
      "type": "function",
      "constant": true
    },
    {
      "inputs": [],
      "name": "candidatesLength",
      "outputs": [
        {
          "internalType": "uint256",
          "name": "",
          "type": "uint256"
        }
      ],
      "stateMutability": "view",
      "type": "function",
      "constant": true
    },
    {
      "inputs": [
        {
          "internalType": "address",
          "name": "_candidate",
          "type": "address"
        }
      ],
      "name": "isExistCandidate",
      "outputs": [
        {
          "internalType": "bool",
          "name": "isExist",
          "type": "bool"
        }
      ],
      "stateMutability": "view",
      "type": "function",
      "constant": true
    },
    {
      "inputs": [
        {
          "internalType": "address",
          "name": "_candidate",
          "type": "address"
        }
      ],
      "name": "getClaimableActivityReward",
      "outputs": [
        {
          "internalType": "uint256",
          "name": "",
          "type": "uint256"
        }
      ],
      "stateMutability": "view",
      "type": "function",
      "constant": true
    }
  ],
  "bytecode": "0x608060405234801561001057600080fd5b506148db806100206000396000f3fe608060405234801561001057600080fd5b50600436106103785760003560e01c8063773b7f65116101d3578063a230c52411610104578063cf2a239c116100a2578063d51b9e931161007c578063d51b9e931461070d578063d525f04f14610720578063d547741f14610733578063fce928941461074657610378565b8063cf2a239c146106df578063d10d2b50146106e7578063d1f0473f146106fa57610378565b8063b5dd1158116100de578063b5dd1158146106b4578063c4ef9c00146106bc578063ca15c873146106c4578063cc48b947146106d757610378565b8063a230c5241461067b578063ad6675dc1461068e578063b4f69b6a146106a157610378565b806389ea43001161017157806391d148541161014b57806391d14854146106455780639932e94c146106585780639a62f6151461066b578063a217fddf1461067357610378565b806389ea4300146106175780638bf7a3ab1461062a5780639010d07c1461063257610378565b80637f331636116101ad5780637f331636146105d6578063805aca20146105de5780638287cc52146105f1578063885b46961461060457610378565b8063773b7f65146105a857806378767d33146105b05780637a3d5468146105c357610378565b80634273ca16116102ad5780635903bd6c1161024b5780635fba7a56116102255780635fba7a5614610567578063651d08cd1461057a5780636fb7f5581461058d5780637657f20a1461059557610378565b80635903bd6c146105395780635daf08ca146105415780635ebe76221461055457610378565b80634d288fec116102875780634d288fec146104ed57806355d1fe1614610500578063561a1dab1461051357806357f0a8671461052657610378565b80634273ca16146104b457806349c39f14146104c75780634b799db1146104da57610378565b806327fd92fd1161031a5780632f2ff15d116102f45780632f2ff15d146104685780633477ee2e1461047b57806336568abe1461048e578063410439e8146104a157610378565b806327fd92fd1461041c5780632af60ff4146104315780632e011c1e1461044457610378565b806316f7f9821161035657806316f7f982146103d0578063216f486b146103e3578063248a9ca3146103f657806324f99b1e1461040957610378565b806303e3c9ac1461037d578063047f52f21461039b57806311f19e04146103b0575b600080fd5b610385610759565b6040516103929190613f75565b60405180910390f35b6103ae6103a9366004613814565b61075f565b005b6103c36103be366004613bb8565b6107d7565b6040516103929190613f6a565b6103856103de36600461384c565b6109ac565b6103ae6103f1366004613bb8565b610b03565b610385610404366004613bb8565b610dcb565b6103ae610417366004613ca6565b610de0565b610424611203565b6040516103929190613dd9565b6103ae61043f366004613814565b611212565b610457610452366004613814565b611281565b604051610392959493929190613e7f565b6103ae610476366004613bd0565b6112ba565b610424610489366004613bb8565b611321565b6103ae61049c366004613bd0565b61134b565b6103ae6104af366004613884565b6113ac565b6103c36104c23660046138e3565b6114b8565b6103ae6104d5366004613814565b6114f2565b6103ae6104e8366004613814565b611561565b6103ae6104fb366004613814565b6115d0565b6103ae61050e366004613bb8565b61163f565b6103c3610521366004613814565b611697565b6103c36105343660046139a0565b6116b7565b6104246116f7565b61042461054f366004613bb8565b611706565b6103ae610562366004613bb8565b611716565b6103ae610575366004613c15565b611742565b610424610588366004613814565b611ac1565b610424611adf565b6103ae6105a3366004613814565b611aee565b610385611b5d565b6103856105be366004613814565b611b63565b6103ae6105d1366004613bf4565b611cac565b610385611d82565b6103ae6105ec366004613cf6565b611d88565b6103ae6105ff366004613bb8565b611e90565b6103ae610612366004613bb8565b61204f565b6103c3610625366004613814565b6120b4565b6103ae612222565b610424610640366004613bf4565b61230c565b6103c3610653366004613bd0565b612324565b610385610666366004613814565b61233c565b6103856123ce565b610385612477565b6103c3610689366004613814565b61247c565b61038561069c366004613814565b61249c565b6103ae6106af366004613bb8565b6124b3565b610424612551565b6103c3612560565b6103856106d2366004613bb8565b61265a565b610424612671565b610424612680565b6103ae6106f5366004613bb8565b61268f565b6103ae610708366004613bb8565b61272d565b6103c361071b366004613814565b6127cb565b61038561072e36600461384c565b6128a6565b6103ae610741366004613bd0565b6128be565b6103ae610754366004613953565b612917565b60085481565b61076a600033612324565b61078f5760405162461bcd60e51b815260040161078690614404565b60405180910390fd5b6001600160a01b0381166107b55760405162461bcd60e51b81526004016107869061438d565b600380546001600160a01b0319166001600160a01b0392909216919091179055565b33600090815260096020526040812060085483106108075760405162461bcd60e51b815260040161078690614049565b80546001600160a01b031661082e5760405162461bcd60e51b8152600401610786906143b3565b6001810154156108505760405162461bcd60e51b81526004016107869061434c565b60006007848154811061085f57fe5b60009182526020909120015442600184015560028301859055600780546001600160a01b03909216925033918690811061089557fe5b600091825260209091200180546001600160a01b0319166001600160a01b0392831617905581166108fb57336001600160a01b0316846000805160206147ae833981519152836040516108e89190613dd9565b60405180910390a36001925050506109a7565b6109048161249c565b61090d3361249c565b1161092a5760405162461bcd60e51b815260040161078690613f91565b6001600160a01b0381166000908152600960205260408120600281019190915560018101546109699061095e9042906129f7565b600383015490612a39565b600382015560006001820155604051339086906000805160206147ae83398151915290610997908690613dd9565b60405180910390a3600193505050505b919050565b60006001600160a01b0383166109d45760405162461bcd60e51b815260040161078690614012565b600554604051634c063c1960e01b81526000916001600160a01b031690634c063c1990610a05908790600401613dd9565b60206040518083038186803b158015610a1d57600080fd5b505afa158015610a31573d6000803e3d6000fd5b505050506040513d601f19601f82011682018060405250810190610a559190613830565b90506001600160a01b038116610a7d5760405162461bcd60e51b8152600401610786906144e0565b6040516370a0823160e01b81526001600160a01b038216906370a0823190610aa9908690600401613dd9565b60206040518083038186803b158015610ac157600080fd5b505afa158015610ad5573d6000803e3d6000fd5b505050506040513d601f19601f82011682018060405250810190610af99190613c8e565b9150505b92915050565b6002546001600160a01b0316610b4a5760405162461bcd60e51b815260040180806020018281038252602c8152602001806147ef602c913960400191505060405180910390fd5b6002546040516377f28d5b60e01b81526001600160a01b03909116906377f28d5b90610b7a908490600401613f75565b60206040518083038186803b158015610b9257600080fd5b505afa158015610ba6573d6000803e3d6000fd5b505050506040513d601f19601f82011682018060405250810190610bca9190613b98565b610be65760405162461bcd60e51b8152600401610786906142b4565b6002546040516373ba374560e01b815260009182916001600160a01b03909116906373ba374590610c1b908690600401613f75565b60006040518083038186803b158015610c3357600080fd5b505afa158015610c47573d6000803e3d6000fd5b505050506040513d6000823e601f3d908101601f19168201604052610c6f9190810190613a0e565b9150915060005b8251811015610d2b576000838281518110610c8d57fe5b60200260200101516001600160a01b0316838381518110610caa57fe5b6020026020010151604051610cbf9190613dbd565b6000604051808303816000865af19150503d8060008114610cfc576040519150601f19603f3d011682016040523d82523d6000602084013e610d01565b606091505b5050905080610d225760405162461bcd60e51b815260040161078690614517565b50600101610c76565b50600254604051631b8c251960e11b81526001600160a01b03909116906337184a3290610d5c908690600401613f75565b600060405180830381600087803b158015610d7657600080fd5b505af1158015610d8a573d6000803e3d6000fd5b50505050827f785146be3266678a3f4ea454b310ff1f8c91d0ad9a7997bcd0619940d4d67fe683604051610dbe9190613ead565b60405180910390a2505050565b6000908152600b602052604090206002015490565b6002546001600160a01b0316610e275760405162461bcd60e51b815260040180806020018281038252602c8152602001806147ef602c913960400191505060405180910390fd5b6000610e316123ce565b905060008111610e535760405162461bcd60e51b815260040161078690614561565b600254604051637e77eb2360e01b81526001600160a01b0390911690637e77eb2390610e87908890339089906004016145a4565b602060405180830381600087803b158015610ea157600080fd5b505af1158015610eb5573d6000803e3d6000fd5b505050506040513d601f19601f82011682018060405250810190610ed99190613b98565b50600254604051635772521560e11b8152600091829182916001600160a01b03169063aee4a42a90610f0f908b90600401613f75565b60606040518083038186803b158015610f2757600080fd5b505afa158015610f3b573d6000803e3d6000fd5b505050506040513d601f19601f82011682018060405250810190610f5f9190613d21565b92509250925082841161103b57600254604051632b0a851b60e11b81526001600160a01b03909116906356150a3690610f9f908b906001906004016145c3565b600060405180830381600087803b158015610fb957600080fd5b505af1158015610fcd573d6000803e3d6000fd5b5050600254604051633625b75960e21b81526001600160a01b03909116925063d896dd649150611004908b906003906004016145e1565b600060405180830381600087803b15801561101e57600080fd5b505af1158015611032573d6000803e3d6000fd5b505050506111b3565b8184116110d85760028054604051632b0a851b60e11b81526001600160a01b03909116916356150a3691611073918c916004016145c3565b600060405180830381600087803b15801561108d57600080fd5b505af11580156110a1573d6000803e3d6000fd5b5050600254604051633625b75960e21b81526001600160a01b03909116925063d896dd649150611004908b906005906004016145e1565b6110e28183612a39565b84116111b357600254604051632b0a851b60e11b81526001600160a01b03909116906356150a369061111b908b906003906004016145c3565b600060405180830381600087803b15801561113557600080fd5b505af1158015611149573d6000803e3d6000fd5b5050600254604051633625b75960e21b81526001600160a01b03909116925063d896dd649150611180908b906005906004016145e1565b600060405180830381600087803b15801561119a57600080fd5b505af11580156111ae573d6000803e3d6000fd5b505050505b87336001600160a01b03167ffa0761008653bc7bf9fa040fb7e07672ad3e17a976eb452c44e81dd782a6214b8989896040516111f1939291906145f2565b60405180910390a35050505050505050565b6002546001600160a01b031681565b61121d600033612324565b6112395760405162461bcd60e51b815260040161078690614404565b6001600160a01b03811661125f5760405162461bcd60e51b81526004016107869061438d565b600480546001600160a01b0319166001600160a01b0392909216919091179055565b600960205260009081526040902080546001820154600283015460038401546004909401546001600160a01b0390931693919290919085565b6000828152600b60205260409020600201546112d890610653612a93565b6113135760405162461bcd60e51b815260040180806020018281038252602f8152602001806146ff602f913960400191505060405180910390fd5b61131d8282612a97565b5050565b6006818154811061133157600080fd5b6000918252602090912001546001600160a01b0316905081565b611353612a93565b6001600160a01b0316816001600160a01b0316146113a25760405162461bcd60e51b815260040180806020018281038252602f815260200180614877602f913960400191505060405180910390fd5b61131d8282612b00565b6113b7600033612324565b6113d35760405162461bcd60e51b815260040161078690614404565b6005546001600160a01b031661141a5760405162461bcd60e51b815260040180806020018281038252602b81526020018061484c602b913960400191505060405180910390fd5b6004546001600160a01b03166114615760405162461bcd60e51b815260040180806020018281038252602d815260200180614751602d913960400191505060405180910390fd5b6003546001600160a01b03166114a85760405162461bcd60e51b815260040180806020018281038252603181526020018061481b6031913960400191505060405180910390fd5b6114b3838383612b69565b505050565b6000806114c58484612db4565b90506114e4878260000151836020015184604001518560600151612ddf565b506001979650505050505050565b6114fd600033612324565b6115195760405162461bcd60e51b815260040161078690614404565b6001600160a01b03811661153f5760405162461bcd60e51b81526004016107869061438d565b600280546001600160a01b0319166001600160a01b0392909216919091179055565b61156c600033612324565b6115885760405162461bcd60e51b815260040161078690614404565b6001600160a01b0381166115ae5760405162461bcd60e51b81526004016107869061438d565b600180546001600160a01b0319166001600160a01b0392909216919091179055565b6115db600033612324565b6115f75760405162461bcd60e51b815260040161078690614404565b6001600160a01b03811661161d5760405162461bcd60e51b81526004016107869061438d565b600080546001600160a01b0319166001600160a01b0392909216919091179055565b61164a600033612324565b6116665760405162461bcd60e51b815260040161078690614404565b80600854106116875760405162461bcd60e51b815260040161078690614092565b6008819055611694612f0f565b50565b6001600160a01b0390811660009081526009602052604090205416151590565b6000805b828110156116f0576116e78484838181106116d257fe5b90506020020160208101906106259190613814565b506001016116bb565b5092915050565b6001546001600160a01b031681565b6007818154811061133157600080fd5b611721600033612324565b61173d5760405162461bcd60e51b815260040161078690614404565b600a55565b6005546001600160a01b03166117895760405162461bcd60e51b815260040180806020018281038252602b81526020018061484c602b913960400191505060405180910390fd5b6004546001600160a01b03166117d05760405162461bcd60e51b815260040180806020018281038252602d815260200180614751602d913960400191505060405180910390fd5b6003546001600160a01b03166118175760405162461bcd60e51b815260040180806020018281038252603181526020018061481b6031913960400191505060405180910390fd5b61182033611697565b1561183d5760405162461bcd60e51b815260040161078690614497565b600354600554600480546040516337d5af5f60e01b81526000946001600160a01b03908116946337d5af5f9461187f9433948a94938416939091169101613ded565b602060405180830381600087803b15801561189957600080fd5b505af11580156118ad573d6000803e3d6000fd5b505050506040513d601f19601f820116820180604052508101906118d19190613830565b90506001600160a01b0381166118f95760405162461bcd60e51b815260040161078690614207565b60048054600554604051635e58d38f60e11b81526001600160a01b039283169363bcb1a71e9361192e93879391169101613e41565b602060405180830381600087803b15801561194857600080fd5b505af115801561195c573d6000803e3d6000fd5b505050506040513d601f19601f820116820180604052508101906119809190613b98565b61199c5760405162461bcd60e51b8152600401610786906142fc565b336000908152600960205260409020546001600160a01b0316156119d25760405162461bcd60e51b81526004016107869061413a565b6040805160a0810182526001600160a01b038084168083526000602080850182815285870183815260608701848152608088018581523380875260099095528986209851895498166001600160a01b031998891617895592516001808a01919091559151600289015551600388015590516004909601959095556006805495860181559091527ff652222313e28459528d920b65115c16c04f3efc82aaedc97be59f3f377c0d3f9093018054909216831790915591517f7cf8db18d9a5c7f44156bfabdbb59ac982a8a004e461ca1b87ee71a5cdfbc5ef90611ab5908690613f7e565b60405180910390a35050565b6001600160a01b039081166000908152600960205260409020541690565b6005546001600160a01b031681565b611af9600033612324565b611b155760405162461bcd60e51b815260040161078690614404565b6001600160a01b038116611b3b5760405162461bcd60e51b81526004016107869061438d565b600580546001600160a01b0319166001600160a01b0392909216919091179055565b60065490565b60006001600160a01b038216611b8b5760405162461bcd60e51b815260040161078690614012565b600554604051634c063c1960e01b81526000916001600160a01b031690634c063c1990611bbc908690600401613dd9565b60206040518083038186803b158015611bd457600080fd5b505afa158015611be8573d6000803e3d6000fd5b505050506040513d601f19601f82011682018060405250810190611c0c9190613830565b90506001600160a01b038116611c345760405162461bcd60e51b8152600401610786906144e0565b806001600160a01b03166318160ddd6040518163ffffffff1660e01b815260040160206040518083038186803b158015611c6d57600080fd5b505afa158015611c81573d6000803e3d6000fd5b505050506040513d601f19601f82011682018060405250810190611ca59190613c8e565b9392505050565b611cb7600033612324565b611cd35760405162461bcd60e51b815260040161078690614404565b6002546001600160a01b0316611d1a5760405162461bcd60e51b815260040180806020018281038252602c8152602001806147ef602c913960400191505060405180910390fd5b600254604051630f47aa8d60e31b81526001600160a01b0390911690637a3d546890611d4c9085908590600401614628565b600060405180830381600087803b158015611d6657600080fd5b505af1158015611d7a573d6000803e3d6000fd5b505050505050565b600a5481565b611d93600033612324565b611daf5760405162461bcd60e51b815260040161078690614404565b6002546001600160a01b03166356150a3684836003811115611dcd57fe5b6040518363ffffffff1660e01b8152600401611dea9291906145c3565b600060405180830381600087803b158015611e0457600080fd5b505af1158015611e18573d6000803e3d6000fd5b50506002546001600160a01b0316915063d896dd64905084846005811115611e3c57fe5b6040518363ffffffff1660e01b8152600401611e599291906145e1565b600060405180830381600087803b158015611e7357600080fd5b505af1158015611e87573d6000803e3d6000fd5b50505050505050565b611e9b600033612324565b611eb75760405162461bcd60e51b815260040161078690614404565b600060078281548110611ec657fe5b60009182526020808320909101546001600160a01b03168083526009909152604090912060075491925090600019018314611f835760078054600091906000198101908110611f1157fe5b60009182526020808320909101546001600160a01b0316808352600990915260409091206002810186905560078054929350909183919087908110611f5257fe5b9060005260206000200160006101000a8154816001600160a01b0302191690836001600160a01b0316021790555050505b600060028201556001810154611f9e9061095e9042906129f7565b6003820155600060018201556007805480611fb557fe5b600082815260209020810160001990810180546001600160a01b0319169055019055600854611fe59060016129f7565b60085560405160009084906000805160206147ae8339815191529061200b908690613dd9565b60405180910390a3600854612021816001612a39565b6040517f8c0366d1e3a335a312d012257ee764723c38ec2dd5e74cbfad372513521f977190600090a3505050565b60025460405163442da34b60e11b81526001600160a01b039091169063885b46969061207f908490600401613f75565b600060405180830381600087803b15801561209957600080fd5b505af11580156120ad573d6000803e3d6000fd5b5050505050565b6001600160a01b03808216600090815260096020526040812054909116806120ee5760405162461bcd60e51b81526004016107869061418f565b6120ff81631dffc87160e21b612f64565b61211b5760405162461bcd60e51b815260040161078690614257565b806001600160a01b03166377ff21c46040518163ffffffff1660e01b815260040160206040518083038186803b15801561215457600080fd5b505afa158015612168573d6000803e3d6000fd5b505050506040513d601f19601f8201168201806040525081019061218c9190613b98565b6121a85760405162461bcd60e51b815260040161078690614451565b806001600160a01b031663764a78566040518163ffffffff1660e01b8152600401602060405180830381600087803b1580156121e357600080fd5b505af11580156121f7573d6000803e3d6000fd5b505050506040513d601f19601f8201168201806040525081019061221b9190613b98565b5050919050565b3360008181526009602052604081209161223b9061233c565b90506000811161225d5760405162461bcd60e51b8152600401610786906140f0565b600154604051633bc3556560e21b81526001600160a01b039091169063ef0d55949061228f9033908590600401613e28565b600060405180830381600087803b1580156122a957600080fd5b505af11580156122bd573d6000803e3d6000fd5b505042600485015550506000600383015560405133907fe013459a1c3162ae04cb4b22feaa126a5d302e283c7333f41d1ebe1b2cd7384b90612300908490613f75565b60405180910390a25050565b6000828152600b60205260408120611ca59083612f80565b6000828152600b60205260408120611ca59083612f8c565b6001600160a01b038116600090815260096020526040812060038101546001820154156123b85781600401548260010154111561239b5761239461238d8360010154426129f790919063ffffffff16565b8290612a39565b90506123b8565b6123b561238d8360040154426129f790919063ffffffff16565b90505b600a546123c6908290612fa1565b949350505050565b600254604080516302e0740360e31b8152815160009384936001600160a01b0390911692631703a0189260048083019392829003018186803b15801561241357600080fd5b505afa158015612427573d6000803e3d6000fd5b505050506040513d601f19601f8201168201806040525081019061244b9190613c47565b600754602082015182519293509091612470919061246a908490612fa1565b90612ffa565b9250505090565b600081565b6001600160a01b0316600090815260096020526040902060010154151590565b6000806124a883611ac1565b9050611ca581611b63565b6124be600033612324565b6124da5760405162461bcd60e51b815260040161078690614404565b6002546001600160a01b03166125215760405162461bcd60e51b815260040180806020018281038252602c8152602001806147ef602c913960400191505060405180910390fd5b600254604051635a7b4db560e11b81526001600160a01b039091169063b4f69b6a9061207f908490600401613f75565b6003546001600160a01b031681565b60003361256c8161247c565b6125a75760405162461bcd60e51b815260040180806020018281038252602381526020018061472e6023913960400191505060405180910390fd5b33600090815260096020526040812060028101546007805492939290919081106125cd57fe5b9060005260206000200160006101000a8154816001600160a01b0302191690836001600160a01b0316021790555061261561095e8260010154426129f790919063ffffffff16565b600382015560006001820181905560028201546040516000805160206147ae83398151915290612646903390613dd9565b60405180910390a360006002909101555090565b6000818152600b60205260408120610afd9061303c565b6000546001600160a01b031681565b6004546001600160a01b031681565b61269a600033612324565b6126b65760405162461bcd60e51b815260040161078690614404565b6002546001600160a01b03166126fd5760405162461bcd60e51b815260040180806020018281038252602c8152602001806147ef602c913960400191505060405180910390fd5b600254604051630d10d2b560e41b81526001600160a01b039091169063d10d2b509061207f908490600401613f75565b612738600033612324565b6127545760405162461bcd60e51b815260040161078690614404565b6002546001600160a01b031661279b5760405162461bcd60e51b815260040180806020018281038252602c8152602001806147ef602c913960400191505060405180910390fd5b60025460405163d1f0473f60e01b81526001600160a01b039091169063d1f0473f9061207f908490600401613f75565b6001600160a01b038082166000908152600960205260408120805491929091166127f95760009150506109a7565b8054600090612818906001600160a01b0316631dffc87160e21b612f64565b90508061282a576000925050506109a7565b815460408051631dffc87160e21b815290516001600160a01b03909216916377ff21c491600480820192602092909190829003018186803b15801561286e57600080fd5b505afa158015612882573d6000803e3d6000fd5b505050506040513d601f19601f820116820180604052508101906123c69190613b98565b6000806128b284611ac1565b9050610af981846109ac565b6000828152600b60205260409020600201546128dc90610653612a93565b6113a25760405162461bcd60e51b815260040180806020018281038252603081526020018061477e6030913960400191505060405180910390fd5b6005546001600160a01b031661295e5760405162461bcd60e51b815260040180806020018281038252602b81526020018061484c602b913960400191505060405180910390fd5b6004546001600160a01b03166129a55760405162461bcd60e51b815260040180806020018281038252602d815260200180614751602d913960400191505060405180910390fd5b6003546001600160a01b03166129ec5760405162461bcd60e51b815260040180806020018281038252603181526020018061481b6031913960400191505060405180910390fd5b61131d338383612b69565b6000611ca583836040518060400160405280601e81526020017f536166654d6174683a207375627472616374696f6e206f766572666c6f770000815250613047565b600082820183811015611ca5576040805162461bcd60e51b815260206004820152601b60248201527f536166654d6174683a206164646974696f6e206f766572666c6f770000000000604482015290519081900360640190fd5b3390565b6000828152600b60205260409020612aaf90826130de565b1561131d57612abc612a93565b6001600160a01b0316816001600160a01b0316837f2f8788117e7eff1d82e926ec794901d17c78024a50270940304540a733656f0d60405160405180910390a45050565b6000828152600b60205260409020612b1890826130f3565b1561131d57612b25612a93565b6001600160a01b0316816001600160a01b0316837ff6391f5c32d9c69d2a47ea670b442974b53935d1edc7fd64eb21e047a839171b60405160405180910390a45050565b6005546001600160a01b0316612bb05760405162461bcd60e51b815260040180806020018281038252602b81526020018061484c602b913960400191505060405180910390fd5b6004546001600160a01b0316612bf75760405162461bcd60e51b815260040180806020018281038252602d815260200180614751602d913960400191505060405180910390fd5b6003546001600160a01b0316612c3e5760405162461bcd60e51b815260040180806020018281038252603181526020018061481b6031913960400191505060405180910390fd5b612c4783611697565b15612c645760405162461bcd60e51b815260040161078690614497565b6001600160a01b038216612c8a5760405162461bcd60e51b815260040161078690614207565b6001600160a01b038381166000908152600960205260409020541615612cc25760405162461bcd60e51b81526004016107869061413a565b6040805160a0810182526001600160a01b038085168083526000602080850182815285870183815260608701848152608088018581528c881680875260099095528986209851895498166001600160a01b031998891617895592516001808a01919091559151600289015551600388015590516004909601959095556006805495860181559091527ff652222313e28459528d920b65115c16c04f3efc82aaedc97be59f3f377c0d3f9093018054909216831790915591517f574651c4b47831128b9ed5b0c878675fc9c8e14d7119b755a31c7fef6065e97090612da7908590613f7e565b60405180910390a3505050565b612dbc61364a565b612dc882840184613ac6565b606085015260408401526020830152815292915050565b6002546000906001600160a01b0316612e295760405162461bcd60e51b815260040180806020018281038252602c8152602001806147ef602c913960400191505060405180910390fd5b612e3286613108565b60025460405163490e9c1d60e11b81526000916001600160a01b03169063921d383a90612e6b9089908990899087908a90600401613ee5565b602060405180830381600087803b158015612e8557600080fd5b505af1158015612e99573d6000803e3d6000fd5b505050506040513d601f19601f82011682018060405250810190612ebd9190613c8e565b905080876001600160a01b03167fb0c20bab69de391cff8f119cf876e708b1b41868e0fd397cbcd2b4d3c623b5b8888888604051612efd93929190613ec0565b60405180910390a39695505050505050565b6007545b6008548110156116945760078054600181810183556000929092527fa66cc928b5edb82af9bd49922954155ab7b0942694bea4ce44661d9a8736c6880180546001600160a01b031916905501612f13565b6000612f6f836132c9565b8015611ca55750611ca583836132fc565b6000611ca58383613322565b6000611ca5836001600160a01b038416613386565b600082612fb057506000610afd565b82820282848281612fbd57fe5b0414611ca55760405162461bcd60e51b81526004018080602001828103825260218152602001806147ce6021913960400191505060405180910390fd5b6000611ca583836040518060400160405280601a81526020017f536166654d6174683a206469766973696f6e206279207a65726f00000000000081525061339e565b6000610afd82613403565b600081848411156130d65760405162461bcd60e51b81526004018080602001828103825283818151815260200191508051906020019080838360005b8381101561309b578181015183820152602001613083565b50505050905090810190601f1680156130c85780820380516001836020036101000a031916815260200191505b509250505060405180910390fd5b505050900390565b6000611ca5836001600160a01b038416613407565b6000611ca5836001600160a01b038416613451565b60025460408051632522a32f60e01b815290516000926001600160a01b031691632522a32f916004808301926020929190829003018186803b15801561314d57600080fd5b505afa158015613161573d6000803e3d6000fd5b505050506040513d601f19601f820116820180604052508101906131859190613c8e565b6000546040516323b872dd60e01b81529192506001600160a01b0316906323b872dd906131ba90859030908690600401613e5b565b602060405180830381600087803b1580156131d457600080fd5b505af11580156131e8573d6000803e3d6000fd5b505050506040513d601f19601f8201168201806040525081019061320c9190613b98565b6132285760405162461bcd60e51b815260040161078690613fbc565b60005460405163a9059cbb60e01b81526001600160a01b039091169063a9059cbb9061325b906001908590600401613e28565b602060405180830381600087803b15801561327557600080fd5b505af1158015613289573d6000803e3d6000fd5b505050506040513d601f19601f820116820180604052508101906132ad9190613b98565b61131d5760405162461bcd60e51b8152600401610786906141c6565b60006132dc826301ffc9a760e01b6132fc565b8015610afd57506132f5826001600160e01b03196132fc565b1592915050565b600080600061330b8585613517565b915091508180156133195750805b95945050505050565b815460009082106133645760405162461bcd60e51b81526004018080602001828103825260228152602001806146dd6022913960400191505060405180910390fd5b82600001828154811061337357fe5b9060005260206000200154905092915050565b60009081526001919091016020526040902054151590565b600081836133ed5760405162461bcd60e51b815260206004820181815283516024840152835190928392604490910191908501908083836000831561309b578181015183820152602001613083565b5060008385816133f957fe5b0495945050505050565b5490565b60006134138383613386565b61344957508154600181810184556000848152602080822090930184905584548482528286019093526040902091909155610afd565b506000610afd565b6000818152600183016020526040812054801561350d578354600019808301919081019060009087908390811061348457fe5b90600052602060002001549050808760000184815481106134a157fe5b6000918252602080832090910192909255828152600189810190925260409020908401905586548790806134d157fe5b60019003818190600052602060002001600090559055866001016000878152602001908152602001600020600090556001945050505050610afd565b6000915050610afd565b604080516001600160e01b0319831660248083019190915282518083039091018152604490910182526020810180516001600160e01b03166301ffc9a760e01b17815291518151600093849392849283926001600160a01b038a169261753092879282918083835b6020831061359e5780518252601f19909201916020918201910161357f565b6001836020036101000a0380198251168184511680821785525050505050509050019150506000604051808303818686fa925050503d80600081146135ff576040519150601f19603f3d011682016040523d82523d6000602084013e613604565b606091505b50915091506020815110156136225760008094509450505050613643565b8181806020019051602081101561363857600080fd5b505190955093505050505b9250929050565b6040518060800160405280606081526020016000815260200160008152602001606081525090565b600061368561368084614676565b614636565b905082815283838301111561369957600080fd5b828260208301376000602084830101529392505050565b600082601f8301126136c0578081fd5b813560206136d061368083614659565b82815281810190858301855b8581101561371a578135880189603f8201126136f6578788fd5b6137078a8783013560408401613672565b85525092840192908401906001016136dc565b5090979650505050505050565b600082601f830112613737578081fd5b8151602061374761368083614659565b82815281810190858301855b8581101561371a578151880189603f82011261376d578788fd5b85810151604061377f61368083614676565b8281528c82848601011115613792578a8bfd5b6137a1838a8301848701614697565b87525050509284019290840190600101613753565b60008083601f8401126137c7578182fd5b5081356001600160401b038111156137dd578182fd5b60208301915083602082850101111561364357600080fd5b600082601f830112613805578081fd5b611ca583833560208501613672565b600060208284031215613825578081fd5b8135611ca5816146c7565b600060208284031215613841578081fd5b8151611ca5816146c7565b6000806040838503121561385e578081fd5b8235613869816146c7565b91506020830135613879816146c7565b809150509250929050565b600080600060608486031215613898578081fd5b83356138a3816146c7565b925060208401356138b3816146c7565b915060408401356001600160401b038111156138cd578182fd5b6138d9868287016137f5565b9150509250925092565b6000806000806000608086880312156138fa578283fd5b8535613905816146c7565b94506020860135613915816146c7565b93506040860135925060608601356001600160401b03811115613936578182fd5b613942888289016137b6565b969995985093965092949392505050565b60008060408385031215613965578182fd5b8235613970816146c7565b915060208301356001600160401b0381111561398a578182fd5b613996858286016137f5565b9150509250929050565b600080602083850312156139b2578182fd5b82356001600160401b03808211156139c8578384fd5b818501915085601f8301126139db578384fd5b8135818111156139e9578485fd5b86602080830285010111156139fc578485fd5b60209290920196919550909350505050565b60008060408385031215613a20578182fd5b82516001600160401b0380821115613a36578384fd5b818501915085601f830112613a49578384fd5b81516020613a5961368083614659565b82815281810190858301838502870184018b1015613a75578889fd5b8896505b84871015613aa0578051613a8c816146c7565b835260019690960195918301918301613a79565b5091880151919650909350505080821115613ab9578283fd5b5061399685828601613727565b60008060008060808587031215613adb578182fd5b84356001600160401b0380821115613af1578384fd5b818701915087601f830112613b04578384fd5b81356020613b1461368083614659565b82815281810190858301838502870184018d1015613b30578889fd5b8896505b84871015613b5b578035613b47816146c7565b835260019690960195918301918301613b34565b50985050880135955050604087013593506060870135915080821115613b7f578283fd5b50613b8c878288016136b0565b91505092959194509250565b600060208284031215613ba9578081fd5b81518015158114611ca5578182fd5b600060208284031215613bc9578081fd5b5035919050565b60008060408385031215613be2578182fd5b823591506020830135613879816146c7565b60008060408385031215613c06578182fd5b50508035926020909101359150565b600060208284031215613c26578081fd5b81356001600160401b03811115613c3b578182fd5b610af9848285016137f5565b600060408284031215613c58578081fd5b604051604081018181106001600160401b0382111715613c7457fe5b604052825181526020928301519281019290925250919050565b600060208284031215613c9f578081fd5b5051919050565b60008060008060608587031215613cbb578182fd5b843593506020850135925060408501356001600160401b03811115613cde578283fd5b613cea878288016137b6565b95989497509550505050565b600080600060608486031215613d0a578081fd5b505081359360208301359350604090920135919050565b600080600060608486031215613d35578081fd5b8351925060208401519150604084015190509250925092565b6000815180845260208085019450808401835b83811015613d865781516001600160a01b031687529582019590820190600101613d61565b509495945050505050565b60008151808452613da9816020860160208601614697565b601f01601f19169290920160200192915050565b60008251613dcf818460208701614697565b9190910192915050565b6001600160a01b0391909116815260200190565b600060018060a01b03808716835260806020840152613e0f6080840187613d91565b9481166040840152929092166060909101525092915050565b6001600160a01b03929092168252602082015260400190565b6001600160a01b0392831681529116602082015260400190565b6001600160a01b039384168152919092166020820152604081019190915260600190565b6001600160a01b03959095168552602085019390935260408401919091526060830152608082015260a00190565b600060208252611ca56020830184613d4e565b600060608252613ed36060830186613d4e565b60208301949094525060400152919050565b600060a08252613ef860a0830188613d4e565b602087818501528660408501528560608501528382036080850152818551808452828401915082838202850101838801865b83811015613f5857601f19878403018552613f46838351613d91565b94860194925090850190600101613f2a565b50909c9b505050505050505050505050565b901515815260200190565b90815260200190565b600060208252611ca56020830184613d91565b6020808252601190820152701b9bdd08195b9bdd59da08185b5bdd5b9d607a1b604082015260600190565b60208082526036908201527f44414f436f6d6d697474656553746f72653a206661696c656420746f207472616040820152753739b332b9103a37b710333937b69031b932b0ba37b960511b606082015260800190565b6020808252601f908201527f54686973206163636f756e74206973206e6f7420612063616e64696461746500604082015260600190565b60208082526029908201527f44414f436f6d6d697474656553746f72653a20696e646578206973206e6f7420604082015268617661696c61626c6560b81b606082015260800190565b602080825260409082018190527f44414f436f6d6d697474656553746f72653a20596f75206861766520746f2063908201527f616c6c207265647563654d656d626572536c6f7420746f206465637265617365606082015260800190565b6020808252602a908201527f44414f436f6d6d69747465653a20796f7520646f6e2774206861766520636c6160408201526934b6b0b13632903a37b760b11b606082015260800190565b60208082526035908201527f44414f436f6d6d697474656553746f72653a205468652063616e64696461746560408201527408185b1c9958591e481a185cc818dbdb9d1c9858dd605a1b606082015260800190565b6020808252601d908201527f44414f436f6d6d69747465653a206e6f7420612063616e646964617465000000604082015260600190565b60208082526021908201527f44414f436f6d6d697474656553746f72653a206661696c656420746f206275726040820152603760f91b606082015260800190565b60208082526030908201527f44414f436f6d6d69747465653a206465706c6f7965642063616e64696461746560408201526f436f6e7472616374206973207a65726f60801b606082015260800190565b6020808252603c908201527f44414f436f6d6d69747465653a2074686520636f6e747261637420646f65736e60408201527f277420737570706f727420757064617465536569676e696f7261676500000000606082015260800190565b60208082526028908201527f44414f436f6d6d69747465653a2063616e206e6f74206578656375746520746860408201526765206167656e646160c01b606082015260800190565b60208082526030908201527f44414f436f6d6d69747465653a206661696c656420746f20726567697374657260408201526f416e644465706c6f79436f696e61676560801b606082015260800190565b60208082526021908201527f44414f436f6d6d697474656553746f72653a20616c7265616479206d656d62656040820152603960f91b606082015260800190565b6020808252600c908201526b7a65726f206164647265737360a01b604082015260600190565b60208082526031908201527f44414f436f6d6d697474656553746f72653a205468652061646472657373206960408201527073206e6f7420612063616e64696461746560781b606082015260800190565b6020808252602d908201527f44414f436f6d6d697474656550726f78793a206d73672e73656e64657220697360408201526c103737ba1030b71030b236b4b760991b606082015260800190565b60208082526026908201527f44414f436f6d6d69747465653a206e6f7420612063616e64696461746520636f6040820152651b9d1c9858dd60d21b606082015260800190565b60208082526029908201527f44414f436f6d6d69747465653a2063616e64696461746520616c7265616479206040820152681c9959da5cdd195c9960ba1b606082015260800190565b6020808252601d908201527f44414f436f6d6d69747465653a20636f696e616765206973207a65726f000000604082015260600190565b6020808252602a908201527f44414f436f6d6d69747465653a204661696c656420746f206578656375746520604082015269746865206167656e646160b01b606082015260800190565b60208082526023908201527f44414f436f6d6d69747465653a207265717569726564566f746573206973207a60408201526265726f60e81b606082015260800190565b9283526001600160a01b03919091166020830152604082015260600190565b82815260408101600483106145d457fe5b8260208301529392505050565b82815260408101600683106145d457fe5b60008482526040602083015282604083015282846060840137818301606090810191909152601f909201601f1916010192915050565b918252602082015260400190565b6040518181016001600160401b038111828210171561465157fe5b604052919050565b60006001600160401b0382111561466c57fe5b5060209081020190565b60006001600160401b0382111561468957fe5b50601f01601f191660200190565b60005b838110156146b257818101518382015260200161469a565b838111156146c1576000848401525b50505050565b6001600160a01b038116811461169457600080fdfe456e756d657261626c655365743a20696e646578206f7574206f6620626f756e6473416363657373436f6e74726f6c3a2073656e646572206d75737420626520616e2061646d696e20746f206772616e7453746f726167655374617465436f6d6d69747465653a206e6f742061206d656d62657253746f726167655374617465436f6d6d69747465653a20756e76616c6964204c61796572325265676973747279416363657373436f6e74726f6c3a2073656e646572206d75737420626520616e2061646d696e20746f207265766f6b65663b98adf1afa777e36528b3293a057803f87ed00d2d2518dccfe5d7a6e99ccf536166654d6174683a206d756c7469706c69636174696f6e206f766572666c6f7753746f726167655374617465436f6d6d69747465653a204167656e64614d616e61676572206973207a65726f53746f726167655374617465436f6d6d69747465653a20756e76616c696420436f6d6d69747465654c32466163746f727953746f726167655374617465436f6d6d69747465653a20756e76616c696420536569674d616e6167657265416363657373436f6e74726f6c3a2063616e206f6e6c792072656e6f756e636520726f6c657320666f722073656c66a2646970667358221220243c27a2c96bc74a3c57530eabef5d497fa8da698253f2a0cd653c1ae2edf79a64736f6c63430007060033",
  "immutableReferences": {},
  "source": "// SPDX-License-Identifier: MIT\npragma solidity ^0.7.6;\npragma abicoder v2;\n\n//import \"../../node_modules/@openzeppelin/contracts/access/Ownable.sol\";\nimport \"../../node_modules/@openzeppelin/contracts/access/AccessControl.sol\";\nimport \"./StorageStateCommittee.sol\";\n\nimport { SafeMath } from \"../../node_modules/@openzeppelin/contracts/math/SafeMath.sol\";\nimport { IERC20 } from  \"../../node_modules/@openzeppelin/contracts/token/ERC20/IERC20.sol\";\nimport { ICandidate } from \"../interfaces/ICandidate.sol\";\nimport { IDAOAgendaManager } from \"../interfaces/IDAOAgendaManager.sol\";\nimport { LibAgenda } from \"../lib/Agenda.sol\";\nimport { ERC165Checker } from \"../../node_modules/@openzeppelin/contracts/introspection/ERC165Checker.sol\";\n\ncontract DAOCommittee is StorageStateCommittee, AccessControl {\n    using SafeMath for uint256;\n    using LibAgenda for *;\n     \n    enum ApplyResult { NONE, SUCCESS, NOT_ELECTION, ALREADY_COMMITTEE, SLOT_INVALID, ADDMEMBER_FAIL, LOW_BALANCE }\n\n    struct AgendaCreatingData {\n        address[] target;\n        uint256 noticePeriodSeconds;\n        uint256 votingPeriodSeconds;\n        bytes[] functionBytecode;\n    }\n\n    //////////////////////////////\n    // Events\n    //////////////////////////////\n\n    event AgendaCreated(\n        address indexed from,\n        uint256 indexed id,\n        address[] targets,\n        uint256 noticePeriodSeconds,\n        uint256 votingPeriodSeconds\n    );\n\n    event AgendaVoteCasted(\n        address indexed from,\n        uint256 indexed id,\n        uint voting,\n        string comment\n    );\n\n    event AgendaExecuted(\n        uint256 indexed id,\n        address[] target\n    );\n\n    event CandidateContractCreated(\n        address indexed candidate,\n        address indexed candidateContract,\n        string memo\n    );\n\n    event OperatorRegistered(\n        address indexed candidate,\n        address indexed candidateContract,\n        string memo\n    );\n\n    event ChangedMember(\n        uint256 indexed slotIndex,\n        address prevMember,\n        address indexed newMember\n    );\n\n    event ChangedSlotMaximum(\n        uint256 indexed prevSlotMax,\n        uint256 indexed slotMax\n    );\n\n    event ClaimedActivityReward(\n        address indexed candidate,\n        uint256 amount\n    );\n\n    modifier onlyOwner() {\n        require(hasRole(DEFAULT_ADMIN_ROLE, msg.sender), \"DAOCommitteeProxy: msg.sender is not an admin\");\n        _;\n    }\n\n    //////////////////////////////////////////////////////////////////////\n    // setters\n\n    function setSeigManager(address _agendaManager) public onlyOwner {\n        require(_agendaManager != address(0), \"zero address\");\n        seigManager = ISeigManager(_agendaManager);\n    }\n     \n    function setDaoVault(address _daoVault) public onlyOwner {\n        require(_daoVault != address(0), \"zero address\");\n        daoVault = IDAOVault2(_daoVault);\n    }\n\n    function setLayer2Registry(address _layer2Registry) public onlyOwner {\n        require(_layer2Registry != address(0), \"zero address\");\n        layer2Registry = ILayer2Registry(_layer2Registry);\n    }\n\n    function setAgendaManager(address _agendaManager) public onlyOwner {\n        require(_agendaManager != address(0), \"zero address\");\n        agendaManager = IDAOAgendaManager(_agendaManager);\n    }\n\n    function setCandidateFactory(address _candidateFactory) public onlyOwner {\n        require(_candidateFactory != address(0), \"zero address\");\n        candidateFactory = ICandidateFactory(_candidateFactory);\n    }\n\n    function setTon(address _ton) public onlyOwner {\n        require(_ton != address(0), \"zero address\");\n        ton = _ton;\n    }\n\n    function setActivityRewardPerSecond(uint256 _value) public onlyOwner {\n        activityRewardPerSecond = _value;\n    }\n\n    function setMaxMember(uint256 _maxMember) onlyOwner public {\n        require(maxMember < _maxMember, \"DAOCommitteeStore: You have to call reduceMemberSlot to decrease\");\n        maxMember = _maxMember;\n        fillMemberSlot();\n    }\n\n    //////////////////////////////////////////////////////////////////////\n    // Managing members\n\n    function createCandidate(string memory _memo)\n        public\n        validSeigManager\n        validLayer2Registry\n        validCommitteeL2Factory\n    {\n        require(!isExistCandidate(msg.sender), \"DAOCommittee: candidate already registerd\");\n\n        //uint256 minimumAmount = seigManager.minimumAmount();\n        //require(minimumAmount <= tonAmount, \"DAOCommittee: not enough ton\");\n          \n        // Candidate\n        address candidateContract = candidateFactory.deploy(msg.sender, _memo, address(seigManager), address(layer2Registry));\n        require(\n            candidateContract != address(0),\n            \"DAOCommittee: deployed candidateContract is zero\"\n        );\n        require(\n            layer2Registry.registerAndDeployCoinage(candidateContract, address(seigManager)),\n            \"DAOCommittee: failed to registerAndDeployCoinage\"\n        );\n        require(\n            candidateInfos[msg.sender].candidateContract == address(0),\n            \"DAOCommitteeStore: The candidate already has contract\"\n        );\n\n        candidateInfos[msg.sender] = CandidateInfo({\n            candidateContract: candidateContract,\n            memberJoinedTime: 0,\n            indexMembers: 0,\n            rewardPeriod: 0,\n            claimedTimestamp: 0\n        });\n\n        candidates.push(msg.sender);\n       \n        emit CandidateContractCreated(msg.sender, candidateContract, _memo);\n    }\n\n    function registerOperator(address _contractAddress, string memory _memo)\n        public\n        validSeigManager\n        validLayer2Registry\n        validCommitteeL2Factory\n    {\n        _registerOperator(msg.sender, _contractAddress, _memo);\n    }\n\n    function registerOperatorByOwner(address _operator, address _contractAddress, string memory _memo)\n        public\n        onlyOwner\n        validSeigManager\n        validLayer2Registry\n        validCommitteeL2Factory\n    {\n        _registerOperator(_operator, _contractAddress, _memo);\n    }\n\n    function changeMember(uint256 _memberIndex)\n        public\n        returns (bool)\n    {\n        CandidateInfo storage candidateInfo = candidateInfos[msg.sender];\n        require(\n            _memberIndex < maxMember,\n            \"DAOCommitteeStore: index is not available\"\n        );\n        require(\n            candidateInfo.candidateContract != address(0),\n            \"DAOCommitteeStore: The address is not a candidate\"\n        );\n        require(\n            candidateInfo.memberJoinedTime == 0,\n            \"DAOCommitteeStore: already member\"\n        );\n        \n        address prevMember = members[_memberIndex];\n\n        candidateInfo.memberJoinedTime = block.timestamp;\n        candidateInfo.indexMembers = _memberIndex;\n\n        members[_memberIndex] = msg.sender;\n\n        if (prevMember == address(0)) {\n            emit ChangedMember(_memberIndex, prevMember, msg.sender);\n            return true;\n        }\n\n        require(\n            totalSupplyOnCandidate(msg.sender) > totalSupplyOnCandidate(prevMember),\n            \"not enough amount\"\n        );\n\n        CandidateInfo storage prevCandidate = candidateInfos[prevMember];\n        prevCandidate.indexMembers = 0;\n        prevCandidate.rewardPeriod = prevCandidate.rewardPeriod.add(block.timestamp.sub(prevCandidate.memberJoinedTime));\n        prevCandidate.memberJoinedTime = 0;\n\n        emit ChangedMember(_memberIndex, prevMember, msg.sender);\n\n        return true;\n    }\n    \n    function retireMember() onlyMember(msg.sender) public returns (bool) {\n        CandidateInfo storage candidateInfo = candidateInfos[msg.sender];\n        members[candidateInfo.indexMembers] = address(0);\n        candidateInfo.rewardPeriod = candidateInfo.rewardPeriod.add(block.timestamp.sub(candidateInfo.memberJoinedTime));\n        candidateInfo.memberJoinedTime = 0;\n\n        emit ChangedMember(candidateInfo.indexMembers, msg.sender, address(0));\n\n        candidateInfo.indexMembers = 0;\n    }\n\n    function reduceMemberSlot(uint256 _reducingMemberIndex) public onlyOwner {\n        address reducingMember = members[_reducingMemberIndex];\n        CandidateInfo storage reducingCandidate = candidateInfos[reducingMember];\n\n        if (_reducingMemberIndex != members.length - 1) {\n            address tailmember = members[members.length - 1];\n            CandidateInfo storage tailCandidate = candidateInfos[tailmember];\n\n            tailCandidate.indexMembers = _reducingMemberIndex;\n            members[_reducingMemberIndex] = tailmember;\n        }\n        reducingCandidate.indexMembers = 0;\n        reducingCandidate.rewardPeriod = reducingCandidate.rewardPeriod.add(block.timestamp.sub(reducingCandidate.memberJoinedTime));\n        reducingCandidate.memberJoinedTime = 0;\n\n        members.pop();\n        maxMember = maxMember.sub(1);\n\n        emit ChangedMember(_reducingMemberIndex, reducingMember, address(0));\n        emit ChangedSlotMaximum(maxMember.add(1), maxMember);\n    }\n\n    //////////////////////////////////////////////////////////////////////\n    // Managing agenda\n\n    function onApprove(\n        address owner,\n        address spender,\n        uint256 tonAmount,\n        bytes calldata data\n    ) external returns (bool) {\n        AgendaCreatingData memory agendaData = _decodeAgendaData(data);\n\n        _createAgenda(\n            owner,\n            agendaData.target,\n            agendaData.noticePeriodSeconds,\n            agendaData.votingPeriodSeconds,\n            agendaData.functionBytecode\n        );\n\n        return true;\n    }\n\n    function setQuorum(\n        uint256 _quorumNumerator,\n        uint256 _quorumDenominator\n    )\n        public\n        onlyOwner\n        validAgendaManager\n    {\n        agendaManager.setQuorum(_quorumNumerator, _quorumDenominator);\n    }\n\n    function setCreateAgendaFees(\n        uint256 _fees\n    )\n        public\n        onlyOwner\n        validAgendaManager\n    {\n        agendaManager.setCreateAgendaFees(_fees);\n    }\n\n    function setMinimunNoticePeriodSeconds(\n        uint256 _minimunNoticePeriod\n    )\n        public\n        onlyOwner\n        validAgendaManager\n    {\n        agendaManager.setMinimunNoticePeriodSeconds(_minimunNoticePeriod);\n    }\n\n    function setMinimunVotingPeriodSeconds(\n        uint256 _minimunVotingPeriod\n    )\n        public\n        onlyOwner\n        validAgendaManager\n    {\n        agendaManager.setMinimunVotingPeriodSeconds(_minimunVotingPeriod);\n    }\n\n    function castVote(\n        uint256 _agendaID,\n        uint _vote,\n        string calldata _comment\n    )\n        public \n        validAgendaManager\n    {\n        uint256 requiredVotes = requiredVotesToPass();\n        require(requiredVotes > 0, \"DAOCommittee: requiredVotes is zero\");\n        \n        agendaManager.castVote(\n            _agendaID,\n            msg.sender,\n            _vote\n        );\n\n        (uint256 yes, uint256 no, uint256 abstain) = agendaManager.getVotingCount(_agendaID);\n\n        if (requiredVotes <= yes) {\n            // yes\n            agendaManager.setResult(_agendaID, LibAgenda.AgendaResult.ACCEPT);\n            agendaManager.setStatus(_agendaID, LibAgenda.AgendaStatus.WAITING_EXEC);\n        } else if (requiredVotes <= no) {\n            // no\n            agendaManager.setResult(_agendaID, LibAgenda.AgendaResult.REJECT);\n            agendaManager.setStatus(_agendaID, LibAgenda.AgendaStatus.ENDED);\n        } else if (requiredVotes <= abstain.add(no) ) {\n            // dismiss\n            agendaManager.setResult(_agendaID, LibAgenda.AgendaResult.DISMISS);\n            agendaManager.setStatus(_agendaID, LibAgenda.AgendaStatus.ENDED);\n        }\n        \n        emit AgendaVoteCasted(msg.sender, _agendaID, _vote, _comment);\n    }\n\n    function endAgendaVoting(uint256 _agendaID) public {\n        agendaManager.endAgendaVoting(_agendaID);\n    }\n\n    function executeAgenda(uint256 _agendaID) public validAgendaManager {\n        require(\n            agendaManager.canExecuteAgenda(_agendaID),\n            \"DAOCommittee: can not execute the agenda\"\n        );\n        \n        (address[] memory target, bytes[] memory functionBytecode) = agendaManager.getExecutionInfo(_agendaID);\n       \n        for (uint256 i = 0; i < target.length; i++) {\n            (bool success, ) = address(target[i]).call(functionBytecode[i]);\n            require(success, \"DAOCommittee: Failed to execute the agenda\");\n        }\n\n        agendaManager.setExecutedAgenda(_agendaID);\n\n        emit AgendaExecuted(_agendaID, target);\n    }\n\n    function setAgendaStatus(uint256 _agendaID, uint256 _status, uint256 _result) public onlyOwner {\n        agendaManager.setResult(_agendaID, LibAgenda.AgendaResult(_result));\n        agendaManager.setStatus(_agendaID, LibAgenda.AgendaStatus(_status));\n    }\n     \n    function updateSeigniorage(address _candidate) public returns (bool) {\n        address candidateContract = candidateInfos[_candidate].candidateContract;\n        require(candidateContract != address(0), \"DAOCommittee: not a candidate\");\n        require(\n            ERC165Checker.supportsInterface(\n                candidateContract,\n                ICandidate(candidateContract).isCandidateContract.selector\n            ),\n            \"DAOCommittee: the contract doesn't support updateSeigniorage\"\n        );\n        require(\n            ICandidate(candidateContract).isCandidateContract(),\n            \"DAOCommittee: not a candidate contract\"\n        );\n\n        ICandidate(candidateContract).updateSeigniorage();\n    }\n\n    function updateSeigniorages(address[] calldata _candidates) public returns (bool) {\n        for (uint256 i = 0; i < _candidates.length; i++) {\n            updateSeigniorage(_candidates[i]);\n        }\n    }\n\n    function claimActivityReward() public {\n        CandidateInfo storage info = candidateInfos[msg.sender];\n        uint256 amount = getClaimableActivityReward(msg.sender);\n\n        require(amount > 0, \"DAOCommittee: you don't have claimable ton\");\n\n        daoVault.claimTON(msg.sender, amount);\n        info.claimedTimestamp = block.timestamp;\n        info.rewardPeriod = 0;\n\n        emit ClaimedActivityReward(msg.sender, amount);\n    }\n\n    function _registerOperator(address _operator, address _contractAddress, string memory _memo)\n        internal\n        validSeigManager\n        validLayer2Registry\n        validCommitteeL2Factory\n    {\n        require(!isExistCandidate(_operator), \"DAOCommittee: candidate already registerd\");\n\n        require(\n            _contractAddress != address(0),\n            \"DAOCommittee: deployed candidateContract is zero\"\n        );\n        require(\n            candidateInfos[_operator].candidateContract == address(0),\n            \"DAOCommitteeStore: The candidate already has contract\"\n        );\n\n        candidateInfos[_operator] = CandidateInfo({\n            candidateContract: _contractAddress,\n            memberJoinedTime: 0,\n            indexMembers: 0,\n            rewardPeriod: 0,\n            claimedTimestamp: 0\n        });\n\n        candidates.push(_operator);\n       \n        emit OperatorRegistered(_operator, _contractAddress, _memo);\n    }\n\n    function fillMemberSlot() internal {\n        for (uint256 i = members.length; i < maxMember; i++) {\n            members.push(address(0));\n        }\n    }\n\n    function _decodeAgendaData(bytes calldata input)\n        internal\n        view\n        returns (AgendaCreatingData memory data)\n    {\n        (data.target, data.noticePeriodSeconds, data.votingPeriodSeconds, data.functionBytecode) = \n            abi.decode(input, (address[], uint256, uint256, bytes[]));\n    }\n\n    function payCreatingAgendaFee(address _creator) internal {\n        uint256 fee = agendaManager.createAgendaFees();\n\n        require(IERC20(ton).transferFrom(_creator, address(this), fee), \"DAOCommitteeStore: failed to transfer ton from creator\");\n        require(IERC20(ton).transfer(address(1), fee), \"DAOCommitteeStore: failed to burn\");\n    }\n   \n    function _createAgenda(\n        address _creator,\n        address[] memory _targets,\n        uint256 _noticePeriodSeconds,\n        uint256 _votingPeriodSeconds,\n        bytes[] memory _functionBytecodes\n    )\n        internal\n        validAgendaManager\n        returns (uint256)\n    {\n        // pay to create agenda, burn ton.\n        payCreatingAgendaFee(_creator);\n\n        uint256 agendaID = agendaManager.newAgenda(\n            _targets,\n            _noticePeriodSeconds,\n            _votingPeriodSeconds,\n            0,\n            _functionBytecodes\n        );\n          \n        emit AgendaCreated(\n            _creator,\n            agendaID,\n            _targets,\n            _noticePeriodSeconds,\n            _votingPeriodSeconds\n        );\n\n        return agendaID;\n    }\n\n    function isCandidate(address _candidate) public view returns (bool) {\n        CandidateInfo storage info = candidateInfos[_candidate];\n\n        if (info.candidateContract == address(0)) {\n            return false;\n        }\n\n        bool supportIsCandidateContract = ERC165Checker.supportsInterface(\n            info.candidateContract,\n            ICandidate(info.candidateContract).isCandidateContract.selector\n        );\n\n        if (supportIsCandidateContract == false) {\n            return false;\n        }\n\n        return ICandidate(info.candidateContract).isCandidateContract();\n    }\n    \n    function requiredVotesToPass()\n        public\n        view\n        returns (uint256 requiredVotes)\n    {\n        IDAOAgendaManager.Ratio memory quorum = agendaManager.quorum();\n        uint256 total = members.length;\n        requiredVotes = total.mul(quorum.numerator).div(quorum.denominator);\n    }\n    \n    function totalSupplyOnCandidate(\n        address _candidate\n    )\n        public\n        view\n        returns (uint256 totalsupply)\n    {\n        address candidateContract = candidateContract(_candidate);\n        return totalSupplyOnCandidateContract(candidateContract);\n    }\n\n    function balanceOfOnCandidate(\n        address _candidate,\n        address _account\n    )\n        public\n        view\n        returns (uint256 amount)\n    {\n        address candidateContract = candidateContract(_candidate);\n        return balanceOfOnCandidateContract(candidateContract, _account);\n    }\n    \n    function totalSupplyOnCandidateContract(\n        address _candidateContract\n    )\n        public\n        view\n        returns (uint256 totalsupply)\n    {\n        require(_candidateContract != address(0), \"This account is not a candidate\");\n\n        address coinage = seigManager.coinages(_candidateContract);\n        require(coinage != address(0), \"DAOCommittee: coinage is zero\");\n        return IERC20(coinage).totalSupply();\n    }\n\n    function balanceOfOnCandidateContract(\n        address _candidateContract,\n        address _account\n    )\n        public\n        view\n        returns (uint256 amount)\n    {\n        require(_candidateContract != address(0), \"This account is not a candidate\");\n\n        address coinage = seigManager.coinages(_candidateContract);\n        require(coinage != address(0), \"DAOCommittee: coinage is zero\");\n        return IERC20(coinage).balanceOf(_account);\n    }\n\n    function candidatesLength() public view returns (uint256) {\n        return candidates.length;\n    }\n\n    function isExistCandidate(address _candidate) public view returns (bool isExist) {\n        return candidateInfos[_candidate].candidateContract != address(0);\n    }\n\n    function getClaimableActivityReward(address _candidate) public view returns (uint256) {\n        CandidateInfo storage info = candidateInfos[_candidate];\n        uint256 period = info.rewardPeriod;\n\n        if (info.memberJoinedTime > 0) {\n            if (info.memberJoinedTime > info.claimedTimestamp) {\n                period = period.add(block.timestamp.sub(info.memberJoinedTime));\n            } else {\n                period = period.add(block.timestamp.sub(info.claimedTimestamp));\n            }\n        }\n\n        return period.mul(activityRewardPerSecond);\n    }\n}\n",
  "sourcePath": "/data/github/onther/tokamak-dao-contracts3/contracts/dao/DAOCommittee.sol",
  "compiler": {
    "name": "solc",
    "version": "0.7.6+commit.7338295f.Emscripten.clang"
  },
  "schemaVersion": "3.3.2",
  "updatedAt": "2021-01-19T05:03:47.626Z",
  "networkType": "ethereum",
  "devdoc": {
    "kind": "dev",
    "methods": {
      "getRoleAdmin(bytes32)": {
        "details": "Returns the admin role that controls `role`. See {grantRole} and {revokeRole}. To change a role's admin, use {_setRoleAdmin}."
      },
      "getRoleMember(bytes32,uint256)": {
        "details": "Returns one of the accounts that have `role`. `index` must be a value between 0 and {getRoleMemberCount}, non-inclusive. Role bearers are not sorted in any particular way, and their ordering may change at any point. WARNING: When using {getRoleMember} and {getRoleMemberCount}, make sure you perform all queries on the same block. See the following https://forum.openzeppelin.com/t/iterating-over-elements-on-enumerableset-in-openzeppelin-contracts/2296[forum post] for more information."
      },
      "getRoleMemberCount(bytes32)": {
        "details": "Returns the number of accounts that have `role`. Can be used together with {getRoleMember} to enumerate all bearers of a role."
      },
      "grantRole(bytes32,address)": {
        "details": "Grants `role` to `account`. If `account` had not been already granted `role`, emits a {RoleGranted} event. Requirements: - the caller must have ``role``'s admin role."
      },
      "hasRole(bytes32,address)": {
        "details": "Returns `true` if `account` has been granted `role`."
      },
      "renounceRole(bytes32,address)": {
        "details": "Revokes `role` from the calling account. Roles are often managed via {grantRole} and {revokeRole}: this function's purpose is to provide a mechanism for accounts to lose their privileges if they are compromised (such as when a trusted device is misplaced). If the calling account had been granted `role`, emits a {RoleRevoked} event. Requirements: - the caller must be `account`."
      },
      "revokeRole(bytes32,address)": {
        "details": "Revokes `role` from `account`. If `account` had been granted `role`, emits a {RoleRevoked} event. Requirements: - the caller must have ``role``'s admin role."
      }
    },
    "version": 1
  },
  "userdoc": {
    "kind": "user",
    "methods": {},
    "version": 1
  }
}