{
  "contractName": "DAOCommittee",
  "abi": [
    {
      "anonymous": false,
      "inputs": [
        {
          "indexed": true,
          "internalType": "uint256",
          "name": "timestamp",
          "type": "uint256"
        },
        {
          "indexed": true,
          "internalType": "address",
          "name": "from",
          "type": "address"
        },
        {
          "indexed": true,
          "internalType": "uint256",
          "name": "id",
          "type": "uint256"
        },
        {
          "indexed": false,
          "internalType": "address",
          "name": "target",
          "type": "address"
        },
        {
          "indexed": false,
          "internalType": "uint256",
          "name": "noticeEndTimestamp",
          "type": "uint256"
        }
      ],
      "name": "AgendaCreated",
      "type": "event"
    },
    {
      "anonymous": false,
      "inputs": [
        {
          "indexed": true,
          "internalType": "uint256",
          "name": "timestamp",
          "type": "uint256"
        },
        {
          "indexed": true,
          "internalType": "address",
          "name": "from",
          "type": "address"
        },
        {
          "indexed": true,
          "internalType": "uint256",
          "name": "id",
          "type": "uint256"
        },
        {
          "indexed": false,
          "internalType": "address",
          "name": "target",
          "type": "address"
        },
        {
          "indexed": false,
          "internalType": "bytes",
          "name": "functionBytecode",
          "type": "bytes"
        }
      ],
      "name": "AgendaExecuted",
      "type": "event"
    },
    {
      "anonymous": false,
      "inputs": [
        {
          "indexed": true,
          "internalType": "uint256",
          "name": "timestamp",
          "type": "uint256"
        },
        {
          "indexed": true,
          "internalType": "address",
          "name": "from",
          "type": "address"
        },
        {
          "indexed": true,
          "internalType": "uint256",
          "name": "id",
          "type": "uint256"
        },
        {
          "indexed": false,
          "internalType": "uint256",
          "name": "voting",
          "type": "uint256"
        },
        {
          "indexed": false,
          "internalType": "string",
          "name": "comment",
          "type": "string"
        }
      ],
      "name": "AgendaVoteCasted",
      "type": "event"
    },
    {
      "anonymous": false,
      "inputs": [
        {
          "indexed": true,
          "internalType": "address",
          "name": "from",
          "type": "address"
        },
        {
          "indexed": false,
          "internalType": "address",
          "name": "member",
          "type": "address"
        },
        {
          "indexed": false,
          "internalType": "uint256",
          "name": "totalbalance",
          "type": "uint256"
        },
        {
          "indexed": false,
          "internalType": "uint256",
          "name": "memberIndex",
          "type": "uint256"
        }
      ],
      "name": "ApplyMemberSuccess",
      "type": "event"
    },
    {
      "anonymous": false,
      "inputs": [
        {
          "indexed": true,
          "internalType": "address",
          "name": "candidate",
          "type": "address"
        },
        {
          "indexed": false,
          "internalType": "address",
          "name": "candidateContract",
          "type": "address"
        },
        {
          "indexed": false,
          "internalType": "string",
          "name": "memo",
          "type": "string"
        }
      ],
      "name": "CandidateContractCreated",
      "type": "event"
    },
    {
      "anonymous": false,
      "inputs": [
        {
          "indexed": true,
          "internalType": "uint256",
          "name": "slotIndex",
          "type": "uint256"
        },
        {
          "indexed": true,
          "internalType": "address",
          "name": "prevMember",
          "type": "address"
        },
        {
          "indexed": true,
          "internalType": "address",
          "name": "newMember",
          "type": "address"
        }
      ],
      "name": "ChangedMember",
      "type": "event"
    },
    {
      "anonymous": false,
      "inputs": [
        {
          "indexed": true,
          "internalType": "uint256",
          "name": "prevSlotMax",
          "type": "uint256"
        },
        {
          "indexed": true,
          "internalType": "uint256",
          "name": "slotMax",
          "type": "uint256"
        }
      ],
      "name": "ChangedSlotMaximum",
      "type": "event"
    },
    {
      "anonymous": false,
      "inputs": [
        {
          "indexed": true,
          "internalType": "address",
          "name": "previousOwner",
          "type": "address"
        },
        {
          "indexed": true,
          "internalType": "address",
          "name": "newOwner",
          "type": "address"
        }
      ],
      "name": "OwnershipTransferred",
      "type": "event"
    },
    {
      "inputs": [],
      "name": "agendaManager",
      "outputs": [
        {
          "internalType": "contract IDAOAgendaManager",
          "name": "",
          "type": "address"
        }
      ],
      "stateMutability": "view",
      "type": "function"
    },
    {
      "inputs": [
        {
          "internalType": "address",
          "name": "_candidate",
          "type": "address"
        }
      ],
      "name": "candidateContract",
      "outputs": [
        {
          "internalType": "address",
          "name": "",
          "type": "address"
        }
      ],
      "stateMutability": "view",
      "type": "function"
    },
    {
      "inputs": [],
      "name": "candidateFactory",
      "outputs": [
        {
          "internalType": "contract ICandidateFactory",
          "name": "",
          "type": "address"
        }
      ],
      "stateMutability": "view",
      "type": "function"
    },
    {
      "inputs": [
        {
          "internalType": "address",
          "name": "",
          "type": "address"
        }
      ],
      "name": "candidateInfos",
      "outputs": [
        {
          "internalType": "address",
          "name": "candidateContract",
          "type": "address"
        },
        {
          "internalType": "uint256",
          "name": "memberJoinedTime",
          "type": "uint256"
        },
        {
          "internalType": "uint256",
          "name": "indexMembers",
          "type": "uint256"
        }
      ],
      "stateMutability": "view",
      "type": "function"
    },
    {
      "inputs": [
        {
          "internalType": "uint256",
          "name": "",
          "type": "uint256"
        }
      ],
      "name": "candidates",
      "outputs": [
        {
          "internalType": "address",
          "name": "",
          "type": "address"
        }
      ],
      "stateMutability": "view",
      "type": "function"
    },
    {
      "inputs": [],
      "name": "daoVault",
      "outputs": [
        {
          "internalType": "address",
          "name": "",
          "type": "address"
        }
      ],
      "stateMutability": "view",
      "type": "function"
    },
    {
      "inputs": [
        {
          "internalType": "address",
          "name": "_candidate",
          "type": "address"
        }
      ],
      "name": "isMember",
      "outputs": [
        {
          "internalType": "bool",
          "name": "",
          "type": "bool"
        }
      ],
      "stateMutability": "view",
      "type": "function"
    },
    {
      "inputs": [],
      "name": "layer2Registry",
      "outputs": [
        {
          "internalType": "contract ILayer2Registry",
          "name": "",
          "type": "address"
        }
      ],
      "stateMutability": "view",
      "type": "function"
    },
    {
      "inputs": [],
      "name": "maxMember",
      "outputs": [
        {
          "internalType": "uint256",
          "name": "",
          "type": "uint256"
        }
      ],
      "stateMutability": "view",
      "type": "function"
    },
    {
      "inputs": [
        {
          "internalType": "uint256",
          "name": "",
          "type": "uint256"
        }
      ],
      "name": "members",
      "outputs": [
        {
          "internalType": "address",
          "name": "",
          "type": "address"
        }
      ],
      "stateMutability": "view",
      "type": "function"
    },
    {
      "inputs": [],
      "name": "owner",
      "outputs": [
        {
          "internalType": "address",
          "name": "",
          "type": "address"
        }
      ],
      "stateMutability": "view",
      "type": "function"
    },
    {
      "inputs": [],
      "name": "renounceOwnership",
      "outputs": [],
      "stateMutability": "nonpayable",
      "type": "function"
    },
    {
      "inputs": [],
      "name": "seigManager",
      "outputs": [
        {
          "internalType": "contract ISeigManager",
          "name": "",
          "type": "address"
        }
      ],
      "stateMutability": "view",
      "type": "function"
    },
    {
      "inputs": [],
      "name": "ton",
      "outputs": [
        {
          "internalType": "address",
          "name": "",
          "type": "address"
        }
      ],
      "stateMutability": "view",
      "type": "function"
    },
    {
      "inputs": [
        {
          "internalType": "address",
          "name": "newOwner",
          "type": "address"
        }
      ],
      "name": "transferOwnership",
      "outputs": [],
      "stateMutability": "nonpayable",
      "type": "function"
    },
    {
      "inputs": [
        {
          "internalType": "address",
          "name": "_agendaManager",
          "type": "address"
        }
      ],
      "name": "setSeigManager",
      "outputs": [],
      "stateMutability": "nonpayable",
      "type": "function"
    },
    {
      "inputs": [
        {
          "internalType": "address",
          "name": "_daoVault",
          "type": "address"
        }
      ],
      "name": "setDaoVault",
      "outputs": [],
      "stateMutability": "nonpayable",
      "type": "function"
    },
    {
      "inputs": [
        {
          "internalType": "address",
          "name": "_layer2Registry",
          "type": "address"
        }
      ],
      "name": "setLayer2Registry",
      "outputs": [],
      "stateMutability": "nonpayable",
      "type": "function"
    },
    {
      "inputs": [
        {
          "internalType": "address",
          "name": "_agendaManager",
          "type": "address"
        }
      ],
      "name": "setAgendaManager",
      "outputs": [],
      "stateMutability": "nonpayable",
      "type": "function"
    },
    {
      "inputs": [
        {
          "internalType": "address",
          "name": "_candidateFactory",
          "type": "address"
        }
      ],
      "name": "setCandidateFactory",
      "outputs": [],
      "stateMutability": "nonpayable",
      "type": "function"
    },
    {
      "inputs": [
        {
          "internalType": "address",
          "name": "_ton",
          "type": "address"
        }
      ],
      "name": "setTon",
      "outputs": [],
      "stateMutability": "nonpayable",
      "type": "function"
    },
    {
      "inputs": [
        {
          "internalType": "uint256",
          "name": "_maxMember",
          "type": "uint256"
        }
      ],
      "name": "setMaxMember",
      "outputs": [],
      "stateMutability": "nonpayable",
      "type": "function"
    },
    {
      "inputs": [
        {
          "internalType": "string",
          "name": "_memo",
          "type": "string"
        }
      ],
      "name": "createCandidate",
      "outputs": [],
      "stateMutability": "nonpayable",
      "type": "function"
    },
    {
      "inputs": [
        {
          "internalType": "uint256",
          "name": "_memberIndex",
          "type": "uint256"
        }
      ],
      "name": "changeMember",
      "outputs": [
        {
          "internalType": "bool",
          "name": "",
          "type": "bool"
        }
      ],
      "stateMutability": "nonpayable",
      "type": "function"
    },
    {
      "inputs": [],
      "name": "retireMember",
      "outputs": [
        {
          "internalType": "bool",
          "name": "",
          "type": "bool"
        }
      ],
      "stateMutability": "nonpayable",
      "type": "function"
    },
    {
      "inputs": [
        {
          "internalType": "uint256",
          "name": "_reducingMemberIndex",
          "type": "uint256"
        }
      ],
      "name": "reduceMemberSlot",
      "outputs": [],
      "stateMutability": "nonpayable",
      "type": "function"
    },
    {
      "inputs": [
        {
          "internalType": "uint256",
          "name": "_minimunNoticePeriod",
          "type": "uint256"
        }
      ],
      "name": "setMinimunNoticePeriodSeconds",
      "outputs": [],
      "stateMutability": "nonpayable",
      "type": "function"
    },
    {
      "inputs": [
        {
          "internalType": "uint256",
          "name": "_minimunVotingPeriod",
          "type": "uint256"
        }
      ],
      "name": "setMinimunVotingPeriodSeconds",
      "outputs": [],
      "stateMutability": "nonpayable",
      "type": "function"
    },
    {
      "inputs": [
        {
          "internalType": "uint256",
          "name": "_quorumNumerator",
          "type": "uint256"
        },
        {
          "internalType": "uint256",
          "name": "_quorumDenominator",
          "type": "uint256"
        }
      ],
      "name": "setQuorum",
      "outputs": [],
      "stateMutability": "nonpayable",
      "type": "function"
    },
    {
      "inputs": [
        {
          "internalType": "uint256",
          "name": "_fees",
          "type": "uint256"
        }
      ],
      "name": "setCreateAgendaFees",
      "outputs": [],
      "stateMutability": "nonpayable",
      "type": "function"
    },
    {
      "inputs": [
        {
          "internalType": "address",
          "name": "_target",
          "type": "address"
        },
        {
          "internalType": "uint256",
          "name": "_noticePeriodSeconds",
          "type": "uint256"
        },
        {
          "internalType": "uint256",
          "name": "_votingPeriodSeconds",
          "type": "uint256"
        },
        {
          "internalType": "bytes",
          "name": "_functionBytecode",
          "type": "bytes"
        }
      ],
      "name": "createAgenda",
      "outputs": [
        {
          "internalType": "uint256",
          "name": "",
          "type": "uint256"
        }
      ],
      "stateMutability": "nonpayable",
      "type": "function"
    },
    {
      "inputs": [
        {
          "internalType": "uint256",
          "name": "_agendaID",
          "type": "uint256"
        },
        {
          "internalType": "uint256",
          "name": "_vote",
          "type": "uint256"
        },
        {
          "internalType": "string",
          "name": "_comment",
          "type": "string"
        }
      ],
      "name": "castVote",
      "outputs": [],
      "stateMutability": "nonpayable",
      "type": "function"
    },
    {
      "inputs": [
        {
          "internalType": "uint256",
          "name": "_agendaID",
          "type": "uint256"
        }
      ],
      "name": "executeAgenda",
      "outputs": [],
      "stateMutability": "nonpayable",
      "type": "function"
    },
    {
      "inputs": [
        {
          "internalType": "address",
          "name": "_candidate",
          "type": "address"
        }
      ],
      "name": "updateSeigniorage",
      "outputs": [
        {
          "internalType": "bool",
          "name": "",
          "type": "bool"
        }
      ],
      "stateMutability": "nonpayable",
      "type": "function"
    },
    {
      "inputs": [
        {
          "internalType": "address[]",
          "name": "_candidates",
          "type": "address[]"
        }
      ],
      "name": "updateSeigniorages",
      "outputs": [
        {
          "internalType": "bool",
          "name": "",
          "type": "bool"
        }
      ],
      "stateMutability": "nonpayable",
      "type": "function"
    },
    {
      "inputs": [],
      "name": "requiredVotesToPass",
      "outputs": [
        {
          "internalType": "uint256",
          "name": "requiredVotes",
          "type": "uint256"
        }
      ],
      "stateMutability": "view",
      "type": "function"
    },
    {
      "inputs": [
        {
          "internalType": "address",
          "name": "_candidate",
          "type": "address"
        }
      ],
      "name": "totalSupplyOnCandidate",
      "outputs": [
        {
          "internalType": "uint256",
          "name": "totalsupply",
          "type": "uint256"
        }
      ],
      "stateMutability": "view",
      "type": "function"
    },
    {
      "inputs": [
        {
          "internalType": "address",
          "name": "_candidate",
          "type": "address"
        },
        {
          "internalType": "address",
          "name": "account",
          "type": "address"
        }
      ],
      "name": "balanceOfOnCandidate",
      "outputs": [
        {
          "internalType": "uint256",
          "name": "amount",
          "type": "uint256"
        }
      ],
      "stateMutability": "view",
      "type": "function"
    },
    {
      "inputs": [],
      "name": "candidatesLength",
      "outputs": [
        {
          "internalType": "uint256",
          "name": "",
          "type": "uint256"
        }
      ],
      "stateMutability": "view",
      "type": "function"
    },
    {
      "inputs": [
        {
          "internalType": "address",
          "name": "_candidate",
          "type": "address"
        }
      ],
      "name": "isExistCandidate",
      "outputs": [
        {
          "internalType": "bool",
          "name": "isExist",
          "type": "bool"
        }
      ],
      "stateMutability": "view",
      "type": "function"
    }
  ],
  "bytecode": "0x608060405234801561001057600080fd5b50600061001b61006e565b600a80546001600160a01b0319166001600160a01b038316908117909155604051919250906000907f8be0079c531659141344cd1fd0a4f28419497f9722a3daafe3b4186f6b6457e0908290a350610072565b3390565b6132d980620000826000396000f3fe608060405234801561001057600080fd5b50600436106102485760003560e01c8063715018a61161013b578063ad6675dc116100b8578063cf2a239c1161007c578063cf2a239c146104ae578063d10d2b50146104b6578063d1f0473f146104c9578063d525f04f146104dc578063f2fde38b146104ef57610248565b8063ad6675dc14610470578063b4f69b6a14610483578063b5dd115814610496578063c4ef9c001461049e578063cc48b947146104a657610248565b806389ea4300116100ff57806389ea4300146104275780638a2214e41461043a5780638da5cb5b1461044d5780639a62f61514610455578063a230c5241461045d57610248565b8063715018a6146103de5780637657f20a146103e6578063773b7f65146103f95780637a3d5468146104015780638287cc521461041457610248565b80634b799db1116101c95780635903bd6c1161018d5780635903bd6c146103955780635daf08ca1461039d5780635fba7a56146103b0578063651d08cd146103c35780636fb7f558146103d657610248565b80634b799db1146103365780634d288fec1461034957806355d1fe161461035c578063561a1dab1461036f57806357f0a8671461038257610248565b806327fd92fd1161021057806327fd92fd146102c65780632af60ff4146102db5780632e011c1e146102ee5780633477ee2e1461031057806349c39f141461032357610248565b806303e3c9ac1461024d578063047f52f21461026b57806311f19e0414610280578063216f486b146102a057806324f99b1e146102b3575b600080fd5b610255610502565b6040516102629190613051565b60405180910390f35b61027e61027936600461270b565b610508565b005b61029361028e3660046129bc565b6105b1565b6040516102629190612c04565b61027e6102ae3660046129bc565b610735565b61027e6102c1366004612a0d565b6109cf565b6102ce610df6565b6040516102629190612afd565b61027e6102e936600461270b565b610e05565b6103016102fc36600461270b565b610ea5565b60405161026293929190612ba3565b6102ce61031e3660046129bc565b610ed0565b61027e61033136600461270b565b610efa565b61027e61034436600461270b565b610f9a565b61027e61035736600461270b565b61103a565b61027e61036a3660046129bc565b6110da565b61029361037d36600461270b565b611163565b610293610390366004612871565b611183565b6102ce6111c3565b6102ce6103ab3660046129bc565b6111d2565b61027e6103be366004612900565b6111e2565b6102ce6103d136600461270b565b611546565b6102ce611564565b61027e611573565b61027e6103f436600461270b565b611615565b6102556116b5565b61027e61040f3660046129ec565b6116bb565b61027e6104223660046129bc565b6117c2565b61029361043536600461270b565b6119a6565b610255610448366004612809565b611a5a565b6102ce611bfe565b610255611c0d565b61029361046b36600461270b565b611cb6565b61025561047e36600461270b565b611cd6565b61027e6104913660046129bc565b611e2c565b6102ce611f30565b610293611f3f565b6102ce612018565b6102ce612027565b61027e6104c43660046129bc565b612036565b61027e6104d73660046129bc565b612105565b6102556104ea366004612743565b6121d4565b61027e6104fd36600461270b565b612338565b60085481565b610510612431565b600a546001600160a01b03908116911614610560576040805162461bcd60e51b815260206004820181905260248201526000805160206131fc833981519152604482015290519081900360640190fd5b6001600160a01b03811661058f5760405162461bcd60e51b815260040161058690612ecd565b60405180910390fd5b600380546001600160a01b0319166001600160a01b0392909216919091179055565b33600090815260096020526040812060085483106105e15760405162461bcd60e51b815260040161058690612c71565b80546001600160a01b03166106085760405162461bcd60e51b815260040161058690612ef3565b60018101541561062a5760405162461bcd60e51b815260040161058690612e8c565b60006007848154811061063957fe5b60009182526020909120015442600184015560028301859055600780546001600160a01b03909216925033918690811061066f57fe5b600091825260209091200180546001600160a01b0319166001600160a01b0392831617905581166106a557600192505050610730565b6106ae81611cd6565b6106b733611cd6565b116106d45760405162461bcd60e51b815260040161058690612c0f565b6001600160a01b0381166000818152600960205260408082206001810183905560028101839055905190923392909188917f663b98adf1afa777e36528b3293a057803f87ed00d2d2518dccfe5d7a6e99ccf91a4600193505050505b919050565b6002546001600160a01b031661077c5760405162461bcd60e51b815260040180806020018281038252602c81526020018061321c602c913960400191505060405180910390fd5b6002546040516377f28d5b60e01b81526001600160a01b03909116906377f28d5b906107ac908490600401613051565b60206040518083038186803b1580156107c457600080fd5b505afa1580156107d8573d6000803e3d6000fd5b505050506040513d601f19601f820116820180604052508101906107fc91906128e0565b6108185760405162461bcd60e51b815260040161058690612df4565b6002546040516373ba374560e01b815260009182916001600160a01b03909116906373ba37459061084d908690600401613051565b60006040518083038186803b15801561086557600080fd5b505afa158015610879573d6000803e3d6000fd5b505050506040513d6000823e601f3d908101601f191682016040526108a1919081019061277b565b915091506000826001600160a01b0316826040516108bf9190612ae1565b6000604051808303816000865af19150503d80600081146108fc576040519150601f19603f3d011682016040523d82523d6000602084013e610901565b606091505b50509050806109225760405162461bcd60e51b815260040161058690612fc4565b600254604051631b8c251960e11b81526001600160a01b03909116906337184a3290610952908790600401613051565b600060405180830381600087803b15801561096c57600080fd5b505af1158015610980573d6000803e3d6000fd5b5050505083336001600160a01b0316427f72c224df7019ab0839b67a72588e8b5cd160a04a24758e41ca62f19e6a37a01186866040516109c1929190612b66565b60405180910390a450505050565b6002546001600160a01b0316610a165760405162461bcd60e51b815260040180806020018281038252602c81526020018061321c602c913960400191505060405180910390fd5b6000610a20611c0d565b905060008111610a425760405162461bcd60e51b81526004016105869061300e565b600254604051637e77eb2360e01b81526001600160a01b0390911690637e77eb2390610a769088903390899060040161305a565b602060405180830381600087803b158015610a9057600080fd5b505af1158015610aa4573d6000803e3d6000fd5b505050506040513d601f19601f82011682018060405250810190610ac891906128e0565b50600254604051635772521560e11b8152600091829182916001600160a01b03169063aee4a42a90610afe908b90600401613051565b60606040518083038186803b158015610b1657600080fd5b505afa158015610b2a573d6000803e3d6000fd5b505050506040513d601f19601f82011682018060405250810190610b4e9190612a5e565b92509250925082841015610c2b57600254604051632b0a851b60e11b81526001600160a01b03909116906356150a3690610b8f908b90600190600401613079565b600060405180830381600087803b158015610ba957600080fd5b505af1158015610bbd573d6000803e3d6000fd5b5050600254604051633625b75960e21b81526001600160a01b03909116925063d896dd649150610bf4908b90600390600401613097565b600060405180830381600087803b158015610c0e57600080fd5b505af1158015610c22573d6000803e3d6000fd5b50505050610da5565b81841015610cc95760028054604051632b0a851b60e11b81526001600160a01b03909116916356150a3691610c64918c91600401613079565b600060405180830381600087803b158015610c7e57600080fd5b505af1158015610c92573d6000803e3d6000fd5b5050600254604051633625b75960e21b81526001600160a01b03909116925063d896dd649150610bf4908b90600590600401613097565b610cd38183612435565b841015610da557600254604051632b0a851b60e11b81526001600160a01b03909116906356150a3690610d0d908b90600390600401613079565b600060405180830381600087803b158015610d2757600080fd5b505af1158015610d3b573d6000803e3d6000fd5b5050600254604051633625b75960e21b81526001600160a01b03909116925063d896dd649150610d72908b90600590600401613097565b600060405180830381600087803b158015610d8c57600080fd5b505af1158015610da0573d6000803e3d6000fd5b505050505b87336001600160a01b0316427fd70d4d91a62d317effda35c69966493e9eda120acb023f6e351eff4302f9c7d78a8a8a604051610de4939291906130a8565b60405180910390a45050505050505050565b6002546001600160a01b031681565b610e0d612431565b600a546001600160a01b03908116911614610e5d576040805162461bcd60e51b815260206004820181905260248201526000805160206131fc833981519152604482015290519081900360640190fd5b6001600160a01b038116610e835760405162461bcd60e51b815260040161058690612ecd565b600480546001600160a01b0319166001600160a01b0392909216919091179055565b6009602052600090815260409020805460018201546002909201546001600160a01b03909116919083565b60068181548110610ee057600080fd5b6000918252602090912001546001600160a01b0316905081565b610f02612431565b600a546001600160a01b03908116911614610f52576040805162461bcd60e51b815260206004820181905260248201526000805160206131fc833981519152604482015290519081900360640190fd5b6001600160a01b038116610f785760405162461bcd60e51b815260040161058690612ecd565b600280546001600160a01b0319166001600160a01b0392909216919091179055565b610fa2612431565b600a546001600160a01b03908116911614610ff2576040805162461bcd60e51b815260206004820181905260248201526000805160206131fc833981519152604482015290519081900360640190fd5b6001600160a01b0381166110185760405162461bcd60e51b815260040161058690612ecd565b600180546001600160a01b0319166001600160a01b0392909216919091179055565b611042612431565b600a546001600160a01b03908116911614611092576040805162461bcd60e51b815260206004820181905260248201526000805160206131fc833981519152604482015290519081900360640190fd5b6001600160a01b0381166110b85760405162461bcd60e51b815260040161058690612ecd565b600080546001600160a01b0319166001600160a01b0392909216919091179055565b6110e2612431565b600a546001600160a01b03908116911614611132576040805162461bcd60e51b815260206004820181905260248201526000805160206131fc833981519152604482015290519081900360640190fd5b80600854106111535760405162461bcd60e51b815260040161058690612cba565b6008819055611160612496565b50565b6001600160a01b0390811660009081526009602052604090205416151590565b6000805b828110156111bc576111b384848381811061119e57fe5b9050602002016020810190610435919061270b565b50600101611187565b5092915050565b6001546001600160a01b031681565b60078181548110610ee057600080fd5b6005546001600160a01b03166112295760405162461bcd60e51b815260040180806020018281038252602b815260200180613279602b913960400191505060405180910390fd5b6004546001600160a01b03166112705760405162461bcd60e51b815260040180806020018281038252602d8152602001806131ae602d913960400191505060405180910390fd5b6003546001600160a01b03166112b75760405162461bcd60e51b81526004018080602001828103825260318152602001806132486031913960400191505060405180910390fd5b6112c033611163565b156112dd5760405162461bcd60e51b815260040161058690612f44565b600354600554600480546040516337d5af5f60e01b81526000946001600160a01b03908116946337d5af5f9461131f9433948a94938416939091169101612b11565b602060405180830381600087803b15801561133957600080fd5b505af115801561134d573d6000803e3d6000fd5b505050506040513d601f19601f820116820180604052508101906113719190612727565b90506001600160a01b0381166113995760405162461bcd60e51b815260040161058690612da4565b60048054600554604051635e58d38f60e11b81526001600160a01b039283169363bcb1a71e936113ce93879391169101612b4c565b602060405180830381600087803b1580156113e857600080fd5b505af11580156113fc573d6000803e3d6000fd5b505050506040513d601f19601f8201168201806040525081019061142091906128e0565b61143c5760405162461bcd60e51b815260040161058690612e3c565b336000908152600960205260409020546001600160a01b0316156114725760405162461bcd60e51b815260040161058690612d18565b604080516060810182526001600160a01b038084168252600060208084018281528486018381523380855260099093528684209551865495166001600160a01b0319958616178655905160018087019190915590516002909501949094556006805494850181559091527ff652222313e28459528d920b65115c16c04f3efc82aaedc97be59f3f377c0d3f90920180549091168217905590517f7cf8db18d9a5c7f44156bfabdbb59ac982a8a004e461ca1b87ee71a5cdfbc5ef9061153a9084908690612b66565b60405180910390a25050565b6001600160a01b039081166000908152600960205260409020541690565b6005546001600160a01b031681565b61157b612431565b600a546001600160a01b039081169116146115cb576040805162461bcd60e51b815260206004820181905260248201526000805160206131fc833981519152604482015290519081900360640190fd5b600a546040516000916001600160a01b0316907f8be0079c531659141344cd1fd0a4f28419497f9722a3daafe3b4186f6b6457e0908390a3600a80546001600160a01b0319169055565b61161d612431565b600a546001600160a01b0390811691161461166d576040805162461bcd60e51b815260206004820181905260248201526000805160206131fc833981519152604482015290519081900360640190fd5b6001600160a01b0381166116935760405162461bcd60e51b815260040161058690612ecd565b600580546001600160a01b0319166001600160a01b0392909216919091179055565b60065490565b6116c3612431565b600a546001600160a01b03908116911614611713576040805162461bcd60e51b815260206004820181905260248201526000805160206131fc833981519152604482015290519081900360640190fd5b6002546001600160a01b031661175a5760405162461bcd60e51b815260040180806020018281038252602c81526020018061321c602c913960400191505060405180910390fd5b600254604051630f47aa8d60e31b81526001600160a01b0390911690637a3d54689061178c90859085906004016130cb565b600060405180830381600087803b1580156117a657600080fd5b505af11580156117ba573d6000803e3d6000fd5b505050505050565b6117ca612431565b600a546001600160a01b0390811691161461181a576040805162461bcd60e51b815260206004820181905260248201526000805160206131fc833981519152604482015290519081900360640190fd5b60006007828154811061182957fe5b60009182526020808320909101546001600160a01b031680835260099091526040909120600754919250906000190183146118e6576007805460009190600019810190811061187457fe5b60009182526020808320909101546001600160a01b03168083526009909152604090912060028101869055600780549293509091839190879081106118b557fe5b9060005260206000200160006101000a8154816001600160a01b0302191690836001600160a01b0316021790555050505b600060018201819055600282015560078054806118ff57fe5b600082815260209020810160001990810180546001600160a01b031916905501905560085461192f9060016124eb565b6008556040516000906001600160a01b0384169085907f663b98adf1afa777e36528b3293a057803f87ed00d2d2518dccfe5d7a6e99ccf908490a4600854611978816001612435565b6040517f8c0366d1e3a335a312d012257ee764723c38ec2dd5e74cbfad372513521f977190600090a3505050565b6001600160a01b03808216600090815260096020526040812054909116806119e05760405162461bcd60e51b815260040161058690612d6d565b806001600160a01b031663764a78566040518163ffffffff1660e01b8152600401602060405180830381600087803b158015611a1b57600080fd5b505af1158015611a2f573d6000803e3d6000fd5b505050506040513d601f19601f82011682018060405250810190611a5391906128e0565b5050919050565b6002546000906001600160a01b0316611aa45760405162461bcd60e51b815260040180806020018281038252602c81526020018061321c602c913960400191505060405180910390fd5b600254604051630f07905160e31b81526000916001600160a01b03169063783c828890611adf908a908a908a9087908b908b90600401612bc4565b602060405180830381600087803b158015611af957600080fd5b505af1158015611b0d573d6000803e3d6000fd5b505050506040513d601f19601f82011682018060405250810190611b3191906129d4565b600254604051636f35e9c360e11b81529192508291339142917f09032c533eeeaf532aca60822adb8ac57ab801abda2d111b72eac42eaa794c69918c916001600160a01b039091169063de6bd38690611b8e908890600401613051565b60206040518083038186803b158015611ba657600080fd5b505afa158015611bba573d6000803e3d6000fd5b505050506040513d601f19601f82011682018060405250810190611bde91906129d4565b604051611bec929190612b8a565b60405180910390a49695505050505050565b600a546001600160a01b031690565b600254604080516302e0740360e31b8152815160009384936001600160a01b0390911692631703a0189260048083019392829003018186803b158015611c5257600080fd5b505afa158015611c66573d6000803e3d6000fd5b505050506040513d601f19601f82011682018060405250810190611c8a9190612974565b600754602082015182519293509091611caf9190611ca990849061252d565b90612586565b9250505090565b6001600160a01b0316600090815260096020526040902060010154151590565b600080611ce283611546565b90506001600160a01b038116611d0a5760405162461bcd60e51b815260040161058690612c3a565b600554604051634c063c1960e01b81526000916001600160a01b031690634c063c1990611d3b908590600401612afd565b60206040518083038186803b158015611d5357600080fd5b505afa158015611d67573d6000803e3d6000fd5b505050506040513d601f19601f82011682018060405250810190611d8b9190612727565b90506001600160a01b038116611db35760405162461bcd60e51b815260040161058690612f8d565b806001600160a01b03166318160ddd6040518163ffffffff1660e01b815260040160206040518083038186803b158015611dec57600080fd5b505afa158015611e00573d6000803e3d6000fd5b505050506040513d601f19601f82011682018060405250810190611e2491906129d4565b949350505050565b611e34612431565b600a546001600160a01b03908116911614611e84576040805162461bcd60e51b815260206004820181905260248201526000805160206131fc833981519152604482015290519081900360640190fd5b6002546001600160a01b0316611ecb5760405162461bcd60e51b815260040180806020018281038252602c81526020018061321c602c913960400191505060405180910390fd5b600254604051635a7b4db560e11b81526001600160a01b039091169063b4f69b6a90611efb908490600401613051565b600060405180830381600087803b158015611f1557600080fd5b505af1158015611f29573d6000803e3d6000fd5b5050505050565b6003546001600160a01b031681565b600033611f4b81611cb6565b611f865760405162461bcd60e51b815260040180806020018281038252602381526020018061318b6023913960400191505060405180910390fd5b3360009081526009602052604081206002810154600780549293929091908110611fac57fe5b6000918252602082200180546001600160a01b0319166001600160a01b0393909316929092179091556001820181905560028201546040513391907f663b98adf1afa777e36528b3293a057803f87ed00d2d2518dccfe5d7a6e99ccf908490a460006002909101555090565b6000546001600160a01b031681565b6004546001600160a01b031681565b61203e612431565b600a546001600160a01b0390811691161461208e576040805162461bcd60e51b815260206004820181905260248201526000805160206131fc833981519152604482015290519081900360640190fd5b6002546001600160a01b03166120d55760405162461bcd60e51b815260040180806020018281038252602c81526020018061321c602c913960400191505060405180910390fd5b600254604051630d10d2b560e41b81526001600160a01b039091169063d10d2b5090611efb908490600401613051565b61210d612431565b600a546001600160a01b0390811691161461215d576040805162461bcd60e51b815260206004820181905260248201526000805160206131fc833981519152604482015290519081900360640190fd5b6002546001600160a01b03166121a45760405162461bcd60e51b815260040180806020018281038252602c81526020018061321c602c913960400191505060405180910390fd5b60025460405163d1f0473f60e01b81526001600160a01b039091169063d1f0473f90611efb908490600401613051565b6000806121e084611546565b90506001600160a01b0381166122085760405162461bcd60e51b815260040161058690612c3a565b600554604051634c063c1960e01b81526000916001600160a01b031690634c063c1990612239908590600401612afd565b60206040518083038186803b15801561225157600080fd5b505afa158015612265573d6000803e3d6000fd5b505050506040513d601f19601f820116820180604052508101906122899190612727565b90506001600160a01b0381166122b15760405162461bcd60e51b815260040161058690612f8d565b6040516370a0823160e01b81526001600160a01b038216906370a08231906122dd908790600401612afd565b60206040518083038186803b1580156122f557600080fd5b505afa158015612309573d6000803e3d6000fd5b505050506040513d601f19601f8201168201806040525081019061232d91906129d4565b925050505b92915050565b612340612431565b600a546001600160a01b03908116911614612390576040805162461bcd60e51b815260206004820181905260248201526000805160206131fc833981519152604482015290519081900360640190fd5b6001600160a01b0381166123d55760405162461bcd60e51b81526004018080602001828103825260268152602001806131656026913960400191505060405180910390fd5b600a546040516001600160a01b038084169216907f8be0079c531659141344cd1fd0a4f28419497f9722a3daafe3b4186f6b6457e090600090a3600a80546001600160a01b0319166001600160a01b0392909216919091179055565b3390565b60008282018381101561248f576040805162461bcd60e51b815260206004820152601b60248201527f536166654d6174683a206164646974696f6e206f766572666c6f770000000000604482015290519081900360640190fd5b9392505050565b6007545b6008548110156111605760078054600181810183556000929092527fa66cc928b5edb82af9bd49922954155ab7b0942694bea4ce44661d9a8736c6880180546001600160a01b03191690550161249a565b600061248f83836040518060400160405280601e81526020017f536166654d6174683a207375627472616374696f6e206f766572666c6f7700008152506125c8565b60008261253c57506000612332565b8282028284828161254957fe5b041461248f5760405162461bcd60e51b81526004018080602001828103825260218152602001806131db6021913960400191505060405180910390fd5b600061248f83836040518060400160405280601a81526020017f536166654d6174683a206469766973696f6e206279207a65726f00000000000081525061265f565b600081848411156126575760405162461bcd60e51b81526004018080602001828103825283818151815260200191508051906020019080838360005b8381101561261c578181015183820152602001612604565b50505050905090810190601f1680156126495780820380516001836020036101000a031916815260200191505b509250505060405180910390fd5b505050900390565b600081836126ae5760405162461bcd60e51b815260206004820181815283516024840152835190928392604490910191908501908083836000831561261c578181015183820152602001612604565b5060008385816126ba57fe5b0495945050505050565b60008083601f8401126126d5578182fd5b50813567ffffffffffffffff8111156126ec578182fd5b60208301915083602082850101111561270457600080fd5b9250929050565b60006020828403121561271c578081fd5b813561248f8161314f565b600060208284031215612738578081fd5b815161248f8161314f565b60008060408385031215612755578081fd5b82356127608161314f565b915060208301356127708161314f565b809150509250929050565b6000806040838503121561278d578182fd5b82516127988161314f565b602084015190925067ffffffffffffffff8111156127b4578182fd5b8301601f810185136127c4578182fd5b80516127d76127d2826130fd565b6130d9565b8181528660208385010111156127eb578384fd5b6127fc82602083016020860161311f565b8093505050509250929050565b600080600080600060808688031215612820578081fd5b853561282b8161314f565b94506020860135935060408601359250606086013567ffffffffffffffff811115612854578182fd5b612860888289016126c4565b969995985093965092949392505050565b60008060208385031215612883578182fd5b823567ffffffffffffffff8082111561289a578384fd5b818501915085601f8301126128ad578384fd5b8135818111156128bb578485fd5b86602080830285010111156128ce578485fd5b60209290920196919550909350505050565b6000602082840312156128f1578081fd5b8151801515811461248f578182fd5b600060208284031215612911578081fd5b813567ffffffffffffffff811115612927578182fd5b8201601f81018413612937578182fd5b80356129456127d2826130fd565b818152856020838501011115612959578384fd5b81602084016020830137908101602001929092525092915050565b600060408284031215612985578081fd5b6040516040810181811067ffffffffffffffff821117156129a257fe5b604052825181526020928301519281019290925250919050565b6000602082840312156129cd578081fd5b5035919050565b6000602082840312156129e5578081fd5b5051919050565b600080604083850312156129fe578182fd5b50508035926020909101359150565b60008060008060608587031215612a22578182fd5b8435935060208501359250604085013567ffffffffffffffff811115612a46578283fd5b612a52878288016126c4565b95989497509550505050565b600080600060608486031215612a72578081fd5b8351925060208401519150604084015190509250925092565b60008284528282602086013780602084860101526020601f19601f85011685010190509392505050565b60008151808452612acd81602086016020860161311f565b601f01601f19169290920160200192915050565b60008251612af381846020870161311f565b9190910192915050565b6001600160a01b0391909116815260200190565b600060018060a01b03808716835260806020840152612b336080840187612ab5565b9481166040840152929092166060909101525092915050565b6001600160a01b0392831681529116602082015260400190565b6001600160a01b0383168152604060208201819052600090611e2490830184612ab5565b6001600160a01b03929092168252602082015260400190565b6001600160a01b039390931683526020830191909152604082015260600190565b600060018060a01b038816825286602083015285604083015284606083015260a06080830152612bf860a083018486612a8b565b98975050505050505050565b901515815260200190565b6020808252601190820152701b9bdd08195b9bdd59da08185b5bdd5b9d607a1b604082015260600190565b6020808252601f908201527f54686973206163636f756e74206973206e6f7420612063616e64696461746500604082015260600190565b60208082526029908201527f44414f436f6d6d697474656553746f72653a20696e646578206973206e6f7420604082015268617661696c61626c6560b81b606082015260800190565b602080825260409082018190527f44414f436f6d6d697474656553746f72653a20596f75206861766520746f2063908201527f616c6c207265647563654d656d626572536c6f7420746f206465637265617365606082015260800190565b60208082526035908201527f44414f436f6d6d697474656553746f72653a205468652063616e64696461746560408201527408185b1c9958591e481a185cc818dbdb9d1c9858dd605a1b606082015260800190565b6020808252601d908201527f44414f436f6d6d69747465653a206e6f7420612063616e646964617465000000604082015260600190565b60208082526030908201527f44414f436f6d6d69747465653a206465706c6f7965642063616e64696461746560408201526f436f6e7472616374206973207a65726f60801b606082015260800190565b60208082526028908201527f44414f436f6d6d69747465653a2063616e206e6f74206578656375746520746860408201526765206167656e646160c01b606082015260800190565b60208082526030908201527f44414f436f6d6d69747465653a206661696c656420746f20726567697374657260408201526f416e644465706c6f79436f696e61676560801b606082015260800190565b60208082526021908201527f44414f436f6d6d697474656553746f72653a20616c7265616479206d656d62656040820152603960f91b606082015260800190565b6020808252600c908201526b7a65726f206164647265737360a01b604082015260600190565b60208082526031908201527f44414f436f6d6d697474656553746f72653a205468652061646472657373206960408201527073206e6f7420612063616e64696461746560781b606082015260800190565b60208082526029908201527f44414f436f6d6d69747465653a2063616e64696461746520616c7265616479206040820152681c9959da5cdd195c9960ba1b606082015260800190565b6020808252601d908201527f44414f436f6d6d69747465653a20636f696e616765206973207a65726f000000604082015260600190565b6020808252602a908201527f44414f436f6d6d69747465653a204661696c656420746f206578656375746520604082015269746865206167656e646160b01b606082015260800190565b60208082526023908201527f44414f436f6d6d69747465653a207265717569726564566f746573206973207a60408201526265726f60e81b606082015260800190565b90815260200190565b9283526001600160a01b03919091166020830152604082015260600190565b828152604081016004831061308a57fe5b8260208301529392505050565b828152604081016006831061308a57fe5b6000848252604060208301526130c2604083018486612a8b565b95945050505050565b918252602082015260400190565b60405181810167ffffffffffffffff811182821017156130f557fe5b604052919050565b600067ffffffffffffffff82111561311157fe5b50601f01601f191660200190565b60005b8381101561313a578181015183820152602001613122565b83811115613149576000848401525b50505050565b6001600160a01b038116811461116057600080fdfe4f776e61626c653a206e6577206f776e657220697320746865207a65726f206164647265737353746f726167655374617465436f6d6d69747465653a206e6f742061206d656d62657253746f726167655374617465436f6d6d69747465653a20756e76616c6964204c61796572325265676973747279536166654d6174683a206d756c7469706c69636174696f6e206f766572666c6f774f776e61626c653a2063616c6c6572206973206e6f7420746865206f776e657253746f726167655374617465436f6d6d69747465653a204167656e64614d616e61676572206973207a65726f53746f726167655374617465436f6d6d69747465653a20756e76616c696420436f6d6d69747465654c32466163746f727953746f726167655374617465436f6d6d69747465653a20756e76616c696420536569674d616e6167657265a2646970667358221220041730cc654128edbbdcd7b59b1f8132cbac788b10f086058891e1a7bd2ea9da64736f6c63430007060033",
  "immutableReferences": {},
  "source": "// SPDX-License-Identifier: MIT\npragma solidity ^0.7.6;\npragma abicoder v2;\n\nimport \"../../node_modules/@openzeppelin/contracts/access/Ownable.sol\";\nimport \"./StorageStateCommittee.sol\";\n\nimport { SafeMath } from \"../../node_modules/@openzeppelin/contracts/math/SafeMath.sol\";\nimport { IERC20 } from  \"../../node_modules/@openzeppelin/contracts/token/ERC20/IERC20.sol\";\nimport { ICandidate } from \"../interfaces/ICandidate.sol\";\nimport { IDAOAgendaManager } from \"../interfaces/IDAOAgendaManager.sol\";\nimport { LibAgenda } from \"../lib/Agenda.sol\";\n\ncontract DAOCommittee is StorageStateCommittee, Ownable {\n    using SafeMath for uint256;\n    using LibAgenda for *;\n     \n    enum ApplyResult { NONE, SUCCESS, NOT_ELECTION, ALREADY_COMMITTEE, SLOT_INVALID, ADDMEMBER_FAIL, LOW_BALANCE }\n\n    //////////////////////////////\n    // Events\n    //////////////////////////////\n\n    event AgendaCreated(\n        uint256 indexed timestamp,\n        address indexed from,\n        uint256 indexed id,\n        address target,\n        uint256 noticeEndTimestamp\n    );\n\n    event AgendaVoteCasted(\n        uint256 indexed timestamp,\n        address indexed from,\n        uint256 indexed id,\n        uint voting,\n        string comment\n    );\n\n    event AgendaExecuted(\n        uint256 indexed timestamp,\n        address indexed from,\n        uint256 indexed id,\n        address target,\n        bytes functionBytecode\n    );\n\n    event CandidateContractCreated(\n        address indexed candidate,\n        address candidateContract,\n        string memo\n    );\n\n    event ChangedMember(\n        uint256 indexed slotIndex,\n        address indexed prevMember,\n        address indexed newMember\n    );\n\n    event ChangedSlotMaximum(\n        uint256 indexed prevSlotMax,\n        uint256 indexed slotMax\n    );\n\n    //////////////////////////////////////////////////////////////////////\n    // setters\n\n    function setSeigManager(address _agendaManager) public onlyOwner {\n        require(_agendaManager != address(0), \"zero address\");\n        seigManager = ISeigManager(_agendaManager);\n    }\n     \n    function setDaoVault(address _daoVault) public onlyOwner {\n        require(_daoVault != address(0), \"zero address\");\n        daoVault = _daoVault;\n    }\n\n    /*function setActivityRewardManager(address _activityRewardManager) public onlyOwner {\n        require(_activityRewardManager != address(0), \"zero address\");\n        activityRewardManager = IDAOActivityRewardManager(_activityRewardManager);\n    }*/\n\n    function setLayer2Registry(address _layer2Registry) public onlyOwner {\n        require(_layer2Registry != address(0), \"zero address\");\n        layer2Registry = ILayer2Registry(_layer2Registry);\n    }\n\n    function setAgendaManager(address _agendaManager) public onlyOwner {\n        require(_agendaManager != address(0), \"zero address\");\n        agendaManager = IDAOAgendaManager(_agendaManager);\n    }\n\n    function setCandidateFactory(address _candidateFactory) public onlyOwner {\n        require(_candidateFactory != address(0), \"zero address\");\n        candidateFactory = ICandidateFactory(_candidateFactory);\n    }\n\n    function setTon(address _ton) public onlyOwner {\n        require(_ton != address(0), \"zero address\");\n        ton = _ton;\n    }\n\n    //////////////////////////////////////////////////////////////////////\n    // Managing members\n\n    function setMaxMember(uint256 _maxMember) onlyOwner public {\n        require(maxMember < _maxMember, \"DAOCommitteeStore: You have to call reduceMemberSlot to decrease\");\n        maxMember = _maxMember;\n        fillMemberSlot();\n    }\n\n    function createCandidate(string memory _memo)\n        public\n        validSeigManager\n        validLayer2Registry\n        validCommitteeL2Factory\n    {\n        require(!isExistCandidate(msg.sender), \"DAOCommittee: candidate already registerd\");\n          \n        // Candidate\n        address candidateContract = candidateFactory.deploy(msg.sender, _memo, address(seigManager), address(layer2Registry));\n        require(\n            candidateContract != address(0),\n            \"DAOCommittee: deployed candidateContract is zero\"\n        );\n        require(\n            layer2Registry.registerAndDeployCoinage(candidateContract, address(seigManager)),\n            \"DAOCommittee: failed to registerAndDeployCoinage\"\n        );\n        require(\n            candidateInfos[msg.sender].candidateContract == address(0),\n            \"DAOCommitteeStore: The candidate already has contract\"\n        );\n\n        candidateInfos[msg.sender] = CandidateInfo({\n            candidateContract: candidateContract,\n            memberJoinedTime: 0,\n            indexMembers: 0\n        });\n\n        candidates.push(msg.sender);\n       \n        emit CandidateContractCreated(msg.sender, candidateContract, _memo);\n    }\n\n    function changeMember(uint256 _memberIndex)\n        public\n        returns (bool)\n    {\n        CandidateInfo storage candidateInfo = candidateInfos[msg.sender];\n        require(\n            _memberIndex < maxMember,\n            \"DAOCommitteeStore: index is not available\"\n        );\n        require(\n            candidateInfo.candidateContract != address(0),\n            \"DAOCommitteeStore: The address is not a candidate\"\n        );\n        require(\n            candidateInfo.memberJoinedTime == 0,\n            \"DAOCommitteeStore: already member\"\n        );\n        \n        address prevMember = members[_memberIndex];\n\n        candidateInfo.memberJoinedTime = block.timestamp;\n        candidateInfo.indexMembers = _memberIndex;\n\n        members[_memberIndex] = msg.sender;\n\n        if (prevMember == address(0)) {\n            return true;\n        }\n\n        require(\n            totalSupplyOnCandidate(msg.sender) > totalSupplyOnCandidate(prevMember),\n            \"not enough amount\"\n        );\n\n        CandidateInfo storage prevCandidate = candidateInfos[prevMember];\n        prevCandidate.memberJoinedTime = 0;\n        prevCandidate.indexMembers = 0;\n\n        emit ChangedMember(_memberIndex, prevMember, msg.sender);\n\n        return true;\n    }\n    \n    function retireMember() onlyMember(msg.sender) public returns (bool) {\n        CandidateInfo storage candidateInfo = candidateInfos[msg.sender];\n        members[candidateInfo.indexMembers] = address(0);\n        candidateInfo.memberJoinedTime = 0;\n\n        emit ChangedMember(candidateInfo.indexMembers, msg.sender, address(0));\n\n        candidateInfo.indexMembers = 0;\n    }\n\n    function reduceMemberSlot(uint256 _reducingMemberIndex) public onlyOwner {\n        address reducingMember = members[_reducingMemberIndex];\n        CandidateInfo storage reducingCandidate = candidateInfos[reducingMember];\n\n        if (_reducingMemberIndex != members.length - 1) {\n            address tailmember = members[members.length - 1];\n            CandidateInfo storage tailCandidate = candidateInfos[tailmember];\n\n            tailCandidate.indexMembers = _reducingMemberIndex;\n            members[_reducingMemberIndex] = tailmember;\n        }\n        reducingCandidate.memberJoinedTime = 0;\n        reducingCandidate.indexMembers = 0;\n\n        members.pop();\n        maxMember = maxMember.sub(1);\n\n        emit ChangedMember(_reducingMemberIndex, reducingMember, address(0));\n        emit ChangedSlotMaximum(maxMember.add(1), maxMember);\n    }\n\n    //////////////////////////////////////////////////////////////////////\n    // Managing agenda\n\n    function setMinimunNoticePeriodSeconds(\n        uint256 _minimunNoticePeriod\n    )\n        public\n        onlyOwner\n        validAgendaManager\n    {\n        agendaManager.setMinimunNoticePeriodSeconds(_minimunNoticePeriod);\n    }\n\n    function setMinimunVotingPeriodSeconds(\n        uint256 _minimunVotingPeriod\n    )\n        public\n        onlyOwner\n        validAgendaManager\n    {\n        agendaManager.setMinimunVotingPeriodSeconds(_minimunVotingPeriod);\n    }\n\n    function setQuorum(\n        uint256 _quorumNumerator,\n        uint256 _quorumDenominator\n    )\n        public\n        onlyOwner\n        validAgendaManager\n    {\n        agendaManager.setQuorum(_quorumNumerator, _quorumDenominator);\n    }\n\n    function setCreateAgendaFees(\n        uint256 _fees\n    )\n        public\n        onlyOwner\n        validAgendaManager\n    {\n        agendaManager.setCreateAgendaFees(_fees);\n    }\n   \n    function createAgenda(\n        address _target,\n        uint256 _noticePeriodSeconds,\n        uint256 _votingPeriodSeconds,\n        bytes calldata _functionBytecode\n    )\n        public\n        validAgendaManager\n        //validActivityRewardManager\n        returns (uint256)\n    {\n        // TODO: pay ton\n        // pay to create agenda, burn ton.\n         \n        //uint256 reward = activityRewardManager.calculateActivityFees();\n        uint256 agendaID = agendaManager.newAgenda(\n            _target,\n            _noticePeriodSeconds,\n            _votingPeriodSeconds,\n            0,\n            _functionBytecode\n        );\n          \n        emit AgendaCreated(\n            block.timestamp,\n            msg.sender,\n            agendaID,\n            _target,\n            agendaManager.getAgendaNoticeEndTimeSeconds(agendaID)\n        );\n\n        return agendaID;\n    }\n    \n    function castVote(\n        uint256 _agendaID,\n        uint _vote,\n        string calldata _comment\n    )\n        public \n        validAgendaManager\n    {\n        uint256 requiredVotes = requiredVotesToPass();\n        require(requiredVotes > 0, \"DAOCommittee: requiredVotes is zero\");\n        \n        agendaManager.castVote(\n            _agendaID,\n            msg.sender,\n            _vote\n        );\n\n        (uint256 yes, uint256 no, uint256 abstain) = agendaManager.getVotingCount(_agendaID);\n\n        if (requiredVotes < yes) {\n            // yes\n            agendaManager.setResult(_agendaID, LibAgenda.AgendaResult.ACCEPT);\n            agendaManager.setStatus(_agendaID, LibAgenda.AgendaStatus.WAITING_EXEC);\n        } else if (requiredVotes < no) {\n            // no\n            agendaManager.setResult(_agendaID, LibAgenda.AgendaResult.REJECT);\n            agendaManager.setStatus(_agendaID, LibAgenda.AgendaStatus.ENDED);\n        } else if (requiredVotes < abstain.add(no) ) {\n            // dismiss\n            agendaManager.setResult(_agendaID, LibAgenda.AgendaResult.DISMISS);\n            agendaManager.setStatus(_agendaID, LibAgenda.AgendaStatus.ENDED);\n        }\n        \n        emit AgendaVoteCasted(block.timestamp, msg.sender, _agendaID, _vote, _comment);\n    }\n\n    function executeAgenda(uint256 _agendaID) public validAgendaManager {\n        require(\n            agendaManager.canExecuteAgenda(_agendaID),\n            \"DAOCommittee: can not execute the agenda\"\n        );\n        \n        (address target, bytes memory functionBytecode) = agendaManager.getExecutionInfo(_agendaID);\n       \n        (bool success, ) = address(target).call(functionBytecode);\n        require(success, \"DAOCommittee: Failed to execute the agenda\");\n         \n        agendaManager.setExecutedAgenda(_agendaID);\n\n        emit AgendaExecuted(block.timestamp, msg.sender, _agendaID, target, functionBytecode);\n    }\n     \n    function updateSeigniorage(address _candidate) public returns (bool) {\n        address candidateContract = candidateInfos[_candidate].candidateContract;\n        require(candidateContract != address(0), \"DAOCommittee: not a candidate\");\n        ICandidate(candidateContract).updateSeigniorage();\n\n        //emit CommitteeUpdateSeigniorage(msg.sender);\n    }\n\n    function updateSeigniorages(address[] calldata _candidates) public returns (bool) {\n        for (uint256 i = 0; i < _candidates.length; i++) {\n            updateSeigniorage(_candidates[i]);\n        }\n    }\n\n    function fillMemberSlot() internal {\n        for (uint256 i = members.length; i < maxMember; i++) {\n            members.push(address(0));\n        }\n    }\n\n    function requiredVotesToPass()\n        public\n        view\n        returns (uint256 requiredVotes)\n    {\n        IDAOAgendaManager.Ratio memory quorum = agendaManager.quorum();\n        uint256 total = members.length;\n        requiredVotes = total.mul(quorum.numerator).div(quorum.denominator);\n    }\n    \n    function totalSupplyOnCandidate(\n        address _candidate\n    )\n        public\n        view\n        returns (uint256 totalsupply)\n    {\n        address candidateContract = candidateContract(_candidate);\n        require(candidateContract != address(0), \"This account is not a candidate\");\n\n        address coinage = seigManager.coinages(candidateContract);\n        require(coinage != address(0), \"DAOCommittee: coinage is zero\");\n        return IERC20(coinage).totalSupply();\n    }\n\n    function balanceOfOnCandidate(\n        address _candidate,\n        address account\n    )\n        public\n        view\n        returns (uint256 amount)\n    {\n        address candidateContract = candidateContract(_candidate);\n        require(candidateContract != address(0), \"This account is not a candidate\");\n\n        address coinage = seigManager.coinages(candidateContract);\n        require(coinage != address(0), \"DAOCommittee: coinage is zero\");\n        return IERC20(coinage).balanceOf(account);\n    }\n    \n    function candidatesLength() public view returns (uint256) {\n        return candidates.length;\n    }\n\n    function isExistCandidate(address _candidate) public view returns (bool isExist) {\n        return candidateInfos[_candidate].candidateContract != address(0);\n    }\n\n    /*function candidateContract(address _candidate) public view returns (address) {\n        return candidateInfos[_candidate].candidateContract;\n    }*/\n\n}\n",
  "sourcePath": "/data/github/onther/tokamak-dao-contracts3/contracts/dao/DAOCommittee.sol",
  "compiler": {
    "name": "solc",
    "version": "0.7.6+commit.7338295f.Emscripten.clang"
  },
  "schemaVersion": "3.3.2",
  "updatedAt": "2021-01-07T01:50:52.019Z",
  "devdoc": {
    "kind": "dev",
    "methods": {
      "owner()": {
        "details": "Returns the address of the current owner."
      },
      "renounceOwnership()": {
        "details": "Leaves the contract without owner. It will not be possible to call `onlyOwner` functions anymore. Can only be called by the current owner. NOTE: Renouncing ownership will leave the contract without an owner, thereby removing any functionality that is only available to the owner."
      },
      "transferOwnership(address)": {
        "details": "Transfers ownership of the contract to a new account (`newOwner`). Can only be called by the current owner."
      }
    },
    "version": 1
  },
  "userdoc": {
    "kind": "user",
    "methods": {},
    "version": 1
  }
}