{
  "contractName": "DAOCommittee",
  "abi": [
    {
      "anonymous": false,
      "inputs": [
        {
          "indexed": true,
          "internalType": "address",
          "name": "from",
          "type": "address"
        },
        {
          "indexed": true,
          "internalType": "uint256",
          "name": "id",
          "type": "uint256"
        },
        {
          "indexed": false,
          "internalType": "address[]",
          "name": "targets",
          "type": "address[]"
        },
        {
          "indexed": false,
          "internalType": "uint256",
          "name": "noticePeriodSeconds",
          "type": "uint256"
        },
        {
          "indexed": false,
          "internalType": "uint256",
          "name": "votingPeriodSeconds",
          "type": "uint256"
        }
      ],
      "name": "AgendaCreated",
      "type": "event"
    },
    {
      "anonymous": false,
      "inputs": [
        {
          "indexed": true,
          "internalType": "uint256",
          "name": "id",
          "type": "uint256"
        },
        {
          "indexed": false,
          "internalType": "address[]",
          "name": "target",
          "type": "address[]"
        }
      ],
      "name": "AgendaExecuted",
      "type": "event"
    },
    {
      "anonymous": false,
      "inputs": [
        {
          "indexed": true,
          "internalType": "address",
          "name": "from",
          "type": "address"
        },
        {
          "indexed": true,
          "internalType": "uint256",
          "name": "id",
          "type": "uint256"
        },
        {
          "indexed": false,
          "internalType": "uint256",
          "name": "voting",
          "type": "uint256"
        },
        {
          "indexed": false,
          "internalType": "string",
          "name": "comment",
          "type": "string"
        }
      ],
      "name": "AgendaVoteCasted",
      "type": "event"
    },
    {
      "anonymous": false,
      "inputs": [
        {
          "indexed": true,
          "internalType": "address",
          "name": "candidate",
          "type": "address"
        },
        {
          "indexed": true,
          "internalType": "address",
          "name": "candidateContract",
          "type": "address"
        },
        {
          "indexed": false,
          "internalType": "string",
          "name": "memo",
          "type": "string"
        }
      ],
      "name": "CandidateContractCreated",
      "type": "event"
    },
    {
      "anonymous": false,
      "inputs": [
        {
          "indexed": true,
          "internalType": "uint256",
          "name": "slotIndex",
          "type": "uint256"
        },
        {
          "indexed": false,
          "internalType": "address",
          "name": "prevMember",
          "type": "address"
        },
        {
          "indexed": true,
          "internalType": "address",
          "name": "newMember",
          "type": "address"
        }
      ],
      "name": "ChangedMember",
      "type": "event"
    },
    {
      "anonymous": false,
      "inputs": [
        {
          "indexed": false,
          "internalType": "address",
          "name": "candidate",
          "type": "address"
        },
        {
          "indexed": false,
          "internalType": "string",
          "name": "newMemo",
          "type": "string"
        }
      ],
      "name": "ChangedMemo",
      "type": "event"
    },
    {
      "anonymous": false,
      "inputs": [
        {
          "indexed": true,
          "internalType": "uint256",
          "name": "prevSlotMax",
          "type": "uint256"
        },
        {
          "indexed": true,
          "internalType": "uint256",
          "name": "slotMax",
          "type": "uint256"
        }
      ],
      "name": "ChangedSlotMaximum",
      "type": "event"
    },
    {
      "anonymous": false,
      "inputs": [
        {
          "indexed": true,
          "internalType": "address",
          "name": "candidate",
          "type": "address"
        },
        {
          "indexed": false,
          "internalType": "address",
          "name": "receiver",
          "type": "address"
        },
        {
          "indexed": false,
          "internalType": "uint256",
          "name": "amount",
          "type": "uint256"
        }
      ],
      "name": "ClaimedActivityReward",
      "type": "event"
    },
    {
      "anonymous": false,
      "inputs": [
        {
          "indexed": true,
          "internalType": "address",
          "name": "candidate",
          "type": "address"
        },
        {
          "indexed": true,
          "internalType": "address",
          "name": "candidateContract",
          "type": "address"
        },
        {
          "indexed": false,
          "internalType": "string",
          "name": "memo",
          "type": "string"
        }
      ],
      "name": "Layer2Registered",
      "type": "event"
    },
    {
      "anonymous": false,
      "inputs": [
        {
          "indexed": false,
          "internalType": "uint256",
          "name": "newQuorum",
          "type": "uint256"
        }
      ],
      "name": "QuorumChanged",
      "type": "event"
    },
    {
      "anonymous": false,
      "inputs": [
        {
          "indexed": true,
          "internalType": "bytes32",
          "name": "role",
          "type": "bytes32"
        },
        {
          "indexed": true,
          "internalType": "bytes32",
          "name": "previousAdminRole",
          "type": "bytes32"
        },
        {
          "indexed": true,
          "internalType": "bytes32",
          "name": "newAdminRole",
          "type": "bytes32"
        }
      ],
      "name": "RoleAdminChanged",
      "type": "event"
    },
    {
      "anonymous": false,
      "inputs": [
        {
          "indexed": true,
          "internalType": "bytes32",
          "name": "role",
          "type": "bytes32"
        },
        {
          "indexed": true,
          "internalType": "address",
          "name": "account",
          "type": "address"
        },
        {
          "indexed": true,
          "internalType": "address",
          "name": "sender",
          "type": "address"
        }
      ],
      "name": "RoleGranted",
      "type": "event"
    },
    {
      "anonymous": false,
      "inputs": [
        {
          "indexed": true,
          "internalType": "bytes32",
          "name": "role",
          "type": "bytes32"
        },
        {
          "indexed": true,
          "internalType": "address",
          "name": "account",
          "type": "address"
        },
        {
          "indexed": true,
          "internalType": "address",
          "name": "sender",
          "type": "address"
        }
      ],
      "name": "RoleRevoked",
      "type": "event"
    },
    {
      "inputs": [],
      "name": "DEFAULT_ADMIN_ROLE",
      "outputs": [
        {
          "internalType": "bytes32",
          "name": "",
          "type": "bytes32"
        }
      ],
      "stateMutability": "view",
      "type": "function",
      "constant": true
    },
    {
      "inputs": [],
      "name": "activityRewardPerSecond",
      "outputs": [
        {
          "internalType": "uint256",
          "name": "",
          "type": "uint256"
        }
      ],
      "stateMutability": "view",
      "type": "function",
      "constant": true
    },
    {
      "inputs": [],
      "name": "agendaManager",
      "outputs": [
        {
          "internalType": "contract IDAOAgendaManager",
          "name": "",
          "type": "address"
        }
      ],
      "stateMutability": "view",
      "type": "function",
      "constant": true
    },
    {
      "inputs": [
        {
          "internalType": "address",
          "name": "_candidate",
          "type": "address"
        }
      ],
      "name": "candidateContract",
      "outputs": [
        {
          "internalType": "address",
          "name": "",
          "type": "address"
        }
      ],
      "stateMutability": "view",
      "type": "function",
      "constant": true
    },
    {
      "inputs": [],
      "name": "candidateFactory",
      "outputs": [
        {
          "internalType": "contract ICandidateFactory",
          "name": "",
          "type": "address"
        }
      ],
      "stateMutability": "view",
      "type": "function",
      "constant": true
    },
    {
      "inputs": [
        {
          "internalType": "address",
          "name": "",
          "type": "address"
        }
      ],
      "name": "candidateInfos",
      "outputs": [
        {
          "internalType": "address",
          "name": "candidateContract",
          "type": "address"
        },
        {
          "internalType": "uint256",
          "name": "memberJoinedTime",
          "type": "uint256"
        },
        {
          "internalType": "uint256",
          "name": "indexMembers",
          "type": "uint256"
        },
        {
          "internalType": "uint256",
          "name": "rewardPeriod",
          "type": "uint256"
        },
        {
          "internalType": "uint256",
          "name": "claimedTimestamp",
          "type": "uint256"
        }
      ],
      "stateMutability": "view",
      "type": "function",
      "constant": true
    },
    {
      "inputs": [
        {
          "internalType": "uint256",
          "name": "",
          "type": "uint256"
        }
      ],
      "name": "candidates",
      "outputs": [
        {
          "internalType": "address",
          "name": "",
          "type": "address"
        }
      ],
      "stateMutability": "view",
      "type": "function",
      "constant": true
    },
    {
      "inputs": [],
      "name": "daoVault",
      "outputs": [
        {
          "internalType": "contract IDAOVault2",
          "name": "",
          "type": "address"
        }
      ],
      "stateMutability": "view",
      "type": "function",
      "constant": true
    },
    {
      "inputs": [
        {
          "internalType": "bytes32",
          "name": "role",
          "type": "bytes32"
        }
      ],
      "name": "getRoleAdmin",
      "outputs": [
        {
          "internalType": "bytes32",
          "name": "",
          "type": "bytes32"
        }
      ],
      "stateMutability": "view",
      "type": "function",
      "constant": true
    },
    {
      "inputs": [
        {
          "internalType": "bytes32",
          "name": "role",
          "type": "bytes32"
        },
        {
          "internalType": "uint256",
          "name": "index",
          "type": "uint256"
        }
      ],
      "name": "getRoleMember",
      "outputs": [
        {
          "internalType": "address",
          "name": "",
          "type": "address"
        }
      ],
      "stateMutability": "view",
      "type": "function",
      "constant": true
    },
    {
      "inputs": [
        {
          "internalType": "bytes32",
          "name": "role",
          "type": "bytes32"
        }
      ],
      "name": "getRoleMemberCount",
      "outputs": [
        {
          "internalType": "uint256",
          "name": "",
          "type": "uint256"
        }
      ],
      "stateMutability": "view",
      "type": "function",
      "constant": true
    },
    {
      "inputs": [
        {
          "internalType": "bytes32",
          "name": "role",
          "type": "bytes32"
        },
        {
          "internalType": "address",
          "name": "account",
          "type": "address"
        }
      ],
      "name": "grantRole",
      "outputs": [],
      "stateMutability": "nonpayable",
      "type": "function"
    },
    {
      "inputs": [
        {
          "internalType": "bytes32",
          "name": "role",
          "type": "bytes32"
        },
        {
          "internalType": "address",
          "name": "account",
          "type": "address"
        }
      ],
      "name": "hasRole",
      "outputs": [
        {
          "internalType": "bool",
          "name": "",
          "type": "bool"
        }
      ],
      "stateMutability": "view",
      "type": "function",
      "constant": true
    },
    {
      "inputs": [
        {
          "internalType": "address",
          "name": "_candidate",
          "type": "address"
        }
      ],
      "name": "isMember",
      "outputs": [
        {
          "internalType": "bool",
          "name": "",
          "type": "bool"
        }
      ],
      "stateMutability": "view",
      "type": "function",
      "constant": true
    },
    {
      "inputs": [],
      "name": "layer2Registry",
      "outputs": [
        {
          "internalType": "contract ILayer2Registry",
          "name": "",
          "type": "address"
        }
      ],
      "stateMutability": "view",
      "type": "function",
      "constant": true
    },
    {
      "inputs": [],
      "name": "maxMember",
      "outputs": [
        {
          "internalType": "uint256",
          "name": "",
          "type": "uint256"
        }
      ],
      "stateMutability": "view",
      "type": "function",
      "constant": true
    },
    {
      "inputs": [
        {
          "internalType": "uint256",
          "name": "",
          "type": "uint256"
        }
      ],
      "name": "members",
      "outputs": [
        {
          "internalType": "address",
          "name": "",
          "type": "address"
        }
      ],
      "stateMutability": "view",
      "type": "function",
      "constant": true
    },
    {
      "inputs": [],
      "name": "quorum",
      "outputs": [
        {
          "internalType": "uint256",
          "name": "",
          "type": "uint256"
        }
      ],
      "stateMutability": "view",
      "type": "function",
      "constant": true
    },
    {
      "inputs": [
        {
          "internalType": "bytes32",
          "name": "role",
          "type": "bytes32"
        },
        {
          "internalType": "address",
          "name": "account",
          "type": "address"
        }
      ],
      "name": "renounceRole",
      "outputs": [],
      "stateMutability": "nonpayable",
      "type": "function"
    },
    {
      "inputs": [
        {
          "internalType": "bytes32",
          "name": "role",
          "type": "bytes32"
        },
        {
          "internalType": "address",
          "name": "account",
          "type": "address"
        }
      ],
      "name": "revokeRole",
      "outputs": [],
      "stateMutability": "nonpayable",
      "type": "function"
    },
    {
      "inputs": [],
      "name": "seigManager",
      "outputs": [
        {
          "internalType": "contract ISeigManager",
          "name": "",
          "type": "address"
        }
      ],
      "stateMutability": "view",
      "type": "function",
      "constant": true
    },
    {
      "inputs": [],
      "name": "ton",
      "outputs": [
        {
          "internalType": "address",
          "name": "",
          "type": "address"
        }
      ],
      "stateMutability": "view",
      "type": "function",
      "constant": true
    },
    {
      "inputs": [
        {
          "internalType": "address",
          "name": "_seigManager",
          "type": "address"
        }
      ],
      "name": "setSeigManager",
      "outputs": [],
      "stateMutability": "nonpayable",
      "type": "function"
    },
    {
      "inputs": [
        {
          "internalType": "address[]",
          "name": "_candidateContracts",
          "type": "address[]"
        },
        {
          "internalType": "address",
          "name": "_seigManager",
          "type": "address"
        }
      ],
      "name": "setCandidatesSeigManager",
      "outputs": [],
      "stateMutability": "nonpayable",
      "type": "function"
    },
    {
      "inputs": [
        {
          "internalType": "address[]",
          "name": "_candidateContracts",
          "type": "address[]"
        },
        {
          "internalType": "address",
          "name": "_committee",
          "type": "address"
        }
      ],
      "name": "setCandidatesCommittee",
      "outputs": [],
      "stateMutability": "nonpayable",
      "type": "function"
    },
    {
      "inputs": [
        {
          "internalType": "address",
          "name": "_daoVault",
          "type": "address"
        }
      ],
      "name": "setDaoVault",
      "outputs": [],
      "stateMutability": "nonpayable",
      "type": "function"
    },
    {
      "inputs": [
        {
          "internalType": "address",
          "name": "_layer2Registry",
          "type": "address"
        }
      ],
      "name": "setLayer2Registry",
      "outputs": [],
      "stateMutability": "nonpayable",
      "type": "function"
    },
    {
      "inputs": [
        {
          "internalType": "address",
          "name": "_agendaManager",
          "type": "address"
        }
      ],
      "name": "setAgendaManager",
      "outputs": [],
      "stateMutability": "nonpayable",
      "type": "function"
    },
    {
      "inputs": [
        {
          "internalType": "address",
          "name": "_candidateFactory",
          "type": "address"
        }
      ],
      "name": "setCandidateFactory",
      "outputs": [],
      "stateMutability": "nonpayable",
      "type": "function"
    },
    {
      "inputs": [
        {
          "internalType": "address",
          "name": "_ton",
          "type": "address"
        }
      ],
      "name": "setTon",
      "outputs": [],
      "stateMutability": "nonpayable",
      "type": "function"
    },
    {
      "inputs": [
        {
          "internalType": "uint256",
          "name": "_value",
          "type": "uint256"
        }
      ],
      "name": "setActivityRewardPerSecond",
      "outputs": [],
      "stateMutability": "nonpayable",
      "type": "function"
    },
    {
      "inputs": [
        {
          "internalType": "uint256",
          "name": "_newMaxMember",
          "type": "uint256"
        },
        {
          "internalType": "uint256",
          "name": "_quorum",
          "type": "uint256"
        }
      ],
      "name": "increaseMaxMember",
      "outputs": [],
      "stateMutability": "nonpayable",
      "type": "function"
    },
    {
      "inputs": [
        {
          "internalType": "string",
          "name": "_memo",
          "type": "string"
        }
      ],
      "name": "createCandidate",
      "outputs": [],
      "stateMutability": "nonpayable",
      "type": "function"
    },
    {
      "inputs": [
        {
          "internalType": "address",
          "name": "_layer2",
          "type": "address"
        },
        {
          "internalType": "string",
          "name": "_memo",
          "type": "string"
        }
      ],
      "name": "registerLayer2Candidate",
      "outputs": [],
      "stateMutability": "nonpayable",
      "type": "function"
    },
    {
      "inputs": [
        {
          "internalType": "address",
          "name": "_operator",
          "type": "address"
        },
        {
          "internalType": "address",
          "name": "_layer2",
          "type": "address"
        },
        {
          "internalType": "string",
          "name": "_memo",
          "type": "string"
        }
      ],
      "name": "registerLayer2CandidateByOwner",
      "outputs": [],
      "stateMutability": "nonpayable",
      "type": "function"
    },
    {
      "inputs": [
        {
          "internalType": "uint256",
          "name": "_memberIndex",
          "type": "uint256"
        }
      ],
      "name": "changeMember",
      "outputs": [
        {
          "internalType": "bool",
          "name": "",
          "type": "bool"
        }
      ],
      "stateMutability": "nonpayable",
      "type": "function"
    },
    {
      "inputs": [],
      "name": "retireMember",
      "outputs": [
        {
          "internalType": "bool",
          "name": "",
          "type": "bool"
        }
      ],
      "stateMutability": "nonpayable",
      "type": "function"
    },
    {
      "inputs": [
        {
          "internalType": "address",
          "name": "_candidate",
          "type": "address"
        },
        {
          "internalType": "string",
          "name": "_memo",
          "type": "string"
        }
      ],
      "name": "setMemoOnCandidate",
      "outputs": [],
      "stateMutability": "nonpayable",
      "type": "function"
    },
    {
      "inputs": [
        {
          "internalType": "address",
          "name": "_candidateContract",
          "type": "address"
        },
        {
          "internalType": "string",
          "name": "_memo",
          "type": "string"
        }
      ],
      "name": "setMemoOnCandidateContract",
      "outputs": [],
      "stateMutability": "nonpayable",
      "type": "function"
    },
    {
      "inputs": [
        {
          "internalType": "uint256",
          "name": "_reducingMemberIndex",
          "type": "uint256"
        },
        {
          "internalType": "uint256",
          "name": "_quorum",
          "type": "uint256"
        }
      ],
      "name": "decreaseMaxMember",
      "outputs": [],
      "stateMutability": "nonpayable",
      "type": "function"
    },
    {
      "inputs": [
        {
          "internalType": "address",
          "name": "owner",
          "type": "address"
        },
        {
          "internalType": "address",
          "name": "spender",
          "type": "address"
        },
        {
          "internalType": "uint256",
          "name": "tonAmount",
          "type": "uint256"
        },
        {
          "internalType": "bytes",
          "name": "data",
          "type": "bytes"
        }
      ],
      "name": "onApprove",
      "outputs": [
        {
          "internalType": "bool",
          "name": "",
          "type": "bool"
        }
      ],
      "stateMutability": "nonpayable",
      "type": "function"
    },
    {
      "inputs": [
        {
          "internalType": "uint256",
          "name": "_quorum",
          "type": "uint256"
        }
      ],
      "name": "setQuorum",
      "outputs": [],
      "stateMutability": "nonpayable",
      "type": "function"
    },
    {
      "inputs": [
        {
          "internalType": "uint256",
          "name": "_fees",
          "type": "uint256"
        }
      ],
      "name": "setCreateAgendaFees",
      "outputs": [],
      "stateMutability": "nonpayable",
      "type": "function"
    },
    {
      "inputs": [
        {
          "internalType": "uint256",
          "name": "_minimumNoticePeriod",
          "type": "uint256"
        }
      ],
      "name": "setMinimumNoticePeriodSeconds",
      "outputs": [],
      "stateMutability": "nonpayable",
      "type": "function"
    },
    {
      "inputs": [
        {
          "internalType": "uint256",
          "name": "_minimumVotingPeriod",
          "type": "uint256"
        }
      ],
      "name": "setMinimumVotingPeriodSeconds",
      "outputs": [],
      "stateMutability": "nonpayable",
      "type": "function"
    },
    {
      "inputs": [
        {
          "internalType": "uint256",
          "name": "_executingPeriodSeconds",
          "type": "uint256"
        }
      ],
      "name": "setExecutingPeriodSeconds",
      "outputs": [],
      "stateMutability": "nonpayable",
      "type": "function"
    },
    {
      "inputs": [
        {
          "internalType": "uint256",
          "name": "_agendaID",
          "type": "uint256"
        },
        {
          "internalType": "uint256",
          "name": "_vote",
          "type": "uint256"
        },
        {
          "internalType": "string",
          "name": "_comment",
          "type": "string"
        }
      ],
      "name": "castVote",
      "outputs": [],
      "stateMutability": "nonpayable",
      "type": "function"
    },
    {
      "inputs": [
        {
          "internalType": "uint256",
          "name": "_agendaID",
          "type": "uint256"
        }
      ],
      "name": "endAgendaVoting",
      "outputs": [],
      "stateMutability": "nonpayable",
      "type": "function"
    },
    {
      "inputs": [
        {
          "internalType": "uint256",
          "name": "_agendaID",
          "type": "uint256"
        }
      ],
      "name": "executeAgenda",
      "outputs": [],
      "stateMutability": "nonpayable",
      "type": "function"
    },
    {
      "inputs": [
        {
          "internalType": "uint256",
          "name": "_agendaID",
          "type": "uint256"
        },
        {
          "internalType": "uint256",
          "name": "_status",
          "type": "uint256"
        },
        {
          "internalType": "uint256",
          "name": "_result",
          "type": "uint256"
        }
      ],
      "name": "setAgendaStatus",
      "outputs": [],
      "stateMutability": "nonpayable",
      "type": "function"
    },
    {
      "inputs": [
        {
          "internalType": "address",
          "name": "_candidate",
          "type": "address"
        }
      ],
      "name": "updateSeigniorage",
      "outputs": [
        {
          "internalType": "bool",
          "name": "",
          "type": "bool"
        }
      ],
      "stateMutability": "nonpayable",
      "type": "function"
    },
    {
      "inputs": [
        {
          "internalType": "address[]",
          "name": "_candidates",
          "type": "address[]"
        }
      ],
      "name": "updateSeigniorages",
      "outputs": [
        {
          "internalType": "bool",
          "name": "",
          "type": "bool"
        }
      ],
      "stateMutability": "nonpayable",
      "type": "function"
    },
    {
      "inputs": [
        {
          "internalType": "address",
          "name": "_receiver",
          "type": "address"
        }
      ],
      "name": "claimActivityReward",
      "outputs": [],
      "stateMutability": "nonpayable",
      "type": "function"
    },
    {
      "inputs": [
        {
          "internalType": "address",
          "name": "_candidate",
          "type": "address"
        }
      ],
      "name": "isCandidate",
      "outputs": [
        {
          "internalType": "bool",
          "name": "",
          "type": "bool"
        }
      ],
      "stateMutability": "view",
      "type": "function",
      "constant": true
    },
    {
      "inputs": [
        {
          "internalType": "address",
          "name": "_candidate",
          "type": "address"
        }
      ],
      "name": "totalSupplyOnCandidate",
      "outputs": [
        {
          "internalType": "uint256",
          "name": "totalsupply",
          "type": "uint256"
        }
      ],
      "stateMutability": "view",
      "type": "function",
      "constant": true
    },
    {
      "inputs": [
        {
          "internalType": "address",
          "name": "_candidate",
          "type": "address"
        },
        {
          "internalType": "address",
          "name": "_account",
          "type": "address"
        }
      ],
      "name": "balanceOfOnCandidate",
      "outputs": [
        {
          "internalType": "uint256",
          "name": "amount",
          "type": "uint256"
        }
      ],
      "stateMutability": "view",
      "type": "function",
      "constant": true
    },
    {
      "inputs": [
        {
          "internalType": "address",
          "name": "_candidateContract",
          "type": "address"
        }
      ],
      "name": "totalSupplyOnCandidateContract",
      "outputs": [
        {
          "internalType": "uint256",
          "name": "totalsupply",
          "type": "uint256"
        }
      ],
      "stateMutability": "view",
      "type": "function",
      "constant": true
    },
    {
      "inputs": [
        {
          "internalType": "address",
          "name": "_candidateContract",
          "type": "address"
        },
        {
          "internalType": "address",
          "name": "_account",
          "type": "address"
        }
      ],
      "name": "balanceOfOnCandidateContract",
      "outputs": [
        {
          "internalType": "uint256",
          "name": "amount",
          "type": "uint256"
        }
      ],
      "stateMutability": "view",
      "type": "function",
      "constant": true
    },
    {
      "inputs": [],
      "name": "candidatesLength",
      "outputs": [
        {
          "internalType": "uint256",
          "name": "",
          "type": "uint256"
        }
      ],
      "stateMutability": "view",
      "type": "function",
      "constant": true
    },
    {
      "inputs": [
        {
          "internalType": "address",
          "name": "_candidate",
          "type": "address"
        }
      ],
      "name": "isExistCandidate",
      "outputs": [
        {
          "internalType": "bool",
          "name": "isExist",
          "type": "bool"
        }
      ],
      "stateMutability": "view",
      "type": "function",
      "constant": true
    },
    {
      "inputs": [
        {
          "internalType": "address",
          "name": "_candidate",
          "type": "address"
        }
      ],
      "name": "getClaimableActivityReward",
      "outputs": [
        {
          "internalType": "uint256",
          "name": "",
          "type": "uint256"
        }
      ],
      "stateMutability": "view",
      "type": "function",
      "constant": true
    }
  ],
  "bytecode": "0x608060405234801561001057600080fd5b50615231806100206000396000f3fe608060405234801561001057600080fd5b50600436106103af5760003560e01c806369154295116101f4578063a1ea35251161011a578063c4ef9c00116100ad578063cf2a239c1161007c578063cf2a239c146107b9578063d51b9e93146107c1578063d525f04f146107d4578063d547741f146107e7576103af565b8063c4ef9c0014610783578063c7cac42c1461078b578063ca15c8731461079e578063cc48b947146107b1576103af565b8063b4f69b6a116100e9578063b4f69b6a14610742578063b5dd115814610755578063c0bc53041461075d578063c1ba4e5914610770576103af565b8063a1ea352514610701578063a217fddf14610714578063a230c5241461071c578063ad6675dc1461072f576103af565b806378767d331161019257806389ea43001161016157806389ea4300146106b55780639010d07c146106c857806391d14854146106db5780639932e94c146106ee576103af565b806378767d33146106745780637f33163614610687578063805aca201461068f578063885b4696146106a2576103af565b80636da8f3ce116101ce5780636da8f3ce1461063e5780636fb7f558146106515780637657f20a14610659578063773b7f651461066c576103af565b8063691542951461060557806369b1227a146106185780636becff271461062b576103af565b80634273ca16116102d957806357f0a867116102775780635ebe7622116102465780635ebe7622146105b95780635fba7a56146105cc578063607cf734146105df578063651d08cd146105f2576103af565b806357f0a867146105785780635903bd6c1461058b5780635c43030f146105935780635daf08ca146105a6576103af565b80634b799db1116102b35780634b799db11461052c5780634d288fec1461053f57806350e8f17d14610552578063561a1dab14610565576103af565b80634273ca16146104f3578063440b69ad1461050657806349c39f1414610519576103af565b8063248a9ca3116103515780632e011c1e116103205780632e011c1e146104965780632f2ff15d146104ba5780633477ee2e146104cd57806336568abe146104e0576103af565b8063248a9ca31461044857806324f99b1e1461045b57806327fd92fd1461046e5780632af60ff414610483576103af565b806316f7f9821161038d57806316f7f982146104075780631703a0181461041a578063216f486b1461042257806323d09fdf14610435576103af565b806303e3c9ac146103b4578063047f52f2146103d257806311f19e04146103e7575b600080fd5b6103bc6107fa565b6040516103c9919061484e565b60405180910390f35b6103e56103e0366004614025565b610800565b005b6103fa6103f5366004614440565b610878565b6040516103c99190614843565b6103bc61041536600461405d565b610c3e565b6103bc610ceb565b6103e5610430366004614440565b610cf1565b6103e5610443366004614440565b610fb9565b6103bc610456366004614440565b61108c565b6103e56104693660046144e8565b6110a1565b610476611512565b6040516103c99190614645565b6103e5610491366004614025565b611521565b6104a96104a4366004614025565b611590565b6040516103c995949392919061475f565b6103e56104c8366004614458565b6115c9565b6104766104db366004614440565b611630565b6103e56104ee366004614458565b61165a565b6103fa6105013660046140f4565b6116bb565b6103e5610514366004614095565b6116f5565b6103e5610527366004614025565b611801565b6103e561053a366004614025565b611870565b6103e561054d366004614025565b6118df565b6103e561056036600461447c565b61194e565b6103fa610573366004614025565b611b1d565b6103fa610586366004614203565b611b3d565b610476611b7d565b6103e56105a1366004614242565b611b8c565b6104766105b4366004614440565b611c74565b6103e56105c7366004614440565b611c84565b6103e56105da36600461449d565b611cb0565b6103e56105ed366004614164565b612031565b610476610600366004614025565b61225f565b6103e5610613366004614242565b61227d565b6103e5610626366004614440565b61235f565b6103e5610639366004614025565b6123fd565b6103e561064c36600461447c565b612572565b6104766125ff565b6103e5610667366004614025565b61260e565b6103bc61267d565b6103bc610682366004614025565b612683565b6103bc61271c565b6103e561069d366004614538565b612722565b6103e56106b0366004614440565b61282a565b6103fa6106c3366004614025565b61285a565b6104766106d636600461447c565b6128ec565b6103fa6106e9366004614458565b612904565b6103bc6106fc366004614025565b61291c565b6103e561070f3660046141b6565b6129ae565b6103bc612a8e565b6103fa61072a366004614025565b612a93565b6103bc61073d366004614025565b612ab3565b6103e5610750366004614440565b612aca565b610476612b68565b6103e561076b366004614440565b612b77565b6103e561077e366004614440565b612c15565b6103fa612d05565b6103e5610799366004614164565b612ee6565b6103bc6107ac366004614440565b612efe565b610476612f15565b610476612f24565b6103fa6107cf366004614025565b612f33565b6103bc6107e236600461405d565b61300e565b6103e56107f5366004614458565b613026565b60085481565b61080b600033612904565b6108305760405162461bcd60e51b815260040161082790614c84565b60405180910390fd5b6001600160a01b0381166108565760405162461bcd60e51b815260040161082790614bf7565b600380546001600160a01b0319166001600160a01b0392909216919091179055565b600080336001600160a01b0316636c8381f86040518163ffffffff1660e01b815260040160206040518083038186803b1580156108b457600080fd5b505afa1580156108c8573d6000803e3d6000fd5b505050506040513d601f19601f820116820180604052508101906108ec9190614041565b6001600160a01b0381166000908152600960209081526040918290208251631dffc87160e21b815292519394509233926377ff21c4926004808301939192829003018186803b15801561093e57600080fd5b505afa158015610952573d6000803e3d6000fd5b505050506040513d601f19601f820116820180604052508101906109769190614420565b6109925760405162461bcd60e51b815260040161082790614e3e565b60085484106109b35760405162461bcd60e51b815260040161082790614dfa565b80546001600160a01b03166109da5760405162461bcd60e51b815260040161082790614dae565b6001810154156109fc5760405162461bcd60e51b815260040161082790614ad8565b600060078581548110610a0b57fe5b60009182526020822001546001600160a01b03169150610a2a8261225f565b4260018501556002840187905560078054919250859188908110610a4a57fe5b600091825260209091200180546001600160a01b0319166001600160a01b039283161790558216610ab257836001600160a01b03168660008051602061510483398151915284604051610a9d9190614645565b60405180910390a36001945050505050610c39565b806001600160a01b031663817b1cd26040518163ffffffff1660e01b815260040160206040518083038186803b158015610aeb57600080fd5b505afa158015610aff573d6000803e3d6000fd5b505050506040513d601f19601f82011682018060405250810190610b2391906144d0565b336001600160a01b031663817b1cd26040518163ffffffff1660e01b815260040160206040518083038186803b158015610b5c57600080fd5b505afa158015610b70573d6000803e3d6000fd5b505050506040513d601f19601f82011682018060405250810190610b9491906144d0565b11610bb15760405162461bcd60e51b8152600401610827906148fa565b6001600160a01b038216600090815260096020526040812060028101919091556001810154610bf090610be590429061307f565b6003830154906130c1565b6003820155600060018201556040516001600160a01b03861690889060008051602061510483398151915290610c27908790614645565b60405180910390a36001955050505050505b919050565b60006001600160a01b038316610c665760405162461bcd60e51b8152600401610827906149c1565b60405163af500ba360e01b81526001600160a01b0384169063af500ba390610c92908590600401614645565b60206040518083038186803b158015610caa57600080fd5b505afa158015610cbe573d6000803e3d6000fd5b505050506040513d601f19601f82011682018060405250810190610ce291906144d0565b90505b92915050565b600a5481565b6002546001600160a01b0316610d385760405162461bcd60e51b815260040180806020018281038252602c815260200180615145602c913960400191505060405180910390fd5b6002546040516377f28d5b60e01b81526001600160a01b03909116906377f28d5b90610d6890849060040161484e565b60206040518083038186803b158015610d8057600080fd5b505afa158015610d94573d6000803e3d6000fd5b505050506040513d601f19601f82011682018060405250810190610db89190614420565b610dd45760405162461bcd60e51b815260040161082790614b5f565b6002546040516373ba374560e01b815260009182916001600160a01b03909116906373ba374590610e0990869060040161484e565b60006040518083038186803b158015610e2157600080fd5b505afa158015610e35573d6000803e3d6000fd5b505050506040513d6000823e601f3d908101601f19168201604052610e5d9190810190614296565b600254604051631b8c251960e11b81529294509092506001600160a01b0316906337184a3290610e9190869060040161484e565b600060405180830381600087803b158015610eab57600080fd5b505af1158015610ebf573d6000803e3d6000fd5b5050505060005b8251811015610f7b576000838281518110610edd57fe5b60200260200101516001600160a01b0316838381518110610efa57fe5b6020026020010151604051610f0f9190614629565b6000604051808303816000865af19150503d8060008114610f4c576040519150601f19603f3d011682016040523d82523d6000602084013e610f51565b606091505b5050905080610f725760405162461bcd60e51b815260040161082790614e8e565b50600101610ec6565b50827f785146be3266678a3f4ea454b310ff1f8c91d0ad9a7997bcd0619940d4d67fe683604051610fac919061478d565b60405180910390a2505050565b610fc4600033612904565b610fe05760405162461bcd60e51b815260040161082790614c84565b6002546001600160a01b03166110275760405162461bcd60e51b815260040180806020018281038252602c815260200180615145602c913960400191505060405180910390fd5b6002546040516323d09fdf60e01b81526001600160a01b03909116906323d09fdf9061105790849060040161484e565b600060405180830381600087803b15801561107157600080fd5b505af1158015611085573d6000803e3d6000fd5b5050505050565b6000908152600c602052604090206002015490565b6002546001600160a01b03166110e85760405162461bcd60e51b815260040180806020018281038252602c815260200180615145602c913960400191505060405180910390fd5b6000336001600160a01b0316636c8381f86040518163ffffffff1660e01b815260040160206040518083038186803b15801561112357600080fd5b505afa158015611137573d6000803e3d6000fd5b505050506040513d601f19601f8201168201806040525081019061115b9190614041565b600254604051637e77eb2360e01b81529192506001600160a01b031690637e77eb239061119090889085908990600401614f28565b602060405180830381600087803b1580156111aa57600080fd5b505af11580156111be573d6000803e3d6000fd5b505050506040513d601f19601f820116820180604052508101906111e29190614420565b50600254604051635772521560e11b8152600091829182916001600160a01b03169063aee4a42a90611218908b9060040161484e565b60606040518083038186803b15801561123057600080fd5b505afa158015611244573d6000803e3d6000fd5b505050506040513d601f19601f820116820180604052508101906112689190614563565b92509250925082600a541161134657600254604051632b0a851b60e11b81526001600160a01b03909116906356150a36906112aa908b90600190600401614f47565b600060405180830381600087803b1580156112c457600080fd5b505af11580156112d8573d6000803e3d6000fd5b5050600254604051633625b75960e21b81526001600160a01b03909116925063d896dd64915061130f908b90600390600401614f65565b600060405180830381600087803b15801561132957600080fd5b505af115801561133d573d6000803e3d6000fd5b505050506114c2565b81600a54116113e55760028054604051632b0a851b60e11b81526001600160a01b03909116916356150a3691611380918c91600401614f47565b600060405180830381600087803b15801561139a57600080fd5b505af11580156113ae573d6000803e3d6000fd5b5050600254604051633625b75960e21b81526001600160a01b03909116925063d896dd64915061130f908b90600590600401614f65565b6113ef81836130c1565b600a54116114c257600254604051632b0a851b60e11b81526001600160a01b03909116906356150a369061142a908b90600390600401614f47565b600060405180830381600087803b15801561144457600080fd5b505af1158015611458573d6000803e3d6000fd5b5050600254604051633625b75960e21b81526001600160a01b03909116925063d896dd64915061148f908b90600590600401614f65565b600060405180830381600087803b1580156114a957600080fd5b505af11580156114bd573d6000803e3d6000fd5b505050505b87336001600160a01b03167ffa0761008653bc7bf9fa040fb7e07672ad3e17a976eb452c44e81dd782a6214b89898960405161150093929190614f76565b60405180910390a35050505050505050565b6002546001600160a01b031681565b61152c600033612904565b6115485760405162461bcd60e51b815260040161082790614c84565b6001600160a01b03811661156e5760405162461bcd60e51b815260040161082790614bf7565b600480546001600160a01b0319166001600160a01b0392909216919091179055565b600960205260009081526040902080546001820154600283015460038401546004909401546001600160a01b0390931693919290919085565b6000828152600c60205260409020600201546115e7906106e961311b565b6116225760405162461bcd60e51b815260040180806020018281038252602f815260200180615055602f913960400191505060405180910390fd5b61162c828261311f565b5050565b6006818154811061164057600080fd5b6000918252602090912001546001600160a01b0316905081565b61166261311b565b6001600160a01b0316816001600160a01b0316146116b15760405162461bcd60e51b815260040180806020018281038252602f8152602001806151cd602f913960400191505060405180910390fd5b61162c8282613188565b6000806116c884846131f1565b90506116e787826000015183602001518460400151856060015161321c565b506001979650505050505050565b611700600033612904565b61171c5760405162461bcd60e51b815260040161082790614c84565b6005546001600160a01b03166117635760405162461bcd60e51b815260040180806020018281038252602b8152602001806151a2602b913960400191505060405180910390fd5b6004546001600160a01b03166117aa5760405162461bcd60e51b815260040180806020018281038252602d8152602001806150a7602d913960400191505060405180910390fd5b6003546001600160a01b03166117f15760405162461bcd60e51b81526004018080602001828103825260318152602001806151716031913960400191505060405180910390fd5b6117fc83838361334a565b505050565b61180c600033612904565b6118285760405162461bcd60e51b815260040161082790614c84565b6001600160a01b03811661184e5760405162461bcd60e51b815260040161082790614bf7565b600280546001600160a01b0319166001600160a01b0392909216919091179055565b61187b600033612904565b6118975760405162461bcd60e51b815260040161082790614c84565b6001600160a01b0381166118bd5760405162461bcd60e51b815260040161082790614bf7565b600180546001600160a01b0319166001600160a01b0392909216919091179055565b6118ea600033612904565b6119065760405162461bcd60e51b815260040161082790614c84565b6001600160a01b03811661192c5760405162461bcd60e51b815260040161082790614bf7565b600080546001600160a01b0319166001600160a01b0392909216919091179055565b611959600033612904565b6119755760405162461bcd60e51b815260040161082790614c84565b60006007838154811061198457fe5b60009182526020808320909101546001600160a01b03168083526009909152604090912060075491925090600019018414611a4157600780546000919060001981019081106119cf57fe5b60009182526020808320909101546001600160a01b0316808352600990915260409091206002810187905560078054929350909183919088908110611a1057fe5b9060005260206000200160006101000a8154816001600160a01b0302191690836001600160a01b0316021790555050505b600060028201556001810154611a5c90610be590429061307f565b6003820155600060018201556007805480611a7357fe5b600082815260209020810160001990810180546001600160a01b0319169055019055600854611aa390600161307f565b600855611aaf83612c15565b60006001600160a01b03168460008051602061510483398151915284604051611ad89190614645565b60405180910390a3600854611aee8160016130c1565b6040517f8c0366d1e3a335a312d012257ee764723c38ec2dd5e74cbfad372513521f977190600090a350505050565b6001600160a01b0390811660009081526009602052604090205416151590565b6000805b82811015611b7657611b6d848483818110611b5857fe5b90506020020160208101906106c39190614025565b50600101611b41565b5092915050565b6001546001600160a01b031681565b611b97600033612904565b611bb35760405162461bcd60e51b815260040161082790614c84565b6001600160a01b038116611bd95760405162461bcd60e51b815260040161082790614bf7565b60005b82811015611c6e57838382818110611bf057fe5b9050602002016020810190611c059190614025565b6001600160a01b031663bddae40e836040518263ffffffff1660e01b8152600401611c309190614645565b600060405180830381600087803b158015611c4a57600080fd5b505af1158015611c5e573d6000803e3d6000fd5b505060019092019150611bdc9050565b50505050565b6007818154811061164057600080fd5b611c8f600033612904565b611cab5760405162461bcd60e51b815260040161082790614c84565b600b55565b6005546001600160a01b0316611cf75760405162461bcd60e51b815260040180806020018281038252602b8152602001806151a2602b913960400191505060405180910390fd5b6004546001600160a01b0316611d3e5760405162461bcd60e51b815260040180806020018281038252602d8152602001806150a7602d913960400191505060405180910390fd5b6003546001600160a01b0316611d855760405162461bcd60e51b81526004018080602001828103825260318152602001806151716031913960400191505060405180910390fd5b611d8e33611b1d565b15611dab5760405162461bcd60e51b815260040161082790614d65565b60035460055460405163732518fb60e11b81526000926001600160a01b039081169263e64a31f692611dec92339287928a928a923092911690600401614659565b602060405180830381600087803b158015611e0657600080fd5b505af1158015611e1a573d6000803e3d6000fd5b505050506040513d601f19601f82011682018060405250810190611e3e9190614041565b90506001600160a01b038116611e665760405162461bcd60e51b815260040161082790614b0f565b60048054600554604051635e58d38f60e11b81526001600160a01b039283169363bcb1a71e93611e9b938793911691016146b8565b602060405180830381600087803b158015611eb557600080fd5b505af1158015611ec9573d6000803e3d6000fd5b505050506040513d601f19601f82011682018060405250810190611eed9190614420565b611f095760405162461bcd60e51b815260040161082790614ba7565b336000908152600960205260409020546001600160a01b031615611f3f5760405162461bcd60e51b815260040161082790614a42565b6040805160a0810182526001600160a01b038084168083526000602080850182815285870183815260608701848152608088018581523380875260099095528986209851895498166001600160a01b031998891617895592516001808a01919091559151600289015551600388015590516004909601959095556006805495860181559091527ff652222313e28459528d920b65115c16c04f3efc82aaedc97be59f3f377c0d3f9093018054909216831790915591517f7cf8db18d9a5c7f44156bfabdbb59ac982a8a004e461ca1b87ee71a5cdfbc5ef906120249087908790614857565b60405180910390a3505050565b6000836001600160a01b0316636c8381f86040518163ffffffff1660e01b815260040160206040518083038186803b15801561206c57600080fd5b505afa158015612080573d6000803e3d6000fd5b505050506040513d601f19601f820116820180604052508101906120a49190614041565b90506000819050846001600160a01b0316639b6382686040518163ffffffff1660e01b815260040160206040518083038186803b1580156120e457600080fd5b505afa1580156120f8573d6000803e3d6000fd5b505050506040513d601f19601f8201168201806040525081019061211c9190614420565b1561219557816001600160a01b031663570ca7356040518163ffffffff1660e01b815260040160206040518083038186803b15801561215a57600080fd5b505afa15801561216e573d6000803e3d6000fd5b505050506040513d601f19601f820116820180604052508101906121929190614041565b90505b336001600160a01b038216146121bd5760405162461bcd60e51b815260040161082790614d08565b6040516325d6086160e01b81526001600160a01b038616906325d60861906121eb9087908790600401614857565b600060405180830381600087803b15801561220557600080fd5b505af1158015612219573d6000803e3d6000fd5b505050507fda033346b344f4675799a7ab4d837f0deb62d4afcdcaba4613913b4c25838cb38285856040516122509392919061473a565b60405180910390a15050505050565b6001600160a01b039081166000908152600960205260409020541690565b612288600033612904565b6122a45760405162461bcd60e51b815260040161082790614c84565b6001600160a01b0381166122ca5760405162461bcd60e51b815260040161082790614bf7565b60005b82811015611c6e578383828181106122e157fe5b90506020020160208101906122f69190614025565b6001600160a01b0316637657f20a836040518263ffffffff1660e01b81526004016123219190614645565b600060405180830381600087803b15801561233b57600080fd5b505af115801561234f573d6000803e3d6000fd5b5050600190920191506122cd9050565b61236a600033612904565b6123865760405162461bcd60e51b815260040161082790614c84565b6002546001600160a01b03166123cd5760405162461bcd60e51b815260040180806020018281038252602c815260200180615145602c913960400191505060405180910390fd5b6002546040516334d8913d60e11b81526001600160a01b03909116906369b1227a9061105790849060040161484e565b6000336001600160a01b0316636c8381f86040518163ffffffff1660e01b815260040160206040518083038186803b15801561243857600080fd5b505afa15801561244c573d6000803e3d6000fd5b505050506040513d601f19601f820116820180604052508101906124709190614041565b6001600160a01b03811660009081526009602052604081209192506124948361291c565b9050600081116124b65760405162461bcd60e51b8152600401610827906149f8565b600154604051633bc3556560e21b81526001600160a01b039091169063ef0d5594906124e8908790859060040161469f565b600060405180830381600087803b15801561250257600080fd5b505af1158015612516573d6000803e3d6000fd5b50504260048501555050600060038301556040516001600160a01b038416907fb15377c434dc1922cc2eb7d8950640960a05f0cf6d5dc9442de8414a9da2b30890612564908790859061469f565b60405180910390a250505050565b61257d600033612904565b6125995760405162461bcd60e51b815260040161082790614c84565b81600854106125ba5760405162461bcd60e51b815260040161082790614c1d565b6008546040518391907f8c0366d1e3a335a312d012257ee764723c38ec2dd5e74cbfad372513521f977190600090a360088290556125f6613783565b61162c81612c15565b6005546001600160a01b031681565b612619600033612904565b6126355760405162461bcd60e51b815260040161082790614c84565b6001600160a01b03811661265b5760405162461bcd60e51b815260040161082790614bf7565b600580546001600160a01b0319166001600160a01b0392909216919091179055565b60065490565b60006001600160a01b0382166126ab5760405162461bcd60e51b8152600401610827906149c1565b816001600160a01b031663817b1cd26040518163ffffffff1660e01b815260040160206040518083038186803b1580156126e457600080fd5b505afa1580156126f8573d6000803e3d6000fd5b505050506040513d601f19601f82011682018060405250810190610ce591906144d0565b600b5481565b61272d600033612904565b6127495760405162461bcd60e51b815260040161082790614c84565b6002546001600160a01b03166356150a368483600381111561276757fe5b6040518363ffffffff1660e01b8152600401612784929190614f47565b600060405180830381600087803b15801561279e57600080fd5b505af11580156127b2573d6000803e3d6000fd5b50506002546001600160a01b0316915063d896dd649050848460058111156127d657fe5b6040518363ffffffff1660e01b81526004016127f3929190614f65565b600060405180830381600087803b15801561280d57600080fd5b505af1158015612821573d6000803e3d6000fd5b50505050505050565b60025460405163442da34b60e11b81526001600160a01b039091169063885b46969061105790849060040161484e565b6001600160a01b038082166000908152600960209081526040808320548151633b253c2b60e11b8152915193941692839263764a7856926004808201939182900301818887803b1580156128ad57600080fd5b505af11580156128c1573d6000803e3d6000fd5b505050506040513d601f19601f820116820180604052508101906128e59190614420565b9392505050565b6000828152600c60205260408120610ce290836137db565b6000828152600c60205260408120610ce290836137e7565b6001600160a01b038116600090815260096020526040812060038101546001820154156129985781600401548260010154111561297b5761297461296d83600101544261307f90919063ffffffff16565b82906130c1565b9050612998565b61299561296d83600401544261307f90919063ffffffff16565b90505b600b546129a69082906137fc565b949350505050565b6005546001600160a01b03166129f55760405162461bcd60e51b815260040180806020018281038252602b8152602001806151a2602b913960400191505060405180910390fd5b6004546001600160a01b0316612a3c5760405162461bcd60e51b815260040180806020018281038252602d8152602001806150a7602d913960400191505060405180910390fd5b6003546001600160a01b0316612a835760405162461bcd60e51b81526004018080602001828103825260318152602001806151716031913960400191505060405180910390fd5b61162c33838361334a565b600081565b6001600160a01b0316600090815260096020526040902060010154151590565b600080612abf8361225f565b90506128e581612683565b612ad5600033612904565b612af15760405162461bcd60e51b815260040161082790614c84565b6002546001600160a01b0316612b385760405162461bcd60e51b815260040180806020018281038252602c815260200180615145602c913960400191505060405180910390fd5b600254604051635a7b4db560e11b81526001600160a01b039091169063b4f69b6a9061105790849060040161484e565b6003546001600160a01b031681565b612b82600033612904565b612b9e5760405162461bcd60e51b815260040161082790614c84565b6002546001600160a01b0316612be55760405162461bcd60e51b815260040180806020018281038252602c815260200180615145602c913960400191505060405180910390fd5b60025460405163302f14c160e21b81526001600160a01b039091169063c0bc53049061105790849060040161484e565b612c20600033612904565b612c3c5760405162461bcd60e51b815260040161082790614c84565b6002546001600160a01b0316612c835760405162461bcd60e51b815260040180806020018281038252602c815260200180615145602c913960400191505060405180910390fd5b60008111612ca35760405162461bcd60e51b81526004016108279061487e565b600854811115612cc55760405162461bcd60e51b815260040161082790614925565b600a8190556040517f027863d12a407097e086a48e36475bfc859d0b200b7e6f65b5fd3b218e46632e90612cfa90839061484e565b60405180910390a150565b600080336001600160a01b0316636c8381f86040518163ffffffff1660e01b815260040160206040518083038186803b158015612d4157600080fd5b505afa158015612d55573d6000803e3d6000fd5b505050506040513d6020811015612d6b57600080fd5b50519050612d7881612a93565b612db35760405162461bcd60e51b81526004018080602001828103825260238152602001806150846023913960400191505060405180910390fd5b6000336001600160a01b0316636c8381f86040518163ffffffff1660e01b815260040160206040518083038186803b158015612dee57600080fd5b505afa158015612e02573d6000803e3d6000fd5b505050506040513d601f19601f82011682018060405250810190612e269190614041565b6001600160a01b038116600090815260096020526040812060028101546007805494955091938110612e5457fe5b9060005260206000200160006101000a8154816001600160a01b0302191690836001600160a01b03160217905550612e9c610be582600101544261307f90919063ffffffff16565b6003820155600060018201819055600282015460405160008051602061510483398151915290612ecd908690614645565b60405180910390a3600060029091015550600191505090565b6000612ef18461225f565b9050611c6e818484612031565b6000818152600c60205260408120610ce590613855565b6000546001600160a01b031681565b6004546001600160a01b031681565b6001600160a01b03808216600090815260096020526040812080549192909116612f61576000915050610c39565b8054600090612f80906001600160a01b0316631dffc87160e21b613860565b905080612f9257600092505050610c39565b815460408051631dffc87160e21b815290516001600160a01b03909216916377ff21c491600480820192602092909190829003018186803b158015612fd657600080fd5b505afa158015612fea573d6000803e3d6000fd5b505050506040513d601f19601f820116820180604052508101906129a69190614420565b60008061301a8461225f565b90506129a68184610c3e565b6000828152600c6020526040902060020154613044906106e961311b565b6116b15760405162461bcd60e51b81526004018080602001828103825260308152602001806150d46030913960400191505060405180910390fd5b6000610ce283836040518060400160405280601e81526020017f536166654d6174683a207375627472616374696f6e206f766572666c6f77000081525061387c565b600082820183811015610ce2576040805162461bcd60e51b815260206004820152601b60248201527f536166654d6174683a206164646974696f6e206f766572666c6f770000000000604482015290519081900360640190fd5b3390565b6000828152600c602052604090206131379082613913565b1561162c5761314461311b565b6001600160a01b0316816001600160a01b0316837f2f8788117e7eff1d82e926ec794901d17c78024a50270940304540a733656f0d60405160405180910390a45050565b6000828152600c602052604090206131a09082613928565b1561162c576131ad61311b565b6001600160a01b0316816001600160a01b0316837ff6391f5c32d9c69d2a47ea670b442974b53935d1edc7fd64eb21e047a839171b60405160405180910390a45050565b6131f9613e1a565b6132058284018461434e565b606085015260408401526020830152815292915050565b6002546000906001600160a01b03166132665760405162461bcd60e51b815260040180806020018281038252602c815260200180615145602c913960400191505060405180910390fd5b61326f8661393d565b60025460405163d30bbcbf60e01b81526000916001600160a01b03169063d30bbcbf906132a69089908990899089906004016147c5565b602060405180830381600087803b1580156132c057600080fd5b505af11580156132d4573d6000803e3d6000fd5b505050506040513d601f19601f820116820180604052508101906132f891906144d0565b905080876001600160a01b03167fb0c20bab69de391cff8f119cf876e708b1b41868e0fd397cbcd2b4d3c623b5b8888888604051613338939291906147a0565b60405180910390a39695505050505050565b6005546001600160a01b03166133915760405162461bcd60e51b815260040180806020018281038252602b8152602001806151a2602b913960400191505060405180910390fd5b6004546001600160a01b03166133d85760405162461bcd60e51b815260040180806020018281038252602d8152602001806150a7602d913960400191505060405180910390fd5b6003546001600160a01b031661341f5760405162461bcd60e51b81526004018080602001828103825260318152602001806151716031913960400191505060405180910390fd5b61342882611b1d565b156134455760405162461bcd60e51b815260040161082790614d65565b6001600160a01b03821661346b5760405162461bcd60e51b815260040161082790614b0f565b6001600160a01b0382811660009081526009602052604090205416156134a35760405162461bcd60e51b815260040161082790614ed8565b6000829050806001600160a01b031663882eed2c6040518163ffffffff1660e01b815260040160206040518083038186803b1580156134e157600080fd5b505afa1580156134f5573d6000803e3d6000fd5b505050506040513d601f19601f820116820180604052508101906135199190614420565b6135355760405162461bcd60e51b8152600401610827906148b5565b836001600160a01b0316816001600160a01b031663570ca7356040518163ffffffff1660e01b815260040160206040518083038186803b15801561357857600080fd5b505afa15801561358c573d6000803e3d6000fd5b505050506040513d601f19601f820116820180604052508101906135b09190614041565b6001600160a01b0316146135d65760405162461bcd60e51b815260040161082790614cd1565b60035460055460405163732518fb60e11b81526000926001600160a01b039081169263e64a31f6926136159289926001928a92309216906004016146f6565b602060405180830381600087803b15801561362f57600080fd5b505af1158015613643573d6000803e3d6000fd5b505050506040513d601f19601f820116820180604052508101906136679190614041565b90506001600160a01b03811661368f5760405162461bcd60e51b815260040161082790614b0f565b6040805160a0810182526001600160a01b038084168083526000602080850182815285870183815260608701848152608088018581528d881680875260099095528986209851895498166001600160a01b031998891617895592516001808a01919091559151600289015551600388015590516004909601959095556006805495860181559091527ff652222313e28459528d920b65115c16c04f3efc82aaedc97be59f3f377c0d3f9093018054909216831790915591517f0f401d1bd976f5304ef9cfa87aeb24d777c0e205fb87bbae1dc0f0293ba7976a9061377490879061486b565b60405180910390a35050505050565b6007545b6008548110156137d85760078054600181810183556000929092527fa66cc928b5edb82af9bd49922954155ab7b0942694bea4ce44661d9a8736c6880180546001600160a01b031916905501613787565b50565b6000610ce28383613afe565b6000610ce2836001600160a01b038416613b62565b60008261380b57506000610ce5565b8282028284828161381857fe5b0414610ce25760405162461bcd60e51b81526004018080602001828103825260218152602001806151246021913960400191505060405180910390fd5b6000610ce582613b7a565b600061386b83613b7e565b8015610ce25750610ce28383613bb1565b6000818484111561390b5760405162461bcd60e51b81526004018080602001828103825283818151815260200191508051906020019080838360005b838110156138d05781810151838201526020016138b8565b50505050905090810190601f1680156138fd5780820380516001836020036101000a031916815260200191505b509250505060405180910390fd5b505050900390565b6000610ce2836001600160a01b038416613bd7565b6000610ce2836001600160a01b038416613c21565b60025460408051632522a32f60e01b815290516000926001600160a01b031691632522a32f916004808301926020929190829003018186803b15801561398257600080fd5b505afa158015613996573d6000803e3d6000fd5b505050506040513d601f19601f820116820180604052508101906139ba91906144d0565b6000546040516323b872dd60e01b81529192506001600160a01b0316906323b872dd906139ef908590309086906004016146d2565b602060405180830381600087803b158015613a0957600080fd5b505af1158015613a1d573d6000803e3d6000fd5b505050506040513d601f19601f82011682018060405250810190613a419190614420565b613a5d5760405162461bcd60e51b81526004016108279061496b565b60005460405163a9059cbb60e01b81526001600160a01b039091169063a9059cbb90613a9090600190859060040161469f565b602060405180830381600087803b158015613aaa57600080fd5b505af1158015613abe573d6000803e3d6000fd5b505050506040513d601f19601f82011682018060405250810190613ae29190614420565b61162c5760405162461bcd60e51b815260040161082790614a97565b81546000908210613b405760405162461bcd60e51b81526004018080602001828103825260228152602001806150336022913960400191505060405180910390fd5b826000018281548110613b4f57fe5b9060005260206000200154905092915050565b60009081526001919091016020526040902054151590565b5490565b6000613b91826301ffc9a760e01b613bb1565b8015610ce55750613baa826001600160e01b0319613bb1565b1592915050565b6000806000613bc08585613ce7565b91509150818015613bce5750805b95945050505050565b6000613be38383613b62565b613c1957508154600181810184556000848152602080822090930184905584548482528286019093526040902091909155610ce5565b506000610ce5565b60008181526001830160205260408120548015613cdd5783546000198083019190810190600090879083908110613c5457fe5b9060005260206000200154905080876000018481548110613c7157fe5b600091825260208083209091019290925582815260018981019092526040902090840190558654879080613ca157fe5b60019003818190600052602060002001600090559055866001016000878152602001908152602001600020600090556001945050505050610ce5565b6000915050610ce5565b604080516001600160e01b0319831660248083019190915282518083039091018152604490910182526020810180516001600160e01b03166301ffc9a760e01b17815291518151600093849392849283926001600160a01b038a169261753092879282918083835b60208310613d6e5780518252601f199092019160209182019101613d4f565b6001836020036101000a0380198251168184511680821785525050505050509050019150506000604051808303818686fa925050503d8060008114613dcf576040519150601f19603f3d011682016040523d82523d6000602084013e613dd4565b606091505b5091509150602081511015613df25760008094509450505050613e13565b81818060200190516020811015613e0857600080fd5b505190955093505050505b9250929050565b6040518060800160405280606081526020016000815260200160008152602001606081525090565b6000613e55613e5084614fd0565b614f90565b9050828152838383011115613e6957600080fd5b828260208301376000602084830101529392505050565b60008083601f840112613e91578182fd5b5081356001600160401b03811115613ea7578182fd5b6020830191508360208083028501011115613e1357600080fd5b600082601f830112613ed1578081fd5b81356020613ee1613e5083614fb3565b82815281810190858301855b85811015613f2b578135880189603f820112613f07578788fd5b613f188a8783013560408401613e42565b8552509284019290840190600101613eed565b5090979650505050505050565b600082601f830112613f48578081fd5b81516020613f58613e5083614fb3565b82815281810190858301855b85811015613f2b578151880189603f820112613f7e578788fd5b858101516040613f90613e5083614fd0565b8281528c82848601011115613fa3578a8bfd5b613fb2838a8301848701614ff1565b87525050509284019290840190600101613f64565b60008083601f840112613fd8578182fd5b5081356001600160401b03811115613fee578182fd5b602083019150836020828501011115613e1357600080fd5b600082601f830112614016578081fd5b610ce283833560208501613e42565b600060208284031215614036578081fd5b8135610ce28161501d565b600060208284031215614052578081fd5b8151610ce28161501d565b6000806040838503121561406f578081fd5b823561407a8161501d565b9150602083013561408a8161501d565b809150509250929050565b6000806000606084860312156140a9578081fd5b83356140b48161501d565b925060208401356140c48161501d565b915060408401356001600160401b038111156140de578182fd5b6140ea86828701614006565b9150509250925092565b60008060008060006080868803121561410b578283fd5b85356141168161501d565b945060208601356141268161501d565b93506040860135925060608601356001600160401b03811115614147578182fd5b61415388828901613fc7565b969995985093965092949392505050565b600080600060408486031215614178578081fd5b83356141838161501d565b925060208401356001600160401b0381111561419d578182fd5b6141a986828701613fc7565b9497909650939450505050565b600080604083850312156141c8578182fd5b82356141d38161501d565b915060208301356001600160401b038111156141ed578182fd5b6141f985828601614006565b9150509250929050565b60008060208385031215614215578182fd5b82356001600160401b0381111561422a578283fd5b61423685828601613e80565b90969095509350505050565b600080600060408486031215614256578081fd5b83356001600160401b0381111561426b578182fd5b61427786828701613e80565b909450925050602084013561428b8161501d565b809150509250925092565b600080604083850312156142a8578182fd5b82516001600160401b03808211156142be578384fd5b818501915085601f8301126142d1578384fd5b815160206142e1613e5083614fb3565b82815281810190858301838502870184018b10156142fd578889fd5b8896505b848710156143285780516143148161501d565b835260019690960195918301918301614301565b5091880151919650909350505080821115614341578283fd5b506141f985828601613f38565b60008060008060808587031215614363578182fd5b84356001600160401b0380821115614379578384fd5b818701915087601f83011261438c578384fd5b8135602061439c613e5083614fb3565b82815281810190858301838502870184018d10156143b8578889fd5b8896505b848710156143e35780356143cf8161501d565b8352600196909601959183019183016143bc565b50985050880135955050604087013593506060870135915080821115614407578283fd5b5061441487828801613ec1565b91505092959194509250565b600060208284031215614431578081fd5b81518015158114610ce2578182fd5b600060208284031215614451578081fd5b5035919050565b6000806040838503121561446a578182fd5b82359150602083013561408a8161501d565b6000806040838503121561448e578182fd5b50508035926020909101359150565b600080602083850312156144af578182fd5b82356001600160401b038111156144c4578283fd5b61423685828601613fc7565b6000602082840312156144e1578081fd5b5051919050565b600080600080606085870312156144fd578182fd5b843593506020850135925060408501356001600160401b03811115614520578283fd5b61452c87828801613fc7565b95989497509550505050565b60008060006060848603121561454c578081fd5b505081359360208301359350604090920135919050565b600080600060608486031215614577578081fd5b8351925060208401519150604084015190509250925092565b6000815180845260208085019450808401835b838110156145c85781516001600160a01b0316875295820195908201906001016145a3565b509495945050505050565b600081518084526145eb816020860160208601614ff1565b601f01601f19169290920160200192915050565b60008284528282602086013780602084860101526020601f19601f85011685010190509392505050565b6000825161463b818460208701614ff1565b9190910192915050565b6001600160a01b0391909116815260200190565b600060018060a01b038089168352871515602084015260a0604084015261468460a0840187896145ff565b94811660608401529290921660809091015250949350505050565b6001600160a01b03929092168252602082015260400190565b6001600160a01b0392831681529116602082015260400190565b6001600160a01b039384168152919092166020820152604081019190915260600190565b600060018060a01b038088168352861515602084015260a0604084015261472060a08401876145d3565b948116606084015292909216608090910152509392505050565b6001600160a01b0384168152604060208201819052600090613bce90830184866145ff565b6001600160a01b03959095168552602085019390935260408401919091526060830152608082015260a00190565b600060208252610ce26020830184614590565b6000606082526147b36060830186614590565b60208301949094525060400152919050565b6000608082526147d86080830187614590565b602086818501528560408501528382036060850152818551808452828401915082838202850101838801865b8381101561483257601f198784030185526148208383516145d3565b94860194925090850190600101614804565b50909b9a5050505050505050505050565b901515815260200190565b90815260200190565b6000602082526129a66020830184866145ff565b600060208252610ce260208301846145d3565b6020808252601c908201527f44414f436f6d6d69747465653a20696e76616c69642071756f72756d00000000604082015260600190565b60208082526025908201527f44414f436f6d6d69747465653a20696e76616c6964206c617965723220636f6e6040820152641d1c9858dd60da1b606082015260800190565b6020808252601190820152701b9bdd08195b9bdd59da08185b5bdd5b9d607a1b604082015260600190565b60208082526026908201527f44414f436f6d6d69747465653a2071756f72756d20657863656564206d61782060408201526536b2b6b132b960d11b606082015260800190565b60208082526036908201527f44414f436f6d6d697474656553746f72653a206661696c656420746f207472616040820152753739b332b9103a37b710333937b69031b932b0ba37b960511b606082015260800190565b6020808252601f908201527f54686973206163636f756e74206973206e6f7420612063616e64696461746500604082015260600190565b6020808252602a908201527f44414f436f6d6d69747465653a20796f7520646f6e2774206861766520636c6160408201526934b6b0b13632903a37b760b11b606082015260800190565b60208082526035908201527f44414f436f6d6d697474656553746f72653a205468652063616e64696461746560408201527408185b1c9958591e481a185cc818dbdb9d1c9858dd605a1b606082015260800190565b60208082526021908201527f44414f436f6d6d697474656553746f72653a206661696c656420746f206275726040820152603760f91b606082015260800190565b6020808252601c908201527f44414f436f6d6d69747465653a20616c7265616479206d656d62657200000000604082015260600190565b60208082526030908201527f44414f436f6d6d69747465653a206465706c6f7965642063616e64696461746560408201526f436f6e7472616374206973207a65726f60801b606082015260800190565b60208082526028908201527f44414f436f6d6d69747465653a2063616e206e6f74206578656375746520746860408201526765206167656e646160c01b606082015260800190565b60208082526030908201527f44414f436f6d6d69747465653a206661696c656420746f20726567697374657260408201526f416e644465706c6f79436f696e61676560801b606082015260800190565b6020808252600c908201526b7a65726f206164647265737360a01b604082015260600190565b60208082526041908201527f44414f436f6d6d697474656553746f72653a20596f75206861766520746f206360408201527f616c6c2064656372656173654d61784d656d62657220746f20646563726561736060820152606560f81b608082015260a00190565b6020808252602d908201527f44414f436f6d6d697474656550726f78793a206d73672e73656e64657220697360408201526c103737ba1030b71030b236b4b760991b606082015260800190565b6020808252601e908201527f44414f436f6d6d69747465653a20696e76616c6964206f70657261746f720000604082015260600190565b6020808252603a908201527f44414f436f6d6d69747465653a2073656e646572206973206e6f74207468652060408201527f63616e646964617465206f66207468697320636f6e7472616374000000000000606082015260800190565b60208082526029908201527f44414f436f6d6d69747465653a2063616e64696461746520616c7265616479206040820152681c9959da5cdd195c9960ba1b606082015260800190565b6020808252602c908201527f44414f436f6d6d69747465653a205468652061646472657373206973206e6f7460408201526b20612063616e64696461746560a01b606082015260800190565b60208082526024908201527f44414f436f6d6d69747465653a20696e646578206973206e6f7420617661696c60408201526361626c6560e01b606082015260800190565b60208082526030908201527f44414f436f6d6d69747465653a2073656e646572206973206e6f74206120636160408201526f1b991a59185d194818dbdb9d1c9858dd60821b606082015260800190565b6020808252602a908201527f44414f436f6d6d69747465653a204661696c656420746f206578656375746520604082015269746865206167656e646160b01b606082015260800190565b60208082526030908201527f44414f436f6d6d69747465653a205468652063616e64696461746520616c726560408201526f18591e481a185cc818dbdb9d1c9858dd60821b606082015260800190565b9283526001600160a01b03919091166020830152604082015260600190565b8281526040810160048310614f5857fe5b8260208301529392505050565b8281526040810160068310614f5857fe5b600084825260406020830152613bce6040830184866145ff565b6040518181016001600160401b0381118282101715614fab57fe5b604052919050565b60006001600160401b03821115614fc657fe5b5060209081020190565b60006001600160401b03821115614fe357fe5b50601f01601f191660200190565b60005b8381101561500c578181015183820152602001614ff4565b83811115611c6e5750506000910152565b6001600160a01b03811681146137d857600080fdfe456e756d657261626c655365743a20696e646578206f7574206f6620626f756e6473416363657373436f6e74726f6c3a2073656e646572206d75737420626520616e2061646d696e20746f206772616e7453746f726167655374617465436f6d6d69747465653a206e6f742061206d656d62657253746f726167655374617465436f6d6d69747465653a20756e76616c6964204c61796572325265676973747279416363657373436f6e74726f6c3a2073656e646572206d75737420626520616e2061646d696e20746f207265766f6b65663b98adf1afa777e36528b3293a057803f87ed00d2d2518dccfe5d7a6e99ccf536166654d6174683a206d756c7469706c69636174696f6e206f766572666c6f7753746f726167655374617465436f6d6d69747465653a204167656e64614d616e61676572206973207a65726f53746f726167655374617465436f6d6d69747465653a20756e76616c696420436f6d6d69747465654c32466163746f727953746f726167655374617465436f6d6d69747465653a20756e76616c696420536569674d616e6167657265416363657373436f6e74726f6c3a2063616e206f6e6c792072656e6f756e636520726f6c657320666f722073656c66a2646970667358221220c7e2e2c4aa0e8e0ebfd0564b5cffa046589b7716e4837485d00baffb2d41bf5764736f6c63430007060033",
  "immutableReferences": {},
  "source": "// SPDX-License-Identifier: MIT\npragma solidity ^0.7.6;\npragma abicoder v2;\n\nimport \"../../node_modules/@openzeppelin/contracts/access/AccessControl.sol\";\nimport \"./StorageStateCommittee.sol\";\n\nimport { SafeMath } from \"../../node_modules/@openzeppelin/contracts/math/SafeMath.sol\";\nimport { IERC20 } from  \"../../node_modules/@openzeppelin/contracts/token/ERC20/IERC20.sol\";\nimport { ICandidate } from \"../interfaces/ICandidate.sol\";\nimport { ILayer2 } from \"../interfaces/ILayer2.sol\";\nimport { IDAOAgendaManager } from \"../interfaces/IDAOAgendaManager.sol\";\nimport { LibAgenda } from \"../lib/Agenda.sol\";\nimport { ERC165Checker } from \"../../node_modules/@openzeppelin/contracts/introspection/ERC165Checker.sol\";\n\ncontract DAOCommittee is StorageStateCommittee, AccessControl {\n    using SafeMath for uint256;\n    using LibAgenda for *;\n     \n    enum ApplyResult { NONE, SUCCESS, NOT_ELECTION, ALREADY_COMMITTEE, SLOT_INVALID, ADDMEMBER_FAIL, LOW_BALANCE }\n\n    struct AgendaCreatingData {\n        address[] target;\n        uint256 noticePeriodSeconds;\n        uint256 votingPeriodSeconds;\n        bytes[] functionBytecode;\n    }\n\n    //////////////////////////////\n    // Events\n    //////////////////////////////\n\n    event QuorumChanged(\n        uint256 newQuorum\n    );\n\n    event AgendaCreated(\n        address indexed from,\n        uint256 indexed id,\n        address[] targets,\n        uint256 noticePeriodSeconds,\n        uint256 votingPeriodSeconds\n    );\n\n    event AgendaVoteCasted(\n        address indexed from,\n        uint256 indexed id,\n        uint voting,\n        string comment\n    );\n\n    event AgendaExecuted(\n        uint256 indexed id,\n        address[] target\n    );\n\n    event CandidateContractCreated(\n        address indexed candidate,\n        address indexed candidateContract,\n        string memo\n    );\n\n    event Layer2Registered(\n        address indexed candidate,\n        address indexed candidateContract,\n        string memo\n    );\n\n    event ChangedMember(\n        uint256 indexed slotIndex,\n        address prevMember,\n        address indexed newMember\n    );\n\n    event ChangedSlotMaximum(\n        uint256 indexed prevSlotMax,\n        uint256 indexed slotMax\n    );\n\n    event ClaimedActivityReward(\n        address indexed candidate,\n        address receiver,\n        uint256 amount\n    );\n\n    event ChangedMemo(\n        address candidate,\n        string newMemo\n    );\n    \n    modifier onlyOwner() {\n        require(hasRole(DEFAULT_ADMIN_ROLE, msg.sender), \"DAOCommitteeProxy: msg.sender is not an admin\");\n        _;\n    }\n\n    //////////////////////////////////////////////////////////////////////\n    // setters\n\n    /// @notice Set SeigManager contract address\n    /// @param _seigManager New SeigManager contract address\n    function setSeigManager(address _seigManager) public onlyOwner {\n        require(_seigManager != address(0), \"zero address\");\n        seigManager = ISeigManager(_seigManager);\n    }\n     \n    /// @notice Set SeigManager contract address on candidate contracts\n    /// @param _candidateContracts Candidate contracts to be set\n    /// @param _seigManager New SeigManager contract address\n    function setCandidatesSeigManager(\n        address[] calldata _candidateContracts,\n        address _seigManager\n    )\n        public\n        onlyOwner\n    {\n        require(_seigManager != address(0), \"zero address\");\n        for (uint256 i = 0; i < _candidateContracts.length; i++) {\n            ICandidate(_candidateContracts[i]).setSeigManager(_seigManager);\n        }\n    }\n\n    /// @notice Set DAOCommitteeProxy contract address on candidate contracts\n    /// @param _candidateContracts Candidate contracts to be set\n    /// @param _committee New DAOCommitteeProxy contract address\n    function setCandidatesCommittee(\n        address[] calldata _candidateContracts,\n        address _committee\n    )\n        public\n        onlyOwner\n    {\n        require(_committee != address(0), \"zero address\");\n        for (uint256 i = 0; i < _candidateContracts.length; i++) {\n            ICandidate(_candidateContracts[i]).setCommittee(_committee);\n        }\n    }\n\n    /// @notice Set DAOVault2 contract address\n    /// @param _daoVault New DAOVault2 contract address\n    function setDaoVault(address _daoVault) public onlyOwner {\n        require(_daoVault != address(0), \"zero address\");\n        daoVault = IDAOVault2(_daoVault);\n    }\n\n    /// @notice Set Layer2Registry contract address\n    /// @param _layer2Registry New Layer2Registry contract address\n    function setLayer2Registry(address _layer2Registry) public onlyOwner {\n        require(_layer2Registry != address(0), \"zero address\");\n        layer2Registry = ILayer2Registry(_layer2Registry);\n    }\n\n    /// @notice Set DAOAgendaManager contract address\n    /// @param _agendaManager New DAOAgendaManager contract address\n    function setAgendaManager(address _agendaManager) public onlyOwner {\n        require(_agendaManager != address(0), \"zero address\");\n        agendaManager = IDAOAgendaManager(_agendaManager);\n    }\n\n    /// @notice Set CandidateFactory contract address\n    /// @param _candidateFactory New CandidateFactory contract address\n    function setCandidateFactory(address _candidateFactory) public onlyOwner {\n        require(_candidateFactory != address(0), \"zero address\");\n        candidateFactory = ICandidateFactory(_candidateFactory);\n    }\n\n    /// @notice Set TON contract address\n    /// @param _ton New TON contract address\n    function setTon(address _ton) public onlyOwner {\n        require(_ton != address(0), \"zero address\");\n        ton = _ton;\n    }\n\n    /// @notice Set activity reward amount\n    /// @param _value New activity reward per second\n    function setActivityRewardPerSecond(uint256 _value) public onlyOwner {\n        activityRewardPerSecond = _value;\n    }\n\n    /// @notice Increases the number of member slot\n    /// @param _newMaxMember New number of member slot\n    /// @param _quorum New quorum\n    function increaseMaxMember(\n        uint256 _newMaxMember,\n        uint256 _quorum\n    )\n        public\n        onlyOwner\n    {\n        require(maxMember < _newMaxMember, \"DAOCommitteeStore: You have to call decreaseMaxMember to decrease\");\n        emit ChangedSlotMaximum(maxMember, _newMaxMember);\n        maxMember = _newMaxMember;\n        fillMemberSlot();\n        setQuorum(_quorum);\n    }\n\n    //////////////////////////////////////////////////////////////////////\n    // Managing members\n\n    /// @notice Creates a candidate contract and register it on SeigManager\n    /// @param _memo A memo for the candidate\n    function createCandidate(string calldata _memo)\n        public\n        validSeigManager\n        validLayer2Registry\n        validCommitteeL2Factory\n    {\n        require(!isExistCandidate(msg.sender), \"DAOCommittee: candidate already registerd\");\n\n        // Candidate\n        address candidateContract = candidateFactory.deploy(\n            msg.sender,\n            false,\n            _memo,\n            address(this),\n            address(seigManager)\n        );\n\n        require(\n            candidateContract != address(0),\n            \"DAOCommittee: deployed candidateContract is zero\"\n        );\n        require(\n            layer2Registry.registerAndDeployCoinage(candidateContract, address(seigManager)),\n            \"DAOCommittee: failed to registerAndDeployCoinage\"\n        );\n        require(\n            candidateInfos[msg.sender].candidateContract == address(0),\n            \"DAOCommitteeStore: The candidate already has contract\"\n        );\n\n        candidateInfos[msg.sender] = CandidateInfo({\n            candidateContract: candidateContract,\n            memberJoinedTime: 0,\n            indexMembers: 0,\n            rewardPeriod: 0,\n            claimedTimestamp: 0\n        });\n\n        candidates.push(msg.sender);\n       \n        emit CandidateContractCreated(msg.sender, candidateContract, _memo);\n    }\n\n    /// @notice Registers the exist layer2 on DAO\n    /// @param _layer2 Layer2 contract address to be registered\n    /// @param _memo A memo for the candidate\n    function registerLayer2Candidate(address _layer2, string memory _memo)\n        public\n        validSeigManager\n        validLayer2Registry\n        validCommitteeL2Factory\n    {\n        _registerLayer2Candidate(msg.sender, _layer2, _memo);\n    }\n\n    /// @notice Registers the exist layer2 on DAO by owner\n    /// @param _operator Operator address of the layer2 contract\n    /// @param _layer2 Layer2 contract address to be registered\n    /// @param _memo A memo for the candidate\n    function registerLayer2CandidateByOwner(address _operator, address _layer2, string memory _memo)\n        public\n        onlyOwner\n        validSeigManager\n        validLayer2Registry\n        validCommitteeL2Factory\n    {\n        _registerLayer2Candidate(_operator, _layer2, _memo);\n    }\n\n    /// @notice Replaces an existing member\n    /// @param _memberIndex The member slot index to be replaced\n    /// @return Whether or not the execution succeeded\n    function changeMember(\n        uint256 _memberIndex\n    )\n        public\n        returns (bool)\n    {\n        address newMember = ICandidate(msg.sender).candidate();\n        CandidateInfo storage candidateInfo = candidateInfos[newMember];\n        require(\n            ICandidate(msg.sender).isCandidateContract(),\n            \"DAOCommittee: sender is not a candidate contract\"\n        );\n        require(\n            _memberIndex < maxMember,\n            \"DAOCommittee: index is not available\"\n        );\n        require(\n            candidateInfo.candidateContract != address(0),\n            \"DAOCommittee: The address is not a candidate\"\n        );\n        require(\n            candidateInfo.memberJoinedTime == 0,\n            \"DAOCommittee: already member\"\n        );\n        \n        address prevMember = members[_memberIndex];\n        address prevMemberContract = candidateContract(prevMember);\n\n        candidateInfo.memberJoinedTime = block.timestamp;\n        candidateInfo.indexMembers = _memberIndex;\n\n        members[_memberIndex] = newMember;\n\n        if (prevMember == address(0)) {\n            emit ChangedMember(_memberIndex, prevMember, newMember);\n            return true;\n        }\n\n        require(\n            ICandidate(msg.sender).totalStaked() > ICandidate(prevMemberContract).totalStaked(),\n            \"not enough amount\"\n        );\n\n        CandidateInfo storage prevCandidateInfo = candidateInfos[prevMember];\n        prevCandidateInfo.indexMembers = 0;\n        prevCandidateInfo.rewardPeriod = prevCandidateInfo.rewardPeriod.add(block.timestamp.sub(prevCandidateInfo.memberJoinedTime));\n        prevCandidateInfo.memberJoinedTime = 0;\n\n        emit ChangedMember(_memberIndex, prevMember, newMember);\n\n        return true;\n    }\n    \n    /// @notice Retires member\n    /// @return Whether or not the execution succeeded\n    function retireMember() onlyMemberContract public returns (bool) {\n        address candidate = ICandidate(msg.sender).candidate();\n        CandidateInfo storage candidateInfo = candidateInfos[candidate];\n        members[candidateInfo.indexMembers] = address(0);\n        candidateInfo.rewardPeriod = candidateInfo.rewardPeriod.add(block.timestamp.sub(candidateInfo.memberJoinedTime));\n        candidateInfo.memberJoinedTime = 0;\n\n        emit ChangedMember(candidateInfo.indexMembers, candidate, address(0));\n\n        candidateInfo.indexMembers = 0;\n        return true;\n    }\n\n    /// @notice Set memo\n    /// @param _candidate candidate address\n    /// @param _memo New memo on this candidate\n    function setMemoOnCandidate(\n        address _candidate,\n        string calldata _memo\n    )\n        public\n    {\n        address candidateContract = candidateContract(_candidate);\n        setMemoOnCandidateContract(candidateContract, _memo);\n    }\n\n    /// @notice Set memo\n    /// @param _candidateContract candidate contract address\n    /// @param _memo New memo on this candidate\n    function setMemoOnCandidateContract(\n        address _candidateContract,\n        string calldata _memo\n    )\n        public\n    {\n        address candidate = ICandidate(_candidateContract).candidate();\n        address contractOwner = candidate;\n        if (ICandidate(_candidateContract).isLayer2Candidate()) {\n            contractOwner = ILayer2(candidate).operator();\n        }\n        require(\n            msg.sender == contractOwner,\n            \"DAOCommittee: sender is not the candidate of this contract\"\n        );\n\n        ICandidate(_candidateContract).setMemo(_memo);\n        emit ChangedMemo(candidate, _memo);\n    }\n\n    /// @notice Decreases the number of member slot\n    /// @param _reducingMemberIndex Reducing member slot index\n    /// @param _quorum New quorum\n    function decreaseMaxMember(\n        uint256 _reducingMemberIndex,\n        uint256 _quorum\n    )\n        public\n        onlyOwner\n    {\n        address reducingMember = members[_reducingMemberIndex];\n        CandidateInfo storage reducingCandidate = candidateInfos[reducingMember];\n\n        if (_reducingMemberIndex != members.length - 1) {\n            address tailmember = members[members.length - 1];\n            CandidateInfo storage tailCandidate = candidateInfos[tailmember];\n\n            tailCandidate.indexMembers = _reducingMemberIndex;\n            members[_reducingMemberIndex] = tailmember;\n        }\n        reducingCandidate.indexMembers = 0;\n        reducingCandidate.rewardPeriod = reducingCandidate.rewardPeriod.add(block.timestamp.sub(reducingCandidate.memberJoinedTime));\n        reducingCandidate.memberJoinedTime = 0;\n\n        members.pop();\n        maxMember = maxMember.sub(1);\n        setQuorum(_quorum);\n\n        emit ChangedMember(_reducingMemberIndex, reducingMember, address(0));\n        emit ChangedSlotMaximum(maxMember.add(1), maxMember);\n    }\n\n    //////////////////////////////////////////////////////////////////////\n    // Managing agenda\n\n    function onApprove(\n        address owner,\n        address spender,\n        uint256 tonAmount,\n        bytes calldata data\n    ) external returns (bool) {\n        AgendaCreatingData memory agendaData = _decodeAgendaData(data);\n\n        _createAgenda(\n            owner,\n            agendaData.target,\n            agendaData.noticePeriodSeconds,\n            agendaData.votingPeriodSeconds,\n            agendaData.functionBytecode\n        );\n\n        return true;\n    }\n\n    /// @notice Set new quorum\n    /// @param _quorum New quorum\n    function setQuorum(\n        uint256 _quorum\n    )\n        public\n        onlyOwner\n        validAgendaManager\n    {\n        require(_quorum > 0, \"DAOCommittee: invalid quorum\");\n        require(_quorum <= maxMember, \"DAOCommittee: quorum exceed max member\");\n        quorum = _quorum;\n        emit QuorumChanged(quorum);\n    }\n\n    /// @notice Set fee amount of creating an agenda\n    /// @param _fees Fee amount on TON\n    function setCreateAgendaFees(\n        uint256 _fees\n    )\n        public\n        onlyOwner\n        validAgendaManager\n    {\n        agendaManager.setCreateAgendaFees(_fees);\n    }\n\n    /// @notice Set the minimum notice period\n    /// @param _minimumNoticePeriod New minimum notice period in second\n    function setMinimumNoticePeriodSeconds(\n        uint256 _minimumNoticePeriod\n    )\n        public\n        onlyOwner\n        validAgendaManager\n    {\n        agendaManager.setMinimumNoticePeriodSeconds(_minimumNoticePeriod);\n    }\n\n    /// @notice Set the minimum voting period\n    /// @param _minimumVotingPeriod New minimum voting period in second\n    function setMinimumVotingPeriodSeconds(\n        uint256 _minimumVotingPeriod\n    )\n        public\n        onlyOwner\n        validAgendaManager\n    {\n        agendaManager.setMinimumVotingPeriodSeconds(_minimumVotingPeriod);\n    }\n\n    /// @notice Set the executing period\n    /// @param _executingPeriodSeconds New executing period in second\n    function setExecutingPeriodSeconds(\n        uint256 _executingPeriodSeconds\n    )\n        public\n        onlyOwner\n        validAgendaManager\n    {\n        agendaManager.setExecutingPeriodSeconds(_executingPeriodSeconds);\n    }\n\n    /// @notice Vote on an agenda\n    /// @param _agendaID The agenda ID\n    /// @param _vote voting type\n    /// @param _comment voting comment\n    function castVote(\n        uint256 _agendaID,\n        uint _vote,\n        string calldata _comment\n    )\n        public \n        validAgendaManager\n    {\n        address candidate = ICandidate(msg.sender).candidate();\n        \n        agendaManager.castVote(\n            _agendaID,\n            candidate,\n            _vote\n        );\n\n        (uint256 yes, uint256 no, uint256 abstain) = agendaManager.getVotingCount(_agendaID);\n\n        if (quorum <= yes) {\n            // yes\n            agendaManager.setResult(_agendaID, LibAgenda.AgendaResult.ACCEPT);\n            agendaManager.setStatus(_agendaID, LibAgenda.AgendaStatus.WAITING_EXEC);\n        } else if (quorum <= no) {\n            // no\n            agendaManager.setResult(_agendaID, LibAgenda.AgendaResult.REJECT);\n            agendaManager.setStatus(_agendaID, LibAgenda.AgendaStatus.ENDED);\n        } else if (quorum <= abstain.add(no) ) {\n            // dismiss\n            agendaManager.setResult(_agendaID, LibAgenda.AgendaResult.DISMISS);\n            agendaManager.setStatus(_agendaID, LibAgenda.AgendaStatus.ENDED);\n        }\n        \n        emit AgendaVoteCasted(msg.sender, _agendaID, _vote, _comment);\n    }\n\n    /// @notice Set the agenda status as ended(denied or dismissed)\n    /// @param _agendaID Agenda ID\n    function endAgendaVoting(uint256 _agendaID) public {\n        agendaManager.endAgendaVoting(_agendaID);\n    }\n\n    /// @notice Execute the accepted agenda\n    /// @param _agendaID Agenda ID\n    function executeAgenda(uint256 _agendaID) public validAgendaManager {\n        require(\n            agendaManager.canExecuteAgenda(_agendaID),\n            \"DAOCommittee: can not execute the agenda\"\n        );\n        \n        (address[] memory target, bytes[] memory functionBytecode) = agendaManager.getExecutionInfo(_agendaID);\n       \n        agendaManager.setExecutedAgenda(_agendaID);\n\n        for (uint256 i = 0; i < target.length; i++) {\n            (bool success, ) = address(target[i]).call(functionBytecode[i]);\n            require(success, \"DAOCommittee: Failed to execute the agenda\");\n        }\n\n        emit AgendaExecuted(_agendaID, target);\n    }\n\n    /// @notice Set status and result of specific agenda\n    /// @param _agendaID Agenda ID\n    /// @param _status New status\n    /// @param _result New result\n    function setAgendaStatus(uint256 _agendaID, uint256 _status, uint256 _result) public onlyOwner {\n        agendaManager.setResult(_agendaID, LibAgenda.AgendaResult(_result));\n        agendaManager.setStatus(_agendaID, LibAgenda.AgendaStatus(_status));\n    }\n     \n    /// @notice Call updateSeigniorage on SeigManager\n    /// @param _candidate Candidate address to be updated\n    /// @return Whether or not the execution succeeded\n    function updateSeigniorage(address _candidate) public returns (bool) {\n        address candidateContract = candidateInfos[_candidate].candidateContract;\n        return ICandidate(candidateContract).updateSeigniorage();\n    }\n\n    /// @notice Call updateSeigniorage on SeigManager\n    /// @param _candidates Candidate addresses to be updated\n    /// @return Whether or not the execution succeeded\n    function updateSeigniorages(address[] calldata _candidates) public returns (bool) {\n        for (uint256 i = 0; i < _candidates.length; i++) {\n            updateSeigniorage(_candidates[i]);\n        }\n    }\n\n    /// @notice Claims the activity reward for member\n    function claimActivityReward(address _receiver) public {\n        address candidate = ICandidate(msg.sender).candidate();\n        CandidateInfo storage candidateInfo = candidateInfos[candidate];\n\n        uint256 amount = getClaimableActivityReward(candidate);\n        require(amount > 0, \"DAOCommittee: you don't have claimable ton\");\n\n        daoVault.claimTON(_receiver, amount);\n        candidateInfo.claimedTimestamp = block.timestamp;\n        candidateInfo.rewardPeriod = 0;\n\n        emit ClaimedActivityReward(candidate, _receiver, amount);\n    }\n\n    function _registerLayer2Candidate(address _operator, address _layer2, string memory _memo)\n        internal\n        validSeigManager\n        validLayer2Registry\n        validCommitteeL2Factory\n    {\n        require(!isExistCandidate(_layer2), \"DAOCommittee: candidate already registerd\");\n\n        require(\n            _layer2 != address(0),\n            \"DAOCommittee: deployed candidateContract is zero\"\n        );\n        require(\n            candidateInfos[_layer2].candidateContract == address(0),\n            \"DAOCommittee: The candidate already has contract\"\n        );\n        ILayer2 layer2 = ILayer2(_layer2);\n        require(\n            layer2.isLayer2(),\n            \"DAOCommittee: invalid layer2 contract\"\n        );\n        require(\n            layer2.operator() == _operator,\n            \"DAOCommittee: invalid operator\"\n        );\n\n        address candidateContract = candidateFactory.deploy(\n            _layer2,\n            true,\n            _memo,\n            address(this),\n            address(seigManager)\n        );\n\n        require(\n            candidateContract != address(0),\n            \"DAOCommittee: deployed candidateContract is zero\"\n        );\n\n        candidateInfos[_layer2] = CandidateInfo({\n            candidateContract: candidateContract,\n            memberJoinedTime: 0,\n            indexMembers: 0,\n            rewardPeriod: 0,\n            claimedTimestamp: 0\n        });\n\n        candidates.push(_layer2);\n       \n        emit Layer2Registered(_layer2, candidateContract, _memo);\n    }\n\n    function fillMemberSlot() internal {\n        for (uint256 i = members.length; i < maxMember; i++) {\n            members.push(address(0));\n        }\n    }\n\n    function _decodeAgendaData(bytes calldata input)\n        internal\n        view\n        returns (AgendaCreatingData memory data)\n    {\n        (data.target, data.noticePeriodSeconds, data.votingPeriodSeconds, data.functionBytecode) = \n            abi.decode(input, (address[], uint256, uint256, bytes[]));\n    }\n\n    function payCreatingAgendaFee(address _creator) internal {\n        uint256 fee = agendaManager.createAgendaFees();\n\n        require(IERC20(ton).transferFrom(_creator, address(this), fee), \"DAOCommitteeStore: failed to transfer ton from creator\");\n        require(IERC20(ton).transfer(address(1), fee), \"DAOCommitteeStore: failed to burn\");\n    }\n   \n    function _createAgenda(\n        address _creator,\n        address[] memory _targets,\n        uint256 _noticePeriodSeconds,\n        uint256 _votingPeriodSeconds,\n        bytes[] memory _functionBytecodes\n    )\n        internal\n        validAgendaManager\n        returns (uint256)\n    {\n        // pay to create agenda, burn ton.\n        payCreatingAgendaFee(_creator);\n\n        uint256 agendaID = agendaManager.newAgenda(\n            _targets,\n            _noticePeriodSeconds,\n            _votingPeriodSeconds,\n            _functionBytecodes\n        );\n          \n        emit AgendaCreated(\n            _creator,\n            agendaID,\n            _targets,\n            _noticePeriodSeconds,\n            _votingPeriodSeconds\n        );\n\n        return agendaID;\n    }\n\n    function isCandidate(address _candidate) public view returns (bool) {\n        CandidateInfo storage info = candidateInfos[_candidate];\n\n        if (info.candidateContract == address(0)) {\n            return false;\n        }\n\n        bool supportIsCandidateContract = ERC165Checker.supportsInterface(\n            info.candidateContract,\n            ICandidate(info.candidateContract).isCandidateContract.selector\n        );\n\n        if (supportIsCandidateContract == false) {\n            return false;\n        }\n\n        return ICandidate(info.candidateContract).isCandidateContract();\n    }\n    \n    function totalSupplyOnCandidate(\n        address _candidate\n    )\n        public\n        view\n        returns (uint256 totalsupply)\n    {\n        address candidateContract = candidateContract(_candidate);\n        return totalSupplyOnCandidateContract(candidateContract);\n    }\n\n    function balanceOfOnCandidate(\n        address _candidate,\n        address _account\n    )\n        public\n        view\n        returns (uint256 amount)\n    {\n        address candidateContract = candidateContract(_candidate);\n        return balanceOfOnCandidateContract(candidateContract, _account);\n    }\n    \n    function totalSupplyOnCandidateContract(\n        address _candidateContract\n    )\n        public\n        view\n        returns (uint256 totalsupply)\n    {\n        require(_candidateContract != address(0), \"This account is not a candidate\");\n\n        return ICandidate(_candidateContract).totalStaked();\n    }\n\n    function balanceOfOnCandidateContract(\n        address _candidateContract,\n        address _account\n    )\n        public\n        view\n        returns (uint256 amount)\n    {\n        require(_candidateContract != address(0), \"This account is not a candidate\");\n\n        return ICandidate(_candidateContract).stakedOf(_account);\n    }\n\n    function candidatesLength() public view returns (uint256) {\n        return candidates.length;\n    }\n\n    function isExistCandidate(address _candidate) public view returns (bool isExist) {\n        return candidateInfos[_candidate].candidateContract != address(0);\n    }\n\n    function getClaimableActivityReward(address _candidate) public view returns (uint256) {\n        CandidateInfo storage info = candidateInfos[_candidate];\n        uint256 period = info.rewardPeriod;\n\n        if (info.memberJoinedTime > 0) {\n            if (info.memberJoinedTime > info.claimedTimestamp) {\n                period = period.add(block.timestamp.sub(info.memberJoinedTime));\n            } else {\n                period = period.add(block.timestamp.sub(info.claimedTimestamp));\n            }\n        }\n\n        return period.mul(activityRewardPerSecond);\n    }\n}\n",
  "sourcePath": "/data/github/onther/tokamak-dao-contracts3/contracts/dao/DAOCommittee.sol",
  "compiler": {
    "name": "solc",
    "version": "0.7.6+commit.7338295f.Emscripten.clang"
  },
  "schemaVersion": "3.3.2",
  "updatedAt": "2021-02-18T18:34:06.053Z",
  "networkType": "ethereum",
  "devdoc": {
    "kind": "dev",
    "methods": {
      "castVote(uint256,uint256,string)": {
        "params": {
          "_agendaID": "The agenda ID",
          "_comment": "voting comment",
          "_vote": "voting type"
        }
      },
      "changeMember(uint256)": {
        "params": {
          "_memberIndex": "The member slot index to be replaced"
        },
        "returns": {
          "_0": "Whether or not the execution succeeded"
        }
      },
      "createCandidate(string)": {
        "params": {
          "_memo": "A memo for the candidate"
        }
      },
      "decreaseMaxMember(uint256,uint256)": {
        "params": {
          "_quorum": "New quorum",
          "_reducingMemberIndex": "Reducing member slot index"
        }
      },
      "endAgendaVoting(uint256)": {
        "params": {
          "_agendaID": "Agenda ID"
        }
      },
      "executeAgenda(uint256)": {
        "params": {
          "_agendaID": "Agenda ID"
        }
      },
      "getRoleAdmin(bytes32)": {
        "details": "Returns the admin role that controls `role`. See {grantRole} and {revokeRole}. To change a role's admin, use {_setRoleAdmin}."
      },
      "getRoleMember(bytes32,uint256)": {
        "details": "Returns one of the accounts that have `role`. `index` must be a value between 0 and {getRoleMemberCount}, non-inclusive. Role bearers are not sorted in any particular way, and their ordering may change at any point. WARNING: When using {getRoleMember} and {getRoleMemberCount}, make sure you perform all queries on the same block. See the following https://forum.openzeppelin.com/t/iterating-over-elements-on-enumerableset-in-openzeppelin-contracts/2296[forum post] for more information."
      },
      "getRoleMemberCount(bytes32)": {
        "details": "Returns the number of accounts that have `role`. Can be used together with {getRoleMember} to enumerate all bearers of a role."
      },
      "grantRole(bytes32,address)": {
        "details": "Grants `role` to `account`. If `account` had not been already granted `role`, emits a {RoleGranted} event. Requirements: - the caller must have ``role``'s admin role."
      },
      "hasRole(bytes32,address)": {
        "details": "Returns `true` if `account` has been granted `role`."
      },
      "increaseMaxMember(uint256,uint256)": {
        "params": {
          "_newMaxMember": "New number of member slot",
          "_quorum": "New quorum"
        }
      },
      "registerLayer2Candidate(address,string)": {
        "params": {
          "_layer2": "Layer2 contract address to be registered",
          "_memo": "A memo for the candidate"
        }
      },
      "registerLayer2CandidateByOwner(address,address,string)": {
        "params": {
          "_layer2": "Layer2 contract address to be registered",
          "_memo": "A memo for the candidate",
          "_operator": "Operator address of the layer2 contract"
        }
      },
      "renounceRole(bytes32,address)": {
        "details": "Revokes `role` from the calling account. Roles are often managed via {grantRole} and {revokeRole}: this function's purpose is to provide a mechanism for accounts to lose their privileges if they are compromised (such as when a trusted device is misplaced). If the calling account had been granted `role`, emits a {RoleRevoked} event. Requirements: - the caller must be `account`."
      },
      "retireMember()": {
        "returns": {
          "_0": "Whether or not the execution succeeded"
        }
      },
      "revokeRole(bytes32,address)": {
        "details": "Revokes `role` from `account`. If `account` had been granted `role`, emits a {RoleRevoked} event. Requirements: - the caller must have ``role``'s admin role."
      },
      "setActivityRewardPerSecond(uint256)": {
        "params": {
          "_value": "New activity reward per second"
        }
      },
      "setAgendaManager(address)": {
        "params": {
          "_agendaManager": "New DAOAgendaManager contract address"
        }
      },
      "setAgendaStatus(uint256,uint256,uint256)": {
        "params": {
          "_agendaID": "Agenda ID",
          "_result": "New result",
          "_status": "New status"
        }
      },
      "setCandidateFactory(address)": {
        "params": {
          "_candidateFactory": "New CandidateFactory contract address"
        }
      },
      "setCandidatesCommittee(address[],address)": {
        "params": {
          "_candidateContracts": "Candidate contracts to be set",
          "_committee": "New DAOCommitteeProxy contract address"
        }
      },
      "setCandidatesSeigManager(address[],address)": {
        "params": {
          "_candidateContracts": "Candidate contracts to be set",
          "_seigManager": "New SeigManager contract address"
        }
      },
      "setCreateAgendaFees(uint256)": {
        "params": {
          "_fees": "Fee amount on TON"
        }
      },
      "setDaoVault(address)": {
        "params": {
          "_daoVault": "New DAOVault2 contract address"
        }
      },
      "setExecutingPeriodSeconds(uint256)": {
        "params": {
          "_executingPeriodSeconds": "New executing period in second"
        }
      },
      "setLayer2Registry(address)": {
        "params": {
          "_layer2Registry": "New Layer2Registry contract address"
        }
      },
      "setMemoOnCandidate(address,string)": {
        "params": {
          "_candidate": "candidate address",
          "_memo": "New memo on this candidate"
        }
      },
      "setMemoOnCandidateContract(address,string)": {
        "params": {
          "_candidateContract": "candidate contract address",
          "_memo": "New memo on this candidate"
        }
      },
      "setMinimumNoticePeriodSeconds(uint256)": {
        "params": {
          "_minimumNoticePeriod": "New minimum notice period in second"
        }
      },
      "setMinimumVotingPeriodSeconds(uint256)": {
        "params": {
          "_minimumVotingPeriod": "New minimum voting period in second"
        }
      },
      "setQuorum(uint256)": {
        "params": {
          "_quorum": "New quorum"
        }
      },
      "setSeigManager(address)": {
        "params": {
          "_seigManager": "New SeigManager contract address"
        }
      },
      "setTon(address)": {
        "params": {
          "_ton": "New TON contract address"
        }
      },
      "updateSeigniorage(address)": {
        "params": {
          "_candidate": "Candidate address to be updated"
        },
        "returns": {
          "_0": "Whether or not the execution succeeded"
        }
      },
      "updateSeigniorages(address[])": {
        "params": {
          "_candidates": "Candidate addresses to be updated"
        },
        "returns": {
          "_0": "Whether or not the execution succeeded"
        }
      }
    },
    "version": 1
  },
  "userdoc": {
    "kind": "user",
    "methods": {
      "castVote(uint256,uint256,string)": {
        "notice": "Vote on an agenda"
      },
      "changeMember(uint256)": {
        "notice": "Replaces an existing member"
      },
      "claimActivityReward(address)": {
        "notice": "Claims the activity reward for member"
      },
      "createCandidate(string)": {
        "notice": "Creates a candidate contract and register it on SeigManager"
      },
      "decreaseMaxMember(uint256,uint256)": {
        "notice": "Decreases the number of member slot"
      },
      "endAgendaVoting(uint256)": {
        "notice": "Set the agenda status as ended(denied or dismissed)"
      },
      "executeAgenda(uint256)": {
        "notice": "Execute the accepted agenda"
      },
      "increaseMaxMember(uint256,uint256)": {
        "notice": "Increases the number of member slot"
      },
      "registerLayer2Candidate(address,string)": {
        "notice": "Registers the exist layer2 on DAO"
      },
      "registerLayer2CandidateByOwner(address,address,string)": {
        "notice": "Registers the exist layer2 on DAO by owner"
      },
      "retireMember()": {
        "notice": "Retires member"
      },
      "setActivityRewardPerSecond(uint256)": {
        "notice": "Set activity reward amount"
      },
      "setAgendaManager(address)": {
        "notice": "Set DAOAgendaManager contract address"
      },
      "setAgendaStatus(uint256,uint256,uint256)": {
        "notice": "Set status and result of specific agenda"
      },
      "setCandidateFactory(address)": {
        "notice": "Set CandidateFactory contract address"
      },
      "setCandidatesCommittee(address[],address)": {
        "notice": "Set DAOCommitteeProxy contract address on candidate contracts"
      },
      "setCandidatesSeigManager(address[],address)": {
        "notice": "Set SeigManager contract address on candidate contracts"
      },
      "setCreateAgendaFees(uint256)": {
        "notice": "Set fee amount of creating an agenda"
      },
      "setDaoVault(address)": {
        "notice": "Set DAOVault2 contract address"
      },
      "setExecutingPeriodSeconds(uint256)": {
        "notice": "Set the executing period"
      },
      "setLayer2Registry(address)": {
        "notice": "Set Layer2Registry contract address"
      },
      "setMemoOnCandidate(address,string)": {
        "notice": "Set memo"
      },
      "setMemoOnCandidateContract(address,string)": {
        "notice": "Set memo"
      },
      "setMinimumNoticePeriodSeconds(uint256)": {
        "notice": "Set the minimum notice period"
      },
      "setMinimumVotingPeriodSeconds(uint256)": {
        "notice": "Set the minimum voting period"
      },
      "setQuorum(uint256)": {
        "notice": "Set new quorum"
      },
      "setSeigManager(address)": {
        "notice": "Set SeigManager contract address"
      },
      "setTon(address)": {
        "notice": "Set TON contract address"
      },
      "updateSeigniorage(address)": {
        "notice": "Call updateSeigniorage on SeigManager"
      },
      "updateSeigniorages(address[])": {
        "notice": "Call updateSeigniorage on SeigManager"
      }
    },
    "version": 1
  }
}