{
  "contractName": "DAOCommitteeProxy",
  "abi": [
    {
      "inputs": [
        {
          "internalType": "address",
          "name": "_ton",
          "type": "address"
        },
        {
          "internalType": "address",
          "name": "_impl",
          "type": "address"
        },
        {
          "internalType": "address",
          "name": "_seigManager",
          "type": "address"
        },
        {
          "internalType": "address",
          "name": "_layer2Registry",
          "type": "address"
        },
        {
          "internalType": "address",
          "name": "_agendaManager",
          "type": "address"
        },
        {
          "internalType": "address",
          "name": "_candidateFactory",
          "type": "address"
        },
        {
          "internalType": "address",
          "name": "_daoVault",
          "type": "address"
        }
      ],
      "stateMutability": "nonpayable",
      "type": "constructor"
    },
    {
      "anonymous": false,
      "inputs": [
        {
          "indexed": true,
          "internalType": "address",
          "name": "from",
          "type": "address"
        },
        {
          "indexed": false,
          "internalType": "address",
          "name": "member",
          "type": "address"
        },
        {
          "indexed": false,
          "internalType": "uint256",
          "name": "totalbalance",
          "type": "uint256"
        },
        {
          "indexed": false,
          "internalType": "uint256",
          "name": "memberIndex",
          "type": "uint256"
        }
      ],
      "name": "ApplyMemberSuccess",
      "type": "event"
    },
    {
      "anonymous": false,
      "inputs": [
        {
          "indexed": true,
          "internalType": "bytes32",
          "name": "role",
          "type": "bytes32"
        },
        {
          "indexed": true,
          "internalType": "bytes32",
          "name": "previousAdminRole",
          "type": "bytes32"
        },
        {
          "indexed": true,
          "internalType": "bytes32",
          "name": "newAdminRole",
          "type": "bytes32"
        }
      ],
      "name": "RoleAdminChanged",
      "type": "event"
    },
    {
      "anonymous": false,
      "inputs": [
        {
          "indexed": true,
          "internalType": "bytes32",
          "name": "role",
          "type": "bytes32"
        },
        {
          "indexed": true,
          "internalType": "address",
          "name": "account",
          "type": "address"
        },
        {
          "indexed": true,
          "internalType": "address",
          "name": "sender",
          "type": "address"
        }
      ],
      "name": "RoleGranted",
      "type": "event"
    },
    {
      "anonymous": false,
      "inputs": [
        {
          "indexed": true,
          "internalType": "bytes32",
          "name": "role",
          "type": "bytes32"
        },
        {
          "indexed": true,
          "internalType": "address",
          "name": "account",
          "type": "address"
        },
        {
          "indexed": true,
          "internalType": "address",
          "name": "sender",
          "type": "address"
        }
      ],
      "name": "RoleRevoked",
      "type": "event"
    },
    {
      "anonymous": false,
      "inputs": [
        {
          "indexed": true,
          "internalType": "address",
          "name": "implementation",
          "type": "address"
        }
      ],
      "name": "Upgraded",
      "type": "event"
    },
    {
      "stateMutability": "nonpayable",
      "type": "fallback"
    },
    {
      "inputs": [],
      "name": "DEFAULT_ADMIN_ROLE",
      "outputs": [
        {
          "internalType": "bytes32",
          "name": "",
          "type": "bytes32"
        }
      ],
      "stateMutability": "view",
      "type": "function",
      "constant": true
    },
    {
      "inputs": [],
      "name": "_implementation",
      "outputs": [
        {
          "internalType": "address",
          "name": "",
          "type": "address"
        }
      ],
      "stateMutability": "view",
      "type": "function",
      "constant": true
    },
    {
      "inputs": [],
      "name": "activityRewardPerSecond",
      "outputs": [
        {
          "internalType": "uint256",
          "name": "",
          "type": "uint256"
        }
      ],
      "stateMutability": "view",
      "type": "function",
      "constant": true
    },
    {
      "inputs": [],
      "name": "agendaManager",
      "outputs": [
        {
          "internalType": "contract IDAOAgendaManager",
          "name": "",
          "type": "address"
        }
      ],
      "stateMutability": "view",
      "type": "function",
      "constant": true
    },
    {
      "inputs": [
        {
          "internalType": "address",
          "name": "_candidate",
          "type": "address"
        }
      ],
      "name": "candidateContract",
      "outputs": [
        {
          "internalType": "address",
          "name": "",
          "type": "address"
        }
      ],
      "stateMutability": "view",
      "type": "function",
      "constant": true
    },
    {
      "inputs": [],
      "name": "candidateFactory",
      "outputs": [
        {
          "internalType": "contract ICandidateFactory",
          "name": "",
          "type": "address"
        }
      ],
      "stateMutability": "view",
      "type": "function",
      "constant": true
    },
    {
      "inputs": [
        {
          "internalType": "address",
          "name": "",
          "type": "address"
        }
      ],
      "name": "candidateInfos",
      "outputs": [
        {
          "internalType": "address",
          "name": "candidateContract",
          "type": "address"
        },
        {
          "internalType": "uint256",
          "name": "memberJoinedTime",
          "type": "uint256"
        },
        {
          "internalType": "uint256",
          "name": "indexMembers",
          "type": "uint256"
        },
        {
          "internalType": "uint256",
          "name": "rewardPeriod",
          "type": "uint256"
        },
        {
          "internalType": "uint256",
          "name": "claimedTimestamp",
          "type": "uint256"
        }
      ],
      "stateMutability": "view",
      "type": "function",
      "constant": true
    },
    {
      "inputs": [
        {
          "internalType": "uint256",
          "name": "",
          "type": "uint256"
        }
      ],
      "name": "candidates",
      "outputs": [
        {
          "internalType": "address",
          "name": "",
          "type": "address"
        }
      ],
      "stateMutability": "view",
      "type": "function",
      "constant": true
    },
    {
      "inputs": [],
      "name": "daoVault",
      "outputs": [
        {
          "internalType": "contract IDAOVault2",
          "name": "",
          "type": "address"
        }
      ],
      "stateMutability": "view",
      "type": "function",
      "constant": true
    },
    {
      "inputs": [
        {
          "internalType": "bytes32",
          "name": "role",
          "type": "bytes32"
        }
      ],
      "name": "getRoleAdmin",
      "outputs": [
        {
          "internalType": "bytes32",
          "name": "",
          "type": "bytes32"
        }
      ],
      "stateMutability": "view",
      "type": "function",
      "constant": true
    },
    {
      "inputs": [
        {
          "internalType": "bytes32",
          "name": "role",
          "type": "bytes32"
        },
        {
          "internalType": "uint256",
          "name": "index",
          "type": "uint256"
        }
      ],
      "name": "getRoleMember",
      "outputs": [
        {
          "internalType": "address",
          "name": "",
          "type": "address"
        }
      ],
      "stateMutability": "view",
      "type": "function",
      "constant": true
    },
    {
      "inputs": [
        {
          "internalType": "bytes32",
          "name": "role",
          "type": "bytes32"
        }
      ],
      "name": "getRoleMemberCount",
      "outputs": [
        {
          "internalType": "uint256",
          "name": "",
          "type": "uint256"
        }
      ],
      "stateMutability": "view",
      "type": "function",
      "constant": true
    },
    {
      "inputs": [
        {
          "internalType": "bytes32",
          "name": "role",
          "type": "bytes32"
        },
        {
          "internalType": "address",
          "name": "account",
          "type": "address"
        }
      ],
      "name": "grantRole",
      "outputs": [],
      "stateMutability": "nonpayable",
      "type": "function"
    },
    {
      "inputs": [
        {
          "internalType": "bytes32",
          "name": "role",
          "type": "bytes32"
        },
        {
          "internalType": "address",
          "name": "account",
          "type": "address"
        }
      ],
      "name": "hasRole",
      "outputs": [
        {
          "internalType": "bool",
          "name": "",
          "type": "bool"
        }
      ],
      "stateMutability": "view",
      "type": "function",
      "constant": true
    },
    {
      "inputs": [
        {
          "internalType": "address",
          "name": "_candidate",
          "type": "address"
        }
      ],
      "name": "isMember",
      "outputs": [
        {
          "internalType": "bool",
          "name": "",
          "type": "bool"
        }
      ],
      "stateMutability": "view",
      "type": "function",
      "constant": true
    },
    {
      "inputs": [],
      "name": "layer2Registry",
      "outputs": [
        {
          "internalType": "contract ILayer2Registry",
          "name": "",
          "type": "address"
        }
      ],
      "stateMutability": "view",
      "type": "function",
      "constant": true
    },
    {
      "inputs": [],
      "name": "maxMember",
      "outputs": [
        {
          "internalType": "uint256",
          "name": "",
          "type": "uint256"
        }
      ],
      "stateMutability": "view",
      "type": "function",
      "constant": true
    },
    {
      "inputs": [
        {
          "internalType": "uint256",
          "name": "",
          "type": "uint256"
        }
      ],
      "name": "members",
      "outputs": [
        {
          "internalType": "address",
          "name": "",
          "type": "address"
        }
      ],
      "stateMutability": "view",
      "type": "function",
      "constant": true
    },
    {
      "inputs": [],
      "name": "pauseProxy",
      "outputs": [
        {
          "internalType": "bool",
          "name": "",
          "type": "bool"
        }
      ],
      "stateMutability": "view",
      "type": "function",
      "constant": true
    },
    {
      "inputs": [
        {
          "internalType": "bytes32",
          "name": "role",
          "type": "bytes32"
        },
        {
          "internalType": "address",
          "name": "account",
          "type": "address"
        }
      ],
      "name": "renounceRole",
      "outputs": [],
      "stateMutability": "nonpayable",
      "type": "function"
    },
    {
      "inputs": [
        {
          "internalType": "bytes32",
          "name": "role",
          "type": "bytes32"
        },
        {
          "internalType": "address",
          "name": "account",
          "type": "address"
        }
      ],
      "name": "revokeRole",
      "outputs": [],
      "stateMutability": "nonpayable",
      "type": "function"
    },
    {
      "inputs": [],
      "name": "seigManager",
      "outputs": [
        {
          "internalType": "contract ISeigManager",
          "name": "",
          "type": "address"
        }
      ],
      "stateMutability": "view",
      "type": "function",
      "constant": true
    },
    {
      "inputs": [
        {
          "internalType": "bytes4",
          "name": "interfaceId",
          "type": "bytes4"
        }
      ],
      "name": "supportsInterface",
      "outputs": [
        {
          "internalType": "bool",
          "name": "",
          "type": "bool"
        }
      ],
      "stateMutability": "view",
      "type": "function",
      "constant": true
    },
    {
      "inputs": [],
      "name": "ton",
      "outputs": [
        {
          "internalType": "address",
          "name": "",
          "type": "address"
        }
      ],
      "stateMutability": "view",
      "type": "function",
      "constant": true
    },
    {
      "inputs": [
        {
          "internalType": "bool",
          "name": "_pause",
          "type": "bool"
        }
      ],
      "name": "setProxyPause",
      "outputs": [],
      "stateMutability": "nonpayable",
      "type": "function"
    },
    {
      "inputs": [
        {
          "internalType": "address",
          "name": "impl",
          "type": "address"
        }
      ],
      "name": "upgradeTo",
      "outputs": [],
      "stateMutability": "nonpayable",
      "type": "function"
    },
    {
      "inputs": [],
      "name": "implementation",
      "outputs": [
        {
          "internalType": "address",
          "name": "",
          "type": "address"
        }
      ],
      "stateMutability": "view",
      "type": "function",
      "constant": true
    }
  ],
  "bytecode": "0x60806040523480156200001157600080fd5b506040516200108f3803806200108f833981810160405260e08110156200003757600080fd5b508051602082015160408301516060840151608085015160a086015160c0909601519495939492939192909190620000766301ffc9a760e01b62000142565b600080546001600160a01b03199081166001600160a01b038a811691909117909255600d8054821689841617905560058054821688841617905560048054821687841617905560028054821686841617905560038054821685841617905560018054909116918316919091179055670de0b6b3a7640000600a556200011b7f4273ca16e32229270629d776700e1c07e4a1080fc9b26d21f6608efc2b31dc4d62000142565b62000128600033620001c7565b62000135600030620001c7565b50505050505050620002dd565b6001600160e01b03198082161415620001a2576040805162461bcd60e51b815260206004820152601c60248201527f4552433136353a20696e76616c696420696e7465726661636520696400000000604482015290519081900360640190fd5b6001600160e01b0319166000908152600c60205260409020805460ff19166001179055565b620001d38282620001d7565b5050565b6000828152600b60209081526040909120620001fe9183906200097162000252821b17901c565b15620001d3576200020e62000272565b6001600160a01b0316816001600160a01b0316837f2f8788117e7eff1d82e926ec794901d17c78024a50270940304540a733656f0d60405160405180910390a45050565b600062000269836001600160a01b03841662000276565b90505b92915050565b3390565b6000620002848383620002c5565b620002bc575081546001818101845560008481526020808220909301849055845484825282860190935260409020919091556200026c565b5060006200026c565b60009081526001919091016020526040902054151590565b610da280620002ed6000396000f3fe608060405234801561001057600080fd5b50600436106101a95760003560e01c806363a8fd89116100f9578063a217fddf11610097578063ca15c87311610071578063ca15c87314610456578063cc48b94714610473578063cf2a239c1461047b578063d547741f14610483576101a9565b8063a217fddf14610420578063a230c52414610428578063b5dd11581461044e576101a9565b80637cb00d25116100d35780637cb00d25146103aa5780637f331636146103c95780639010d07c146103d157806391d14854146103f4576101a9565b806363a8fd8914610374578063651d08cd1461037c5780636fb7f558146103a2576101a9565b80633477ee2e116101665780635903bd6c116101405780635903bd6c1461033f57806359679b0f146103475780635c60da1b1461034f5780635daf08ca14610357576101a9565b80633477ee2e146102d057806336568abe146102ed5780633659cfe614610319576101a9565b806301ffc9a7146101b357806303e3c9ac146101ee578063248a9ca31461020857806327fd92fd146102255780632e011c1e146102495780632f2ff15d146102a4575b6101b16104af565b005b6101da600480360360208110156101c957600080fd5b50356001600160e01b03191661053c565b604080519115158252519081900360200190f35b6101f661055b565b60408051918252519081900360200190f35b6101f66004803603602081101561021e57600080fd5b5035610561565b61022d610576565b604080516001600160a01b039092168252519081900360200190f35b61026f6004803603602081101561025f57600080fd5b50356001600160a01b0316610585565b604080516001600160a01b03909616865260208601949094528484019290925260608401526080830152519081900360a00190f35b6101b1600480360360408110156102ba57600080fd5b50803590602001356001600160a01b03166105be565b61022d600480360360208110156102e657600080fd5b503561062a565b6101b16004803603604081101561030357600080fd5b50803590602001356001600160a01b0316610654565b6101b16004803603602081101561032f57600080fd5b50356001600160a01b03166106b5565b61022d610792565b61022d6107a1565b61022d6107b0565b61022d6004803603602081101561036d57600080fd5b50356107bf565b6101da6107cf565b61022d6004803603602081101561039257600080fd5b50356001600160a01b03166107df565b61022d6107fd565b6101b1600480360360208110156103c057600080fd5b5035151561080c565b6101f6610870565b61022d600480360360408110156103e757600080fd5b5080359060200135610876565b6101da6004803603604081101561040a57600080fd5b50803590602001356001600160a01b0316610897565b6101f66108af565b6101da6004803603602081101561043e57600080fd5b50356001600160a01b03166108b4565b61022d6108d4565b6101f66004803603602081101561046c57600080fd5b50356108e3565b61022d6108fa565b61022d610909565b6101b16004803603604081101561049957600080fd5b50803590602001356001600160a01b0316610918565b60006104b96107b0565b90506001600160a01b038116158015906104dd5750600d54600160a01b900460ff16155b6105185760405162461bcd60e51b8152600401808060200182810382526031815260200180610d3c6031913960400191505060405180910390fd5b3660008037600080366000845af43d6000803e808015610537573d6000f35b3d6000fd5b6001600160e01b0319166000908152600c602052604090205460ff1690565b60085481565b6000908152600b602052604090206002015490565b6002546001600160a01b031681565b600960205260009081526040902080546001820154600283015460038401546004909401546001600160a01b0390931693919290919085565b6000828152600b60205260409020600201546105e1906105dc610986565b610897565b61061c5760405162461bcd60e51b815260040180806020018281038252602f815260200180610c50602f913960400191505060405180910390fd5b610626828261098a565b5050565b6006818154811061063a57600080fd5b6000918252602090912001546001600160a01b0316905081565b61065c610986565b6001600160a01b0316816001600160a01b0316146106ab5760405162461bcd60e51b815260040180806020018281038252602f815260200180610d0d602f913960400191505060405180910390fd5b61062682826109f3565b6106c0600033610897565b6106fb5760405162461bcd60e51b815260040180806020018281038252602d815260200180610ce0602d913960400191505060405180910390fd5b600d546001600160a01b03828116911614156107485760405162461bcd60e51b8152600401808060200182810382526031815260200180610c7f6031913960400191505060405180910390fd5b600d80546001600160a01b0319166001600160a01b0383169081179091556040517fbc7cd75a20ee27fd9adebab32041f755214dbc6bffa90cc0225b39da2e5c2d3b90600090a250565b6001546001600160a01b031681565b600d546001600160a01b031681565b600d546001600160a01b031690565b6007818154811061063a57600080fd5b600d54600160a01b900460ff1681565b6001600160a01b039081166000908152600960205260409020541690565b6005546001600160a01b031681565b610817600033610897565b6108525760405162461bcd60e51b815260040180806020018281038252602d815260200180610ce0602d913960400191505060405180910390fd5b600d8054911515600160a01b0260ff60a01b19909216919091179055565b600a5481565b6000828152600b6020526040812061088e9083610a5c565b90505b92915050565b6000828152600b6020526040812061088e9083610a68565b600081565b6001600160a01b0316600090815260096020526040902060010154151590565b6003546001600160a01b031681565b6000818152600b6020526040812061089190610a7d565b6000546001600160a01b031681565b6004546001600160a01b031681565b6000828152600b6020526040902060020154610936906105dc610986565b6106ab5760405162461bcd60e51b8152600401808060200182810382526030815260200180610cb06030913960400191505060405180910390fd5b600061088e836001600160a01b038416610a88565b3390565b6000828152600b602052604090206109a29082610971565b15610626576109af610986565b6001600160a01b0316816001600160a01b0316837f2f8788117e7eff1d82e926ec794901d17c78024a50270940304540a733656f0d60405160405180910390a45050565b6000828152600b60205260409020610a0b9082610ad2565b1561062657610a18610986565b6001600160a01b0316816001600160a01b0316837ff6391f5c32d9c69d2a47ea670b442974b53935d1edc7fd64eb21e047a839171b60405160405180910390a45050565b600061088e8383610ae7565b600061088e836001600160a01b038416610b4b565b600061089182610b63565b6000610a948383610b4b565b610aca57508154600181810184556000848152602080822090930184905584548482528286019093526040902091909155610891565b506000610891565b600061088e836001600160a01b038416610b67565b81546000908210610b295760405162461bcd60e51b8152600401808060200182810382526022815260200180610c2e6022913960400191505060405180910390fd5b826000018281548110610b3857fe5b9060005260206000200154905092915050565b60009081526001919091016020526040902054151590565b5490565b60008181526001830160205260408120548015610c235783546000198083019190810190600090879083908110610b9a57fe5b9060005260206000200154905080876000018481548110610bb757fe5b600091825260208083209091019290925582815260018981019092526040902090840190558654879080610be757fe5b60019003818190600052602060002001600090559055866001016000878152602001908152602001600020600090556001945050505050610891565b600091505061089156fe456e756d657261626c655365743a20696e646578206f7574206f6620626f756e6473416363657373436f6e74726f6c3a2073656e646572206d75737420626520616e2061646d696e20746f206772616e7444414f436f6d6d697474656550726f78793a20696d706c656d656e746174696f6e2061646472657373206973207a65726f416363657373436f6e74726f6c3a2073656e646572206d75737420626520616e2061646d696e20746f207265766f6b6544414f436f6d6d697474656550726f78793a206d73672e73656e646572206973206e6f7420616e2061646d696e416363657373436f6e74726f6c3a2063616e206f6e6c792072656e6f756e636520726f6c657320666f722073656c6644414f436f6d6d697474656550726f78793a20696d706c206973207a65726f204f522070726f78792069732066616c7365a26469706673582212205a9992b17fd39af66f34a126818678f3e6903a09add5cda3f178d17284f4535264736f6c63430007060033",
  "immutableReferences": {},
  "source": "// SPDX-License-Identifier: MIT\npragma solidity ^0.7.6;\n\nimport \"./StorageStateCommittee.sol\";\n//import \"../../node_modules/@openzeppelin/contracts/access/Ownable.sol\";\nimport \"../../node_modules/@openzeppelin/contracts/access/AccessControl.sol\";\nimport { ERC165 } from \"../../node_modules/@openzeppelin/contracts/introspection/ERC165.sol\";\n\ncontract DAOCommitteeProxy is StorageStateCommittee, AccessControl, ERC165 {\n    address public _implementation;\n    bool public pauseProxy;\n\n    event Upgraded(address indexed implementation);\n\n    modifier onlyOwner() {\n        require(hasRole(DEFAULT_ADMIN_ROLE, msg.sender), \"DAOCommitteeProxy: msg.sender is not an admin\");\n        _;\n    }\n     \n    constructor(\n        address _ton,\n        address _impl,\n        address _seigManager,\n        address _layer2Registry,\n        address _agendaManager,\n        address _candidateFactory,\n        //address _activityRewardManager,\n        address _daoVault\n    )\n    {\n        ton = _ton;\n        _implementation = _impl;\n        seigManager = ISeigManager(_seigManager);\n        layer2Registry = ILayer2Registry(_layer2Registry);\n        agendaManager = IDAOAgendaManager(_agendaManager);\n        candidateFactory = ICandidateFactory(_candidateFactory);\n        //activityRewardManager = IDAOActivityRewardManager(_activityRewardManager);\n        daoVault = IDAOVault2(_daoVault);\n        //maxMember = 3;\n        activityRewardPerSecond = 1e18;\n\n        _registerInterface(bytes4(keccak256(\"onApprove(address,address,uint256,bytes)\")));\n        _setupRole(DEFAULT_ADMIN_ROLE, msg.sender);\n        _setupRole(DEFAULT_ADMIN_ROLE, address(this));\n    }\n\n    function setProxyPause(bool _pause) onlyOwner public {\n        pauseProxy = _pause;\n    }\n\n    /*function setProxyStore(address payable _storeAddress) onlyOwner public {\n        require(_storeAddress != address(0), \"DAOCommitteeProxy: store address is zero\");\n        store = DAOCommitteeStore(_storeAddress);\n    }\n\n    function setProxyAgendaManager(address _addr) onlyOwner validStore public {\n        require(_addr != address(0), \"DAOCommitteeProxy: agendamanager address is zero\");\n        agendaManager = DAOAgendaManager(_addr);\n        store.setAgendaManager(_addr);\n    }\n\n    function setProxyAactivityfeeManager(address _addr) onlyOwner validStore public {\n        require(_addr != address(0), \"DAOCommitteeProxy: ActivityFeeManager address is zero\");\n        activityfeeManager = DAOActivityFeeManager(_addr);\n        store.setActivityFeeManager(_addr);\n    }\n\n    //--\n    function setProxyElection(address _addr) onlyOwner public {\n        require(_addr != address(0), \"DAOCommitteeProxy: election address is zero\");\n        election = DAOElectionStore(_addr);\n    }\n\n    function setProxyCommitteeL2Factory(address _addr) onlyOwner public {\n        require(_addr != address(0), \"DAOCommitteeProxy: factory address is zero\");\n        committeeL2Factory = CommitteeL2FactoryI(_addr);\n        election.setCommitteeL2Factory(_addr);\n    }\n\n    function setProxyLayer2Registry(address _addr) onlyOwner public {\n        require(_addr != address(0), \"DAOCommitteeProxy: registry address is zero\");\n        layer2Registry = Layer2RegistryI(_addr);\n        election.setLayer2Registry(_addr);\n    }\n\n    function setProxySeigManager(address _addr) onlyOwner public {\n        require(_addr != address(0), \"DAOCommitteeProxy: SeigManager address is zero\");\n        seigManager = SeigManagerI(_addr);\n        election.setSeigManager(_addr);\n    }*/\n    //--\n\n    function upgradeTo(address impl) public onlyOwner {\n        require(_implementation != impl, \"DAOCommitteeProxy: implementation address is zero\");\n        _implementation = impl;\n        emit Upgraded(impl);\n    }\n\n    function implementation() public view returns (address) {\n        return _implementation;\n    }\n\n    fallback() external {\n        _fallback();\n    }\n\n    function _fallback() internal {\n        address _impl = implementation();\n        require(_impl != address(0) && pauseProxy == false, \"DAOCommitteeProxy: impl is zero OR proxy is false\");\n\n        assembly {\n            // Copy msg.data. We take full control of memory in this inline assembly\n            // block because it will not return to Solidity code. We overwrite the\n            // Solidity scratch pad at memory position 0.\n            calldatacopy(0, 0, calldatasize())\n\n            // Call the implementation.\n            // out and outsize are 0 because we don't know the size yet.\n            let result := delegatecall(gas(), _impl, 0, calldatasize(), 0, 0)\n\n            // Copy the returned data.\n            returndatacopy(0, 0, returndatasize())\n\n            switch result\n            // delegatecall returns 0 on error.\n            case 0 { revert(0, returndatasize()) }\n            default { return(0, returndatasize()) }\n        }\n    }\n}\n",
  "sourcePath": "/data/github/onther/tokamak-dao-contracts3/contracts/dao/DAOCommitteeProxy.sol",
  "compiler": {
    "name": "solc",
    "version": "0.7.6+commit.7338295f.Emscripten.clang"
  },
  "schemaVersion": "3.3.2",
  "updatedAt": "2021-01-19T05:04:06.577Z",
  "networkType": "ethereum",
  "devdoc": {
    "kind": "dev",
    "methods": {
      "getRoleAdmin(bytes32)": {
        "details": "Returns the admin role that controls `role`. See {grantRole} and {revokeRole}. To change a role's admin, use {_setRoleAdmin}."
      },
      "getRoleMember(bytes32,uint256)": {
        "details": "Returns one of the accounts that have `role`. `index` must be a value between 0 and {getRoleMemberCount}, non-inclusive. Role bearers are not sorted in any particular way, and their ordering may change at any point. WARNING: When using {getRoleMember} and {getRoleMemberCount}, make sure you perform all queries on the same block. See the following https://forum.openzeppelin.com/t/iterating-over-elements-on-enumerableset-in-openzeppelin-contracts/2296[forum post] for more information."
      },
      "getRoleMemberCount(bytes32)": {
        "details": "Returns the number of accounts that have `role`. Can be used together with {getRoleMember} to enumerate all bearers of a role."
      },
      "grantRole(bytes32,address)": {
        "details": "Grants `role` to `account`. If `account` had not been already granted `role`, emits a {RoleGranted} event. Requirements: - the caller must have ``role``'s admin role."
      },
      "hasRole(bytes32,address)": {
        "details": "Returns `true` if `account` has been granted `role`."
      },
      "renounceRole(bytes32,address)": {
        "details": "Revokes `role` from the calling account. Roles are often managed via {grantRole} and {revokeRole}: this function's purpose is to provide a mechanism for accounts to lose their privileges if they are compromised (such as when a trusted device is misplaced). If the calling account had been granted `role`, emits a {RoleRevoked} event. Requirements: - the caller must be `account`."
      },
      "revokeRole(bytes32,address)": {
        "details": "Revokes `role` from `account`. If `account` had been granted `role`, emits a {RoleRevoked} event. Requirements: - the caller must have ``role``'s admin role."
      },
      "supportsInterface(bytes4)": {
        "details": "See {IERC165-supportsInterface}. Time complexity O(1), guaranteed to always use less than 30 000 gas."
      }
    },
    "version": 1
  },
  "userdoc": {
    "kind": "user",
    "methods": {},
    "version": 1
  }
}