{
  "contractName": "DAOCommittee",
  "abi": [
    {
      "anonymous": false,
      "inputs": [
        {
          "indexed": true,
          "internalType": "uint256",
          "name": "timestamp",
          "type": "uint256"
        },
        {
          "indexed": true,
          "internalType": "address",
          "name": "from",
          "type": "address"
        },
        {
          "indexed": true,
          "internalType": "uint256",
          "name": "id",
          "type": "uint256"
        },
        {
          "indexed": false,
          "internalType": "address",
          "name": "target",
          "type": "address"
        },
        {
          "indexed": false,
          "internalType": "uint256",
          "name": "noticeEndTimestamp",
          "type": "uint256"
        }
      ],
      "name": "AgendaCreated",
      "type": "event"
    },
    {
      "anonymous": false,
      "inputs": [
        {
          "indexed": true,
          "internalType": "uint256",
          "name": "timestamp",
          "type": "uint256"
        },
        {
          "indexed": true,
          "internalType": "address",
          "name": "from",
          "type": "address"
        },
        {
          "indexed": true,
          "internalType": "uint256",
          "name": "id",
          "type": "uint256"
        },
        {
          "indexed": false,
          "internalType": "address",
          "name": "target",
          "type": "address"
        },
        {
          "indexed": false,
          "internalType": "bytes",
          "name": "functionBytecode",
          "type": "bytes"
        }
      ],
      "name": "AgendaExecuted",
      "type": "event"
    },
    {
      "anonymous": false,
      "inputs": [
        {
          "indexed": true,
          "internalType": "uint256",
          "name": "timestamp",
          "type": "uint256"
        },
        {
          "indexed": true,
          "internalType": "address",
          "name": "from",
          "type": "address"
        },
        {
          "indexed": true,
          "internalType": "uint256",
          "name": "id",
          "type": "uint256"
        },
        {
          "indexed": false,
          "internalType": "uint256",
          "name": "voting",
          "type": "uint256"
        },
        {
          "indexed": false,
          "internalType": "string",
          "name": "comment",
          "type": "string"
        }
      ],
      "name": "AgendaVoteCasted",
      "type": "event"
    },
    {
      "anonymous": false,
      "inputs": [
        {
          "indexed": true,
          "internalType": "address",
          "name": "from",
          "type": "address"
        },
        {
          "indexed": false,
          "internalType": "address",
          "name": "member",
          "type": "address"
        },
        {
          "indexed": false,
          "internalType": "uint256",
          "name": "totalbalance",
          "type": "uint256"
        },
        {
          "indexed": false,
          "internalType": "uint256",
          "name": "memberIndex",
          "type": "uint256"
        }
      ],
      "name": "ApplyMemberSuccess",
      "type": "event"
    },
    {
      "anonymous": false,
      "inputs": [
        {
          "indexed": true,
          "internalType": "address",
          "name": "candidate",
          "type": "address"
        },
        {
          "indexed": false,
          "internalType": "address",
          "name": "candidateContract",
          "type": "address"
        },
        {
          "indexed": false,
          "internalType": "string",
          "name": "memo",
          "type": "string"
        }
      ],
      "name": "CandidateContractCreated",
      "type": "event"
    },
    {
      "anonymous": false,
      "inputs": [
        {
          "indexed": true,
          "internalType": "uint256",
          "name": "timestamp",
          "type": "uint256"
        },
        {
          "indexed": true,
          "internalType": "uint256",
          "name": "slotIndex",
          "type": "uint256"
        },
        {
          "indexed": false,
          "internalType": "address",
          "name": "prevMember",
          "type": "address"
        },
        {
          "indexed": true,
          "internalType": "address",
          "name": "newMember",
          "type": "address"
        }
      ],
      "name": "ChangedMember",
      "type": "event"
    },
    {
      "anonymous": false,
      "inputs": [
        {
          "indexed": true,
          "internalType": "uint256",
          "name": "prevSlotMax",
          "type": "uint256"
        },
        {
          "indexed": true,
          "internalType": "uint256",
          "name": "slotMax",
          "type": "uint256"
        }
      ],
      "name": "ChangedSlotMaximum",
      "type": "event"
    },
    {
      "anonymous": false,
      "inputs": [
        {
          "indexed": true,
          "internalType": "address",
          "name": "previousOwner",
          "type": "address"
        },
        {
          "indexed": true,
          "internalType": "address",
          "name": "newOwner",
          "type": "address"
        }
      ],
      "name": "OwnershipTransferred",
      "type": "event"
    },
    {
      "inputs": [],
      "name": "agendaManager",
      "outputs": [
        {
          "internalType": "contract IDAOAgendaManager",
          "name": "",
          "type": "address"
        }
      ],
      "stateMutability": "view",
      "type": "function"
    },
    {
      "inputs": [
        {
          "internalType": "address",
          "name": "_candidate",
          "type": "address"
        }
      ],
      "name": "candidateContract",
      "outputs": [
        {
          "internalType": "address",
          "name": "",
          "type": "address"
        }
      ],
      "stateMutability": "view",
      "type": "function"
    },
    {
      "inputs": [],
      "name": "candidateFactory",
      "outputs": [
        {
          "internalType": "contract ICandidateFactory",
          "name": "",
          "type": "address"
        }
      ],
      "stateMutability": "view",
      "type": "function"
    },
    {
      "inputs": [
        {
          "internalType": "address",
          "name": "",
          "type": "address"
        }
      ],
      "name": "candidateInfos",
      "outputs": [
        {
          "internalType": "address",
          "name": "candidateContract",
          "type": "address"
        },
        {
          "internalType": "uint256",
          "name": "memberJoinedTime",
          "type": "uint256"
        },
        {
          "internalType": "uint256",
          "name": "indexMembers",
          "type": "uint256"
        }
      ],
      "stateMutability": "view",
      "type": "function"
    },
    {
      "inputs": [
        {
          "internalType": "uint256",
          "name": "",
          "type": "uint256"
        }
      ],
      "name": "candidates",
      "outputs": [
        {
          "internalType": "address",
          "name": "",
          "type": "address"
        }
      ],
      "stateMutability": "view",
      "type": "function"
    },
    {
      "inputs": [],
      "name": "daoVault",
      "outputs": [
        {
          "internalType": "address",
          "name": "",
          "type": "address"
        }
      ],
      "stateMutability": "view",
      "type": "function"
    },
    {
      "inputs": [
        {
          "internalType": "address",
          "name": "_candidate",
          "type": "address"
        }
      ],
      "name": "isMember",
      "outputs": [
        {
          "internalType": "bool",
          "name": "",
          "type": "bool"
        }
      ],
      "stateMutability": "view",
      "type": "function"
    },
    {
      "inputs": [],
      "name": "layer2Registry",
      "outputs": [
        {
          "internalType": "contract ILayer2Registry",
          "name": "",
          "type": "address"
        }
      ],
      "stateMutability": "view",
      "type": "function"
    },
    {
      "inputs": [],
      "name": "maxMember",
      "outputs": [
        {
          "internalType": "uint256",
          "name": "",
          "type": "uint256"
        }
      ],
      "stateMutability": "view",
      "type": "function"
    },
    {
      "inputs": [
        {
          "internalType": "uint256",
          "name": "",
          "type": "uint256"
        }
      ],
      "name": "members",
      "outputs": [
        {
          "internalType": "address",
          "name": "",
          "type": "address"
        }
      ],
      "stateMutability": "view",
      "type": "function"
    },
    {
      "inputs": [],
      "name": "owner",
      "outputs": [
        {
          "internalType": "address",
          "name": "",
          "type": "address"
        }
      ],
      "stateMutability": "view",
      "type": "function"
    },
    {
      "inputs": [],
      "name": "renounceOwnership",
      "outputs": [],
      "stateMutability": "nonpayable",
      "type": "function"
    },
    {
      "inputs": [],
      "name": "seigManager",
      "outputs": [
        {
          "internalType": "contract ISeigManager",
          "name": "",
          "type": "address"
        }
      ],
      "stateMutability": "view",
      "type": "function"
    },
    {
      "inputs": [],
      "name": "ton",
      "outputs": [
        {
          "internalType": "address",
          "name": "",
          "type": "address"
        }
      ],
      "stateMutability": "view",
      "type": "function"
    },
    {
      "inputs": [
        {
          "internalType": "address",
          "name": "newOwner",
          "type": "address"
        }
      ],
      "name": "transferOwnership",
      "outputs": [],
      "stateMutability": "nonpayable",
      "type": "function"
    },
    {
      "inputs": [
        {
          "internalType": "address",
          "name": "_agendaManager",
          "type": "address"
        }
      ],
      "name": "setSeigManager",
      "outputs": [],
      "stateMutability": "nonpayable",
      "type": "function"
    },
    {
      "inputs": [
        {
          "internalType": "address",
          "name": "_daoVault",
          "type": "address"
        }
      ],
      "name": "setDaoVault",
      "outputs": [],
      "stateMutability": "nonpayable",
      "type": "function"
    },
    {
      "inputs": [
        {
          "internalType": "address",
          "name": "_layer2Registry",
          "type": "address"
        }
      ],
      "name": "setLayer2Registry",
      "outputs": [],
      "stateMutability": "nonpayable",
      "type": "function"
    },
    {
      "inputs": [
        {
          "internalType": "address",
          "name": "_agendaManager",
          "type": "address"
        }
      ],
      "name": "setAgendaManager",
      "outputs": [],
      "stateMutability": "nonpayable",
      "type": "function"
    },
    {
      "inputs": [
        {
          "internalType": "address",
          "name": "_candidateFactory",
          "type": "address"
        }
      ],
      "name": "setCandidateFactory",
      "outputs": [],
      "stateMutability": "nonpayable",
      "type": "function"
    },
    {
      "inputs": [
        {
          "internalType": "address",
          "name": "_ton",
          "type": "address"
        }
      ],
      "name": "setTon",
      "outputs": [],
      "stateMutability": "nonpayable",
      "type": "function"
    },
    {
      "inputs": [
        {
          "internalType": "address",
          "name": "owner",
          "type": "address"
        },
        {
          "internalType": "address",
          "name": "spender",
          "type": "address"
        },
        {
          "internalType": "uint256",
          "name": "tonAmount",
          "type": "uint256"
        },
        {
          "internalType": "bytes",
          "name": "data",
          "type": "bytes"
        }
      ],
      "name": "onApprove",
      "outputs": [
        {
          "internalType": "bool",
          "name": "",
          "type": "bool"
        }
      ],
      "stateMutability": "nonpayable",
      "type": "function"
    },
    {
      "inputs": [
        {
          "internalType": "uint256",
          "name": "_maxMember",
          "type": "uint256"
        }
      ],
      "name": "setMaxMember",
      "outputs": [],
      "stateMutability": "nonpayable",
      "type": "function"
    },
    {
      "inputs": [
        {
          "internalType": "string",
          "name": "_memo",
          "type": "string"
        }
      ],
      "name": "createCandidate",
      "outputs": [],
      "stateMutability": "nonpayable",
      "type": "function"
    },
    {
      "inputs": [
        {
          "internalType": "uint256",
          "name": "_memberIndex",
          "type": "uint256"
        }
      ],
      "name": "changeMember",
      "outputs": [
        {
          "internalType": "bool",
          "name": "",
          "type": "bool"
        }
      ],
      "stateMutability": "nonpayable",
      "type": "function"
    },
    {
      "inputs": [],
      "name": "retireMember",
      "outputs": [
        {
          "internalType": "bool",
          "name": "",
          "type": "bool"
        }
      ],
      "stateMutability": "nonpayable",
      "type": "function"
    },
    {
      "inputs": [
        {
          "internalType": "uint256",
          "name": "_reducingMemberIndex",
          "type": "uint256"
        }
      ],
      "name": "reduceMemberSlot",
      "outputs": [],
      "stateMutability": "nonpayable",
      "type": "function"
    },
    {
      "inputs": [
        {
          "internalType": "uint256",
          "name": "_minimunNoticePeriod",
          "type": "uint256"
        }
      ],
      "name": "setMinimunNoticePeriodSeconds",
      "outputs": [],
      "stateMutability": "nonpayable",
      "type": "function"
    },
    {
      "inputs": [
        {
          "internalType": "uint256",
          "name": "_minimunVotingPeriod",
          "type": "uint256"
        }
      ],
      "name": "setMinimunVotingPeriodSeconds",
      "outputs": [],
      "stateMutability": "nonpayable",
      "type": "function"
    },
    {
      "inputs": [
        {
          "internalType": "uint256",
          "name": "_quorumNumerator",
          "type": "uint256"
        },
        {
          "internalType": "uint256",
          "name": "_quorumDenominator",
          "type": "uint256"
        }
      ],
      "name": "setQuorum",
      "outputs": [],
      "stateMutability": "nonpayable",
      "type": "function"
    },
    {
      "inputs": [
        {
          "internalType": "uint256",
          "name": "_fees",
          "type": "uint256"
        }
      ],
      "name": "setCreateAgendaFees",
      "outputs": [],
      "stateMutability": "nonpayable",
      "type": "function"
    },
    {
      "inputs": [
        {
          "internalType": "uint256",
          "name": "_agendaID",
          "type": "uint256"
        },
        {
          "internalType": "uint256",
          "name": "_vote",
          "type": "uint256"
        },
        {
          "internalType": "string",
          "name": "_comment",
          "type": "string"
        }
      ],
      "name": "castVote",
      "outputs": [],
      "stateMutability": "nonpayable",
      "type": "function"
    },
    {
      "inputs": [
        {
          "internalType": "uint256",
          "name": "_agendaID",
          "type": "uint256"
        }
      ],
      "name": "executeAgenda",
      "outputs": [],
      "stateMutability": "nonpayable",
      "type": "function"
    },
    {
      "inputs": [
        {
          "internalType": "address",
          "name": "_candidate",
          "type": "address"
        }
      ],
      "name": "updateSeigniorage",
      "outputs": [
        {
          "internalType": "bool",
          "name": "",
          "type": "bool"
        }
      ],
      "stateMutability": "nonpayable",
      "type": "function"
    },
    {
      "inputs": [
        {
          "internalType": "address[]",
          "name": "_candidates",
          "type": "address[]"
        }
      ],
      "name": "updateSeigniorages",
      "outputs": [
        {
          "internalType": "bool",
          "name": "",
          "type": "bool"
        }
      ],
      "stateMutability": "nonpayable",
      "type": "function"
    },
    {
      "inputs": [],
      "name": "requiredVotesToPass",
      "outputs": [
        {
          "internalType": "uint256",
          "name": "requiredVotes",
          "type": "uint256"
        }
      ],
      "stateMutability": "view",
      "type": "function"
    },
    {
      "inputs": [
        {
          "internalType": "address",
          "name": "_candidate",
          "type": "address"
        }
      ],
      "name": "totalSupplyOnCandidate",
      "outputs": [
        {
          "internalType": "uint256",
          "name": "totalsupply",
          "type": "uint256"
        }
      ],
      "stateMutability": "view",
      "type": "function"
    },
    {
      "inputs": [
        {
          "internalType": "address",
          "name": "_candidate",
          "type": "address"
        },
        {
          "internalType": "address",
          "name": "account",
          "type": "address"
        }
      ],
      "name": "balanceOfOnCandidate",
      "outputs": [
        {
          "internalType": "uint256",
          "name": "amount",
          "type": "uint256"
        }
      ],
      "stateMutability": "view",
      "type": "function"
    },
    {
      "inputs": [],
      "name": "candidatesLength",
      "outputs": [
        {
          "internalType": "uint256",
          "name": "",
          "type": "uint256"
        }
      ],
      "stateMutability": "view",
      "type": "function"
    },
    {
      "inputs": [
        {
          "internalType": "address",
          "name": "_candidate",
          "type": "address"
        }
      ],
      "name": "isExistCandidate",
      "outputs": [
        {
          "internalType": "bool",
          "name": "isExist",
          "type": "bool"
        }
      ],
      "stateMutability": "view",
      "type": "function"
    }
  ],
  "bytecode": "0x60806040523480156200001157600080fd5b5060006200001e62000072565b600a80546001600160a01b0319166001600160a01b038316908117909155604051919250906000907f8be0079c531659141344cd1fd0a4f28419497f9722a3daafe3b4186f6b6457e0908290a35062000076565b3390565b61369480620000866000396000f3fe608060405234801561001057600080fd5b50600436106102485760003560e01c80636fb7f5581161013b578063ad6675dc116100b8578063cf2a239c1161007c578063cf2a239c146104ae578063d10d2b50146104b6578063d1f0473f146104c9578063d525f04f146104dc578063f2fde38b146104ef57610248565b8063ad6675dc14610470578063b4f69b6a14610483578063b5dd115814610496578063c4ef9c001461049e578063cc48b947146104a657610248565b80638287cc52116100ff5780638287cc521461042757806389ea43001461043a5780638da5cb5b1461044d5780639a62f61514610455578063a230c5241461045d57610248565b80636fb7f558146103e9578063715018a6146103f15780637657f20a146103f9578063773b7f651461040c5780637a3d54681461041457610248565b806349c39f14116101c957806357f0a8671161018d57806357f0a867146103955780635903bd6c146103a85780635daf08ca146103b05780635fba7a56146103c3578063651d08cd146103d657610248565b806349c39f14146103365780634b799db1146103495780634d288fec1461035c57806355d1fe161461036f578063561a1dab1461038257610248565b806327fd92fd1161021057806327fd92fd146102c65780632af60ff4146102db5780632e011c1e146102ee5780633477ee2e146103105780634273ca161461032357610248565b806303e3c9ac1461024d578063047f52f21461026b57806311f19e0414610280578063216f486b146102a057806324f99b1e146102b3575b600080fd5b610255610502565b60405161026291906133f9565b60405180910390f35b61027e6102793660046129da565b610508565b005b61029361028e366004612cd5565b6105b1565b6040516102629190612f15565b61027e6102ae366004612cd5565b610745565b61027e6102c1366004612d26565b6109df565b6102ce610e06565b6040516102629190612dec565b61027e6102e93660046129da565b610e15565b6103016102fc3660046129da565b610eb5565b60405161026293929190612eb6565b6102ce61031e366004612cd5565b610ee0565b610293610331366004612abe565b610f0a565b61027e6103443660046129da565b610f44565b61027e6103573660046129da565b610fe4565b61027e61036a3660046129da565b611084565b61027e61037d366004612cd5565b611124565b6102936103903660046129da565b6111ad565b6102936103a3366004612bb8565b6111cd565b6102ce61120d565b6102ce6103be366004612cd5565b61121c565b61027e6103d1366004612c47565b61122c565b6102ce6103e43660046129da565b611590565b6102ce6115ae565b61027e6115bd565b61027e6104073660046129da565b61165f565b6102556116ff565b61027e610422366004612d05565b611705565b61027e610435366004612cd5565b61180c565b6102936104483660046129da565b6119f7565b6102ce611aab565b610255611aba565b61029361046b3660046129da565b611b63565b61025561047e3660046129da565b611b83565b61027e610491366004612cd5565b611cd9565b6102ce611ddd565b610293611dec565b6102ce611ed4565b6102ce611ee3565b61027e6104c4366004612cd5565b611ef2565b61027e6104d7366004612cd5565b611fc1565b6102556104ea366004612a86565b612090565b61027e6104fd3660046129da565b6121f4565b60085481565b6105106122ed565b600a546001600160a01b03908116911614610560576040805162461bcd60e51b815260206004820181905260248201526000805160206135b7833981519152604482015290519081900360640190fd5b6001600160a01b03811661058f5760405162461bcd60e51b815260040161058690613275565b60405180910390fd5b600380546001600160a01b0319166001600160a01b0392909216919091179055565b33600090815260096020526040812060085483106105e15760405162461bcd60e51b815260040161058690612fd8565b80546001600160a01b03166106085760405162461bcd60e51b81526004016105869061329b565b60018101541561062a5760405162461bcd60e51b815260040161058690613234565b60006007848154811061063957fe5b60009182526020909120015442600184015560028301859055600780546001600160a01b03909216925033918690811061066f57fe5b600091825260209091200180546001600160a01b0319166001600160a01b0392831617905581166106a557600192505050610740565b6106ae81611b83565b6106b733611b83565b116106d45760405162461bcd60e51b815260040161058690612f20565b6001600160a01b038116600090815260096020526040808220600181018390556002810192909255513390869042907fea3fd787e2f4c0fdea14457bfcd00fe64cedf6155b00934cf90ba255a5c7c6bf90610730908790612dec565b60405180910390a4600193505050505b919050565b6002546001600160a01b031661078c5760405162461bcd60e51b815260040180806020018281038252602c8152602001806135d7602c913960400191505060405180910390fd5b6002546040516377f28d5b60e01b81526001600160a01b03909116906377f28d5b906107bc9084906004016133f9565b60206040518083038186803b1580156107d457600080fd5b505afa1580156107e8573d6000803e3d6000fd5b505050506040513d601f19601f8201168201806040525081019061080c9190612c27565b6108285760405162461bcd60e51b81526004016105869061319c565b6002546040516373ba374560e01b815260009182916001600160a01b03909116906373ba37459061085d9086906004016133f9565b60006040518083038186803b15801561087557600080fd5b505afa158015610889573d6000803e3d6000fd5b505050506040513d6000823e601f3d908101601f191682016040526108b19190810190612b2f565b915091506000826001600160a01b0316826040516108cf9190612dd0565b6000604051808303816000865af19150503d806000811461090c576040519150601f19603f3d011682016040523d82523d6000602084013e610911565b606091505b50509050806109325760405162461bcd60e51b81526004016105869061336c565b600254604051631b8c251960e11b81526001600160a01b03909116906337184a32906109629087906004016133f9565b600060405180830381600087803b15801561097c57600080fd5b505af1158015610990573d6000803e3d6000fd5b5050505083336001600160a01b0316427f72c224df7019ab0839b67a72588e8b5cd160a04a24758e41ca62f19e6a37a01186866040516109d1929190612e92565b60405180910390a450505050565b6002546001600160a01b0316610a265760405162461bcd60e51b815260040180806020018281038252602c8152602001806135d7602c913960400191505060405180910390fd5b6000610a30611aba565b905060008111610a525760405162461bcd60e51b8152600401610586906133b6565b600254604051637e77eb2360e01b81526001600160a01b0390911690637e77eb2390610a8690889033908990600401613402565b602060405180830381600087803b158015610aa057600080fd5b505af1158015610ab4573d6000803e3d6000fd5b505050506040513d601f19601f82011682018060405250810190610ad89190612c27565b50600254604051635772521560e11b8152600091829182916001600160a01b03169063aee4a42a90610b0e908b906004016133f9565b60606040518083038186803b158015610b2657600080fd5b505afa158015610b3a573d6000803e3d6000fd5b505050506040513d601f19601f82011682018060405250810190610b5e9190612d77565b92509250925082841015610c3b57600254604051632b0a851b60e11b81526001600160a01b03909116906356150a3690610b9f908b90600190600401613421565b600060405180830381600087803b158015610bb957600080fd5b505af1158015610bcd573d6000803e3d6000fd5b5050600254604051633625b75960e21b81526001600160a01b03909116925063d896dd649150610c04908b9060039060040161343f565b600060405180830381600087803b158015610c1e57600080fd5b505af1158015610c32573d6000803e3d6000fd5b50505050610db5565b81841015610cd95760028054604051632b0a851b60e11b81526001600160a01b03909116916356150a3691610c74918c91600401613421565b600060405180830381600087803b158015610c8e57600080fd5b505af1158015610ca2573d6000803e3d6000fd5b5050600254604051633625b75960e21b81526001600160a01b03909116925063d896dd649150610c04908b9060059060040161343f565b610ce381836122f1565b841015610db557600254604051632b0a851b60e11b81526001600160a01b03909116906356150a3690610d1d908b90600390600401613421565b600060405180830381600087803b158015610d3757600080fd5b505af1158015610d4b573d6000803e3d6000fd5b5050600254604051633625b75960e21b81526001600160a01b03909116925063d896dd649150610d82908b9060059060040161343f565b600060405180830381600087803b158015610d9c57600080fd5b505af1158015610db0573d6000803e3d6000fd5b505050505b87336001600160a01b0316427fd70d4d91a62d317effda35c69966493e9eda120acb023f6e351eff4302f9c7d78a8a8a604051610df493929190613450565b60405180910390a45050505050505050565b6002546001600160a01b031681565b610e1d6122ed565b600a546001600160a01b03908116911614610e6d576040805162461bcd60e51b815260206004820181905260248201526000805160206135b7833981519152604482015290519081900360640190fd5b6001600160a01b038116610e935760405162461bcd60e51b815260040161058690613275565b600480546001600160a01b0319166001600160a01b0392909216919091179055565b6009602052600090815260409020805460018201546002909201546001600160a01b03909116919083565b60068181548110610ef057600080fd5b6000918252602090912001546001600160a01b0316905081565b600080610f178484612352565b9050610f36878260000151836020015184604001518560600151612386565b506001979650505050505050565b610f4c6122ed565b600a546001600160a01b03908116911614610f9c576040805162461bcd60e51b815260206004820181905260248201526000805160206135b7833981519152604482015290519081900360640190fd5b6001600160a01b038116610fc25760405162461bcd60e51b815260040161058690613275565b600280546001600160a01b0319166001600160a01b0392909216919091179055565b610fec6122ed565b600a546001600160a01b0390811691161461103c576040805162461bcd60e51b815260206004820181905260248201526000805160206135b7833981519152604482015290519081900360640190fd5b6001600160a01b0381166110625760405162461bcd60e51b815260040161058690613275565b600180546001600160a01b0319166001600160a01b0392909216919091179055565b61108c6122ed565b600a546001600160a01b039081169116146110dc576040805162461bcd60e51b815260206004820181905260248201526000805160206135b7833981519152604482015290519081900360640190fd5b6001600160a01b0381166111025760405162461bcd60e51b815260040161058690613275565b600080546001600160a01b0319166001600160a01b0392909216919091179055565b61112c6122ed565b600a546001600160a01b0390811691161461117c576040805162461bcd60e51b815260206004820181905260248201526000805160206135b7833981519152604482015290519081900360640190fd5b806008541061119d5760405162461bcd60e51b815260040161058690613021565b60088190556111aa612531565b50565b6001600160a01b0390811660009081526009602052604090205416151590565b6000805b82811015611206576111fd8484838181106111e857fe5b905060200201602081019061044891906129da565b506001016111d1565b5092915050565b6001546001600160a01b031681565b60078181548110610ef057600080fd5b6005546001600160a01b03166112735760405162461bcd60e51b815260040180806020018281038252602b815260200180613634602b913960400191505060405180910390fd5b6004546001600160a01b03166112ba5760405162461bcd60e51b815260040180806020018281038252602d815260200180613569602d913960400191505060405180910390fd5b6003546001600160a01b03166113015760405162461bcd60e51b81526004018080602001828103825260318152602001806136036031913960400191505060405180910390fd5b61130a336111ad565b156113275760405162461bcd60e51b8152600401610586906132ec565b600354600554600480546040516337d5af5f60e01b81526000946001600160a01b03908116946337d5af5f946113699433948a94938416939091169101612e00565b602060405180830381600087803b15801561138357600080fd5b505af1158015611397573d6000803e3d6000fd5b505050506040513d601f19601f820116820180604052508101906113bb91906129f6565b90506001600160a01b0381166113e35760405162461bcd60e51b81526004016105869061314c565b60048054600554604051635e58d38f60e11b81526001600160a01b039283169363bcb1a71e9361141893879391169101612e54565b602060405180830381600087803b15801561143257600080fd5b505af1158015611446573d6000803e3d6000fd5b505050506040513d601f19601f8201168201806040525081019061146a9190612c27565b6114865760405162461bcd60e51b8152600401610586906131e4565b336000908152600960205260409020546001600160a01b0316156114bc5760405162461bcd60e51b81526004016105869061307f565b604080516060810182526001600160a01b038084168252600060208084018281528486018381523380855260099093528684209551865495166001600160a01b0319958616178655905160018087019190915590516002909501949094556006805494850181559091527ff652222313e28459528d920b65115c16c04f3efc82aaedc97be59f3f377c0d3f90920180549091168217905590517f7cf8db18d9a5c7f44156bfabdbb59ac982a8a004e461ca1b87ee71a5cdfbc5ef906115849084908690612e92565b60405180910390a25050565b6001600160a01b039081166000908152600960205260409020541690565b6005546001600160a01b031681565b6115c56122ed565b600a546001600160a01b03908116911614611615576040805162461bcd60e51b815260206004820181905260248201526000805160206135b7833981519152604482015290519081900360640190fd5b600a546040516000916001600160a01b0316907f8be0079c531659141344cd1fd0a4f28419497f9722a3daafe3b4186f6b6457e0908390a3600a80546001600160a01b0319169055565b6116676122ed565b600a546001600160a01b039081169116146116b7576040805162461bcd60e51b815260206004820181905260248201526000805160206135b7833981519152604482015290519081900360640190fd5b6001600160a01b0381166116dd5760405162461bcd60e51b815260040161058690613275565b600580546001600160a01b0319166001600160a01b0392909216919091179055565b60065490565b61170d6122ed565b600a546001600160a01b0390811691161461175d576040805162461bcd60e51b815260206004820181905260248201526000805160206135b7833981519152604482015290519081900360640190fd5b6002546001600160a01b03166117a45760405162461bcd60e51b815260040180806020018281038252602c8152602001806135d7602c913960400191505060405180910390fd5b600254604051630f47aa8d60e31b81526001600160a01b0390911690637a3d5468906117d69085908590600401613486565b600060405180830381600087803b1580156117f057600080fd5b505af1158015611804573d6000803e3d6000fd5b505050505050565b6118146122ed565b600a546001600160a01b03908116911614611864576040805162461bcd60e51b815260206004820181905260248201526000805160206135b7833981519152604482015290519081900360640190fd5b60006007828154811061187357fe5b60009182526020808320909101546001600160a01b0316808352600990915260409091206007549192509060001901831461193057600780546000919060001981019081106118be57fe5b60009182526020808320909101546001600160a01b03168083526009909152604090912060028101869055600780549293509091839190879081106118ff57fe5b9060005260206000200160006101000a8154816001600160a01b0302191690836001600160a01b0316021790555050505b6000600182018190556002820155600780548061194957fe5b600082815260209020810160001990810180546001600160a01b0319169055019055600854611979906001612586565b600855604051600090849042907fea3fd787e2f4c0fdea14457bfcd00fe64cedf6155b00934cf90ba255a5c7c6bf906119b3908790612dec565b60405180910390a46008546119c98160016122f1565b6040517f8c0366d1e3a335a312d012257ee764723c38ec2dd5e74cbfad372513521f977190600090a3505050565b6001600160a01b0380821660009081526009602052604081205490911680611a315760405162461bcd60e51b8152600401610586906130d4565b806001600160a01b031663764a78566040518163ffffffff1660e01b8152600401602060405180830381600087803b158015611a6c57600080fd5b505af1158015611a80573d6000803e3d6000fd5b505050506040513d601f19601f82011682018060405250810190611aa49190612c27565b5050919050565b600a546001600160a01b031690565b600254604080516302e0740360e31b8152815160009384936001600160a01b0390911692631703a0189260048083019392829003018186803b158015611aff57600080fd5b505afa158015611b13573d6000803e3d6000fd5b505050506040513d601f19601f82011682018060405250810190611b379190612c8d565b600754602082015182519293509091611b5c9190611b569084906125c8565b90612621565b9250505090565b6001600160a01b0316600090815260096020526040902060010154151590565b600080611b8f83611590565b90506001600160a01b038116611bb75760405162461bcd60e51b815260040161058690612fa1565b600554604051634c063c1960e01b81526000916001600160a01b031690634c063c1990611be8908590600401612dec565b60206040518083038186803b158015611c0057600080fd5b505afa158015611c14573d6000803e3d6000fd5b505050506040513d601f19601f82011682018060405250810190611c3891906129f6565b90506001600160a01b038116611c605760405162461bcd60e51b815260040161058690613335565b806001600160a01b03166318160ddd6040518163ffffffff1660e01b815260040160206040518083038186803b158015611c9957600080fd5b505afa158015611cad573d6000803e3d6000fd5b505050506040513d601f19601f82011682018060405250810190611cd19190612ced565b949350505050565b611ce16122ed565b600a546001600160a01b03908116911614611d31576040805162461bcd60e51b815260206004820181905260248201526000805160206135b7833981519152604482015290519081900360640190fd5b6002546001600160a01b0316611d785760405162461bcd60e51b815260040180806020018281038252602c8152602001806135d7602c913960400191505060405180910390fd5b600254604051635a7b4db560e11b81526001600160a01b039091169063b4f69b6a90611da89084906004016133f9565b600060405180830381600087803b158015611dc257600080fd5b505af1158015611dd6573d6000803e3d6000fd5b5050505050565b6003546001600160a01b031681565b600033611df881611b63565b611e335760405162461bcd60e51b81526004018080602001828103825260238152602001806135466023913960400191505060405180910390fd5b3360009081526009602052604081206002810154600780549293929091908110611e5957fe5b6000918252602082200180546001600160a01b0319166001600160a01b03939093169290921790915560018201819055600282015460405142907fea3fd787e2f4c0fdea14457bfcd00fe64cedf6155b00934cf90ba255a5c7c6bf90611ec0903390612dec565b60405180910390a460006002909101555090565b6000546001600160a01b031681565b6004546001600160a01b031681565b611efa6122ed565b600a546001600160a01b03908116911614611f4a576040805162461bcd60e51b815260206004820181905260248201526000805160206135b7833981519152604482015290519081900360640190fd5b6002546001600160a01b0316611f915760405162461bcd60e51b815260040180806020018281038252602c8152602001806135d7602c913960400191505060405180910390fd5b600254604051630d10d2b560e41b81526001600160a01b039091169063d10d2b5090611da89084906004016133f9565b611fc96122ed565b600a546001600160a01b03908116911614612019576040805162461bcd60e51b815260206004820181905260248201526000805160206135b7833981519152604482015290519081900360640190fd5b6002546001600160a01b03166120605760405162461bcd60e51b815260040180806020018281038252602c8152602001806135d7602c913960400191505060405180910390fd5b60025460405163d1f0473f60e01b81526001600160a01b039091169063d1f0473f90611da89084906004016133f9565b60008061209c84611590565b90506001600160a01b0381166120c45760405162461bcd60e51b815260040161058690612fa1565b600554604051634c063c1960e01b81526000916001600160a01b031690634c063c19906120f5908590600401612dec565b60206040518083038186803b15801561210d57600080fd5b505afa158015612121573d6000803e3d6000fd5b505050506040513d601f19601f8201168201806040525081019061214591906129f6565b90506001600160a01b03811661216d5760405162461bcd60e51b815260040161058690613335565b6040516370a0823160e01b81526001600160a01b038216906370a0823190612199908790600401612dec565b60206040518083038186803b1580156121b157600080fd5b505afa1580156121c5573d6000803e3d6000fd5b505050506040513d601f19601f820116820180604052508101906121e99190612ced565b925050505b92915050565b6121fc6122ed565b600a546001600160a01b0390811691161461224c576040805162461bcd60e51b815260206004820181905260248201526000805160206135b7833981519152604482015290519081900360640190fd5b6001600160a01b0381166122915760405162461bcd60e51b81526004018080602001828103825260268152602001806135206026913960400191505060405180910390fd5b600a546040516001600160a01b038084169216907f8be0079c531659141344cd1fd0a4f28419497f9722a3daafe3b4186f6b6457e090600090a3600a80546001600160a01b0319166001600160a01b0392909216919091179055565b3390565b60008282018381101561234b576040805162461bcd60e51b815260206004820152601b60248201527f536166654d6174683a206164646974696f6e206f766572666c6f770000000000604482015290519081900360640190fd5b9392505050565b61235a612924565b61236682840184612a12565b6060850152604084015260208301526001600160a01b0316815292915050565b6002546000906001600160a01b03166123d05760405162461bcd60e51b815260040180806020018281038252602c8152602001806135d7602c913960400191505060405180910390fd5b6123d986612663565b600254604051630f07905160e31b81526000916001600160a01b03169063783c8288906124129089908990899087908a90600401612ed7565b602060405180830381600087803b15801561242c57600080fd5b505af1158015612440573d6000803e3d6000fd5b505050506040513d601f19601f820116820180604052508101906124649190612ced565b600254604051636f35e9c360e11b81529192508291339142917f09032c533eeeaf532aca60822adb8ac57ab801abda2d111b72eac42eaa794c69918b916001600160a01b039091169063de6bd386906124c19088906004016133f9565b60206040518083038186803b1580156124d957600080fd5b505afa1580156124ed573d6000803e3d6000fd5b505050506040513d601f19601f820116820180604052508101906125119190612ced565b60405161251f929190612e3b565b60405180910390a49695505050505050565b6007545b6008548110156111aa5760078054600181810183556000929092527fa66cc928b5edb82af9bd49922954155ab7b0942694bea4ce44661d9a8736c6880180546001600160a01b031916905501612535565b600061234b83836040518060400160405280601e81526020017f536166654d6174683a207375627472616374696f6e206f766572666c6f770000815250612828565b6000826125d7575060006121ee565b828202828482816125e457fe5b041461234b5760405162461bcd60e51b81526004018080602001828103825260218152602001806135966021913960400191505060405180910390fd5b600061234b83836040518060400160405280601a81526020017f536166654d6174683a206469766973696f6e206279207a65726f0000000000008152506128bf565b60025460408051632522a32f60e01b815290516000926001600160a01b031691632522a32f916004808301926020929190829003018186803b1580156126a857600080fd5b505afa1580156126bc573d6000803e3d6000fd5b505050506040513d601f19601f820116820180604052508101906126e09190612ced565b6000546040516323b872dd60e01b81529192506001600160a01b0316906323b872dd9061271590859030908690600401612e6e565b602060405180830381600087803b15801561272f57600080fd5b505af1158015612743573d6000803e3d6000fd5b505050506040513d601f19601f820116820180604052508101906127679190612c27565b6127835760405162461bcd60e51b815260040161058690612f4b565b60005460405163a9059cbb60e01b81526001600160a01b039091169063a9059cbb906127b6906001908590600401612e3b565b602060405180830381600087803b1580156127d057600080fd5b505af11580156127e4573d6000803e3d6000fd5b505050506040513d601f19601f820116820180604052508101906128089190612c27565b6128245760405162461bcd60e51b81526004016105869061310b565b5050565b600081848411156128b75760405162461bcd60e51b81526004018080602001828103825283818151815260200191508051906020019080838360005b8381101561287c578181015183820152602001612864565b50505050905090810190601f1680156128a95780820380516001836020036101000a031916815260200191505b509250505060405180910390fd5b505050900390565b6000818361290e5760405162461bcd60e51b815260206004820181815283516024840152835190928392604490910191908501908083836000831561287c578181015183820152602001612864565b50600083858161291a57fe5b0495945050505050565b604051806080016040528060006001600160a01b031681526020016000815260200160008152602001606081525090565b6000612968612963846134b8565b613494565b905082815283838301111561297c57600080fd5b828260208301376000602084830101529392505050565b60008083601f8401126129a4578182fd5b50813567ffffffffffffffff8111156129bb578182fd5b6020830191508360208285010111156129d357600080fd5b9250929050565b6000602082840312156129eb578081fd5b813561234b8161350a565b600060208284031215612a07578081fd5b815161234b8161350a565b60008060008060808587031215612a27578283fd5b8435612a328161350a565b93506020850135925060408501359150606085013567ffffffffffffffff811115612a5b578182fd5b8501601f81018713612a6b578182fd5b612a7a87823560208401612955565b91505092959194509250565b60008060408385031215612a98578182fd5b8235612aa38161350a565b91506020830135612ab38161350a565b809150509250929050565b600080600080600060808688031215612ad5578081fd5b8535612ae08161350a565b94506020860135612af08161350a565b935060408601359250606086013567ffffffffffffffff811115612b12578182fd5b612b1e88828901612993565b969995985093965092949392505050565b60008060408385031215612b41578182fd5b8251612b4c8161350a565b602084015190925067ffffffffffffffff811115612b68578182fd5b8301601f81018513612b78578182fd5b8051612b86612963826134b8565b818152866020838501011115612b9a578384fd5b612bab8260208301602086016134da565b8093505050509250929050565b60008060208385031215612bca578182fd5b823567ffffffffffffffff80821115612be1578384fd5b818501915085601f830112612bf4578384fd5b813581811115612c02578485fd5b8660208083028501011115612c15578485fd5b60209290920196919550909350505050565b600060208284031215612c38578081fd5b8151801515811461234b578182fd5b600060208284031215612c58578081fd5b813567ffffffffffffffff811115612c6e578182fd5b8201601f81018413612c7e578182fd5b611cd184823560208401612955565b600060408284031215612c9e578081fd5b6040516040810181811067ffffffffffffffff82111715612cbb57fe5b604052825181526020928301519281019290925250919050565b600060208284031215612ce6578081fd5b5035919050565b600060208284031215612cfe578081fd5b5051919050565b60008060408385031215612d17578182fd5b50508035926020909101359150565b60008060008060608587031215612d3b578182fd5b8435935060208501359250604085013567ffffffffffffffff811115612d5f578283fd5b612d6b87828801612993565b95989497509550505050565b600080600060608486031215612d8b578081fd5b8351925060208401519150604084015190509250925092565b60008151808452612dbc8160208601602086016134da565b601f01601f19169290920160200192915050565b60008251612de28184602087016134da565b9190910192915050565b6001600160a01b0391909116815260200190565b600060018060a01b03808716835260806020840152612e226080840187612da4565b9481166040840152929092166060909101525092915050565b6001600160a01b03929092168252602082015260400190565b6001600160a01b0392831681529116602082015260400190565b6001600160a01b039384168152919092166020820152604081019190915260600190565b6001600160a01b0383168152604060208201819052600090611cd190830184612da4565b6001600160a01b039390931683526020830191909152604082015260600190565b600060018060a01b038716825285602083015284604083015283606083015260a06080830152612f0a60a0830184612da4565b979650505050505050565b901515815260200190565b6020808252601190820152701b9bdd08195b9bdd59da08185b5bdd5b9d607a1b604082015260600190565b60208082526036908201527f44414f436f6d6d697474656553746f72653a206661696c656420746f207472616040820152753739b332b9103a37b710333937b69031b932b0ba37b960511b606082015260800190565b6020808252601f908201527f54686973206163636f756e74206973206e6f7420612063616e64696461746500604082015260600190565b60208082526029908201527f44414f436f6d6d697474656553746f72653a20696e646578206973206e6f7420604082015268617661696c61626c6560b81b606082015260800190565b602080825260409082018190527f44414f436f6d6d697474656553746f72653a20596f75206861766520746f2063908201527f616c6c207265647563654d656d626572536c6f7420746f206465637265617365606082015260800190565b60208082526035908201527f44414f436f6d6d697474656553746f72653a205468652063616e64696461746560408201527408185b1c9958591e481a185cc818dbdb9d1c9858dd605a1b606082015260800190565b6020808252601d908201527f44414f436f6d6d69747465653a206e6f7420612063616e646964617465000000604082015260600190565b60208082526021908201527f44414f436f6d6d697474656553746f72653a206661696c656420746f206275726040820152603760f91b606082015260800190565b60208082526030908201527f44414f436f6d6d69747465653a206465706c6f7965642063616e64696461746560408201526f436f6e7472616374206973207a65726f60801b606082015260800190565b60208082526028908201527f44414f436f6d6d69747465653a2063616e206e6f74206578656375746520746860408201526765206167656e646160c01b606082015260800190565b60208082526030908201527f44414f436f6d6d69747465653a206661696c656420746f20726567697374657260408201526f416e644465706c6f79436f696e61676560801b606082015260800190565b60208082526021908201527f44414f436f6d6d697474656553746f72653a20616c7265616479206d656d62656040820152603960f91b606082015260800190565b6020808252600c908201526b7a65726f206164647265737360a01b604082015260600190565b60208082526031908201527f44414f436f6d6d697474656553746f72653a205468652061646472657373206960408201527073206e6f7420612063616e64696461746560781b606082015260800190565b60208082526029908201527f44414f436f6d6d69747465653a2063616e64696461746520616c7265616479206040820152681c9959da5cdd195c9960ba1b606082015260800190565b6020808252601d908201527f44414f436f6d6d69747465653a20636f696e616765206973207a65726f000000604082015260600190565b6020808252602a908201527f44414f436f6d6d69747465653a204661696c656420746f206578656375746520604082015269746865206167656e646160b01b606082015260800190565b60208082526023908201527f44414f436f6d6d69747465653a207265717569726564566f746573206973207a60408201526265726f60e81b606082015260800190565b90815260200190565b9283526001600160a01b03919091166020830152604082015260600190565b828152604081016004831061343257fe5b8260208301529392505050565b828152604081016006831061343257fe5b60008482526040602083015282604083015282846060840137818301606090810191909152601f909201601f1916010192915050565b918252602082015260400190565b60405181810167ffffffffffffffff811182821017156134b057fe5b604052919050565b600067ffffffffffffffff8211156134cc57fe5b50601f01601f191660200190565b60005b838110156134f55781810151838201526020016134dd565b83811115613504576000848401525b50505050565b6001600160a01b03811681146111aa57600080fdfe4f776e61626c653a206e6577206f776e657220697320746865207a65726f206164647265737353746f726167655374617465436f6d6d69747465653a206e6f742061206d656d62657253746f726167655374617465436f6d6d69747465653a20756e76616c6964204c61796572325265676973747279536166654d6174683a206d756c7469706c69636174696f6e206f766572666c6f774f776e61626c653a2063616c6c6572206973206e6f7420746865206f776e657253746f726167655374617465436f6d6d69747465653a204167656e64614d616e61676572206973207a65726f53746f726167655374617465436f6d6d69747465653a20756e76616c696420436f6d6d69747465654c32466163746f727953746f726167655374617465436f6d6d69747465653a20756e76616c696420536569674d616e6167657265a2646970667358221220a6b8aa1ce5636fd127e0170fe8cccc598b0514fb09509aad94c46f2fcbffa14e64736f6c63430007060033",
  "immutableReferences": {},
  "source": "// SPDX-License-Identifier: MIT\npragma solidity ^0.7.6;\npragma abicoder v2;\n\nimport \"../../node_modules/@openzeppelin/contracts/access/Ownable.sol\";\nimport \"./StorageStateCommittee.sol\";\n\nimport { SafeMath } from \"../../node_modules/@openzeppelin/contracts/math/SafeMath.sol\";\nimport { IERC20 } from  \"../../node_modules/@openzeppelin/contracts/token/ERC20/IERC20.sol\";\nimport { ICandidate } from \"../interfaces/ICandidate.sol\";\nimport { IDAOAgendaManager } from \"../interfaces/IDAOAgendaManager.sol\";\nimport { LibAgenda } from \"../lib/Agenda.sol\";\n\ncontract DAOCommittee is StorageStateCommittee, Ownable {\n    using SafeMath for uint256;\n    using LibAgenda for *;\n     \n    enum ApplyResult { NONE, SUCCESS, NOT_ELECTION, ALREADY_COMMITTEE, SLOT_INVALID, ADDMEMBER_FAIL, LOW_BALANCE }\n\n    struct AgendaCreatingData {\n        address target;\n        uint256 noticePeriodSeconds;\n        uint256 votingPeriodSeconds;\n        bytes functionBytecode;\n    }\n\n    //////////////////////////////\n    // Events\n    //////////////////////////////\n\n    event AgendaCreated(\n        uint256 indexed timestamp,\n        address indexed from,\n        uint256 indexed id,\n        address target,\n        uint256 noticeEndTimestamp\n    );\n\n    event AgendaVoteCasted(\n        uint256 indexed timestamp,\n        address indexed from,\n        uint256 indexed id,\n        uint voting,\n        string comment\n    );\n\n    event AgendaExecuted(\n        uint256 indexed timestamp,\n        address indexed from,\n        uint256 indexed id,\n        address target,\n        bytes functionBytecode\n    );\n\n    event CandidateContractCreated(\n        address indexed candidate,\n        address candidateContract,\n        string memo\n    );\n\n    event ChangedMember(\n        uint256 indexed timestamp,\n        uint256 indexed slotIndex,\n        address prevMember,\n        address indexed newMember\n    );\n\n    event ChangedSlotMaximum(\n        uint256 indexed prevSlotMax,\n        uint256 indexed slotMax\n    );\n\n    //////////////////////////////////////////////////////////////////////\n    // setters\n\n    function setSeigManager(address _agendaManager) public onlyOwner {\n        require(_agendaManager != address(0), \"zero address\");\n        seigManager = ISeigManager(_agendaManager);\n    }\n     \n    function setDaoVault(address _daoVault) public onlyOwner {\n        require(_daoVault != address(0), \"zero address\");\n        daoVault = _daoVault;\n    }\n\n    /*function setActivityRewardManager(address _activityRewardManager) public onlyOwner {\n        require(_activityRewardManager != address(0), \"zero address\");\n        activityRewardManager = IDAOActivityRewardManager(_activityRewardManager);\n    }*/\n\n    function setLayer2Registry(address _layer2Registry) public onlyOwner {\n        require(_layer2Registry != address(0), \"zero address\");\n        layer2Registry = ILayer2Registry(_layer2Registry);\n    }\n\n    function setAgendaManager(address _agendaManager) public onlyOwner {\n        require(_agendaManager != address(0), \"zero address\");\n        agendaManager = IDAOAgendaManager(_agendaManager);\n    }\n\n    function setCandidateFactory(address _candidateFactory) public onlyOwner {\n        require(_candidateFactory != address(0), \"zero address\");\n        candidateFactory = ICandidateFactory(_candidateFactory);\n    }\n\n    function setTon(address _ton) public onlyOwner {\n        require(_ton != address(0), \"zero address\");\n        ton = _ton;\n    }\n\n    //////////////////////////////////////////////////////////////////////\n    // Managing members\n\n    function onApprove(\n        address owner,\n        address spender,\n        uint256 tonAmount,\n        bytes calldata data\n    ) external returns (bool) {\n        AgendaCreatingData memory agendaData = _decodeAgendaData(data);\n\n        _createAgenda(\n            owner,\n            agendaData.target,\n            agendaData.noticePeriodSeconds,\n            agendaData.votingPeriodSeconds,\n            agendaData.functionBytecode\n        );\n\n        return true;\n    }\n\n    function _decodeAgendaData(bytes calldata input)\n        internal\n        view\n        returns (AgendaCreatingData memory data)\n    {\n        (data.target, data.noticePeriodSeconds, data.votingPeriodSeconds, data.functionBytecode) = \n            abi.decode(input, (address, uint256, uint256, bytes));\n    }\n\n    function setMaxMember(uint256 _maxMember) onlyOwner public {\n        require(maxMember < _maxMember, \"DAOCommitteeStore: You have to call reduceMemberSlot to decrease\");\n        maxMember = _maxMember;\n        fillMemberSlot();\n    }\n\n    function createCandidate(string memory _memo)\n        public\n        validSeigManager\n        validLayer2Registry\n        validCommitteeL2Factory\n    {\n        require(!isExistCandidate(msg.sender), \"DAOCommittee: candidate already registerd\");\n\n        //uint256 minimumAmount = seigManager.minimumAmount();\n        //require(minimumAmount <= tonAmount, \"DAOCommittee: not enough ton\");\n          \n        // Candidate\n        address candidateContract = candidateFactory.deploy(msg.sender, _memo, address(seigManager), address(layer2Registry));\n        require(\n            candidateContract != address(0),\n            \"DAOCommittee: deployed candidateContract is zero\"\n        );\n        require(\n            layer2Registry.registerAndDeployCoinage(candidateContract, address(seigManager)),\n            \"DAOCommittee: failed to registerAndDeployCoinage\"\n        );\n        require(\n            candidateInfos[msg.sender].candidateContract == address(0),\n            \"DAOCommitteeStore: The candidate already has contract\"\n        );\n\n        candidateInfos[msg.sender] = CandidateInfo({\n            candidateContract: candidateContract,\n            memberJoinedTime: 0,\n            indexMembers: 0\n        });\n\n        candidates.push(msg.sender);\n       \n        emit CandidateContractCreated(msg.sender, candidateContract, _memo);\n    }\n\n    function changeMember(uint256 _memberIndex)\n        public\n        returns (bool)\n    {\n        CandidateInfo storage candidateInfo = candidateInfos[msg.sender];\n        require(\n            _memberIndex < maxMember,\n            \"DAOCommitteeStore: index is not available\"\n        );\n        require(\n            candidateInfo.candidateContract != address(0),\n            \"DAOCommitteeStore: The address is not a candidate\"\n        );\n        require(\n            candidateInfo.memberJoinedTime == 0,\n            \"DAOCommitteeStore: already member\"\n        );\n        \n        address prevMember = members[_memberIndex];\n\n        candidateInfo.memberJoinedTime = block.timestamp;\n        candidateInfo.indexMembers = _memberIndex;\n\n        members[_memberIndex] = msg.sender;\n\n        if (prevMember == address(0)) {\n            return true;\n        }\n\n        require(\n            totalSupplyOnCandidate(msg.sender) > totalSupplyOnCandidate(prevMember),\n            \"not enough amount\"\n        );\n\n        CandidateInfo storage prevCandidate = candidateInfos[prevMember];\n        prevCandidate.memberJoinedTime = 0;\n        prevCandidate.indexMembers = 0;\n\n        emit ChangedMember(block.timestamp, _memberIndex, prevMember, msg.sender);\n\n        return true;\n    }\n    \n    function retireMember() onlyMember(msg.sender) public returns (bool) {\n        CandidateInfo storage candidateInfo = candidateInfos[msg.sender];\n        members[candidateInfo.indexMembers] = address(0);\n        candidateInfo.memberJoinedTime = 0;\n\n        emit ChangedMember(block.timestamp, candidateInfo.indexMembers, msg.sender, address(0));\n\n        candidateInfo.indexMembers = 0;\n    }\n\n    function reduceMemberSlot(uint256 _reducingMemberIndex) public onlyOwner {\n        address reducingMember = members[_reducingMemberIndex];\n        CandidateInfo storage reducingCandidate = candidateInfos[reducingMember];\n\n        if (_reducingMemberIndex != members.length - 1) {\n            address tailmember = members[members.length - 1];\n            CandidateInfo storage tailCandidate = candidateInfos[tailmember];\n\n            tailCandidate.indexMembers = _reducingMemberIndex;\n            members[_reducingMemberIndex] = tailmember;\n        }\n        reducingCandidate.memberJoinedTime = 0;\n        reducingCandidate.indexMembers = 0;\n\n        members.pop();\n        maxMember = maxMember.sub(1);\n\n        emit ChangedMember(block.timestamp, _reducingMemberIndex, reducingMember, address(0));\n        emit ChangedSlotMaximum(maxMember.add(1), maxMember);\n    }\n\n    //////////////////////////////////////////////////////////////////////\n    // Managing agenda\n\n    function setMinimunNoticePeriodSeconds(\n        uint256 _minimunNoticePeriod\n    )\n        public\n        onlyOwner\n        validAgendaManager\n    {\n        agendaManager.setMinimunNoticePeriodSeconds(_minimunNoticePeriod);\n    }\n\n    function setMinimunVotingPeriodSeconds(\n        uint256 _minimunVotingPeriod\n    )\n        public\n        onlyOwner\n        validAgendaManager\n    {\n        agendaManager.setMinimunVotingPeriodSeconds(_minimunVotingPeriod);\n    }\n\n    function setQuorum(\n        uint256 _quorumNumerator,\n        uint256 _quorumDenominator\n    )\n        public\n        onlyOwner\n        validAgendaManager\n    {\n        agendaManager.setQuorum(_quorumNumerator, _quorumDenominator);\n    }\n\n    function setCreateAgendaFees(\n        uint256 _fees\n    )\n        public\n        onlyOwner\n        validAgendaManager\n    {\n        agendaManager.setCreateAgendaFees(_fees);\n    }\n\n    function payCreatingAgendaFee(address _creator) internal {\n        uint256 fee = agendaManager.createAgendaFees();\n\n        require(IERC20(ton).transferFrom(_creator, address(this), fee), \"DAOCommitteeStore: failed to transfer ton from creator\");\n        require(IERC20(ton).transfer(address(1), fee), \"DAOCommitteeStore: failed to burn\");\n    }\n   \n    function _createAgenda(\n        address _creator,\n        address _target,\n        uint256 _noticePeriodSeconds,\n        uint256 _votingPeriodSeconds,\n        bytes memory _functionBytecode\n    )\n        internal\n        validAgendaManager\n        //validActivityRewardManager\n        returns (uint256)\n    {\n        // pay to create agenda, burn ton.\n        payCreatingAgendaFee(_creator);\n\n        uint256 agendaID = agendaManager.newAgenda(\n            _target,\n            _noticePeriodSeconds,\n            _votingPeriodSeconds,\n            0,\n            _functionBytecode\n        );\n          \n        emit AgendaCreated(\n            block.timestamp,\n            msg.sender,\n            agendaID,\n            _target,\n            agendaManager.getAgendaNoticeEndTimeSeconds(agendaID)\n        );\n\n        return agendaID;\n    }\n    \n    function castVote(\n        uint256 _agendaID,\n        uint _vote,\n        string calldata _comment\n    )\n        public \n        validAgendaManager\n    {\n        uint256 requiredVotes = requiredVotesToPass();\n        require(requiredVotes > 0, \"DAOCommittee: requiredVotes is zero\");\n        \n        agendaManager.castVote(\n            _agendaID,\n            msg.sender,\n            _vote\n        );\n\n        (uint256 yes, uint256 no, uint256 abstain) = agendaManager.getVotingCount(_agendaID);\n\n        if (requiredVotes < yes) {\n            // yes\n            agendaManager.setResult(_agendaID, LibAgenda.AgendaResult.ACCEPT);\n            agendaManager.setStatus(_agendaID, LibAgenda.AgendaStatus.WAITING_EXEC);\n        } else if (requiredVotes < no) {\n            // no\n            agendaManager.setResult(_agendaID, LibAgenda.AgendaResult.REJECT);\n            agendaManager.setStatus(_agendaID, LibAgenda.AgendaStatus.ENDED);\n        } else if (requiredVotes < abstain.add(no) ) {\n            // dismiss\n            agendaManager.setResult(_agendaID, LibAgenda.AgendaResult.DISMISS);\n            agendaManager.setStatus(_agendaID, LibAgenda.AgendaStatus.ENDED);\n        }\n        \n        emit AgendaVoteCasted(block.timestamp, msg.sender, _agendaID, _vote, _comment);\n    }\n\n    function executeAgenda(uint256 _agendaID) public validAgendaManager {\n        require(\n            agendaManager.canExecuteAgenda(_agendaID),\n            \"DAOCommittee: can not execute the agenda\"\n        );\n        \n        (address target, bytes memory functionBytecode) = agendaManager.getExecutionInfo(_agendaID);\n       \n        (bool success, ) = address(target).call(functionBytecode);\n        require(success, \"DAOCommittee: Failed to execute the agenda\");\n         \n        agendaManager.setExecutedAgenda(_agendaID);\n\n        emit AgendaExecuted(block.timestamp, msg.sender, _agendaID, target, functionBytecode);\n    }\n     \n    function updateSeigniorage(address _candidate) public returns (bool) {\n        address candidateContract = candidateInfos[_candidate].candidateContract;\n        require(candidateContract != address(0), \"DAOCommittee: not a candidate\");\n        ICandidate(candidateContract).updateSeigniorage();\n\n        //emit CommitteeUpdateSeigniorage(msg.sender);\n    }\n\n    function updateSeigniorages(address[] calldata _candidates) public returns (bool) {\n        for (uint256 i = 0; i < _candidates.length; i++) {\n            updateSeigniorage(_candidates[i]);\n        }\n    }\n\n    function fillMemberSlot() internal {\n        for (uint256 i = members.length; i < maxMember; i++) {\n            members.push(address(0));\n        }\n    }\n\n    function requiredVotesToPass()\n        public\n        view\n        returns (uint256 requiredVotes)\n    {\n        IDAOAgendaManager.Ratio memory quorum = agendaManager.quorum();\n        uint256 total = members.length;\n        requiredVotes = total.mul(quorum.numerator).div(quorum.denominator);\n    }\n    \n    function totalSupplyOnCandidate(\n        address _candidate\n    )\n        public\n        view\n        returns (uint256 totalsupply)\n    {\n        address candidateContract = candidateContract(_candidate);\n        require(candidateContract != address(0), \"This account is not a candidate\");\n\n        address coinage = seigManager.coinages(candidateContract);\n        require(coinage != address(0), \"DAOCommittee: coinage is zero\");\n        return IERC20(coinage).totalSupply();\n    }\n\n    function balanceOfOnCandidate(\n        address _candidate,\n        address account\n    )\n        public\n        view\n        returns (uint256 amount)\n    {\n        address candidateContract = candidateContract(_candidate);\n        require(candidateContract != address(0), \"This account is not a candidate\");\n\n        address coinage = seigManager.coinages(candidateContract);\n        require(coinage != address(0), \"DAOCommittee: coinage is zero\");\n        return IERC20(coinage).balanceOf(account);\n    }\n    \n    function candidatesLength() public view returns (uint256) {\n        return candidates.length;\n    }\n\n    function isExistCandidate(address _candidate) public view returns (bool isExist) {\n        return candidateInfos[_candidate].candidateContract != address(0);\n    }\n\n    /*function candidateContract(address _candidate) public view returns (address) {\n        return candidateInfos[_candidate].candidateContract;\n    }*/\n\n}\n",
  "sourcePath": "/data/github/onther/tokamak-dao-contracts3/contracts/dao/DAOCommittee.sol",
  "compiler": {
    "name": "solc",
    "version": "0.7.6+commit.7338295f.Emscripten.clang"
  },
  "schemaVersion": "3.3.2",
  "updatedAt": "2021-01-08T00:06:55.435Z",
  "devdoc": {
    "kind": "dev",
    "methods": {
      "owner()": {
        "details": "Returns the address of the current owner."
      },
      "renounceOwnership()": {
        "details": "Leaves the contract without owner. It will not be possible to call `onlyOwner` functions anymore. Can only be called by the current owner. NOTE: Renouncing ownership will leave the contract without an owner, thereby removing any functionality that is only available to the owner."
      },
      "transferOwnership(address)": {
        "details": "Transfers ownership of the contract to a new account (`newOwner`). Can only be called by the current owner."
      }
    },
    "version": 1
  },
  "userdoc": {
    "kind": "user",
    "methods": {},
    "version": 1
  }
}