{
  "contractName": "DAOCommittee",
  "abi": [
    {
      "anonymous": false,
      "inputs": [
        {
          "indexed": true,
          "internalType": "address",
          "name": "from",
          "type": "address"
        },
        {
          "indexed": true,
          "internalType": "uint256",
          "name": "id",
          "type": "uint256"
        },
        {
          "indexed": false,
          "internalType": "address",
          "name": "target",
          "type": "address"
        },
        {
          "indexed": false,
          "internalType": "uint256",
          "name": "noticePeriodSeconds",
          "type": "uint256"
        },
        {
          "indexed": false,
          "internalType": "uint256",
          "name": "votingPeriodSeconds",
          "type": "uint256"
        }
      ],
      "name": "AgendaCreated",
      "type": "event"
    },
    {
      "anonymous": false,
      "inputs": [
        {
          "indexed": true,
          "internalType": "uint256",
          "name": "id",
          "type": "uint256"
        },
        {
          "indexed": false,
          "internalType": "address",
          "name": "target",
          "type": "address"
        }
      ],
      "name": "AgendaExecuted",
      "type": "event"
    },
    {
      "anonymous": false,
      "inputs": [
        {
          "indexed": true,
          "internalType": "address",
          "name": "from",
          "type": "address"
        },
        {
          "indexed": true,
          "internalType": "uint256",
          "name": "id",
          "type": "uint256"
        },
        {
          "indexed": false,
          "internalType": "uint256",
          "name": "voting",
          "type": "uint256"
        },
        {
          "indexed": false,
          "internalType": "string",
          "name": "comment",
          "type": "string"
        }
      ],
      "name": "AgendaVoteCasted",
      "type": "event"
    },
    {
      "anonymous": false,
      "inputs": [
        {
          "indexed": true,
          "internalType": "address",
          "name": "from",
          "type": "address"
        },
        {
          "indexed": false,
          "internalType": "address",
          "name": "member",
          "type": "address"
        },
        {
          "indexed": false,
          "internalType": "uint256",
          "name": "totalbalance",
          "type": "uint256"
        },
        {
          "indexed": false,
          "internalType": "uint256",
          "name": "memberIndex",
          "type": "uint256"
        }
      ],
      "name": "ApplyMemberSuccess",
      "type": "event"
    },
    {
      "anonymous": false,
      "inputs": [
        {
          "indexed": true,
          "internalType": "address",
          "name": "candidate",
          "type": "address"
        },
        {
          "indexed": true,
          "internalType": "address",
          "name": "candidateContract",
          "type": "address"
        },
        {
          "indexed": false,
          "internalType": "string",
          "name": "memo",
          "type": "string"
        }
      ],
      "name": "CandidateContractCreated",
      "type": "event"
    },
    {
      "anonymous": false,
      "inputs": [
        {
          "indexed": true,
          "internalType": "uint256",
          "name": "slotIndex",
          "type": "uint256"
        },
        {
          "indexed": false,
          "internalType": "address",
          "name": "prevMember",
          "type": "address"
        },
        {
          "indexed": true,
          "internalType": "address",
          "name": "newMember",
          "type": "address"
        }
      ],
      "name": "ChangedMember",
      "type": "event"
    },
    {
      "anonymous": false,
      "inputs": [
        {
          "indexed": true,
          "internalType": "uint256",
          "name": "prevSlotMax",
          "type": "uint256"
        },
        {
          "indexed": true,
          "internalType": "uint256",
          "name": "slotMax",
          "type": "uint256"
        }
      ],
      "name": "ChangedSlotMaximum",
      "type": "event"
    },
    {
      "anonymous": false,
      "inputs": [
        {
          "indexed": true,
          "internalType": "address",
          "name": "candidate",
          "type": "address"
        },
        {
          "indexed": false,
          "internalType": "uint256",
          "name": "amount",
          "type": "uint256"
        }
      ],
      "name": "ClaimedActivityReward",
      "type": "event"
    },
    {
      "anonymous": false,
      "inputs": [
        {
          "indexed": true,
          "internalType": "address",
          "name": "candidate",
          "type": "address"
        },
        {
          "indexed": true,
          "internalType": "address",
          "name": "candidateContract",
          "type": "address"
        },
        {
          "indexed": false,
          "internalType": "string",
          "name": "memo",
          "type": "string"
        }
      ],
      "name": "OperatorRegistered",
      "type": "event"
    },
    {
      "anonymous": false,
      "inputs": [
        {
          "indexed": true,
          "internalType": "address",
          "name": "previousOwner",
          "type": "address"
        },
        {
          "indexed": true,
          "internalType": "address",
          "name": "newOwner",
          "type": "address"
        }
      ],
      "name": "OwnershipTransferred",
      "type": "event"
    },
    {
      "inputs": [],
      "name": "activityRewardPerSecond",
      "outputs": [
        {
          "internalType": "uint256",
          "name": "",
          "type": "uint256"
        }
      ],
      "stateMutability": "view",
      "type": "function",
      "constant": true
    },
    {
      "inputs": [],
      "name": "agendaManager",
      "outputs": [
        {
          "internalType": "contract IDAOAgendaManager",
          "name": "",
          "type": "address"
        }
      ],
      "stateMutability": "view",
      "type": "function",
      "constant": true
    },
    {
      "inputs": [
        {
          "internalType": "address",
          "name": "_candidate",
          "type": "address"
        }
      ],
      "name": "candidateContract",
      "outputs": [
        {
          "internalType": "address",
          "name": "",
          "type": "address"
        }
      ],
      "stateMutability": "view",
      "type": "function",
      "constant": true
    },
    {
      "inputs": [],
      "name": "candidateFactory",
      "outputs": [
        {
          "internalType": "contract ICandidateFactory",
          "name": "",
          "type": "address"
        }
      ],
      "stateMutability": "view",
      "type": "function",
      "constant": true
    },
    {
      "inputs": [
        {
          "internalType": "address",
          "name": "",
          "type": "address"
        }
      ],
      "name": "candidateInfos",
      "outputs": [
        {
          "internalType": "address",
          "name": "candidateContract",
          "type": "address"
        },
        {
          "internalType": "uint256",
          "name": "memberJoinedTime",
          "type": "uint256"
        },
        {
          "internalType": "uint256",
          "name": "indexMembers",
          "type": "uint256"
        },
        {
          "internalType": "uint256",
          "name": "rewardPeriod",
          "type": "uint256"
        },
        {
          "internalType": "uint256",
          "name": "claimedTimestamp",
          "type": "uint256"
        }
      ],
      "stateMutability": "view",
      "type": "function",
      "constant": true
    },
    {
      "inputs": [
        {
          "internalType": "uint256",
          "name": "",
          "type": "uint256"
        }
      ],
      "name": "candidates",
      "outputs": [
        {
          "internalType": "address",
          "name": "",
          "type": "address"
        }
      ],
      "stateMutability": "view",
      "type": "function",
      "constant": true
    },
    {
      "inputs": [],
      "name": "daoVault",
      "outputs": [
        {
          "internalType": "contract IDAOVault2",
          "name": "",
          "type": "address"
        }
      ],
      "stateMutability": "view",
      "type": "function",
      "constant": true
    },
    {
      "inputs": [
        {
          "internalType": "address",
          "name": "_candidate",
          "type": "address"
        }
      ],
      "name": "isMember",
      "outputs": [
        {
          "internalType": "bool",
          "name": "",
          "type": "bool"
        }
      ],
      "stateMutability": "view",
      "type": "function",
      "constant": true
    },
    {
      "inputs": [],
      "name": "layer2Registry",
      "outputs": [
        {
          "internalType": "contract ILayer2Registry",
          "name": "",
          "type": "address"
        }
      ],
      "stateMutability": "view",
      "type": "function",
      "constant": true
    },
    {
      "inputs": [],
      "name": "maxMember",
      "outputs": [
        {
          "internalType": "uint256",
          "name": "",
          "type": "uint256"
        }
      ],
      "stateMutability": "view",
      "type": "function",
      "constant": true
    },
    {
      "inputs": [
        {
          "internalType": "uint256",
          "name": "",
          "type": "uint256"
        }
      ],
      "name": "members",
      "outputs": [
        {
          "internalType": "address",
          "name": "",
          "type": "address"
        }
      ],
      "stateMutability": "view",
      "type": "function",
      "constant": true
    },
    {
      "inputs": [],
      "name": "owner",
      "outputs": [
        {
          "internalType": "address",
          "name": "",
          "type": "address"
        }
      ],
      "stateMutability": "view",
      "type": "function",
      "constant": true
    },
    {
      "inputs": [],
      "name": "renounceOwnership",
      "outputs": [],
      "stateMutability": "nonpayable",
      "type": "function"
    },
    {
      "inputs": [],
      "name": "seigManager",
      "outputs": [
        {
          "internalType": "contract ISeigManager",
          "name": "",
          "type": "address"
        }
      ],
      "stateMutability": "view",
      "type": "function",
      "constant": true
    },
    {
      "inputs": [],
      "name": "ton",
      "outputs": [
        {
          "internalType": "address",
          "name": "",
          "type": "address"
        }
      ],
      "stateMutability": "view",
      "type": "function",
      "constant": true
    },
    {
      "inputs": [
        {
          "internalType": "address",
          "name": "newOwner",
          "type": "address"
        }
      ],
      "name": "transferOwnership",
      "outputs": [],
      "stateMutability": "nonpayable",
      "type": "function"
    },
    {
      "inputs": [
        {
          "internalType": "address",
          "name": "_agendaManager",
          "type": "address"
        }
      ],
      "name": "setSeigManager",
      "outputs": [],
      "stateMutability": "nonpayable",
      "type": "function"
    },
    {
      "inputs": [
        {
          "internalType": "address",
          "name": "_daoVault",
          "type": "address"
        }
      ],
      "name": "setDaoVault",
      "outputs": [],
      "stateMutability": "nonpayable",
      "type": "function"
    },
    {
      "inputs": [
        {
          "internalType": "address",
          "name": "_layer2Registry",
          "type": "address"
        }
      ],
      "name": "setLayer2Registry",
      "outputs": [],
      "stateMutability": "nonpayable",
      "type": "function"
    },
    {
      "inputs": [
        {
          "internalType": "address",
          "name": "_agendaManager",
          "type": "address"
        }
      ],
      "name": "setAgendaManager",
      "outputs": [],
      "stateMutability": "nonpayable",
      "type": "function"
    },
    {
      "inputs": [
        {
          "internalType": "address",
          "name": "_candidateFactory",
          "type": "address"
        }
      ],
      "name": "setCandidateFactory",
      "outputs": [],
      "stateMutability": "nonpayable",
      "type": "function"
    },
    {
      "inputs": [
        {
          "internalType": "address",
          "name": "_ton",
          "type": "address"
        }
      ],
      "name": "setTon",
      "outputs": [],
      "stateMutability": "nonpayable",
      "type": "function"
    },
    {
      "inputs": [
        {
          "internalType": "uint256",
          "name": "_value",
          "type": "uint256"
        }
      ],
      "name": "setActivityRewardPerSecond",
      "outputs": [],
      "stateMutability": "nonpayable",
      "type": "function"
    },
    {
      "inputs": [
        {
          "internalType": "uint256",
          "name": "_maxMember",
          "type": "uint256"
        }
      ],
      "name": "setMaxMember",
      "outputs": [],
      "stateMutability": "nonpayable",
      "type": "function"
    },
    {
      "inputs": [
        {
          "internalType": "string",
          "name": "_memo",
          "type": "string"
        }
      ],
      "name": "createCandidate",
      "outputs": [],
      "stateMutability": "nonpayable",
      "type": "function"
    },
    {
      "inputs": [
        {
          "internalType": "address",
          "name": "_contractAddress",
          "type": "address"
        },
        {
          "internalType": "string",
          "name": "_memo",
          "type": "string"
        }
      ],
      "name": "registerOperator",
      "outputs": [],
      "stateMutability": "nonpayable",
      "type": "function"
    },
    {
      "inputs": [
        {
          "internalType": "address",
          "name": "_operator",
          "type": "address"
        },
        {
          "internalType": "address",
          "name": "_contractAddress",
          "type": "address"
        },
        {
          "internalType": "string",
          "name": "_memo",
          "type": "string"
        }
      ],
      "name": "registerOperatorByOwner",
      "outputs": [],
      "stateMutability": "nonpayable",
      "type": "function"
    },
    {
      "inputs": [
        {
          "internalType": "uint256",
          "name": "_memberIndex",
          "type": "uint256"
        }
      ],
      "name": "changeMember",
      "outputs": [
        {
          "internalType": "bool",
          "name": "",
          "type": "bool"
        }
      ],
      "stateMutability": "nonpayable",
      "type": "function"
    },
    {
      "inputs": [],
      "name": "retireMember",
      "outputs": [
        {
          "internalType": "bool",
          "name": "",
          "type": "bool"
        }
      ],
      "stateMutability": "nonpayable",
      "type": "function"
    },
    {
      "inputs": [
        {
          "internalType": "uint256",
          "name": "_reducingMemberIndex",
          "type": "uint256"
        }
      ],
      "name": "reduceMemberSlot",
      "outputs": [],
      "stateMutability": "nonpayable",
      "type": "function"
    },
    {
      "inputs": [
        {
          "internalType": "address",
          "name": "owner",
          "type": "address"
        },
        {
          "internalType": "address",
          "name": "spender",
          "type": "address"
        },
        {
          "internalType": "uint256",
          "name": "tonAmount",
          "type": "uint256"
        },
        {
          "internalType": "bytes",
          "name": "data",
          "type": "bytes"
        }
      ],
      "name": "onApprove",
      "outputs": [
        {
          "internalType": "bool",
          "name": "",
          "type": "bool"
        }
      ],
      "stateMutability": "nonpayable",
      "type": "function"
    },
    {
      "inputs": [
        {
          "internalType": "uint256",
          "name": "_quorumNumerator",
          "type": "uint256"
        },
        {
          "internalType": "uint256",
          "name": "_quorumDenominator",
          "type": "uint256"
        }
      ],
      "name": "setQuorum",
      "outputs": [],
      "stateMutability": "nonpayable",
      "type": "function"
    },
    {
      "inputs": [
        {
          "internalType": "uint256",
          "name": "_fees",
          "type": "uint256"
        }
      ],
      "name": "setCreateAgendaFees",
      "outputs": [],
      "stateMutability": "nonpayable",
      "type": "function"
    },
    {
      "inputs": [
        {
          "internalType": "uint256",
          "name": "_minimunNoticePeriod",
          "type": "uint256"
        }
      ],
      "name": "setMinimunNoticePeriodSeconds",
      "outputs": [],
      "stateMutability": "nonpayable",
      "type": "function"
    },
    {
      "inputs": [
        {
          "internalType": "uint256",
          "name": "_minimunVotingPeriod",
          "type": "uint256"
        }
      ],
      "name": "setMinimunVotingPeriodSeconds",
      "outputs": [],
      "stateMutability": "nonpayable",
      "type": "function"
    },
    {
      "inputs": [
        {
          "internalType": "uint256",
          "name": "_agendaID",
          "type": "uint256"
        },
        {
          "internalType": "uint256",
          "name": "_vote",
          "type": "uint256"
        },
        {
          "internalType": "string",
          "name": "_comment",
          "type": "string"
        }
      ],
      "name": "castVote",
      "outputs": [],
      "stateMutability": "nonpayable",
      "type": "function"
    },
    {
      "inputs": [
        {
          "internalType": "uint256",
          "name": "_agendaID",
          "type": "uint256"
        }
      ],
      "name": "executeAgenda",
      "outputs": [],
      "stateMutability": "nonpayable",
      "type": "function"
    },
    {
      "inputs": [
        {
          "internalType": "uint256",
          "name": "_agendaID",
          "type": "uint256"
        },
        {
          "internalType": "uint256",
          "name": "_status",
          "type": "uint256"
        },
        {
          "internalType": "uint256",
          "name": "_result",
          "type": "uint256"
        }
      ],
      "name": "setAgendaStatus",
      "outputs": [],
      "stateMutability": "nonpayable",
      "type": "function"
    },
    {
      "inputs": [
        {
          "internalType": "address",
          "name": "_candidate",
          "type": "address"
        }
      ],
      "name": "updateSeigniorage",
      "outputs": [
        {
          "internalType": "bool",
          "name": "",
          "type": "bool"
        }
      ],
      "stateMutability": "nonpayable",
      "type": "function"
    },
    {
      "inputs": [
        {
          "internalType": "address[]",
          "name": "_candidates",
          "type": "address[]"
        }
      ],
      "name": "updateSeigniorages",
      "outputs": [
        {
          "internalType": "bool",
          "name": "",
          "type": "bool"
        }
      ],
      "stateMutability": "nonpayable",
      "type": "function"
    },
    {
      "inputs": [],
      "name": "claimActivityReward",
      "outputs": [],
      "stateMutability": "nonpayable",
      "type": "function"
    },
    {
      "inputs": [
        {
          "internalType": "address",
          "name": "_candidate",
          "type": "address"
        }
      ],
      "name": "isCandidate",
      "outputs": [
        {
          "internalType": "bool",
          "name": "",
          "type": "bool"
        }
      ],
      "stateMutability": "view",
      "type": "function",
      "constant": true
    },
    {
      "inputs": [],
      "name": "requiredVotesToPass",
      "outputs": [
        {
          "internalType": "uint256",
          "name": "requiredVotes",
          "type": "uint256"
        }
      ],
      "stateMutability": "view",
      "type": "function",
      "constant": true
    },
    {
      "inputs": [
        {
          "internalType": "address",
          "name": "_candidate",
          "type": "address"
        }
      ],
      "name": "totalSupplyOnCandidate",
      "outputs": [
        {
          "internalType": "uint256",
          "name": "totalsupply",
          "type": "uint256"
        }
      ],
      "stateMutability": "view",
      "type": "function",
      "constant": true
    },
    {
      "inputs": [
        {
          "internalType": "address",
          "name": "_candidate",
          "type": "address"
        },
        {
          "internalType": "address",
          "name": "account",
          "type": "address"
        }
      ],
      "name": "balanceOfOnCandidate",
      "outputs": [
        {
          "internalType": "uint256",
          "name": "amount",
          "type": "uint256"
        }
      ],
      "stateMutability": "view",
      "type": "function",
      "constant": true
    },
    {
      "inputs": [],
      "name": "candidatesLength",
      "outputs": [
        {
          "internalType": "uint256",
          "name": "",
          "type": "uint256"
        }
      ],
      "stateMutability": "view",
      "type": "function",
      "constant": true
    },
    {
      "inputs": [
        {
          "internalType": "address",
          "name": "_candidate",
          "type": "address"
        }
      ],
      "name": "isExistCandidate",
      "outputs": [
        {
          "internalType": "bool",
          "name": "isExist",
          "type": "bool"
        }
      ],
      "stateMutability": "view",
      "type": "function",
      "constant": true
    },
    {
      "inputs": [
        {
          "internalType": "address",
          "name": "_candidate",
          "type": "address"
        }
      ],
      "name": "getClaimableActivityReward",
      "outputs": [
        {
          "internalType": "uint256",
          "name": "",
          "type": "uint256"
        }
      ],
      "stateMutability": "view",
      "type": "function",
      "constant": true
    }
  ],
  "bytecode": "0x60806040523480156200001157600080fd5b5060006200001e62000072565b600b80546001600160a01b0319166001600160a01b038316908117909155604051919250906000907f8be0079c531659141344cd1fd0a4f28419497f9722a3daafe3b4186f6b6457e0908290a35062000076565b3390565b61441f80620000866000396000f3fe608060405234801561001057600080fd5b50600436106102a05760003560e01c80637657f20a11610167578063ad6675dc116100ce578063d10d2b5011610087578063d10d2b501461056c578063d1f0473f1461057f578063d51b9e9314610592578063d525f04f146105a5578063f2fde38b146105b8578063fce92894146105cb576102a0565b8063ad6675dc14610526578063b4f69b6a14610539578063b5dd11581461054c578063c4ef9c0014610554578063cc48b9471461055c578063cf2a239c14610564576102a0565b806389ea43001161012057806389ea4300146104d55780638bf7a3ab146104e85780638da5cb5b146104f05780639932e94c146104f85780639a62f6151461050b578063a230c52414610513576102a0565b80637657f20a14610479578063773b7f651461048c5780637a3d5468146104945780637f331636146104a7578063805aca20146104af5780638287cc52146104c2576102a0565b80634b799db11161020b5780635daf08ca116101c45780635daf08ca1461041d5780635ebe7622146104305780635fba7a5614610443578063651d08cd146104565780636fb7f55814610469578063715018a614610471576102a0565b80634b799db1146103b65780634d288fec146103c957806355d1fe16146103dc578063561a1dab146103ef57806357f0a867146104025780635903bd6c14610415576102a0565b80632af60ff41161025d5780632af60ff4146103335780632e011c1e146103465780633477ee2e1461036a578063410439e81461037d5780634273ca161461039057806349c39f14146103a3576102a0565b806303e3c9ac146102a5578063047f52f2146102c357806311f19e04146102d8578063216f486b146102f857806324f99b1e1461030b57806327fd92fd1461031e575b600080fd5b6102ad6105de565b6040516102ba9190614164565b60405180910390f35b6102d66102d1366004613575565b6105e4565b005b6102eb6102e636600461390b565b61068d565b6040516102ba9190613b80565b6102d661030636600461390b565b610862565b6102d661031936600461395c565b610aef565b610326610f12565b6040516102ba9190613a4d565b6102d6610341366004613575565b610f21565b610359610354366004613575565b610fc1565b6040516102ba959493929190613b52565b61032661037836600461390b565b610ffa565b6102d661038b366004613659565b611024565b6102eb61039e3660046136b9565b611161565b6102d66103b1366004613575565b61119b565b6102d66103c4366004613575565b61123b565b6102d66103d7366004613575565b6112db565b6102d66103ea36600461390b565b61137b565b6102eb6103fd366004613575565b611404565b6102eb610410366004613801565b611424565b610326611464565b61032661042b36600461390b565b611473565b6102d661043e36600461390b565b611483565b6102d6610451366004613890565b6114e0565b610326610464366004613575565b61185f565b61032661187d565b6102d661188c565b6102d6610487366004613575565b61192e565b6102ad6119ce565b6102d66104a236600461393b565b6119d4565b6102ad611adb565b6102d66104bd3660046139ad565b611ae1565b6102d66104d036600461390b565b611c1a565b6102eb6104e3366004613575565b611e0a565b6102d6611f78565b610326612062565b6102ad610506366004613575565b612071565b6102ad612103565b6102eb610521366004613575565b6121ac565b6102ad610534366004613575565b6121cc565b6102d661054736600461390b565b61231a565b61032661241e565b6102eb61242d565b610326612527565b610326612536565b6102d661057a36600461390b565b612545565b6102d661058d36600461390b565b612614565b6102eb6105a0366004613575565b6126e3565b6102ad6105b3366004613621565b6127be565b6102d66105c6366004613575565b612922565b6102d66105d93660046137b3565b612a1b565b60085481565b6105ec612aff565b600b546001600160a01b0390811691161461063c576040805162461bcd60e51b81526020600482018190526024820152600080516020614342833981519152604482015290519081900360640190fd5b6001600160a01b03811661066b5760405162461bcd60e51b815260040161066290613f9a565b60405180910390fd5b600380546001600160a01b0319166001600160a01b0392909216919091179055565b33600090815260096020526040812060085483106106bd5760405162461bcd60e51b815260040161066290613c56565b80546001600160a01b03166106e45760405162461bcd60e51b815260040161066290613fc0565b6001810154156107065760405162461bcd60e51b815260040161066290613f59565b60006007848154811061071557fe5b60009182526020909120015442600184015560028301859055600780546001600160a01b03909216925033918690811061074b57fe5b600091825260209091200180546001600160a01b0319166001600160a01b0392831617905581166107b157336001600160a01b0316846000805160206143018339815191528360405161079e9190613a4d565b60405180910390a360019250505061085d565b6107ba816121cc565b6107c3336121cc565b116107e05760405162461bcd60e51b815260040161066290613b9e565b6001600160a01b03811660009081526009602052604081206002810191909155600181015461081f90610814904290612b03565b600383015490612b4c565b600382015560006001820155604051339086906000805160206143018339815191529061084d908690613a4d565b60405180910390a3600193505050505b919050565b6002546001600160a01b03166108a95760405162461bcd60e51b815260040180806020018281038252602c815260200180614362602c913960400191505060405180910390fd5b6002546040516377f28d5b60e01b81526001600160a01b03909116906377f28d5b906108d9908490600401614164565b60206040518083038186803b1580156108f157600080fd5b505afa158015610905573d6000803e3d6000fd5b505050506040513d601f19601f820116820180604052508101906109299190613870565b6109455760405162461bcd60e51b815260040161066290613ec1565b6002546040516373ba374560e01b815260009182916001600160a01b03909116906373ba37459061097a908690600401614164565b60006040518083038186803b15801561099257600080fd5b505afa1580156109a6573d6000803e3d6000fd5b505050506040513d6000823e601f3d908101601f191682016040526109ce919081019061372a565b915091506000826001600160a01b0316826040516109ec9190613a31565b6000604051808303816000865af19150503d8060008114610a29576040519150601f19603f3d011682016040523d82523d6000602084013e610a2e565b606091505b5050905080610a4f5760405162461bcd60e51b8152600401610662906140d7565b600254604051631b8c251960e11b81526001600160a01b03909116906337184a3290610a7f908790600401614164565b600060405180830381600087803b158015610a9957600080fd5b505af1158015610aad573d6000803e3d6000fd5b50505050837fabacb4960b672b8a872a0ed3c20b92ff0a6fb7de6932d8d44b3458f8553f575284604051610ae19190613a4d565b60405180910390a250505050565b6002546001600160a01b0316610b365760405162461bcd60e51b815260040180806020018281038252602c815260200180614362602c913960400191505060405180910390fd5b6000610b40612103565b905060008111610b625760405162461bcd60e51b815260040161066290614121565b600254604051637e77eb2360e01b81526001600160a01b0390911690637e77eb2390610b969088903390899060040161416d565b602060405180830381600087803b158015610bb057600080fd5b505af1158015610bc4573d6000803e3d6000fd5b505050506040513d601f19601f82011682018060405250810190610be89190613870565b50600254604051635772521560e11b8152600091829182916001600160a01b03169063aee4a42a90610c1e908b90600401614164565b60606040518083038186803b158015610c3657600080fd5b505afa158015610c4a573d6000803e3d6000fd5b505050506040513d601f19601f82011682018060405250810190610c6e91906139d8565b925092509250828411610d4a57600254604051632b0a851b60e11b81526001600160a01b03909116906356150a3690610cae908b9060019060040161418c565b600060405180830381600087803b158015610cc857600080fd5b505af1158015610cdc573d6000803e3d6000fd5b5050600254604051633625b75960e21b81526001600160a01b03909116925063d896dd649150610d13908b906003906004016141aa565b600060405180830381600087803b158015610d2d57600080fd5b505af1158015610d41573d6000803e3d6000fd5b50505050610ec2565b818411610de75760028054604051632b0a851b60e11b81526001600160a01b03909116916356150a3691610d82918c9160040161418c565b600060405180830381600087803b158015610d9c57600080fd5b505af1158015610db0573d6000803e3d6000fd5b5050600254604051633625b75960e21b81526001600160a01b03909116925063d896dd649150610d13908b906005906004016141aa565b610df18183612b4c565b8411610ec257600254604051632b0a851b60e11b81526001600160a01b03909116906356150a3690610e2a908b9060039060040161418c565b600060405180830381600087803b158015610e4457600080fd5b505af1158015610e58573d6000803e3d6000fd5b5050600254604051633625b75960e21b81526001600160a01b03909116925063d896dd649150610e8f908b906005906004016141aa565b600060405180830381600087803b158015610ea957600080fd5b505af1158015610ebd573d6000803e3d6000fd5b505050505b87336001600160a01b03167ffa0761008653bc7bf9fa040fb7e07672ad3e17a976eb452c44e81dd782a6214b898989604051610f00939291906141bb565b60405180910390a35050505050505050565b6002546001600160a01b031681565b610f29612aff565b600b546001600160a01b03908116911614610f79576040805162461bcd60e51b81526020600482018190526024820152600080516020614342833981519152604482015290519081900360640190fd5b6001600160a01b038116610f9f5760405162461bcd60e51b815260040161066290613f9a565b600480546001600160a01b0319166001600160a01b0392909216919091179055565b600960205260009081526040902080546001820154600283015460038401546004909401546001600160a01b0390931693919290919085565b6006818154811061100a57600080fd5b6000918252602090912001546001600160a01b0316905081565b61102c612aff565b600b546001600160a01b0390811691161461107c576040805162461bcd60e51b81526020600482018190526024820152600080516020614342833981519152604482015290519081900360640190fd5b6005546001600160a01b03166110c35760405162461bcd60e51b815260040180806020018281038252602b8152602001806143bf602b913960400191505060405180910390fd5b6004546001600160a01b031661110a5760405162461bcd60e51b815260040180806020018281038252602d8152602001806142d4602d913960400191505060405180910390fd5b6003546001600160a01b03166111515760405162461bcd60e51b815260040180806020018281038252603181526020018061438e6031913960400191505060405180910390fd5b61115c838383612ba6565b505050565b60008061116e8484612df1565b905061118d878260000151836020015184604001518560600151612e25565b506001979650505050505050565b6111a3612aff565b600b546001600160a01b039081169116146111f3576040805162461bcd60e51b81526020600482018190526024820152600080516020614342833981519152604482015290519081900360640190fd5b6001600160a01b0381166112195760405162461bcd60e51b815260040161066290613f9a565b600280546001600160a01b0319166001600160a01b0392909216919091179055565b611243612aff565b600b546001600160a01b03908116911614611293576040805162461bcd60e51b81526020600482018190526024820152600080516020614342833981519152604482015290519081900360640190fd5b6001600160a01b0381166112b95760405162461bcd60e51b815260040161066290613f9a565b600180546001600160a01b0319166001600160a01b0392909216919091179055565b6112e3612aff565b600b546001600160a01b03908116911614611333576040805162461bcd60e51b81526020600482018190526024820152600080516020614342833981519152604482015290519081900360640190fd5b6001600160a01b0381166113595760405162461bcd60e51b815260040161066290613f9a565b600080546001600160a01b0319166001600160a01b0392909216919091179055565b611383612aff565b600b546001600160a01b039081169116146113d3576040805162461bcd60e51b81526020600482018190526024820152600080516020614342833981519152604482015290519081900360640190fd5b80600854106113f45760405162461bcd60e51b815260040161066290613c9f565b6008819055611401612f55565b50565b6001600160a01b0390811660009081526009602052604090205416151590565b6000805b8281101561145d5761145484848381811061143f57fe5b90506020020160208101906104e39190613575565b50600101611428565b5092915050565b6001546001600160a01b031681565b6007818154811061100a57600080fd5b61148b612aff565b600b546001600160a01b039081169116146114db576040805162461bcd60e51b81526020600482018190526024820152600080516020614342833981519152604482015290519081900360640190fd5b600a55565b6005546001600160a01b03166115275760405162461bcd60e51b815260040180806020018281038252602b8152602001806143bf602b913960400191505060405180910390fd5b6004546001600160a01b031661156e5760405162461bcd60e51b815260040180806020018281038252602d8152602001806142d4602d913960400191505060405180910390fd5b6003546001600160a01b03166115b55760405162461bcd60e51b815260040180806020018281038252603181526020018061438e6031913960400191505060405180910390fd5b6115be33611404565b156115db5760405162461bcd60e51b815260040161066290614057565b600354600554600480546040516337d5af5f60e01b81526000946001600160a01b03908116946337d5af5f9461161d9433948a94938416939091169101613a61565b602060405180830381600087803b15801561163757600080fd5b505af115801561164b573d6000803e3d6000fd5b505050506040513d601f19601f8201168201806040525081019061166f9190613591565b90506001600160a01b0381166116975760405162461bcd60e51b815260040161066290613e14565b60048054600554604051635e58d38f60e11b81526001600160a01b039283169363bcb1a71e936116cc93879391169101613ab5565b602060405180830381600087803b1580156116e657600080fd5b505af11580156116fa573d6000803e3d6000fd5b505050506040513d601f19601f8201168201806040525081019061171e9190613870565b61173a5760405162461bcd60e51b815260040161066290613f09565b336000908152600960205260409020546001600160a01b0316156117705760405162461bcd60e51b815260040161066290613d47565b6040805160a0810182526001600160a01b038084168083526000602080850182815285870183815260608701848152608088018581523380875260099095528986209851895498166001600160a01b031998891617895592516001808a01919091559151600289015551600388015590516004909601959095556006805495860181559091527ff652222313e28459528d920b65115c16c04f3efc82aaedc97be59f3f377c0d3f9093018054909216831790915591517f7cf8db18d9a5c7f44156bfabdbb59ac982a8a004e461ca1b87ee71a5cdfbc5ef90611853908690613b8b565b60405180910390a35050565b6001600160a01b039081166000908152600960205260409020541690565b6005546001600160a01b031681565b611894612aff565b600b546001600160a01b039081169116146118e4576040805162461bcd60e51b81526020600482018190526024820152600080516020614342833981519152604482015290519081900360640190fd5b600b546040516000916001600160a01b0316907f8be0079c531659141344cd1fd0a4f28419497f9722a3daafe3b4186f6b6457e0908390a3600b80546001600160a01b0319169055565b611936612aff565b600b546001600160a01b03908116911614611986576040805162461bcd60e51b81526020600482018190526024820152600080516020614342833981519152604482015290519081900360640190fd5b6001600160a01b0381166119ac5760405162461bcd60e51b815260040161066290613f9a565b600580546001600160a01b0319166001600160a01b0392909216919091179055565b60065490565b6119dc612aff565b600b546001600160a01b03908116911614611a2c576040805162461bcd60e51b81526020600482018190526024820152600080516020614342833981519152604482015290519081900360640190fd5b6002546001600160a01b0316611a735760405162461bcd60e51b815260040180806020018281038252602c815260200180614362602c913960400191505060405180910390fd5b600254604051630f47aa8d60e31b81526001600160a01b0390911690637a3d546890611aa590859085906004016141f1565b600060405180830381600087803b158015611abf57600080fd5b505af1158015611ad3573d6000803e3d6000fd5b505050505050565b600a5481565b611ae9612aff565b600b546001600160a01b03908116911614611b39576040805162461bcd60e51b81526020600482018190526024820152600080516020614342833981519152604482015290519081900360640190fd5b6002546001600160a01b03166356150a3684836003811115611b5757fe5b6040518363ffffffff1660e01b8152600401611b7492919061418c565b600060405180830381600087803b158015611b8e57600080fd5b505af1158015611ba2573d6000803e3d6000fd5b50506002546001600160a01b0316915063d896dd64905084846005811115611bc657fe5b6040518363ffffffff1660e01b8152600401611be39291906141aa565b600060405180830381600087803b158015611bfd57600080fd5b505af1158015611c11573d6000803e3d6000fd5b50505050505050565b611c22612aff565b600b546001600160a01b03908116911614611c72576040805162461bcd60e51b81526020600482018190526024820152600080516020614342833981519152604482015290519081900360640190fd5b600060078281548110611c8157fe5b60009182526020808320909101546001600160a01b03168083526009909152604090912060075491925090600019018314611d3e5760078054600091906000198101908110611ccc57fe5b60009182526020808320909101546001600160a01b0316808352600990915260409091206002810186905560078054929350909183919087908110611d0d57fe5b9060005260206000200160006101000a8154816001600160a01b0302191690836001600160a01b0316021790555050505b600060028201556001810154611d5990610814904290612b03565b6003820155600060018201556007805480611d7057fe5b600082815260209020810160001990810180546001600160a01b0319169055019055600854611da0906001612b03565b600855604051600090849060008051602061430183398151915290611dc6908690613a4d565b60405180910390a3600854611ddc816001612b4c565b6040517f8c0366d1e3a335a312d012257ee764723c38ec2dd5e74cbfad372513521f977190600090a3505050565b6001600160a01b0380821660009081526009602052604081205490911680611e445760405162461bcd60e51b815260040161066290613d9c565b611e5581631dffc87160e21b612faa565b611e715760405162461bcd60e51b815260040161066290613e64565b806001600160a01b03166377ff21c46040518163ffffffff1660e01b815260040160206040518083038186803b158015611eaa57600080fd5b505afa158015611ebe573d6000803e3d6000fd5b505050506040513d601f19601f82011682018060405250810190611ee29190613870565b611efe5760405162461bcd60e51b815260040161066290614011565b806001600160a01b031663764a78566040518163ffffffff1660e01b8152600401602060405180830381600087803b158015611f3957600080fd5b505af1158015611f4d573d6000803e3d6000fd5b505050506040513d601f19601f82011682018060405250810190611f719190613870565b5050919050565b33600081815260096020526040812091611f9190612071565b905060008111611fb35760405162461bcd60e51b815260040161066290613cfd565b600154604051633bc3556560e21b81526001600160a01b039091169063ef0d559490611fe59033908590600401613a9c565b600060405180830381600087803b158015611fff57600080fd5b505af1158015612013573d6000803e3d6000fd5b505042600485015550506000600383015560405133907fe013459a1c3162ae04cb4b22feaa126a5d302e283c7333f41d1ebe1b2cd7384b90612056908490614164565b60405180910390a25050565b600b546001600160a01b031690565b6001600160a01b038116600090815260096020526040812060038101546001820154156120ed578160040154826001015411156120d0576120c96120c2836001015442612b0390919063ffffffff16565b8290612b4c565b90506120ed565b6120ea6120c2836004015442612b0390919063ffffffff16565b90505b600a546120fb908290612fc6565b949350505050565b600254604080516302e0740360e31b8152815160009384936001600160a01b0390911692631703a0189260048083019392829003018186803b15801561214857600080fd5b505afa15801561215c573d6000803e3d6000fd5b505050506040513d601f19601f8201168201806040525081019061218091906138c3565b6007546020820151825192935090916121a5919061219f908490612fc6565b9061301f565b9250505090565b6001600160a01b0316600090815260096020526040902060010154151590565b6000806121d88361185f565b90506001600160a01b0381166122005760405162461bcd60e51b815260040161066290613c1f565b600554604051634c063c1960e01b81526000916001600160a01b031690634c063c1990612231908590600401613a4d565b60206040518083038186803b15801561224957600080fd5b505afa15801561225d573d6000803e3d6000fd5b505050506040513d601f19601f820116820180604052508101906122819190613591565b90506001600160a01b0381166122a95760405162461bcd60e51b8152600401610662906140a0565b806001600160a01b03166318160ddd6040518163ffffffff1660e01b815260040160206040518083038186803b1580156122e257600080fd5b505afa1580156122f6573d6000803e3d6000fd5b505050506040513d601f19601f820116820180604052508101906120fb9190613923565b612322612aff565b600b546001600160a01b03908116911614612372576040805162461bcd60e51b81526020600482018190526024820152600080516020614342833981519152604482015290519081900360640190fd5b6002546001600160a01b03166123b95760405162461bcd60e51b815260040180806020018281038252602c815260200180614362602c913960400191505060405180910390fd5b600254604051635a7b4db560e11b81526001600160a01b039091169063b4f69b6a906123e9908490600401614164565b600060405180830381600087803b15801561240357600080fd5b505af1158015612417573d6000803e3d6000fd5b5050505050565b6003546001600160a01b031681565b600033612439816121ac565b6124745760405162461bcd60e51b81526004018080602001828103825260238152602001806142b16023913960400191505060405180910390fd5b336000908152600960205260408120600281015460078054929392909190811061249a57fe5b9060005260206000200160006101000a8154816001600160a01b0302191690836001600160a01b031602179055506124e2610814826001015442612b0390919063ffffffff16565b6003820155600060018201819055600282015460405160008051602061430183398151915290612513903390613a4d565b60405180910390a360006002909101555090565b6000546001600160a01b031681565b6004546001600160a01b031681565b61254d612aff565b600b546001600160a01b0390811691161461259d576040805162461bcd60e51b81526020600482018190526024820152600080516020614342833981519152604482015290519081900360640190fd5b6002546001600160a01b03166125e45760405162461bcd60e51b815260040180806020018281038252602c815260200180614362602c913960400191505060405180910390fd5b600254604051630d10d2b560e41b81526001600160a01b039091169063d10d2b50906123e9908490600401614164565b61261c612aff565b600b546001600160a01b0390811691161461266c576040805162461bcd60e51b81526020600482018190526024820152600080516020614342833981519152604482015290519081900360640190fd5b6002546001600160a01b03166126b35760405162461bcd60e51b815260040180806020018281038252602c815260200180614362602c913960400191505060405180910390fd5b60025460405163d1f0473f60e01b81526001600160a01b039091169063d1f0473f906123e9908490600401614164565b6001600160a01b0380821660009081526009602052604081208054919290911661271157600091505061085d565b8054600090612730906001600160a01b0316631dffc87160e21b612faa565b9050806127425760009250505061085d565b815460408051631dffc87160e21b815290516001600160a01b03909216916377ff21c491600480820192602092909190829003018186803b15801561278657600080fd5b505afa15801561279a573d6000803e3d6000fd5b505050506040513d601f19601f820116820180604052508101906120fb9190613870565b6000806127ca8461185f565b90506001600160a01b0381166127f25760405162461bcd60e51b815260040161066290613c1f565b600554604051634c063c1960e01b81526000916001600160a01b031690634c063c1990612823908590600401613a4d565b60206040518083038186803b15801561283b57600080fd5b505afa15801561284f573d6000803e3d6000fd5b505050506040513d601f19601f820116820180604052508101906128739190613591565b90506001600160a01b03811661289b5760405162461bcd60e51b8152600401610662906140a0565b6040516370a0823160e01b81526001600160a01b038216906370a08231906128c7908790600401613a4d565b60206040518083038186803b1580156128df57600080fd5b505afa1580156128f3573d6000803e3d6000fd5b505050506040513d601f19601f820116820180604052508101906129179190613923565b925050505b92915050565b61292a612aff565b600b546001600160a01b0390811691161461297a576040805162461bcd60e51b81526020600482018190526024820152600080516020614342833981519152604482015290519081900360640190fd5b6001600160a01b0381166129bf5760405162461bcd60e51b815260040180806020018281038252602681526020018061428b6026913960400191505060405180910390fd5b600b546040516001600160a01b038084169216907f8be0079c531659141344cd1fd0a4f28419497f9722a3daafe3b4186f6b6457e090600090a3600b80546001600160a01b0319166001600160a01b0392909216919091179055565b6005546001600160a01b0316612a625760405162461bcd60e51b815260040180806020018281038252602b8152602001806143bf602b913960400191505060405180910390fd5b6004546001600160a01b0316612aa95760405162461bcd60e51b815260040180806020018281038252602d8152602001806142d4602d913960400191505060405180910390fd5b6003546001600160a01b0316612af05760405162461bcd60e51b815260040180806020018281038252603181526020018061438e6031913960400191505060405180910390fd5b612afb338383612ba6565b5050565b3390565b6000612b4583836040518060400160405280601e81526020017f536166654d6174683a207375627472616374696f6e206f766572666c6f770000815250613061565b9392505050565b600082820183811015612b45576040805162461bcd60e51b815260206004820152601b60248201527f536166654d6174683a206164646974696f6e206f766572666c6f770000000000604482015290519081900360640190fd5b6005546001600160a01b0316612bed5760405162461bcd60e51b815260040180806020018281038252602b8152602001806143bf602b913960400191505060405180910390fd5b6004546001600160a01b0316612c345760405162461bcd60e51b815260040180806020018281038252602d8152602001806142d4602d913960400191505060405180910390fd5b6003546001600160a01b0316612c7b5760405162461bcd60e51b815260040180806020018281038252603181526020018061438e6031913960400191505060405180910390fd5b612c8483611404565b15612ca15760405162461bcd60e51b815260040161066290614057565b6001600160a01b038216612cc75760405162461bcd60e51b815260040161066290613e14565b6001600160a01b038381166000908152600960205260409020541615612cff5760405162461bcd60e51b815260040161066290613d47565b6040805160a0810182526001600160a01b038085168083526000602080850182815285870183815260608701848152608088018581528c881680875260099095528986209851895498166001600160a01b031998891617895592516001808a01919091559151600289015551600388015590516004909601959095556006805495860181559091527ff652222313e28459528d920b65115c16c04f3efc82aaedc97be59f3f377c0d3f9093018054909216831790915591517f574651c4b47831128b9ed5b0c878675fc9c8e14d7119b755a31c7fef6065e97090612de4908590613b8b565b60405180910390a3505050565b612df96134a7565b612e05828401846135ad565b6060850152604084015260208301526001600160a01b0316815292915050565b6002546000906001600160a01b0316612e6f5760405162461bcd60e51b815260040180806020018281038252602c815260200180614362602c913960400191505060405180910390fd5b612e78866130f8565b600254604051630f07905160e31b81526000916001600160a01b03169063783c828890612eb19089908990899087908a90600401613b14565b602060405180830381600087803b158015612ecb57600080fd5b505af1158015612edf573d6000803e3d6000fd5b505050506040513d601f19601f82011682018060405250810190612f039190613923565b905080876001600160a01b03167f0b6aa7bb57e8fd0a7695592a4076e50796d4112d23746f17678b412e559c3d55888888604051612f4393929190613af3565b60405180910390a39695505050505050565b6007545b6008548110156114015760078054600181810183556000929092527fa66cc928b5edb82af9bd49922954155ab7b0942694bea4ce44661d9a8736c6880180546001600160a01b031916905501612f59565b6000612fb5836132b9565b8015612b455750612b4583836132ec565b600082612fd55750600061291c565b82820282848281612fe257fe5b0414612b455760405162461bcd60e51b81526004018080602001828103825260218152602001806143216021913960400191505060405180910390fd5b6000612b4583836040518060400160405280601a81526020017f536166654d6174683a206469766973696f6e206279207a65726f00000000000081525061330f565b600081848411156130f05760405162461bcd60e51b81526004018080602001828103825283818151815260200191508051906020019080838360005b838110156130b557818101518382015260200161309d565b50505050905090810190601f1680156130e25780820380516001836020036101000a031916815260200191505b509250505060405180910390fd5b505050900390565b60025460408051632522a32f60e01b815290516000926001600160a01b031691632522a32f916004808301926020929190829003018186803b15801561313d57600080fd5b505afa158015613151573d6000803e3d6000fd5b505050506040513d601f19601f820116820180604052508101906131759190613923565b6000546040516323b872dd60e01b81529192506001600160a01b0316906323b872dd906131aa90859030908690600401613acf565b602060405180830381600087803b1580156131c457600080fd5b505af11580156131d8573d6000803e3d6000fd5b505050506040513d601f19601f820116820180604052508101906131fc9190613870565b6132185760405162461bcd60e51b815260040161066290613bc9565b60005460405163a9059cbb60e01b81526001600160a01b039091169063a9059cbb9061324b906001908590600401613a9c565b602060405180830381600087803b15801561326557600080fd5b505af1158015613279573d6000803e3d6000fd5b505050506040513d601f19601f8201168201806040525081019061329d9190613870565b612afb5760405162461bcd60e51b815260040161066290613dd3565b60006132cc826301ffc9a760e01b6132ec565b801561291c57506132e5826001600160e01b03196132ec565b1592915050565b60008060006132fb8585613374565b915091508180156129175750949350505050565b6000818361335e5760405162461bcd60e51b81526020600482018181528351602484015283519092839260449091019190850190808383600083156130b557818101518382015260200161309d565b50600083858161336a57fe5b0495945050505050565b604080516001600160e01b0319831660248083019190915282518083039091018152604490910182526020810180516001600160e01b03166301ffc9a760e01b17815291518151600093849392849283926001600160a01b038a169261753092879282918083835b602083106133fb5780518252601f1990920191602091820191016133dc565b6001836020036101000a0380198251168184511680821785525050505050509050019150506000604051808303818686fa925050503d806000811461345c576040519150601f19603f3d011682016040523d82523d6000602084013e613461565b606091505b509150915060208151101561347f57600080945094505050506134a0565b8181806020019051602081101561349557600080fd5b505190955093505050505b9250929050565b604051806080016040528060006001600160a01b031681526020016000815260200160008152602001606081525090565b60006134eb6134e684614223565b6141ff565b90508281528383830111156134ff57600080fd5b828260208301376000602084830101529392505050565b60008083601f840112613527578182fd5b50813567ffffffffffffffff81111561353e578182fd5b6020830191508360208285010111156134a057600080fd5b600082601f830112613566578081fd5b612b45838335602085016134d8565b600060208284031215613586578081fd5b8135612b4581614275565b6000602082840312156135a2578081fd5b8151612b4581614275565b600080600080608085870312156135c2578283fd5b84356135cd81614275565b93506020850135925060408501359150606085013567ffffffffffffffff8111156135f6578182fd5b8501601f81018713613606578182fd5b613615878235602084016134d8565b91505092959194509250565b60008060408385031215613633578182fd5b823561363e81614275565b9150602083013561364e81614275565b809150509250929050565b60008060006060848603121561366d578283fd5b833561367881614275565b9250602084013561368881614275565b9150604084013567ffffffffffffffff8111156136a3578182fd5b6136af86828701613556565b9150509250925092565b6000806000806000608086880312156136d0578081fd5b85356136db81614275565b945060208601356136eb81614275565b935060408601359250606086013567ffffffffffffffff81111561370d578182fd5b61371988828901613516565b969995985093965092949392505050565b6000806040838503121561373c578182fd5b825161374781614275565b602084015190925067ffffffffffffffff811115613763578182fd5b8301601f81018513613773578182fd5b80516137816134e682614223565b818152866020838501011115613795578384fd5b6137a6826020830160208601614245565b8093505050509250929050565b600080604083850312156137c5578081fd5b82356137d081614275565b9150602083013567ffffffffffffffff8111156137eb578182fd5b6137f785828601613556565b9150509250929050565b60008060208385031215613813578182fd5b823567ffffffffffffffff8082111561382a578384fd5b818501915085601f83011261383d578384fd5b81358181111561384b578485fd5b866020808302850101111561385e578485fd5b60209290920196919550909350505050565b600060208284031215613881578081fd5b81518015158114612b45578182fd5b6000602082840312156138a1578081fd5b813567ffffffffffffffff8111156138b7578182fd5b6120fb84828501613556565b6000604082840312156138d4578081fd5b6040516040810181811067ffffffffffffffff821117156138f157fe5b604052825181526020928301519281019290925250919050565b60006020828403121561391c578081fd5b5035919050565b600060208284031215613934578081fd5b5051919050565b6000806040838503121561394d578182fd5b50508035926020909101359150565b60008060008060608587031215613971578182fd5b8435935060208501359250604085013567ffffffffffffffff811115613995578283fd5b6139a187828801613516565b95989497509550505050565b6000806000606084860312156139c1578081fd5b505081359360208301359350604090920135919050565b6000806000606084860312156139ec578081fd5b8351925060208401519150604084015190509250925092565b60008151808452613a1d816020860160208601614245565b601f01601f19169290920160200192915050565b60008251613a43818460208701614245565b9190910192915050565b6001600160a01b0391909116815260200190565b600060018060a01b03808716835260806020840152613a836080840187613a05565b9481166040840152929092166060909101525092915050565b6001600160a01b03929092168252602082015260400190565b6001600160a01b0392831681529116602082015260400190565b6001600160a01b039384168152919092166020820152604081019190915260600190565b6001600160a01b039390931683526020830191909152604082015260600190565b600060018060a01b038716825285602083015284604083015283606083015260a06080830152613b4760a0830184613a05565b979650505050505050565b6001600160a01b03959095168552602085019390935260408401919091526060830152608082015260a00190565b901515815260200190565b600060208252612b456020830184613a05565b6020808252601190820152701b9bdd08195b9bdd59da08185b5bdd5b9d607a1b604082015260600190565b60208082526036908201527f44414f436f6d6d697474656553746f72653a206661696c656420746f207472616040820152753739b332b9103a37b710333937b69031b932b0ba37b960511b606082015260800190565b6020808252601f908201527f54686973206163636f756e74206973206e6f7420612063616e64696461746500604082015260600190565b60208082526029908201527f44414f436f6d6d697474656553746f72653a20696e646578206973206e6f7420604082015268617661696c61626c6560b81b606082015260800190565b602080825260409082018190527f44414f436f6d6d697474656553746f72653a20596f75206861766520746f2063908201527f616c6c207265647563654d656d626572536c6f7420746f206465637265617365606082015260800190565b6020808252602a908201527f44414f436f6d6d69747465653a20796f7520646f6e2774206861766520636c6160408201526934b6b0b13632903a37b760b11b606082015260800190565b60208082526035908201527f44414f436f6d6d697474656553746f72653a205468652063616e64696461746560408201527408185b1c9958591e481a185cc818dbdb9d1c9858dd605a1b606082015260800190565b6020808252601d908201527f44414f436f6d6d69747465653a206e6f7420612063616e646964617465000000604082015260600190565b60208082526021908201527f44414f436f6d6d697474656553746f72653a206661696c656420746f206275726040820152603760f91b606082015260800190565b60208082526030908201527f44414f436f6d6d69747465653a206465706c6f7965642063616e64696461746560408201526f436f6e7472616374206973207a65726f60801b606082015260800190565b6020808252603c908201527f44414f436f6d6d69747465653a2074686520636f6e747261637420646f65736e60408201527f277420737570706f727420757064617465536569676e696f7261676500000000606082015260800190565b60208082526028908201527f44414f436f6d6d69747465653a2063616e206e6f74206578656375746520746860408201526765206167656e646160c01b606082015260800190565b60208082526030908201527f44414f436f6d6d69747465653a206661696c656420746f20726567697374657260408201526f416e644465706c6f79436f696e61676560801b606082015260800190565b60208082526021908201527f44414f436f6d6d697474656553746f72653a20616c7265616479206d656d62656040820152603960f91b606082015260800190565b6020808252600c908201526b7a65726f206164647265737360a01b604082015260600190565b60208082526031908201527f44414f436f6d6d697474656553746f72653a205468652061646472657373206960408201527073206e6f7420612063616e64696461746560781b606082015260800190565b60208082526026908201527f44414f436f6d6d69747465653a206e6f7420612063616e64696461746520636f6040820152651b9d1c9858dd60d21b606082015260800190565b60208082526029908201527f44414f436f6d6d69747465653a2063616e64696461746520616c7265616479206040820152681c9959da5cdd195c9960ba1b606082015260800190565b6020808252601d908201527f44414f436f6d6d69747465653a20636f696e616765206973207a65726f000000604082015260600190565b6020808252602a908201527f44414f436f6d6d69747465653a204661696c656420746f206578656375746520604082015269746865206167656e646160b01b606082015260800190565b60208082526023908201527f44414f436f6d6d69747465653a207265717569726564566f746573206973207a60408201526265726f60e81b606082015260800190565b90815260200190565b9283526001600160a01b03919091166020830152604082015260600190565b828152604081016004831061419d57fe5b8260208301529392505050565b828152604081016006831061419d57fe5b60008482526040602083015282604083015282846060840137818301606090810191909152601f909201601f1916010192915050565b918252602082015260400190565b60405181810167ffffffffffffffff8111828210171561421b57fe5b604052919050565b600067ffffffffffffffff82111561423757fe5b50601f01601f191660200190565b60005b83811015614260578181015183820152602001614248565b8381111561426f576000848401525b50505050565b6001600160a01b038116811461140157600080fdfe4f776e61626c653a206e6577206f776e657220697320746865207a65726f206164647265737353746f726167655374617465436f6d6d69747465653a206e6f742061206d656d62657253746f726167655374617465436f6d6d69747465653a20756e76616c6964204c61796572325265676973747279663b98adf1afa777e36528b3293a057803f87ed00d2d2518dccfe5d7a6e99ccf536166654d6174683a206d756c7469706c69636174696f6e206f766572666c6f774f776e61626c653a2063616c6c6572206973206e6f7420746865206f776e657253746f726167655374617465436f6d6d69747465653a204167656e64614d616e61676572206973207a65726f53746f726167655374617465436f6d6d69747465653a20756e76616c696420436f6d6d69747465654c32466163746f727953746f726167655374617465436f6d6d69747465653a20756e76616c696420536569674d616e6167657265a2646970667358221220357055e9d76583e378cafc8487cd8a0a43cbc125dab3335c698dcc2762f8730464736f6c63430007060033",
  "immutableReferences": {},
  "source": "// SPDX-License-Identifier: MIT\npragma solidity ^0.7.6;\npragma abicoder v2;\n\nimport \"../../node_modules/@openzeppelin/contracts/access/Ownable.sol\";\nimport \"./StorageStateCommittee.sol\";\n\nimport { SafeMath } from \"../../node_modules/@openzeppelin/contracts/math/SafeMath.sol\";\nimport { IERC20 } from  \"../../node_modules/@openzeppelin/contracts/token/ERC20/IERC20.sol\";\nimport { ICandidate } from \"../interfaces/ICandidate.sol\";\nimport { IDAOAgendaManager } from \"../interfaces/IDAOAgendaManager.sol\";\nimport { LibAgenda } from \"../lib/Agenda.sol\";\nimport { ERC165Checker } from \"../../node_modules/@openzeppelin/contracts/introspection/ERC165Checker.sol\";\n\ncontract DAOCommittee is StorageStateCommittee, Ownable {\n    using SafeMath for uint256;\n    using LibAgenda for *;\n     \n    enum ApplyResult { NONE, SUCCESS, NOT_ELECTION, ALREADY_COMMITTEE, SLOT_INVALID, ADDMEMBER_FAIL, LOW_BALANCE }\n\n    struct AgendaCreatingData {\n        address target;\n        uint256 noticePeriodSeconds;\n        uint256 votingPeriodSeconds;\n        bytes functionBytecode;\n    }\n\n    //////////////////////////////\n    // Events\n    //////////////////////////////\n\n    event AgendaCreated(\n        address indexed from,\n        uint256 indexed id,\n        address target,\n        uint256 noticePeriodSeconds,\n        uint256 votingPeriodSeconds\n    );\n\n    event AgendaVoteCasted(\n        address indexed from,\n        uint256 indexed id,\n        uint voting,\n        string comment\n    );\n\n    event AgendaExecuted(\n        uint256 indexed id,\n        address target\n    );\n\n    event CandidateContractCreated(\n        address indexed candidate,\n        address indexed candidateContract,\n        string memo\n    );\n\n    event OperatorRegistered(\n        address indexed candidate,\n        address indexed candidateContract,\n        string memo\n    );\n\n    event ChangedMember(\n        uint256 indexed slotIndex,\n        address prevMember,\n        address indexed newMember\n    );\n\n    event ChangedSlotMaximum(\n        uint256 indexed prevSlotMax,\n        uint256 indexed slotMax\n    );\n\n    event ClaimedActivityReward(\n        address indexed candidate,\n        uint256 amount\n    );\n\n    //////////////////////////////////////////////////////////////////////\n    // setters\n\n    function setSeigManager(address _agendaManager) public onlyOwner {\n        require(_agendaManager != address(0), \"zero address\");\n        seigManager = ISeigManager(_agendaManager);\n    }\n     \n    function setDaoVault(address _daoVault) public onlyOwner {\n        require(_daoVault != address(0), \"zero address\");\n        daoVault = IDAOVault2(_daoVault);\n    }\n\n    function setLayer2Registry(address _layer2Registry) public onlyOwner {\n        require(_layer2Registry != address(0), \"zero address\");\n        layer2Registry = ILayer2Registry(_layer2Registry);\n    }\n\n    function setAgendaManager(address _agendaManager) public onlyOwner {\n        require(_agendaManager != address(0), \"zero address\");\n        agendaManager = IDAOAgendaManager(_agendaManager);\n    }\n\n    function setCandidateFactory(address _candidateFactory) public onlyOwner {\n        require(_candidateFactory != address(0), \"zero address\");\n        candidateFactory = ICandidateFactory(_candidateFactory);\n    }\n\n    function setTon(address _ton) public onlyOwner {\n        require(_ton != address(0), \"zero address\");\n        ton = _ton;\n    }\n\n    function setActivityRewardPerSecond(uint256 _value) public onlyOwner {\n        activityRewardPerSecond = _value;\n    }\n\n    function setMaxMember(uint256 _maxMember) onlyOwner public {\n        require(maxMember < _maxMember, \"DAOCommitteeStore: You have to call reduceMemberSlot to decrease\");\n        maxMember = _maxMember;\n        fillMemberSlot();\n    }\n\n    //////////////////////////////////////////////////////////////////////\n    // Managing members\n\n    function createCandidate(string memory _memo)\n        public\n        validSeigManager\n        validLayer2Registry\n        validCommitteeL2Factory\n    {\n        require(!isExistCandidate(msg.sender), \"DAOCommittee: candidate already registerd\");\n\n        //uint256 minimumAmount = seigManager.minimumAmount();\n        //require(minimumAmount <= tonAmount, \"DAOCommittee: not enough ton\");\n          \n        // Candidate\n        address candidateContract = candidateFactory.deploy(msg.sender, _memo, address(seigManager), address(layer2Registry));\n        require(\n            candidateContract != address(0),\n            \"DAOCommittee: deployed candidateContract is zero\"\n        );\n        require(\n            layer2Registry.registerAndDeployCoinage(candidateContract, address(seigManager)),\n            \"DAOCommittee: failed to registerAndDeployCoinage\"\n        );\n        require(\n            candidateInfos[msg.sender].candidateContract == address(0),\n            \"DAOCommitteeStore: The candidate already has contract\"\n        );\n\n        candidateInfos[msg.sender] = CandidateInfo({\n            candidateContract: candidateContract,\n            memberJoinedTime: 0,\n            indexMembers: 0,\n            rewardPeriod: 0,\n            claimedTimestamp: 0\n        });\n\n        candidates.push(msg.sender);\n       \n        emit CandidateContractCreated(msg.sender, candidateContract, _memo);\n    }\n\n    function registerOperator(address _contractAddress, string memory _memo)\n        public\n        validSeigManager\n        validLayer2Registry\n        validCommitteeL2Factory\n    {\n        _registerOperator(msg.sender, _contractAddress, _memo);\n    }\n\n    function registerOperatorByOwner(address _operator, address _contractAddress, string memory _memo)\n        public\n        onlyOwner\n        validSeigManager\n        validLayer2Registry\n        validCommitteeL2Factory\n    {\n        _registerOperator(_operator, _contractAddress, _memo);\n    }\n\n    function changeMember(uint256 _memberIndex)\n        public\n        returns (bool)\n    {\n        CandidateInfo storage candidateInfo = candidateInfos[msg.sender];\n        require(\n            _memberIndex < maxMember,\n            \"DAOCommitteeStore: index is not available\"\n        );\n        require(\n            candidateInfo.candidateContract != address(0),\n            \"DAOCommitteeStore: The address is not a candidate\"\n        );\n        require(\n            candidateInfo.memberJoinedTime == 0,\n            \"DAOCommitteeStore: already member\"\n        );\n        \n        address prevMember = members[_memberIndex];\n\n        candidateInfo.memberJoinedTime = block.timestamp;\n        candidateInfo.indexMembers = _memberIndex;\n\n        members[_memberIndex] = msg.sender;\n\n        if (prevMember == address(0)) {\n            emit ChangedMember(_memberIndex, prevMember, msg.sender);\n            return true;\n        }\n\n        require(\n            totalSupplyOnCandidate(msg.sender) > totalSupplyOnCandidate(prevMember),\n            \"not enough amount\"\n        );\n\n        CandidateInfo storage prevCandidate = candidateInfos[prevMember];\n        prevCandidate.indexMembers = 0;\n        prevCandidate.rewardPeriod = prevCandidate.rewardPeriod.add(block.timestamp.sub(prevCandidate.memberJoinedTime));\n        prevCandidate.memberJoinedTime = 0;\n\n        emit ChangedMember(_memberIndex, prevMember, msg.sender);\n\n        return true;\n    }\n    \n    function retireMember() onlyMember(msg.sender) public returns (bool) {\n        CandidateInfo storage candidateInfo = candidateInfos[msg.sender];\n        members[candidateInfo.indexMembers] = address(0);\n        candidateInfo.rewardPeriod = candidateInfo.rewardPeriod.add(block.timestamp.sub(candidateInfo.memberJoinedTime));\n        candidateInfo.memberJoinedTime = 0;\n\n        emit ChangedMember(candidateInfo.indexMembers, msg.sender, address(0));\n\n        candidateInfo.indexMembers = 0;\n    }\n\n    function reduceMemberSlot(uint256 _reducingMemberIndex) public onlyOwner {\n        address reducingMember = members[_reducingMemberIndex];\n        CandidateInfo storage reducingCandidate = candidateInfos[reducingMember];\n\n        if (_reducingMemberIndex != members.length - 1) {\n            address tailmember = members[members.length - 1];\n            CandidateInfo storage tailCandidate = candidateInfos[tailmember];\n\n            tailCandidate.indexMembers = _reducingMemberIndex;\n            members[_reducingMemberIndex] = tailmember;\n        }\n        reducingCandidate.indexMembers = 0;\n        reducingCandidate.rewardPeriod = reducingCandidate.rewardPeriod.add(block.timestamp.sub(reducingCandidate.memberJoinedTime));\n        reducingCandidate.memberJoinedTime = 0;\n\n        members.pop();\n        maxMember = maxMember.sub(1);\n\n        emit ChangedMember(_reducingMemberIndex, reducingMember, address(0));\n        emit ChangedSlotMaximum(maxMember.add(1), maxMember);\n    }\n\n    //////////////////////////////////////////////////////////////////////\n    // Managing agenda\n\n    function onApprove(\n        address owner,\n        address spender,\n        uint256 tonAmount,\n        bytes calldata data\n    ) external returns (bool) {\n        AgendaCreatingData memory agendaData = _decodeAgendaData(data);\n\n        _createAgenda(\n            owner,\n            agendaData.target,\n            agendaData.noticePeriodSeconds,\n            agendaData.votingPeriodSeconds,\n            agendaData.functionBytecode\n        );\n\n        return true;\n    }\n\n    function setQuorum(\n        uint256 _quorumNumerator,\n        uint256 _quorumDenominator\n    )\n        public\n        onlyOwner\n        validAgendaManager\n    {\n        agendaManager.setQuorum(_quorumNumerator, _quorumDenominator);\n    }\n\n    function setCreateAgendaFees(\n        uint256 _fees\n    )\n        public\n        onlyOwner\n        validAgendaManager\n    {\n        agendaManager.setCreateAgendaFees(_fees);\n    }\n\n    function setMinimunNoticePeriodSeconds(\n        uint256 _minimunNoticePeriod\n    )\n        public\n        onlyOwner\n        validAgendaManager\n    {\n        agendaManager.setMinimunNoticePeriodSeconds(_minimunNoticePeriod);\n    }\n\n    function setMinimunVotingPeriodSeconds(\n        uint256 _minimunVotingPeriod\n    )\n        public\n        onlyOwner\n        validAgendaManager\n    {\n        agendaManager.setMinimunVotingPeriodSeconds(_minimunVotingPeriod);\n    }\n\n    function castVote(\n        uint256 _agendaID,\n        uint _vote,\n        string calldata _comment\n    )\n        public \n        validAgendaManager\n    {\n        uint256 requiredVotes = requiredVotesToPass();\n        require(requiredVotes > 0, \"DAOCommittee: requiredVotes is zero\");\n        \n        agendaManager.castVote(\n            _agendaID,\n            msg.sender,\n            _vote\n        );\n\n        (uint256 yes, uint256 no, uint256 abstain) = agendaManager.getVotingCount(_agendaID);\n\n        if (requiredVotes <= yes) {\n            // yes\n            agendaManager.setResult(_agendaID, LibAgenda.AgendaResult.ACCEPT);\n            agendaManager.setStatus(_agendaID, LibAgenda.AgendaStatus.WAITING_EXEC);\n        } else if (requiredVotes <= no) {\n            // no\n            agendaManager.setResult(_agendaID, LibAgenda.AgendaResult.REJECT);\n            agendaManager.setStatus(_agendaID, LibAgenda.AgendaStatus.ENDED);\n        } else if (requiredVotes <= abstain.add(no) ) {\n            // dismiss\n            agendaManager.setResult(_agendaID, LibAgenda.AgendaResult.DISMISS);\n            agendaManager.setStatus(_agendaID, LibAgenda.AgendaStatus.ENDED);\n        }\n        \n        emit AgendaVoteCasted(msg.sender, _agendaID, _vote, _comment);\n    }\n\n    function executeAgenda(uint256 _agendaID) public validAgendaManager {\n        require(\n            agendaManager.canExecuteAgenda(_agendaID),\n            \"DAOCommittee: can not execute the agenda\"\n        );\n        \n        (address target, bytes memory functionBytecode) = agendaManager.getExecutionInfo(_agendaID);\n       \n        (bool success, ) = address(target).call(functionBytecode);\n        require(success, \"DAOCommittee: Failed to execute the agenda\");\n         \n        agendaManager.setExecutedAgenda(_agendaID);\n\n        emit AgendaExecuted(_agendaID, target);\n    }\n\n    function setAgendaStatus(uint256 _agendaID, uint256 _status, uint256 _result) public onlyOwner {\n        agendaManager.setResult(_agendaID, LibAgenda.AgendaResult(_result));\n        agendaManager.setStatus(_agendaID, LibAgenda.AgendaStatus(_status));\n    }\n     \n    function updateSeigniorage(address _candidate) public returns (bool) {\n        address candidateContract = candidateInfos[_candidate].candidateContract;\n        require(candidateContract != address(0), \"DAOCommittee: not a candidate\");\n        require(\n            ERC165Checker.supportsInterface(\n                candidateContract,\n                ICandidate(candidateContract).isCandidateContract.selector\n            ),\n            \"DAOCommittee: the contract doesn't support updateSeigniorage\"\n        );\n        require(\n            ICandidate(candidateContract).isCandidateContract(),\n            \"DAOCommittee: not a candidate contract\"\n        );\n\n        ICandidate(candidateContract).updateSeigniorage();\n    }\n\n    function updateSeigniorages(address[] calldata _candidates) public returns (bool) {\n        for (uint256 i = 0; i < _candidates.length; i++) {\n            updateSeigniorage(_candidates[i]);\n        }\n    }\n\n    function claimActivityReward() public {\n        CandidateInfo storage info = candidateInfos[msg.sender];\n        uint256 amount = getClaimableActivityReward(msg.sender);\n\n        require(amount > 0, \"DAOCommittee: you don't have claimable ton\");\n\n        daoVault.claimTON(msg.sender, amount);\n        info.claimedTimestamp = block.timestamp;\n        info.rewardPeriod = 0;\n\n        emit ClaimedActivityReward(msg.sender, amount);\n    }\n\n    function _registerOperator(address _operator, address _contractAddress, string memory _memo)\n        internal\n        validSeigManager\n        validLayer2Registry\n        validCommitteeL2Factory\n    {\n        require(!isExistCandidate(_operator), \"DAOCommittee: candidate already registerd\");\n\n        require(\n            _contractAddress != address(0),\n            \"DAOCommittee: deployed candidateContract is zero\"\n        );\n        require(\n            candidateInfos[_operator].candidateContract == address(0),\n            \"DAOCommitteeStore: The candidate already has contract\"\n        );\n\n        candidateInfos[_operator] = CandidateInfo({\n            candidateContract: _contractAddress,\n            memberJoinedTime: 0,\n            indexMembers: 0,\n            rewardPeriod: 0,\n            claimedTimestamp: 0\n        });\n\n        candidates.push(_operator);\n       \n        emit OperatorRegistered(_operator, _contractAddress, _memo);\n    }\n\n    function fillMemberSlot() internal {\n        for (uint256 i = members.length; i < maxMember; i++) {\n            members.push(address(0));\n        }\n    }\n\n    function _decodeAgendaData(bytes calldata input)\n        internal\n        view\n        returns (AgendaCreatingData memory data)\n    {\n        (data.target, data.noticePeriodSeconds, data.votingPeriodSeconds, data.functionBytecode) = \n            abi.decode(input, (address, uint256, uint256, bytes));\n    }\n\n    function payCreatingAgendaFee(address _creator) internal {\n        uint256 fee = agendaManager.createAgendaFees();\n\n        require(IERC20(ton).transferFrom(_creator, address(this), fee), \"DAOCommitteeStore: failed to transfer ton from creator\");\n        require(IERC20(ton).transfer(address(1), fee), \"DAOCommitteeStore: failed to burn\");\n    }\n   \n    function _createAgenda(\n        address _creator,\n        address _target,\n        uint256 _noticePeriodSeconds,\n        uint256 _votingPeriodSeconds,\n        bytes memory _functionBytecode\n    )\n        internal\n        validAgendaManager\n        returns (uint256)\n    {\n        // pay to create agenda, burn ton.\n        payCreatingAgendaFee(_creator);\n\n        uint256 agendaID = agendaManager.newAgenda(\n            _target,\n            _noticePeriodSeconds,\n            _votingPeriodSeconds,\n            0,\n            _functionBytecode\n        );\n          \n        emit AgendaCreated(\n            _creator,\n            agendaID,\n            _target,\n            _noticePeriodSeconds,\n            _votingPeriodSeconds\n        );\n\n        return agendaID;\n    }\n\n    function isCandidate(address _candidate) public view returns (bool) {\n        CandidateInfo storage info = candidateInfos[_candidate];\n\n        if (info.candidateContract == address(0)) {\n            return false;\n        }\n\n        bool supportIsCandidateContract = ERC165Checker.supportsInterface(\n            info.candidateContract,\n            ICandidate(info.candidateContract).isCandidateContract.selector\n        );\n\n        if (supportIsCandidateContract == false) {\n            return false;\n        }\n\n        return ICandidate(info.candidateContract).isCandidateContract();\n    }\n    \n    function requiredVotesToPass()\n        public\n        view\n        returns (uint256 requiredVotes)\n    {\n        IDAOAgendaManager.Ratio memory quorum = agendaManager.quorum();\n        uint256 total = members.length;\n        requiredVotes = total.mul(quorum.numerator).div(quorum.denominator);\n    }\n    \n    function totalSupplyOnCandidate(\n        address _candidate\n    )\n        public\n        view\n        returns (uint256 totalsupply)\n    {\n        address candidateContract = candidateContract(_candidate);\n        require(candidateContract != address(0), \"This account is not a candidate\");\n\n        address coinage = seigManager.coinages(candidateContract);\n        require(coinage != address(0), \"DAOCommittee: coinage is zero\");\n        return IERC20(coinage).totalSupply();\n    }\n\n    function balanceOfOnCandidate(\n        address _candidate,\n        address account\n    )\n        public\n        view\n        returns (uint256 amount)\n    {\n        address candidateContract = candidateContract(_candidate);\n        require(candidateContract != address(0), \"This account is not a candidate\");\n\n        address coinage = seigManager.coinages(candidateContract);\n        require(coinage != address(0), \"DAOCommittee: coinage is zero\");\n        return IERC20(coinage).balanceOf(account);\n    }\n    \n    function candidatesLength() public view returns (uint256) {\n        return candidates.length;\n    }\n\n    function isExistCandidate(address _candidate) public view returns (bool isExist) {\n        return candidateInfos[_candidate].candidateContract != address(0);\n    }\n\n    function getClaimableActivityReward(address _candidate) public view returns (uint256) {\n        CandidateInfo storage info = candidateInfos[_candidate];\n        uint256 period = info.rewardPeriod;\n\n        if (info.memberJoinedTime > 0) {\n            if (info.memberJoinedTime > info.claimedTimestamp) {\n                period = period.add(block.timestamp.sub(info.memberJoinedTime));\n            } else {\n                period = period.add(block.timestamp.sub(info.claimedTimestamp));\n            }\n        }\n\n        return period.mul(activityRewardPerSecond);\n    }\n}\n",
  "sourcePath": "/data/github/onther/tokamak-dao-contracts3/contracts/dao/DAOCommittee.sol",
  "compiler": {
    "name": "solc",
    "version": "0.7.6+commit.7338295f.Emscripten.clang"
  },
  "schemaVersion": "3.3.2",
  "updatedAt": "2021-01-14T02:57:51.438Z",
  "networkType": "ethereum",
  "devdoc": {
    "kind": "dev",
    "methods": {
      "owner()": {
        "details": "Returns the address of the current owner."
      },
      "renounceOwnership()": {
        "details": "Leaves the contract without owner. It will not be possible to call `onlyOwner` functions anymore. Can only be called by the current owner. NOTE: Renouncing ownership will leave the contract without an owner, thereby removing any functionality that is only available to the owner."
      },
      "transferOwnership(address)": {
        "details": "Transfers ownership of the contract to a new account (`newOwner`). Can only be called by the current owner."
      }
    },
    "version": 1
  },
  "userdoc": {
    "kind": "user",
    "methods": {},
    "version": 1
  }
}