{
  "contractName": "DAOCommitteeProxy",
  "abi": [
    {
      "inputs": [
        {
          "internalType": "address",
          "name": "_ton",
          "type": "address"
        },
        {
          "internalType": "address",
          "name": "_impl",
          "type": "address"
        },
        {
          "internalType": "address",
          "name": "_seigManager",
          "type": "address"
        },
        {
          "internalType": "address",
          "name": "_layer2Registry",
          "type": "address"
        },
        {
          "internalType": "address",
          "name": "_agendaManager",
          "type": "address"
        },
        {
          "internalType": "address",
          "name": "_candidateFactory",
          "type": "address"
        },
        {
          "internalType": "address",
          "name": "_daoVault",
          "type": "address"
        }
      ],
      "stateMutability": "nonpayable",
      "type": "constructor"
    },
    {
      "anonymous": false,
      "inputs": [
        {
          "indexed": true,
          "internalType": "address",
          "name": "from",
          "type": "address"
        },
        {
          "indexed": false,
          "internalType": "address",
          "name": "member",
          "type": "address"
        },
        {
          "indexed": false,
          "internalType": "uint256",
          "name": "totalbalance",
          "type": "uint256"
        },
        {
          "indexed": false,
          "internalType": "uint256",
          "name": "memberIndex",
          "type": "uint256"
        }
      ],
      "name": "ApplyMemberSuccess",
      "type": "event"
    },
    {
      "anonymous": false,
      "inputs": [
        {
          "indexed": true,
          "internalType": "address",
          "name": "previousOwner",
          "type": "address"
        },
        {
          "indexed": true,
          "internalType": "address",
          "name": "newOwner",
          "type": "address"
        }
      ],
      "name": "OwnershipTransferred",
      "type": "event"
    },
    {
      "anonymous": false,
      "inputs": [
        {
          "indexed": true,
          "internalType": "address",
          "name": "implementation",
          "type": "address"
        }
      ],
      "name": "Upgraded",
      "type": "event"
    },
    {
      "stateMutability": "nonpayable",
      "type": "fallback"
    },
    {
      "inputs": [],
      "name": "_implementation",
      "outputs": [
        {
          "internalType": "address",
          "name": "",
          "type": "address"
        }
      ],
      "stateMutability": "view",
      "type": "function",
      "constant": true
    },
    {
      "inputs": [],
      "name": "agendaManager",
      "outputs": [
        {
          "internalType": "contract IDAOAgendaManager",
          "name": "",
          "type": "address"
        }
      ],
      "stateMutability": "view",
      "type": "function",
      "constant": true
    },
    {
      "inputs": [
        {
          "internalType": "address",
          "name": "_candidate",
          "type": "address"
        }
      ],
      "name": "candidateContract",
      "outputs": [
        {
          "internalType": "address",
          "name": "",
          "type": "address"
        }
      ],
      "stateMutability": "view",
      "type": "function",
      "constant": true
    },
    {
      "inputs": [],
      "name": "candidateFactory",
      "outputs": [
        {
          "internalType": "contract ICandidateFactory",
          "name": "",
          "type": "address"
        }
      ],
      "stateMutability": "view",
      "type": "function",
      "constant": true
    },
    {
      "inputs": [
        {
          "internalType": "address",
          "name": "",
          "type": "address"
        }
      ],
      "name": "candidateInfos",
      "outputs": [
        {
          "internalType": "address",
          "name": "candidateContract",
          "type": "address"
        },
        {
          "internalType": "uint256",
          "name": "memberJoinedTime",
          "type": "uint256"
        },
        {
          "internalType": "uint256",
          "name": "indexMembers",
          "type": "uint256"
        }
      ],
      "stateMutability": "view",
      "type": "function",
      "constant": true
    },
    {
      "inputs": [
        {
          "internalType": "uint256",
          "name": "",
          "type": "uint256"
        }
      ],
      "name": "candidates",
      "outputs": [
        {
          "internalType": "address",
          "name": "",
          "type": "address"
        }
      ],
      "stateMutability": "view",
      "type": "function",
      "constant": true
    },
    {
      "inputs": [],
      "name": "daoVault",
      "outputs": [
        {
          "internalType": "address",
          "name": "",
          "type": "address"
        }
      ],
      "stateMutability": "view",
      "type": "function",
      "constant": true
    },
    {
      "inputs": [
        {
          "internalType": "address",
          "name": "_candidate",
          "type": "address"
        }
      ],
      "name": "isMember",
      "outputs": [
        {
          "internalType": "bool",
          "name": "",
          "type": "bool"
        }
      ],
      "stateMutability": "view",
      "type": "function",
      "constant": true
    },
    {
      "inputs": [],
      "name": "layer2Registry",
      "outputs": [
        {
          "internalType": "contract ILayer2Registry",
          "name": "",
          "type": "address"
        }
      ],
      "stateMutability": "view",
      "type": "function",
      "constant": true
    },
    {
      "inputs": [],
      "name": "maxMember",
      "outputs": [
        {
          "internalType": "uint256",
          "name": "",
          "type": "uint256"
        }
      ],
      "stateMutability": "view",
      "type": "function",
      "constant": true
    },
    {
      "inputs": [
        {
          "internalType": "uint256",
          "name": "",
          "type": "uint256"
        }
      ],
      "name": "members",
      "outputs": [
        {
          "internalType": "address",
          "name": "",
          "type": "address"
        }
      ],
      "stateMutability": "view",
      "type": "function",
      "constant": true
    },
    {
      "inputs": [],
      "name": "owner",
      "outputs": [
        {
          "internalType": "address",
          "name": "",
          "type": "address"
        }
      ],
      "stateMutability": "view",
      "type": "function",
      "constant": true
    },
    {
      "inputs": [],
      "name": "pauseProxy",
      "outputs": [
        {
          "internalType": "bool",
          "name": "",
          "type": "bool"
        }
      ],
      "stateMutability": "view",
      "type": "function",
      "constant": true
    },
    {
      "inputs": [],
      "name": "renounceOwnership",
      "outputs": [],
      "stateMutability": "nonpayable",
      "type": "function"
    },
    {
      "inputs": [],
      "name": "seigManager",
      "outputs": [
        {
          "internalType": "contract ISeigManager",
          "name": "",
          "type": "address"
        }
      ],
      "stateMutability": "view",
      "type": "function",
      "constant": true
    },
    {
      "inputs": [],
      "name": "ton",
      "outputs": [
        {
          "internalType": "address",
          "name": "",
          "type": "address"
        }
      ],
      "stateMutability": "view",
      "type": "function",
      "constant": true
    },
    {
      "inputs": [
        {
          "internalType": "address",
          "name": "newOwner",
          "type": "address"
        }
      ],
      "name": "transferOwnership",
      "outputs": [],
      "stateMutability": "nonpayable",
      "type": "function"
    },
    {
      "inputs": [
        {
          "internalType": "bool",
          "name": "_pause",
          "type": "bool"
        }
      ],
      "name": "setProxyPause",
      "outputs": [],
      "stateMutability": "nonpayable",
      "type": "function"
    },
    {
      "inputs": [
        {
          "internalType": "address",
          "name": "impl",
          "type": "address"
        }
      ],
      "name": "upgradeTo",
      "outputs": [],
      "stateMutability": "nonpayable",
      "type": "function"
    },
    {
      "inputs": [],
      "name": "implementation",
      "outputs": [
        {
          "internalType": "address",
          "name": "",
          "type": "address"
        }
      ],
      "stateMutability": "view",
      "type": "function",
      "constant": true
    }
  ],
  "bytecode": "0x608060405234801561001057600080fd5b50604051610a12380380610a12833981810160405260e081101561003357600080fd5b508051602082015160408301516060840151608085015160a086015160c0909601519495939492939192909190600061006a610139565b600a80546001600160a01b0319166001600160a01b038316908117909155604051919250906000907f8be0079c531659141344cd1fd0a4f28419497f9722a3daafe3b4186f6b6457e0908290a350600080546001600160a01b03199081166001600160a01b03998a1617909155600b8054821697891697909717909655600580548716958816959095179094556004805486169387169390931790925560028054851691861691909117905560038054841691851691909117905560018054909216921691909117905561013d565b3390565b6108c68061014c6000396000f3fe608060405234801561001057600080fd5b506004361061012c5760003560e01c8063651d08cd116100ad578063a230c52411610071578063a230c524146102b3578063b5dd1158146102d9578063cc48b947146102e1578063cf2a239c146102e9578063f2fde38b146102f15761012c565b8063651d08cd146102565780636fb7f5581461027c578063715018a6146102845780637cb00d251461028c5780638da5cb5b146102ab5761012c565b80635903bd6c116100f45780635903bd6c1461020557806359679b0f1461020d5780635c60da1b146102155780635daf08ca1461021d57806363a8fd891461023a5761012c565b806303e3c9ac1461013657806327fd92fd146101505780632e011c1e146101745780633477ee2e146101c25780633659cfe6146101df575b610134610317565b005b61013e6103a4565b60408051918252519081900360200190f35b6101586103aa565b604080516001600160a01b039092168252519081900360200190f35b61019a6004803603602081101561018a57600080fd5b50356001600160a01b03166103b9565b604080516001600160a01b039094168452602084019290925282820152519081900360600190f35b610158600480360360208110156101d857600080fd5b50356103e4565b610134600480360360208110156101f557600080fd5b50356001600160a01b031661040e565b6101586104fd565b61015861050c565b61015861051b565b6101586004803603602081101561023357600080fd5b503561052a565b61024261053a565b604080519115158252519081900360200190f35b6101586004803603602081101561026c57600080fd5b50356001600160a01b031661054a565b610158610568565b610134610577565b610134600480360360208110156102a257600080fd5b50351515610619565b61015861068f565b610242600480360360208110156102c957600080fd5b50356001600160a01b031661069e565b6101586106be565b6101586106cd565b6101586106dc565b6101346004803603602081101561030757600080fd5b50356001600160a01b03166106eb565b600061032161051b565b90506001600160a01b038116158015906103455750600b54600160a01b900460ff16155b6103805760405162461bcd60e51b81526004018080602001828103825260318152602001806108606031913960400191505060405180910390fd5b3660008037600080366000845af43d6000803e80801561039f573d6000f35b3d6000fd5b60085481565b6002546001600160a01b031681565b6009602052600090815260409020805460018201546002909201546001600160a01b03909116919083565b600681815481106103f457600080fd5b6000918252602090912001546001600160a01b0316905081565b6104166107e4565b600a546001600160a01b03908116911614610466576040805162461bcd60e51b81526020600482018190526024820152600080516020610840833981519152604482015290519081900360640190fd5b600b546001600160a01b03828116911614156104b35760405162461bcd60e51b815260040180806020018281038252603181526020018061080f6031913960400191505060405180910390fd5b600b80546001600160a01b0319166001600160a01b0383169081179091556040517fbc7cd75a20ee27fd9adebab32041f755214dbc6bffa90cc0225b39da2e5c2d3b90600090a250565b6001546001600160a01b031681565b600b546001600160a01b031681565b600b546001600160a01b031690565b600781815481106103f457600080fd5b600b54600160a01b900460ff1681565b6001600160a01b039081166000908152600960205260409020541690565b6005546001600160a01b031681565b61057f6107e4565b600a546001600160a01b039081169116146105cf576040805162461bcd60e51b81526020600482018190526024820152600080516020610840833981519152604482015290519081900360640190fd5b600a546040516000916001600160a01b0316907f8be0079c531659141344cd1fd0a4f28419497f9722a3daafe3b4186f6b6457e0908390a3600a80546001600160a01b0319169055565b6106216107e4565b600a546001600160a01b03908116911614610671576040805162461bcd60e51b81526020600482018190526024820152600080516020610840833981519152604482015290519081900360640190fd5b600b8054911515600160a01b0260ff60a01b19909216919091179055565b600a546001600160a01b031690565b6001600160a01b0316600090815260096020526040902060010154151590565b6003546001600160a01b031681565b6000546001600160a01b031681565b6004546001600160a01b031681565b6106f36107e4565b600a546001600160a01b03908116911614610743576040805162461bcd60e51b81526020600482018190526024820152600080516020610840833981519152604482015290519081900360640190fd5b6001600160a01b0381166107885760405162461bcd60e51b81526004018080602001828103825260268152602001806107e96026913960400191505060405180910390fd5b600a546040516001600160a01b038084169216907f8be0079c531659141344cd1fd0a4f28419497f9722a3daafe3b4186f6b6457e090600090a3600a80546001600160a01b0319166001600160a01b0392909216919091179055565b339056fe4f776e61626c653a206e6577206f776e657220697320746865207a65726f206164647265737344414f436f6d6d697474656550726f78793a20696d706c656d656e746174696f6e2061646472657373206973207a65726f4f776e61626c653a2063616c6c6572206973206e6f7420746865206f776e657244414f436f6d6d697474656550726f78793a20696d706c206973207a65726f204f522070726f78792069732066616c7365a26469706673582212205ce1665e7da0da160de079ed97ea38c4eb94ab892ab18cb43159ba55416953c764736f6c63430007060033",
  "immutableReferences": {},
  "source": "// SPDX-License-Identifier: MIT\npragma solidity ^0.7.6;\n\nimport \"./StorageStateCommittee.sol\";\nimport \"../../node_modules/@openzeppelin/contracts/access/Ownable.sol\";\n\ncontract DAOCommitteeProxy is StorageStateCommittee, Ownable {\n    address public _implementation;\n    bool public pauseProxy;\n\n    event Upgraded(address indexed implementation);\n     \n    constructor(\n        address _ton,\n        address _impl,\n        address _seigManager,\n        address _layer2Registry,\n        address _agendaManager,\n        address _candidateFactory,\n        //address _activityRewardManager,\n        address _daoVault\n    )\n    {\n        ton = _ton;\n        _implementation = _impl;\n        seigManager = ISeigManager(_seigManager);\n        layer2Registry = ILayer2Registry(_layer2Registry);\n        agendaManager = IDAOAgendaManager(_agendaManager);\n        candidateFactory = ICandidateFactory(_candidateFactory);\n        //activityRewardManager = IDAOActivityRewardManager(_activityRewardManager);\n        daoVault = _daoVault;\n        //maxMember = 3;\n    }\n\n    function setProxyPause(bool _pause) onlyOwner public {\n        pauseProxy = _pause;\n    }\n\n    /*function setProxyStore(address payable _storeAddress) onlyOwner public {\n        require(_storeAddress != address(0), \"DAOCommitteeProxy: store address is zero\");\n        store = DAOCommitteeStore(_storeAddress);\n    }\n\n    function setProxyAgendaManager(address _addr) onlyOwner validStore public {\n        require(_addr != address(0), \"DAOCommitteeProxy: agendamanager address is zero\");\n        agendaManager = DAOAgendaManager(_addr);\n        store.setAgendaManager(_addr);\n    }\n\n    function setProxyAactivityfeeManager(address _addr) onlyOwner validStore public {\n        require(_addr != address(0), \"DAOCommitteeProxy: ActivityFeeManager address is zero\");\n        activityfeeManager = DAOActivityFeeManager(_addr);\n        store.setActivityFeeManager(_addr);\n    }\n\n    //--\n    function setProxyElection(address _addr) onlyOwner public {\n        require(_addr != address(0), \"DAOCommitteeProxy: election address is zero\");\n        election = DAOElectionStore(_addr);\n    }\n\n    function setProxyCommitteeL2Factory(address _addr) onlyOwner public {\n        require(_addr != address(0), \"DAOCommitteeProxy: factory address is zero\");\n        committeeL2Factory = CommitteeL2FactoryI(_addr);\n        election.setCommitteeL2Factory(_addr);\n    }\n\n    function setProxyLayer2Registry(address _addr) onlyOwner public {\n        require(_addr != address(0), \"DAOCommitteeProxy: registry address is zero\");\n        layer2Registry = Layer2RegistryI(_addr);\n        election.setLayer2Registry(_addr);\n    }\n\n    function setProxySeigManager(address _addr) onlyOwner public {\n        require(_addr != address(0), \"DAOCommitteeProxy: SeigManager address is zero\");\n        seigManager = SeigManagerI(_addr);\n        election.setSeigManager(_addr);\n    }*/\n    //--\n\n    function upgradeTo(address impl) public onlyOwner {\n        require(_implementation != impl, \"DAOCommitteeProxy: implementation address is zero\");\n        _implementation = impl;\n        emit Upgraded(impl);\n    }\n\n    function implementation() public view returns (address) {\n        return _implementation;\n    }\n\n    fallback() external {\n        _fallback();\n    }\n\n    function _fallback() internal {\n        address _impl = implementation();\n        require(_impl != address(0) && pauseProxy == false, \"DAOCommitteeProxy: impl is zero OR proxy is false\");\n\n        assembly {\n            // Copy msg.data. We take full control of memory in this inline assembly\n            // block because it will not return to Solidity code. We overwrite the\n            // Solidity scratch pad at memory position 0.\n            calldatacopy(0, 0, calldatasize())\n\n            // Call the implementation.\n            // out and outsize are 0 because we don't know the size yet.\n            let result := delegatecall(gas(), _impl, 0, calldatasize(), 0, 0)\n\n            // Copy the returned data.\n            returndatacopy(0, 0, returndatasize())\n\n            switch result\n            // delegatecall returns 0 on error.\n            case 0 { revert(0, returndatasize()) }\n            default { return(0, returndatasize()) }\n        }\n    }\n}\n",
  "sourcePath": "/data/github/onther/tokamak-dao-contracts3/contracts/dao/DAOCommitteeProxy.sol",
  "compiler": {
    "name": "solc",
    "version": "0.7.6+commit.7338295f.Emscripten.clang"
  },
  "schemaVersion": "3.3.2",
  "updatedAt": "2021-01-07T01:38:35.814Z",
  "networkType": "ethereum",
  "devdoc": {
    "kind": "dev",
    "methods": {
      "owner()": {
        "details": "Returns the address of the current owner."
      },
      "renounceOwnership()": {
        "details": "Leaves the contract without owner. It will not be possible to call `onlyOwner` functions anymore. Can only be called by the current owner. NOTE: Renouncing ownership will leave the contract without an owner, thereby removing any functionality that is only available to the owner."
      },
      "transferOwnership(address)": {
        "details": "Transfers ownership of the contract to a new account (`newOwner`). Can only be called by the current owner."
      }
    },
    "version": 1
  },
  "userdoc": {
    "kind": "user",
    "methods": {},
    "version": 1
  }
}