{
  "contractName": "DAOCommittee",
  "abi": [
    {
      "anonymous": false,
      "inputs": [
        {
          "indexed": true,
          "internalType": "address",
          "name": "from",
          "type": "address"
        },
        {
          "indexed": true,
          "internalType": "uint256",
          "name": "id",
          "type": "uint256"
        },
        {
          "indexed": false,
          "internalType": "address[]",
          "name": "targets",
          "type": "address[]"
        },
        {
          "indexed": false,
          "internalType": "uint256",
          "name": "noticePeriodSeconds",
          "type": "uint256"
        },
        {
          "indexed": false,
          "internalType": "uint256",
          "name": "votingPeriodSeconds",
          "type": "uint256"
        }
      ],
      "name": "AgendaCreated",
      "type": "event"
    },
    {
      "anonymous": false,
      "inputs": [
        {
          "indexed": true,
          "internalType": "uint256",
          "name": "id",
          "type": "uint256"
        },
        {
          "indexed": false,
          "internalType": "address[]",
          "name": "target",
          "type": "address[]"
        }
      ],
      "name": "AgendaExecuted",
      "type": "event"
    },
    {
      "anonymous": false,
      "inputs": [
        {
          "indexed": true,
          "internalType": "address",
          "name": "from",
          "type": "address"
        },
        {
          "indexed": true,
          "internalType": "uint256",
          "name": "id",
          "type": "uint256"
        },
        {
          "indexed": false,
          "internalType": "uint256",
          "name": "voting",
          "type": "uint256"
        },
        {
          "indexed": false,
          "internalType": "string",
          "name": "comment",
          "type": "string"
        }
      ],
      "name": "AgendaVoteCasted",
      "type": "event"
    },
    {
      "anonymous": false,
      "inputs": [
        {
          "indexed": true,
          "internalType": "address",
          "name": "candidate",
          "type": "address"
        },
        {
          "indexed": true,
          "internalType": "address",
          "name": "candidateContract",
          "type": "address"
        },
        {
          "indexed": false,
          "internalType": "string",
          "name": "memo",
          "type": "string"
        }
      ],
      "name": "CandidateContractCreated",
      "type": "event"
    },
    {
      "anonymous": false,
      "inputs": [
        {
          "indexed": true,
          "internalType": "uint256",
          "name": "slotIndex",
          "type": "uint256"
        },
        {
          "indexed": false,
          "internalType": "address",
          "name": "prevMember",
          "type": "address"
        },
        {
          "indexed": true,
          "internalType": "address",
          "name": "newMember",
          "type": "address"
        }
      ],
      "name": "ChangedMember",
      "type": "event"
    },
    {
      "anonymous": false,
      "inputs": [
        {
          "indexed": true,
          "internalType": "uint256",
          "name": "prevSlotMax",
          "type": "uint256"
        },
        {
          "indexed": true,
          "internalType": "uint256",
          "name": "slotMax",
          "type": "uint256"
        }
      ],
      "name": "ChangedSlotMaximum",
      "type": "event"
    },
    {
      "anonymous": false,
      "inputs": [
        {
          "indexed": true,
          "internalType": "address",
          "name": "candidate",
          "type": "address"
        },
        {
          "indexed": false,
          "internalType": "address",
          "name": "receiver",
          "type": "address"
        },
        {
          "indexed": false,
          "internalType": "uint256",
          "name": "amount",
          "type": "uint256"
        }
      ],
      "name": "ClaimedActivityReward",
      "type": "event"
    },
    {
      "anonymous": false,
      "inputs": [
        {
          "indexed": true,
          "internalType": "address",
          "name": "candidate",
          "type": "address"
        },
        {
          "indexed": true,
          "internalType": "address",
          "name": "candidateContract",
          "type": "address"
        },
        {
          "indexed": false,
          "internalType": "string",
          "name": "memo",
          "type": "string"
        }
      ],
      "name": "Layer2Registered",
      "type": "event"
    },
    {
      "anonymous": false,
      "inputs": [
        {
          "indexed": false,
          "internalType": "uint256",
          "name": "newQuorum",
          "type": "uint256"
        }
      ],
      "name": "QuorumChanged",
      "type": "event"
    },
    {
      "anonymous": false,
      "inputs": [
        {
          "indexed": true,
          "internalType": "bytes32",
          "name": "role",
          "type": "bytes32"
        },
        {
          "indexed": true,
          "internalType": "bytes32",
          "name": "previousAdminRole",
          "type": "bytes32"
        },
        {
          "indexed": true,
          "internalType": "bytes32",
          "name": "newAdminRole",
          "type": "bytes32"
        }
      ],
      "name": "RoleAdminChanged",
      "type": "event"
    },
    {
      "anonymous": false,
      "inputs": [
        {
          "indexed": true,
          "internalType": "bytes32",
          "name": "role",
          "type": "bytes32"
        },
        {
          "indexed": true,
          "internalType": "address",
          "name": "account",
          "type": "address"
        },
        {
          "indexed": true,
          "internalType": "address",
          "name": "sender",
          "type": "address"
        }
      ],
      "name": "RoleGranted",
      "type": "event"
    },
    {
      "anonymous": false,
      "inputs": [
        {
          "indexed": true,
          "internalType": "bytes32",
          "name": "role",
          "type": "bytes32"
        },
        {
          "indexed": true,
          "internalType": "address",
          "name": "account",
          "type": "address"
        },
        {
          "indexed": true,
          "internalType": "address",
          "name": "sender",
          "type": "address"
        }
      ],
      "name": "RoleRevoked",
      "type": "event"
    },
    {
      "inputs": [],
      "name": "DEFAULT_ADMIN_ROLE",
      "outputs": [
        {
          "internalType": "bytes32",
          "name": "",
          "type": "bytes32"
        }
      ],
      "stateMutability": "view",
      "type": "function",
      "constant": true
    },
    {
      "inputs": [],
      "name": "activityRewardPerSecond",
      "outputs": [
        {
          "internalType": "uint256",
          "name": "",
          "type": "uint256"
        }
      ],
      "stateMutability": "view",
      "type": "function",
      "constant": true
    },
    {
      "inputs": [],
      "name": "agendaManager",
      "outputs": [
        {
          "internalType": "contract IDAOAgendaManager",
          "name": "",
          "type": "address"
        }
      ],
      "stateMutability": "view",
      "type": "function",
      "constant": true
    },
    {
      "inputs": [
        {
          "internalType": "address",
          "name": "_candidate",
          "type": "address"
        }
      ],
      "name": "candidateContract",
      "outputs": [
        {
          "internalType": "address",
          "name": "",
          "type": "address"
        }
      ],
      "stateMutability": "view",
      "type": "function",
      "constant": true
    },
    {
      "inputs": [],
      "name": "candidateFactory",
      "outputs": [
        {
          "internalType": "contract ICandidateFactory",
          "name": "",
          "type": "address"
        }
      ],
      "stateMutability": "view",
      "type": "function",
      "constant": true
    },
    {
      "inputs": [
        {
          "internalType": "address",
          "name": "",
          "type": "address"
        }
      ],
      "name": "candidateInfos",
      "outputs": [
        {
          "internalType": "address",
          "name": "candidateContract",
          "type": "address"
        },
        {
          "internalType": "uint256",
          "name": "memberJoinedTime",
          "type": "uint256"
        },
        {
          "internalType": "uint256",
          "name": "indexMembers",
          "type": "uint256"
        },
        {
          "internalType": "uint256",
          "name": "rewardPeriod",
          "type": "uint256"
        },
        {
          "internalType": "uint256",
          "name": "claimedTimestamp",
          "type": "uint256"
        }
      ],
      "stateMutability": "view",
      "type": "function",
      "constant": true
    },
    {
      "inputs": [
        {
          "internalType": "uint256",
          "name": "",
          "type": "uint256"
        }
      ],
      "name": "candidates",
      "outputs": [
        {
          "internalType": "address",
          "name": "",
          "type": "address"
        }
      ],
      "stateMutability": "view",
      "type": "function",
      "constant": true
    },
    {
      "inputs": [],
      "name": "daoVault",
      "outputs": [
        {
          "internalType": "contract IDAOVault2",
          "name": "",
          "type": "address"
        }
      ],
      "stateMutability": "view",
      "type": "function",
      "constant": true
    },
    {
      "inputs": [
        {
          "internalType": "bytes32",
          "name": "role",
          "type": "bytes32"
        }
      ],
      "name": "getRoleAdmin",
      "outputs": [
        {
          "internalType": "bytes32",
          "name": "",
          "type": "bytes32"
        }
      ],
      "stateMutability": "view",
      "type": "function",
      "constant": true
    },
    {
      "inputs": [
        {
          "internalType": "bytes32",
          "name": "role",
          "type": "bytes32"
        },
        {
          "internalType": "uint256",
          "name": "index",
          "type": "uint256"
        }
      ],
      "name": "getRoleMember",
      "outputs": [
        {
          "internalType": "address",
          "name": "",
          "type": "address"
        }
      ],
      "stateMutability": "view",
      "type": "function",
      "constant": true
    },
    {
      "inputs": [
        {
          "internalType": "bytes32",
          "name": "role",
          "type": "bytes32"
        }
      ],
      "name": "getRoleMemberCount",
      "outputs": [
        {
          "internalType": "uint256",
          "name": "",
          "type": "uint256"
        }
      ],
      "stateMutability": "view",
      "type": "function",
      "constant": true
    },
    {
      "inputs": [
        {
          "internalType": "bytes32",
          "name": "role",
          "type": "bytes32"
        },
        {
          "internalType": "address",
          "name": "account",
          "type": "address"
        }
      ],
      "name": "grantRole",
      "outputs": [],
      "stateMutability": "nonpayable",
      "type": "function"
    },
    {
      "inputs": [
        {
          "internalType": "bytes32",
          "name": "role",
          "type": "bytes32"
        },
        {
          "internalType": "address",
          "name": "account",
          "type": "address"
        }
      ],
      "name": "hasRole",
      "outputs": [
        {
          "internalType": "bool",
          "name": "",
          "type": "bool"
        }
      ],
      "stateMutability": "view",
      "type": "function",
      "constant": true
    },
    {
      "inputs": [
        {
          "internalType": "address",
          "name": "_candidate",
          "type": "address"
        }
      ],
      "name": "isMember",
      "outputs": [
        {
          "internalType": "bool",
          "name": "",
          "type": "bool"
        }
      ],
      "stateMutability": "view",
      "type": "function",
      "constant": true
    },
    {
      "inputs": [],
      "name": "layer2Registry",
      "outputs": [
        {
          "internalType": "contract ILayer2Registry",
          "name": "",
          "type": "address"
        }
      ],
      "stateMutability": "view",
      "type": "function",
      "constant": true
    },
    {
      "inputs": [],
      "name": "maxMember",
      "outputs": [
        {
          "internalType": "uint256",
          "name": "",
          "type": "uint256"
        }
      ],
      "stateMutability": "view",
      "type": "function",
      "constant": true
    },
    {
      "inputs": [
        {
          "internalType": "uint256",
          "name": "",
          "type": "uint256"
        }
      ],
      "name": "members",
      "outputs": [
        {
          "internalType": "address",
          "name": "",
          "type": "address"
        }
      ],
      "stateMutability": "view",
      "type": "function",
      "constant": true
    },
    {
      "inputs": [],
      "name": "quorum",
      "outputs": [
        {
          "internalType": "uint256",
          "name": "",
          "type": "uint256"
        }
      ],
      "stateMutability": "view",
      "type": "function",
      "constant": true
    },
    {
      "inputs": [
        {
          "internalType": "bytes32",
          "name": "role",
          "type": "bytes32"
        },
        {
          "internalType": "address",
          "name": "account",
          "type": "address"
        }
      ],
      "name": "renounceRole",
      "outputs": [],
      "stateMutability": "nonpayable",
      "type": "function"
    },
    {
      "inputs": [
        {
          "internalType": "bytes32",
          "name": "role",
          "type": "bytes32"
        },
        {
          "internalType": "address",
          "name": "account",
          "type": "address"
        }
      ],
      "name": "revokeRole",
      "outputs": [],
      "stateMutability": "nonpayable",
      "type": "function"
    },
    {
      "inputs": [],
      "name": "seigManager",
      "outputs": [
        {
          "internalType": "contract ISeigManager",
          "name": "",
          "type": "address"
        }
      ],
      "stateMutability": "view",
      "type": "function",
      "constant": true
    },
    {
      "inputs": [],
      "name": "ton",
      "outputs": [
        {
          "internalType": "address",
          "name": "",
          "type": "address"
        }
      ],
      "stateMutability": "view",
      "type": "function",
      "constant": true
    },
    {
      "inputs": [
        {
          "internalType": "address",
          "name": "_seigManager",
          "type": "address"
        }
      ],
      "name": "setSeigManager",
      "outputs": [],
      "stateMutability": "nonpayable",
      "type": "function"
    },
    {
      "inputs": [
        {
          "internalType": "address[]",
          "name": "_candidateContracts",
          "type": "address[]"
        },
        {
          "internalType": "address",
          "name": "_seigManager",
          "type": "address"
        }
      ],
      "name": "setCandidatesSeigManager",
      "outputs": [],
      "stateMutability": "nonpayable",
      "type": "function"
    },
    {
      "inputs": [
        {
          "internalType": "address[]",
          "name": "_candidateContracts",
          "type": "address[]"
        },
        {
          "internalType": "address",
          "name": "_committee",
          "type": "address"
        }
      ],
      "name": "setCandidatesCommittee",
      "outputs": [],
      "stateMutability": "nonpayable",
      "type": "function"
    },
    {
      "inputs": [
        {
          "internalType": "address",
          "name": "_daoVault",
          "type": "address"
        }
      ],
      "name": "setDaoVault",
      "outputs": [],
      "stateMutability": "nonpayable",
      "type": "function"
    },
    {
      "inputs": [
        {
          "internalType": "address",
          "name": "_layer2Registry",
          "type": "address"
        }
      ],
      "name": "setLayer2Registry",
      "outputs": [],
      "stateMutability": "nonpayable",
      "type": "function"
    },
    {
      "inputs": [
        {
          "internalType": "address",
          "name": "_agendaManager",
          "type": "address"
        }
      ],
      "name": "setAgendaManager",
      "outputs": [],
      "stateMutability": "nonpayable",
      "type": "function"
    },
    {
      "inputs": [
        {
          "internalType": "address",
          "name": "_candidateFactory",
          "type": "address"
        }
      ],
      "name": "setCandidateFactory",
      "outputs": [],
      "stateMutability": "nonpayable",
      "type": "function"
    },
    {
      "inputs": [
        {
          "internalType": "address",
          "name": "_ton",
          "type": "address"
        }
      ],
      "name": "setTon",
      "outputs": [],
      "stateMutability": "nonpayable",
      "type": "function"
    },
    {
      "inputs": [
        {
          "internalType": "uint256",
          "name": "_value",
          "type": "uint256"
        }
      ],
      "name": "setActivityRewardPerSecond",
      "outputs": [],
      "stateMutability": "nonpayable",
      "type": "function"
    },
    {
      "inputs": [
        {
          "internalType": "uint256",
          "name": "_newMaxMember",
          "type": "uint256"
        },
        {
          "internalType": "uint256",
          "name": "_quorum",
          "type": "uint256"
        }
      ],
      "name": "increaseMaxMember",
      "outputs": [],
      "stateMutability": "nonpayable",
      "type": "function"
    },
    {
      "inputs": [
        {
          "internalType": "string",
          "name": "_memo",
          "type": "string"
        }
      ],
      "name": "createCandidate",
      "outputs": [],
      "stateMutability": "nonpayable",
      "type": "function"
    },
    {
      "inputs": [
        {
          "internalType": "address",
          "name": "_layer2",
          "type": "address"
        },
        {
          "internalType": "string",
          "name": "_memo",
          "type": "string"
        }
      ],
      "name": "registerLayer2Candidate",
      "outputs": [],
      "stateMutability": "nonpayable",
      "type": "function"
    },
    {
      "inputs": [
        {
          "internalType": "address",
          "name": "_operator",
          "type": "address"
        },
        {
          "internalType": "address",
          "name": "_layer2",
          "type": "address"
        },
        {
          "internalType": "string",
          "name": "_memo",
          "type": "string"
        }
      ],
      "name": "registerLayer2CandidateByOwner",
      "outputs": [],
      "stateMutability": "nonpayable",
      "type": "function"
    },
    {
      "inputs": [
        {
          "internalType": "uint256",
          "name": "_memberIndex",
          "type": "uint256"
        }
      ],
      "name": "changeMember",
      "outputs": [
        {
          "internalType": "bool",
          "name": "",
          "type": "bool"
        }
      ],
      "stateMutability": "nonpayable",
      "type": "function"
    },
    {
      "inputs": [],
      "name": "retireMember",
      "outputs": [
        {
          "internalType": "bool",
          "name": "",
          "type": "bool"
        }
      ],
      "stateMutability": "nonpayable",
      "type": "function"
    },
    {
      "inputs": [
        {
          "internalType": "uint256",
          "name": "_reducingMemberIndex",
          "type": "uint256"
        },
        {
          "internalType": "uint256",
          "name": "_quorum",
          "type": "uint256"
        }
      ],
      "name": "decreaseMaxMember",
      "outputs": [],
      "stateMutability": "nonpayable",
      "type": "function"
    },
    {
      "inputs": [
        {
          "internalType": "address",
          "name": "owner",
          "type": "address"
        },
        {
          "internalType": "address",
          "name": "spender",
          "type": "address"
        },
        {
          "internalType": "uint256",
          "name": "tonAmount",
          "type": "uint256"
        },
        {
          "internalType": "bytes",
          "name": "data",
          "type": "bytes"
        }
      ],
      "name": "onApprove",
      "outputs": [
        {
          "internalType": "bool",
          "name": "",
          "type": "bool"
        }
      ],
      "stateMutability": "nonpayable",
      "type": "function"
    },
    {
      "inputs": [
        {
          "internalType": "uint256",
          "name": "_quorum",
          "type": "uint256"
        }
      ],
      "name": "setQuorum",
      "outputs": [],
      "stateMutability": "nonpayable",
      "type": "function"
    },
    {
      "inputs": [
        {
          "internalType": "uint256",
          "name": "_fees",
          "type": "uint256"
        }
      ],
      "name": "setCreateAgendaFees",
      "outputs": [],
      "stateMutability": "nonpayable",
      "type": "function"
    },
    {
      "inputs": [
        {
          "internalType": "uint256",
          "name": "_minimumNoticePeriod",
          "type": "uint256"
        }
      ],
      "name": "setMinimumNoticePeriodSeconds",
      "outputs": [],
      "stateMutability": "nonpayable",
      "type": "function"
    },
    {
      "inputs": [
        {
          "internalType": "uint256",
          "name": "_minimumVotingPeriod",
          "type": "uint256"
        }
      ],
      "name": "setMinimumVotingPeriodSeconds",
      "outputs": [],
      "stateMutability": "nonpayable",
      "type": "function"
    },
    {
      "inputs": [
        {
          "internalType": "uint256",
          "name": "_executingPeriodSeconds",
          "type": "uint256"
        }
      ],
      "name": "setExecutingPeriodSeconds",
      "outputs": [],
      "stateMutability": "nonpayable",
      "type": "function"
    },
    {
      "inputs": [
        {
          "internalType": "uint256",
          "name": "_agendaID",
          "type": "uint256"
        },
        {
          "internalType": "uint256",
          "name": "_vote",
          "type": "uint256"
        },
        {
          "internalType": "string",
          "name": "_comment",
          "type": "string"
        }
      ],
      "name": "castVote",
      "outputs": [],
      "stateMutability": "nonpayable",
      "type": "function"
    },
    {
      "inputs": [
        {
          "internalType": "uint256",
          "name": "_agendaID",
          "type": "uint256"
        }
      ],
      "name": "endAgendaVoting",
      "outputs": [],
      "stateMutability": "nonpayable",
      "type": "function"
    },
    {
      "inputs": [
        {
          "internalType": "uint256",
          "name": "_agendaID",
          "type": "uint256"
        }
      ],
      "name": "executeAgenda",
      "outputs": [],
      "stateMutability": "nonpayable",
      "type": "function"
    },
    {
      "inputs": [
        {
          "internalType": "uint256",
          "name": "_agendaID",
          "type": "uint256"
        },
        {
          "internalType": "uint256",
          "name": "_status",
          "type": "uint256"
        },
        {
          "internalType": "uint256",
          "name": "_result",
          "type": "uint256"
        }
      ],
      "name": "setAgendaStatus",
      "outputs": [],
      "stateMutability": "nonpayable",
      "type": "function"
    },
    {
      "inputs": [
        {
          "internalType": "address",
          "name": "_candidate",
          "type": "address"
        }
      ],
      "name": "updateSeigniorage",
      "outputs": [
        {
          "internalType": "bool",
          "name": "",
          "type": "bool"
        }
      ],
      "stateMutability": "nonpayable",
      "type": "function"
    },
    {
      "inputs": [
        {
          "internalType": "address[]",
          "name": "_candidates",
          "type": "address[]"
        }
      ],
      "name": "updateSeigniorages",
      "outputs": [
        {
          "internalType": "bool",
          "name": "",
          "type": "bool"
        }
      ],
      "stateMutability": "nonpayable",
      "type": "function"
    },
    {
      "inputs": [
        {
          "internalType": "address",
          "name": "_receiver",
          "type": "address"
        }
      ],
      "name": "claimActivityReward",
      "outputs": [],
      "stateMutability": "nonpayable",
      "type": "function"
    },
    {
      "inputs": [
        {
          "internalType": "address",
          "name": "_candidate",
          "type": "address"
        }
      ],
      "name": "isCandidate",
      "outputs": [
        {
          "internalType": "bool",
          "name": "",
          "type": "bool"
        }
      ],
      "stateMutability": "view",
      "type": "function",
      "constant": true
    },
    {
      "inputs": [
        {
          "internalType": "address",
          "name": "_candidate",
          "type": "address"
        }
      ],
      "name": "totalSupplyOnCandidate",
      "outputs": [
        {
          "internalType": "uint256",
          "name": "totalsupply",
          "type": "uint256"
        }
      ],
      "stateMutability": "view",
      "type": "function",
      "constant": true
    },
    {
      "inputs": [
        {
          "internalType": "address",
          "name": "_candidate",
          "type": "address"
        },
        {
          "internalType": "address",
          "name": "_account",
          "type": "address"
        }
      ],
      "name": "balanceOfOnCandidate",
      "outputs": [
        {
          "internalType": "uint256",
          "name": "amount",
          "type": "uint256"
        }
      ],
      "stateMutability": "view",
      "type": "function",
      "constant": true
    },
    {
      "inputs": [
        {
          "internalType": "address",
          "name": "_candidateContract",
          "type": "address"
        }
      ],
      "name": "totalSupplyOnCandidateContract",
      "outputs": [
        {
          "internalType": "uint256",
          "name": "totalsupply",
          "type": "uint256"
        }
      ],
      "stateMutability": "view",
      "type": "function",
      "constant": true
    },
    {
      "inputs": [
        {
          "internalType": "address",
          "name": "_candidateContract",
          "type": "address"
        },
        {
          "internalType": "address",
          "name": "_account",
          "type": "address"
        }
      ],
      "name": "balanceOfOnCandidateContract",
      "outputs": [
        {
          "internalType": "uint256",
          "name": "amount",
          "type": "uint256"
        }
      ],
      "stateMutability": "view",
      "type": "function",
      "constant": true
    },
    {
      "inputs": [],
      "name": "candidatesLength",
      "outputs": [
        {
          "internalType": "uint256",
          "name": "",
          "type": "uint256"
        }
      ],
      "stateMutability": "view",
      "type": "function",
      "constant": true
    },
    {
      "inputs": [
        {
          "internalType": "address",
          "name": "_candidate",
          "type": "address"
        }
      ],
      "name": "isExistCandidate",
      "outputs": [
        {
          "internalType": "bool",
          "name": "isExist",
          "type": "bool"
        }
      ],
      "stateMutability": "view",
      "type": "function",
      "constant": true
    },
    {
      "inputs": [
        {
          "internalType": "address",
          "name": "_candidate",
          "type": "address"
        }
      ],
      "name": "getClaimableActivityReward",
      "outputs": [
        {
          "internalType": "uint256",
          "name": "",
          "type": "uint256"
        }
      ],
      "stateMutability": "view",
      "type": "function",
      "constant": true
    }
  ],
  "bytecode": "0x608060405234801561001057600080fd5b50614edb806100206000396000f3fe608060405234801561001057600080fd5b50600436106103995760003560e01c806369154295116101e9578063a1ea35251161010f578063c1ba4e59116100ad578063cf2a239c1161007c578063cf2a239c1461077d578063d51b9e9314610785578063d525f04f14610798578063d547741f146107ab57610399565b8063c1ba4e5914610747578063c4ef9c001461075a578063ca15c87314610762578063cc48b9471461077557610399565b8063ad6675dc116100e9578063ad6675dc14610706578063b4f69b6a14610719578063b5dd11581461072c578063c0bc53041461073457610399565b8063a1ea3525146106d8578063a217fddf146106eb578063a230c524146106f357610399565b806378767d331161018757806389ea43001161015657806389ea43001461068c5780639010d07c1461069f57806391d14854146106b25780639932e94c146106c557610399565b806378767d331461064b5780637f3316361461065e578063805aca2014610666578063885b46961461067957610399565b80636da8f3ce116101c35780636da8f3ce146106155780636fb7f558146106285780637657f20a14610630578063773b7f651461064357610399565b806369154295146105dc57806369b1227a146105ef5780636becff271461060257610399565b806336568abe116102ce578063561a1dab1161026c5780635daf08ca1161023b5780635daf08ca146105905780635ebe7622146105a35780635fba7a56146105b6578063651d08cd146105c957610399565b8063561a1dab1461054f57806357f0a867146105625780635903bd6c146105755780635c43030f1461057d57610399565b806349c39f14116102a857806349c39f14146105035780634b799db1146105165780634d288fec1461052957806350e8f17d1461053c57610399565b806336568abe146104ca5780634273ca16146104dd578063440b69ad146104f057610399565b8063248a9ca31161033b5780632af60ff4116103155780632af60ff41461046d5780632e011c1e146104805780632f2ff15d146104a45780633477ee2e146104b757610399565b8063248a9ca31461043257806324f99b1e1461044557806327fd92fd1461045857610399565b806316f7f9821161037757806316f7f982146103f15780631703a01814610404578063216f486b1461040c57806323d09fdf1461041f57610399565b806303e3c9ac1461039e578063047f52f2146103bc57806311f19e04146103d1575b600080fd5b6103a66107be565b6040516103b39190614555565b60405180910390f35b6103cf6103ca366004613da3565b6107c4565b005b6103e46103df36600461416c565b61083c565b6040516103b3919061454a565b6103a66103ff366004613ddb565b610c02565b6103a6610caf565b6103cf61041a36600461416c565b610cb5565b6103cf61042d36600461416c565b610f7d565b6103a661044036600461416c565b611050565b6103cf610453366004614214565b611065565b6104606114d6565b6040516103b39190614371565b6103cf61047b366004613da3565b6114e5565b61049361048e366004613da3565b611554565b6040516103b3959493929190614466565b6103cf6104b2366004614184565b61158d565b6104606104c536600461416c565b6115f4565b6103cf6104d8366004614184565b61161e565b6103e46104eb366004613e72565b61167f565b6103cf6104fe366004613e13565b6116b9565b6103cf610511366004613da3565b6117c5565b6103cf610524366004613da3565b611834565b6103cf610537366004613da3565b6118a3565b6103cf61054a3660046141a8565b611912565b6103e461055d366004613da3565b611ae1565b6103e4610570366004613f2f565b611b01565b610460611b41565b6103cf61058b366004613f6e565b611b50565b61046061059e36600461416c565b611c38565b6103cf6105b136600461416c565b611c48565b6103cf6105c43660046141c9565b611c74565b6104606105d7366004613da3565b611ff5565b6103cf6105ea366004613f6e565b612013565b6103cf6105fd36600461416c565b6120f5565b6103cf610610366004613da3565b612193565b6103cf6106233660046141a8565b612308565b610460612395565b6103cf61063e366004613da3565b6123a4565b6103a6612413565b6103a6610659366004613da3565b612419565b6103a66124b2565b6103cf610674366004614264565b6124b8565b6103cf61068736600461416c565b6125c0565b6103e461069a366004613da3565b6125f0565b6104606106ad3660046141a8565b612682565b6103e46106c0366004614184565b61269a565b6103a66106d3366004613da3565b6126b2565b6103cf6106e6366004613ee2565b612744565b6103a6612824565b6103e4610701366004613da3565b612829565b6103a6610714366004613da3565b612849565b6103cf61072736600461416c565b612860565b6104606128fe565b6103cf61074236600461416c565b61290d565b6103cf61075536600461416c565b6129ab565b6103e4612a9b565b6103a661077036600461416c565b612c7c565b610460612c93565b610460612ca2565b6103e4610793366004613da3565b612cb1565b6103a66107a6366004613ddb565b612d8c565b6103cf6107b9366004614184565b612da4565b60085481565b6107cf60003361269a565b6107f45760405162461bcd60e51b81526004016107eb9061498b565b60405180910390fd5b6001600160a01b03811661081a5760405162461bcd60e51b81526004016107eb906148fe565b600380546001600160a01b0319166001600160a01b0392909216919091179055565b600080336001600160a01b0316636c8381f86040518163ffffffff1660e01b815260040160206040518083038186803b15801561087857600080fd5b505afa15801561088c573d6000803e3d6000fd5b505050506040513d601f19601f820116820180604052508101906108b09190613dbf565b6001600160a01b0381166000908152600960209081526040918290208251631dffc87160e21b815292519394509233926377ff21c4926004808301939192829003018186803b15801561090257600080fd5b505afa158015610916573d6000803e3d6000fd5b505050506040513d601f19601f8201168201806040525081019061093a919061414c565b6109565760405162461bcd60e51b81526004016107eb90614ae8565b60085484106109775760405162461bcd60e51b81526004016107eb90614aa4565b80546001600160a01b031661099e5760405162461bcd60e51b81526004016107eb90614a58565b6001810154156109c05760405162461bcd60e51b81526004016107eb906147df565b6000600785815481106109cf57fe5b60009182526020822001546001600160a01b031691506109ee82611ff5565b4260018501556002840187905560078054919250859188908110610a0e57fe5b600091825260209091200180546001600160a01b0319166001600160a01b039283161790558216610a7657836001600160a01b031686600080516020614dae83398151915284604051610a619190614371565b60405180910390a36001945050505050610bfd565b806001600160a01b031663817b1cd26040518163ffffffff1660e01b815260040160206040518083038186803b158015610aaf57600080fd5b505afa158015610ac3573d6000803e3d6000fd5b505050506040513d601f19601f82011682018060405250810190610ae791906141fc565b336001600160a01b031663817b1cd26040518163ffffffff1660e01b815260040160206040518083038186803b158015610b2057600080fd5b505afa158015610b34573d6000803e3d6000fd5b505050506040513d601f19601f82011682018060405250810190610b5891906141fc565b11610b755760405162461bcd60e51b81526004016107eb90614601565b6001600160a01b038216600090815260096020526040812060028101919091556001810154610bb490610ba9904290612dfd565b600383015490612e3f565b6003820155600060018201556040516001600160a01b038616908890600080516020614dae83398151915290610beb908790614371565b60405180910390a36001955050505050505b919050565b60006001600160a01b038316610c2a5760405162461bcd60e51b81526004016107eb906146c8565b60405163af500ba360e01b81526001600160a01b0384169063af500ba390610c56908590600401614371565b60206040518083038186803b158015610c6e57600080fd5b505afa158015610c82573d6000803e3d6000fd5b505050506040513d601f19601f82011682018060405250810190610ca691906141fc565b90505b92915050565b600a5481565b6002546001600160a01b0316610cfc5760405162461bcd60e51b815260040180806020018281038252602c815260200180614def602c913960400191505060405180910390fd5b6002546040516377f28d5b60e01b81526001600160a01b03909116906377f28d5b90610d2c908490600401614555565b60206040518083038186803b158015610d4457600080fd5b505afa158015610d58573d6000803e3d6000fd5b505050506040513d601f19601f82011682018060405250810190610d7c919061414c565b610d985760405162461bcd60e51b81526004016107eb90614866565b6002546040516373ba374560e01b815260009182916001600160a01b03909116906373ba374590610dcd908690600401614555565b60006040518083038186803b158015610de557600080fd5b505afa158015610df9573d6000803e3d6000fd5b505050506040513d6000823e601f3d908101601f19168201604052610e219190810190613fc2565b600254604051631b8c251960e11b81529294509092506001600160a01b0316906337184a3290610e55908690600401614555565b600060405180830381600087803b158015610e6f57600080fd5b505af1158015610e83573d6000803e3d6000fd5b5050505060005b8251811015610f3f576000838281518110610ea157fe5b60200260200101516001600160a01b0316838381518110610ebe57fe5b6020026020010151604051610ed39190614355565b6000604051808303816000865af19150503d8060008114610f10576040519150601f19603f3d011682016040523d82523d6000602084013e610f15565b606091505b5050905080610f365760405162461bcd60e51b81526004016107eb90614b38565b50600101610e8a565b50827f785146be3266678a3f4ea454b310ff1f8c91d0ad9a7997bcd0619940d4d67fe683604051610f709190614494565b60405180910390a2505050565b610f8860003361269a565b610fa45760405162461bcd60e51b81526004016107eb9061498b565b6002546001600160a01b0316610feb5760405162461bcd60e51b815260040180806020018281038252602c815260200180614def602c913960400191505060405180910390fd5b6002546040516323d09fdf60e01b81526001600160a01b03909116906323d09fdf9061101b908490600401614555565b600060405180830381600087803b15801561103557600080fd5b505af1158015611049573d6000803e3d6000fd5b5050505050565b6000908152600c602052604090206002015490565b6002546001600160a01b03166110ac5760405162461bcd60e51b815260040180806020018281038252602c815260200180614def602c913960400191505060405180910390fd5b6000336001600160a01b0316636c8381f86040518163ffffffff1660e01b815260040160206040518083038186803b1580156110e757600080fd5b505afa1580156110fb573d6000803e3d6000fd5b505050506040513d601f19601f8201168201806040525081019061111f9190613dbf565b600254604051637e77eb2360e01b81529192506001600160a01b031690637e77eb239061115490889085908990600401614bd2565b602060405180830381600087803b15801561116e57600080fd5b505af1158015611182573d6000803e3d6000fd5b505050506040513d601f19601f820116820180604052508101906111a6919061414c565b50600254604051635772521560e11b8152600091829182916001600160a01b03169063aee4a42a906111dc908b90600401614555565b60606040518083038186803b1580156111f457600080fd5b505afa158015611208573d6000803e3d6000fd5b505050506040513d601f19601f8201168201806040525081019061122c919061428f565b92509250925082600a541161130a57600254604051632b0a851b60e11b81526001600160a01b03909116906356150a369061126e908b90600190600401614bf1565b600060405180830381600087803b15801561128857600080fd5b505af115801561129c573d6000803e3d6000fd5b5050600254604051633625b75960e21b81526001600160a01b03909116925063d896dd6491506112d3908b90600390600401614c0f565b600060405180830381600087803b1580156112ed57600080fd5b505af1158015611301573d6000803e3d6000fd5b50505050611486565b81600a54116113a95760028054604051632b0a851b60e11b81526001600160a01b03909116916356150a3691611344918c91600401614bf1565b600060405180830381600087803b15801561135e57600080fd5b505af1158015611372573d6000803e3d6000fd5b5050600254604051633625b75960e21b81526001600160a01b03909116925063d896dd6491506112d3908b90600590600401614c0f565b6113b38183612e3f565b600a541161148657600254604051632b0a851b60e11b81526001600160a01b03909116906356150a36906113ee908b90600390600401614bf1565b600060405180830381600087803b15801561140857600080fd5b505af115801561141c573d6000803e3d6000fd5b5050600254604051633625b75960e21b81526001600160a01b03909116925063d896dd649150611453908b90600590600401614c0f565b600060405180830381600087803b15801561146d57600080fd5b505af1158015611481573d6000803e3d6000fd5b505050505b87336001600160a01b03167ffa0761008653bc7bf9fa040fb7e07672ad3e17a976eb452c44e81dd782a6214b8989896040516114c493929190614c20565b60405180910390a35050505050505050565b6002546001600160a01b031681565b6114f060003361269a565b61150c5760405162461bcd60e51b81526004016107eb9061498b565b6001600160a01b0381166115325760405162461bcd60e51b81526004016107eb906148fe565b600480546001600160a01b0319166001600160a01b0392909216919091179055565b600960205260009081526040902080546001820154600283015460038401546004909401546001600160a01b0390931693919290919085565b6000828152600c60205260409020600201546115ab906106c0612e99565b6115e65760405162461bcd60e51b815260040180806020018281038252602f815260200180614cff602f913960400191505060405180910390fd5b6115f08282612e9d565b5050565b6006818154811061160457600080fd5b6000918252602090912001546001600160a01b0316905081565b611626612e99565b6001600160a01b0316816001600160a01b0316146116755760405162461bcd60e51b815260040180806020018281038252602f815260200180614e77602f913960400191505060405180910390fd5b6115f08282612f06565b60008061168c8484612f6f565b90506116ab878260000151836020015184604001518560600151612f9a565b506001979650505050505050565b6116c460003361269a565b6116e05760405162461bcd60e51b81526004016107eb9061498b565b6005546001600160a01b03166117275760405162461bcd60e51b815260040180806020018281038252602b815260200180614e4c602b913960400191505060405180910390fd5b6004546001600160a01b031661176e5760405162461bcd60e51b815260040180806020018281038252602d815260200180614d51602d913960400191505060405180910390fd5b6003546001600160a01b03166117b55760405162461bcd60e51b8152600401808060200182810382526031815260200180614e1b6031913960400191505060405180910390fd5b6117c08383836130c8565b505050565b6117d060003361269a565b6117ec5760405162461bcd60e51b81526004016107eb9061498b565b6001600160a01b0381166118125760405162461bcd60e51b81526004016107eb906148fe565b600280546001600160a01b0319166001600160a01b0392909216919091179055565b61183f60003361269a565b61185b5760405162461bcd60e51b81526004016107eb9061498b565b6001600160a01b0381166118815760405162461bcd60e51b81526004016107eb906148fe565b600180546001600160a01b0319166001600160a01b0392909216919091179055565b6118ae60003361269a565b6118ca5760405162461bcd60e51b81526004016107eb9061498b565b6001600160a01b0381166118f05760405162461bcd60e51b81526004016107eb906148fe565b600080546001600160a01b0319166001600160a01b0392909216919091179055565b61191d60003361269a565b6119395760405162461bcd60e51b81526004016107eb9061498b565b60006007838154811061194857fe5b60009182526020808320909101546001600160a01b03168083526009909152604090912060075491925090600019018414611a05576007805460009190600019810190811061199357fe5b60009182526020808320909101546001600160a01b03168083526009909152604090912060028101879055600780549293509091839190889081106119d457fe5b9060005260206000200160006101000a8154816001600160a01b0302191690836001600160a01b0316021790555050505b600060028201556001810154611a2090610ba9904290612dfd565b6003820155600060018201556007805480611a3757fe5b600082815260209020810160001990810180546001600160a01b0319169055019055600854611a67906001612dfd565b600855611a73836129ab565b60006001600160a01b031684600080516020614dae83398151915284604051611a9c9190614371565b60405180910390a3600854611ab2816001612e3f565b6040517f8c0366d1e3a335a312d012257ee764723c38ec2dd5e74cbfad372513521f977190600090a350505050565b6001600160a01b0390811660009081526009602052604090205416151590565b6000805b82811015611b3a57611b31848483818110611b1c57fe5b905060200201602081019061069a9190613da3565b50600101611b05565b5092915050565b6001546001600160a01b031681565b611b5b60003361269a565b611b775760405162461bcd60e51b81526004016107eb9061498b565b6001600160a01b038116611b9d5760405162461bcd60e51b81526004016107eb906148fe565b60005b82811015611c3257838382818110611bb457fe5b9050602002016020810190611bc99190613da3565b6001600160a01b031663bddae40e836040518263ffffffff1660e01b8152600401611bf49190614371565b600060405180830381600087803b158015611c0e57600080fd5b505af1158015611c22573d6000803e3d6000fd5b505060019092019150611ba09050565b50505050565b6007818154811061160457600080fd5b611c5360003361269a565b611c6f5760405162461bcd60e51b81526004016107eb9061498b565b600b55565b6005546001600160a01b0316611cbb5760405162461bcd60e51b815260040180806020018281038252602b815260200180614e4c602b913960400191505060405180910390fd5b6004546001600160a01b0316611d025760405162461bcd60e51b815260040180806020018281038252602d815260200180614d51602d913960400191505060405180910390fd5b6003546001600160a01b0316611d495760405162461bcd60e51b8152600401808060200182810382526031815260200180614e1b6031913960400191505060405180910390fd5b611d5233611ae1565b15611d6f5760405162461bcd60e51b81526004016107eb90614a0f565b60035460055460405163732518fb60e11b81526000926001600160a01b039081169263e64a31f692611db092339287928a928a923092911690600401614385565b602060405180830381600087803b158015611dca57600080fd5b505af1158015611dde573d6000803e3d6000fd5b505050506040513d601f19601f82011682018060405250810190611e029190613dbf565b90506001600160a01b038116611e2a5760405162461bcd60e51b81526004016107eb90614816565b60048054600554604051635e58d38f60e11b81526001600160a01b039283169363bcb1a71e93611e5f938793911691016143e4565b602060405180830381600087803b158015611e7957600080fd5b505af1158015611e8d573d6000803e3d6000fd5b505050506040513d601f19601f82011682018060405250810190611eb1919061414c565b611ecd5760405162461bcd60e51b81526004016107eb906148ae565b336000908152600960205260409020546001600160a01b031615611f035760405162461bcd60e51b81526004016107eb90614749565b6040805160a0810182526001600160a01b038084168083526000602080850182815285870183815260608701848152608088018581523380875260099095528986209851895498166001600160a01b031998891617895592516001808a01919091559151600289015551600388015590516004909601959095556006805495860181559091527ff652222313e28459528d920b65115c16c04f3efc82aaedc97be59f3f377c0d3f9093018054909216831790915591517f7cf8db18d9a5c7f44156bfabdbb59ac982a8a004e461ca1b87ee71a5cdfbc5ef90611fe8908790879061455e565b60405180910390a3505050565b6001600160a01b039081166000908152600960205260409020541690565b61201e60003361269a565b61203a5760405162461bcd60e51b81526004016107eb9061498b565b6001600160a01b0381166120605760405162461bcd60e51b81526004016107eb906148fe565b60005b82811015611c325783838281811061207757fe5b905060200201602081019061208c9190613da3565b6001600160a01b0316637657f20a836040518263ffffffff1660e01b81526004016120b79190614371565b600060405180830381600087803b1580156120d157600080fd5b505af11580156120e5573d6000803e3d6000fd5b5050600190920191506120639050565b61210060003361269a565b61211c5760405162461bcd60e51b81526004016107eb9061498b565b6002546001600160a01b03166121635760405162461bcd60e51b815260040180806020018281038252602c815260200180614def602c913960400191505060405180910390fd5b6002546040516334d8913d60e11b81526001600160a01b03909116906369b1227a9061101b908490600401614555565b6000336001600160a01b0316636c8381f86040518163ffffffff1660e01b815260040160206040518083038186803b1580156121ce57600080fd5b505afa1580156121e2573d6000803e3d6000fd5b505050506040513d601f19601f820116820180604052508101906122069190613dbf565b6001600160a01b038116600090815260096020526040812091925061222a836126b2565b90506000811161224c5760405162461bcd60e51b81526004016107eb906146ff565b600154604051633bc3556560e21b81526001600160a01b039091169063ef0d55949061227e90879085906004016143cb565b600060405180830381600087803b15801561229857600080fd5b505af11580156122ac573d6000803e3d6000fd5b50504260048501555050600060038301556040516001600160a01b038416907fb15377c434dc1922cc2eb7d8950640960a05f0cf6d5dc9442de8414a9da2b308906122fa90879085906143cb565b60405180910390a250505050565b61231360003361269a565b61232f5760405162461bcd60e51b81526004016107eb9061498b565b81600854106123505760405162461bcd60e51b81526004016107eb90614924565b6008546040518391907f8c0366d1e3a335a312d012257ee764723c38ec2dd5e74cbfad372513521f977190600090a3600882905561238c613501565b6115f0816129ab565b6005546001600160a01b031681565b6123af60003361269a565b6123cb5760405162461bcd60e51b81526004016107eb9061498b565b6001600160a01b0381166123f15760405162461bcd60e51b81526004016107eb906148fe565b600580546001600160a01b0319166001600160a01b0392909216919091179055565b60065490565b60006001600160a01b0382166124415760405162461bcd60e51b81526004016107eb906146c8565b816001600160a01b031663817b1cd26040518163ffffffff1660e01b815260040160206040518083038186803b15801561247a57600080fd5b505afa15801561248e573d6000803e3d6000fd5b505050506040513d601f19601f82011682018060405250810190610ca991906141fc565b600b5481565b6124c360003361269a565b6124df5760405162461bcd60e51b81526004016107eb9061498b565b6002546001600160a01b03166356150a36848360038111156124fd57fe5b6040518363ffffffff1660e01b815260040161251a929190614bf1565b600060405180830381600087803b15801561253457600080fd5b505af1158015612548573d6000803e3d6000fd5b50506002546001600160a01b0316915063d896dd6490508484600581111561256c57fe5b6040518363ffffffff1660e01b8152600401612589929190614c0f565b600060405180830381600087803b1580156125a357600080fd5b505af11580156125b7573d6000803e3d6000fd5b50505050505050565b60025460405163442da34b60e11b81526001600160a01b039091169063885b46969061101b908490600401614555565b6001600160a01b038082166000908152600960209081526040808320548151633b253c2b60e11b8152915193941692839263764a7856926004808201939182900301818887803b15801561264357600080fd5b505af1158015612657573d6000803e3d6000fd5b505050506040513d601f19601f8201168201806040525081019061267b919061414c565b9392505050565b6000828152600c60205260408120610ca69083613559565b6000828152600c60205260408120610ca69083613565565b6001600160a01b0381166000908152600960205260408120600381015460018201541561272e578160040154826001015411156127115761270a612703836001015442612dfd90919063ffffffff16565b8290612e3f565b905061272e565b61272b612703836004015442612dfd90919063ffffffff16565b90505b600b5461273c90829061357a565b949350505050565b6005546001600160a01b031661278b5760405162461bcd60e51b815260040180806020018281038252602b815260200180614e4c602b913960400191505060405180910390fd5b6004546001600160a01b03166127d25760405162461bcd60e51b815260040180806020018281038252602d815260200180614d51602d913960400191505060405180910390fd5b6003546001600160a01b03166128195760405162461bcd60e51b8152600401808060200182810382526031815260200180614e1b6031913960400191505060405180910390fd5b6115f03383836130c8565b600081565b6001600160a01b0316600090815260096020526040902060010154151590565b60008061285583611ff5565b905061267b81612419565b61286b60003361269a565b6128875760405162461bcd60e51b81526004016107eb9061498b565b6002546001600160a01b03166128ce5760405162461bcd60e51b815260040180806020018281038252602c815260200180614def602c913960400191505060405180910390fd5b600254604051635a7b4db560e11b81526001600160a01b039091169063b4f69b6a9061101b908490600401614555565b6003546001600160a01b031681565b61291860003361269a565b6129345760405162461bcd60e51b81526004016107eb9061498b565b6002546001600160a01b031661297b5760405162461bcd60e51b815260040180806020018281038252602c815260200180614def602c913960400191505060405180910390fd5b60025460405163302f14c160e21b81526001600160a01b039091169063c0bc53049061101b908490600401614555565b6129b660003361269a565b6129d25760405162461bcd60e51b81526004016107eb9061498b565b6002546001600160a01b0316612a195760405162461bcd60e51b815260040180806020018281038252602c815260200180614def602c913960400191505060405180910390fd5b60008111612a395760405162461bcd60e51b81526004016107eb90614585565b600854811115612a5b5760405162461bcd60e51b81526004016107eb9061462c565b600a8190556040517f027863d12a407097e086a48e36475bfc859d0b200b7e6f65b5fd3b218e46632e90612a90908390614555565b60405180910390a150565b600080336001600160a01b0316636c8381f86040518163ffffffff1660e01b815260040160206040518083038186803b158015612ad757600080fd5b505afa158015612aeb573d6000803e3d6000fd5b505050506040513d6020811015612b0157600080fd5b50519050612b0e81612829565b612b495760405162461bcd60e51b8152600401808060200182810382526023815260200180614d2e6023913960400191505060405180910390fd5b6000336001600160a01b0316636c8381f86040518163ffffffff1660e01b815260040160206040518083038186803b158015612b8457600080fd5b505afa158015612b98573d6000803e3d6000fd5b505050506040513d601f19601f82011682018060405250810190612bbc9190613dbf565b6001600160a01b038116600090815260096020526040812060028101546007805494955091938110612bea57fe5b9060005260206000200160006101000a8154816001600160a01b0302191690836001600160a01b03160217905550612c32610ba9826001015442612dfd90919063ffffffff16565b60038201556000600182018190556002820154604051600080516020614dae83398151915290612c63908690614371565b60405180910390a3600060029091015550600191505090565b6000818152600c60205260408120610ca9906135d3565b6000546001600160a01b031681565b6004546001600160a01b031681565b6001600160a01b03808216600090815260096020526040812080549192909116612cdf576000915050610bfd565b8054600090612cfe906001600160a01b0316631dffc87160e21b6135de565b905080612d1057600092505050610bfd565b815460408051631dffc87160e21b815290516001600160a01b03909216916377ff21c491600480820192602092909190829003018186803b158015612d5457600080fd5b505afa158015612d68573d6000803e3d6000fd5b505050506040513d601f19601f8201168201806040525081019061273c919061414c565b600080612d9884611ff5565b905061273c8184610c02565b6000828152600c6020526040902060020154612dc2906106c0612e99565b6116755760405162461bcd60e51b8152600401808060200182810382526030815260200180614d7e6030913960400191505060405180910390fd5b6000610ca683836040518060400160405280601e81526020017f536166654d6174683a207375627472616374696f6e206f766572666c6f7700008152506135fa565b600082820183811015610ca6576040805162461bcd60e51b815260206004820152601b60248201527f536166654d6174683a206164646974696f6e206f766572666c6f770000000000604482015290519081900360640190fd5b3390565b6000828152600c60205260409020612eb59082613691565b156115f057612ec2612e99565b6001600160a01b0316816001600160a01b0316837f2f8788117e7eff1d82e926ec794901d17c78024a50270940304540a733656f0d60405160405180910390a45050565b6000828152600c60205260409020612f1e90826136a6565b156115f057612f2b612e99565b6001600160a01b0316816001600160a01b0316837ff6391f5c32d9c69d2a47ea670b442974b53935d1edc7fd64eb21e047a839171b60405160405180910390a45050565b612f77613b98565b612f838284018461407a565b606085015260408401526020830152815292915050565b6002546000906001600160a01b0316612fe45760405162461bcd60e51b815260040180806020018281038252602c815260200180614def602c913960400191505060405180910390fd5b612fed866136bb565b60025460405163d30bbcbf60e01b81526000916001600160a01b03169063d30bbcbf906130249089908990899089906004016144cc565b602060405180830381600087803b15801561303e57600080fd5b505af1158015613052573d6000803e3d6000fd5b505050506040513d601f19601f8201168201806040525081019061307691906141fc565b905080876001600160a01b03167fb0c20bab69de391cff8f119cf876e708b1b41868e0fd397cbcd2b4d3c623b5b88888886040516130b6939291906144a7565b60405180910390a39695505050505050565b6005546001600160a01b031661310f5760405162461bcd60e51b815260040180806020018281038252602b815260200180614e4c602b913960400191505060405180910390fd5b6004546001600160a01b03166131565760405162461bcd60e51b815260040180806020018281038252602d815260200180614d51602d913960400191505060405180910390fd5b6003546001600160a01b031661319d5760405162461bcd60e51b8152600401808060200182810382526031815260200180614e1b6031913960400191505060405180910390fd5b6131a682611ae1565b156131c35760405162461bcd60e51b81526004016107eb90614a0f565b6001600160a01b0382166131e95760405162461bcd60e51b81526004016107eb90614816565b6001600160a01b0382811660009081526009602052604090205416156132215760405162461bcd60e51b81526004016107eb90614b82565b6000829050806001600160a01b031663882eed2c6040518163ffffffff1660e01b815260040160206040518083038186803b15801561325f57600080fd5b505afa158015613273573d6000803e3d6000fd5b505050506040513d601f19601f82011682018060405250810190613297919061414c565b6132b35760405162461bcd60e51b81526004016107eb906145bc565b836001600160a01b0316816001600160a01b031663570ca7356040518163ffffffff1660e01b815260040160206040518083038186803b1580156132f657600080fd5b505afa15801561330a573d6000803e3d6000fd5b505050506040513d601f19601f8201168201806040525081019061332e9190613dbf565b6001600160a01b0316146133545760405162461bcd60e51b81526004016107eb906149d8565b60035460055460405163732518fb60e11b81526000926001600160a01b039081169263e64a31f6926133939289926001928a9230921690600401614422565b602060405180830381600087803b1580156133ad57600080fd5b505af11580156133c1573d6000803e3d6000fd5b505050506040513d601f19601f820116820180604052508101906133e59190613dbf565b90506001600160a01b03811661340d5760405162461bcd60e51b81526004016107eb90614816565b6040805160a0810182526001600160a01b038084168083526000602080850182815285870183815260608701848152608088018581528d881680875260099095528986209851895498166001600160a01b031998891617895592516001808a01919091559151600289015551600388015590516004909601959095556006805495860181559091527ff652222313e28459528d920b65115c16c04f3efc82aaedc97be59f3f377c0d3f9093018054909216831790915591517f0f401d1bd976f5304ef9cfa87aeb24d777c0e205fb87bbae1dc0f0293ba7976a906134f2908790614572565b60405180910390a35050505050565b6007545b6008548110156135565760078054600181810183556000929092527fa66cc928b5edb82af9bd49922954155ab7b0942694bea4ce44661d9a8736c6880180546001600160a01b031916905501613505565b50565b6000610ca6838361387c565b6000610ca6836001600160a01b0384166138e0565b60008261358957506000610ca9565b8282028284828161359657fe5b0414610ca65760405162461bcd60e51b8152600401808060200182810382526021815260200180614dce6021913960400191505060405180910390fd5b6000610ca9826138f8565b60006135e9836138fc565b8015610ca65750610ca6838361392f565b600081848411156136895760405162461bcd60e51b81526004018080602001828103825283818151815260200191508051906020019080838360005b8381101561364e578181015183820152602001613636565b50505050905090810190601f16801561367b5780820380516001836020036101000a031916815260200191505b509250505060405180910390fd5b505050900390565b6000610ca6836001600160a01b038416613955565b6000610ca6836001600160a01b03841661399f565b60025460408051632522a32f60e01b815290516000926001600160a01b031691632522a32f916004808301926020929190829003018186803b15801561370057600080fd5b505afa158015613714573d6000803e3d6000fd5b505050506040513d601f19601f8201168201806040525081019061373891906141fc565b6000546040516323b872dd60e01b81529192506001600160a01b0316906323b872dd9061376d908590309086906004016143fe565b602060405180830381600087803b15801561378757600080fd5b505af115801561379b573d6000803e3d6000fd5b505050506040513d601f19601f820116820180604052508101906137bf919061414c565b6137db5760405162461bcd60e51b81526004016107eb90614672565b60005460405163a9059cbb60e01b81526001600160a01b039091169063a9059cbb9061380e9060019085906004016143cb565b602060405180830381600087803b15801561382857600080fd5b505af115801561383c573d6000803e3d6000fd5b505050506040513d601f19601f82011682018060405250810190613860919061414c565b6115f05760405162461bcd60e51b81526004016107eb9061479e565b815460009082106138be5760405162461bcd60e51b8152600401808060200182810382526022815260200180614cdd6022913960400191505060405180910390fd5b8260000182815481106138cd57fe5b9060005260206000200154905092915050565b60009081526001919091016020526040902054151590565b5490565b600061390f826301ffc9a760e01b61392f565b8015610ca95750613928826001600160e01b031961392f565b1592915050565b600080600061393e8585613a65565b9150915081801561394c5750805b95945050505050565b600061396183836138e0565b61399757508154600181810184556000848152602080822090930184905584548482528286019093526040902091909155610ca9565b506000610ca9565b60008181526001830160205260408120548015613a5b57835460001980830191908101906000908790839081106139d257fe5b90600052602060002001549050808760000184815481106139ef57fe5b600091825260208083209091019290925582815260018981019092526040902090840190558654879080613a1f57fe5b60019003818190600052602060002001600090559055866001016000878152602001908152602001600020600090556001945050505050610ca9565b6000915050610ca9565b604080516001600160e01b0319831660248083019190915282518083039091018152604490910182526020810180516001600160e01b03166301ffc9a760e01b17815291518151600093849392849283926001600160a01b038a169261753092879282918083835b60208310613aec5780518252601f199092019160209182019101613acd565b6001836020036101000a0380198251168184511680821785525050505050509050019150506000604051808303818686fa925050503d8060008114613b4d576040519150601f19603f3d011682016040523d82523d6000602084013e613b52565b606091505b5091509150602081511015613b705760008094509450505050613b91565b81818060200190516020811015613b8657600080fd5b505190955093505050505b9250929050565b6040518060800160405280606081526020016000815260200160008152602001606081525090565b6000613bd3613bce84614c7a565b614c3a565b9050828152838383011115613be757600080fd5b828260208301376000602084830101529392505050565b60008083601f840112613c0f578182fd5b5081356001600160401b03811115613c25578182fd5b6020830191508360208083028501011115613b9157600080fd5b600082601f830112613c4f578081fd5b81356020613c5f613bce83614c5d565b82815281810190858301855b85811015613ca9578135880189603f820112613c85578788fd5b613c968a8783013560408401613bc0565b8552509284019290840190600101613c6b565b5090979650505050505050565b600082601f830112613cc6578081fd5b81516020613cd6613bce83614c5d565b82815281810190858301855b85811015613ca9578151880189603f820112613cfc578788fd5b858101516040613d0e613bce83614c7a565b8281528c82848601011115613d21578a8bfd5b613d30838a8301848701614c9b565b87525050509284019290840190600101613ce2565b60008083601f840112613d56578182fd5b5081356001600160401b03811115613d6c578182fd5b602083019150836020828501011115613b9157600080fd5b600082601f830112613d94578081fd5b610ca683833560208501613bc0565b600060208284031215613db4578081fd5b8135610ca681614cc7565b600060208284031215613dd0578081fd5b8151610ca681614cc7565b60008060408385031215613ded578081fd5b8235613df881614cc7565b91506020830135613e0881614cc7565b809150509250929050565b600080600060608486031215613e27578081fd5b8335613e3281614cc7565b92506020840135613e4281614cc7565b915060408401356001600160401b03811115613e5c578182fd5b613e6886828701613d84565b9150509250925092565b600080600080600060808688031215613e89578283fd5b8535613e9481614cc7565b94506020860135613ea481614cc7565b93506040860135925060608601356001600160401b03811115613ec5578182fd5b613ed188828901613d45565b969995985093965092949392505050565b60008060408385031215613ef4578182fd5b8235613eff81614cc7565b915060208301356001600160401b03811115613f19578182fd5b613f2585828601613d84565b9150509250929050565b60008060208385031215613f41578182fd5b82356001600160401b03811115613f56578283fd5b613f6285828601613bfe565b90969095509350505050565b600080600060408486031215613f82578081fd5b83356001600160401b03811115613f97578182fd5b613fa386828701613bfe565b9094509250506020840135613fb781614cc7565b809150509250925092565b60008060408385031215613fd4578182fd5b82516001600160401b0380821115613fea578384fd5b818501915085601f830112613ffd578384fd5b8151602061400d613bce83614c5d565b82815281810190858301838502870184018b1015614029578889fd5b8896505b8487101561405457805161404081614cc7565b83526001969096019591830191830161402d565b509188015191965090935050508082111561406d578283fd5b50613f2585828601613cb6565b6000806000806080858703121561408f578182fd5b84356001600160401b03808211156140a5578384fd5b818701915087601f8301126140b8578384fd5b813560206140c8613bce83614c5d565b82815281810190858301838502870184018d10156140e4578889fd5b8896505b8487101561410f5780356140fb81614cc7565b8352600196909601959183019183016140e8565b50985050880135955050604087013593506060870135915080821115614133578283fd5b5061414087828801613c3f565b91505092959194509250565b60006020828403121561415d578081fd5b81518015158114610ca6578182fd5b60006020828403121561417d578081fd5b5035919050565b60008060408385031215614196578182fd5b823591506020830135613e0881614cc7565b600080604083850312156141ba578182fd5b50508035926020909101359150565b600080602083850312156141db578182fd5b82356001600160401b038111156141f0578283fd5b613f6285828601613d45565b60006020828403121561420d578081fd5b5051919050565b60008060008060608587031215614229578182fd5b843593506020850135925060408501356001600160401b0381111561424c578283fd5b61425887828801613d45565b95989497509550505050565b600080600060608486031215614278578081fd5b505081359360208301359350604090920135919050565b6000806000606084860312156142a3578081fd5b8351925060208401519150604084015190509250925092565b6000815180845260208085019450808401835b838110156142f45781516001600160a01b0316875295820195908201906001016142cf565b509495945050505050565b60008151808452614317816020860160208601614c9b565b601f01601f19169290920160200192915050565b60008284528282602086013780602084860101526020601f19601f85011685010190509392505050565b60008251614367818460208701614c9b565b9190910192915050565b6001600160a01b0391909116815260200190565b600060018060a01b038089168352871515602084015260a060408401526143b060a08401878961432b565b94811660608401529290921660809091015250949350505050565b6001600160a01b03929092168252602082015260400190565b6001600160a01b0392831681529116602082015260400190565b6001600160a01b039384168152919092166020820152604081019190915260600190565b600060018060a01b038088168352861515602084015260a0604084015261444c60a08401876142ff565b948116606084015292909216608090910152509392505050565b6001600160a01b03959095168552602085019390935260408401919091526060830152608082015260a00190565b600060208252610ca660208301846142bc565b6000606082526144ba60608301866142bc565b60208301949094525060400152919050565b6000608082526144df60808301876142bc565b602086818501528560408501528382036060850152818551808452828401915082838202850101838801865b8381101561453957601f198784030185526145278383516142ff565b9486019492509085019060010161450b565b50909b9a5050505050505050505050565b901515815260200190565b90815260200190565b60006020825261273c60208301848661432b565b600060208252610ca660208301846142ff565b6020808252601c908201527f44414f436f6d6d69747465653a20696e76616c69642071756f72756d00000000604082015260600190565b60208082526025908201527f44414f436f6d6d69747465653a20696e76616c6964206c617965723220636f6e6040820152641d1c9858dd60da1b606082015260800190565b6020808252601190820152701b9bdd08195b9bdd59da08185b5bdd5b9d607a1b604082015260600190565b60208082526026908201527f44414f436f6d6d69747465653a2071756f72756d20657863656564206d61782060408201526536b2b6b132b960d11b606082015260800190565b60208082526036908201527f44414f436f6d6d697474656553746f72653a206661696c656420746f207472616040820152753739b332b9103a37b710333937b69031b932b0ba37b960511b606082015260800190565b6020808252601f908201527f54686973206163636f756e74206973206e6f7420612063616e64696461746500604082015260600190565b6020808252602a908201527f44414f436f6d6d69747465653a20796f7520646f6e2774206861766520636c6160408201526934b6b0b13632903a37b760b11b606082015260800190565b60208082526035908201527f44414f436f6d6d697474656553746f72653a205468652063616e64696461746560408201527408185b1c9958591e481a185cc818dbdb9d1c9858dd605a1b606082015260800190565b60208082526021908201527f44414f436f6d6d697474656553746f72653a206661696c656420746f206275726040820152603760f91b606082015260800190565b6020808252601c908201527f44414f436f6d6d69747465653a20616c7265616479206d656d62657200000000604082015260600190565b60208082526030908201527f44414f436f6d6d69747465653a206465706c6f7965642063616e64696461746560408201526f436f6e7472616374206973207a65726f60801b606082015260800190565b60208082526028908201527f44414f436f6d6d69747465653a2063616e206e6f74206578656375746520746860408201526765206167656e646160c01b606082015260800190565b60208082526030908201527f44414f436f6d6d69747465653a206661696c656420746f20726567697374657260408201526f416e644465706c6f79436f696e61676560801b606082015260800190565b6020808252600c908201526b7a65726f206164647265737360a01b604082015260600190565b60208082526041908201527f44414f436f6d6d697474656553746f72653a20596f75206861766520746f206360408201527f616c6c2064656372656173654d61784d656d62657220746f20646563726561736060820152606560f81b608082015260a00190565b6020808252602d908201527f44414f436f6d6d697474656550726f78793a206d73672e73656e64657220697360408201526c103737ba1030b71030b236b4b760991b606082015260800190565b6020808252601e908201527f44414f436f6d6d69747465653a20696e76616c6964206f70657261746f720000604082015260600190565b60208082526029908201527f44414f436f6d6d69747465653a2063616e64696461746520616c7265616479206040820152681c9959da5cdd195c9960ba1b606082015260800190565b6020808252602c908201527f44414f436f6d6d69747465653a205468652061646472657373206973206e6f7460408201526b20612063616e64696461746560a01b606082015260800190565b60208082526024908201527f44414f436f6d6d69747465653a20696e646578206973206e6f7420617661696c60408201526361626c6560e01b606082015260800190565b60208082526030908201527f44414f436f6d6d69747465653a2073656e646572206973206e6f74206120636160408201526f1b991a59185d194818dbdb9d1c9858dd60821b606082015260800190565b6020808252602a908201527f44414f436f6d6d69747465653a204661696c656420746f206578656375746520604082015269746865206167656e646160b01b606082015260800190565b60208082526030908201527f44414f436f6d6d69747465653a205468652063616e64696461746520616c726560408201526f18591e481a185cc818dbdb9d1c9858dd60821b606082015260800190565b9283526001600160a01b03919091166020830152604082015260600190565b8281526040810160048310614c0257fe5b8260208301529392505050565b8281526040810160068310614c0257fe5b60008482526040602083015261394c60408301848661432b565b6040518181016001600160401b0381118282101715614c5557fe5b604052919050565b60006001600160401b03821115614c7057fe5b5060209081020190565b60006001600160401b03821115614c8d57fe5b50601f01601f191660200190565b60005b83811015614cb6578181015183820152602001614c9e565b83811115611c325750506000910152565b6001600160a01b038116811461355657600080fdfe456e756d657261626c655365743a20696e646578206f7574206f6620626f756e6473416363657373436f6e74726f6c3a2073656e646572206d75737420626520616e2061646d696e20746f206772616e7453746f726167655374617465436f6d6d69747465653a206e6f742061206d656d62657253746f726167655374617465436f6d6d69747465653a20756e76616c6964204c61796572325265676973747279416363657373436f6e74726f6c3a2073656e646572206d75737420626520616e2061646d696e20746f207265766f6b65663b98adf1afa777e36528b3293a057803f87ed00d2d2518dccfe5d7a6e99ccf536166654d6174683a206d756c7469706c69636174696f6e206f766572666c6f7753746f726167655374617465436f6d6d69747465653a204167656e64614d616e61676572206973207a65726f53746f726167655374617465436f6d6d69747465653a20756e76616c696420436f6d6d69747465654c32466163746f727953746f726167655374617465436f6d6d69747465653a20756e76616c696420536569674d616e6167657265416363657373436f6e74726f6c3a2063616e206f6e6c792072656e6f756e636520726f6c657320666f722073656c66a2646970667358221220c5c99373620d3ec4bc9f7def6c4002a88a587742ca5a3a975c17f9717d72f8f864736f6c63430007060033",
  "immutableReferences": {},
  "source": "// SPDX-License-Identifier: MIT\npragma solidity ^0.7.6;\npragma abicoder v2;\n\nimport \"../../node_modules/@openzeppelin/contracts/access/AccessControl.sol\";\nimport \"./StorageStateCommittee.sol\";\n\nimport { SafeMath } from \"../../node_modules/@openzeppelin/contracts/math/SafeMath.sol\";\nimport { IERC20 } from  \"../../node_modules/@openzeppelin/contracts/token/ERC20/IERC20.sol\";\nimport { ICandidate } from \"../interfaces/ICandidate.sol\";\nimport { ILayer2 } from \"../interfaces/ILayer2.sol\";\nimport { IDAOAgendaManager } from \"../interfaces/IDAOAgendaManager.sol\";\nimport { LibAgenda } from \"../lib/Agenda.sol\";\nimport { ERC165Checker } from \"../../node_modules/@openzeppelin/contracts/introspection/ERC165Checker.sol\";\n\ncontract DAOCommittee is StorageStateCommittee, AccessControl {\n    using SafeMath for uint256;\n    using LibAgenda for *;\n     \n    enum ApplyResult { NONE, SUCCESS, NOT_ELECTION, ALREADY_COMMITTEE, SLOT_INVALID, ADDMEMBER_FAIL, LOW_BALANCE }\n\n    struct AgendaCreatingData {\n        address[] target;\n        uint256 noticePeriodSeconds;\n        uint256 votingPeriodSeconds;\n        bytes[] functionBytecode;\n    }\n\n    //////////////////////////////\n    // Events\n    //////////////////////////////\n\n    event QuorumChanged(\n        uint256 newQuorum\n    );\n\n    event AgendaCreated(\n        address indexed from,\n        uint256 indexed id,\n        address[] targets,\n        uint256 noticePeriodSeconds,\n        uint256 votingPeriodSeconds\n    );\n\n    event AgendaVoteCasted(\n        address indexed from,\n        uint256 indexed id,\n        uint voting,\n        string comment\n    );\n\n    event AgendaExecuted(\n        uint256 indexed id,\n        address[] target\n    );\n\n    event CandidateContractCreated(\n        address indexed candidate,\n        address indexed candidateContract,\n        string memo\n    );\n\n    event Layer2Registered(\n        address indexed candidate,\n        address indexed candidateContract,\n        string memo\n    );\n\n    event ChangedMember(\n        uint256 indexed slotIndex,\n        address prevMember,\n        address indexed newMember\n    );\n\n    event ChangedSlotMaximum(\n        uint256 indexed prevSlotMax,\n        uint256 indexed slotMax\n    );\n\n    event ClaimedActivityReward(\n        address indexed candidate,\n        address receiver,\n        uint256 amount\n    );\n\n    modifier onlyOwner() {\n        require(hasRole(DEFAULT_ADMIN_ROLE, msg.sender), \"DAOCommitteeProxy: msg.sender is not an admin\");\n        _;\n    }\n\n    //////////////////////////////////////////////////////////////////////\n    // setters\n\n    /// @notice Set SeigManager contract address\n    /// @param _seigManager New SeigManager contract address\n    function setSeigManager(address _seigManager) public onlyOwner {\n        require(_seigManager != address(0), \"zero address\");\n        seigManager = ISeigManager(_seigManager);\n    }\n     \n    /// @notice Set SeigManager contract address on candidate contracts\n    /// @param _candidateContracts Candidate contracts to be set\n    /// @param _seigManager New SeigManager contract address\n    function setCandidatesSeigManager(\n        address[] calldata _candidateContracts,\n        address _seigManager\n    )\n        public\n        onlyOwner\n    {\n        require(_seigManager != address(0), \"zero address\");\n        for (uint256 i = 0; i < _candidateContracts.length; i++) {\n            ICandidate(_candidateContracts[i]).setSeigManager(_seigManager);\n        }\n    }\n\n    /// @notice Set DAOCommitteeProxy contract address on candidate contracts\n    /// @param _candidateContracts Candidate contracts to be set\n    /// @param _committee New DAOCommitteeProxy contract address\n    function setCandidatesCommittee(\n        address[] calldata _candidateContracts,\n        address _committee\n    )\n        public\n        onlyOwner\n    {\n        require(_committee != address(0), \"zero address\");\n        for (uint256 i = 0; i < _candidateContracts.length; i++) {\n            ICandidate(_candidateContracts[i]).setCommittee(_committee);\n        }\n    }\n\n    /// @notice Set DAOVault2 contract address\n    /// @param _daoVault New DAOVault2 contract address\n    function setDaoVault(address _daoVault) public onlyOwner {\n        require(_daoVault != address(0), \"zero address\");\n        daoVault = IDAOVault2(_daoVault);\n    }\n\n    /// @notice Set Layer2Registry contract address\n    /// @param _layer2Registry New Layer2Registry contract address\n    function setLayer2Registry(address _layer2Registry) public onlyOwner {\n        require(_layer2Registry != address(0), \"zero address\");\n        layer2Registry = ILayer2Registry(_layer2Registry);\n    }\n\n    /// @notice Set DAOAgendaManager contract address\n    /// @param _agendaManager New DAOAgendaManager contract address\n    function setAgendaManager(address _agendaManager) public onlyOwner {\n        require(_agendaManager != address(0), \"zero address\");\n        agendaManager = IDAOAgendaManager(_agendaManager);\n    }\n\n    /// @notice Set CandidateFactory contract address\n    /// @param _candidateFactory New CandidateFactory contract address\n    function setCandidateFactory(address _candidateFactory) public onlyOwner {\n        require(_candidateFactory != address(0), \"zero address\");\n        candidateFactory = ICandidateFactory(_candidateFactory);\n    }\n\n    /// @notice Set TON contract address\n    /// @param _ton New TON contract address\n    function setTon(address _ton) public onlyOwner {\n        require(_ton != address(0), \"zero address\");\n        ton = _ton;\n    }\n\n    /// @notice Set activity reward amount\n    /// @param _value New activity reward per second\n    function setActivityRewardPerSecond(uint256 _value) public onlyOwner {\n        activityRewardPerSecond = _value;\n    }\n\n    /// @notice Increases the number of member slot\n    /// @param _newMaxMember New number of member slot\n    /// @param _quorum New quorum\n    function increaseMaxMember(\n        uint256 _newMaxMember,\n        uint256 _quorum\n    )\n        public\n        onlyOwner\n    {\n        require(maxMember < _newMaxMember, \"DAOCommitteeStore: You have to call decreaseMaxMember to decrease\");\n        emit ChangedSlotMaximum(maxMember, _newMaxMember);\n        maxMember = _newMaxMember;\n        fillMemberSlot();\n        setQuorum(_quorum);\n    }\n\n    //////////////////////////////////////////////////////////////////////\n    // Managing members\n\n    /// @notice Creates a candidate contract and register it on SeigManager\n    /// @param _memo A memo for the candidate\n    function createCandidate(string calldata _memo)\n        public\n        validSeigManager\n        validLayer2Registry\n        validCommitteeL2Factory\n    {\n        require(!isExistCandidate(msg.sender), \"DAOCommittee: candidate already registerd\");\n\n        // Candidate\n        address candidateContract = candidateFactory.deploy(\n            msg.sender,\n            false,\n            _memo,\n            address(this),\n            address(seigManager)\n        );\n\n        require(\n            candidateContract != address(0),\n            \"DAOCommittee: deployed candidateContract is zero\"\n        );\n        require(\n            layer2Registry.registerAndDeployCoinage(candidateContract, address(seigManager)),\n            \"DAOCommittee: failed to registerAndDeployCoinage\"\n        );\n        require(\n            candidateInfos[msg.sender].candidateContract == address(0),\n            \"DAOCommitteeStore: The candidate already has contract\"\n        );\n\n        candidateInfos[msg.sender] = CandidateInfo({\n            candidateContract: candidateContract,\n            memberJoinedTime: 0,\n            indexMembers: 0,\n            rewardPeriod: 0,\n            claimedTimestamp: 0\n        });\n\n        candidates.push(msg.sender);\n       \n        emit CandidateContractCreated(msg.sender, candidateContract, _memo);\n    }\n\n    /// @notice Registers the exist layer2 on DAO\n    /// @param _layer2 Layer2 contract address to be registered\n    /// @param _memo A memo for the candidate\n    function registerLayer2Candidate(address _layer2, string memory _memo)\n        public\n        validSeigManager\n        validLayer2Registry\n        validCommitteeL2Factory\n    {\n        _registerLayer2Candidate(msg.sender, _layer2, _memo);\n    }\n\n    /// @notice Registers the exist layer2 on DAO by owner\n    /// @param _operator Operator address of the layer2 contract\n    /// @param _layer2 Layer2 contract address to be registered\n    /// @param _memo A memo for the candidate\n    function registerLayer2CandidateByOwner(address _operator, address _layer2, string memory _memo)\n        public\n        onlyOwner\n        validSeigManager\n        validLayer2Registry\n        validCommitteeL2Factory\n    {\n        _registerLayer2Candidate(_operator, _layer2, _memo);\n    }\n\n    /// @notice Replaces an existing member\n    /// @param _memberIndex The member slot index to be replaced\n    /// @return Whether or not the execution succeeded\n    function changeMember(\n        uint256 _memberIndex\n    )\n        public\n        returns (bool)\n    {\n        address newMember = ICandidate(msg.sender).candidate();\n        CandidateInfo storage candidateInfo = candidateInfos[newMember];\n        require(\n            ICandidate(msg.sender).isCandidateContract(),\n            \"DAOCommittee: sender is not a candidate contract\"\n        );\n        require(\n            _memberIndex < maxMember,\n            \"DAOCommittee: index is not available\"\n        );\n        require(\n            candidateInfo.candidateContract != address(0),\n            \"DAOCommittee: The address is not a candidate\"\n        );\n        require(\n            candidateInfo.memberJoinedTime == 0,\n            \"DAOCommittee: already member\"\n        );\n        \n        address prevMember = members[_memberIndex];\n        address prevMemberContract = candidateContract(prevMember);\n\n        candidateInfo.memberJoinedTime = block.timestamp;\n        candidateInfo.indexMembers = _memberIndex;\n\n        members[_memberIndex] = newMember;\n\n        if (prevMember == address(0)) {\n            emit ChangedMember(_memberIndex, prevMember, newMember);\n            return true;\n        }\n\n        require(\n            ICandidate(msg.sender).totalStaked() > ICandidate(prevMemberContract).totalStaked(),\n            \"not enough amount\"\n        );\n\n        CandidateInfo storage prevCandidateInfo = candidateInfos[prevMember];\n        prevCandidateInfo.indexMembers = 0;\n        prevCandidateInfo.rewardPeriod = prevCandidateInfo.rewardPeriod.add(block.timestamp.sub(prevCandidateInfo.memberJoinedTime));\n        prevCandidateInfo.memberJoinedTime = 0;\n\n        emit ChangedMember(_memberIndex, prevMember, newMember);\n\n        return true;\n    }\n    \n    /// @notice Retires member\n    /// @return Whether or not the execution succeeded\n    function retireMember() onlyMemberContract public returns (bool) {\n        address candidate = ICandidate(msg.sender).candidate();\n        CandidateInfo storage candidateInfo = candidateInfos[candidate];\n        members[candidateInfo.indexMembers] = address(0);\n        candidateInfo.rewardPeriod = candidateInfo.rewardPeriod.add(block.timestamp.sub(candidateInfo.memberJoinedTime));\n        candidateInfo.memberJoinedTime = 0;\n\n        emit ChangedMember(candidateInfo.indexMembers, candidate, address(0));\n\n        candidateInfo.indexMembers = 0;\n        return true;\n    }\n\n    /// @notice Decreases the number of member slot\n    /// @param _reducingMemberIndex Reducing member slot index\n    /// @param _quorum New quorum\n    function decreaseMaxMember(\n        uint256 _reducingMemberIndex,\n        uint256 _quorum\n    )\n        public\n        onlyOwner\n    {\n        address reducingMember = members[_reducingMemberIndex];\n        CandidateInfo storage reducingCandidate = candidateInfos[reducingMember];\n\n        if (_reducingMemberIndex != members.length - 1) {\n            address tailmember = members[members.length - 1];\n            CandidateInfo storage tailCandidate = candidateInfos[tailmember];\n\n            tailCandidate.indexMembers = _reducingMemberIndex;\n            members[_reducingMemberIndex] = tailmember;\n        }\n        reducingCandidate.indexMembers = 0;\n        reducingCandidate.rewardPeriod = reducingCandidate.rewardPeriod.add(block.timestamp.sub(reducingCandidate.memberJoinedTime));\n        reducingCandidate.memberJoinedTime = 0;\n\n        members.pop();\n        maxMember = maxMember.sub(1);\n        setQuorum(_quorum);\n\n        emit ChangedMember(_reducingMemberIndex, reducingMember, address(0));\n        emit ChangedSlotMaximum(maxMember.add(1), maxMember);\n    }\n\n    //////////////////////////////////////////////////////////////////////\n    // Managing agenda\n\n    function onApprove(\n        address owner,\n        address spender,\n        uint256 tonAmount,\n        bytes calldata data\n    ) external returns (bool) {\n        AgendaCreatingData memory agendaData = _decodeAgendaData(data);\n\n        _createAgenda(\n            owner,\n            agendaData.target,\n            agendaData.noticePeriodSeconds,\n            agendaData.votingPeriodSeconds,\n            agendaData.functionBytecode\n        );\n\n        return true;\n    }\n\n    /// @notice Set new quorum\n    /// @param _quorum New quorum\n    function setQuorum(\n        uint256 _quorum\n    )\n        public\n        onlyOwner\n        validAgendaManager\n    {\n        require(_quorum > 0, \"DAOCommittee: invalid quorum\");\n        require(_quorum <= maxMember, \"DAOCommittee: quorum exceed max member\");\n        quorum = _quorum;\n        emit QuorumChanged(quorum);\n    }\n\n    /// @notice Set fee amount of creating an agenda\n    /// @param _fees Fee amount on TON\n    function setCreateAgendaFees(\n        uint256 _fees\n    )\n        public\n        onlyOwner\n        validAgendaManager\n    {\n        agendaManager.setCreateAgendaFees(_fees);\n    }\n\n    /// @notice Set the minimum notice period\n    /// @param _minimumNoticePeriod New minimum notice period in second\n    function setMinimumNoticePeriodSeconds(\n        uint256 _minimumNoticePeriod\n    )\n        public\n        onlyOwner\n        validAgendaManager\n    {\n        agendaManager.setMinimumNoticePeriodSeconds(_minimumNoticePeriod);\n    }\n\n    /// @notice Set the minimum voting period\n    /// @param _minimumVotingPeriod New minimum voting period in second\n    function setMinimumVotingPeriodSeconds(\n        uint256 _minimumVotingPeriod\n    )\n        public\n        onlyOwner\n        validAgendaManager\n    {\n        agendaManager.setMinimumVotingPeriodSeconds(_minimumVotingPeriod);\n    }\n\n    /// @notice Set the executing period\n    /// @param _executingPeriodSeconds New executing period in second\n    function setExecutingPeriodSeconds(\n        uint256 _executingPeriodSeconds\n    )\n        public\n        onlyOwner\n        validAgendaManager\n    {\n        agendaManager.setExecutingPeriodSeconds(_executingPeriodSeconds);\n    }\n\n    /// @notice Vote on an agenda\n    /// @param _agendaID The agenda ID\n    /// @param _vote voting type\n    /// @param _comment voting comment\n    function castVote(\n        uint256 _agendaID,\n        uint _vote,\n        string calldata _comment\n    )\n        public \n        validAgendaManager\n    {\n        address candidate = ICandidate(msg.sender).candidate();\n        \n        agendaManager.castVote(\n            _agendaID,\n            candidate,\n            _vote\n        );\n\n        (uint256 yes, uint256 no, uint256 abstain) = agendaManager.getVotingCount(_agendaID);\n\n        if (quorum <= yes) {\n            // yes\n            agendaManager.setResult(_agendaID, LibAgenda.AgendaResult.ACCEPT);\n            agendaManager.setStatus(_agendaID, LibAgenda.AgendaStatus.WAITING_EXEC);\n        } else if (quorum <= no) {\n            // no\n            agendaManager.setResult(_agendaID, LibAgenda.AgendaResult.REJECT);\n            agendaManager.setStatus(_agendaID, LibAgenda.AgendaStatus.ENDED);\n        } else if (quorum <= abstain.add(no) ) {\n            // dismiss\n            agendaManager.setResult(_agendaID, LibAgenda.AgendaResult.DISMISS);\n            agendaManager.setStatus(_agendaID, LibAgenda.AgendaStatus.ENDED);\n        }\n        \n        emit AgendaVoteCasted(msg.sender, _agendaID, _vote, _comment);\n    }\n\n    /// @notice Set the agenda status as ended(denied or dismissed)\n    /// @param _agendaID Agenda ID\n    function endAgendaVoting(uint256 _agendaID) public {\n        agendaManager.endAgendaVoting(_agendaID);\n    }\n\n    /// @notice Execute the accepted agenda\n    /// @param _agendaID Agenda ID\n    function executeAgenda(uint256 _agendaID) public validAgendaManager {\n        require(\n            agendaManager.canExecuteAgenda(_agendaID),\n            \"DAOCommittee: can not execute the agenda\"\n        );\n        \n        (address[] memory target, bytes[] memory functionBytecode) = agendaManager.getExecutionInfo(_agendaID);\n       \n        agendaManager.setExecutedAgenda(_agendaID);\n\n        for (uint256 i = 0; i < target.length; i++) {\n            (bool success, ) = address(target[i]).call(functionBytecode[i]);\n            require(success, \"DAOCommittee: Failed to execute the agenda\");\n        }\n\n        emit AgendaExecuted(_agendaID, target);\n    }\n\n    /// @notice Set status and result of specific agenda\n    /// @param _agendaID Agenda ID\n    /// @param _status New status\n    /// @param _result New result\n    function setAgendaStatus(uint256 _agendaID, uint256 _status, uint256 _result) public onlyOwner {\n        agendaManager.setResult(_agendaID, LibAgenda.AgendaResult(_result));\n        agendaManager.setStatus(_agendaID, LibAgenda.AgendaStatus(_status));\n    }\n     \n    /// @notice Call updateSeigniorage on SeigManager\n    /// @param _candidate Candidate address to be updated\n    /// @return Whether or not the execution succeeded\n    function updateSeigniorage(address _candidate) public returns (bool) {\n        address candidateContract = candidateInfos[_candidate].candidateContract;\n        return ICandidate(candidateContract).updateSeigniorage();\n    }\n\n    /// @notice Call updateSeigniorage on SeigManager\n    /// @param _candidates Candidate addresses to be updated\n    /// @return Whether or not the execution succeeded\n    function updateSeigniorages(address[] calldata _candidates) public returns (bool) {\n        for (uint256 i = 0; i < _candidates.length; i++) {\n            updateSeigniorage(_candidates[i]);\n        }\n    }\n\n    /// @notice Claims the activity reward for member\n    function claimActivityReward(address _receiver) public {\n        address candidate = ICandidate(msg.sender).candidate();\n        CandidateInfo storage candidateInfo = candidateInfos[candidate];\n\n        uint256 amount = getClaimableActivityReward(candidate);\n        require(amount > 0, \"DAOCommittee: you don't have claimable ton\");\n\n        daoVault.claimTON(_receiver, amount);\n        candidateInfo.claimedTimestamp = block.timestamp;\n        candidateInfo.rewardPeriod = 0;\n\n        emit ClaimedActivityReward(candidate, _receiver, amount);\n    }\n\n    function _registerLayer2Candidate(address _operator, address _layer2, string memory _memo)\n        internal\n        validSeigManager\n        validLayer2Registry\n        validCommitteeL2Factory\n    {\n        require(!isExistCandidate(_layer2), \"DAOCommittee: candidate already registerd\");\n\n        require(\n            _layer2 != address(0),\n            \"DAOCommittee: deployed candidateContract is zero\"\n        );\n        require(\n            candidateInfos[_layer2].candidateContract == address(0),\n            \"DAOCommittee: The candidate already has contract\"\n        );\n        ILayer2 layer2 = ILayer2(_layer2);\n        require(\n            layer2.isLayer2(),\n            \"DAOCommittee: invalid layer2 contract\"\n        );\n        require(\n            layer2.operator() == _operator,\n            \"DAOCommittee: invalid operator\"\n        );\n\n        address candidateContract = candidateFactory.deploy(\n            _layer2,\n            true,\n            _memo,\n            address(this),\n            address(seigManager)\n        );\n\n        require(\n            candidateContract != address(0),\n            \"DAOCommittee: deployed candidateContract is zero\"\n        );\n\n        candidateInfos[_layer2] = CandidateInfo({\n            candidateContract: candidateContract,\n            memberJoinedTime: 0,\n            indexMembers: 0,\n            rewardPeriod: 0,\n            claimedTimestamp: 0\n        });\n\n        candidates.push(_layer2);\n       \n        emit Layer2Registered(_layer2, candidateContract, _memo);\n    }\n\n    function fillMemberSlot() internal {\n        for (uint256 i = members.length; i < maxMember; i++) {\n            members.push(address(0));\n        }\n    }\n\n    function _decodeAgendaData(bytes calldata input)\n        internal\n        view\n        returns (AgendaCreatingData memory data)\n    {\n        (data.target, data.noticePeriodSeconds, data.votingPeriodSeconds, data.functionBytecode) = \n            abi.decode(input, (address[], uint256, uint256, bytes[]));\n    }\n\n    function payCreatingAgendaFee(address _creator) internal {\n        uint256 fee = agendaManager.createAgendaFees();\n\n        require(IERC20(ton).transferFrom(_creator, address(this), fee), \"DAOCommitteeStore: failed to transfer ton from creator\");\n        require(IERC20(ton).transfer(address(1), fee), \"DAOCommitteeStore: failed to burn\");\n    }\n   \n    function _createAgenda(\n        address _creator,\n        address[] memory _targets,\n        uint256 _noticePeriodSeconds,\n        uint256 _votingPeriodSeconds,\n        bytes[] memory _functionBytecodes\n    )\n        internal\n        validAgendaManager\n        returns (uint256)\n    {\n        // pay to create agenda, burn ton.\n        payCreatingAgendaFee(_creator);\n\n        uint256 agendaID = agendaManager.newAgenda(\n            _targets,\n            _noticePeriodSeconds,\n            _votingPeriodSeconds,\n            _functionBytecodes\n        );\n          \n        emit AgendaCreated(\n            _creator,\n            agendaID,\n            _targets,\n            _noticePeriodSeconds,\n            _votingPeriodSeconds\n        );\n\n        return agendaID;\n    }\n\n    function isCandidate(address _candidate) public view returns (bool) {\n        CandidateInfo storage info = candidateInfos[_candidate];\n\n        if (info.candidateContract == address(0)) {\n            return false;\n        }\n\n        bool supportIsCandidateContract = ERC165Checker.supportsInterface(\n            info.candidateContract,\n            ICandidate(info.candidateContract).isCandidateContract.selector\n        );\n\n        if (supportIsCandidateContract == false) {\n            return false;\n        }\n\n        return ICandidate(info.candidateContract).isCandidateContract();\n    }\n    \n    function totalSupplyOnCandidate(\n        address _candidate\n    )\n        public\n        view\n        returns (uint256 totalsupply)\n    {\n        address candidateContract = candidateContract(_candidate);\n        return totalSupplyOnCandidateContract(candidateContract);\n    }\n\n    function balanceOfOnCandidate(\n        address _candidate,\n        address _account\n    )\n        public\n        view\n        returns (uint256 amount)\n    {\n        address candidateContract = candidateContract(_candidate);\n        return balanceOfOnCandidateContract(candidateContract, _account);\n    }\n    \n    function totalSupplyOnCandidateContract(\n        address _candidateContract\n    )\n        public\n        view\n        returns (uint256 totalsupply)\n    {\n        require(_candidateContract != address(0), \"This account is not a candidate\");\n\n        return ICandidate(_candidateContract).totalStaked();\n    }\n\n    function balanceOfOnCandidateContract(\n        address _candidateContract,\n        address _account\n    )\n        public\n        view\n        returns (uint256 amount)\n    {\n        require(_candidateContract != address(0), \"This account is not a candidate\");\n\n        return ICandidate(_candidateContract).stakedOf(_account);\n    }\n\n    function candidatesLength() public view returns (uint256) {\n        return candidates.length;\n    }\n\n    function isExistCandidate(address _candidate) public view returns (bool isExist) {\n        return candidateInfos[_candidate].candidateContract != address(0);\n    }\n\n    function getClaimableActivityReward(address _candidate) public view returns (uint256) {\n        CandidateInfo storage info = candidateInfos[_candidate];\n        uint256 period = info.rewardPeriod;\n\n        if (info.memberJoinedTime > 0) {\n            if (info.memberJoinedTime > info.claimedTimestamp) {\n                period = period.add(block.timestamp.sub(info.memberJoinedTime));\n            } else {\n                period = period.add(block.timestamp.sub(info.claimedTimestamp));\n            }\n        }\n\n        return period.mul(activityRewardPerSecond);\n    }\n}\n",
  "sourcePath": "/data/github/onther/tokamak-dao-contracts3/contracts/dao/DAOCommittee.sol",
  "compiler": {
    "name": "solc",
    "version": "0.7.6+commit.7338295f.Emscripten.clang"
  },
  "schemaVersion": "3.3.2",
  "updatedAt": "2021-02-08T00:06:52.873Z",
  "networkType": "ethereum",
  "devdoc": {
    "kind": "dev",
    "methods": {
      "castVote(uint256,uint256,string)": {
        "params": {
          "_agendaID": "The agenda ID",
          "_comment": "voting comment",
          "_vote": "voting type"
        }
      },
      "changeMember(uint256)": {
        "params": {
          "_memberIndex": "The member slot index to be replaced"
        },
        "returns": {
          "_0": "Whether or not the execution succeeded"
        }
      },
      "createCandidate(string)": {
        "params": {
          "_memo": "A memo for the candidate"
        }
      },
      "decreaseMaxMember(uint256,uint256)": {
        "params": {
          "_quorum": "New quorum",
          "_reducingMemberIndex": "Reducing member slot index"
        }
      },
      "endAgendaVoting(uint256)": {
        "params": {
          "_agendaID": "Agenda ID"
        }
      },
      "executeAgenda(uint256)": {
        "params": {
          "_agendaID": "Agenda ID"
        }
      },
      "getRoleAdmin(bytes32)": {
        "details": "Returns the admin role that controls `role`. See {grantRole} and {revokeRole}. To change a role's admin, use {_setRoleAdmin}."
      },
      "getRoleMember(bytes32,uint256)": {
        "details": "Returns one of the accounts that have `role`. `index` must be a value between 0 and {getRoleMemberCount}, non-inclusive. Role bearers are not sorted in any particular way, and their ordering may change at any point. WARNING: When using {getRoleMember} and {getRoleMemberCount}, make sure you perform all queries on the same block. See the following https://forum.openzeppelin.com/t/iterating-over-elements-on-enumerableset-in-openzeppelin-contracts/2296[forum post] for more information."
      },
      "getRoleMemberCount(bytes32)": {
        "details": "Returns the number of accounts that have `role`. Can be used together with {getRoleMember} to enumerate all bearers of a role."
      },
      "grantRole(bytes32,address)": {
        "details": "Grants `role` to `account`. If `account` had not been already granted `role`, emits a {RoleGranted} event. Requirements: - the caller must have ``role``'s admin role."
      },
      "hasRole(bytes32,address)": {
        "details": "Returns `true` if `account` has been granted `role`."
      },
      "increaseMaxMember(uint256,uint256)": {
        "params": {
          "_newMaxMember": "New number of member slot",
          "_quorum": "New quorum"
        }
      },
      "registerLayer2Candidate(address,string)": {
        "params": {
          "_layer2": "Layer2 contract address to be registered",
          "_memo": "A memo for the candidate"
        }
      },
      "registerLayer2CandidateByOwner(address,address,string)": {
        "params": {
          "_layer2": "Layer2 contract address to be registered",
          "_memo": "A memo for the candidate",
          "_operator": "Operator address of the layer2 contract"
        }
      },
      "renounceRole(bytes32,address)": {
        "details": "Revokes `role` from the calling account. Roles are often managed via {grantRole} and {revokeRole}: this function's purpose is to provide a mechanism for accounts to lose their privileges if they are compromised (such as when a trusted device is misplaced). If the calling account had been granted `role`, emits a {RoleRevoked} event. Requirements: - the caller must be `account`."
      },
      "retireMember()": {
        "returns": {
          "_0": "Whether or not the execution succeeded"
        }
      },
      "revokeRole(bytes32,address)": {
        "details": "Revokes `role` from `account`. If `account` had been granted `role`, emits a {RoleRevoked} event. Requirements: - the caller must have ``role``'s admin role."
      },
      "setActivityRewardPerSecond(uint256)": {
        "params": {
          "_value": "New activity reward per second"
        }
      },
      "setAgendaManager(address)": {
        "params": {
          "_agendaManager": "New DAOAgendaManager contract address"
        }
      },
      "setAgendaStatus(uint256,uint256,uint256)": {
        "params": {
          "_agendaID": "Agenda ID",
          "_result": "New result",
          "_status": "New status"
        }
      },
      "setCandidateFactory(address)": {
        "params": {
          "_candidateFactory": "New CandidateFactory contract address"
        }
      },
      "setCandidatesCommittee(address[],address)": {
        "params": {
          "_candidateContracts": "Candidate contracts to be set",
          "_committee": "New DAOCommitteeProxy contract address"
        }
      },
      "setCandidatesSeigManager(address[],address)": {
        "params": {
          "_candidateContracts": "Candidate contracts to be set",
          "_seigManager": "New SeigManager contract address"
        }
      },
      "setCreateAgendaFees(uint256)": {
        "params": {
          "_fees": "Fee amount on TON"
        }
      },
      "setDaoVault(address)": {
        "params": {
          "_daoVault": "New DAOVault2 contract address"
        }
      },
      "setExecutingPeriodSeconds(uint256)": {
        "params": {
          "_executingPeriodSeconds": "New executing period in second"
        }
      },
      "setLayer2Registry(address)": {
        "params": {
          "_layer2Registry": "New Layer2Registry contract address"
        }
      },
      "setMinimumNoticePeriodSeconds(uint256)": {
        "params": {
          "_minimumNoticePeriod": "New minimum notice period in second"
        }
      },
      "setMinimumVotingPeriodSeconds(uint256)": {
        "params": {
          "_minimumVotingPeriod": "New minimum voting period in second"
        }
      },
      "setQuorum(uint256)": {
        "params": {
          "_quorum": "New quorum"
        }
      },
      "setSeigManager(address)": {
        "params": {
          "_seigManager": "New SeigManager contract address"
        }
      },
      "setTon(address)": {
        "params": {
          "_ton": "New TON contract address"
        }
      },
      "updateSeigniorage(address)": {
        "params": {
          "_candidate": "Candidate address to be updated"
        },
        "returns": {
          "_0": "Whether or not the execution succeeded"
        }
      },
      "updateSeigniorages(address[])": {
        "params": {
          "_candidates": "Candidate addresses to be updated"
        },
        "returns": {
          "_0": "Whether or not the execution succeeded"
        }
      }
    },
    "version": 1
  },
  "userdoc": {
    "kind": "user",
    "methods": {
      "castVote(uint256,uint256,string)": {
        "notice": "Vote on an agenda"
      },
      "changeMember(uint256)": {
        "notice": "Replaces an existing member"
      },
      "claimActivityReward(address)": {
        "notice": "Claims the activity reward for member"
      },
      "createCandidate(string)": {
        "notice": "Creates a candidate contract and register it on SeigManager"
      },
      "decreaseMaxMember(uint256,uint256)": {
        "notice": "Decreases the number of member slot"
      },
      "endAgendaVoting(uint256)": {
        "notice": "Set the agenda status as ended(denied or dismissed)"
      },
      "executeAgenda(uint256)": {
        "notice": "Execute the accepted agenda"
      },
      "increaseMaxMember(uint256,uint256)": {
        "notice": "Increases the number of member slot"
      },
      "registerLayer2Candidate(address,string)": {
        "notice": "Registers the exist layer2 on DAO"
      },
      "registerLayer2CandidateByOwner(address,address,string)": {
        "notice": "Registers the exist layer2 on DAO by owner"
      },
      "retireMember()": {
        "notice": "Retires member"
      },
      "setActivityRewardPerSecond(uint256)": {
        "notice": "Set activity reward amount"
      },
      "setAgendaManager(address)": {
        "notice": "Set DAOAgendaManager contract address"
      },
      "setAgendaStatus(uint256,uint256,uint256)": {
        "notice": "Set status and result of specific agenda"
      },
      "setCandidateFactory(address)": {
        "notice": "Set CandidateFactory contract address"
      },
      "setCandidatesCommittee(address[],address)": {
        "notice": "Set DAOCommitteeProxy contract address on candidate contracts"
      },
      "setCandidatesSeigManager(address[],address)": {
        "notice": "Set SeigManager contract address on candidate contracts"
      },
      "setCreateAgendaFees(uint256)": {
        "notice": "Set fee amount of creating an agenda"
      },
      "setDaoVault(address)": {
        "notice": "Set DAOVault2 contract address"
      },
      "setExecutingPeriodSeconds(uint256)": {
        "notice": "Set the executing period"
      },
      "setLayer2Registry(address)": {
        "notice": "Set Layer2Registry contract address"
      },
      "setMinimumNoticePeriodSeconds(uint256)": {
        "notice": "Set the minimum notice period"
      },
      "setMinimumVotingPeriodSeconds(uint256)": {
        "notice": "Set the minimum voting period"
      },
      "setQuorum(uint256)": {
        "notice": "Set new quorum"
      },
      "setSeigManager(address)": {
        "notice": "Set SeigManager contract address"
      },
      "setTon(address)": {
        "notice": "Set TON contract address"
      },
      "updateSeigniorage(address)": {
        "notice": "Call updateSeigniorage on SeigManager"
      },
      "updateSeigniorages(address[])": {
        "notice": "Call updateSeigniorage on SeigManager"
      }
    },
    "version": 1
  }
}