{
  "contractName": "DAOCommittee",
  "abi": [
    {
      "anonymous": false,
      "inputs": [
        {
          "indexed": true,
          "internalType": "address",
          "name": "from",
          "type": "address"
        },
        {
          "indexed": true,
          "internalType": "uint256",
          "name": "id",
          "type": "uint256"
        },
        {
          "indexed": false,
          "internalType": "address",
          "name": "target",
          "type": "address"
        },
        {
          "indexed": false,
          "internalType": "uint256",
          "name": "noticePeriodSeconds",
          "type": "uint256"
        },
        {
          "indexed": false,
          "internalType": "uint256",
          "name": "votingPeriodSeconds",
          "type": "uint256"
        }
      ],
      "name": "AgendaCreated",
      "type": "event"
    },
    {
      "anonymous": false,
      "inputs": [
        {
          "indexed": true,
          "internalType": "uint256",
          "name": "id",
          "type": "uint256"
        },
        {
          "indexed": false,
          "internalType": "address",
          "name": "target",
          "type": "address"
        }
      ],
      "name": "AgendaExecuted",
      "type": "event"
    },
    {
      "anonymous": false,
      "inputs": [
        {
          "indexed": true,
          "internalType": "address",
          "name": "from",
          "type": "address"
        },
        {
          "indexed": true,
          "internalType": "uint256",
          "name": "id",
          "type": "uint256"
        },
        {
          "indexed": false,
          "internalType": "uint256",
          "name": "voting",
          "type": "uint256"
        },
        {
          "indexed": false,
          "internalType": "string",
          "name": "comment",
          "type": "string"
        }
      ],
      "name": "AgendaVoteCasted",
      "type": "event"
    },
    {
      "anonymous": false,
      "inputs": [
        {
          "indexed": true,
          "internalType": "address",
          "name": "from",
          "type": "address"
        },
        {
          "indexed": false,
          "internalType": "address",
          "name": "member",
          "type": "address"
        },
        {
          "indexed": false,
          "internalType": "uint256",
          "name": "totalbalance",
          "type": "uint256"
        },
        {
          "indexed": false,
          "internalType": "uint256",
          "name": "memberIndex",
          "type": "uint256"
        }
      ],
      "name": "ApplyMemberSuccess",
      "type": "event"
    },
    {
      "anonymous": false,
      "inputs": [
        {
          "indexed": true,
          "internalType": "address",
          "name": "candidate",
          "type": "address"
        },
        {
          "indexed": true,
          "internalType": "address",
          "name": "candidateContract",
          "type": "address"
        },
        {
          "indexed": false,
          "internalType": "string",
          "name": "memo",
          "type": "string"
        }
      ],
      "name": "CandidateContractCreated",
      "type": "event"
    },
    {
      "anonymous": false,
      "inputs": [
        {
          "indexed": true,
          "internalType": "uint256",
          "name": "slotIndex",
          "type": "uint256"
        },
        {
          "indexed": false,
          "internalType": "address",
          "name": "prevMember",
          "type": "address"
        },
        {
          "indexed": true,
          "internalType": "address",
          "name": "newMember",
          "type": "address"
        }
      ],
      "name": "ChangedMember",
      "type": "event"
    },
    {
      "anonymous": false,
      "inputs": [
        {
          "indexed": true,
          "internalType": "uint256",
          "name": "prevSlotMax",
          "type": "uint256"
        },
        {
          "indexed": true,
          "internalType": "uint256",
          "name": "slotMax",
          "type": "uint256"
        }
      ],
      "name": "ChangedSlotMaximum",
      "type": "event"
    },
    {
      "anonymous": false,
      "inputs": [
        {
          "indexed": true,
          "internalType": "address",
          "name": "candidate",
          "type": "address"
        },
        {
          "indexed": false,
          "internalType": "uint256",
          "name": "amount",
          "type": "uint256"
        }
      ],
      "name": "ClaimedActivityReward",
      "type": "event"
    },
    {
      "anonymous": false,
      "inputs": [
        {
          "indexed": true,
          "internalType": "address",
          "name": "candidate",
          "type": "address"
        },
        {
          "indexed": true,
          "internalType": "address",
          "name": "candidateContract",
          "type": "address"
        },
        {
          "indexed": false,
          "internalType": "string",
          "name": "memo",
          "type": "string"
        }
      ],
      "name": "OperatorRegistered",
      "type": "event"
    },
    {
      "anonymous": false,
      "inputs": [
        {
          "indexed": true,
          "internalType": "address",
          "name": "previousOwner",
          "type": "address"
        },
        {
          "indexed": true,
          "internalType": "address",
          "name": "newOwner",
          "type": "address"
        }
      ],
      "name": "OwnershipTransferred",
      "type": "event"
    },
    {
      "inputs": [],
      "name": "activityRewardPerSecond",
      "outputs": [
        {
          "internalType": "uint256",
          "name": "",
          "type": "uint256"
        }
      ],
      "stateMutability": "view",
      "type": "function",
      "constant": true
    },
    {
      "inputs": [],
      "name": "agendaManager",
      "outputs": [
        {
          "internalType": "contract IDAOAgendaManager",
          "name": "",
          "type": "address"
        }
      ],
      "stateMutability": "view",
      "type": "function",
      "constant": true
    },
    {
      "inputs": [
        {
          "internalType": "address",
          "name": "_candidate",
          "type": "address"
        }
      ],
      "name": "candidateContract",
      "outputs": [
        {
          "internalType": "address",
          "name": "",
          "type": "address"
        }
      ],
      "stateMutability": "view",
      "type": "function",
      "constant": true
    },
    {
      "inputs": [],
      "name": "candidateFactory",
      "outputs": [
        {
          "internalType": "contract ICandidateFactory",
          "name": "",
          "type": "address"
        }
      ],
      "stateMutability": "view",
      "type": "function",
      "constant": true
    },
    {
      "inputs": [
        {
          "internalType": "address",
          "name": "",
          "type": "address"
        }
      ],
      "name": "candidateInfos",
      "outputs": [
        {
          "internalType": "address",
          "name": "candidateContract",
          "type": "address"
        },
        {
          "internalType": "uint256",
          "name": "memberJoinedTime",
          "type": "uint256"
        },
        {
          "internalType": "uint256",
          "name": "indexMembers",
          "type": "uint256"
        },
        {
          "internalType": "uint256",
          "name": "rewardPeriod",
          "type": "uint256"
        },
        {
          "internalType": "uint256",
          "name": "claimedTimestamp",
          "type": "uint256"
        }
      ],
      "stateMutability": "view",
      "type": "function",
      "constant": true
    },
    {
      "inputs": [
        {
          "internalType": "uint256",
          "name": "",
          "type": "uint256"
        }
      ],
      "name": "candidates",
      "outputs": [
        {
          "internalType": "address",
          "name": "",
          "type": "address"
        }
      ],
      "stateMutability": "view",
      "type": "function",
      "constant": true
    },
    {
      "inputs": [],
      "name": "daoVault",
      "outputs": [
        {
          "internalType": "contract IDAOVault2",
          "name": "",
          "type": "address"
        }
      ],
      "stateMutability": "view",
      "type": "function",
      "constant": true
    },
    {
      "inputs": [
        {
          "internalType": "address",
          "name": "_candidate",
          "type": "address"
        }
      ],
      "name": "isMember",
      "outputs": [
        {
          "internalType": "bool",
          "name": "",
          "type": "bool"
        }
      ],
      "stateMutability": "view",
      "type": "function",
      "constant": true
    },
    {
      "inputs": [],
      "name": "layer2Registry",
      "outputs": [
        {
          "internalType": "contract ILayer2Registry",
          "name": "",
          "type": "address"
        }
      ],
      "stateMutability": "view",
      "type": "function",
      "constant": true
    },
    {
      "inputs": [],
      "name": "maxMember",
      "outputs": [
        {
          "internalType": "uint256",
          "name": "",
          "type": "uint256"
        }
      ],
      "stateMutability": "view",
      "type": "function",
      "constant": true
    },
    {
      "inputs": [
        {
          "internalType": "uint256",
          "name": "",
          "type": "uint256"
        }
      ],
      "name": "members",
      "outputs": [
        {
          "internalType": "address",
          "name": "",
          "type": "address"
        }
      ],
      "stateMutability": "view",
      "type": "function",
      "constant": true
    },
    {
      "inputs": [],
      "name": "owner",
      "outputs": [
        {
          "internalType": "address",
          "name": "",
          "type": "address"
        }
      ],
      "stateMutability": "view",
      "type": "function",
      "constant": true
    },
    {
      "inputs": [],
      "name": "renounceOwnership",
      "outputs": [],
      "stateMutability": "nonpayable",
      "type": "function"
    },
    {
      "inputs": [],
      "name": "seigManager",
      "outputs": [
        {
          "internalType": "contract ISeigManager",
          "name": "",
          "type": "address"
        }
      ],
      "stateMutability": "view",
      "type": "function",
      "constant": true
    },
    {
      "inputs": [],
      "name": "ton",
      "outputs": [
        {
          "internalType": "address",
          "name": "",
          "type": "address"
        }
      ],
      "stateMutability": "view",
      "type": "function",
      "constant": true
    },
    {
      "inputs": [
        {
          "internalType": "address",
          "name": "newOwner",
          "type": "address"
        }
      ],
      "name": "transferOwnership",
      "outputs": [],
      "stateMutability": "nonpayable",
      "type": "function"
    },
    {
      "inputs": [
        {
          "internalType": "address",
          "name": "_agendaManager",
          "type": "address"
        }
      ],
      "name": "setSeigManager",
      "outputs": [],
      "stateMutability": "nonpayable",
      "type": "function"
    },
    {
      "inputs": [
        {
          "internalType": "address",
          "name": "_daoVault",
          "type": "address"
        }
      ],
      "name": "setDaoVault",
      "outputs": [],
      "stateMutability": "nonpayable",
      "type": "function"
    },
    {
      "inputs": [
        {
          "internalType": "address",
          "name": "_layer2Registry",
          "type": "address"
        }
      ],
      "name": "setLayer2Registry",
      "outputs": [],
      "stateMutability": "nonpayable",
      "type": "function"
    },
    {
      "inputs": [
        {
          "internalType": "address",
          "name": "_agendaManager",
          "type": "address"
        }
      ],
      "name": "setAgendaManager",
      "outputs": [],
      "stateMutability": "nonpayable",
      "type": "function"
    },
    {
      "inputs": [
        {
          "internalType": "address",
          "name": "_candidateFactory",
          "type": "address"
        }
      ],
      "name": "setCandidateFactory",
      "outputs": [],
      "stateMutability": "nonpayable",
      "type": "function"
    },
    {
      "inputs": [
        {
          "internalType": "address",
          "name": "_ton",
          "type": "address"
        }
      ],
      "name": "setTon",
      "outputs": [],
      "stateMutability": "nonpayable",
      "type": "function"
    },
    {
      "inputs": [
        {
          "internalType": "uint256",
          "name": "_value",
          "type": "uint256"
        }
      ],
      "name": "setActivityRewardPerSecond",
      "outputs": [],
      "stateMutability": "nonpayable",
      "type": "function"
    },
    {
      "inputs": [
        {
          "internalType": "uint256",
          "name": "_maxMember",
          "type": "uint256"
        }
      ],
      "name": "setMaxMember",
      "outputs": [],
      "stateMutability": "nonpayable",
      "type": "function"
    },
    {
      "inputs": [
        {
          "internalType": "string",
          "name": "_memo",
          "type": "string"
        }
      ],
      "name": "createCandidate",
      "outputs": [],
      "stateMutability": "nonpayable",
      "type": "function"
    },
    {
      "inputs": [
        {
          "internalType": "address",
          "name": "_contractAddress",
          "type": "address"
        },
        {
          "internalType": "string",
          "name": "_memo",
          "type": "string"
        }
      ],
      "name": "registerOperator",
      "outputs": [],
      "stateMutability": "nonpayable",
      "type": "function"
    },
    {
      "inputs": [
        {
          "internalType": "address",
          "name": "_operator",
          "type": "address"
        },
        {
          "internalType": "address",
          "name": "_contractAddress",
          "type": "address"
        },
        {
          "internalType": "string",
          "name": "_memo",
          "type": "string"
        }
      ],
      "name": "registerOperatorByOwner",
      "outputs": [],
      "stateMutability": "nonpayable",
      "type": "function"
    },
    {
      "inputs": [
        {
          "internalType": "uint256",
          "name": "_memberIndex",
          "type": "uint256"
        }
      ],
      "name": "changeMember",
      "outputs": [
        {
          "internalType": "bool",
          "name": "",
          "type": "bool"
        }
      ],
      "stateMutability": "nonpayable",
      "type": "function"
    },
    {
      "inputs": [],
      "name": "retireMember",
      "outputs": [
        {
          "internalType": "bool",
          "name": "",
          "type": "bool"
        }
      ],
      "stateMutability": "nonpayable",
      "type": "function"
    },
    {
      "inputs": [
        {
          "internalType": "uint256",
          "name": "_reducingMemberIndex",
          "type": "uint256"
        }
      ],
      "name": "reduceMemberSlot",
      "outputs": [],
      "stateMutability": "nonpayable",
      "type": "function"
    },
    {
      "inputs": [
        {
          "internalType": "address",
          "name": "owner",
          "type": "address"
        },
        {
          "internalType": "address",
          "name": "spender",
          "type": "address"
        },
        {
          "internalType": "uint256",
          "name": "tonAmount",
          "type": "uint256"
        },
        {
          "internalType": "bytes",
          "name": "data",
          "type": "bytes"
        }
      ],
      "name": "onApprove",
      "outputs": [
        {
          "internalType": "bool",
          "name": "",
          "type": "bool"
        }
      ],
      "stateMutability": "nonpayable",
      "type": "function"
    },
    {
      "inputs": [
        {
          "internalType": "uint256",
          "name": "_quorumNumerator",
          "type": "uint256"
        },
        {
          "internalType": "uint256",
          "name": "_quorumDenominator",
          "type": "uint256"
        }
      ],
      "name": "setQuorum",
      "outputs": [],
      "stateMutability": "nonpayable",
      "type": "function"
    },
    {
      "inputs": [
        {
          "internalType": "uint256",
          "name": "_fees",
          "type": "uint256"
        }
      ],
      "name": "setCreateAgendaFees",
      "outputs": [],
      "stateMutability": "nonpayable",
      "type": "function"
    },
    {
      "inputs": [
        {
          "internalType": "uint256",
          "name": "_minimunNoticePeriod",
          "type": "uint256"
        }
      ],
      "name": "setMinimunNoticePeriodSeconds",
      "outputs": [],
      "stateMutability": "nonpayable",
      "type": "function"
    },
    {
      "inputs": [
        {
          "internalType": "uint256",
          "name": "_minimunVotingPeriod",
          "type": "uint256"
        }
      ],
      "name": "setMinimunVotingPeriodSeconds",
      "outputs": [],
      "stateMutability": "nonpayable",
      "type": "function"
    },
    {
      "inputs": [
        {
          "internalType": "uint256",
          "name": "_agendaID",
          "type": "uint256"
        },
        {
          "internalType": "uint256",
          "name": "_vote",
          "type": "uint256"
        },
        {
          "internalType": "string",
          "name": "_comment",
          "type": "string"
        }
      ],
      "name": "castVote",
      "outputs": [],
      "stateMutability": "nonpayable",
      "type": "function"
    },
    {
      "inputs": [
        {
          "internalType": "uint256",
          "name": "_agendaID",
          "type": "uint256"
        }
      ],
      "name": "executeAgenda",
      "outputs": [],
      "stateMutability": "nonpayable",
      "type": "function"
    },
    {
      "inputs": [
        {
          "internalType": "address",
          "name": "_candidate",
          "type": "address"
        }
      ],
      "name": "updateSeigniorage",
      "outputs": [
        {
          "internalType": "bool",
          "name": "",
          "type": "bool"
        }
      ],
      "stateMutability": "nonpayable",
      "type": "function"
    },
    {
      "inputs": [
        {
          "internalType": "address[]",
          "name": "_candidates",
          "type": "address[]"
        }
      ],
      "name": "updateSeigniorages",
      "outputs": [
        {
          "internalType": "bool",
          "name": "",
          "type": "bool"
        }
      ],
      "stateMutability": "nonpayable",
      "type": "function"
    },
    {
      "inputs": [],
      "name": "claimActivityReward",
      "outputs": [],
      "stateMutability": "nonpayable",
      "type": "function"
    },
    {
      "inputs": [
        {
          "internalType": "address",
          "name": "_candidate",
          "type": "address"
        }
      ],
      "name": "isCandidate",
      "outputs": [
        {
          "internalType": "bool",
          "name": "",
          "type": "bool"
        }
      ],
      "stateMutability": "view",
      "type": "function",
      "constant": true
    },
    {
      "inputs": [],
      "name": "requiredVotesToPass",
      "outputs": [
        {
          "internalType": "uint256",
          "name": "requiredVotes",
          "type": "uint256"
        }
      ],
      "stateMutability": "view",
      "type": "function",
      "constant": true
    },
    {
      "inputs": [
        {
          "internalType": "address",
          "name": "_candidate",
          "type": "address"
        }
      ],
      "name": "totalSupplyOnCandidate",
      "outputs": [
        {
          "internalType": "uint256",
          "name": "totalsupply",
          "type": "uint256"
        }
      ],
      "stateMutability": "view",
      "type": "function",
      "constant": true
    },
    {
      "inputs": [
        {
          "internalType": "address",
          "name": "_candidate",
          "type": "address"
        },
        {
          "internalType": "address",
          "name": "account",
          "type": "address"
        }
      ],
      "name": "balanceOfOnCandidate",
      "outputs": [
        {
          "internalType": "uint256",
          "name": "amount",
          "type": "uint256"
        }
      ],
      "stateMutability": "view",
      "type": "function",
      "constant": true
    },
    {
      "inputs": [],
      "name": "candidatesLength",
      "outputs": [
        {
          "internalType": "uint256",
          "name": "",
          "type": "uint256"
        }
      ],
      "stateMutability": "view",
      "type": "function",
      "constant": true
    },
    {
      "inputs": [
        {
          "internalType": "address",
          "name": "_candidate",
          "type": "address"
        }
      ],
      "name": "isExistCandidate",
      "outputs": [
        {
          "internalType": "bool",
          "name": "isExist",
          "type": "bool"
        }
      ],
      "stateMutability": "view",
      "type": "function",
      "constant": true
    },
    {
      "inputs": [
        {
          "internalType": "address",
          "name": "_candidate",
          "type": "address"
        }
      ],
      "name": "getClaimableActivityReward",
      "outputs": [
        {
          "internalType": "uint256",
          "name": "",
          "type": "uint256"
        }
      ],
      "stateMutability": "view",
      "type": "function",
      "constant": true
    }
  ],
  "bytecode": "0x60806040523480156200001157600080fd5b5060006200001e62000072565b600b80546001600160a01b0319166001600160a01b038316908117909155604051919250906000907f8be0079c531659141344cd1fd0a4f28419497f9722a3daafe3b4186f6b6457e0908290a35062000076565b3390565b61429d80620000866000396000f3fe608060405234801561001057600080fd5b50600436106102955760003560e01c8063715018a611610167578063ad6675dc116100ce578063d10d2b5011610087578063d10d2b501461054e578063d1f0473f14610561578063d51b9e9314610574578063d525f04f14610587578063f2fde38b1461059a578063fce92894146105ad57610295565b8063ad6675dc14610508578063b4f69b6a1461051b578063b5dd11581461052e578063c4ef9c0014610536578063cc48b9471461053e578063cf2a239c1461054657610295565b806389ea43001161012057806389ea4300146104b75780638bf7a3ab146104ca5780638da5cb5b146104d25780639932e94c146104da5780639a62f615146104ed578063a230c524146104f557610295565b8063715018a6146104665780637657f20a1461046e578063773b7f65146104815780637a3d5468146104895780637f3316361461049c5780638287cc52146104a457610295565b806349c39f141161020b5780635903bd6c116101c45780635903bd6c1461040a5780635daf08ca146104125780635ebe7622146104255780635fba7a5614610438578063651d08cd1461044b5780636fb7f5581461045e57610295565b806349c39f14146103985780634b799db1146103ab5780634d288fec146103be57806355d1fe16146103d1578063561a1dab146103e457806357f0a867146103f757610295565b806327fd92fd1161025d57806327fd92fd146103135780632af60ff4146103285780632e011c1e1461033b5780633477ee2e1461035f578063410439e8146103725780634273ca161461038557610295565b806303e3c9ac1461029a578063047f52f2146102b857806311f19e04146102cd578063216f486b146102ed57806324f99b1e14610300575b600080fd5b6102a26105c0565b6040516102af9190613fe2565b60405180910390f35b6102cb6102c636600461341e565b6105c6565b005b6102e06102db3660046137b4565b61066f565b6040516102af91906139fe565b6102cb6102fb3660046137b4565b610844565b6102cb61030e366004613805565b610ad1565b61031b610ef4565b6040516102af91906138cb565b6102cb61033636600461341e565b610f03565b61034e61034936600461341e565b610fa3565b6040516102af9594939291906139d0565b61031b61036d3660046137b4565b610fdc565b6102cb610380366004613502565b611006565b6102e0610393366004613562565b611143565b6102cb6103a636600461341e565b61117d565b6102cb6103b936600461341e565b61121d565b6102cb6103cc36600461341e565b6112bd565b6102cb6103df3660046137b4565b61135d565b6102e06103f236600461341e565b6113e6565b6102e06104053660046136aa565b611406565b61031b611446565b61031b6104203660046137b4565b611455565b6102cb6104333660046137b4565b611465565b6102cb610446366004613739565b6114c2565b61031b61045936600461341e565b611841565b61031b61185f565b6102cb61186e565b6102cb61047c36600461341e565b611910565b6102a26119b0565b6102cb6104973660046137e4565b6119b6565b6102a2611abd565b6102cb6104b23660046137b4565b611ac3565b6102e06104c536600461341e565b611cb3565b6102cb611e21565b61031b611f0b565b6102a26104e836600461341e565b611f1a565b6102a2611fac565b6102e061050336600461341e565b612055565b6102a261051636600461341e565b612075565b6102cb6105293660046137b4565b6121c3565b61031b6122c7565b6102e06122d6565b61031b6123d0565b61031b6123df565b6102cb61055c3660046137b4565b6123ee565b6102cb61056f3660046137b4565b6124bd565b6102e061058236600461341e565b61258c565b6102a26105953660046134ca565b612667565b6102cb6105a836600461341e565b6127cb565b6102cb6105bb36600461365c565b6128c4565b60085481565b6105ce6129a8565b600b546001600160a01b0390811691161461061e576040805162461bcd60e51b815260206004820181905260248201526000805160206141c0833981519152604482015290519081900360640190fd5b6001600160a01b03811661064d5760405162461bcd60e51b815260040161064490613e18565b60405180910390fd5b600380546001600160a01b0319166001600160a01b0392909216919091179055565b336000908152600960205260408120600854831061069f5760405162461bcd60e51b815260040161064490613ad4565b80546001600160a01b03166106c65760405162461bcd60e51b815260040161064490613e3e565b6001810154156106e85760405162461bcd60e51b815260040161064490613dd7565b6000600784815481106106f757fe5b60009182526020909120015442600184015560028301859055600780546001600160a01b03909216925033918690811061072d57fe5b600091825260209091200180546001600160a01b0319166001600160a01b03928316179055811661079357336001600160a01b03168460008051602061417f8339815191528360405161078091906138cb565b60405180910390a360019250505061083f565b61079c81612075565b6107a533612075565b116107c25760405162461bcd60e51b815260040161064490613a1c565b6001600160a01b038116600090815260096020526040812060028101919091556001810154610801906107f69042906129ac565b6003830154906129f5565b6003820155600060018201556040513390869060008051602061417f8339815191529061082f9086906138cb565b60405180910390a3600193505050505b919050565b6002546001600160a01b031661088b5760405162461bcd60e51b815260040180806020018281038252602c8152602001806141e0602c913960400191505060405180910390fd5b6002546040516377f28d5b60e01b81526001600160a01b03909116906377f28d5b906108bb908490600401613fe2565b60206040518083038186803b1580156108d357600080fd5b505afa1580156108e7573d6000803e3d6000fd5b505050506040513d601f19601f8201168201806040525081019061090b9190613719565b6109275760405162461bcd60e51b815260040161064490613d3f565b6002546040516373ba374560e01b815260009182916001600160a01b03909116906373ba37459061095c908690600401613fe2565b60006040518083038186803b15801561097457600080fd5b505afa158015610988573d6000803e3d6000fd5b505050506040513d6000823e601f3d908101601f191682016040526109b091908101906135d3565b915091506000826001600160a01b0316826040516109ce91906138af565b6000604051808303816000865af19150503d8060008114610a0b576040519150601f19603f3d011682016040523d82523d6000602084013e610a10565b606091505b5050905080610a315760405162461bcd60e51b815260040161064490613f55565b600254604051631b8c251960e11b81526001600160a01b03909116906337184a3290610a61908790600401613fe2565b600060405180830381600087803b158015610a7b57600080fd5b505af1158015610a8f573d6000803e3d6000fd5b50505050837fabacb4960b672b8a872a0ed3c20b92ff0a6fb7de6932d8d44b3458f8553f575284604051610ac391906138cb565b60405180910390a250505050565b6002546001600160a01b0316610b185760405162461bcd60e51b815260040180806020018281038252602c8152602001806141e0602c913960400191505060405180910390fd5b6000610b22611fac565b905060008111610b445760405162461bcd60e51b815260040161064490613f9f565b600254604051637e77eb2360e01b81526001600160a01b0390911690637e77eb2390610b7890889033908990600401613feb565b602060405180830381600087803b158015610b9257600080fd5b505af1158015610ba6573d6000803e3d6000fd5b505050506040513d601f19601f82011682018060405250810190610bca9190613719565b50600254604051635772521560e11b8152600091829182916001600160a01b03169063aee4a42a90610c00908b90600401613fe2565b60606040518083038186803b158015610c1857600080fd5b505afa158015610c2c573d6000803e3d6000fd5b505050506040513d601f19601f82011682018060405250810190610c509190613856565b925092509250828411610d2c57600254604051632b0a851b60e11b81526001600160a01b03909116906356150a3690610c90908b9060019060040161400a565b600060405180830381600087803b158015610caa57600080fd5b505af1158015610cbe573d6000803e3d6000fd5b5050600254604051633625b75960e21b81526001600160a01b03909116925063d896dd649150610cf5908b90600390600401614028565b600060405180830381600087803b158015610d0f57600080fd5b505af1158015610d23573d6000803e3d6000fd5b50505050610ea4565b818411610dc95760028054604051632b0a851b60e11b81526001600160a01b03909116916356150a3691610d64918c9160040161400a565b600060405180830381600087803b158015610d7e57600080fd5b505af1158015610d92573d6000803e3d6000fd5b5050600254604051633625b75960e21b81526001600160a01b03909116925063d896dd649150610cf5908b90600590600401614028565b610dd381836129f5565b8411610ea457600254604051632b0a851b60e11b81526001600160a01b03909116906356150a3690610e0c908b9060039060040161400a565b600060405180830381600087803b158015610e2657600080fd5b505af1158015610e3a573d6000803e3d6000fd5b5050600254604051633625b75960e21b81526001600160a01b03909116925063d896dd649150610e71908b90600590600401614028565b600060405180830381600087803b158015610e8b57600080fd5b505af1158015610e9f573d6000803e3d6000fd5b505050505b87336001600160a01b03167ffa0761008653bc7bf9fa040fb7e07672ad3e17a976eb452c44e81dd782a6214b898989604051610ee293929190614039565b60405180910390a35050505050505050565b6002546001600160a01b031681565b610f0b6129a8565b600b546001600160a01b03908116911614610f5b576040805162461bcd60e51b815260206004820181905260248201526000805160206141c0833981519152604482015290519081900360640190fd5b6001600160a01b038116610f815760405162461bcd60e51b815260040161064490613e18565b600480546001600160a01b0319166001600160a01b0392909216919091179055565b600960205260009081526040902080546001820154600283015460038401546004909401546001600160a01b0390931693919290919085565b60068181548110610fec57600080fd5b6000918252602090912001546001600160a01b0316905081565b61100e6129a8565b600b546001600160a01b0390811691161461105e576040805162461bcd60e51b815260206004820181905260248201526000805160206141c0833981519152604482015290519081900360640190fd5b6005546001600160a01b03166110a55760405162461bcd60e51b815260040180806020018281038252602b81526020018061423d602b913960400191505060405180910390fd5b6004546001600160a01b03166110ec5760405162461bcd60e51b815260040180806020018281038252602d815260200180614152602d913960400191505060405180910390fd5b6003546001600160a01b03166111335760405162461bcd60e51b815260040180806020018281038252603181526020018061420c6031913960400191505060405180910390fd5b61113e838383612a4f565b505050565b6000806111508484612c9a565b905061116f878260000151836020015184604001518560600151612cce565b506001979650505050505050565b6111856129a8565b600b546001600160a01b039081169116146111d5576040805162461bcd60e51b815260206004820181905260248201526000805160206141c0833981519152604482015290519081900360640190fd5b6001600160a01b0381166111fb5760405162461bcd60e51b815260040161064490613e18565b600280546001600160a01b0319166001600160a01b0392909216919091179055565b6112256129a8565b600b546001600160a01b03908116911614611275576040805162461bcd60e51b815260206004820181905260248201526000805160206141c0833981519152604482015290519081900360640190fd5b6001600160a01b03811661129b5760405162461bcd60e51b815260040161064490613e18565b600180546001600160a01b0319166001600160a01b0392909216919091179055565b6112c56129a8565b600b546001600160a01b03908116911614611315576040805162461bcd60e51b815260206004820181905260248201526000805160206141c0833981519152604482015290519081900360640190fd5b6001600160a01b03811661133b5760405162461bcd60e51b815260040161064490613e18565b600080546001600160a01b0319166001600160a01b0392909216919091179055565b6113656129a8565b600b546001600160a01b039081169116146113b5576040805162461bcd60e51b815260206004820181905260248201526000805160206141c0833981519152604482015290519081900360640190fd5b80600854106113d65760405162461bcd60e51b815260040161064490613b1d565b60088190556113e3612dfe565b50565b6001600160a01b0390811660009081526009602052604090205416151590565b6000805b8281101561143f5761143684848381811061142157fe5b90506020020160208101906104c5919061341e565b5060010161140a565b5092915050565b6001546001600160a01b031681565b60078181548110610fec57600080fd5b61146d6129a8565b600b546001600160a01b039081169116146114bd576040805162461bcd60e51b815260206004820181905260248201526000805160206141c0833981519152604482015290519081900360640190fd5b600a55565b6005546001600160a01b03166115095760405162461bcd60e51b815260040180806020018281038252602b81526020018061423d602b913960400191505060405180910390fd5b6004546001600160a01b03166115505760405162461bcd60e51b815260040180806020018281038252602d815260200180614152602d913960400191505060405180910390fd5b6003546001600160a01b03166115975760405162461bcd60e51b815260040180806020018281038252603181526020018061420c6031913960400191505060405180910390fd5b6115a0336113e6565b156115bd5760405162461bcd60e51b815260040161064490613ed5565b600354600554600480546040516337d5af5f60e01b81526000946001600160a01b03908116946337d5af5f946115ff9433948a949384169390911691016138df565b602060405180830381600087803b15801561161957600080fd5b505af115801561162d573d6000803e3d6000fd5b505050506040513d601f19601f82011682018060405250810190611651919061343a565b90506001600160a01b0381166116795760405162461bcd60e51b815260040161064490613c92565b60048054600554604051635e58d38f60e11b81526001600160a01b039283169363bcb1a71e936116ae93879391169101613933565b602060405180830381600087803b1580156116c857600080fd5b505af11580156116dc573d6000803e3d6000fd5b505050506040513d601f19601f820116820180604052508101906117009190613719565b61171c5760405162461bcd60e51b815260040161064490613d87565b336000908152600960205260409020546001600160a01b0316156117525760405162461bcd60e51b815260040161064490613bc5565b6040805160a0810182526001600160a01b038084168083526000602080850182815285870183815260608701848152608088018581523380875260099095528986209851895498166001600160a01b031998891617895592516001808a01919091559151600289015551600388015590516004909601959095556006805495860181559091527ff652222313e28459528d920b65115c16c04f3efc82aaedc97be59f3f377c0d3f9093018054909216831790915591517f7cf8db18d9a5c7f44156bfabdbb59ac982a8a004e461ca1b87ee71a5cdfbc5ef90611835908690613a09565b60405180910390a35050565b6001600160a01b039081166000908152600960205260409020541690565b6005546001600160a01b031681565b6118766129a8565b600b546001600160a01b039081169116146118c6576040805162461bcd60e51b815260206004820181905260248201526000805160206141c0833981519152604482015290519081900360640190fd5b600b546040516000916001600160a01b0316907f8be0079c531659141344cd1fd0a4f28419497f9722a3daafe3b4186f6b6457e0908390a3600b80546001600160a01b0319169055565b6119186129a8565b600b546001600160a01b03908116911614611968576040805162461bcd60e51b815260206004820181905260248201526000805160206141c0833981519152604482015290519081900360640190fd5b6001600160a01b03811661198e5760405162461bcd60e51b815260040161064490613e18565b600580546001600160a01b0319166001600160a01b0392909216919091179055565b60065490565b6119be6129a8565b600b546001600160a01b03908116911614611a0e576040805162461bcd60e51b815260206004820181905260248201526000805160206141c0833981519152604482015290519081900360640190fd5b6002546001600160a01b0316611a555760405162461bcd60e51b815260040180806020018281038252602c8152602001806141e0602c913960400191505060405180910390fd5b600254604051630f47aa8d60e31b81526001600160a01b0390911690637a3d546890611a87908590859060040161406f565b600060405180830381600087803b158015611aa157600080fd5b505af1158015611ab5573d6000803e3d6000fd5b505050505050565b600a5481565b611acb6129a8565b600b546001600160a01b03908116911614611b1b576040805162461bcd60e51b815260206004820181905260248201526000805160206141c0833981519152604482015290519081900360640190fd5b600060078281548110611b2a57fe5b60009182526020808320909101546001600160a01b03168083526009909152604090912060075491925090600019018314611be75760078054600091906000198101908110611b7557fe5b60009182526020808320909101546001600160a01b0316808352600990915260409091206002810186905560078054929350909183919087908110611bb657fe5b9060005260206000200160006101000a8154816001600160a01b0302191690836001600160a01b0316021790555050505b600060028201556001810154611c02906107f69042906129ac565b6003820155600060018201556007805480611c1957fe5b600082815260209020810160001990810180546001600160a01b0319169055019055600854611c499060016129ac565b600855604051600090849060008051602061417f83398151915290611c6f9086906138cb565b60405180910390a3600854611c858160016129f5565b6040517f8c0366d1e3a335a312d012257ee764723c38ec2dd5e74cbfad372513521f977190600090a3505050565b6001600160a01b0380821660009081526009602052604081205490911680611ced5760405162461bcd60e51b815260040161064490613c1a565b611cfe81631dffc87160e21b612e53565b611d1a5760405162461bcd60e51b815260040161064490613ce2565b806001600160a01b03166377ff21c46040518163ffffffff1660e01b815260040160206040518083038186803b158015611d5357600080fd5b505afa158015611d67573d6000803e3d6000fd5b505050506040513d601f19601f82011682018060405250810190611d8b9190613719565b611da75760405162461bcd60e51b815260040161064490613e8f565b806001600160a01b031663764a78566040518163ffffffff1660e01b8152600401602060405180830381600087803b158015611de257600080fd5b505af1158015611df6573d6000803e3d6000fd5b505050506040513d601f19601f82011682018060405250810190611e1a9190613719565b5050919050565b33600081815260096020526040812091611e3a90611f1a565b905060008111611e5c5760405162461bcd60e51b815260040161064490613b7b565b600154604051633bc3556560e21b81526001600160a01b039091169063ef0d559490611e8e903390859060040161391a565b600060405180830381600087803b158015611ea857600080fd5b505af1158015611ebc573d6000803e3d6000fd5b505042600485015550506000600383015560405133907fe013459a1c3162ae04cb4b22feaa126a5d302e283c7333f41d1ebe1b2cd7384b90611eff908490613fe2565b60405180910390a25050565b600b546001600160a01b031690565b6001600160a01b03811660009081526009602052604081206003810154600182015415611f9657816004015482600101541115611f7957611f72611f6b8360010154426129ac90919063ffffffff16565b82906129f5565b9050611f96565b611f93611f6b8360040154426129ac90919063ffffffff16565b90505b600a54611fa4908290612e6f565b949350505050565b600254604080516302e0740360e31b8152815160009384936001600160a01b0390911692631703a0189260048083019392829003018186803b158015611ff157600080fd5b505afa158015612005573d6000803e3d6000fd5b505050506040513d601f19601f82011682018060405250810190612029919061376c565b60075460208201518251929350909161204e9190612048908490612e6f565b90612ec8565b9250505090565b6001600160a01b0316600090815260096020526040902060010154151590565b60008061208183611841565b90506001600160a01b0381166120a95760405162461bcd60e51b815260040161064490613a9d565b600554604051634c063c1960e01b81526000916001600160a01b031690634c063c19906120da9085906004016138cb565b60206040518083038186803b1580156120f257600080fd5b505afa158015612106573d6000803e3d6000fd5b505050506040513d601f19601f8201168201806040525081019061212a919061343a565b90506001600160a01b0381166121525760405162461bcd60e51b815260040161064490613f1e565b806001600160a01b03166318160ddd6040518163ffffffff1660e01b815260040160206040518083038186803b15801561218b57600080fd5b505afa15801561219f573d6000803e3d6000fd5b505050506040513d601f19601f82011682018060405250810190611fa491906137cc565b6121cb6129a8565b600b546001600160a01b0390811691161461221b576040805162461bcd60e51b815260206004820181905260248201526000805160206141c0833981519152604482015290519081900360640190fd5b6002546001600160a01b03166122625760405162461bcd60e51b815260040180806020018281038252602c8152602001806141e0602c913960400191505060405180910390fd5b600254604051635a7b4db560e11b81526001600160a01b039091169063b4f69b6a90612292908490600401613fe2565b600060405180830381600087803b1580156122ac57600080fd5b505af11580156122c0573d6000803e3d6000fd5b5050505050565b6003546001600160a01b031681565b6000336122e281612055565b61231d5760405162461bcd60e51b815260040180806020018281038252602381526020018061412f6023913960400191505060405180910390fd5b336000908152600960205260408120600281015460078054929392909190811061234357fe5b9060005260206000200160006101000a8154816001600160a01b0302191690836001600160a01b0316021790555061238b6107f68260010154426129ac90919063ffffffff16565b6003820155600060018201819055600282015460405160008051602061417f833981519152906123bc9033906138cb565b60405180910390a360006002909101555090565b6000546001600160a01b031681565b6004546001600160a01b031681565b6123f66129a8565b600b546001600160a01b03908116911614612446576040805162461bcd60e51b815260206004820181905260248201526000805160206141c0833981519152604482015290519081900360640190fd5b6002546001600160a01b031661248d5760405162461bcd60e51b815260040180806020018281038252602c8152602001806141e0602c913960400191505060405180910390fd5b600254604051630d10d2b560e41b81526001600160a01b039091169063d10d2b5090612292908490600401613fe2565b6124c56129a8565b600b546001600160a01b03908116911614612515576040805162461bcd60e51b815260206004820181905260248201526000805160206141c0833981519152604482015290519081900360640190fd5b6002546001600160a01b031661255c5760405162461bcd60e51b815260040180806020018281038252602c8152602001806141e0602c913960400191505060405180910390fd5b60025460405163d1f0473f60e01b81526001600160a01b039091169063d1f0473f90612292908490600401613fe2565b6001600160a01b038082166000908152600960205260408120805491929091166125ba57600091505061083f565b80546000906125d9906001600160a01b0316631dffc87160e21b612e53565b9050806125eb5760009250505061083f565b815460408051631dffc87160e21b815290516001600160a01b03909216916377ff21c491600480820192602092909190829003018186803b15801561262f57600080fd5b505afa158015612643573d6000803e3d6000fd5b505050506040513d601f19601f82011682018060405250810190611fa49190613719565b60008061267384611841565b90506001600160a01b03811661269b5760405162461bcd60e51b815260040161064490613a9d565b600554604051634c063c1960e01b81526000916001600160a01b031690634c063c19906126cc9085906004016138cb565b60206040518083038186803b1580156126e457600080fd5b505afa1580156126f8573d6000803e3d6000fd5b505050506040513d601f19601f8201168201806040525081019061271c919061343a565b90506001600160a01b0381166127445760405162461bcd60e51b815260040161064490613f1e565b6040516370a0823160e01b81526001600160a01b038216906370a08231906127709087906004016138cb565b60206040518083038186803b15801561278857600080fd5b505afa15801561279c573d6000803e3d6000fd5b505050506040513d601f19601f820116820180604052508101906127c091906137cc565b925050505b92915050565b6127d36129a8565b600b546001600160a01b03908116911614612823576040805162461bcd60e51b815260206004820181905260248201526000805160206141c0833981519152604482015290519081900360640190fd5b6001600160a01b0381166128685760405162461bcd60e51b81526004018080602001828103825260268152602001806141096026913960400191505060405180910390fd5b600b546040516001600160a01b038084169216907f8be0079c531659141344cd1fd0a4f28419497f9722a3daafe3b4186f6b6457e090600090a3600b80546001600160a01b0319166001600160a01b0392909216919091179055565b6005546001600160a01b031661290b5760405162461bcd60e51b815260040180806020018281038252602b81526020018061423d602b913960400191505060405180910390fd5b6004546001600160a01b03166129525760405162461bcd60e51b815260040180806020018281038252602d815260200180614152602d913960400191505060405180910390fd5b6003546001600160a01b03166129995760405162461bcd60e51b815260040180806020018281038252603181526020018061420c6031913960400191505060405180910390fd5b6129a4338383612a4f565b5050565b3390565b60006129ee83836040518060400160405280601e81526020017f536166654d6174683a207375627472616374696f6e206f766572666c6f770000815250612f0a565b9392505050565b6000828201838110156129ee576040805162461bcd60e51b815260206004820152601b60248201527f536166654d6174683a206164646974696f6e206f766572666c6f770000000000604482015290519081900360640190fd5b6005546001600160a01b0316612a965760405162461bcd60e51b815260040180806020018281038252602b81526020018061423d602b913960400191505060405180910390fd5b6004546001600160a01b0316612add5760405162461bcd60e51b815260040180806020018281038252602d815260200180614152602d913960400191505060405180910390fd5b6003546001600160a01b0316612b245760405162461bcd60e51b815260040180806020018281038252603181526020018061420c6031913960400191505060405180910390fd5b612b2d836113e6565b15612b4a5760405162461bcd60e51b815260040161064490613ed5565b6001600160a01b038216612b705760405162461bcd60e51b815260040161064490613c92565b6001600160a01b038381166000908152600960205260409020541615612ba85760405162461bcd60e51b815260040161064490613bc5565b6040805160a0810182526001600160a01b038085168083526000602080850182815285870183815260608701848152608088018581528c881680875260099095528986209851895498166001600160a01b031998891617895592516001808a01919091559151600289015551600388015590516004909601959095556006805495860181559091527ff652222313e28459528d920b65115c16c04f3efc82aaedc97be59f3f377c0d3f9093018054909216831790915591517f574651c4b47831128b9ed5b0c878675fc9c8e14d7119b755a31c7fef6065e97090612c8d908590613a09565b60405180910390a3505050565b612ca2613350565b612cae82840184613456565b6060850152604084015260208301526001600160a01b0316815292915050565b6002546000906001600160a01b0316612d185760405162461bcd60e51b815260040180806020018281038252602c8152602001806141e0602c913960400191505060405180910390fd5b612d2186612fa1565b600254604051630f07905160e31b81526000916001600160a01b03169063783c828890612d5a9089908990899087908a90600401613992565b602060405180830381600087803b158015612d7457600080fd5b505af1158015612d88573d6000803e3d6000fd5b505050506040513d601f19601f82011682018060405250810190612dac91906137cc565b905080876001600160a01b03167f0b6aa7bb57e8fd0a7695592a4076e50796d4112d23746f17678b412e559c3d55888888604051612dec93929190613971565b60405180910390a39695505050505050565b6007545b6008548110156113e35760078054600181810183556000929092527fa66cc928b5edb82af9bd49922954155ab7b0942694bea4ce44661d9a8736c6880180546001600160a01b031916905501612e02565b6000612e5e83613162565b80156129ee57506129ee8383613195565b600082612e7e575060006127c5565b82820282848281612e8b57fe5b04146129ee5760405162461bcd60e51b815260040180806020018281038252602181526020018061419f6021913960400191505060405180910390fd5b60006129ee83836040518060400160405280601a81526020017f536166654d6174683a206469766973696f6e206279207a65726f0000000000008152506131b8565b60008184841115612f995760405162461bcd60e51b81526004018080602001828103825283818151815260200191508051906020019080838360005b83811015612f5e578181015183820152602001612f46565b50505050905090810190601f168015612f8b5780820380516001836020036101000a031916815260200191505b509250505060405180910390fd5b505050900390565b60025460408051632522a32f60e01b815290516000926001600160a01b031691632522a32f916004808301926020929190829003018186803b158015612fe657600080fd5b505afa158015612ffa573d6000803e3d6000fd5b505050506040513d601f19601f8201168201806040525081019061301e91906137cc565b6000546040516323b872dd60e01b81529192506001600160a01b0316906323b872dd906130539085903090869060040161394d565b602060405180830381600087803b15801561306d57600080fd5b505af1158015613081573d6000803e3d6000fd5b505050506040513d601f19601f820116820180604052508101906130a59190613719565b6130c15760405162461bcd60e51b815260040161064490613a47565b60005460405163a9059cbb60e01b81526001600160a01b039091169063a9059cbb906130f490600190859060040161391a565b602060405180830381600087803b15801561310e57600080fd5b505af1158015613122573d6000803e3d6000fd5b505050506040513d601f19601f820116820180604052508101906131469190613719565b6129a45760405162461bcd60e51b815260040161064490613c51565b6000613175826301ffc9a760e01b613195565b80156127c5575061318e826001600160e01b0319613195565b1592915050565b60008060006131a4858561321d565b915091508180156127c05750949350505050565b600081836132075760405162461bcd60e51b8152602060048201818152835160248401528351909283926044909101919085019080838360008315612f5e578181015183820152602001612f46565b50600083858161321357fe5b0495945050505050565b604080516001600160e01b0319831660248083019190915282518083039091018152604490910182526020810180516001600160e01b03166301ffc9a760e01b17815291518151600093849392849283926001600160a01b038a169261753092879282918083835b602083106132a45780518252601f199092019160209182019101613285565b6001836020036101000a0380198251168184511680821785525050505050509050019150506000604051808303818686fa925050503d8060008114613305576040519150601f19603f3d011682016040523d82523d6000602084013e61330a565b606091505b50915091506020815110156133285760008094509450505050613349565b8181806020019051602081101561333e57600080fd5b505190955093505050505b9250929050565b604051806080016040528060006001600160a01b031681526020016000815260200160008152602001606081525090565b600061339461338f846140a1565b61407d565b90508281528383830111156133a857600080fd5b828260208301376000602084830101529392505050565b60008083601f8401126133d0578182fd5b50813567ffffffffffffffff8111156133e7578182fd5b60208301915083602082850101111561334957600080fd5b600082601f83011261340f578081fd5b6129ee83833560208501613381565b60006020828403121561342f578081fd5b81356129ee816140f3565b60006020828403121561344b578081fd5b81516129ee816140f3565b6000806000806080858703121561346b578283fd5b8435613476816140f3565b93506020850135925060408501359150606085013567ffffffffffffffff81111561349f578182fd5b8501601f810187136134af578182fd5b6134be87823560208401613381565b91505092959194509250565b600080604083850312156134dc578182fd5b82356134e7816140f3565b915060208301356134f7816140f3565b809150509250929050565b600080600060608486031215613516578283fd5b8335613521816140f3565b92506020840135613531816140f3565b9150604084013567ffffffffffffffff81111561354c578182fd5b613558868287016133ff565b9150509250925092565b600080600080600060808688031215613579578081fd5b8535613584816140f3565b94506020860135613594816140f3565b935060408601359250606086013567ffffffffffffffff8111156135b6578182fd5b6135c2888289016133bf565b969995985093965092949392505050565b600080604083850312156135e5578182fd5b82516135f0816140f3565b602084015190925067ffffffffffffffff81111561360c578182fd5b8301601f8101851361361c578182fd5b805161362a61338f826140a1565b81815286602083850101111561363e578384fd5b61364f8260208301602086016140c3565b8093505050509250929050565b6000806040838503121561366e578081fd5b8235613679816140f3565b9150602083013567ffffffffffffffff811115613694578182fd5b6136a0858286016133ff565b9150509250929050565b600080602083850312156136bc578182fd5b823567ffffffffffffffff808211156136d3578384fd5b818501915085601f8301126136e6578384fd5b8135818111156136f4578485fd5b8660208083028501011115613707578485fd5b60209290920196919550909350505050565b60006020828403121561372a578081fd5b815180151581146129ee578182fd5b60006020828403121561374a578081fd5b813567ffffffffffffffff811115613760578182fd5b611fa4848285016133ff565b60006040828403121561377d578081fd5b6040516040810181811067ffffffffffffffff8211171561379a57fe5b604052825181526020928301519281019290925250919050565b6000602082840312156137c5578081fd5b5035919050565b6000602082840312156137dd578081fd5b5051919050565b600080604083850312156137f6578182fd5b50508035926020909101359150565b6000806000806060858703121561381a578182fd5b8435935060208501359250604085013567ffffffffffffffff81111561383e578283fd5b61384a878288016133bf565b95989497509550505050565b60008060006060848603121561386a578081fd5b8351925060208401519150604084015190509250925092565b6000815180845261389b8160208601602086016140c3565b601f01601f19169290920160200192915050565b600082516138c18184602087016140c3565b9190910192915050565b6001600160a01b0391909116815260200190565b600060018060a01b038087168352608060208401526139016080840187613883565b9481166040840152929092166060909101525092915050565b6001600160a01b03929092168252602082015260400190565b6001600160a01b0392831681529116602082015260400190565b6001600160a01b039384168152919092166020820152604081019190915260600190565b6001600160a01b039390931683526020830191909152604082015260600190565b600060018060a01b038716825285602083015284604083015283606083015260a060808301526139c560a0830184613883565b979650505050505050565b6001600160a01b03959095168552602085019390935260408401919091526060830152608082015260a00190565b901515815260200190565b6000602082526129ee6020830184613883565b6020808252601190820152701b9bdd08195b9bdd59da08185b5bdd5b9d607a1b604082015260600190565b60208082526036908201527f44414f436f6d6d697474656553746f72653a206661696c656420746f207472616040820152753739b332b9103a37b710333937b69031b932b0ba37b960511b606082015260800190565b6020808252601f908201527f54686973206163636f756e74206973206e6f7420612063616e64696461746500604082015260600190565b60208082526029908201527f44414f436f6d6d697474656553746f72653a20696e646578206973206e6f7420604082015268617661696c61626c6560b81b606082015260800190565b602080825260409082018190527f44414f436f6d6d697474656553746f72653a20596f75206861766520746f2063908201527f616c6c207265647563654d656d626572536c6f7420746f206465637265617365606082015260800190565b6020808252602a908201527f44414f436f6d6d69747465653a20796f7520646f6e2774206861766520636c6160408201526934b6b0b13632903a37b760b11b606082015260800190565b60208082526035908201527f44414f436f6d6d697474656553746f72653a205468652063616e64696461746560408201527408185b1c9958591e481a185cc818dbdb9d1c9858dd605a1b606082015260800190565b6020808252601d908201527f44414f436f6d6d69747465653a206e6f7420612063616e646964617465000000604082015260600190565b60208082526021908201527f44414f436f6d6d697474656553746f72653a206661696c656420746f206275726040820152603760f91b606082015260800190565b60208082526030908201527f44414f436f6d6d69747465653a206465706c6f7965642063616e64696461746560408201526f436f6e7472616374206973207a65726f60801b606082015260800190565b6020808252603c908201527f44414f436f6d6d69747465653a2074686520636f6e747261637420646f65736e60408201527f277420737570706f727420757064617465536569676e696f7261676500000000606082015260800190565b60208082526028908201527f44414f436f6d6d69747465653a2063616e206e6f74206578656375746520746860408201526765206167656e646160c01b606082015260800190565b60208082526030908201527f44414f436f6d6d69747465653a206661696c656420746f20726567697374657260408201526f416e644465706c6f79436f696e61676560801b606082015260800190565b60208082526021908201527f44414f436f6d6d697474656553746f72653a20616c7265616479206d656d62656040820152603960f91b606082015260800190565b6020808252600c908201526b7a65726f206164647265737360a01b604082015260600190565b60208082526031908201527f44414f436f6d6d697474656553746f72653a205468652061646472657373206960408201527073206e6f7420612063616e64696461746560781b606082015260800190565b60208082526026908201527f44414f436f6d6d69747465653a206e6f7420612063616e64696461746520636f6040820152651b9d1c9858dd60d21b606082015260800190565b60208082526029908201527f44414f436f6d6d69747465653a2063616e64696461746520616c7265616479206040820152681c9959da5cdd195c9960ba1b606082015260800190565b6020808252601d908201527f44414f436f6d6d69747465653a20636f696e616765206973207a65726f000000604082015260600190565b6020808252602a908201527f44414f436f6d6d69747465653a204661696c656420746f206578656375746520604082015269746865206167656e646160b01b606082015260800190565b60208082526023908201527f44414f436f6d6d69747465653a207265717569726564566f746573206973207a60408201526265726f60e81b606082015260800190565b90815260200190565b9283526001600160a01b03919091166020830152604082015260600190565b828152604081016004831061401b57fe5b8260208301529392505050565b828152604081016006831061401b57fe5b60008482526040602083015282604083015282846060840137818301606090810191909152601f909201601f1916010192915050565b918252602082015260400190565b60405181810167ffffffffffffffff8111828210171561409957fe5b604052919050565b600067ffffffffffffffff8211156140b557fe5b50601f01601f191660200190565b60005b838110156140de5781810151838201526020016140c6565b838111156140ed576000848401525b50505050565b6001600160a01b03811681146113e357600080fdfe4f776e61626c653a206e6577206f776e657220697320746865207a65726f206164647265737353746f726167655374617465436f6d6d69747465653a206e6f742061206d656d62657253746f726167655374617465436f6d6d69747465653a20756e76616c6964204c61796572325265676973747279663b98adf1afa777e36528b3293a057803f87ed00d2d2518dccfe5d7a6e99ccf536166654d6174683a206d756c7469706c69636174696f6e206f766572666c6f774f776e61626c653a2063616c6c6572206973206e6f7420746865206f776e657253746f726167655374617465436f6d6d69747465653a204167656e64614d616e61676572206973207a65726f53746f726167655374617465436f6d6d69747465653a20756e76616c696420436f6d6d69747465654c32466163746f727953746f726167655374617465436f6d6d69747465653a20756e76616c696420536569674d616e6167657265a264697066735822122041c5b60caaf3e951217ba2faee97fd62dd6d6f7776bf9ed7d11a2dd1d7bf120564736f6c63430007060033",
  "immutableReferences": {},
  "source": "// SPDX-License-Identifier: MIT\npragma solidity ^0.7.6;\npragma abicoder v2;\n\nimport \"../../node_modules/@openzeppelin/contracts/access/Ownable.sol\";\nimport \"./StorageStateCommittee.sol\";\n\nimport { SafeMath } from \"../../node_modules/@openzeppelin/contracts/math/SafeMath.sol\";\nimport { IERC20 } from  \"../../node_modules/@openzeppelin/contracts/token/ERC20/IERC20.sol\";\nimport { ICandidate } from \"../interfaces/ICandidate.sol\";\nimport { IDAOAgendaManager } from \"../interfaces/IDAOAgendaManager.sol\";\nimport { LibAgenda } from \"../lib/Agenda.sol\";\nimport { ERC165Checker } from \"../../node_modules/@openzeppelin/contracts/introspection/ERC165Checker.sol\";\n\ncontract DAOCommittee is StorageStateCommittee, Ownable {\n    using SafeMath for uint256;\n    using LibAgenda for *;\n     \n    enum ApplyResult { NONE, SUCCESS, NOT_ELECTION, ALREADY_COMMITTEE, SLOT_INVALID, ADDMEMBER_FAIL, LOW_BALANCE }\n\n    struct AgendaCreatingData {\n        address target;\n        uint256 noticePeriodSeconds;\n        uint256 votingPeriodSeconds;\n        bytes functionBytecode;\n    }\n\n    //////////////////////////////\n    // Events\n    //////////////////////////////\n\n    event AgendaCreated(\n        address indexed from,\n        uint256 indexed id,\n        address target,\n        uint256 noticePeriodSeconds,\n        uint256 votingPeriodSeconds\n    );\n\n    event AgendaVoteCasted(\n        address indexed from,\n        uint256 indexed id,\n        uint voting,\n        string comment\n    );\n\n    event AgendaExecuted(\n        uint256 indexed id,\n        address target\n    );\n\n    event CandidateContractCreated(\n        address indexed candidate,\n        address indexed candidateContract,\n        string memo\n    );\n\n    event OperatorRegistered(\n        address indexed candidate,\n        address indexed candidateContract,\n        string memo\n    );\n\n    event ChangedMember(\n        uint256 indexed slotIndex,\n        address prevMember,\n        address indexed newMember\n    );\n\n    event ChangedSlotMaximum(\n        uint256 indexed prevSlotMax,\n        uint256 indexed slotMax\n    );\n\n    event ClaimedActivityReward(\n        address indexed candidate,\n        uint256 amount\n    );\n\n    //////////////////////////////////////////////////////////////////////\n    // setters\n\n    function setSeigManager(address _agendaManager) public onlyOwner {\n        require(_agendaManager != address(0), \"zero address\");\n        seigManager = ISeigManager(_agendaManager);\n    }\n     \n    function setDaoVault(address _daoVault) public onlyOwner {\n        require(_daoVault != address(0), \"zero address\");\n        daoVault = IDAOVault2(_daoVault);\n    }\n\n    function setLayer2Registry(address _layer2Registry) public onlyOwner {\n        require(_layer2Registry != address(0), \"zero address\");\n        layer2Registry = ILayer2Registry(_layer2Registry);\n    }\n\n    function setAgendaManager(address _agendaManager) public onlyOwner {\n        require(_agendaManager != address(0), \"zero address\");\n        agendaManager = IDAOAgendaManager(_agendaManager);\n    }\n\n    function setCandidateFactory(address _candidateFactory) public onlyOwner {\n        require(_candidateFactory != address(0), \"zero address\");\n        candidateFactory = ICandidateFactory(_candidateFactory);\n    }\n\n    function setTon(address _ton) public onlyOwner {\n        require(_ton != address(0), \"zero address\");\n        ton = _ton;\n    }\n\n    function setActivityRewardPerSecond(uint256 _value) public onlyOwner {\n        activityRewardPerSecond = _value;\n    }\n\n    function setMaxMember(uint256 _maxMember) onlyOwner public {\n        require(maxMember < _maxMember, \"DAOCommitteeStore: You have to call reduceMemberSlot to decrease\");\n        maxMember = _maxMember;\n        fillMemberSlot();\n    }\n\n    //////////////////////////////////////////////////////////////////////\n    // Managing members\n\n    function createCandidate(string memory _memo)\n        public\n        validSeigManager\n        validLayer2Registry\n        validCommitteeL2Factory\n    {\n        require(!isExistCandidate(msg.sender), \"DAOCommittee: candidate already registerd\");\n\n        //uint256 minimumAmount = seigManager.minimumAmount();\n        //require(minimumAmount <= tonAmount, \"DAOCommittee: not enough ton\");\n          \n        // Candidate\n        address candidateContract = candidateFactory.deploy(msg.sender, _memo, address(seigManager), address(layer2Registry));\n        require(\n            candidateContract != address(0),\n            \"DAOCommittee: deployed candidateContract is zero\"\n        );\n        require(\n            layer2Registry.registerAndDeployCoinage(candidateContract, address(seigManager)),\n            \"DAOCommittee: failed to registerAndDeployCoinage\"\n        );\n        require(\n            candidateInfos[msg.sender].candidateContract == address(0),\n            \"DAOCommitteeStore: The candidate already has contract\"\n        );\n\n        candidateInfos[msg.sender] = CandidateInfo({\n            candidateContract: candidateContract,\n            memberJoinedTime: 0,\n            indexMembers: 0,\n            rewardPeriod: 0,\n            claimedTimestamp: 0\n        });\n\n        candidates.push(msg.sender);\n       \n        emit CandidateContractCreated(msg.sender, candidateContract, _memo);\n    }\n\n    function registerOperator(address _contractAddress, string memory _memo)\n        public\n        validSeigManager\n        validLayer2Registry\n        validCommitteeL2Factory\n    {\n        _registerOperator(msg.sender, _contractAddress, _memo);\n    }\n\n    function registerOperatorByOwner(address _operator, address _contractAddress, string memory _memo)\n        public\n        onlyOwner\n        validSeigManager\n        validLayer2Registry\n        validCommitteeL2Factory\n    {\n        _registerOperator(_operator, _contractAddress, _memo);\n    }\n\n    function changeMember(uint256 _memberIndex)\n        public\n        returns (bool)\n    {\n        CandidateInfo storage candidateInfo = candidateInfos[msg.sender];\n        require(\n            _memberIndex < maxMember,\n            \"DAOCommitteeStore: index is not available\"\n        );\n        require(\n            candidateInfo.candidateContract != address(0),\n            \"DAOCommitteeStore: The address is not a candidate\"\n        );\n        require(\n            candidateInfo.memberJoinedTime == 0,\n            \"DAOCommitteeStore: already member\"\n        );\n        \n        address prevMember = members[_memberIndex];\n\n        candidateInfo.memberJoinedTime = block.timestamp;\n        candidateInfo.indexMembers = _memberIndex;\n\n        members[_memberIndex] = msg.sender;\n\n        if (prevMember == address(0)) {\n            emit ChangedMember(_memberIndex, prevMember, msg.sender);\n            return true;\n        }\n\n        require(\n            totalSupplyOnCandidate(msg.sender) > totalSupplyOnCandidate(prevMember),\n            \"not enough amount\"\n        );\n\n        CandidateInfo storage prevCandidate = candidateInfos[prevMember];\n        prevCandidate.indexMembers = 0;\n        prevCandidate.rewardPeriod = prevCandidate.rewardPeriod.add(block.timestamp.sub(prevCandidate.memberJoinedTime));\n        prevCandidate.memberJoinedTime = 0;\n\n        emit ChangedMember(_memberIndex, prevMember, msg.sender);\n\n        return true;\n    }\n    \n    function retireMember() onlyMember(msg.sender) public returns (bool) {\n        CandidateInfo storage candidateInfo = candidateInfos[msg.sender];\n        members[candidateInfo.indexMembers] = address(0);\n        candidateInfo.rewardPeriod = candidateInfo.rewardPeriod.add(block.timestamp.sub(candidateInfo.memberJoinedTime));\n        candidateInfo.memberJoinedTime = 0;\n\n        emit ChangedMember(candidateInfo.indexMembers, msg.sender, address(0));\n\n        candidateInfo.indexMembers = 0;\n    }\n\n    function reduceMemberSlot(uint256 _reducingMemberIndex) public onlyOwner {\n        address reducingMember = members[_reducingMemberIndex];\n        CandidateInfo storage reducingCandidate = candidateInfos[reducingMember];\n\n        if (_reducingMemberIndex != members.length - 1) {\n            address tailmember = members[members.length - 1];\n            CandidateInfo storage tailCandidate = candidateInfos[tailmember];\n\n            tailCandidate.indexMembers = _reducingMemberIndex;\n            members[_reducingMemberIndex] = tailmember;\n        }\n        reducingCandidate.indexMembers = 0;\n        reducingCandidate.rewardPeriod = reducingCandidate.rewardPeriod.add(block.timestamp.sub(reducingCandidate.memberJoinedTime));\n        reducingCandidate.memberJoinedTime = 0;\n\n        members.pop();\n        maxMember = maxMember.sub(1);\n\n        emit ChangedMember(_reducingMemberIndex, reducingMember, address(0));\n        emit ChangedSlotMaximum(maxMember.add(1), maxMember);\n    }\n\n    //////////////////////////////////////////////////////////////////////\n    // Managing agenda\n\n    function onApprove(\n        address owner,\n        address spender,\n        uint256 tonAmount,\n        bytes calldata data\n    ) external returns (bool) {\n        AgendaCreatingData memory agendaData = _decodeAgendaData(data);\n\n        _createAgenda(\n            owner,\n            agendaData.target,\n            agendaData.noticePeriodSeconds,\n            agendaData.votingPeriodSeconds,\n            agendaData.functionBytecode\n        );\n\n        return true;\n    }\n\n    function setQuorum(\n        uint256 _quorumNumerator,\n        uint256 _quorumDenominator\n    )\n        public\n        onlyOwner\n        validAgendaManager\n    {\n        agendaManager.setQuorum(_quorumNumerator, _quorumDenominator);\n    }\n\n    function setCreateAgendaFees(\n        uint256 _fees\n    )\n        public\n        onlyOwner\n        validAgendaManager\n    {\n        agendaManager.setCreateAgendaFees(_fees);\n    }\n\n    function setMinimunNoticePeriodSeconds(\n        uint256 _minimunNoticePeriod\n    )\n        public\n        onlyOwner\n        validAgendaManager\n    {\n        agendaManager.setMinimunNoticePeriodSeconds(_minimunNoticePeriod);\n    }\n\n    function setMinimunVotingPeriodSeconds(\n        uint256 _minimunVotingPeriod\n    )\n        public\n        onlyOwner\n        validAgendaManager\n    {\n        agendaManager.setMinimunVotingPeriodSeconds(_minimunVotingPeriod);\n    }\n\n    function castVote(\n        uint256 _agendaID,\n        uint _vote,\n        string calldata _comment\n    )\n        public \n        validAgendaManager\n    {\n        uint256 requiredVotes = requiredVotesToPass();\n        require(requiredVotes > 0, \"DAOCommittee: requiredVotes is zero\");\n        \n        agendaManager.castVote(\n            _agendaID,\n            msg.sender,\n            _vote\n        );\n\n        (uint256 yes, uint256 no, uint256 abstain) = agendaManager.getVotingCount(_agendaID);\n\n        if (requiredVotes <= yes) {\n            // yes\n            agendaManager.setResult(_agendaID, LibAgenda.AgendaResult.ACCEPT);\n            agendaManager.setStatus(_agendaID, LibAgenda.AgendaStatus.WAITING_EXEC);\n        } else if (requiredVotes <= no) {\n            // no\n            agendaManager.setResult(_agendaID, LibAgenda.AgendaResult.REJECT);\n            agendaManager.setStatus(_agendaID, LibAgenda.AgendaStatus.ENDED);\n        } else if (requiredVotes <= abstain.add(no) ) {\n            // dismiss\n            agendaManager.setResult(_agendaID, LibAgenda.AgendaResult.DISMISS);\n            agendaManager.setStatus(_agendaID, LibAgenda.AgendaStatus.ENDED);\n        }\n        \n        emit AgendaVoteCasted(msg.sender, _agendaID, _vote, _comment);\n    }\n\n    function executeAgenda(uint256 _agendaID) public validAgendaManager {\n        require(\n            agendaManager.canExecuteAgenda(_agendaID),\n            \"DAOCommittee: can not execute the agenda\"\n        );\n        \n        (address target, bytes memory functionBytecode) = agendaManager.getExecutionInfo(_agendaID);\n       \n        (bool success, ) = address(target).call(functionBytecode);\n        require(success, \"DAOCommittee: Failed to execute the agenda\");\n         \n        agendaManager.setExecutedAgenda(_agendaID);\n\n        emit AgendaExecuted(_agendaID, target);\n    }\n\n    /*function setAgendaStatus(uint256 _agendaID, uint256 _status, uint256 _result) public onlyOwner {\n        agendaManager.setResult(_agendaID, _result);\n        agendaManager.setStatus(_agendaID, _status);\n    }*/\n     \n    function updateSeigniorage(address _candidate) public returns (bool) {\n        address candidateContract = candidateInfos[_candidate].candidateContract;\n        require(candidateContract != address(0), \"DAOCommittee: not a candidate\");\n        require(\n            ERC165Checker.supportsInterface(\n                candidateContract,\n                ICandidate(candidateContract).isCandidateContract.selector\n            ),\n            \"DAOCommittee: the contract doesn't support updateSeigniorage\"\n        );\n        require(\n            ICandidate(candidateContract).isCandidateContract(),\n            \"DAOCommittee: not a candidate contract\"\n        );\n\n        ICandidate(candidateContract).updateSeigniorage();\n    }\n\n    function updateSeigniorages(address[] calldata _candidates) public returns (bool) {\n        for (uint256 i = 0; i < _candidates.length; i++) {\n            updateSeigniorage(_candidates[i]);\n        }\n    }\n\n    function claimActivityReward() public {\n        CandidateInfo storage info = candidateInfos[msg.sender];\n        uint256 amount = getClaimableActivityReward(msg.sender);\n\n        require(amount > 0, \"DAOCommittee: you don't have claimable ton\");\n\n        daoVault.claimTON(msg.sender, amount);\n        info.claimedTimestamp = block.timestamp;\n        info.rewardPeriod = 0;\n\n        emit ClaimedActivityReward(msg.sender, amount);\n    }\n\n    function _registerOperator(address _operator, address _contractAddress, string memory _memo)\n        internal\n        validSeigManager\n        validLayer2Registry\n        validCommitteeL2Factory\n    {\n        require(!isExistCandidate(_operator), \"DAOCommittee: candidate already registerd\");\n\n        require(\n            _contractAddress != address(0),\n            \"DAOCommittee: deployed candidateContract is zero\"\n        );\n        require(\n            candidateInfos[_operator].candidateContract == address(0),\n            \"DAOCommitteeStore: The candidate already has contract\"\n        );\n\n        candidateInfos[_operator] = CandidateInfo({\n            candidateContract: _contractAddress,\n            memberJoinedTime: 0,\n            indexMembers: 0,\n            rewardPeriod: 0,\n            claimedTimestamp: 0\n        });\n\n        candidates.push(_operator);\n       \n        emit OperatorRegistered(_operator, _contractAddress, _memo);\n    }\n\n    function fillMemberSlot() internal {\n        for (uint256 i = members.length; i < maxMember; i++) {\n            members.push(address(0));\n        }\n    }\n\n    function _decodeAgendaData(bytes calldata input)\n        internal\n        view\n        returns (AgendaCreatingData memory data)\n    {\n        (data.target, data.noticePeriodSeconds, data.votingPeriodSeconds, data.functionBytecode) = \n            abi.decode(input, (address, uint256, uint256, bytes));\n    }\n\n    function payCreatingAgendaFee(address _creator) internal {\n        uint256 fee = agendaManager.createAgendaFees();\n\n        require(IERC20(ton).transferFrom(_creator, address(this), fee), \"DAOCommitteeStore: failed to transfer ton from creator\");\n        require(IERC20(ton).transfer(address(1), fee), \"DAOCommitteeStore: failed to burn\");\n    }\n   \n    function _createAgenda(\n        address _creator,\n        address _target,\n        uint256 _noticePeriodSeconds,\n        uint256 _votingPeriodSeconds,\n        bytes memory _functionBytecode\n    )\n        internal\n        validAgendaManager\n        returns (uint256)\n    {\n        // pay to create agenda, burn ton.\n        payCreatingAgendaFee(_creator);\n\n        uint256 agendaID = agendaManager.newAgenda(\n            _target,\n            _noticePeriodSeconds,\n            _votingPeriodSeconds,\n            0,\n            _functionBytecode\n        );\n          \n        emit AgendaCreated(\n            _creator,\n            agendaID,\n            _target,\n            _noticePeriodSeconds,\n            _votingPeriodSeconds\n        );\n\n        return agendaID;\n    }\n\n    function isCandidate(address _candidate) public view returns (bool) {\n        CandidateInfo storage info = candidateInfos[_candidate];\n\n        if (info.candidateContract == address(0)) {\n            return false;\n        }\n\n        bool supportIsCandidateContract = ERC165Checker.supportsInterface(\n            info.candidateContract,\n            ICandidate(info.candidateContract).isCandidateContract.selector\n        );\n\n        if (supportIsCandidateContract == false) {\n            return false;\n        }\n\n        return ICandidate(info.candidateContract).isCandidateContract();\n    }\n    \n    function requiredVotesToPass()\n        public\n        view\n        returns (uint256 requiredVotes)\n    {\n        IDAOAgendaManager.Ratio memory quorum = agendaManager.quorum();\n        uint256 total = members.length;\n        requiredVotes = total.mul(quorum.numerator).div(quorum.denominator);\n    }\n    \n    function totalSupplyOnCandidate(\n        address _candidate\n    )\n        public\n        view\n        returns (uint256 totalsupply)\n    {\n        address candidateContract = candidateContract(_candidate);\n        require(candidateContract != address(0), \"This account is not a candidate\");\n\n        address coinage = seigManager.coinages(candidateContract);\n        require(coinage != address(0), \"DAOCommittee: coinage is zero\");\n        return IERC20(coinage).totalSupply();\n    }\n\n    function balanceOfOnCandidate(\n        address _candidate,\n        address account\n    )\n        public\n        view\n        returns (uint256 amount)\n    {\n        address candidateContract = candidateContract(_candidate);\n        require(candidateContract != address(0), \"This account is not a candidate\");\n\n        address coinage = seigManager.coinages(candidateContract);\n        require(coinage != address(0), \"DAOCommittee: coinage is zero\");\n        return IERC20(coinage).balanceOf(account);\n    }\n    \n    function candidatesLength() public view returns (uint256) {\n        return candidates.length;\n    }\n\n    function isExistCandidate(address _candidate) public view returns (bool isExist) {\n        return candidateInfos[_candidate].candidateContract != address(0);\n    }\n\n    function getClaimableActivityReward(address _candidate) public view returns (uint256) {\n        CandidateInfo storage info = candidateInfos[_candidate];\n        uint256 period = info.rewardPeriod;\n\n        if (info.memberJoinedTime > 0) {\n            if (info.memberJoinedTime > info.claimedTimestamp) {\n                period = period.add(block.timestamp.sub(info.memberJoinedTime));\n            } else {\n                period = period.add(block.timestamp.sub(info.claimedTimestamp));\n            }\n        }\n\n        return period.mul(activityRewardPerSecond);\n    }\n}\n",
  "sourcePath": "/data/github/onther/tokamak-dao-contracts3/contracts/dao/DAOCommittee.sol",
  "compiler": {
    "name": "solc",
    "version": "0.7.6+commit.7338295f.Emscripten.clang"
  },
  "schemaVersion": "3.3.2",
  "updatedAt": "2021-01-13T07:27:53.059Z",
  "networkType": "ethereum",
  "devdoc": {
    "kind": "dev",
    "methods": {
      "owner()": {
        "details": "Returns the address of the current owner."
      },
      "renounceOwnership()": {
        "details": "Leaves the contract without owner. It will not be possible to call `onlyOwner` functions anymore. Can only be called by the current owner. NOTE: Renouncing ownership will leave the contract without an owner, thereby removing any functionality that is only available to the owner."
      },
      "transferOwnership(address)": {
        "details": "Transfers ownership of the contract to a new account (`newOwner`). Can only be called by the current owner."
      }
    },
    "version": 1
  },
  "userdoc": {
    "kind": "user",
    "methods": {},
    "version": 1
  }
}