{
  "contractName": "DAOCommitteeProxy",
  "abi": [
    {
      "inputs": [
        {
          "internalType": "address",
          "name": "_ton",
          "type": "address"
        },
        {
          "internalType": "address",
          "name": "_impl",
          "type": "address"
        },
        {
          "internalType": "address",
          "name": "_seigManager",
          "type": "address"
        },
        {
          "internalType": "address",
          "name": "_layer2Registry",
          "type": "address"
        },
        {
          "internalType": "address",
          "name": "_agendaManager",
          "type": "address"
        },
        {
          "internalType": "address",
          "name": "_candidateFactory",
          "type": "address"
        },
        {
          "internalType": "address",
          "name": "_daoVault",
          "type": "address"
        }
      ],
      "stateMutability": "nonpayable",
      "type": "constructor"
    },
    {
      "anonymous": false,
      "inputs": [
        {
          "indexed": true,
          "internalType": "address",
          "name": "from",
          "type": "address"
        },
        {
          "indexed": false,
          "internalType": "address",
          "name": "member",
          "type": "address"
        },
        {
          "indexed": false,
          "internalType": "uint256",
          "name": "totalbalance",
          "type": "uint256"
        },
        {
          "indexed": false,
          "internalType": "uint256",
          "name": "memberIndex",
          "type": "uint256"
        }
      ],
      "name": "ApplyMemberSuccess",
      "type": "event"
    },
    {
      "anonymous": false,
      "inputs": [
        {
          "indexed": true,
          "internalType": "address",
          "name": "previousOwner",
          "type": "address"
        },
        {
          "indexed": true,
          "internalType": "address",
          "name": "newOwner",
          "type": "address"
        }
      ],
      "name": "OwnershipTransferred",
      "type": "event"
    },
    {
      "anonymous": false,
      "inputs": [
        {
          "indexed": true,
          "internalType": "address",
          "name": "implementation",
          "type": "address"
        }
      ],
      "name": "Upgraded",
      "type": "event"
    },
    {
      "stateMutability": "nonpayable",
      "type": "fallback"
    },
    {
      "inputs": [],
      "name": "_implementation",
      "outputs": [
        {
          "internalType": "address",
          "name": "",
          "type": "address"
        }
      ],
      "stateMutability": "view",
      "type": "function"
    },
    {
      "inputs": [],
      "name": "agendaManager",
      "outputs": [
        {
          "internalType": "contract IDAOAgendaManager",
          "name": "",
          "type": "address"
        }
      ],
      "stateMutability": "view",
      "type": "function"
    },
    {
      "inputs": [
        {
          "internalType": "address",
          "name": "_candidate",
          "type": "address"
        }
      ],
      "name": "candidateContract",
      "outputs": [
        {
          "internalType": "address",
          "name": "",
          "type": "address"
        }
      ],
      "stateMutability": "view",
      "type": "function"
    },
    {
      "inputs": [],
      "name": "candidateFactory",
      "outputs": [
        {
          "internalType": "contract ICandidateFactory",
          "name": "",
          "type": "address"
        }
      ],
      "stateMutability": "view",
      "type": "function"
    },
    {
      "inputs": [
        {
          "internalType": "address",
          "name": "",
          "type": "address"
        }
      ],
      "name": "candidateInfos",
      "outputs": [
        {
          "internalType": "address",
          "name": "candidateContract",
          "type": "address"
        },
        {
          "internalType": "uint256",
          "name": "memberJoinedTime",
          "type": "uint256"
        },
        {
          "internalType": "uint256",
          "name": "indexMembers",
          "type": "uint256"
        }
      ],
      "stateMutability": "view",
      "type": "function"
    },
    {
      "inputs": [
        {
          "internalType": "uint256",
          "name": "",
          "type": "uint256"
        }
      ],
      "name": "candidates",
      "outputs": [
        {
          "internalType": "address",
          "name": "",
          "type": "address"
        }
      ],
      "stateMutability": "view",
      "type": "function"
    },
    {
      "inputs": [],
      "name": "daoVault",
      "outputs": [
        {
          "internalType": "address",
          "name": "",
          "type": "address"
        }
      ],
      "stateMutability": "view",
      "type": "function"
    },
    {
      "inputs": [
        {
          "internalType": "address",
          "name": "_candidate",
          "type": "address"
        }
      ],
      "name": "isMember",
      "outputs": [
        {
          "internalType": "bool",
          "name": "",
          "type": "bool"
        }
      ],
      "stateMutability": "view",
      "type": "function"
    },
    {
      "inputs": [],
      "name": "layer2Registry",
      "outputs": [
        {
          "internalType": "contract ILayer2Registry",
          "name": "",
          "type": "address"
        }
      ],
      "stateMutability": "view",
      "type": "function"
    },
    {
      "inputs": [],
      "name": "maxMember",
      "outputs": [
        {
          "internalType": "uint256",
          "name": "",
          "type": "uint256"
        }
      ],
      "stateMutability": "view",
      "type": "function"
    },
    {
      "inputs": [
        {
          "internalType": "uint256",
          "name": "",
          "type": "uint256"
        }
      ],
      "name": "members",
      "outputs": [
        {
          "internalType": "address",
          "name": "",
          "type": "address"
        }
      ],
      "stateMutability": "view",
      "type": "function"
    },
    {
      "inputs": [],
      "name": "owner",
      "outputs": [
        {
          "internalType": "address",
          "name": "",
          "type": "address"
        }
      ],
      "stateMutability": "view",
      "type": "function"
    },
    {
      "inputs": [],
      "name": "pauseProxy",
      "outputs": [
        {
          "internalType": "bool",
          "name": "",
          "type": "bool"
        }
      ],
      "stateMutability": "view",
      "type": "function"
    },
    {
      "inputs": [],
      "name": "renounceOwnership",
      "outputs": [],
      "stateMutability": "nonpayable",
      "type": "function"
    },
    {
      "inputs": [],
      "name": "seigManager",
      "outputs": [
        {
          "internalType": "contract ISeigManager",
          "name": "",
          "type": "address"
        }
      ],
      "stateMutability": "view",
      "type": "function"
    },
    {
      "inputs": [
        {
          "internalType": "bytes4",
          "name": "interfaceId",
          "type": "bytes4"
        }
      ],
      "name": "supportsInterface",
      "outputs": [
        {
          "internalType": "bool",
          "name": "",
          "type": "bool"
        }
      ],
      "stateMutability": "view",
      "type": "function"
    },
    {
      "inputs": [],
      "name": "ton",
      "outputs": [
        {
          "internalType": "address",
          "name": "",
          "type": "address"
        }
      ],
      "stateMutability": "view",
      "type": "function"
    },
    {
      "inputs": [
        {
          "internalType": "address",
          "name": "newOwner",
          "type": "address"
        }
      ],
      "name": "transferOwnership",
      "outputs": [],
      "stateMutability": "nonpayable",
      "type": "function"
    },
    {
      "inputs": [
        {
          "internalType": "bool",
          "name": "_pause",
          "type": "bool"
        }
      ],
      "name": "setProxyPause",
      "outputs": [],
      "stateMutability": "nonpayable",
      "type": "function"
    },
    {
      "inputs": [
        {
          "internalType": "address",
          "name": "impl",
          "type": "address"
        }
      ],
      "name": "upgradeTo",
      "outputs": [],
      "stateMutability": "nonpayable",
      "type": "function"
    },
    {
      "inputs": [],
      "name": "implementation",
      "outputs": [
        {
          "internalType": "address",
          "name": "",
          "type": "address"
        }
      ],
      "stateMutability": "view",
      "type": "function"
    }
  ],
  "bytecode": "0x608060405234801561001057600080fd5b50604051610b19380380610b19833981810160405260e081101561003357600080fd5b508051602082015160408301516060840151608085015160a086015160c0909601519495939492939192909190600061006a61016b565b600a80546001600160a01b0319166001600160a01b038316908117909155604051919250906000907f8be0079c531659141344cd1fd0a4f28419497f9722a3daafe3b4186f6b6457e0908290a3506100c86301ffc9a760e01b61016f565b600080546001600160a01b03199081166001600160a01b038a811691909117909255600c805482168984161790556005805482168884161790556004805482168784161790556002805482168684161790556003805482168584161790556001805490911691831691909117905561015f7f4273ca16e32229270629d776700e1c07e4a1080fc9b26d21f6608efc2b31dc4d61016f565b505050505050506101f3565b3390565b6001600160e01b031980821614156101ce576040805162461bcd60e51b815260206004820152601c60248201527f4552433136353a20696e76616c696420696e7465726661636520696400000000604482015290519081900360640190fd5b6001600160e01b0319166000908152600b60205260409020805460ff19166001179055565b610917806102026000396000f3fe608060405234801561001057600080fd5b50600436106101375760003560e01c806363a8fd89116100b85780638da5cb5b1161007c5780638da5cb5b146102dd578063a230c524146102e5578063b5dd11581461030b578063cc48b94714610313578063cf2a239c1461031b578063f2fde38b1461032357610137565b806363a8fd8914610280578063651d08cd146102885780636fb7f558146102ae578063715018a6146102b65780637cb00d25146102be57610137565b80633659cfe6116100ff5780633659cfe6146102255780635903bd6c1461024b57806359679b0f146102535780635c60da1b1461025b5780635daf08ca1461026357610137565b806301ffc9a71461014157806303e3c9ac1461017c57806327fd92fd146101965780632e011c1e146101ba5780633477ee2e14610208575b61013f610349565b005b6101686004803603602081101561015757600080fd5b50356001600160e01b0319166103d6565b604080519115158252519081900360200190f35b6101846103f5565b60408051918252519081900360200190f35b61019e6103fb565b604080516001600160a01b039092168252519081900360200190f35b6101e0600480360360208110156101d057600080fd5b50356001600160a01b031661040a565b604080516001600160a01b039094168452602084019290925282820152519081900360600190f35b61019e6004803603602081101561021e57600080fd5b5035610435565b61013f6004803603602081101561023b57600080fd5b50356001600160a01b031661045f565b61019e61054e565b61019e61055d565b61019e61056c565b61019e6004803603602081101561027957600080fd5b503561057b565b61016861058b565b61019e6004803603602081101561029e57600080fd5b50356001600160a01b031661059b565b61019e6105b9565b61013f6105c8565b61013f600480360360208110156102d457600080fd5b5035151561066a565b61019e6106e0565b610168600480360360208110156102fb57600080fd5b50356001600160a01b03166106ef565b61019e61070f565b61019e61071e565b61019e61072d565b61013f6004803603602081101561033957600080fd5b50356001600160a01b031661073c565b600061035361056c565b90506001600160a01b038116158015906103775750600c54600160a01b900460ff16155b6103b25760405162461bcd60e51b81526004018080602001828103825260318152602001806108b16031913960400191505060405180910390fd5b3660008037600080366000845af43d6000803e8080156103d1573d6000f35b3d6000fd5b6001600160e01b0319166000908152600b602052604090205460ff1690565b60085481565b6002546001600160a01b031681565b6009602052600090815260409020805460018201546002909201546001600160a01b03909116919083565b6006818154811061044557600080fd5b6000918252602090912001546001600160a01b0316905081565b610467610835565b600a546001600160a01b039081169116146104b7576040805162461bcd60e51b81526020600482018190526024820152600080516020610891833981519152604482015290519081900360640190fd5b600c546001600160a01b03828116911614156105045760405162461bcd60e51b81526004018080602001828103825260318152602001806108606031913960400191505060405180910390fd5b600c80546001600160a01b0319166001600160a01b0383169081179091556040517fbc7cd75a20ee27fd9adebab32041f755214dbc6bffa90cc0225b39da2e5c2d3b90600090a250565b6001546001600160a01b031681565b600c546001600160a01b031681565b600c546001600160a01b031690565b6007818154811061044557600080fd5b600c54600160a01b900460ff1681565b6001600160a01b039081166000908152600960205260409020541690565b6005546001600160a01b031681565b6105d0610835565b600a546001600160a01b03908116911614610620576040805162461bcd60e51b81526020600482018190526024820152600080516020610891833981519152604482015290519081900360640190fd5b600a546040516000916001600160a01b0316907f8be0079c531659141344cd1fd0a4f28419497f9722a3daafe3b4186f6b6457e0908390a3600a80546001600160a01b0319169055565b610672610835565b600a546001600160a01b039081169116146106c2576040805162461bcd60e51b81526020600482018190526024820152600080516020610891833981519152604482015290519081900360640190fd5b600c8054911515600160a01b0260ff60a01b19909216919091179055565b600a546001600160a01b031690565b6001600160a01b0316600090815260096020526040902060010154151590565b6003546001600160a01b031681565b6000546001600160a01b031681565b6004546001600160a01b031681565b610744610835565b600a546001600160a01b03908116911614610794576040805162461bcd60e51b81526020600482018190526024820152600080516020610891833981519152604482015290519081900360640190fd5b6001600160a01b0381166107d95760405162461bcd60e51b815260040180806020018281038252602681526020018061083a6026913960400191505060405180910390fd5b600a546040516001600160a01b038084169216907f8be0079c531659141344cd1fd0a4f28419497f9722a3daafe3b4186f6b6457e090600090a3600a80546001600160a01b0319166001600160a01b0392909216919091179055565b339056fe4f776e61626c653a206e6577206f776e657220697320746865207a65726f206164647265737344414f436f6d6d697474656550726f78793a20696d706c656d656e746174696f6e2061646472657373206973207a65726f4f776e61626c653a2063616c6c6572206973206e6f7420746865206f776e657244414f436f6d6d697474656550726f78793a20696d706c206973207a65726f204f522070726f78792069732066616c7365a2646970667358221220933cca2e833dfc6e9dc62656a203dd78602c914eceaec607b118e93be3fa55aa64736f6c63430007060033",
  "immutableReferences": {},
  "source": "// SPDX-License-Identifier: MIT\npragma solidity ^0.7.6;\n\nimport \"./StorageStateCommittee.sol\";\nimport \"../../node_modules/@openzeppelin/contracts/access/Ownable.sol\";\nimport { ERC165 } from \"../../node_modules/@openzeppelin/contracts/introspection/ERC165.sol\";\n\ncontract DAOCommitteeProxy is StorageStateCommittee, Ownable, ERC165 {\n    address public _implementation;\n    bool public pauseProxy;\n\n    event Upgraded(address indexed implementation);\n     \n    constructor(\n        address _ton,\n        address _impl,\n        address _seigManager,\n        address _layer2Registry,\n        address _agendaManager,\n        address _candidateFactory,\n        //address _activityRewardManager,\n        address _daoVault\n    )\n    {\n        ton = _ton;\n        _implementation = _impl;\n        seigManager = ISeigManager(_seigManager);\n        layer2Registry = ILayer2Registry(_layer2Registry);\n        agendaManager = IDAOAgendaManager(_agendaManager);\n        candidateFactory = ICandidateFactory(_candidateFactory);\n        //activityRewardManager = IDAOActivityRewardManager(_activityRewardManager);\n        daoVault = _daoVault;\n        //maxMember = 3;\n\n        _registerInterface(bytes4(keccak256(\"onApprove(address,address,uint256,bytes)\")));\n    }\n\n    function setProxyPause(bool _pause) onlyOwner public {\n        pauseProxy = _pause;\n    }\n\n    /*function setProxyStore(address payable _storeAddress) onlyOwner public {\n        require(_storeAddress != address(0), \"DAOCommitteeProxy: store address is zero\");\n        store = DAOCommitteeStore(_storeAddress);\n    }\n\n    function setProxyAgendaManager(address _addr) onlyOwner validStore public {\n        require(_addr != address(0), \"DAOCommitteeProxy: agendamanager address is zero\");\n        agendaManager = DAOAgendaManager(_addr);\n        store.setAgendaManager(_addr);\n    }\n\n    function setProxyAactivityfeeManager(address _addr) onlyOwner validStore public {\n        require(_addr != address(0), \"DAOCommitteeProxy: ActivityFeeManager address is zero\");\n        activityfeeManager = DAOActivityFeeManager(_addr);\n        store.setActivityFeeManager(_addr);\n    }\n\n    //--\n    function setProxyElection(address _addr) onlyOwner public {\n        require(_addr != address(0), \"DAOCommitteeProxy: election address is zero\");\n        election = DAOElectionStore(_addr);\n    }\n\n    function setProxyCommitteeL2Factory(address _addr) onlyOwner public {\n        require(_addr != address(0), \"DAOCommitteeProxy: factory address is zero\");\n        committeeL2Factory = CommitteeL2FactoryI(_addr);\n        election.setCommitteeL2Factory(_addr);\n    }\n\n    function setProxyLayer2Registry(address _addr) onlyOwner public {\n        require(_addr != address(0), \"DAOCommitteeProxy: registry address is zero\");\n        layer2Registry = Layer2RegistryI(_addr);\n        election.setLayer2Registry(_addr);\n    }\n\n    function setProxySeigManager(address _addr) onlyOwner public {\n        require(_addr != address(0), \"DAOCommitteeProxy: SeigManager address is zero\");\n        seigManager = SeigManagerI(_addr);\n        election.setSeigManager(_addr);\n    }*/\n    //--\n\n    function upgradeTo(address impl) public onlyOwner {\n        require(_implementation != impl, \"DAOCommitteeProxy: implementation address is zero\");\n        _implementation = impl;\n        emit Upgraded(impl);\n    }\n\n    function implementation() public view returns (address) {\n        return _implementation;\n    }\n\n    fallback() external {\n        _fallback();\n    }\n\n    function _fallback() internal {\n        address _impl = implementation();\n        require(_impl != address(0) && pauseProxy == false, \"DAOCommitteeProxy: impl is zero OR proxy is false\");\n\n        assembly {\n            // Copy msg.data. We take full control of memory in this inline assembly\n            // block because it will not return to Solidity code. We overwrite the\n            // Solidity scratch pad at memory position 0.\n            calldatacopy(0, 0, calldatasize())\n\n            // Call the implementation.\n            // out and outsize are 0 because we don't know the size yet.\n            let result := delegatecall(gas(), _impl, 0, calldatasize(), 0, 0)\n\n            // Copy the returned data.\n            returndatacopy(0, 0, returndatasize())\n\n            switch result\n            // delegatecall returns 0 on error.\n            case 0 { revert(0, returndatasize()) }\n            default { return(0, returndatasize()) }\n        }\n    }\n}\n",
  "sourcePath": "/data/github/onther/tokamak-dao-contracts3/contracts/dao/DAOCommitteeProxy.sol",
  "compiler": {
    "name": "solc",
    "version": "0.7.6+commit.7338295f.Emscripten.clang"
  },
  "schemaVersion": "3.3.2",
  "updatedAt": "2021-01-07T22:20:17.836Z",
  "devdoc": {
    "kind": "dev",
    "methods": {
      "owner()": {
        "details": "Returns the address of the current owner."
      },
      "renounceOwnership()": {
        "details": "Leaves the contract without owner. It will not be possible to call `onlyOwner` functions anymore. Can only be called by the current owner. NOTE: Renouncing ownership will leave the contract without an owner, thereby removing any functionality that is only available to the owner."
      },
      "supportsInterface(bytes4)": {
        "details": "See {IERC165-supportsInterface}. Time complexity O(1), guaranteed to always use less than 30 000 gas."
      },
      "transferOwnership(address)": {
        "details": "Transfers ownership of the contract to a new account (`newOwner`). Can only be called by the current owner."
      }
    },
    "version": 1
  },
  "userdoc": {
    "kind": "user",
    "methods": {},
    "version": 1
  }
}