{
  "contractName": "DAOCommittee",
  "abi": [
    {
      "anonymous": false,
      "inputs": [
        {
          "indexed": true,
          "internalType": "address",
          "name": "from",
          "type": "address"
        },
        {
          "indexed": true,
          "internalType": "uint256",
          "name": "id",
          "type": "uint256"
        },
        {
          "indexed": false,
          "internalType": "address[]",
          "name": "targets",
          "type": "address[]"
        },
        {
          "indexed": false,
          "internalType": "uint256",
          "name": "noticePeriodSeconds",
          "type": "uint256"
        },
        {
          "indexed": false,
          "internalType": "uint256",
          "name": "votingPeriodSeconds",
          "type": "uint256"
        }
      ],
      "name": "AgendaCreated",
      "type": "event"
    },
    {
      "anonymous": false,
      "inputs": [
        {
          "indexed": true,
          "internalType": "uint256",
          "name": "id",
          "type": "uint256"
        },
        {
          "indexed": false,
          "internalType": "address[]",
          "name": "target",
          "type": "address[]"
        }
      ],
      "name": "AgendaExecuted",
      "type": "event"
    },
    {
      "anonymous": false,
      "inputs": [
        {
          "indexed": true,
          "internalType": "address",
          "name": "from",
          "type": "address"
        },
        {
          "indexed": true,
          "internalType": "uint256",
          "name": "id",
          "type": "uint256"
        },
        {
          "indexed": false,
          "internalType": "uint256",
          "name": "voting",
          "type": "uint256"
        },
        {
          "indexed": false,
          "internalType": "string",
          "name": "comment",
          "type": "string"
        }
      ],
      "name": "AgendaVoteCasted",
      "type": "event"
    },
    {
      "anonymous": false,
      "inputs": [
        {
          "indexed": true,
          "internalType": "address",
          "name": "from",
          "type": "address"
        },
        {
          "indexed": false,
          "internalType": "address",
          "name": "member",
          "type": "address"
        },
        {
          "indexed": false,
          "internalType": "uint256",
          "name": "totalbalance",
          "type": "uint256"
        },
        {
          "indexed": false,
          "internalType": "uint256",
          "name": "memberIndex",
          "type": "uint256"
        }
      ],
      "name": "ApplyMemberSuccess",
      "type": "event"
    },
    {
      "anonymous": false,
      "inputs": [
        {
          "indexed": true,
          "internalType": "address",
          "name": "candidate",
          "type": "address"
        },
        {
          "indexed": true,
          "internalType": "address",
          "name": "candidateContract",
          "type": "address"
        },
        {
          "indexed": false,
          "internalType": "string",
          "name": "memo",
          "type": "string"
        }
      ],
      "name": "CandidateContractCreated",
      "type": "event"
    },
    {
      "anonymous": false,
      "inputs": [
        {
          "indexed": true,
          "internalType": "uint256",
          "name": "slotIndex",
          "type": "uint256"
        },
        {
          "indexed": false,
          "internalType": "address",
          "name": "prevMember",
          "type": "address"
        },
        {
          "indexed": true,
          "internalType": "address",
          "name": "newMember",
          "type": "address"
        }
      ],
      "name": "ChangedMember",
      "type": "event"
    },
    {
      "anonymous": false,
      "inputs": [
        {
          "indexed": true,
          "internalType": "uint256",
          "name": "prevSlotMax",
          "type": "uint256"
        },
        {
          "indexed": true,
          "internalType": "uint256",
          "name": "slotMax",
          "type": "uint256"
        }
      ],
      "name": "ChangedSlotMaximum",
      "type": "event"
    },
    {
      "anonymous": false,
      "inputs": [
        {
          "indexed": true,
          "internalType": "address",
          "name": "candidate",
          "type": "address"
        },
        {
          "indexed": false,
          "internalType": "uint256",
          "name": "amount",
          "type": "uint256"
        }
      ],
      "name": "ClaimedActivityReward",
      "type": "event"
    },
    {
      "anonymous": false,
      "inputs": [
        {
          "indexed": true,
          "internalType": "address",
          "name": "candidate",
          "type": "address"
        },
        {
          "indexed": true,
          "internalType": "address",
          "name": "candidateContract",
          "type": "address"
        },
        {
          "indexed": false,
          "internalType": "string",
          "name": "memo",
          "type": "string"
        }
      ],
      "name": "OperatorRegistered",
      "type": "event"
    },
    {
      "anonymous": false,
      "inputs": [
        {
          "indexed": false,
          "internalType": "uint256",
          "name": "newQuorum",
          "type": "uint256"
        }
      ],
      "name": "QuorumChanged",
      "type": "event"
    },
    {
      "anonymous": false,
      "inputs": [
        {
          "indexed": true,
          "internalType": "bytes32",
          "name": "role",
          "type": "bytes32"
        },
        {
          "indexed": true,
          "internalType": "bytes32",
          "name": "previousAdminRole",
          "type": "bytes32"
        },
        {
          "indexed": true,
          "internalType": "bytes32",
          "name": "newAdminRole",
          "type": "bytes32"
        }
      ],
      "name": "RoleAdminChanged",
      "type": "event"
    },
    {
      "anonymous": false,
      "inputs": [
        {
          "indexed": true,
          "internalType": "bytes32",
          "name": "role",
          "type": "bytes32"
        },
        {
          "indexed": true,
          "internalType": "address",
          "name": "account",
          "type": "address"
        },
        {
          "indexed": true,
          "internalType": "address",
          "name": "sender",
          "type": "address"
        }
      ],
      "name": "RoleGranted",
      "type": "event"
    },
    {
      "anonymous": false,
      "inputs": [
        {
          "indexed": true,
          "internalType": "bytes32",
          "name": "role",
          "type": "bytes32"
        },
        {
          "indexed": true,
          "internalType": "address",
          "name": "account",
          "type": "address"
        },
        {
          "indexed": true,
          "internalType": "address",
          "name": "sender",
          "type": "address"
        }
      ],
      "name": "RoleRevoked",
      "type": "event"
    },
    {
      "inputs": [],
      "name": "DEFAULT_ADMIN_ROLE",
      "outputs": [
        {
          "internalType": "bytes32",
          "name": "",
          "type": "bytes32"
        }
      ],
      "stateMutability": "view",
      "type": "function",
      "constant": true
    },
    {
      "inputs": [],
      "name": "activityRewardPerSecond",
      "outputs": [
        {
          "internalType": "uint256",
          "name": "",
          "type": "uint256"
        }
      ],
      "stateMutability": "view",
      "type": "function",
      "constant": true
    },
    {
      "inputs": [],
      "name": "agendaManager",
      "outputs": [
        {
          "internalType": "contract IDAOAgendaManager",
          "name": "",
          "type": "address"
        }
      ],
      "stateMutability": "view",
      "type": "function",
      "constant": true
    },
    {
      "inputs": [
        {
          "internalType": "address",
          "name": "_candidate",
          "type": "address"
        }
      ],
      "name": "candidateContract",
      "outputs": [
        {
          "internalType": "address",
          "name": "",
          "type": "address"
        }
      ],
      "stateMutability": "view",
      "type": "function",
      "constant": true
    },
    {
      "inputs": [],
      "name": "candidateFactory",
      "outputs": [
        {
          "internalType": "contract ICandidateFactory",
          "name": "",
          "type": "address"
        }
      ],
      "stateMutability": "view",
      "type": "function",
      "constant": true
    },
    {
      "inputs": [
        {
          "internalType": "address",
          "name": "",
          "type": "address"
        }
      ],
      "name": "candidateInfos",
      "outputs": [
        {
          "internalType": "address",
          "name": "candidateContract",
          "type": "address"
        },
        {
          "internalType": "uint256",
          "name": "memberJoinedTime",
          "type": "uint256"
        },
        {
          "internalType": "uint256",
          "name": "indexMembers",
          "type": "uint256"
        },
        {
          "internalType": "uint256",
          "name": "rewardPeriod",
          "type": "uint256"
        },
        {
          "internalType": "uint256",
          "name": "claimedTimestamp",
          "type": "uint256"
        }
      ],
      "stateMutability": "view",
      "type": "function",
      "constant": true
    },
    {
      "inputs": [
        {
          "internalType": "uint256",
          "name": "",
          "type": "uint256"
        }
      ],
      "name": "candidates",
      "outputs": [
        {
          "internalType": "address",
          "name": "",
          "type": "address"
        }
      ],
      "stateMutability": "view",
      "type": "function",
      "constant": true
    },
    {
      "inputs": [],
      "name": "daoVault",
      "outputs": [
        {
          "internalType": "contract IDAOVault2",
          "name": "",
          "type": "address"
        }
      ],
      "stateMutability": "view",
      "type": "function",
      "constant": true
    },
    {
      "inputs": [
        {
          "internalType": "bytes32",
          "name": "role",
          "type": "bytes32"
        }
      ],
      "name": "getRoleAdmin",
      "outputs": [
        {
          "internalType": "bytes32",
          "name": "",
          "type": "bytes32"
        }
      ],
      "stateMutability": "view",
      "type": "function",
      "constant": true
    },
    {
      "inputs": [
        {
          "internalType": "bytes32",
          "name": "role",
          "type": "bytes32"
        },
        {
          "internalType": "uint256",
          "name": "index",
          "type": "uint256"
        }
      ],
      "name": "getRoleMember",
      "outputs": [
        {
          "internalType": "address",
          "name": "",
          "type": "address"
        }
      ],
      "stateMutability": "view",
      "type": "function",
      "constant": true
    },
    {
      "inputs": [
        {
          "internalType": "bytes32",
          "name": "role",
          "type": "bytes32"
        }
      ],
      "name": "getRoleMemberCount",
      "outputs": [
        {
          "internalType": "uint256",
          "name": "",
          "type": "uint256"
        }
      ],
      "stateMutability": "view",
      "type": "function",
      "constant": true
    },
    {
      "inputs": [
        {
          "internalType": "bytes32",
          "name": "role",
          "type": "bytes32"
        },
        {
          "internalType": "address",
          "name": "account",
          "type": "address"
        }
      ],
      "name": "grantRole",
      "outputs": [],
      "stateMutability": "nonpayable",
      "type": "function"
    },
    {
      "inputs": [
        {
          "internalType": "bytes32",
          "name": "role",
          "type": "bytes32"
        },
        {
          "internalType": "address",
          "name": "account",
          "type": "address"
        }
      ],
      "name": "hasRole",
      "outputs": [
        {
          "internalType": "bool",
          "name": "",
          "type": "bool"
        }
      ],
      "stateMutability": "view",
      "type": "function",
      "constant": true
    },
    {
      "inputs": [
        {
          "internalType": "address",
          "name": "_candidate",
          "type": "address"
        }
      ],
      "name": "isMember",
      "outputs": [
        {
          "internalType": "bool",
          "name": "",
          "type": "bool"
        }
      ],
      "stateMutability": "view",
      "type": "function",
      "constant": true
    },
    {
      "inputs": [],
      "name": "layer2Registry",
      "outputs": [
        {
          "internalType": "contract ILayer2Registry",
          "name": "",
          "type": "address"
        }
      ],
      "stateMutability": "view",
      "type": "function",
      "constant": true
    },
    {
      "inputs": [],
      "name": "maxMember",
      "outputs": [
        {
          "internalType": "uint256",
          "name": "",
          "type": "uint256"
        }
      ],
      "stateMutability": "view",
      "type": "function",
      "constant": true
    },
    {
      "inputs": [
        {
          "internalType": "uint256",
          "name": "",
          "type": "uint256"
        }
      ],
      "name": "members",
      "outputs": [
        {
          "internalType": "address",
          "name": "",
          "type": "address"
        }
      ],
      "stateMutability": "view",
      "type": "function",
      "constant": true
    },
    {
      "inputs": [],
      "name": "quorum",
      "outputs": [
        {
          "internalType": "uint256",
          "name": "",
          "type": "uint256"
        }
      ],
      "stateMutability": "view",
      "type": "function",
      "constant": true
    },
    {
      "inputs": [
        {
          "internalType": "bytes32",
          "name": "role",
          "type": "bytes32"
        },
        {
          "internalType": "address",
          "name": "account",
          "type": "address"
        }
      ],
      "name": "renounceRole",
      "outputs": [],
      "stateMutability": "nonpayable",
      "type": "function"
    },
    {
      "inputs": [
        {
          "internalType": "bytes32",
          "name": "role",
          "type": "bytes32"
        },
        {
          "internalType": "address",
          "name": "account",
          "type": "address"
        }
      ],
      "name": "revokeRole",
      "outputs": [],
      "stateMutability": "nonpayable",
      "type": "function"
    },
    {
      "inputs": [],
      "name": "seigManager",
      "outputs": [
        {
          "internalType": "contract ISeigManager",
          "name": "",
          "type": "address"
        }
      ],
      "stateMutability": "view",
      "type": "function",
      "constant": true
    },
    {
      "inputs": [],
      "name": "ton",
      "outputs": [
        {
          "internalType": "address",
          "name": "",
          "type": "address"
        }
      ],
      "stateMutability": "view",
      "type": "function",
      "constant": true
    },
    {
      "inputs": [
        {
          "internalType": "address",
          "name": "_seigManager",
          "type": "address"
        }
      ],
      "name": "setSeigManager",
      "outputs": [],
      "stateMutability": "nonpayable",
      "type": "function"
    },
    {
      "inputs": [
        {
          "internalType": "address[]",
          "name": "_candidateContracts",
          "type": "address[]"
        },
        {
          "internalType": "address",
          "name": "_seigManager",
          "type": "address"
        }
      ],
      "name": "setCandidatesSeigManager",
      "outputs": [],
      "stateMutability": "nonpayable",
      "type": "function"
    },
    {
      "inputs": [
        {
          "internalType": "address[]",
          "name": "_candidateContracts",
          "type": "address[]"
        },
        {
          "internalType": "address",
          "name": "_committee",
          "type": "address"
        }
      ],
      "name": "setCandidatesCommittee",
      "outputs": [],
      "stateMutability": "nonpayable",
      "type": "function"
    },
    {
      "inputs": [
        {
          "internalType": "address",
          "name": "_daoVault",
          "type": "address"
        }
      ],
      "name": "setDaoVault",
      "outputs": [],
      "stateMutability": "nonpayable",
      "type": "function"
    },
    {
      "inputs": [
        {
          "internalType": "address",
          "name": "_layer2Registry",
          "type": "address"
        }
      ],
      "name": "setLayer2Registry",
      "outputs": [],
      "stateMutability": "nonpayable",
      "type": "function"
    },
    {
      "inputs": [
        {
          "internalType": "address",
          "name": "_agendaManager",
          "type": "address"
        }
      ],
      "name": "setAgendaManager",
      "outputs": [],
      "stateMutability": "nonpayable",
      "type": "function"
    },
    {
      "inputs": [
        {
          "internalType": "address",
          "name": "_candidateFactory",
          "type": "address"
        }
      ],
      "name": "setCandidateFactory",
      "outputs": [],
      "stateMutability": "nonpayable",
      "type": "function"
    },
    {
      "inputs": [
        {
          "internalType": "address",
          "name": "_ton",
          "type": "address"
        }
      ],
      "name": "setTon",
      "outputs": [],
      "stateMutability": "nonpayable",
      "type": "function"
    },
    {
      "inputs": [
        {
          "internalType": "uint256",
          "name": "_value",
          "type": "uint256"
        }
      ],
      "name": "setActivityRewardPerSecond",
      "outputs": [],
      "stateMutability": "nonpayable",
      "type": "function"
    },
    {
      "inputs": [
        {
          "internalType": "uint256",
          "name": "_newMaxMember",
          "type": "uint256"
        },
        {
          "internalType": "uint256",
          "name": "_quorum",
          "type": "uint256"
        }
      ],
      "name": "increaseMaxMember",
      "outputs": [],
      "stateMutability": "nonpayable",
      "type": "function"
    },
    {
      "inputs": [
        {
          "internalType": "string",
          "name": "_memo",
          "type": "string"
        }
      ],
      "name": "createCandidate",
      "outputs": [],
      "stateMutability": "nonpayable",
      "type": "function"
    },
    {
      "inputs": [
        {
          "internalType": "address",
          "name": "_layer2",
          "type": "address"
        },
        {
          "internalType": "string",
          "name": "_memo",
          "type": "string"
        }
      ],
      "name": "registerOperator",
      "outputs": [],
      "stateMutability": "nonpayable",
      "type": "function"
    },
    {
      "inputs": [
        {
          "internalType": "address",
          "name": "_operator",
          "type": "address"
        },
        {
          "internalType": "address",
          "name": "_layer2",
          "type": "address"
        },
        {
          "internalType": "string",
          "name": "_memo",
          "type": "string"
        }
      ],
      "name": "registerOperatorByOwner",
      "outputs": [],
      "stateMutability": "nonpayable",
      "type": "function"
    },
    {
      "inputs": [
        {
          "internalType": "uint256",
          "name": "_memberIndex",
          "type": "uint256"
        }
      ],
      "name": "changeMember",
      "outputs": [
        {
          "internalType": "bool",
          "name": "",
          "type": "bool"
        }
      ],
      "stateMutability": "nonpayable",
      "type": "function"
    },
    {
      "inputs": [],
      "name": "retireMember",
      "outputs": [
        {
          "internalType": "bool",
          "name": "",
          "type": "bool"
        }
      ],
      "stateMutability": "nonpayable",
      "type": "function"
    },
    {
      "inputs": [
        {
          "internalType": "uint256",
          "name": "_reducingMemberIndex",
          "type": "uint256"
        },
        {
          "internalType": "uint256",
          "name": "_quorum",
          "type": "uint256"
        }
      ],
      "name": "decreaseMaxMember",
      "outputs": [],
      "stateMutability": "nonpayable",
      "type": "function"
    },
    {
      "inputs": [
        {
          "internalType": "address",
          "name": "owner",
          "type": "address"
        },
        {
          "internalType": "address",
          "name": "spender",
          "type": "address"
        },
        {
          "internalType": "uint256",
          "name": "tonAmount",
          "type": "uint256"
        },
        {
          "internalType": "bytes",
          "name": "data",
          "type": "bytes"
        }
      ],
      "name": "onApprove",
      "outputs": [
        {
          "internalType": "bool",
          "name": "",
          "type": "bool"
        }
      ],
      "stateMutability": "nonpayable",
      "type": "function"
    },
    {
      "inputs": [
        {
          "internalType": "uint256",
          "name": "_quorum",
          "type": "uint256"
        }
      ],
      "name": "setQuorum",
      "outputs": [],
      "stateMutability": "nonpayable",
      "type": "function"
    },
    {
      "inputs": [
        {
          "internalType": "uint256",
          "name": "_fees",
          "type": "uint256"
        }
      ],
      "name": "setCreateAgendaFees",
      "outputs": [],
      "stateMutability": "nonpayable",
      "type": "function"
    },
    {
      "inputs": [
        {
          "internalType": "uint256",
          "name": "_minimumNoticePeriod",
          "type": "uint256"
        }
      ],
      "name": "setMinimumNoticePeriodSeconds",
      "outputs": [],
      "stateMutability": "nonpayable",
      "type": "function"
    },
    {
      "inputs": [
        {
          "internalType": "uint256",
          "name": "_minimumVotingPeriod",
          "type": "uint256"
        }
      ],
      "name": "setMinimumVotingPeriodSeconds",
      "outputs": [],
      "stateMutability": "nonpayable",
      "type": "function"
    },
    {
      "inputs": [
        {
          "internalType": "uint256",
          "name": "_agendaID",
          "type": "uint256"
        },
        {
          "internalType": "uint256",
          "name": "_vote",
          "type": "uint256"
        },
        {
          "internalType": "string",
          "name": "_comment",
          "type": "string"
        }
      ],
      "name": "castVote",
      "outputs": [],
      "stateMutability": "nonpayable",
      "type": "function"
    },
    {
      "inputs": [
        {
          "internalType": "uint256",
          "name": "_agendaID",
          "type": "uint256"
        }
      ],
      "name": "endAgendaVoting",
      "outputs": [],
      "stateMutability": "nonpayable",
      "type": "function"
    },
    {
      "inputs": [
        {
          "internalType": "uint256",
          "name": "_agendaID",
          "type": "uint256"
        }
      ],
      "name": "executeAgenda",
      "outputs": [],
      "stateMutability": "nonpayable",
      "type": "function"
    },
    {
      "inputs": [
        {
          "internalType": "uint256",
          "name": "_agendaID",
          "type": "uint256"
        },
        {
          "internalType": "uint256",
          "name": "_status",
          "type": "uint256"
        },
        {
          "internalType": "uint256",
          "name": "_result",
          "type": "uint256"
        }
      ],
      "name": "setAgendaStatus",
      "outputs": [],
      "stateMutability": "nonpayable",
      "type": "function"
    },
    {
      "inputs": [
        {
          "internalType": "address",
          "name": "_candidate",
          "type": "address"
        }
      ],
      "name": "updateSeigniorage",
      "outputs": [
        {
          "internalType": "bool",
          "name": "",
          "type": "bool"
        }
      ],
      "stateMutability": "nonpayable",
      "type": "function"
    },
    {
      "inputs": [
        {
          "internalType": "address[]",
          "name": "_candidates",
          "type": "address[]"
        }
      ],
      "name": "updateSeigniorages",
      "outputs": [
        {
          "internalType": "bool",
          "name": "",
          "type": "bool"
        }
      ],
      "stateMutability": "nonpayable",
      "type": "function"
    },
    {
      "inputs": [],
      "name": "claimActivityReward",
      "outputs": [],
      "stateMutability": "nonpayable",
      "type": "function"
    },
    {
      "inputs": [
        {
          "internalType": "address",
          "name": "_candidate",
          "type": "address"
        }
      ],
      "name": "isCandidate",
      "outputs": [
        {
          "internalType": "bool",
          "name": "",
          "type": "bool"
        }
      ],
      "stateMutability": "view",
      "type": "function",
      "constant": true
    },
    {
      "inputs": [
        {
          "internalType": "address",
          "name": "_candidate",
          "type": "address"
        }
      ],
      "name": "totalSupplyOnCandidate",
      "outputs": [
        {
          "internalType": "uint256",
          "name": "totalsupply",
          "type": "uint256"
        }
      ],
      "stateMutability": "view",
      "type": "function",
      "constant": true
    },
    {
      "inputs": [
        {
          "internalType": "address",
          "name": "_candidate",
          "type": "address"
        },
        {
          "internalType": "address",
          "name": "_account",
          "type": "address"
        }
      ],
      "name": "balanceOfOnCandidate",
      "outputs": [
        {
          "internalType": "uint256",
          "name": "amount",
          "type": "uint256"
        }
      ],
      "stateMutability": "view",
      "type": "function",
      "constant": true
    },
    {
      "inputs": [
        {
          "internalType": "address",
          "name": "_candidateContract",
          "type": "address"
        }
      ],
      "name": "totalSupplyOnCandidateContract",
      "outputs": [
        {
          "internalType": "uint256",
          "name": "totalsupply",
          "type": "uint256"
        }
      ],
      "stateMutability": "view",
      "type": "function",
      "constant": true
    },
    {
      "inputs": [
        {
          "internalType": "address",
          "name": "_candidateContract",
          "type": "address"
        },
        {
          "internalType": "address",
          "name": "_account",
          "type": "address"
        }
      ],
      "name": "balanceOfOnCandidateContract",
      "outputs": [
        {
          "internalType": "uint256",
          "name": "amount",
          "type": "uint256"
        }
      ],
      "stateMutability": "view",
      "type": "function",
      "constant": true
    },
    {
      "inputs": [],
      "name": "candidatesLength",
      "outputs": [
        {
          "internalType": "uint256",
          "name": "",
          "type": "uint256"
        }
      ],
      "stateMutability": "view",
      "type": "function",
      "constant": true
    },
    {
      "inputs": [
        {
          "internalType": "address",
          "name": "_candidate",
          "type": "address"
        }
      ],
      "name": "isExistCandidate",
      "outputs": [
        {
          "internalType": "bool",
          "name": "isExist",
          "type": "bool"
        }
      ],
      "stateMutability": "view",
      "type": "function",
      "constant": true
    },
    {
      "inputs": [
        {
          "internalType": "address",
          "name": "_candidate",
          "type": "address"
        }
      ],
      "name": "getClaimableActivityReward",
      "outputs": [
        {
          "internalType": "uint256",
          "name": "",
          "type": "uint256"
        }
      ],
      "stateMutability": "view",
      "type": "function",
      "constant": true
    }
  ],
  "bytecode": "0x608060405234801561001057600080fd5b50614f13806100206000396000f3fe608060405234801561001057600080fd5b506004361061038e5760003560e01c806369154295116101de578063a217fddf1161010f578063c4ef9c00116100ad578063d51b9e931161007c578063d51b9e9314610749578063d525f04f1461075c578063d547741f1461076f578063fce92894146107825761038e565b8063c4ef9c001461071e578063ca15c87314610726578063cc48b94714610739578063cf2a239c146107415761038e565b8063b4f69b6a116100e9578063b4f69b6a146106dd578063b5dd1158146106f0578063c0bc5304146106f8578063c1ba4e591461070b5761038e565b8063a217fddf146106af578063a230c524146106b7578063ad6675dc146106ca5761038e565b8063805aca201161017c5780638bf7a3ab116101565780638bf7a3ab1461066e5780639010d07c1461067657806391d14854146106895780639932e94c1461069c5761038e565b8063805aca2014610635578063885b46961461064857806389ea43001461065b5761038e565b80637657f20a116101b85780637657f20a146105ff578063773b7f651461061257806378767d331461061a5780637f3316361461062d5761038e565b806369154295146105d15780636da8f3ce146105e45780636fb7f558146105f75761038e565b806336568abe116102c3578063561a1dab116102615780635daf08ca116102305780635daf08ca146105855780635ebe7622146105985780635fba7a56146105ab578063651d08cd146105be5761038e565b8063561a1dab1461054457806357f0a867146105575780635903bd6c1461056a5780635c43030f146105725761038e565b806349c39f141161029d57806349c39f14146104f85780634b799db11461050b5780634d288fec1461051e57806350e8f17d146105315761038e565b806336568abe146104bf578063410439e8146104d25780634273ca16146104e55761038e565b8063248a9ca3116103305780632af60ff41161030a5780632af60ff4146104625780632e011c1e146104755780632f2ff15d146104995780633477ee2e146104ac5761038e565b8063248a9ca31461042757806324f99b1e1461043a57806327fd92fd1461044d5761038e565b806316f7f9821161036c57806316f7f982146103e65780631703a018146103f9578063216f486b1461040157806323d09fdf146104145761038e565b806303e3c9ac14610393578063047f52f2146103b157806311f19e04146103c6575b600080fd5b61039b610795565b6040516103a89190614556565b60405180910390f35b6103c46103bf366004613da4565b61079b565b005b6103d96103d436600461416d565b610813565b6040516103a8919061454b565b61039b6103f4366004613ddc565b610bd9565b61039b610d30565b6103c461040f36600461416d565b610d36565b6103c461042236600461416d565b610ffe565b61039b61043536600461416d565b6110d1565b6103c4610448366004614215565b6110e6565b610455611557565b6040516103a89190614372565b6103c4610470366004613da4565b611566565b610488610483366004613da4565b6115d5565b6040516103a8959493929190614467565b6103c46104a7366004614185565b61160e565b6104556104ba36600461416d565b611675565b6103c46104cd366004614185565b61169f565b6103c46104e0366004613e14565b611700565b6103d96104f3366004613e73565b61180c565b6103c4610506366004613da4565b611846565b6103c4610519366004613da4565b6118b5565b6103c461052c366004613da4565b611924565b6103c461053f3660046141a9565b611993565b6103d9610552366004613da4565b611b62565b6103d9610565366004613f30565b611b82565b610455611bc2565b6103c4610580366004613f6f565b611bd1565b61045561059336600461416d565b611cb9565b6103c46105a636600461416d565b611cc9565b6103c46105b93660046141ca565b611cf5565b6104556105cc366004613da4565b612076565b6103c46105df366004613f6f565b612094565b6103c46105f23660046141a9565b612176565b610455612203565b6103c461060d366004613da4565b612212565b61039b612281565b61039b610628366004613da4565b612287565b61039b6123d0565b6103c4610643366004614265565b6123d6565b6103c461065636600461416d565b6124de565b6103d9610669366004613da4565b61250e565b6103c4612599565b6104556106843660046141a9565b612683565b6103d9610697366004614185565b61269b565b61039b6106aa366004613da4565b6126b3565b61039b612745565b6103d96106c5366004613da4565b61274a565b61039b6106d8366004613da4565b61276a565b6103c46106eb36600461416d565b612781565b61045561281f565b6103c461070636600461416d565b61282e565b6103c461071936600461416d565b6128cc565b6103d96129bc565b61039b61073436600461416d565b612b9d565b610455612bb4565b610455612bc3565b6103d9610757366004613da4565b612bd2565b61039b61076a366004613ddc565b612cad565b6103c461077d366004614185565b612cc5565b6103c4610790366004613ee3565b612d1e565b60085481565b6107a660003361269b565b6107cb5760405162461bcd60e51b81526004016107c29061498c565b60405180910390fd5b6001600160a01b0381166107f15760405162461bcd60e51b81526004016107c2906148ff565b600380546001600160a01b0319166001600160a01b0392909216919091179055565b600080336001600160a01b0316636c8381f86040518163ffffffff1660e01b815260040160206040518083038186803b15801561084f57600080fd5b505afa158015610863573d6000803e3d6000fd5b505050506040513d601f19601f820116820180604052508101906108879190613dc0565b6001600160a01b0381166000908152600960209081526040918290208251631dffc87160e21b815292519394509233926377ff21c4926004808301939192829003018186803b1580156108d957600080fd5b505afa1580156108ed573d6000803e3d6000fd5b505050506040513d601f19601f82011682018060405250810190610911919061414d565b61092d5760405162461bcd60e51b81526004016107c290614b20565b600854841061094e5760405162461bcd60e51b81526004016107c290614aa5565b80546001600160a01b03166109755760405162461bcd60e51b81526004016107c290614a59565b6001810154156109975760405162461bcd60e51b81526004016107c2906147e0565b6000600785815481106109a657fe5b60009182526020822001546001600160a01b031691506109c582612076565b42600185015560028401879055600780549192508591889081106109e557fe5b600091825260209091200180546001600160a01b0319166001600160a01b039283161790558216610a4d57836001600160a01b031686600080516020614de683398151915284604051610a389190614372565b60405180910390a36001945050505050610bd4565b806001600160a01b031663817b1cd26040518163ffffffff1660e01b815260040160206040518083038186803b158015610a8657600080fd5b505afa158015610a9a573d6000803e3d6000fd5b505050506040513d601f19601f82011682018060405250810190610abe91906141fd565b336001600160a01b031663817b1cd26040518163ffffffff1660e01b815260040160206040518083038186803b158015610af757600080fd5b505afa158015610b0b573d6000803e3d6000fd5b505050506040513d601f19601f82011682018060405250810190610b2f91906141fd565b11610b4c5760405162461bcd60e51b81526004016107c290614602565b6001600160a01b038216600090815260096020526040812060028101919091556001810154610b8b90610b80904290612dfe565b600383015490612e40565b6003820155600060018201556040516001600160a01b038616908890600080516020614de683398151915290610bc2908790614372565b60405180910390a36001955050505050505b919050565b60006001600160a01b038316610c015760405162461bcd60e51b81526004016107c2906146c9565b600554604051634c063c1960e01b81526000916001600160a01b031690634c063c1990610c32908790600401614372565b60206040518083038186803b158015610c4a57600080fd5b505afa158015610c5e573d6000803e3d6000fd5b505050506040513d601f19601f82011682018060405250810190610c829190613dc0565b90506001600160a01b038116610caa5760405162461bcd60e51b81526004016107c290614ae9565b6040516370a0823160e01b81526001600160a01b038216906370a0823190610cd6908690600401614372565b60206040518083038186803b158015610cee57600080fd5b505afa158015610d02573d6000803e3d6000fd5b505050506040513d601f19601f82011682018060405250810190610d2691906141fd565b9150505b92915050565b600a5481565b6002546001600160a01b0316610d7d5760405162461bcd60e51b815260040180806020018281038252602c815260200180614e27602c913960400191505060405180910390fd5b6002546040516377f28d5b60e01b81526001600160a01b03909116906377f28d5b90610dad908490600401614556565b60206040518083038186803b158015610dc557600080fd5b505afa158015610dd9573d6000803e3d6000fd5b505050506040513d601f19601f82011682018060405250810190610dfd919061414d565b610e195760405162461bcd60e51b81526004016107c290614867565b6002546040516373ba374560e01b815260009182916001600160a01b03909116906373ba374590610e4e908690600401614556565b60006040518083038186803b158015610e6657600080fd5b505afa158015610e7a573d6000803e3d6000fd5b505050506040513d6000823e601f3d908101601f19168201604052610ea29190810190613fc3565b600254604051631b8c251960e11b81529294509092506001600160a01b0316906337184a3290610ed6908690600401614556565b600060405180830381600087803b158015610ef057600080fd5b505af1158015610f04573d6000803e3d6000fd5b5050505060005b8251811015610fc0576000838281518110610f2257fe5b60200260200101516001600160a01b0316838381518110610f3f57fe5b6020026020010151604051610f549190614356565b6000604051808303816000865af19150503d8060008114610f91576040519150601f19603f3d011682016040523d82523d6000602084013e610f96565b606091505b5050905080610fb75760405162461bcd60e51b81526004016107c290614b70565b50600101610f0b565b50827f785146be3266678a3f4ea454b310ff1f8c91d0ad9a7997bcd0619940d4d67fe683604051610ff19190614495565b60405180910390a2505050565b61100960003361269b565b6110255760405162461bcd60e51b81526004016107c29061498c565b6002546001600160a01b031661106c5760405162461bcd60e51b815260040180806020018281038252602c815260200180614e27602c913960400191505060405180910390fd5b6002546040516323d09fdf60e01b81526001600160a01b03909116906323d09fdf9061109c908490600401614556565b600060405180830381600087803b1580156110b657600080fd5b505af11580156110ca573d6000803e3d6000fd5b5050505050565b6000908152600c602052604090206002015490565b6002546001600160a01b031661112d5760405162461bcd60e51b815260040180806020018281038252602c815260200180614e27602c913960400191505060405180910390fd5b6000336001600160a01b0316636c8381f86040518163ffffffff1660e01b815260040160206040518083038186803b15801561116857600080fd5b505afa15801561117c573d6000803e3d6000fd5b505050506040513d601f19601f820116820180604052508101906111a09190613dc0565b600254604051637e77eb2360e01b81529192506001600160a01b031690637e77eb23906111d590889085908990600401614c0a565b602060405180830381600087803b1580156111ef57600080fd5b505af1158015611203573d6000803e3d6000fd5b505050506040513d601f19601f82011682018060405250810190611227919061414d565b50600254604051635772521560e11b8152600091829182916001600160a01b03169063aee4a42a9061125d908b90600401614556565b60606040518083038186803b15801561127557600080fd5b505afa158015611289573d6000803e3d6000fd5b505050506040513d601f19601f820116820180604052508101906112ad9190614290565b92509250925082600a541161138b57600254604051632b0a851b60e11b81526001600160a01b03909116906356150a36906112ef908b90600190600401614c29565b600060405180830381600087803b15801561130957600080fd5b505af115801561131d573d6000803e3d6000fd5b5050600254604051633625b75960e21b81526001600160a01b03909116925063d896dd649150611354908b90600390600401614c47565b600060405180830381600087803b15801561136e57600080fd5b505af1158015611382573d6000803e3d6000fd5b50505050611507565b81600a541161142a5760028054604051632b0a851b60e11b81526001600160a01b03909116916356150a36916113c5918c91600401614c29565b600060405180830381600087803b1580156113df57600080fd5b505af11580156113f3573d6000803e3d6000fd5b5050600254604051633625b75960e21b81526001600160a01b03909116925063d896dd649150611354908b90600590600401614c47565b6114348183612e40565b600a541161150757600254604051632b0a851b60e11b81526001600160a01b03909116906356150a369061146f908b90600390600401614c29565b600060405180830381600087803b15801561148957600080fd5b505af115801561149d573d6000803e3d6000fd5b5050600254604051633625b75960e21b81526001600160a01b03909116925063d896dd6491506114d4908b90600590600401614c47565b600060405180830381600087803b1580156114ee57600080fd5b505af1158015611502573d6000803e3d6000fd5b505050505b87336001600160a01b03167ffa0761008653bc7bf9fa040fb7e07672ad3e17a976eb452c44e81dd782a6214b89898960405161154593929190614c58565b60405180910390a35050505050505050565b6002546001600160a01b031681565b61157160003361269b565b61158d5760405162461bcd60e51b81526004016107c29061498c565b6001600160a01b0381166115b35760405162461bcd60e51b81526004016107c2906148ff565b600480546001600160a01b0319166001600160a01b0392909216919091179055565b600960205260009081526040902080546001820154600283015460038401546004909401546001600160a01b0390931693919290919085565b6000828152600c602052604090206002015461162c90610697612e9a565b6116675760405162461bcd60e51b815260040180806020018281038252602f815260200180614d37602f913960400191505060405180910390fd5b6116718282612e9e565b5050565b6006818154811061168557600080fd5b6000918252602090912001546001600160a01b0316905081565b6116a7612e9a565b6001600160a01b0316816001600160a01b0316146116f65760405162461bcd60e51b815260040180806020018281038252602f815260200180614eaf602f913960400191505060405180910390fd5b6116718282612f07565b61170b60003361269b565b6117275760405162461bcd60e51b81526004016107c29061498c565b6005546001600160a01b031661176e5760405162461bcd60e51b815260040180806020018281038252602b815260200180614e84602b913960400191505060405180910390fd5b6004546001600160a01b03166117b55760405162461bcd60e51b815260040180806020018281038252602d815260200180614d89602d913960400191505060405180910390fd5b6003546001600160a01b03166117fc5760405162461bcd60e51b8152600401808060200182810382526031815260200180614e536031913960400191505060405180910390fd5b611807838383612f70565b505050565b60008061181984846133a9565b90506118388782600001518360200151846040015185606001516133d4565b506001979650505050505050565b61185160003361269b565b61186d5760405162461bcd60e51b81526004016107c29061498c565b6001600160a01b0381166118935760405162461bcd60e51b81526004016107c2906148ff565b600280546001600160a01b0319166001600160a01b0392909216919091179055565b6118c060003361269b565b6118dc5760405162461bcd60e51b81526004016107c29061498c565b6001600160a01b0381166119025760405162461bcd60e51b81526004016107c2906148ff565b600180546001600160a01b0319166001600160a01b0392909216919091179055565b61192f60003361269b565b61194b5760405162461bcd60e51b81526004016107c29061498c565b6001600160a01b0381166119715760405162461bcd60e51b81526004016107c2906148ff565b600080546001600160a01b0319166001600160a01b0392909216919091179055565b61199e60003361269b565b6119ba5760405162461bcd60e51b81526004016107c29061498c565b6000600783815481106119c957fe5b60009182526020808320909101546001600160a01b03168083526009909152604090912060075491925090600019018414611a865760078054600091906000198101908110611a1457fe5b60009182526020808320909101546001600160a01b0316808352600990915260409091206002810187905560078054929350909183919088908110611a5557fe5b9060005260206000200160006101000a8154816001600160a01b0302191690836001600160a01b0316021790555050505b600060028201556001810154611aa190610b80904290612dfe565b6003820155600060018201556007805480611ab857fe5b600082815260209020810160001990810180546001600160a01b0319169055019055600854611ae8906001612dfe565b600855611af4836128cc565b60006001600160a01b031684600080516020614de683398151915284604051611b1d9190614372565b60405180910390a3600854611b33816001612e40565b6040517f8c0366d1e3a335a312d012257ee764723c38ec2dd5e74cbfad372513521f977190600090a350505050565b6001600160a01b0390811660009081526009602052604090205416151590565b6000805b82811015611bbb57611bb2848483818110611b9d57fe5b90506020020160208101906106699190613da4565b50600101611b86565b5092915050565b6001546001600160a01b031681565b611bdc60003361269b565b611bf85760405162461bcd60e51b81526004016107c29061498c565b6001600160a01b038116611c1e5760405162461bcd60e51b81526004016107c2906148ff565b60005b82811015611cb357838382818110611c3557fe5b9050602002016020810190611c4a9190613da4565b6001600160a01b031663bddae40e836040518263ffffffff1660e01b8152600401611c759190614372565b600060405180830381600087803b158015611c8f57600080fd5b505af1158015611ca3573d6000803e3d6000fd5b505060019092019150611c219050565b50505050565b6007818154811061168557600080fd5b611cd460003361269b565b611cf05760405162461bcd60e51b81526004016107c29061498c565b600b55565b6005546001600160a01b0316611d3c5760405162461bcd60e51b815260040180806020018281038252602b815260200180614e84602b913960400191505060405180910390fd5b6004546001600160a01b0316611d835760405162461bcd60e51b815260040180806020018281038252602d815260200180614d89602d913960400191505060405180910390fd5b6003546001600160a01b0316611dca5760405162461bcd60e51b8152600401808060200182810382526031815260200180614e536031913960400191505060405180910390fd5b611dd333611b62565b15611df05760405162461bcd60e51b81526004016107c290614a10565b60035460055460405163732518fb60e11b81526000926001600160a01b039081169263e64a31f692611e3192339287928a928a923092911690600401614386565b602060405180830381600087803b158015611e4b57600080fd5b505af1158015611e5f573d6000803e3d6000fd5b505050506040513d601f19601f82011682018060405250810190611e839190613dc0565b90506001600160a01b038116611eab5760405162461bcd60e51b81526004016107c290614817565b60048054600554604051635e58d38f60e11b81526001600160a01b039283169363bcb1a71e93611ee0938793911691016143e5565b602060405180830381600087803b158015611efa57600080fd5b505af1158015611f0e573d6000803e3d6000fd5b505050506040513d601f19601f82011682018060405250810190611f32919061414d565b611f4e5760405162461bcd60e51b81526004016107c2906148af565b336000908152600960205260409020546001600160a01b031615611f845760405162461bcd60e51b81526004016107c29061474a565b6040805160a0810182526001600160a01b038084168083526000602080850182815285870183815260608701848152608088018581523380875260099095528986209851895498166001600160a01b031998891617895592516001808a01919091559151600289015551600388015590516004909601959095556006805495860181559091527ff652222313e28459528d920b65115c16c04f3efc82aaedc97be59f3f377c0d3f9093018054909216831790915591517f7cf8db18d9a5c7f44156bfabdbb59ac982a8a004e461ca1b87ee71a5cdfbc5ef90612069908790879061455f565b60405180910390a3505050565b6001600160a01b039081166000908152600960205260409020541690565b61209f60003361269b565b6120bb5760405162461bcd60e51b81526004016107c29061498c565b6001600160a01b0381166120e15760405162461bcd60e51b81526004016107c2906148ff565b60005b82811015611cb3578383828181106120f857fe5b905060200201602081019061210d9190613da4565b6001600160a01b0316637657f20a836040518263ffffffff1660e01b81526004016121389190614372565b600060405180830381600087803b15801561215257600080fd5b505af1158015612166573d6000803e3d6000fd5b5050600190920191506120e49050565b61218160003361269b565b61219d5760405162461bcd60e51b81526004016107c29061498c565b81600854106121be5760405162461bcd60e51b81526004016107c290614925565b6008546040518391907f8c0366d1e3a335a312d012257ee764723c38ec2dd5e74cbfad372513521f977190600090a360088290556121fa613502565b611671816128cc565b6005546001600160a01b031681565b61221d60003361269b565b6122395760405162461bcd60e51b81526004016107c29061498c565b6001600160a01b03811661225f5760405162461bcd60e51b81526004016107c2906148ff565b600580546001600160a01b0319166001600160a01b0392909216919091179055565b60065490565b60006001600160a01b0382166122af5760405162461bcd60e51b81526004016107c2906146c9565b600554604051634c063c1960e01b81526000916001600160a01b031690634c063c19906122e0908690600401614372565b60206040518083038186803b1580156122f857600080fd5b505afa15801561230c573d6000803e3d6000fd5b505050506040513d601f19601f820116820180604052508101906123309190613dc0565b90506001600160a01b0381166123585760405162461bcd60e51b81526004016107c290614ae9565b806001600160a01b03166318160ddd6040518163ffffffff1660e01b815260040160206040518083038186803b15801561239157600080fd5b505afa1580156123a5573d6000803e3d6000fd5b505050506040513d601f19601f820116820180604052508101906123c991906141fd565b9392505050565b600b5481565b6123e160003361269b565b6123fd5760405162461bcd60e51b81526004016107c29061498c565b6002546001600160a01b03166356150a368483600381111561241b57fe5b6040518363ffffffff1660e01b8152600401612438929190614c29565b600060405180830381600087803b15801561245257600080fd5b505af1158015612466573d6000803e3d6000fd5b50506002546001600160a01b0316915063d896dd6490508484600581111561248a57fe5b6040518363ffffffff1660e01b81526004016124a7929190614c47565b600060405180830381600087803b1580156124c157600080fd5b505af11580156124d5573d6000803e3d6000fd5b50505050505050565b60025460405163442da34b60e11b81526001600160a01b039091169063885b46969061109c908490600401614556565b6001600160a01b038082166000908152600960209081526040808320548151633b253c2b60e11b8152915193941692839263764a7856926004808201939182900301818887803b15801561256157600080fd5b505af1158015612575573d6000803e3d6000fd5b505050506040513d601f19601f820116820180604052508101906123c9919061414d565b336000818152600960205260408120916125b2906126b3565b9050600081116125d45760405162461bcd60e51b81526004016107c290614700565b600154604051633bc3556560e21b81526001600160a01b039091169063ef0d55949061260690339085906004016143cc565b600060405180830381600087803b15801561262057600080fd5b505af1158015612634573d6000803e3d6000fd5b505042600485015550506000600383015560405133907fe013459a1c3162ae04cb4b22feaa126a5d302e283c7333f41d1ebe1b2cd7384b90612677908490614556565b60405180910390a25050565b6000828152600c602052604081206123c9908361355a565b6000828152600c602052604081206123c99083613566565b6001600160a01b0381166000908152600960205260408120600381015460018201541561272f578160040154826001015411156127125761270b612704836001015442612dfe90919063ffffffff16565b8290612e40565b905061272f565b61272c612704836004015442612dfe90919063ffffffff16565b90505b600b5461273d90829061357b565b949350505050565b600081565b6001600160a01b0316600090815260096020526040902060010154151590565b60008061277683612076565b90506123c981612287565b61278c60003361269b565b6127a85760405162461bcd60e51b81526004016107c29061498c565b6002546001600160a01b03166127ef5760405162461bcd60e51b815260040180806020018281038252602c815260200180614e27602c913960400191505060405180910390fd5b600254604051635a7b4db560e11b81526001600160a01b039091169063b4f69b6a9061109c908490600401614556565b6003546001600160a01b031681565b61283960003361269b565b6128555760405162461bcd60e51b81526004016107c29061498c565b6002546001600160a01b031661289c5760405162461bcd60e51b815260040180806020018281038252602c815260200180614e27602c913960400191505060405180910390fd5b60025460405163302f14c160e21b81526001600160a01b039091169063c0bc53049061109c908490600401614556565b6128d760003361269b565b6128f35760405162461bcd60e51b81526004016107c29061498c565b6002546001600160a01b031661293a5760405162461bcd60e51b815260040180806020018281038252602c815260200180614e27602c913960400191505060405180910390fd5b6000811161295a5760405162461bcd60e51b81526004016107c290614586565b60085481111561297c5760405162461bcd60e51b81526004016107c29061462d565b600a8190556040517f027863d12a407097e086a48e36475bfc859d0b200b7e6f65b5fd3b218e46632e906129b1908390614556565b60405180910390a150565b600080336001600160a01b0316636c8381f86040518163ffffffff1660e01b815260040160206040518083038186803b1580156129f857600080fd5b505afa158015612a0c573d6000803e3d6000fd5b505050506040513d6020811015612a2257600080fd5b50519050612a2f8161274a565b612a6a5760405162461bcd60e51b8152600401808060200182810382526023815260200180614d666023913960400191505060405180910390fd5b6000336001600160a01b0316636c8381f86040518163ffffffff1660e01b815260040160206040518083038186803b158015612aa557600080fd5b505afa158015612ab9573d6000803e3d6000fd5b505050506040513d601f19601f82011682018060405250810190612add9190613dc0565b6001600160a01b038116600090815260096020526040812060028101546007805494955091938110612b0b57fe5b9060005260206000200160006101000a8154816001600160a01b0302191690836001600160a01b03160217905550612b53610b80826001015442612dfe90919063ffffffff16565b60038201556000600182018190556002820154604051600080516020614de683398151915290612b84908690614372565b60405180910390a3600060029091015550600191505090565b6000818152600c60205260408120610d2a906135d4565b6000546001600160a01b031681565b6004546001600160a01b031681565b6001600160a01b03808216600090815260096020526040812080549192909116612c00576000915050610bd4565b8054600090612c1f906001600160a01b0316631dffc87160e21b6135df565b905080612c3157600092505050610bd4565b815460408051631dffc87160e21b815290516001600160a01b03909216916377ff21c491600480820192602092909190829003018186803b158015612c7557600080fd5b505afa158015612c89573d6000803e3d6000fd5b505050506040513d601f19601f8201168201806040525081019061273d919061414d565b600080612cb984612076565b9050610d268184610bd9565b6000828152600c6020526040902060020154612ce390610697612e9a565b6116f65760405162461bcd60e51b8152600401808060200182810382526030815260200180614db66030913960400191505060405180910390fd5b6005546001600160a01b0316612d655760405162461bcd60e51b815260040180806020018281038252602b815260200180614e84602b913960400191505060405180910390fd5b6004546001600160a01b0316612dac5760405162461bcd60e51b815260040180806020018281038252602d815260200180614d89602d913960400191505060405180910390fd5b6003546001600160a01b0316612df35760405162461bcd60e51b8152600401808060200182810382526031815260200180614e536031913960400191505060405180910390fd5b611671338383612f70565b60006123c983836040518060400160405280601e81526020017f536166654d6174683a207375627472616374696f6e206f766572666c6f7700008152506135fb565b6000828201838110156123c9576040805162461bcd60e51b815260206004820152601b60248201527f536166654d6174683a206164646974696f6e206f766572666c6f770000000000604482015290519081900360640190fd5b3390565b6000828152600c60205260409020612eb69082613692565b1561167157612ec3612e9a565b6001600160a01b0316816001600160a01b0316837f2f8788117e7eff1d82e926ec794901d17c78024a50270940304540a733656f0d60405160405180910390a45050565b6000828152600c60205260409020612f1f90826136a7565b1561167157612f2c612e9a565b6001600160a01b0316816001600160a01b0316837ff6391f5c32d9c69d2a47ea670b442974b53935d1edc7fd64eb21e047a839171b60405160405180910390a45050565b6005546001600160a01b0316612fb75760405162461bcd60e51b815260040180806020018281038252602b815260200180614e84602b913960400191505060405180910390fd5b6004546001600160a01b0316612ffe5760405162461bcd60e51b815260040180806020018281038252602d815260200180614d89602d913960400191505060405180910390fd5b6003546001600160a01b03166130455760405162461bcd60e51b8152600401808060200182810382526031815260200180614e536031913960400191505060405180910390fd5b61304e82611b62565b1561306b5760405162461bcd60e51b81526004016107c290614a10565b6001600160a01b0382166130915760405162461bcd60e51b81526004016107c290614817565b6001600160a01b0382811660009081526009602052604090205416156130c95760405162461bcd60e51b81526004016107c290614bba565b6000829050806001600160a01b031663882eed2c6040518163ffffffff1660e01b815260040160206040518083038186803b15801561310757600080fd5b505afa15801561311b573d6000803e3d6000fd5b505050506040513d601f19601f8201168201806040525081019061313f919061414d565b61315b5760405162461bcd60e51b81526004016107c2906145bd565b836001600160a01b0316816001600160a01b031663570ca7356040518163ffffffff1660e01b815260040160206040518083038186803b15801561319e57600080fd5b505afa1580156131b2573d6000803e3d6000fd5b505050506040513d601f19601f820116820180604052508101906131d69190613dc0565b6001600160a01b0316146131fc5760405162461bcd60e51b81526004016107c2906149d9565b60035460055460405163732518fb60e11b81526000926001600160a01b039081169263e64a31f69261323b9289926001928a9230921690600401614423565b602060405180830381600087803b15801561325557600080fd5b505af1158015613269573d6000803e3d6000fd5b505050506040513d601f19601f8201168201806040525081019061328d9190613dc0565b90506001600160a01b0381166132b55760405162461bcd60e51b81526004016107c290614817565b6040805160a0810182526001600160a01b038084168083526000602080850182815285870183815260608701848152608088018581528d881680875260099095528986209851895498166001600160a01b031998891617895592516001808a01919091559151600289015551600388015590516004909601959095556006805495860181559091527ff652222313e28459528d920b65115c16c04f3efc82aaedc97be59f3f377c0d3f9093018054909216831790915591517f574651c4b47831128b9ed5b0c878675fc9c8e14d7119b755a31c7fef6065e9709061339a908790614573565b60405180910390a35050505050565b6133b1613b99565b6133bd8284018461407b565b606085015260408401526020830152815292915050565b6002546000906001600160a01b031661341e5760405162461bcd60e51b815260040180806020018281038252602c815260200180614e27602c913960400191505060405180910390fd5b613427866136bc565b60025460405163d30bbcbf60e01b81526000916001600160a01b03169063d30bbcbf9061345e9089908990899089906004016144cd565b602060405180830381600087803b15801561347857600080fd5b505af115801561348c573d6000803e3d6000fd5b505050506040513d601f19601f820116820180604052508101906134b091906141fd565b905080876001600160a01b03167fb0c20bab69de391cff8f119cf876e708b1b41868e0fd397cbcd2b4d3c623b5b88888886040516134f0939291906144a8565b60405180910390a39695505050505050565b6007545b6008548110156135575760078054600181810183556000929092527fa66cc928b5edb82af9bd49922954155ab7b0942694bea4ce44661d9a8736c6880180546001600160a01b031916905501613506565b50565b60006123c9838361387d565b60006123c9836001600160a01b0384166138e1565b60008261358a57506000610d2a565b8282028284828161359757fe5b04146123c95760405162461bcd60e51b8152600401808060200182810382526021815260200180614e066021913960400191505060405180910390fd5b6000610d2a826138f9565b60006135ea836138fd565b80156123c957506123c98383613930565b6000818484111561368a5760405162461bcd60e51b81526004018080602001828103825283818151815260200191508051906020019080838360005b8381101561364f578181015183820152602001613637565b50505050905090810190601f16801561367c5780820380516001836020036101000a031916815260200191505b509250505060405180910390fd5b505050900390565b60006123c9836001600160a01b038416613956565b60006123c9836001600160a01b0384166139a0565b60025460408051632522a32f60e01b815290516000926001600160a01b031691632522a32f916004808301926020929190829003018186803b15801561370157600080fd5b505afa158015613715573d6000803e3d6000fd5b505050506040513d601f19601f8201168201806040525081019061373991906141fd565b6000546040516323b872dd60e01b81529192506001600160a01b0316906323b872dd9061376e908590309086906004016143ff565b602060405180830381600087803b15801561378857600080fd5b505af115801561379c573d6000803e3d6000fd5b505050506040513d601f19601f820116820180604052508101906137c0919061414d565b6137dc5760405162461bcd60e51b81526004016107c290614673565b60005460405163a9059cbb60e01b81526001600160a01b039091169063a9059cbb9061380f9060019085906004016143cc565b602060405180830381600087803b15801561382957600080fd5b505af115801561383d573d6000803e3d6000fd5b505050506040513d601f19601f82011682018060405250810190613861919061414d565b6116715760405162461bcd60e51b81526004016107c29061479f565b815460009082106138bf5760405162461bcd60e51b8152600401808060200182810382526022815260200180614d156022913960400191505060405180910390fd5b8260000182815481106138ce57fe5b9060005260206000200154905092915050565b60009081526001919091016020526040902054151590565b5490565b6000613910826301ffc9a760e01b613930565b8015610d2a5750613929826001600160e01b0319613930565b1592915050565b600080600061393f8585613a66565b9150915081801561394d5750805b95945050505050565b600061396283836138e1565b61399857508154600181810184556000848152602080822090930184905584548482528286019093526040902091909155610d2a565b506000610d2a565b60008181526001830160205260408120548015613a5c57835460001980830191908101906000908790839081106139d357fe5b90600052602060002001549050808760000184815481106139f057fe5b600091825260208083209091019290925582815260018981019092526040902090840190558654879080613a2057fe5b60019003818190600052602060002001600090559055866001016000878152602001908152602001600020600090556001945050505050610d2a565b6000915050610d2a565b604080516001600160e01b0319831660248083019190915282518083039091018152604490910182526020810180516001600160e01b03166301ffc9a760e01b17815291518151600093849392849283926001600160a01b038a169261753092879282918083835b60208310613aed5780518252601f199092019160209182019101613ace565b6001836020036101000a0380198251168184511680821785525050505050509050019150506000604051808303818686fa925050503d8060008114613b4e576040519150601f19603f3d011682016040523d82523d6000602084013e613b53565b606091505b5091509150602081511015613b715760008094509450505050613b92565b81818060200190516020811015613b8757600080fd5b505190955093505050505b9250929050565b6040518060800160405280606081526020016000815260200160008152602001606081525090565b6000613bd4613bcf84614cb2565b614c72565b9050828152838383011115613be857600080fd5b828260208301376000602084830101529392505050565b60008083601f840112613c10578182fd5b5081356001600160401b03811115613c26578182fd5b6020830191508360208083028501011115613b9257600080fd5b600082601f830112613c50578081fd5b81356020613c60613bcf83614c95565b82815281810190858301855b85811015613caa578135880189603f820112613c86578788fd5b613c978a8783013560408401613bc1565b8552509284019290840190600101613c6c565b5090979650505050505050565b600082601f830112613cc7578081fd5b81516020613cd7613bcf83614c95565b82815281810190858301855b85811015613caa578151880189603f820112613cfd578788fd5b858101516040613d0f613bcf83614cb2565b8281528c82848601011115613d22578a8bfd5b613d31838a8301848701614cd3565b87525050509284019290840190600101613ce3565b60008083601f840112613d57578182fd5b5081356001600160401b03811115613d6d578182fd5b602083019150836020828501011115613b9257600080fd5b600082601f830112613d95578081fd5b6123c983833560208501613bc1565b600060208284031215613db5578081fd5b81356123c981614cff565b600060208284031215613dd1578081fd5b81516123c981614cff565b60008060408385031215613dee578081fd5b8235613df981614cff565b91506020830135613e0981614cff565b809150509250929050565b600080600060608486031215613e28578081fd5b8335613e3381614cff565b92506020840135613e4381614cff565b915060408401356001600160401b03811115613e5d578182fd5b613e6986828701613d85565b9150509250925092565b600080600080600060808688031215613e8a578283fd5b8535613e9581614cff565b94506020860135613ea581614cff565b93506040860135925060608601356001600160401b03811115613ec6578182fd5b613ed288828901613d46565b969995985093965092949392505050565b60008060408385031215613ef5578182fd5b8235613f0081614cff565b915060208301356001600160401b03811115613f1a578182fd5b613f2685828601613d85565b9150509250929050565b60008060208385031215613f42578182fd5b82356001600160401b03811115613f57578283fd5b613f6385828601613bff565b90969095509350505050565b600080600060408486031215613f83578081fd5b83356001600160401b03811115613f98578182fd5b613fa486828701613bff565b9094509250506020840135613fb881614cff565b809150509250925092565b60008060408385031215613fd5578182fd5b82516001600160401b0380821115613feb578384fd5b818501915085601f830112613ffe578384fd5b8151602061400e613bcf83614c95565b82815281810190858301838502870184018b101561402a578889fd5b8896505b8487101561405557805161404181614cff565b83526001969096019591830191830161402e565b509188015191965090935050508082111561406e578283fd5b50613f2685828601613cb7565b60008060008060808587031215614090578182fd5b84356001600160401b03808211156140a6578384fd5b818701915087601f8301126140b9578384fd5b813560206140c9613bcf83614c95565b82815281810190858301838502870184018d10156140e5578889fd5b8896505b848710156141105780356140fc81614cff565b8352600196909601959183019183016140e9565b50985050880135955050604087013593506060870135915080821115614134578283fd5b5061414187828801613c40565b91505092959194509250565b60006020828403121561415e578081fd5b815180151581146123c9578182fd5b60006020828403121561417e578081fd5b5035919050565b60008060408385031215614197578182fd5b823591506020830135613e0981614cff565b600080604083850312156141bb578182fd5b50508035926020909101359150565b600080602083850312156141dc578182fd5b82356001600160401b038111156141f1578283fd5b613f6385828601613d46565b60006020828403121561420e578081fd5b5051919050565b6000806000806060858703121561422a578182fd5b843593506020850135925060408501356001600160401b0381111561424d578283fd5b61425987828801613d46565b95989497509550505050565b600080600060608486031215614279578081fd5b505081359360208301359350604090920135919050565b6000806000606084860312156142a4578081fd5b8351925060208401519150604084015190509250925092565b6000815180845260208085019450808401835b838110156142f55781516001600160a01b0316875295820195908201906001016142d0565b509495945050505050565b60008151808452614318816020860160208601614cd3565b601f01601f19169290920160200192915050565b60008284528282602086013780602084860101526020601f19601f85011685010190509392505050565b60008251614368818460208701614cd3565b9190910192915050565b6001600160a01b0391909116815260200190565b600060018060a01b038089168352871515602084015260a060408401526143b160a08401878961432c565b94811660608401529290921660809091015250949350505050565b6001600160a01b03929092168252602082015260400190565b6001600160a01b0392831681529116602082015260400190565b6001600160a01b039384168152919092166020820152604081019190915260600190565b600060018060a01b038088168352861515602084015260a0604084015261444d60a0840187614300565b948116606084015292909216608090910152509392505050565b6001600160a01b03959095168552602085019390935260408401919091526060830152608082015260a00190565b6000602082526123c960208301846142bd565b6000606082526144bb60608301866142bd565b60208301949094525060400152919050565b6000608082526144e060808301876142bd565b602086818501528560408501528382036060850152818551808452828401915082838202850101838801865b8381101561453a57601f19878403018552614528838351614300565b9486019492509085019060010161450c565b50909b9a5050505050505050505050565b901515815260200190565b90815260200190565b60006020825261273d60208301848661432c565b6000602082526123c96020830184614300565b6020808252601c908201527f44414f436f6d6d69747465653a20696e76616c69642071756f72756d00000000604082015260600190565b60208082526025908201527f44414f436f6d6d69747465653a20696e76616c6964206c617965723220636f6e6040820152641d1c9858dd60da1b606082015260800190565b6020808252601190820152701b9bdd08195b9bdd59da08185b5bdd5b9d607a1b604082015260600190565b60208082526026908201527f44414f436f6d6d69747465653a2071756f72756d20657863656564206d61782060408201526536b2b6b132b960d11b606082015260800190565b60208082526036908201527f44414f436f6d6d697474656553746f72653a206661696c656420746f207472616040820152753739b332b9103a37b710333937b69031b932b0ba37b960511b606082015260800190565b6020808252601f908201527f54686973206163636f756e74206973206e6f7420612063616e64696461746500604082015260600190565b6020808252602a908201527f44414f436f6d6d69747465653a20796f7520646f6e2774206861766520636c6160408201526934b6b0b13632903a37b760b11b606082015260800190565b60208082526035908201527f44414f436f6d6d697474656553746f72653a205468652063616e64696461746560408201527408185b1c9958591e481a185cc818dbdb9d1c9858dd605a1b606082015260800190565b60208082526021908201527f44414f436f6d6d697474656553746f72653a206661696c656420746f206275726040820152603760f91b606082015260800190565b6020808252601c908201527f44414f436f6d6d69747465653a20616c7265616479206d656d62657200000000604082015260600190565b60208082526030908201527f44414f436f6d6d69747465653a206465706c6f7965642063616e64696461746560408201526f436f6e7472616374206973207a65726f60801b606082015260800190565b60208082526028908201527f44414f436f6d6d69747465653a2063616e206e6f74206578656375746520746860408201526765206167656e646160c01b606082015260800190565b60208082526030908201527f44414f436f6d6d69747465653a206661696c656420746f20726567697374657260408201526f416e644465706c6f79436f696e61676560801b606082015260800190565b6020808252600c908201526b7a65726f206164647265737360a01b604082015260600190565b60208082526041908201527f44414f436f6d6d697474656553746f72653a20596f75206861766520746f206360408201527f616c6c2064656372656173654d61784d656d62657220746f20646563726561736060820152606560f81b608082015260a00190565b6020808252602d908201527f44414f436f6d6d697474656550726f78793a206d73672e73656e64657220697360408201526c103737ba1030b71030b236b4b760991b606082015260800190565b6020808252601e908201527f44414f436f6d6d69747465653a20696e76616c6964206f70657261746f720000604082015260600190565b60208082526029908201527f44414f436f6d6d69747465653a2063616e64696461746520616c7265616479206040820152681c9959da5cdd195c9960ba1b606082015260800190565b6020808252602c908201527f44414f436f6d6d69747465653a205468652061646472657373206973206e6f7460408201526b20612063616e64696461746560a01b606082015260800190565b60208082526024908201527f44414f436f6d6d69747465653a20696e646578206973206e6f7420617661696c60408201526361626c6560e01b606082015260800190565b6020808252601d908201527f44414f436f6d6d69747465653a20636f696e616765206973207a65726f000000604082015260600190565b60208082526030908201527f44414f436f6d6d69747465653a2073656e646572206973206e6f74206120636160408201526f1b991a59185d194818dbdb9d1c9858dd60821b606082015260800190565b6020808252602a908201527f44414f436f6d6d69747465653a204661696c656420746f206578656375746520604082015269746865206167656e646160b01b606082015260800190565b60208082526030908201527f44414f436f6d6d69747465653a205468652063616e64696461746520616c726560408201526f18591e481a185cc818dbdb9d1c9858dd60821b606082015260800190565b9283526001600160a01b03919091166020830152604082015260600190565b8281526040810160048310614c3a57fe5b8260208301529392505050565b8281526040810160068310614c3a57fe5b60008482526040602083015261394d60408301848661432c565b6040518181016001600160401b0381118282101715614c8d57fe5b604052919050565b60006001600160401b03821115614ca857fe5b5060209081020190565b60006001600160401b03821115614cc557fe5b50601f01601f191660200190565b60005b83811015614cee578181015183820152602001614cd6565b83811115611cb35750506000910152565b6001600160a01b038116811461355757600080fdfe456e756d657261626c655365743a20696e646578206f7574206f6620626f756e6473416363657373436f6e74726f6c3a2073656e646572206d75737420626520616e2061646d696e20746f206772616e7453746f726167655374617465436f6d6d69747465653a206e6f742061206d656d62657253746f726167655374617465436f6d6d69747465653a20756e76616c6964204c61796572325265676973747279416363657373436f6e74726f6c3a2073656e646572206d75737420626520616e2061646d696e20746f207265766f6b65663b98adf1afa777e36528b3293a057803f87ed00d2d2518dccfe5d7a6e99ccf536166654d6174683a206d756c7469706c69636174696f6e206f766572666c6f7753746f726167655374617465436f6d6d69747465653a204167656e64614d616e61676572206973207a65726f53746f726167655374617465436f6d6d69747465653a20756e76616c696420436f6d6d69747465654c32466163746f727953746f726167655374617465436f6d6d69747465653a20756e76616c696420536569674d616e6167657265416363657373436f6e74726f6c3a2063616e206f6e6c792072656e6f756e636520726f6c657320666f722073656c66a26469706673582212209aa94c5310e8fbeab538619610f397cfdf3596136fa243be0e906303943301f564736f6c63430007060033",
  "immutableReferences": {},
  "source": "// SPDX-License-Identifier: MIT\npragma solidity ^0.7.6;\npragma abicoder v2;\n\n//import \"../../node_modules/@openzeppelin/contracts/access/Ownable.sol\";\nimport \"../../node_modules/@openzeppelin/contracts/access/AccessControl.sol\";\nimport \"./StorageStateCommittee.sol\";\n\nimport { SafeMath } from \"../../node_modules/@openzeppelin/contracts/math/SafeMath.sol\";\nimport { IERC20 } from  \"../../node_modules/@openzeppelin/contracts/token/ERC20/IERC20.sol\";\nimport { ICandidate } from \"../interfaces/ICandidate.sol\";\nimport { ILayer2 } from \"../interfaces/ILayer2.sol\";\nimport { IDAOAgendaManager } from \"../interfaces/IDAOAgendaManager.sol\";\nimport { LibAgenda } from \"../lib/Agenda.sol\";\nimport { ERC165Checker } from \"../../node_modules/@openzeppelin/contracts/introspection/ERC165Checker.sol\";\n\ncontract DAOCommittee is StorageStateCommittee, AccessControl {\n    using SafeMath for uint256;\n    using LibAgenda for *;\n     \n    enum ApplyResult { NONE, SUCCESS, NOT_ELECTION, ALREADY_COMMITTEE, SLOT_INVALID, ADDMEMBER_FAIL, LOW_BALANCE }\n\n    struct AgendaCreatingData {\n        address[] target;\n        uint256 noticePeriodSeconds;\n        uint256 votingPeriodSeconds;\n        bytes[] functionBytecode;\n    }\n\n    //////////////////////////////\n    // Events\n    //////////////////////////////\n\n    event QuorumChanged(\n        uint256 newQuorum\n    );\n\n    event AgendaCreated(\n        address indexed from,\n        uint256 indexed id,\n        address[] targets,\n        uint256 noticePeriodSeconds,\n        uint256 votingPeriodSeconds\n    );\n\n    event AgendaVoteCasted(\n        address indexed from,\n        uint256 indexed id,\n        uint voting,\n        string comment\n    );\n\n    event AgendaExecuted(\n        uint256 indexed id,\n        address[] target\n    );\n\n    event CandidateContractCreated(\n        address indexed candidate,\n        address indexed candidateContract,\n        string memo\n    );\n\n    event OperatorRegistered(\n        address indexed candidate,\n        address indexed candidateContract,\n        string memo\n    );\n\n    event ChangedMember(\n        uint256 indexed slotIndex,\n        address prevMember,\n        address indexed newMember\n    );\n\n    event ChangedSlotMaximum(\n        uint256 indexed prevSlotMax,\n        uint256 indexed slotMax\n    );\n\n    event ClaimedActivityReward(\n        address indexed candidate,\n        uint256 amount\n    );\n\n    modifier onlyOwner() {\n        require(hasRole(DEFAULT_ADMIN_ROLE, msg.sender), \"DAOCommitteeProxy: msg.sender is not an admin\");\n        _;\n    }\n\n    //////////////////////////////////////////////////////////////////////\n    // setters\n\n    /// @notice Set SeigManager contract address\n    /// @param _seigManager New SeigManager contract address\n    function setSeigManager(address _seigManager) public onlyOwner {\n        require(_seigManager != address(0), \"zero address\");\n        seigManager = ISeigManager(_seigManager);\n    }\n     \n    /// @notice Set SeigManager contract address on candidate contracts\n    /// @param _candidateContracts Candidate contracts to be set\n    /// @param _seigManager New SeigManager contract address\n    function setCandidatesSeigManager(\n        address[] calldata _candidateContracts,\n        address _seigManager\n    )\n        public\n        onlyOwner\n    {\n        require(_seigManager != address(0), \"zero address\");\n        for (uint256 i = 0; i < _candidateContracts.length; i++) {\n            ICandidate(_candidateContracts[i]).setSeigManager(_seigManager);\n        }\n    }\n\n    /// @notice Set DAOCommitteeProxy contract address on candidate contracts\n    /// @param _candidateContracts Candidate contracts to be set\n    /// @param _committee New DAOCommitteeProxy contract address\n    function setCandidatesCommittee(\n        address[] calldata _candidateContracts,\n        address _committee\n    )\n        public\n        onlyOwner\n    {\n        require(_committee != address(0), \"zero address\");\n        for (uint256 i = 0; i < _candidateContracts.length; i++) {\n            ICandidate(_candidateContracts[i]).setCommittee(_committee);\n        }\n    }\n\n    /// @notice Set DAOVault2 contract address\n    /// @param _daoVault New DAOVault2 contract address\n    function setDaoVault(address _daoVault) public onlyOwner {\n        require(_daoVault != address(0), \"zero address\");\n        daoVault = IDAOVault2(_daoVault);\n    }\n\n    /// @notice Set Layer2Registry contract address\n    /// @param _layer2Registry New Layer2Registry contract address\n    function setLayer2Registry(address _layer2Registry) public onlyOwner {\n        require(_layer2Registry != address(0), \"zero address\");\n        layer2Registry = ILayer2Registry(_layer2Registry);\n    }\n\n    /// @notice Set DAOAgendaManager contract address\n    /// @param _agendaManager New DAOAgendaManager contract address\n    function setAgendaManager(address _agendaManager) public onlyOwner {\n        require(_agendaManager != address(0), \"zero address\");\n        agendaManager = IDAOAgendaManager(_agendaManager);\n    }\n\n    /// @notice Set CandidateFactory contract address\n    /// @param _candidateFactory New CandidateFactory contract address\n    function setCandidateFactory(address _candidateFactory) public onlyOwner {\n        require(_candidateFactory != address(0), \"zero address\");\n        candidateFactory = ICandidateFactory(_candidateFactory);\n    }\n\n    /// @notice Set TON contract address\n    /// @param _ton New TON contract address\n    function setTon(address _ton) public onlyOwner {\n        require(_ton != address(0), \"zero address\");\n        ton = _ton;\n    }\n\n    /// @notice Set activity reward amount\n    /// @param _value New activity reward per second\n    function setActivityRewardPerSecond(uint256 _value) public onlyOwner {\n        activityRewardPerSecond = _value;\n    }\n\n    /// @notice Increases the number of member slot\n    /// @param _newMaxMember New number of member slot\n    /// @param _quorum New quorum\n    function increaseMaxMember(\n        uint256 _newMaxMember,\n        uint256 _quorum\n    )\n        public\n        onlyOwner\n    {\n        require(maxMember < _newMaxMember, \"DAOCommitteeStore: You have to call decreaseMaxMember to decrease\");\n        emit ChangedSlotMaximum(maxMember, _newMaxMember);\n        maxMember = _newMaxMember;\n        fillMemberSlot();\n        setQuorum(_quorum);\n    }\n\n    //////////////////////////////////////////////////////////////////////\n    // Managing members\n\n    /// @notice Creates a candidate contract and register it on SeigManager\n    /// @param _memo A memo for the candidate\n    function createCandidate(string calldata _memo)\n        public\n        validSeigManager\n        validLayer2Registry\n        validCommitteeL2Factory\n    {\n        require(!isExistCandidate(msg.sender), \"DAOCommittee: candidate already registerd\");\n\n        // Candidate\n        address candidateContract = candidateFactory.deploy(\n            msg.sender,\n            false,\n            _memo,\n            address(this),\n            address(seigManager)\n        );\n\n        require(\n            candidateContract != address(0),\n            \"DAOCommittee: deployed candidateContract is zero\"\n        );\n        require(\n            layer2Registry.registerAndDeployCoinage(candidateContract, address(seigManager)),\n            \"DAOCommittee: failed to registerAndDeployCoinage\"\n        );\n        require(\n            candidateInfos[msg.sender].candidateContract == address(0),\n            \"DAOCommitteeStore: The candidate already has contract\"\n        );\n\n        candidateInfos[msg.sender] = CandidateInfo({\n            candidateContract: candidateContract,\n            memberJoinedTime: 0,\n            indexMembers: 0,\n            rewardPeriod: 0,\n            claimedTimestamp: 0\n        });\n\n        candidates.push(msg.sender);\n       \n        emit CandidateContractCreated(msg.sender, candidateContract, _memo);\n    }\n\n    /// @notice Registers the exist layer2 on DAO\n    /// @param _layer2 Layer2 contract address to be registered\n    /// @param _memo A memo for the candidate\n    function registerOperator(address _layer2, string memory _memo)\n        public\n        validSeigManager\n        validLayer2Registry\n        validCommitteeL2Factory\n    {\n        _registerOperator(msg.sender, _layer2, _memo);\n    }\n\n    /// @notice Registers the exist layer2 on DAO by owner\n    /// @param _operator Operator address of the layer2 contract\n    /// @param _layer2 Layer2 contract address to be registered\n    /// @param _memo A memo for the candidate\n    function registerOperatorByOwner(address _operator, address _layer2, string memory _memo)\n        public\n        onlyOwner\n        validSeigManager\n        validLayer2Registry\n        validCommitteeL2Factory\n    {\n        _registerOperator(_operator, _layer2, _memo);\n    }\n\n    /// @notice Replaces an existing member\n    /// @param _memberIndex The member slot index to be replaced\n    /// @return Whether or not the execution succeeded\n    function changeMember(\n        uint256 _memberIndex\n    )\n        public\n        returns (bool)\n    {\n        address newMember = ICandidate(msg.sender).candidate();\n        CandidateInfo storage candidateInfo = candidateInfos[newMember];\n        require(\n            ICandidate(msg.sender).isCandidateContract(),\n            \"DAOCommittee: sender is not a candidate contract\"\n        );\n        require(\n            _memberIndex < maxMember,\n            \"DAOCommittee: index is not available\"\n        );\n        require(\n            candidateInfo.candidateContract != address(0),\n            \"DAOCommittee: The address is not a candidate\"\n        );\n        require(\n            candidateInfo.memberJoinedTime == 0,\n            \"DAOCommittee: already member\"\n        );\n        \n        address prevMember = members[_memberIndex];\n        address prevMemberContract = candidateContract(prevMember);\n\n        candidateInfo.memberJoinedTime = block.timestamp;\n        candidateInfo.indexMembers = _memberIndex;\n\n        members[_memberIndex] = newMember;\n\n        if (prevMember == address(0)) {\n            emit ChangedMember(_memberIndex, prevMember, newMember);\n            return true;\n        }\n\n        require(\n            ICandidate(msg.sender).totalStaked() > ICandidate(prevMemberContract).totalStaked(),\n            \"not enough amount\"\n        );\n\n        CandidateInfo storage prevCandidateInfo = candidateInfos[prevMember];\n        prevCandidateInfo.indexMembers = 0;\n        prevCandidateInfo.rewardPeriod = prevCandidateInfo.rewardPeriod.add(block.timestamp.sub(prevCandidateInfo.memberJoinedTime));\n        prevCandidateInfo.memberJoinedTime = 0;\n\n        emit ChangedMember(_memberIndex, prevMember, newMember);\n\n        return true;\n    }\n    \n    /// @notice Retires member\n    /// @return Whether or not the execution succeeded\n    function retireMember() onlyMemberContract public returns (bool) {\n        address candidate = ICandidate(msg.sender).candidate();\n        CandidateInfo storage candidateInfo = candidateInfos[candidate];\n        members[candidateInfo.indexMembers] = address(0);\n        candidateInfo.rewardPeriod = candidateInfo.rewardPeriod.add(block.timestamp.sub(candidateInfo.memberJoinedTime));\n        candidateInfo.memberJoinedTime = 0;\n\n        emit ChangedMember(candidateInfo.indexMembers, candidate, address(0));\n\n        candidateInfo.indexMembers = 0;\n        return true;\n    }\n\n    /// @notice Decreases the number of member slot\n    /// @param _reducingMemberIndex Reducing member slot index\n    /// @param _quorum New quorum\n    function decreaseMaxMember(\n        uint256 _reducingMemberIndex,\n        uint256 _quorum\n    )\n        public\n        onlyOwner\n    {\n        address reducingMember = members[_reducingMemberIndex];\n        CandidateInfo storage reducingCandidate = candidateInfos[reducingMember];\n\n        if (_reducingMemberIndex != members.length - 1) {\n            address tailmember = members[members.length - 1];\n            CandidateInfo storage tailCandidate = candidateInfos[tailmember];\n\n            tailCandidate.indexMembers = _reducingMemberIndex;\n            members[_reducingMemberIndex] = tailmember;\n        }\n        reducingCandidate.indexMembers = 0;\n        reducingCandidate.rewardPeriod = reducingCandidate.rewardPeriod.add(block.timestamp.sub(reducingCandidate.memberJoinedTime));\n        reducingCandidate.memberJoinedTime = 0;\n\n        members.pop();\n        maxMember = maxMember.sub(1);\n        setQuorum(_quorum);\n\n        emit ChangedMember(_reducingMemberIndex, reducingMember, address(0));\n        emit ChangedSlotMaximum(maxMember.add(1), maxMember);\n    }\n\n    //////////////////////////////////////////////////////////////////////\n    // Managing agenda\n\n    function onApprove(\n        address owner,\n        address spender,\n        uint256 tonAmount,\n        bytes calldata data\n    ) external returns (bool) {\n        AgendaCreatingData memory agendaData = _decodeAgendaData(data);\n\n        _createAgenda(\n            owner,\n            agendaData.target,\n            agendaData.noticePeriodSeconds,\n            agendaData.votingPeriodSeconds,\n            agendaData.functionBytecode\n        );\n\n        return true;\n    }\n\n    /// @notice Set new quorum\n    /// @param _quorum New quorum\n    function setQuorum(\n        uint256 _quorum\n    )\n        public\n        onlyOwner\n        validAgendaManager\n    {\n        require(_quorum > 0, \"DAOCommittee: invalid quorum\");\n        require(_quorum <= maxMember, \"DAOCommittee: quorum exceed max member\");\n        quorum = _quorum;\n        emit QuorumChanged(quorum);\n    }\n\n    /// @notice Set fee amount of creating an agenda\n    /// @param _fees Fee amount on TON\n    function setCreateAgendaFees(\n        uint256 _fees\n    )\n        public\n        onlyOwner\n        validAgendaManager\n    {\n        agendaManager.setCreateAgendaFees(_fees);\n    }\n\n    /// @notice Set the minimum notice period\n    /// @param _minimumNoticePeriod New minimum period in second\n    function setMinimumNoticePeriodSeconds(\n        uint256 _minimumNoticePeriod\n    )\n        public\n        onlyOwner\n        validAgendaManager\n    {\n        agendaManager.setMinimumNoticePeriodSeconds(_minimumNoticePeriod);\n    }\n\n    /// @notice Set the minimum voting period\n    /// @param _minimumVotingPeriod New minimum period in second\n    function setMinimumVotingPeriodSeconds(\n        uint256 _minimumVotingPeriod\n    )\n        public\n        onlyOwner\n        validAgendaManager\n    {\n        agendaManager.setMinimumVotingPeriodSeconds(_minimumVotingPeriod);\n    }\n\n    /// @notice Vote on an agenda\n    /// @param _agendaID The agenda ID\n    /// @param _vote voting type\n    /// @param _comment voting comment\n    function castVote(\n        uint256 _agendaID,\n        uint _vote,\n        string calldata _comment\n    )\n        public \n        validAgendaManager\n    {\n        address candidate = ICandidate(msg.sender).candidate();\n        \n        agendaManager.castVote(\n            _agendaID,\n            candidate,\n            _vote\n        );\n\n        (uint256 yes, uint256 no, uint256 abstain) = agendaManager.getVotingCount(_agendaID);\n\n        if (quorum <= yes) {\n            // yes\n            agendaManager.setResult(_agendaID, LibAgenda.AgendaResult.ACCEPT);\n            agendaManager.setStatus(_agendaID, LibAgenda.AgendaStatus.WAITING_EXEC);\n        } else if (quorum <= no) {\n            // no\n            agendaManager.setResult(_agendaID, LibAgenda.AgendaResult.REJECT);\n            agendaManager.setStatus(_agendaID, LibAgenda.AgendaStatus.ENDED);\n        } else if (quorum <= abstain.add(no) ) {\n            // dismiss\n            agendaManager.setResult(_agendaID, LibAgenda.AgendaResult.DISMISS);\n            agendaManager.setStatus(_agendaID, LibAgenda.AgendaStatus.ENDED);\n        }\n        \n        emit AgendaVoteCasted(msg.sender, _agendaID, _vote, _comment);\n    }\n\n    /// @notice Set the agenda status as ended(denied or dismissed)\n    /// @param _agendaID Agenda ID\n    function endAgendaVoting(uint256 _agendaID) public {\n        agendaManager.endAgendaVoting(_agendaID);\n    }\n\n    /// @notice Execute the accepted agenda\n    /// @param _agendaID Agenda ID\n    function executeAgenda(uint256 _agendaID) public validAgendaManager {\n        require(\n            agendaManager.canExecuteAgenda(_agendaID),\n            \"DAOCommittee: can not execute the agenda\"\n        );\n        \n        (address[] memory target, bytes[] memory functionBytecode) = agendaManager.getExecutionInfo(_agendaID);\n       \n        agendaManager.setExecutedAgenda(_agendaID);\n\n        for (uint256 i = 0; i < target.length; i++) {\n            (bool success, ) = address(target[i]).call(functionBytecode[i]);\n            require(success, \"DAOCommittee: Failed to execute the agenda\");\n        }\n\n        emit AgendaExecuted(_agendaID, target);\n    }\n\n    /// @notice Set status and result of specific agenda\n    /// @param _agendaID Agenda ID\n    /// @param _status New status\n    /// @param _result New result\n    function setAgendaStatus(uint256 _agendaID, uint256 _status, uint256 _result) public onlyOwner {\n        agendaManager.setResult(_agendaID, LibAgenda.AgendaResult(_result));\n        agendaManager.setStatus(_agendaID, LibAgenda.AgendaStatus(_status));\n    }\n     \n    /// @notice Call updateSeigniorage on SeigManager\n    /// @param _candidate Candidate address to be updated\n    /// @return Whether or not the execution succeeded\n    function updateSeigniorage(address _candidate) public returns (bool) {\n        address candidateContract = candidateInfos[_candidate].candidateContract;\n        return ICandidate(candidateContract).updateSeigniorage();\n    }\n\n    /// @notice Call updateSeigniorage on SeigManager\n    /// @param _candidates Candidate addresses to be updated\n    /// @return Whether or not the execution succeeded\n    function updateSeigniorages(address[] calldata _candidates) public returns (bool) {\n        for (uint256 i = 0; i < _candidates.length; i++) {\n            updateSeigniorage(_candidates[i]);\n        }\n    }\n\n    /// @notice Claims the activity reward for member\n    function claimActivityReward() public {\n        CandidateInfo storage info = candidateInfos[msg.sender];\n        uint256 amount = getClaimableActivityReward(msg.sender);\n\n        require(amount > 0, \"DAOCommittee: you don't have claimable ton\");\n\n        daoVault.claimTON(msg.sender, amount);\n        info.claimedTimestamp = block.timestamp;\n        info.rewardPeriod = 0;\n\n        emit ClaimedActivityReward(msg.sender, amount);\n    }\n\n    function _registerOperator(address _operator, address _layer2, string memory _memo)\n        internal\n        validSeigManager\n        validLayer2Registry\n        validCommitteeL2Factory\n    {\n        require(!isExistCandidate(_layer2), \"DAOCommittee: candidate already registerd\");\n\n        require(\n            _layer2 != address(0),\n            \"DAOCommittee: deployed candidateContract is zero\"\n        );\n        require(\n            candidateInfos[_layer2].candidateContract == address(0),\n            \"DAOCommittee: The candidate already has contract\"\n        );\n        ILayer2 layer2 = ILayer2(_layer2);\n        require(\n            layer2.isLayer2(),\n            \"DAOCommittee: invalid layer2 contract\"\n        );\n        require(\n            layer2.operator() == _operator,\n            \"DAOCommittee: invalid operator\"\n        );\n\n        address candidateContract = candidateFactory.deploy(\n            _layer2,\n            true,\n            _memo,\n            address(this),\n            address(seigManager)\n        );\n\n        require(\n            candidateContract != address(0),\n            \"DAOCommittee: deployed candidateContract is zero\"\n        );\n\n        candidateInfos[_layer2] = CandidateInfo({\n            candidateContract: candidateContract,\n            memberJoinedTime: 0,\n            indexMembers: 0,\n            rewardPeriod: 0,\n            claimedTimestamp: 0\n        });\n\n        candidates.push(_layer2);\n       \n        emit OperatorRegistered(_layer2, candidateContract, _memo);\n    }\n\n    function fillMemberSlot() internal {\n        for (uint256 i = members.length; i < maxMember; i++) {\n            members.push(address(0));\n        }\n    }\n\n    function _decodeAgendaData(bytes calldata input)\n        internal\n        view\n        returns (AgendaCreatingData memory data)\n    {\n        (data.target, data.noticePeriodSeconds, data.votingPeriodSeconds, data.functionBytecode) = \n            abi.decode(input, (address[], uint256, uint256, bytes[]));\n    }\n\n    function payCreatingAgendaFee(address _creator) internal {\n        uint256 fee = agendaManager.createAgendaFees();\n\n        require(IERC20(ton).transferFrom(_creator, address(this), fee), \"DAOCommitteeStore: failed to transfer ton from creator\");\n        require(IERC20(ton).transfer(address(1), fee), \"DAOCommitteeStore: failed to burn\");\n    }\n   \n    function _createAgenda(\n        address _creator,\n        address[] memory _targets,\n        uint256 _noticePeriodSeconds,\n        uint256 _votingPeriodSeconds,\n        bytes[] memory _functionBytecodes\n    )\n        internal\n        validAgendaManager\n        returns (uint256)\n    {\n        // pay to create agenda, burn ton.\n        payCreatingAgendaFee(_creator);\n\n        uint256 agendaID = agendaManager.newAgenda(\n            _targets,\n            _noticePeriodSeconds,\n            _votingPeriodSeconds,\n            _functionBytecodes\n        );\n          \n        emit AgendaCreated(\n            _creator,\n            agendaID,\n            _targets,\n            _noticePeriodSeconds,\n            _votingPeriodSeconds\n        );\n\n        return agendaID;\n    }\n\n    function isCandidate(address _candidate) public view returns (bool) {\n        CandidateInfo storage info = candidateInfos[_candidate];\n\n        if (info.candidateContract == address(0)) {\n            return false;\n        }\n\n        bool supportIsCandidateContract = ERC165Checker.supportsInterface(\n            info.candidateContract,\n            ICandidate(info.candidateContract).isCandidateContract.selector\n        );\n\n        if (supportIsCandidateContract == false) {\n            return false;\n        }\n\n        return ICandidate(info.candidateContract).isCandidateContract();\n    }\n    \n    function totalSupplyOnCandidate(\n        address _candidate\n    )\n        public\n        view\n        returns (uint256 totalsupply)\n    {\n        address candidateContract = candidateContract(_candidate);\n        return totalSupplyOnCandidateContract(candidateContract);\n    }\n\n    function balanceOfOnCandidate(\n        address _candidate,\n        address _account\n    )\n        public\n        view\n        returns (uint256 amount)\n    {\n        address candidateContract = candidateContract(_candidate);\n        return balanceOfOnCandidateContract(candidateContract, _account);\n    }\n    \n    function totalSupplyOnCandidateContract(\n        address _candidateContract\n    )\n        public\n        view\n        returns (uint256 totalsupply)\n    {\n        require(_candidateContract != address(0), \"This account is not a candidate\");\n\n        address coinage = seigManager.coinages(_candidateContract);\n        require(coinage != address(0), \"DAOCommittee: coinage is zero\");\n        return IERC20(coinage).totalSupply();\n    }\n\n    function balanceOfOnCandidateContract(\n        address _candidateContract,\n        address _account\n    )\n        public\n        view\n        returns (uint256 amount)\n    {\n        require(_candidateContract != address(0), \"This account is not a candidate\");\n\n        address coinage = seigManager.coinages(_candidateContract);\n        require(coinage != address(0), \"DAOCommittee: coinage is zero\");\n        return IERC20(coinage).balanceOf(_account);\n    }\n\n    function candidatesLength() public view returns (uint256) {\n        return candidates.length;\n    }\n\n    function isExistCandidate(address _candidate) public view returns (bool isExist) {\n        return candidateInfos[_candidate].candidateContract != address(0);\n    }\n\n    function getClaimableActivityReward(address _candidate) public view returns (uint256) {\n        CandidateInfo storage info = candidateInfos[_candidate];\n        uint256 period = info.rewardPeriod;\n\n        if (info.memberJoinedTime > 0) {\n            if (info.memberJoinedTime > info.claimedTimestamp) {\n                period = period.add(block.timestamp.sub(info.memberJoinedTime));\n            } else {\n                period = period.add(block.timestamp.sub(info.claimedTimestamp));\n            }\n        }\n\n        return period.mul(activityRewardPerSecond);\n    }\n}\n",
  "sourcePath": "/data/github/onther/tokamak-dao-contracts3/contracts/dao/DAOCommittee.sol",
  "compiler": {
    "name": "solc",
    "version": "0.7.6+commit.7338295f.Emscripten.clang"
  },
  "schemaVersion": "3.3.2",
  "updatedAt": "2021-01-26T04:42:38.263Z",
  "networkType": "ethereum",
  "devdoc": {
    "kind": "dev",
    "methods": {
      "castVote(uint256,uint256,string)": {
        "params": {
          "_agendaID": "The agenda ID",
          "_comment": "voting comment",
          "_vote": "voting type"
        }
      },
      "changeMember(uint256)": {
        "params": {
          "_memberIndex": "The member slot index to be replaced"
        },
        "returns": {
          "_0": "Whether or not the execution succeeded"
        }
      },
      "createCandidate(string)": {
        "params": {
          "_memo": "A memo for the candidate"
        }
      },
      "decreaseMaxMember(uint256,uint256)": {
        "params": {
          "_quorum": "New quorum",
          "_reducingMemberIndex": "Reducing member slot index"
        }
      },
      "endAgendaVoting(uint256)": {
        "params": {
          "_agendaID": "Agenda ID"
        }
      },
      "executeAgenda(uint256)": {
        "params": {
          "_agendaID": "Agenda ID"
        }
      },
      "getRoleAdmin(bytes32)": {
        "details": "Returns the admin role that controls `role`. See {grantRole} and {revokeRole}. To change a role's admin, use {_setRoleAdmin}."
      },
      "getRoleMember(bytes32,uint256)": {
        "details": "Returns one of the accounts that have `role`. `index` must be a value between 0 and {getRoleMemberCount}, non-inclusive. Role bearers are not sorted in any particular way, and their ordering may change at any point. WARNING: When using {getRoleMember} and {getRoleMemberCount}, make sure you perform all queries on the same block. See the following https://forum.openzeppelin.com/t/iterating-over-elements-on-enumerableset-in-openzeppelin-contracts/2296[forum post] for more information."
      },
      "getRoleMemberCount(bytes32)": {
        "details": "Returns the number of accounts that have `role`. Can be used together with {getRoleMember} to enumerate all bearers of a role."
      },
      "grantRole(bytes32,address)": {
        "details": "Grants `role` to `account`. If `account` had not been already granted `role`, emits a {RoleGranted} event. Requirements: - the caller must have ``role``'s admin role."
      },
      "hasRole(bytes32,address)": {
        "details": "Returns `true` if `account` has been granted `role`."
      },
      "increaseMaxMember(uint256,uint256)": {
        "params": {
          "_newMaxMember": "New number of member slot",
          "_quorum": "New quorum"
        }
      },
      "registerOperator(address,string)": {
        "params": {
          "_layer2": "Layer2 contract address to be registered",
          "_memo": "A memo for the candidate"
        }
      },
      "registerOperatorByOwner(address,address,string)": {
        "params": {
          "_layer2": "Layer2 contract address to be registered",
          "_memo": "A memo for the candidate",
          "_operator": "Operator address of the layer2 contract"
        }
      },
      "renounceRole(bytes32,address)": {
        "details": "Revokes `role` from the calling account. Roles are often managed via {grantRole} and {revokeRole}: this function's purpose is to provide a mechanism for accounts to lose their privileges if they are compromised (such as when a trusted device is misplaced). If the calling account had been granted `role`, emits a {RoleRevoked} event. Requirements: - the caller must be `account`."
      },
      "retireMember()": {
        "returns": {
          "_0": "Whether or not the execution succeeded"
        }
      },
      "revokeRole(bytes32,address)": {
        "details": "Revokes `role` from `account`. If `account` had been granted `role`, emits a {RoleRevoked} event. Requirements: - the caller must have ``role``'s admin role."
      },
      "setActivityRewardPerSecond(uint256)": {
        "params": {
          "_value": "New activity reward per second"
        }
      },
      "setAgendaManager(address)": {
        "params": {
          "_agendaManager": "New DAOAgendaManager contract address"
        }
      },
      "setAgendaStatus(uint256,uint256,uint256)": {
        "params": {
          "_agendaID": "Agenda ID",
          "_result": "New result",
          "_status": "New status"
        }
      },
      "setCandidateFactory(address)": {
        "params": {
          "_candidateFactory": "New CandidateFactory contract address"
        }
      },
      "setCandidatesCommittee(address[],address)": {
        "params": {
          "_candidateContracts": "Candidate contracts to be set",
          "_committee": "New DAOCommitteeProxy contract address"
        }
      },
      "setCandidatesSeigManager(address[],address)": {
        "params": {
          "_candidateContracts": "Candidate contracts to be set",
          "_seigManager": "New SeigManager contract address"
        }
      },
      "setCreateAgendaFees(uint256)": {
        "params": {
          "_fees": "Fee amount on TON"
        }
      },
      "setDaoVault(address)": {
        "params": {
          "_daoVault": "New DAOVault2 contract address"
        }
      },
      "setLayer2Registry(address)": {
        "params": {
          "_layer2Registry": "New Layer2Registry contract address"
        }
      },
      "setMinimumNoticePeriodSeconds(uint256)": {
        "params": {
          "_minimumNoticePeriod": "New minimum period in second"
        }
      },
      "setMinimumVotingPeriodSeconds(uint256)": {
        "params": {
          "_minimumVotingPeriod": "New minimum period in second"
        }
      },
      "setQuorum(uint256)": {
        "params": {
          "_quorum": "New quorum"
        }
      },
      "setSeigManager(address)": {
        "params": {
          "_seigManager": "New SeigManager contract address"
        }
      },
      "setTon(address)": {
        "params": {
          "_ton": "New TON contract address"
        }
      },
      "updateSeigniorage(address)": {
        "params": {
          "_candidate": "Candidate address to be updated"
        },
        "returns": {
          "_0": "Whether or not the execution succeeded"
        }
      },
      "updateSeigniorages(address[])": {
        "params": {
          "_candidates": "Candidate addresses to be updated"
        },
        "returns": {
          "_0": "Whether or not the execution succeeded"
        }
      }
    },
    "version": 1
  },
  "userdoc": {
    "kind": "user",
    "methods": {
      "castVote(uint256,uint256,string)": {
        "notice": "Vote on an agenda"
      },
      "changeMember(uint256)": {
        "notice": "Replaces an existing member"
      },
      "claimActivityReward()": {
        "notice": "Claims the activity reward for member"
      },
      "createCandidate(string)": {
        "notice": "Creates a candidate contract and register it on SeigManager"
      },
      "decreaseMaxMember(uint256,uint256)": {
        "notice": "Decreases the number of member slot"
      },
      "endAgendaVoting(uint256)": {
        "notice": "Set the agenda status as ended(denied or dismissed)"
      },
      "executeAgenda(uint256)": {
        "notice": "Execute the accepted agenda"
      },
      "increaseMaxMember(uint256,uint256)": {
        "notice": "Increases the number of member slot"
      },
      "registerOperator(address,string)": {
        "notice": "Registers the exist layer2 on DAO"
      },
      "registerOperatorByOwner(address,address,string)": {
        "notice": "Registers the exist layer2 on DAO by owner"
      },
      "retireMember()": {
        "notice": "Retires member"
      },
      "setActivityRewardPerSecond(uint256)": {
        "notice": "Set activity reward amount"
      },
      "setAgendaManager(address)": {
        "notice": "Set DAOAgendaManager contract address"
      },
      "setAgendaStatus(uint256,uint256,uint256)": {
        "notice": "Set status and result of specific agenda"
      },
      "setCandidateFactory(address)": {
        "notice": "Set CandidateFactory contract address"
      },
      "setCandidatesCommittee(address[],address)": {
        "notice": "Set DAOCommitteeProxy contract address on candidate contracts"
      },
      "setCandidatesSeigManager(address[],address)": {
        "notice": "Set SeigManager contract address on candidate contracts"
      },
      "setCreateAgendaFees(uint256)": {
        "notice": "Set fee amount of creating an agenda"
      },
      "setDaoVault(address)": {
        "notice": "Set DAOVault2 contract address"
      },
      "setLayer2Registry(address)": {
        "notice": "Set Layer2Registry contract address"
      },
      "setMinimumNoticePeriodSeconds(uint256)": {
        "notice": "Set the minimum notice period"
      },
      "setMinimumVotingPeriodSeconds(uint256)": {
        "notice": "Set the minimum voting period"
      },
      "setQuorum(uint256)": {
        "notice": "Set new quorum"
      },
      "setSeigManager(address)": {
        "notice": "Set SeigManager contract address"
      },
      "setTon(address)": {
        "notice": "Set TON contract address"
      },
      "updateSeigniorage(address)": {
        "notice": "Call updateSeigniorage on SeigManager"
      },
      "updateSeigniorages(address[])": {
        "notice": "Call updateSeigniorage on SeigManager"
      }
    },
    "version": 1
  }
}