{
  "contractName": "DAOCommittee",
  "abi": [
    {
      "anonymous": false,
      "inputs": [
        {
          "indexed": true,
          "internalType": "uint256",
          "name": "timestamp",
          "type": "uint256"
        },
        {
          "indexed": true,
          "internalType": "address",
          "name": "from",
          "type": "address"
        },
        {
          "indexed": true,
          "internalType": "uint256",
          "name": "id",
          "type": "uint256"
        },
        {
          "indexed": false,
          "internalType": "address",
          "name": "target",
          "type": "address"
        },
        {
          "indexed": false,
          "internalType": "uint256",
          "name": "noticeEndTimestamp",
          "type": "uint256"
        }
      ],
      "name": "AgendaCreated",
      "type": "event"
    },
    {
      "anonymous": false,
      "inputs": [
        {
          "indexed": true,
          "internalType": "uint256",
          "name": "timestamp",
          "type": "uint256"
        },
        {
          "indexed": true,
          "internalType": "address",
          "name": "from",
          "type": "address"
        },
        {
          "indexed": true,
          "internalType": "uint256",
          "name": "id",
          "type": "uint256"
        },
        {
          "indexed": false,
          "internalType": "address",
          "name": "target",
          "type": "address"
        },
        {
          "indexed": false,
          "internalType": "bytes",
          "name": "functionBytecode",
          "type": "bytes"
        }
      ],
      "name": "AgendaExecuted",
      "type": "event"
    },
    {
      "anonymous": false,
      "inputs": [
        {
          "indexed": true,
          "internalType": "uint256",
          "name": "timestamp",
          "type": "uint256"
        },
        {
          "indexed": true,
          "internalType": "address",
          "name": "from",
          "type": "address"
        },
        {
          "indexed": true,
          "internalType": "uint256",
          "name": "id",
          "type": "uint256"
        },
        {
          "indexed": false,
          "internalType": "uint256",
          "name": "voting",
          "type": "uint256"
        },
        {
          "indexed": false,
          "internalType": "string",
          "name": "comment",
          "type": "string"
        }
      ],
      "name": "AgendaVoteCasted",
      "type": "event"
    },
    {
      "anonymous": false,
      "inputs": [
        {
          "indexed": true,
          "internalType": "address",
          "name": "from",
          "type": "address"
        },
        {
          "indexed": false,
          "internalType": "address",
          "name": "member",
          "type": "address"
        },
        {
          "indexed": false,
          "internalType": "uint256",
          "name": "totalbalance",
          "type": "uint256"
        },
        {
          "indexed": false,
          "internalType": "uint256",
          "name": "memberIndex",
          "type": "uint256"
        }
      ],
      "name": "ApplyMemberSuccess",
      "type": "event"
    },
    {
      "anonymous": false,
      "inputs": [
        {
          "indexed": true,
          "internalType": "address",
          "name": "candidate",
          "type": "address"
        },
        {
          "indexed": false,
          "internalType": "address",
          "name": "candidateContract",
          "type": "address"
        },
        {
          "indexed": false,
          "internalType": "string",
          "name": "memo",
          "type": "string"
        }
      ],
      "name": "CandidateContractCreated",
      "type": "event"
    },
    {
      "anonymous": false,
      "inputs": [
        {
          "indexed": true,
          "internalType": "uint256",
          "name": "timestamp",
          "type": "uint256"
        },
        {
          "indexed": true,
          "internalType": "uint256",
          "name": "slotIndex",
          "type": "uint256"
        },
        {
          "indexed": false,
          "internalType": "address",
          "name": "prevMember",
          "type": "address"
        },
        {
          "indexed": true,
          "internalType": "address",
          "name": "newMember",
          "type": "address"
        }
      ],
      "name": "ChangedMember",
      "type": "event"
    },
    {
      "anonymous": false,
      "inputs": [
        {
          "indexed": true,
          "internalType": "uint256",
          "name": "prevSlotMax",
          "type": "uint256"
        },
        {
          "indexed": true,
          "internalType": "uint256",
          "name": "slotMax",
          "type": "uint256"
        }
      ],
      "name": "ChangedSlotMaximum",
      "type": "event"
    },
    {
      "anonymous": false,
      "inputs": [
        {
          "indexed": true,
          "internalType": "address",
          "name": "candidate",
          "type": "address"
        },
        {
          "indexed": true,
          "internalType": "uint256",
          "name": "amount",
          "type": "uint256"
        }
      ],
      "name": "ClaimedActivityReward",
      "type": "event"
    },
    {
      "anonymous": false,
      "inputs": [
        {
          "indexed": true,
          "internalType": "address",
          "name": "previousOwner",
          "type": "address"
        },
        {
          "indexed": true,
          "internalType": "address",
          "name": "newOwner",
          "type": "address"
        }
      ],
      "name": "OwnershipTransferred",
      "type": "event"
    },
    {
      "inputs": [],
      "name": "activityRewardPerSecond",
      "outputs": [
        {
          "internalType": "uint256",
          "name": "",
          "type": "uint256"
        }
      ],
      "stateMutability": "view",
      "type": "function"
    },
    {
      "inputs": [],
      "name": "agendaManager",
      "outputs": [
        {
          "internalType": "contract IDAOAgendaManager",
          "name": "",
          "type": "address"
        }
      ],
      "stateMutability": "view",
      "type": "function"
    },
    {
      "inputs": [
        {
          "internalType": "address",
          "name": "_candidate",
          "type": "address"
        }
      ],
      "name": "candidateContract",
      "outputs": [
        {
          "internalType": "address",
          "name": "",
          "type": "address"
        }
      ],
      "stateMutability": "view",
      "type": "function"
    },
    {
      "inputs": [],
      "name": "candidateFactory",
      "outputs": [
        {
          "internalType": "contract ICandidateFactory",
          "name": "",
          "type": "address"
        }
      ],
      "stateMutability": "view",
      "type": "function"
    },
    {
      "inputs": [
        {
          "internalType": "address",
          "name": "",
          "type": "address"
        }
      ],
      "name": "candidateInfos",
      "outputs": [
        {
          "internalType": "address",
          "name": "candidateContract",
          "type": "address"
        },
        {
          "internalType": "uint256",
          "name": "memberJoinedTime",
          "type": "uint256"
        },
        {
          "internalType": "uint256",
          "name": "indexMembers",
          "type": "uint256"
        },
        {
          "internalType": "uint256",
          "name": "rewardPeriod",
          "type": "uint256"
        }
      ],
      "stateMutability": "view",
      "type": "function"
    },
    {
      "inputs": [
        {
          "internalType": "uint256",
          "name": "",
          "type": "uint256"
        }
      ],
      "name": "candidates",
      "outputs": [
        {
          "internalType": "address",
          "name": "",
          "type": "address"
        }
      ],
      "stateMutability": "view",
      "type": "function"
    },
    {
      "inputs": [],
      "name": "daoVault",
      "outputs": [
        {
          "internalType": "contract IDAOVault2",
          "name": "",
          "type": "address"
        }
      ],
      "stateMutability": "view",
      "type": "function"
    },
    {
      "inputs": [
        {
          "internalType": "address",
          "name": "_candidate",
          "type": "address"
        }
      ],
      "name": "isMember",
      "outputs": [
        {
          "internalType": "bool",
          "name": "",
          "type": "bool"
        }
      ],
      "stateMutability": "view",
      "type": "function"
    },
    {
      "inputs": [],
      "name": "layer2Registry",
      "outputs": [
        {
          "internalType": "contract ILayer2Registry",
          "name": "",
          "type": "address"
        }
      ],
      "stateMutability": "view",
      "type": "function"
    },
    {
      "inputs": [],
      "name": "maxMember",
      "outputs": [
        {
          "internalType": "uint256",
          "name": "",
          "type": "uint256"
        }
      ],
      "stateMutability": "view",
      "type": "function"
    },
    {
      "inputs": [
        {
          "internalType": "uint256",
          "name": "",
          "type": "uint256"
        }
      ],
      "name": "members",
      "outputs": [
        {
          "internalType": "address",
          "name": "",
          "type": "address"
        }
      ],
      "stateMutability": "view",
      "type": "function"
    },
    {
      "inputs": [],
      "name": "owner",
      "outputs": [
        {
          "internalType": "address",
          "name": "",
          "type": "address"
        }
      ],
      "stateMutability": "view",
      "type": "function"
    },
    {
      "inputs": [],
      "name": "renounceOwnership",
      "outputs": [],
      "stateMutability": "nonpayable",
      "type": "function"
    },
    {
      "inputs": [],
      "name": "seigManager",
      "outputs": [
        {
          "internalType": "contract ISeigManager",
          "name": "",
          "type": "address"
        }
      ],
      "stateMutability": "view",
      "type": "function"
    },
    {
      "inputs": [],
      "name": "ton",
      "outputs": [
        {
          "internalType": "address",
          "name": "",
          "type": "address"
        }
      ],
      "stateMutability": "view",
      "type": "function"
    },
    {
      "inputs": [
        {
          "internalType": "address",
          "name": "newOwner",
          "type": "address"
        }
      ],
      "name": "transferOwnership",
      "outputs": [],
      "stateMutability": "nonpayable",
      "type": "function"
    },
    {
      "inputs": [
        {
          "internalType": "address",
          "name": "_agendaManager",
          "type": "address"
        }
      ],
      "name": "setSeigManager",
      "outputs": [],
      "stateMutability": "nonpayable",
      "type": "function"
    },
    {
      "inputs": [
        {
          "internalType": "address",
          "name": "_daoVault",
          "type": "address"
        }
      ],
      "name": "setDaoVault",
      "outputs": [],
      "stateMutability": "nonpayable",
      "type": "function"
    },
    {
      "inputs": [
        {
          "internalType": "address",
          "name": "_layer2Registry",
          "type": "address"
        }
      ],
      "name": "setLayer2Registry",
      "outputs": [],
      "stateMutability": "nonpayable",
      "type": "function"
    },
    {
      "inputs": [
        {
          "internalType": "address",
          "name": "_agendaManager",
          "type": "address"
        }
      ],
      "name": "setAgendaManager",
      "outputs": [],
      "stateMutability": "nonpayable",
      "type": "function"
    },
    {
      "inputs": [
        {
          "internalType": "address",
          "name": "_candidateFactory",
          "type": "address"
        }
      ],
      "name": "setCandidateFactory",
      "outputs": [],
      "stateMutability": "nonpayable",
      "type": "function"
    },
    {
      "inputs": [
        {
          "internalType": "address",
          "name": "_ton",
          "type": "address"
        }
      ],
      "name": "setTon",
      "outputs": [],
      "stateMutability": "nonpayable",
      "type": "function"
    },
    {
      "inputs": [
        {
          "internalType": "uint256",
          "name": "_value",
          "type": "uint256"
        }
      ],
      "name": "setActivityRewardPerSecond",
      "outputs": [],
      "stateMutability": "nonpayable",
      "type": "function"
    },
    {
      "inputs": [
        {
          "internalType": "uint256",
          "name": "_maxMember",
          "type": "uint256"
        }
      ],
      "name": "setMaxMember",
      "outputs": [],
      "stateMutability": "nonpayable",
      "type": "function"
    },
    {
      "inputs": [
        {
          "internalType": "string",
          "name": "_memo",
          "type": "string"
        }
      ],
      "name": "createCandidate",
      "outputs": [],
      "stateMutability": "nonpayable",
      "type": "function"
    },
    {
      "inputs": [
        {
          "internalType": "uint256",
          "name": "_memberIndex",
          "type": "uint256"
        }
      ],
      "name": "changeMember",
      "outputs": [
        {
          "internalType": "bool",
          "name": "",
          "type": "bool"
        }
      ],
      "stateMutability": "nonpayable",
      "type": "function"
    },
    {
      "inputs": [],
      "name": "retireMember",
      "outputs": [
        {
          "internalType": "bool",
          "name": "",
          "type": "bool"
        }
      ],
      "stateMutability": "nonpayable",
      "type": "function"
    },
    {
      "inputs": [
        {
          "internalType": "uint256",
          "name": "_reducingMemberIndex",
          "type": "uint256"
        }
      ],
      "name": "reduceMemberSlot",
      "outputs": [],
      "stateMutability": "nonpayable",
      "type": "function"
    },
    {
      "inputs": [
        {
          "internalType": "address",
          "name": "owner",
          "type": "address"
        },
        {
          "internalType": "address",
          "name": "spender",
          "type": "address"
        },
        {
          "internalType": "uint256",
          "name": "tonAmount",
          "type": "uint256"
        },
        {
          "internalType": "bytes",
          "name": "data",
          "type": "bytes"
        }
      ],
      "name": "onApprove",
      "outputs": [
        {
          "internalType": "bool",
          "name": "",
          "type": "bool"
        }
      ],
      "stateMutability": "nonpayable",
      "type": "function"
    },
    {
      "inputs": [
        {
          "internalType": "uint256",
          "name": "_quorumNumerator",
          "type": "uint256"
        },
        {
          "internalType": "uint256",
          "name": "_quorumDenominator",
          "type": "uint256"
        }
      ],
      "name": "setQuorum",
      "outputs": [],
      "stateMutability": "nonpayable",
      "type": "function"
    },
    {
      "inputs": [
        {
          "internalType": "uint256",
          "name": "_fees",
          "type": "uint256"
        }
      ],
      "name": "setCreateAgendaFees",
      "outputs": [],
      "stateMutability": "nonpayable",
      "type": "function"
    },
    {
      "inputs": [
        {
          "internalType": "uint256",
          "name": "_minimunNoticePeriod",
          "type": "uint256"
        }
      ],
      "name": "setMinimunNoticePeriodSeconds",
      "outputs": [],
      "stateMutability": "nonpayable",
      "type": "function"
    },
    {
      "inputs": [
        {
          "internalType": "uint256",
          "name": "_minimunVotingPeriod",
          "type": "uint256"
        }
      ],
      "name": "setMinimunVotingPeriodSeconds",
      "outputs": [],
      "stateMutability": "nonpayable",
      "type": "function"
    },
    {
      "inputs": [
        {
          "internalType": "uint256",
          "name": "_agendaID",
          "type": "uint256"
        },
        {
          "internalType": "uint256",
          "name": "_vote",
          "type": "uint256"
        },
        {
          "internalType": "string",
          "name": "_comment",
          "type": "string"
        }
      ],
      "name": "castVote",
      "outputs": [],
      "stateMutability": "nonpayable",
      "type": "function"
    },
    {
      "inputs": [
        {
          "internalType": "uint256",
          "name": "_agendaID",
          "type": "uint256"
        }
      ],
      "name": "executeAgenda",
      "outputs": [],
      "stateMutability": "nonpayable",
      "type": "function"
    },
    {
      "inputs": [
        {
          "internalType": "address",
          "name": "_candidate",
          "type": "address"
        }
      ],
      "name": "updateSeigniorage",
      "outputs": [
        {
          "internalType": "bool",
          "name": "",
          "type": "bool"
        }
      ],
      "stateMutability": "nonpayable",
      "type": "function"
    },
    {
      "inputs": [
        {
          "internalType": "address[]",
          "name": "_candidates",
          "type": "address[]"
        }
      ],
      "name": "updateSeigniorages",
      "outputs": [
        {
          "internalType": "bool",
          "name": "",
          "type": "bool"
        }
      ],
      "stateMutability": "nonpayable",
      "type": "function"
    },
    {
      "inputs": [],
      "name": "claimActivityReward",
      "outputs": [],
      "stateMutability": "nonpayable",
      "type": "function"
    },
    {
      "inputs": [],
      "name": "requiredVotesToPass",
      "outputs": [
        {
          "internalType": "uint256",
          "name": "requiredVotes",
          "type": "uint256"
        }
      ],
      "stateMutability": "view",
      "type": "function"
    },
    {
      "inputs": [
        {
          "internalType": "address",
          "name": "_candidate",
          "type": "address"
        }
      ],
      "name": "totalSupplyOnCandidate",
      "outputs": [
        {
          "internalType": "uint256",
          "name": "totalsupply",
          "type": "uint256"
        }
      ],
      "stateMutability": "view",
      "type": "function"
    },
    {
      "inputs": [
        {
          "internalType": "address",
          "name": "_candidate",
          "type": "address"
        },
        {
          "internalType": "address",
          "name": "account",
          "type": "address"
        }
      ],
      "name": "balanceOfOnCandidate",
      "outputs": [
        {
          "internalType": "uint256",
          "name": "amount",
          "type": "uint256"
        }
      ],
      "stateMutability": "view",
      "type": "function"
    },
    {
      "inputs": [],
      "name": "candidatesLength",
      "outputs": [
        {
          "internalType": "uint256",
          "name": "",
          "type": "uint256"
        }
      ],
      "stateMutability": "view",
      "type": "function"
    },
    {
      "inputs": [
        {
          "internalType": "address",
          "name": "_candidate",
          "type": "address"
        }
      ],
      "name": "isExistCandidate",
      "outputs": [
        {
          "internalType": "bool",
          "name": "isExist",
          "type": "bool"
        }
      ],
      "stateMutability": "view",
      "type": "function"
    },
    {
      "inputs": [
        {
          "internalType": "address",
          "name": "_candidate",
          "type": "address"
        }
      ],
      "name": "getClaimableActivityReward",
      "outputs": [
        {
          "internalType": "uint256",
          "name": "",
          "type": "uint256"
        }
      ],
      "stateMutability": "view",
      "type": "function"
    }
  ],
  "bytecode": "0x60806040523480156200001157600080fd5b5060006200001e62000072565b600b80546001600160a01b0319166001600160a01b038316908117909155604051919250906000907f8be0079c531659141344cd1fd0a4f28419497f9722a3daafe3b4186f6b6457e0908290a35062000076565b3390565b61396580620000866000396000f3fe608060405234801561001057600080fd5b50600436106102745760003560e01c8063715018a611610151578063a230c524116100c3578063cc48b94711610087578063cc48b94714610509578063cf2a239c14610511578063d10d2b5014610519578063d1f0473f1461052c578063d525f04f1461053f578063f2fde38b1461055257610274565b8063a230c524146104c0578063ad6675dc146104d3578063b4f69b6a146104e6578063b5dd1158146104f9578063c4ef9c001461050157610274565b80638287cc52116101155780638287cc521461046f57806389ea4300146104825780638bf7a3ab146104955780638da5cb5b1461049d5780639932e94c146104a55780639a62f615146104b857610274565b8063715018a6146104315780637657f20a14610439578063773b7f651461044c5780637a3d5468146104545780637f3316361461046757610274565b80634b799db1116101ea5780635903bd6c116101ae5780635903bd6c146103d55780635daf08ca146103dd5780635ebe7622146103f05780635fba7a5614610403578063651d08cd146104165780636fb7f5581461042957610274565b80634b799db1146103765780634d288fec1461038957806355d1fe161461039c578063561a1dab146103af57806357f0a867146103c257610274565b806327fd92fd1161023c57806327fd92fd146102f25780632af60ff4146103075780632e011c1e1461031a5780633477ee2e1461033d5780634273ca161461035057806349c39f141461036357610274565b806303e3c9ac14610279578063047f52f21461029757806311f19e04146102ac578063216f486b146102cc57806324f99b1e146102df575b600080fd5b610281610565565b60405161028e91906136aa565b60405180910390f35b6102aa6102a5366004612c3c565b61056b565b005b6102bf6102ba366004612f37565b610614565b60405161028e919061317c565b6102aa6102da366004612f37565b6107ec565b6102aa6102ed366004612f88565b610a86565b6102fa610ead565b60405161028e919061304e565b6102aa610315366004612c3c565b610ebc565b61032d610328366004612c3c565b610f5c565b60405161028e9493929190613156565b6102fa61034b366004612f37565b610f8d565b6102bf61035e366004612d20565b610fb7565b6102aa610371366004612c3c565b610ff1565b6102aa610384366004612c3c565b611091565b6102aa610397366004612c3c565b611131565b6102aa6103aa366004612f37565b6111d1565b6102bf6103bd366004612c3c565b61125a565b6102bf6103d0366004612e1a565b61127a565b6102fa6112ba565b6102fa6103eb366004612f37565b6112c9565b6102aa6103fe366004612f37565b6112d9565b6102aa610411366004612ea9565b611336565b6102fa610424366004612c3c565b6116a8565b6102fa6116c6565b6102aa6116d5565b6102aa610447366004612c3c565b611777565b610281611817565b6102aa610462366004612f67565b61181d565b610281611924565b6102aa61047d366004612f37565b61192a565b6102bf610490366004612c3c565b611b1c565b6102aa611bd0565b6102fa611ca0565b6102816104b3366004612c3c565b611caf565b610281611d10565b6102bf6104ce366004612c3c565b611db9565b6102816104e1366004612c3c565b611dd9565b6102aa6104f4366004612f37565b611f27565b6102fa61202b565b6102bf61203a565b6102fa612136565b6102fa612145565b6102aa610527366004612f37565b612154565b6102aa61053a366004612f37565b612223565b61028161054d366004612ce8565b6122f2565b6102aa610560366004612c3c565b612456565b60085481565b61057361254f565b600b546001600160a01b039081169116146105c3576040805162461bcd60e51b81526020600482018190526024820152600080516020613888833981519152604482015290519081900360640190fd5b6001600160a01b0381166105f25760405162461bcd60e51b81526004016105e990613526565b60405180910390fd5b600380546001600160a01b0319166001600160a01b0392909216919091179055565b33600090815260096020526040812060085483106106445760405162461bcd60e51b81526004016105e99061323f565b80546001600160a01b031661066b5760405162461bcd60e51b81526004016105e99061354c565b60018101541561068d5760405162461bcd60e51b81526004016105e9906134e5565b60006007848154811061069c57fe5b60009182526020909120015442600184015560028301859055600780546001600160a01b0390921692503391869081106106d257fe5b600091825260209091200180546001600160a01b0319166001600160a01b03928316179055811661073957336001600160a01b0316844260008051602061384783398151915284604051610726919061304e565b60405180910390a46001925050506107e7565b61074281611dd9565b61074b33611dd9565b116107685760405162461bcd60e51b81526004016105e990613187565b6001600160a01b0381166000908152600960205260408120600281019190915560018101546107a79061079c904290612553565b60038301549061259c565b600382015560006001820155604051339086904290600080516020613847833981519152906107d790879061304e565b60405180910390a4600193505050505b919050565b6002546001600160a01b03166108335760405162461bcd60e51b815260040180806020018281038252602c8152602001806138a8602c913960400191505060405180910390fd5b6002546040516377f28d5b60e01b81526001600160a01b03909116906377f28d5b906108639084906004016136aa565b60206040518083038186803b15801561087b57600080fd5b505afa15801561088f573d6000803e3d6000fd5b505050506040513d601f19601f820116820180604052508101906108b39190612e89565b6108cf5760405162461bcd60e51b81526004016105e99061344d565b6002546040516373ba374560e01b815260009182916001600160a01b03909116906373ba3745906109049086906004016136aa565b60006040518083038186803b15801561091c57600080fd5b505afa158015610930573d6000803e3d6000fd5b505050506040513d6000823e601f3d908101601f191682016040526109589190810190612d91565b915091506000826001600160a01b0316826040516109769190613032565b6000604051808303816000865af19150503d80600081146109b3576040519150601f19603f3d011682016040523d82523d6000602084013e6109b8565b606091505b50509050806109d95760405162461bcd60e51b81526004016105e99061361d565b600254604051631b8c251960e11b81526001600160a01b03909116906337184a3290610a099087906004016136aa565b600060405180830381600087803b158015610a2357600080fd5b505af1158015610a37573d6000803e3d6000fd5b5050505083336001600160a01b0316427f72c224df7019ab0839b67a72588e8b5cd160a04a24758e41ca62f19e6a37a0118686604051610a789291906130f4565b60405180910390a450505050565b6002546001600160a01b0316610acd5760405162461bcd60e51b815260040180806020018281038252602c8152602001806138a8602c913960400191505060405180910390fd5b6000610ad7611d10565b905060008111610af95760405162461bcd60e51b81526004016105e990613667565b600254604051637e77eb2360e01b81526001600160a01b0390911690637e77eb2390610b2d908890339089906004016136b3565b602060405180830381600087803b158015610b4757600080fd5b505af1158015610b5b573d6000803e3d6000fd5b505050506040513d601f19601f82011682018060405250810190610b7f9190612e89565b50600254604051635772521560e11b8152600091829182916001600160a01b03169063aee4a42a90610bb5908b906004016136aa565b60606040518083038186803b158015610bcd57600080fd5b505afa158015610be1573d6000803e3d6000fd5b505050506040513d601f19601f82011682018060405250810190610c059190612fd9565b92509250925082841015610ce257600254604051632b0a851b60e11b81526001600160a01b03909116906356150a3690610c46908b906001906004016136d2565b600060405180830381600087803b158015610c6057600080fd5b505af1158015610c74573d6000803e3d6000fd5b5050600254604051633625b75960e21b81526001600160a01b03909116925063d896dd649150610cab908b906003906004016136f0565b600060405180830381600087803b158015610cc557600080fd5b505af1158015610cd9573d6000803e3d6000fd5b50505050610e5c565b81841015610d805760028054604051632b0a851b60e11b81526001600160a01b03909116916356150a3691610d1b918c916004016136d2565b600060405180830381600087803b158015610d3557600080fd5b505af1158015610d49573d6000803e3d6000fd5b5050600254604051633625b75960e21b81526001600160a01b03909116925063d896dd649150610cab908b906005906004016136f0565b610d8a818361259c565b841015610e5c57600254604051632b0a851b60e11b81526001600160a01b03909116906356150a3690610dc4908b906003906004016136d2565b600060405180830381600087803b158015610dde57600080fd5b505af1158015610df2573d6000803e3d6000fd5b5050600254604051633625b75960e21b81526001600160a01b03909116925063d896dd649150610e29908b906005906004016136f0565b600060405180830381600087803b158015610e4357600080fd5b505af1158015610e57573d6000803e3d6000fd5b505050505b87336001600160a01b0316427fd70d4d91a62d317effda35c69966493e9eda120acb023f6e351eff4302f9c7d78a8a8a604051610e9b93929190613701565b60405180910390a45050505050505050565b6002546001600160a01b031681565b610ec461254f565b600b546001600160a01b03908116911614610f14576040805162461bcd60e51b81526020600482018190526024820152600080516020613888833981519152604482015290519081900360640190fd5b6001600160a01b038116610f3a5760405162461bcd60e51b81526004016105e990613526565b600480546001600160a01b0319166001600160a01b0392909216919091179055565b60096020526000908152604090208054600182015460028301546003909301546001600160a01b0390921692909184565b60068181548110610f9d57600080fd5b6000918252602090912001546001600160a01b0316905081565b600080610fc484846125f6565b9050610fe387826000015183602001518460400151856060015161262a565b506001979650505050505050565b610ff961254f565b600b546001600160a01b03908116911614611049576040805162461bcd60e51b81526020600482018190526024820152600080516020613888833981519152604482015290519081900360640190fd5b6001600160a01b03811661106f5760405162461bcd60e51b81526004016105e990613526565b600280546001600160a01b0319166001600160a01b0392909216919091179055565b61109961254f565b600b546001600160a01b039081169116146110e9576040805162461bcd60e51b81526020600482018190526024820152600080516020613888833981519152604482015290519081900360640190fd5b6001600160a01b03811661110f5760405162461bcd60e51b81526004016105e990613526565b600180546001600160a01b0319166001600160a01b0392909216919091179055565b61113961254f565b600b546001600160a01b03908116911614611189576040805162461bcd60e51b81526020600482018190526024820152600080516020613888833981519152604482015290519081900360640190fd5b6001600160a01b0381166111af5760405162461bcd60e51b81526004016105e990613526565b600080546001600160a01b0319166001600160a01b0392909216919091179055565b6111d961254f565b600b546001600160a01b03908116911614611229576040805162461bcd60e51b81526020600482018190526024820152600080516020613888833981519152604482015290519081900360640190fd5b806008541061124a5760405162461bcd60e51b81526004016105e990613288565b60088190556112576127d5565b50565b6001600160a01b0390811660009081526009602052604090205416151590565b6000805b828110156112b3576112aa84848381811061129557fe5b90506020020160208101906104909190612c3c565b5060010161127e565b5092915050565b6001546001600160a01b031681565b60078181548110610f9d57600080fd5b6112e161254f565b600b546001600160a01b03908116911614611331576040805162461bcd60e51b81526020600482018190526024820152600080516020613888833981519152604482015290519081900360640190fd5b600a55565b6005546001600160a01b031661137d5760405162461bcd60e51b815260040180806020018281038252602b815260200180613905602b913960400191505060405180910390fd5b6004546001600160a01b03166113c45760405162461bcd60e51b815260040180806020018281038252602d81526020018061381a602d913960400191505060405180910390fd5b6003546001600160a01b031661140b5760405162461bcd60e51b81526004018080602001828103825260318152602001806138d46031913960400191505060405180910390fd5b6114143361125a565b156114315760405162461bcd60e51b81526004016105e99061359d565b600354600554600480546040516337d5af5f60e01b81526000946001600160a01b03908116946337d5af5f946114739433948a94938416939091169101613062565b602060405180830381600087803b15801561148d57600080fd5b505af11580156114a1573d6000803e3d6000fd5b505050506040513d601f19601f820116820180604052508101906114c59190612c58565b90506001600160a01b0381166114ed5760405162461bcd60e51b81526004016105e9906133fd565b60048054600554604051635e58d38f60e11b81526001600160a01b039283169363bcb1a71e93611522938793911691016130b6565b602060405180830381600087803b15801561153c57600080fd5b505af1158015611550573d6000803e3d6000fd5b505050506040513d601f19601f820116820180604052508101906115749190612e89565b6115905760405162461bcd60e51b81526004016105e990613495565b336000908152600960205260409020546001600160a01b0316156115c65760405162461bcd60e51b81526004016105e990613330565b604080516080810182526001600160a01b03808416825260006020808401828152848601838152606086018481523380865260099094528785209651875496166001600160a01b031996871617875591516001808801919091559051600287015590516003909501949094556006805494850181559091527ff652222313e28459528d920b65115c16c04f3efc82aaedc97be59f3f377c0d3f90920180549091168217905590517f7cf8db18d9a5c7f44156bfabdbb59ac982a8a004e461ca1b87ee71a5cdfbc5ef9061169c90849086906130f4565b60405180910390a25050565b6001600160a01b039081166000908152600960205260409020541690565b6005546001600160a01b031681565b6116dd61254f565b600b546001600160a01b0390811691161461172d576040805162461bcd60e51b81526020600482018190526024820152600080516020613888833981519152604482015290519081900360640190fd5b600b546040516000916001600160a01b0316907f8be0079c531659141344cd1fd0a4f28419497f9722a3daafe3b4186f6b6457e0908390a3600b80546001600160a01b0319169055565b61177f61254f565b600b546001600160a01b039081169116146117cf576040805162461bcd60e51b81526020600482018190526024820152600080516020613888833981519152604482015290519081900360640190fd5b6001600160a01b0381166117f55760405162461bcd60e51b81526004016105e990613526565b600580546001600160a01b0319166001600160a01b0392909216919091179055565b60065490565b61182561254f565b600b546001600160a01b03908116911614611875576040805162461bcd60e51b81526020600482018190526024820152600080516020613888833981519152604482015290519081900360640190fd5b6002546001600160a01b03166118bc5760405162461bcd60e51b815260040180806020018281038252602c8152602001806138a8602c913960400191505060405180910390fd5b600254604051630f47aa8d60e31b81526001600160a01b0390911690637a3d5468906118ee9085908590600401613737565b600060405180830381600087803b15801561190857600080fd5b505af115801561191c573d6000803e3d6000fd5b505050505050565b600a5481565b61193261254f565b600b546001600160a01b03908116911614611982576040805162461bcd60e51b81526020600482018190526024820152600080516020613888833981519152604482015290519081900360640190fd5b60006007828154811061199157fe5b60009182526020808320909101546001600160a01b03168083526009909152604090912060075491925090600019018314611a4e57600780546000919060001981019081106119dc57fe5b60009182526020808320909101546001600160a01b0316808352600990915260409091206002810186905560078054929350909183919087908110611a1d57fe5b9060005260206000200160006101000a8154816001600160a01b0302191690836001600160a01b0316021790555050505b600060028201556001810154611a699061079c904290612553565b6003820155600060018201556007805480611a8057fe5b600082815260209020810160001990810180546001600160a01b0319169055019055600854611ab0906001612553565b6008556040516000908490429060008051602061384783398151915290611ad890879061304e565b60405180910390a4600854611aee81600161259c565b6040517f8c0366d1e3a335a312d012257ee764723c38ec2dd5e74cbfad372513521f977190600090a3505050565b6001600160a01b0380821660009081526009602052604081205490911680611b565760405162461bcd60e51b81526004016105e990613385565b806001600160a01b031663764a78566040518163ffffffff1660e01b8152600401602060405180830381600087803b158015611b9157600080fd5b505af1158015611ba5573d6000803e3d6000fd5b505050506040513d601f19601f82011682018060405250810190611bc99190612e89565b5050919050565b33600081815260096020526040812091611be990611caf565b905060008111611c0b5760405162461bcd60e51b81526004016105e9906132e6565b600154604051633bc3556560e21b81526001600160a01b039091169063ef0d559490611c3d903390859060040161309d565b600060405180830381600087803b158015611c5757600080fd5b505af1158015611c6b573d6000803e3d6000fd5b50506040518392503391507fe013459a1c3162ae04cb4b22feaa126a5d302e283c7333f41d1ebe1b2cd7384b90600090a35050565b600b546001600160a01b031690565b6001600160a01b03811660009081526009602052604081206003810154600182015415611cfa57611cf7611cf083600101544261255390919063ffffffff16565b829061259c565b90505b600a54611d0890829061282a565b949350505050565b600254604080516302e0740360e31b8152815160009384936001600160a01b0390911692631703a0189260048083019392829003018186803b158015611d5557600080fd5b505afa158015611d69573d6000803e3d6000fd5b505050506040513d601f19601f82011682018060405250810190611d8d9190612eef565b600754602082015182519293509091611db29190611dac90849061282a565b90612883565b9250505090565b6001600160a01b0316600090815260096020526040902060010154151590565b600080611de5836116a8565b90506001600160a01b038116611e0d5760405162461bcd60e51b81526004016105e990613208565b600554604051634c063c1960e01b81526000916001600160a01b031690634c063c1990611e3e90859060040161304e565b60206040518083038186803b158015611e5657600080fd5b505afa158015611e6a573d6000803e3d6000fd5b505050506040513d601f19601f82011682018060405250810190611e8e9190612c58565b90506001600160a01b038116611eb65760405162461bcd60e51b81526004016105e9906135e6565b806001600160a01b03166318160ddd6040518163ffffffff1660e01b815260040160206040518083038186803b158015611eef57600080fd5b505afa158015611f03573d6000803e3d6000fd5b505050506040513d601f19601f82011682018060405250810190611d089190612f4f565b611f2f61254f565b600b546001600160a01b03908116911614611f7f576040805162461bcd60e51b81526020600482018190526024820152600080516020613888833981519152604482015290519081900360640190fd5b6002546001600160a01b0316611fc65760405162461bcd60e51b815260040180806020018281038252602c8152602001806138a8602c913960400191505060405180910390fd5b600254604051635a7b4db560e11b81526001600160a01b039091169063b4f69b6a90611ff69084906004016136aa565b600060405180830381600087803b15801561201057600080fd5b505af1158015612024573d6000803e3d6000fd5b5050505050565b6003546001600160a01b031681565b60003361204681611db9565b6120815760405162461bcd60e51b81526004018080602001828103825260238152602001806137f76023913960400191505060405180910390fd5b33600090815260096020526040812060028101546007805492939290919081106120a757fe5b9060005260206000200160006101000a8154816001600160a01b0302191690836001600160a01b031602179055506120ef61079c82600101544261255390919063ffffffff16565b6003820155600060018201819055600282015460405142906000805160206138478339815191529061212290339061304e565b60405180910390a460006002909101555090565b6000546001600160a01b031681565b6004546001600160a01b031681565b61215c61254f565b600b546001600160a01b039081169116146121ac576040805162461bcd60e51b81526020600482018190526024820152600080516020613888833981519152604482015290519081900360640190fd5b6002546001600160a01b03166121f35760405162461bcd60e51b815260040180806020018281038252602c8152602001806138a8602c913960400191505060405180910390fd5b600254604051630d10d2b560e41b81526001600160a01b039091169063d10d2b5090611ff69084906004016136aa565b61222b61254f565b600b546001600160a01b0390811691161461227b576040805162461bcd60e51b81526020600482018190526024820152600080516020613888833981519152604482015290519081900360640190fd5b6002546001600160a01b03166122c25760405162461bcd60e51b815260040180806020018281038252602c8152602001806138a8602c913960400191505060405180910390fd5b60025460405163d1f0473f60e01b81526001600160a01b039091169063d1f0473f90611ff69084906004016136aa565b6000806122fe846116a8565b90506001600160a01b0381166123265760405162461bcd60e51b81526004016105e990613208565b600554604051634c063c1960e01b81526000916001600160a01b031690634c063c199061235790859060040161304e565b60206040518083038186803b15801561236f57600080fd5b505afa158015612383573d6000803e3d6000fd5b505050506040513d601f19601f820116820180604052508101906123a79190612c58565b90506001600160a01b0381166123cf5760405162461bcd60e51b81526004016105e9906135e6565b6040516370a0823160e01b81526001600160a01b038216906370a08231906123fb90879060040161304e565b60206040518083038186803b15801561241357600080fd5b505afa158015612427573d6000803e3d6000fd5b505050506040513d601f19601f8201168201806040525081019061244b9190612f4f565b925050505b92915050565b61245e61254f565b600b546001600160a01b039081169116146124ae576040805162461bcd60e51b81526020600482018190526024820152600080516020613888833981519152604482015290519081900360640190fd5b6001600160a01b0381166124f35760405162461bcd60e51b81526004018080602001828103825260268152602001806137d16026913960400191505060405180910390fd5b600b546040516001600160a01b038084169216907f8be0079c531659141344cd1fd0a4f28419497f9722a3daafe3b4186f6b6457e090600090a3600b80546001600160a01b0319166001600160a01b0392909216919091179055565b3390565b600061259583836040518060400160405280601e81526020017f536166654d6174683a207375627472616374696f6e206f766572666c6f7700008152506128c5565b9392505050565b600082820183811015612595576040805162461bcd60e51b815260206004820152601b60248201527f536166654d6174683a206164646974696f6e206f766572666c6f770000000000604482015290519081900360640190fd5b6125fe612b86565b61260a82840184612c74565b6060850152604084015260208301526001600160a01b0316815292915050565b6002546000906001600160a01b03166126745760405162461bcd60e51b815260040180806020018281038252602c8152602001806138a8602c913960400191505060405180910390fd5b61267d8661295c565b600254604051630f07905160e31b81526000916001600160a01b03169063783c8288906126b69089908990899087908a90600401613118565b602060405180830381600087803b1580156126d057600080fd5b505af11580156126e4573d6000803e3d6000fd5b505050506040513d601f19601f820116820180604052508101906127089190612f4f565b600254604051636f35e9c360e11b815291925082916001600160a01b03808b169242927f09032c533eeeaf532aca60822adb8ac57ab801abda2d111b72eac42eaa794c69928c92169063de6bd386906127659088906004016136aa565b60206040518083038186803b15801561277d57600080fd5b505afa158015612791573d6000803e3d6000fd5b505050506040513d601f19601f820116820180604052508101906127b59190612f4f565b6040516127c392919061309d565b60405180910390a49695505050505050565b6007545b6008548110156112575760078054600181810183556000929092527fa66cc928b5edb82af9bd49922954155ab7b0942694bea4ce44661d9a8736c6880180546001600160a01b0319169055016127d9565b60008261283957506000612450565b8282028284828161284657fe5b04146125955760405162461bcd60e51b81526004018080602001828103825260218152602001806138676021913960400191505060405180910390fd5b600061259583836040518060400160405280601a81526020017f536166654d6174683a206469766973696f6e206279207a65726f000000000000815250612b21565b600081848411156129545760405162461bcd60e51b81526004018080602001828103825283818151815260200191508051906020019080838360005b83811015612919578181015183820152602001612901565b50505050905090810190601f1680156129465780820380516001836020036101000a031916815260200191505b509250505060405180910390fd5b505050900390565b60025460408051632522a32f60e01b815290516000926001600160a01b031691632522a32f916004808301926020929190829003018186803b1580156129a157600080fd5b505afa1580156129b5573d6000803e3d6000fd5b505050506040513d601f19601f820116820180604052508101906129d99190612f4f565b6000546040516323b872dd60e01b81529192506001600160a01b0316906323b872dd90612a0e908590309086906004016130d0565b602060405180830381600087803b158015612a2857600080fd5b505af1158015612a3c573d6000803e3d6000fd5b505050506040513d601f19601f82011682018060405250810190612a609190612e89565b612a7c5760405162461bcd60e51b81526004016105e9906131b2565b60005460405163a9059cbb60e01b81526001600160a01b039091169063a9059cbb90612aaf90600190859060040161309d565b602060405180830381600087803b158015612ac957600080fd5b505af1158015612add573d6000803e3d6000fd5b505050506040513d601f19601f82011682018060405250810190612b019190612e89565b612b1d5760405162461bcd60e51b81526004016105e9906133bc565b5050565b60008183612b705760405162461bcd60e51b8152602060048201818152835160248401528351909283926044909101919085019080838360008315612919578181015183820152602001612901565b506000838581612b7c57fe5b0495945050505050565b604051806080016040528060006001600160a01b031681526020016000815260200160008152602001606081525090565b6000612bca612bc584613769565b613745565b9050828152838383011115612bde57600080fd5b828260208301376000602084830101529392505050565b60008083601f840112612c06578182fd5b50813567ffffffffffffffff811115612c1d578182fd5b602083019150836020828501011115612c3557600080fd5b9250929050565b600060208284031215612c4d578081fd5b8135612595816137bb565b600060208284031215612c69578081fd5b8151612595816137bb565b60008060008060808587031215612c89578283fd5b8435612c94816137bb565b93506020850135925060408501359150606085013567ffffffffffffffff811115612cbd578182fd5b8501601f81018713612ccd578182fd5b612cdc87823560208401612bb7565b91505092959194509250565b60008060408385031215612cfa578182fd5b8235612d05816137bb565b91506020830135612d15816137bb565b809150509250929050565b600080600080600060808688031215612d37578081fd5b8535612d42816137bb565b94506020860135612d52816137bb565b935060408601359250606086013567ffffffffffffffff811115612d74578182fd5b612d8088828901612bf5565b969995985093965092949392505050565b60008060408385031215612da3578182fd5b8251612dae816137bb565b602084015190925067ffffffffffffffff811115612dca578182fd5b8301601f81018513612dda578182fd5b8051612de8612bc582613769565b818152866020838501011115612dfc578384fd5b612e0d82602083016020860161378b565b8093505050509250929050565b60008060208385031215612e2c578182fd5b823567ffffffffffffffff80821115612e43578384fd5b818501915085601f830112612e56578384fd5b813581811115612e64578485fd5b8660208083028501011115612e77578485fd5b60209290920196919550909350505050565b600060208284031215612e9a578081fd5b81518015158114612595578182fd5b600060208284031215612eba578081fd5b813567ffffffffffffffff811115612ed0578182fd5b8201601f81018413612ee0578182fd5b611d0884823560208401612bb7565b600060408284031215612f00578081fd5b6040516040810181811067ffffffffffffffff82111715612f1d57fe5b604052825181526020928301519281019290925250919050565b600060208284031215612f48578081fd5b5035919050565b600060208284031215612f60578081fd5b5051919050565b60008060408385031215612f79578182fd5b50508035926020909101359150565b60008060008060608587031215612f9d578182fd5b8435935060208501359250604085013567ffffffffffffffff811115612fc1578283fd5b612fcd87828801612bf5565b95989497509550505050565b600080600060608486031215612fed578081fd5b8351925060208401519150604084015190509250925092565b6000815180845261301e81602086016020860161378b565b601f01601f19169290920160200192915050565b6000825161304481846020870161378b565b9190910192915050565b6001600160a01b0391909116815260200190565b600060018060a01b038087168352608060208401526130846080840187613006565b9481166040840152929092166060909101525092915050565b6001600160a01b03929092168252602082015260400190565b6001600160a01b0392831681529116602082015260400190565b6001600160a01b039384168152919092166020820152604081019190915260600190565b6001600160a01b0383168152604060208201819052600090611d0890830184613006565b600060018060a01b038716825285602083015284604083015283606083015260a0608083015261314b60a0830184613006565b979650505050505050565b6001600160a01b0394909416845260208401929092526040830152606082015260800190565b901515815260200190565b6020808252601190820152701b9bdd08195b9bdd59da08185b5bdd5b9d607a1b604082015260600190565b60208082526036908201527f44414f436f6d6d697474656553746f72653a206661696c656420746f207472616040820152753739b332b9103a37b710333937b69031b932b0ba37b960511b606082015260800190565b6020808252601f908201527f54686973206163636f756e74206973206e6f7420612063616e64696461746500604082015260600190565b60208082526029908201527f44414f436f6d6d697474656553746f72653a20696e646578206973206e6f7420604082015268617661696c61626c6560b81b606082015260800190565b602080825260409082018190527f44414f436f6d6d697474656553746f72653a20596f75206861766520746f2063908201527f616c6c207265647563654d656d626572536c6f7420746f206465637265617365606082015260800190565b6020808252602a908201527f44414f436f6d6d69747465653a20796f7520646f6e2774206861766520636c6160408201526934b6b0b13632903a37b760b11b606082015260800190565b60208082526035908201527f44414f436f6d6d697474656553746f72653a205468652063616e64696461746560408201527408185b1c9958591e481a185cc818dbdb9d1c9858dd605a1b606082015260800190565b6020808252601d908201527f44414f436f6d6d69747465653a206e6f7420612063616e646964617465000000604082015260600190565b60208082526021908201527f44414f436f6d6d697474656553746f72653a206661696c656420746f206275726040820152603760f91b606082015260800190565b60208082526030908201527f44414f436f6d6d69747465653a206465706c6f7965642063616e64696461746560408201526f436f6e7472616374206973207a65726f60801b606082015260800190565b60208082526028908201527f44414f436f6d6d69747465653a2063616e206e6f74206578656375746520746860408201526765206167656e646160c01b606082015260800190565b60208082526030908201527f44414f436f6d6d69747465653a206661696c656420746f20726567697374657260408201526f416e644465706c6f79436f696e61676560801b606082015260800190565b60208082526021908201527f44414f436f6d6d697474656553746f72653a20616c7265616479206d656d62656040820152603960f91b606082015260800190565b6020808252600c908201526b7a65726f206164647265737360a01b604082015260600190565b60208082526031908201527f44414f436f6d6d697474656553746f72653a205468652061646472657373206960408201527073206e6f7420612063616e64696461746560781b606082015260800190565b60208082526029908201527f44414f436f6d6d69747465653a2063616e64696461746520616c7265616479206040820152681c9959da5cdd195c9960ba1b606082015260800190565b6020808252601d908201527f44414f436f6d6d69747465653a20636f696e616765206973207a65726f000000604082015260600190565b6020808252602a908201527f44414f436f6d6d69747465653a204661696c656420746f206578656375746520604082015269746865206167656e646160b01b606082015260800190565b60208082526023908201527f44414f436f6d6d69747465653a207265717569726564566f746573206973207a60408201526265726f60e81b606082015260800190565b90815260200190565b9283526001600160a01b03919091166020830152604082015260600190565b82815260408101600483106136e357fe5b8260208301529392505050565b82815260408101600683106136e357fe5b60008482526040602083015282604083015282846060840137818301606090810191909152601f909201601f1916010192915050565b918252602082015260400190565b60405181810167ffffffffffffffff8111828210171561376157fe5b604052919050565b600067ffffffffffffffff82111561377d57fe5b50601f01601f191660200190565b60005b838110156137a657818101518382015260200161378e565b838111156137b5576000848401525b50505050565b6001600160a01b038116811461125757600080fdfe4f776e61626c653a206e6577206f776e657220697320746865207a65726f206164647265737353746f726167655374617465436f6d6d69747465653a206e6f742061206d656d62657253746f726167655374617465436f6d6d69747465653a20756e76616c6964204c61796572325265676973747279ea3fd787e2f4c0fdea14457bfcd00fe64cedf6155b00934cf90ba255a5c7c6bf536166654d6174683a206d756c7469706c69636174696f6e206f766572666c6f774f776e61626c653a2063616c6c6572206973206e6f7420746865206f776e657253746f726167655374617465436f6d6d69747465653a204167656e64614d616e61676572206973207a65726f53746f726167655374617465436f6d6d69747465653a20756e76616c696420436f6d6d69747465654c32466163746f727953746f726167655374617465436f6d6d69747465653a20756e76616c696420536569674d616e6167657265a26469706673582212202838995f65cb40de2b2eb12897c5b9cf30b96dbc4dc3fba6db1c93b860ab715c64736f6c63430007060033",
  "immutableReferences": {},
  "source": "// SPDX-License-Identifier: MIT\npragma solidity ^0.7.6;\npragma abicoder v2;\n\nimport \"../../node_modules/@openzeppelin/contracts/access/Ownable.sol\";\nimport \"./StorageStateCommittee.sol\";\n\nimport { SafeMath } from \"../../node_modules/@openzeppelin/contracts/math/SafeMath.sol\";\nimport { IERC20 } from  \"../../node_modules/@openzeppelin/contracts/token/ERC20/IERC20.sol\";\nimport { ICandidate } from \"../interfaces/ICandidate.sol\";\nimport { IDAOAgendaManager } from \"../interfaces/IDAOAgendaManager.sol\";\nimport { LibAgenda } from \"../lib/Agenda.sol\";\n\ncontract DAOCommittee is StorageStateCommittee, Ownable {\n    using SafeMath for uint256;\n    using LibAgenda for *;\n     \n    enum ApplyResult { NONE, SUCCESS, NOT_ELECTION, ALREADY_COMMITTEE, SLOT_INVALID, ADDMEMBER_FAIL, LOW_BALANCE }\n\n    struct AgendaCreatingData {\n        address target;\n        uint256 noticePeriodSeconds;\n        uint256 votingPeriodSeconds;\n        bytes functionBytecode;\n    }\n\n    //////////////////////////////\n    // Events\n    //////////////////////////////\n\n    event AgendaCreated(\n        uint256 indexed timestamp,\n        address indexed from,\n        uint256 indexed id,\n        address target,\n        uint256 noticeEndTimestamp\n    );\n\n    event AgendaVoteCasted(\n        uint256 indexed timestamp,\n        address indexed from,\n        uint256 indexed id,\n        uint voting,\n        string comment\n    );\n\n    event AgendaExecuted(\n        uint256 indexed timestamp,\n        address indexed from,\n        uint256 indexed id,\n        address target,\n        bytes functionBytecode\n    );\n\n    event CandidateContractCreated(\n        address indexed candidate,\n        address candidateContract,\n        string memo\n    );\n\n    event ChangedMember(\n        uint256 indexed timestamp,\n        uint256 indexed slotIndex,\n        address prevMember,\n        address indexed newMember\n    );\n\n    event ChangedSlotMaximum(\n        uint256 indexed prevSlotMax,\n        uint256 indexed slotMax\n    );\n\n    event ClaimedActivityReward(\n        address indexed candidate,\n        uint256 indexed amount\n    );\n\n    //////////////////////////////////////////////////////////////////////\n    // setters\n\n    function setSeigManager(address _agendaManager) public onlyOwner {\n        require(_agendaManager != address(0), \"zero address\");\n        seigManager = ISeigManager(_agendaManager);\n    }\n     \n    function setDaoVault(address _daoVault) public onlyOwner {\n        require(_daoVault != address(0), \"zero address\");\n        daoVault = IDAOVault2(_daoVault);\n    }\n\n    function setLayer2Registry(address _layer2Registry) public onlyOwner {\n        require(_layer2Registry != address(0), \"zero address\");\n        layer2Registry = ILayer2Registry(_layer2Registry);\n    }\n\n    function setAgendaManager(address _agendaManager) public onlyOwner {\n        require(_agendaManager != address(0), \"zero address\");\n        agendaManager = IDAOAgendaManager(_agendaManager);\n    }\n\n    function setCandidateFactory(address _candidateFactory) public onlyOwner {\n        require(_candidateFactory != address(0), \"zero address\");\n        candidateFactory = ICandidateFactory(_candidateFactory);\n    }\n\n    function setTon(address _ton) public onlyOwner {\n        require(_ton != address(0), \"zero address\");\n        ton = _ton;\n    }\n\n    function setActivityRewardPerSecond(uint256 _value) public onlyOwner {\n        activityRewardPerSecond = _value;\n    }\n\n    function setMaxMember(uint256 _maxMember) onlyOwner public {\n        require(maxMember < _maxMember, \"DAOCommitteeStore: You have to call reduceMemberSlot to decrease\");\n        maxMember = _maxMember;\n        fillMemberSlot();\n    }\n\n    //////////////////////////////////////////////////////////////////////\n    // Managing members\n\n    function createCandidate(string memory _memo)\n        public\n        validSeigManager\n        validLayer2Registry\n        validCommitteeL2Factory\n    {\n        require(!isExistCandidate(msg.sender), \"DAOCommittee: candidate already registerd\");\n\n        //uint256 minimumAmount = seigManager.minimumAmount();\n        //require(minimumAmount <= tonAmount, \"DAOCommittee: not enough ton\");\n          \n        // Candidate\n        address candidateContract = candidateFactory.deploy(msg.sender, _memo, address(seigManager), address(layer2Registry));\n        require(\n            candidateContract != address(0),\n            \"DAOCommittee: deployed candidateContract is zero\"\n        );\n        require(\n            layer2Registry.registerAndDeployCoinage(candidateContract, address(seigManager)),\n            \"DAOCommittee: failed to registerAndDeployCoinage\"\n        );\n        require(\n            candidateInfos[msg.sender].candidateContract == address(0),\n            \"DAOCommitteeStore: The candidate already has contract\"\n        );\n\n        candidateInfos[msg.sender] = CandidateInfo({\n            candidateContract: candidateContract,\n            memberJoinedTime: 0,\n            indexMembers: 0,\n            rewardPeriod: 0\n        });\n\n        candidates.push(msg.sender);\n       \n        emit CandidateContractCreated(msg.sender, candidateContract, _memo);\n    }\n\n    function changeMember(uint256 _memberIndex)\n        public\n        returns (bool)\n    {\n        CandidateInfo storage candidateInfo = candidateInfos[msg.sender];\n        require(\n            _memberIndex < maxMember,\n            \"DAOCommitteeStore: index is not available\"\n        );\n        require(\n            candidateInfo.candidateContract != address(0),\n            \"DAOCommitteeStore: The address is not a candidate\"\n        );\n        require(\n            candidateInfo.memberJoinedTime == 0,\n            \"DAOCommitteeStore: already member\"\n        );\n        \n        address prevMember = members[_memberIndex];\n\n        candidateInfo.memberJoinedTime = block.timestamp;\n        candidateInfo.indexMembers = _memberIndex;\n\n        members[_memberIndex] = msg.sender;\n\n        if (prevMember == address(0)) {\n            emit ChangedMember(block.timestamp, _memberIndex, prevMember, msg.sender);\n            return true;\n        }\n\n        require(\n            totalSupplyOnCandidate(msg.sender) > totalSupplyOnCandidate(prevMember),\n            \"not enough amount\"\n        );\n\n        CandidateInfo storage prevCandidate = candidateInfos[prevMember];\n        prevCandidate.indexMembers = 0;\n        prevCandidate.rewardPeriod = prevCandidate.rewardPeriod.add(block.timestamp.sub(prevCandidate.memberJoinedTime));\n        prevCandidate.memberJoinedTime = 0;\n\n        emit ChangedMember(block.timestamp, _memberIndex, prevMember, msg.sender);\n\n        return true;\n    }\n    \n    function retireMember() onlyMember(msg.sender) public returns (bool) {\n        CandidateInfo storage candidateInfo = candidateInfos[msg.sender];\n        members[candidateInfo.indexMembers] = address(0);\n        candidateInfo.rewardPeriod = candidateInfo.rewardPeriod.add(block.timestamp.sub(candidateInfo.memberJoinedTime));\n        candidateInfo.memberJoinedTime = 0;\n\n        emit ChangedMember(block.timestamp, candidateInfo.indexMembers, msg.sender, address(0));\n\n        candidateInfo.indexMembers = 0;\n    }\n\n    function reduceMemberSlot(uint256 _reducingMemberIndex) public onlyOwner {\n        address reducingMember = members[_reducingMemberIndex];\n        CandidateInfo storage reducingCandidate = candidateInfos[reducingMember];\n\n        if (_reducingMemberIndex != members.length - 1) {\n            address tailmember = members[members.length - 1];\n            CandidateInfo storage tailCandidate = candidateInfos[tailmember];\n\n            tailCandidate.indexMembers = _reducingMemberIndex;\n            members[_reducingMemberIndex] = tailmember;\n        }\n        reducingCandidate.indexMembers = 0;\n        reducingCandidate.rewardPeriod = reducingCandidate.rewardPeriod.add(block.timestamp.sub(reducingCandidate.memberJoinedTime));\n        reducingCandidate.memberJoinedTime = 0;\n\n        members.pop();\n        maxMember = maxMember.sub(1);\n\n        emit ChangedMember(block.timestamp, _reducingMemberIndex, reducingMember, address(0));\n        emit ChangedSlotMaximum(maxMember.add(1), maxMember);\n    }\n\n    //////////////////////////////////////////////////////////////////////\n    // Managing agenda\n\n    function onApprove(\n        address owner,\n        address spender,\n        uint256 tonAmount,\n        bytes calldata data\n    ) external returns (bool) {\n        AgendaCreatingData memory agendaData = _decodeAgendaData(data);\n\n        _createAgenda(\n            owner,\n            agendaData.target,\n            agendaData.noticePeriodSeconds,\n            agendaData.votingPeriodSeconds,\n            agendaData.functionBytecode\n        );\n\n        return true;\n    }\n\n    function setQuorum(\n        uint256 _quorumNumerator,\n        uint256 _quorumDenominator\n    )\n        public\n        onlyOwner\n        validAgendaManager\n    {\n        agendaManager.setQuorum(_quorumNumerator, _quorumDenominator);\n    }\n\n    function setCreateAgendaFees(\n        uint256 _fees\n    )\n        public\n        onlyOwner\n        validAgendaManager\n    {\n        agendaManager.setCreateAgendaFees(_fees);\n    }\n\n    function setMinimunNoticePeriodSeconds(\n        uint256 _minimunNoticePeriod\n    )\n        public\n        onlyOwner\n        validAgendaManager\n    {\n        agendaManager.setMinimunNoticePeriodSeconds(_minimunNoticePeriod);\n    }\n\n    function setMinimunVotingPeriodSeconds(\n        uint256 _minimunVotingPeriod\n    )\n        public\n        onlyOwner\n        validAgendaManager\n    {\n        agendaManager.setMinimunVotingPeriodSeconds(_minimunVotingPeriod);\n    }\n\n    function castVote(\n        uint256 _agendaID,\n        uint _vote,\n        string calldata _comment\n    )\n        public \n        validAgendaManager\n    {\n        uint256 requiredVotes = requiredVotesToPass();\n        require(requiredVotes > 0, \"DAOCommittee: requiredVotes is zero\");\n        \n        agendaManager.castVote(\n            _agendaID,\n            msg.sender,\n            _vote\n        );\n\n        (uint256 yes, uint256 no, uint256 abstain) = agendaManager.getVotingCount(_agendaID);\n\n        if (requiredVotes < yes) {\n            // yes\n            agendaManager.setResult(_agendaID, LibAgenda.AgendaResult.ACCEPT);\n            agendaManager.setStatus(_agendaID, LibAgenda.AgendaStatus.WAITING_EXEC);\n        } else if (requiredVotes < no) {\n            // no\n            agendaManager.setResult(_agendaID, LibAgenda.AgendaResult.REJECT);\n            agendaManager.setStatus(_agendaID, LibAgenda.AgendaStatus.ENDED);\n        } else if (requiredVotes < abstain.add(no) ) {\n            // dismiss\n            agendaManager.setResult(_agendaID, LibAgenda.AgendaResult.DISMISS);\n            agendaManager.setStatus(_agendaID, LibAgenda.AgendaStatus.ENDED);\n        }\n        \n        emit AgendaVoteCasted(block.timestamp, msg.sender, _agendaID, _vote, _comment);\n    }\n\n    function executeAgenda(uint256 _agendaID) public validAgendaManager {\n        require(\n            agendaManager.canExecuteAgenda(_agendaID),\n            \"DAOCommittee: can not execute the agenda\"\n        );\n        \n        (address target, bytes memory functionBytecode) = agendaManager.getExecutionInfo(_agendaID);\n       \n        (bool success, ) = address(target).call(functionBytecode);\n        require(success, \"DAOCommittee: Failed to execute the agenda\");\n         \n        agendaManager.setExecutedAgenda(_agendaID);\n\n        emit AgendaExecuted(block.timestamp, msg.sender, _agendaID, target, functionBytecode);\n    }\n     \n    function updateSeigniorage(address _candidate) public returns (bool) {\n        address candidateContract = candidateInfos[_candidate].candidateContract;\n        require(candidateContract != address(0), \"DAOCommittee: not a candidate\");\n        ICandidate(candidateContract).updateSeigniorage();\n\n        //emit CommitteeUpdateSeigniorage(msg.sender);\n    }\n\n    function updateSeigniorages(address[] calldata _candidates) public returns (bool) {\n        for (uint256 i = 0; i < _candidates.length; i++) {\n            updateSeigniorage(_candidates[i]);\n        }\n    }\n\n    function claimActivityReward() public {\n        CandidateInfo storage info = candidateInfos[msg.sender];\n        uint256 amount = getClaimableActivityReward(msg.sender);\n\n        require(amount > 0, \"DAOCommittee: you don't have claimable ton\");\n\n        daoVault.claimTON(msg.sender, amount);\n\n        emit ClaimedActivityReward(msg.sender, amount);\n    }\n\n    function fillMemberSlot() internal {\n        for (uint256 i = members.length; i < maxMember; i++) {\n            members.push(address(0));\n        }\n    }\n\n    function _decodeAgendaData(bytes calldata input)\n        internal\n        view\n        returns (AgendaCreatingData memory data)\n    {\n        (data.target, data.noticePeriodSeconds, data.votingPeriodSeconds, data.functionBytecode) = \n            abi.decode(input, (address, uint256, uint256, bytes));\n    }\n\n    function payCreatingAgendaFee(address _creator) internal {\n        uint256 fee = agendaManager.createAgendaFees();\n\n        require(IERC20(ton).transferFrom(_creator, address(this), fee), \"DAOCommitteeStore: failed to transfer ton from creator\");\n        require(IERC20(ton).transfer(address(1), fee), \"DAOCommitteeStore: failed to burn\");\n    }\n   \n    function _createAgenda(\n        address _creator,\n        address _target,\n        uint256 _noticePeriodSeconds,\n        uint256 _votingPeriodSeconds,\n        bytes memory _functionBytecode\n    )\n        internal\n        validAgendaManager\n        returns (uint256)\n    {\n        // pay to create agenda, burn ton.\n        payCreatingAgendaFee(_creator);\n\n        uint256 agendaID = agendaManager.newAgenda(\n            _target,\n            _noticePeriodSeconds,\n            _votingPeriodSeconds,\n            0,\n            _functionBytecode\n        );\n          \n        emit AgendaCreated(\n            block.timestamp,\n            _creator,\n            agendaID,\n            _target,\n            agendaManager.getAgendaNoticeEndTimeSeconds(agendaID)\n        );\n\n        return agendaID;\n    }\n    \n    function requiredVotesToPass()\n        public\n        view\n        returns (uint256 requiredVotes)\n    {\n        IDAOAgendaManager.Ratio memory quorum = agendaManager.quorum();\n        uint256 total = members.length;\n        requiredVotes = total.mul(quorum.numerator).div(quorum.denominator);\n    }\n    \n    function totalSupplyOnCandidate(\n        address _candidate\n    )\n        public\n        view\n        returns (uint256 totalsupply)\n    {\n        address candidateContract = candidateContract(_candidate);\n        require(candidateContract != address(0), \"This account is not a candidate\");\n\n        address coinage = seigManager.coinages(candidateContract);\n        require(coinage != address(0), \"DAOCommittee: coinage is zero\");\n        return IERC20(coinage).totalSupply();\n    }\n\n    function balanceOfOnCandidate(\n        address _candidate,\n        address account\n    )\n        public\n        view\n        returns (uint256 amount)\n    {\n        address candidateContract = candidateContract(_candidate);\n        require(candidateContract != address(0), \"This account is not a candidate\");\n\n        address coinage = seigManager.coinages(candidateContract);\n        require(coinage != address(0), \"DAOCommittee: coinage is zero\");\n        return IERC20(coinage).balanceOf(account);\n    }\n    \n    function candidatesLength() public view returns (uint256) {\n        return candidates.length;\n    }\n\n    function isExistCandidate(address _candidate) public view returns (bool isExist) {\n        return candidateInfos[_candidate].candidateContract != address(0);\n    }\n\n    /*function candidateContract(address _candidate) public view returns (address) {\n        return candidateInfos[_candidate].candidateContract;\n    }*/\n\n    function getClaimableActivityReward(address _candidate) public view returns (uint256) {\n        CandidateInfo storage info = candidateInfos[_candidate];\n        uint256 period = info.rewardPeriod;\n\n        if (info.memberJoinedTime > 0) {\n            period = period.add(block.timestamp.sub(info.memberJoinedTime));\n        }\n\n        return period.mul(activityRewardPerSecond);\n    }\n}\n",
  "sourcePath": "/data/github/onther/tokamak-dao-contracts3/contracts/dao/DAOCommittee.sol",
  "compiler": {
    "name": "solc",
    "version": "0.7.6+commit.7338295f.Emscripten.clang"
  },
  "schemaVersion": "3.3.2",
  "updatedAt": "2021-01-11T00:35:17.248Z",
  "devdoc": {
    "kind": "dev",
    "methods": {
      "owner()": {
        "details": "Returns the address of the current owner."
      },
      "renounceOwnership()": {
        "details": "Leaves the contract without owner. It will not be possible to call `onlyOwner` functions anymore. Can only be called by the current owner. NOTE: Renouncing ownership will leave the contract without an owner, thereby removing any functionality that is only available to the owner."
      },
      "transferOwnership(address)": {
        "details": "Transfers ownership of the contract to a new account (`newOwner`). Can only be called by the current owner."
      }
    },
    "version": 1
  },
  "userdoc": {
    "kind": "user",
    "methods": {},
    "version": 1
  }
}