{
  "contractName": "DAOCommittee",
  "abi": [
    {
      "anonymous": false,
      "inputs": [
        {
          "indexed": true,
          "internalType": "address",
          "name": "from",
          "type": "address"
        },
        {
          "indexed": true,
          "internalType": "uint256",
          "name": "id",
          "type": "uint256"
        },
        {
          "indexed": false,
          "internalType": "address[]",
          "name": "targets",
          "type": "address[]"
        },
        {
          "indexed": false,
          "internalType": "uint256",
          "name": "noticePeriodSeconds",
          "type": "uint256"
        },
        {
          "indexed": false,
          "internalType": "uint256",
          "name": "votingPeriodSeconds",
          "type": "uint256"
        }
      ],
      "name": "AgendaCreated",
      "type": "event"
    },
    {
      "anonymous": false,
      "inputs": [
        {
          "indexed": true,
          "internalType": "uint256",
          "name": "id",
          "type": "uint256"
        },
        {
          "indexed": false,
          "internalType": "address[]",
          "name": "target",
          "type": "address[]"
        }
      ],
      "name": "AgendaExecuted",
      "type": "event"
    },
    {
      "anonymous": false,
      "inputs": [
        {
          "indexed": true,
          "internalType": "address",
          "name": "from",
          "type": "address"
        },
        {
          "indexed": true,
          "internalType": "uint256",
          "name": "id",
          "type": "uint256"
        },
        {
          "indexed": false,
          "internalType": "uint256",
          "name": "voting",
          "type": "uint256"
        },
        {
          "indexed": false,
          "internalType": "string",
          "name": "comment",
          "type": "string"
        }
      ],
      "name": "AgendaVoteCasted",
      "type": "event"
    },
    {
      "anonymous": false,
      "inputs": [
        {
          "indexed": true,
          "internalType": "address",
          "name": "from",
          "type": "address"
        },
        {
          "indexed": false,
          "internalType": "address",
          "name": "member",
          "type": "address"
        },
        {
          "indexed": false,
          "internalType": "uint256",
          "name": "totalbalance",
          "type": "uint256"
        },
        {
          "indexed": false,
          "internalType": "uint256",
          "name": "memberIndex",
          "type": "uint256"
        }
      ],
      "name": "ApplyMemberSuccess",
      "type": "event"
    },
    {
      "anonymous": false,
      "inputs": [
        {
          "indexed": true,
          "internalType": "address",
          "name": "candidate",
          "type": "address"
        },
        {
          "indexed": true,
          "internalType": "address",
          "name": "candidateContract",
          "type": "address"
        },
        {
          "indexed": false,
          "internalType": "string",
          "name": "memo",
          "type": "string"
        }
      ],
      "name": "CandidateContractCreated",
      "type": "event"
    },
    {
      "anonymous": false,
      "inputs": [
        {
          "indexed": true,
          "internalType": "uint256",
          "name": "slotIndex",
          "type": "uint256"
        },
        {
          "indexed": false,
          "internalType": "address",
          "name": "prevMember",
          "type": "address"
        },
        {
          "indexed": true,
          "internalType": "address",
          "name": "newMember",
          "type": "address"
        }
      ],
      "name": "ChangedMember",
      "type": "event"
    },
    {
      "anonymous": false,
      "inputs": [
        {
          "indexed": true,
          "internalType": "uint256",
          "name": "prevSlotMax",
          "type": "uint256"
        },
        {
          "indexed": true,
          "internalType": "uint256",
          "name": "slotMax",
          "type": "uint256"
        }
      ],
      "name": "ChangedSlotMaximum",
      "type": "event"
    },
    {
      "anonymous": false,
      "inputs": [
        {
          "indexed": true,
          "internalType": "address",
          "name": "candidate",
          "type": "address"
        },
        {
          "indexed": false,
          "internalType": "uint256",
          "name": "amount",
          "type": "uint256"
        }
      ],
      "name": "ClaimedActivityReward",
      "type": "event"
    },
    {
      "anonymous": false,
      "inputs": [
        {
          "indexed": true,
          "internalType": "address",
          "name": "candidate",
          "type": "address"
        },
        {
          "indexed": true,
          "internalType": "address",
          "name": "candidateContract",
          "type": "address"
        },
        {
          "indexed": false,
          "internalType": "string",
          "name": "memo",
          "type": "string"
        }
      ],
      "name": "OperatorRegistered",
      "type": "event"
    },
    {
      "anonymous": false,
      "inputs": [
        {
          "indexed": false,
          "internalType": "uint256",
          "name": "newQuorum",
          "type": "uint256"
        }
      ],
      "name": "QuorumChanged",
      "type": "event"
    },
    {
      "anonymous": false,
      "inputs": [
        {
          "indexed": true,
          "internalType": "bytes32",
          "name": "role",
          "type": "bytes32"
        },
        {
          "indexed": true,
          "internalType": "bytes32",
          "name": "previousAdminRole",
          "type": "bytes32"
        },
        {
          "indexed": true,
          "internalType": "bytes32",
          "name": "newAdminRole",
          "type": "bytes32"
        }
      ],
      "name": "RoleAdminChanged",
      "type": "event"
    },
    {
      "anonymous": false,
      "inputs": [
        {
          "indexed": true,
          "internalType": "bytes32",
          "name": "role",
          "type": "bytes32"
        },
        {
          "indexed": true,
          "internalType": "address",
          "name": "account",
          "type": "address"
        },
        {
          "indexed": true,
          "internalType": "address",
          "name": "sender",
          "type": "address"
        }
      ],
      "name": "RoleGranted",
      "type": "event"
    },
    {
      "anonymous": false,
      "inputs": [
        {
          "indexed": true,
          "internalType": "bytes32",
          "name": "role",
          "type": "bytes32"
        },
        {
          "indexed": true,
          "internalType": "address",
          "name": "account",
          "type": "address"
        },
        {
          "indexed": true,
          "internalType": "address",
          "name": "sender",
          "type": "address"
        }
      ],
      "name": "RoleRevoked",
      "type": "event"
    },
    {
      "inputs": [],
      "name": "DEFAULT_ADMIN_ROLE",
      "outputs": [
        {
          "internalType": "bytes32",
          "name": "",
          "type": "bytes32"
        }
      ],
      "stateMutability": "view",
      "type": "function",
      "constant": true
    },
    {
      "inputs": [],
      "name": "activityRewardPerSecond",
      "outputs": [
        {
          "internalType": "uint256",
          "name": "",
          "type": "uint256"
        }
      ],
      "stateMutability": "view",
      "type": "function",
      "constant": true
    },
    {
      "inputs": [],
      "name": "agendaManager",
      "outputs": [
        {
          "internalType": "contract IDAOAgendaManager",
          "name": "",
          "type": "address"
        }
      ],
      "stateMutability": "view",
      "type": "function",
      "constant": true
    },
    {
      "inputs": [
        {
          "internalType": "address",
          "name": "_candidate",
          "type": "address"
        }
      ],
      "name": "candidateContract",
      "outputs": [
        {
          "internalType": "address",
          "name": "",
          "type": "address"
        }
      ],
      "stateMutability": "view",
      "type": "function",
      "constant": true
    },
    {
      "inputs": [],
      "name": "candidateFactory",
      "outputs": [
        {
          "internalType": "contract ICandidateFactory",
          "name": "",
          "type": "address"
        }
      ],
      "stateMutability": "view",
      "type": "function",
      "constant": true
    },
    {
      "inputs": [
        {
          "internalType": "address",
          "name": "",
          "type": "address"
        }
      ],
      "name": "candidateInfos",
      "outputs": [
        {
          "internalType": "address",
          "name": "candidateContract",
          "type": "address"
        },
        {
          "internalType": "uint256",
          "name": "memberJoinedTime",
          "type": "uint256"
        },
        {
          "internalType": "uint256",
          "name": "indexMembers",
          "type": "uint256"
        },
        {
          "internalType": "uint256",
          "name": "rewardPeriod",
          "type": "uint256"
        },
        {
          "internalType": "uint256",
          "name": "claimedTimestamp",
          "type": "uint256"
        }
      ],
      "stateMutability": "view",
      "type": "function",
      "constant": true
    },
    {
      "inputs": [
        {
          "internalType": "uint256",
          "name": "",
          "type": "uint256"
        }
      ],
      "name": "candidates",
      "outputs": [
        {
          "internalType": "address",
          "name": "",
          "type": "address"
        }
      ],
      "stateMutability": "view",
      "type": "function",
      "constant": true
    },
    {
      "inputs": [],
      "name": "daoVault",
      "outputs": [
        {
          "internalType": "contract IDAOVault2",
          "name": "",
          "type": "address"
        }
      ],
      "stateMutability": "view",
      "type": "function",
      "constant": true
    },
    {
      "inputs": [
        {
          "internalType": "bytes32",
          "name": "role",
          "type": "bytes32"
        }
      ],
      "name": "getRoleAdmin",
      "outputs": [
        {
          "internalType": "bytes32",
          "name": "",
          "type": "bytes32"
        }
      ],
      "stateMutability": "view",
      "type": "function",
      "constant": true
    },
    {
      "inputs": [
        {
          "internalType": "bytes32",
          "name": "role",
          "type": "bytes32"
        },
        {
          "internalType": "uint256",
          "name": "index",
          "type": "uint256"
        }
      ],
      "name": "getRoleMember",
      "outputs": [
        {
          "internalType": "address",
          "name": "",
          "type": "address"
        }
      ],
      "stateMutability": "view",
      "type": "function",
      "constant": true
    },
    {
      "inputs": [
        {
          "internalType": "bytes32",
          "name": "role",
          "type": "bytes32"
        }
      ],
      "name": "getRoleMemberCount",
      "outputs": [
        {
          "internalType": "uint256",
          "name": "",
          "type": "uint256"
        }
      ],
      "stateMutability": "view",
      "type": "function",
      "constant": true
    },
    {
      "inputs": [
        {
          "internalType": "bytes32",
          "name": "role",
          "type": "bytes32"
        },
        {
          "internalType": "address",
          "name": "account",
          "type": "address"
        }
      ],
      "name": "grantRole",
      "outputs": [],
      "stateMutability": "nonpayable",
      "type": "function"
    },
    {
      "inputs": [
        {
          "internalType": "bytes32",
          "name": "role",
          "type": "bytes32"
        },
        {
          "internalType": "address",
          "name": "account",
          "type": "address"
        }
      ],
      "name": "hasRole",
      "outputs": [
        {
          "internalType": "bool",
          "name": "",
          "type": "bool"
        }
      ],
      "stateMutability": "view",
      "type": "function",
      "constant": true
    },
    {
      "inputs": [
        {
          "internalType": "address",
          "name": "_candidate",
          "type": "address"
        }
      ],
      "name": "isMember",
      "outputs": [
        {
          "internalType": "bool",
          "name": "",
          "type": "bool"
        }
      ],
      "stateMutability": "view",
      "type": "function",
      "constant": true
    },
    {
      "inputs": [],
      "name": "layer2Registry",
      "outputs": [
        {
          "internalType": "contract ILayer2Registry",
          "name": "",
          "type": "address"
        }
      ],
      "stateMutability": "view",
      "type": "function",
      "constant": true
    },
    {
      "inputs": [],
      "name": "maxMember",
      "outputs": [
        {
          "internalType": "uint256",
          "name": "",
          "type": "uint256"
        }
      ],
      "stateMutability": "view",
      "type": "function",
      "constant": true
    },
    {
      "inputs": [
        {
          "internalType": "uint256",
          "name": "",
          "type": "uint256"
        }
      ],
      "name": "members",
      "outputs": [
        {
          "internalType": "address",
          "name": "",
          "type": "address"
        }
      ],
      "stateMutability": "view",
      "type": "function",
      "constant": true
    },
    {
      "inputs": [],
      "name": "quorum",
      "outputs": [
        {
          "internalType": "uint256",
          "name": "",
          "type": "uint256"
        }
      ],
      "stateMutability": "view",
      "type": "function",
      "constant": true
    },
    {
      "inputs": [
        {
          "internalType": "bytes32",
          "name": "role",
          "type": "bytes32"
        },
        {
          "internalType": "address",
          "name": "account",
          "type": "address"
        }
      ],
      "name": "renounceRole",
      "outputs": [],
      "stateMutability": "nonpayable",
      "type": "function"
    },
    {
      "inputs": [
        {
          "internalType": "bytes32",
          "name": "role",
          "type": "bytes32"
        },
        {
          "internalType": "address",
          "name": "account",
          "type": "address"
        }
      ],
      "name": "revokeRole",
      "outputs": [],
      "stateMutability": "nonpayable",
      "type": "function"
    },
    {
      "inputs": [],
      "name": "seigManager",
      "outputs": [
        {
          "internalType": "contract ISeigManager",
          "name": "",
          "type": "address"
        }
      ],
      "stateMutability": "view",
      "type": "function",
      "constant": true
    },
    {
      "inputs": [],
      "name": "ton",
      "outputs": [
        {
          "internalType": "address",
          "name": "",
          "type": "address"
        }
      ],
      "stateMutability": "view",
      "type": "function",
      "constant": true
    },
    {
      "inputs": [
        {
          "internalType": "address",
          "name": "_seigManager",
          "type": "address"
        }
      ],
      "name": "setSeigManager",
      "outputs": [],
      "stateMutability": "nonpayable",
      "type": "function"
    },
    {
      "inputs": [
        {
          "internalType": "address[]",
          "name": "candidateContracts",
          "type": "address[]"
        },
        {
          "internalType": "address",
          "name": "_seigManager",
          "type": "address"
        }
      ],
      "name": "setCandidatesSeigManager",
      "outputs": [],
      "stateMutability": "nonpayable",
      "type": "function"
    },
    {
      "inputs": [
        {
          "internalType": "address[]",
          "name": "candidateContracts",
          "type": "address[]"
        },
        {
          "internalType": "address",
          "name": "_committee",
          "type": "address"
        }
      ],
      "name": "setCandidatesCommittee",
      "outputs": [],
      "stateMutability": "nonpayable",
      "type": "function"
    },
    {
      "inputs": [
        {
          "internalType": "address",
          "name": "_daoVault",
          "type": "address"
        }
      ],
      "name": "setDaoVault",
      "outputs": [],
      "stateMutability": "nonpayable",
      "type": "function"
    },
    {
      "inputs": [
        {
          "internalType": "address",
          "name": "_layer2Registry",
          "type": "address"
        }
      ],
      "name": "setLayer2Registry",
      "outputs": [],
      "stateMutability": "nonpayable",
      "type": "function"
    },
    {
      "inputs": [
        {
          "internalType": "address",
          "name": "_agendaManager",
          "type": "address"
        }
      ],
      "name": "setAgendaManager",
      "outputs": [],
      "stateMutability": "nonpayable",
      "type": "function"
    },
    {
      "inputs": [
        {
          "internalType": "address",
          "name": "_candidateFactory",
          "type": "address"
        }
      ],
      "name": "setCandidateFactory",
      "outputs": [],
      "stateMutability": "nonpayable",
      "type": "function"
    },
    {
      "inputs": [
        {
          "internalType": "address",
          "name": "_ton",
          "type": "address"
        }
      ],
      "name": "setTon",
      "outputs": [],
      "stateMutability": "nonpayable",
      "type": "function"
    },
    {
      "inputs": [
        {
          "internalType": "uint256",
          "name": "_value",
          "type": "uint256"
        }
      ],
      "name": "setActivityRewardPerSecond",
      "outputs": [],
      "stateMutability": "nonpayable",
      "type": "function"
    },
    {
      "inputs": [
        {
          "internalType": "uint256",
          "name": "_newMaxMember",
          "type": "uint256"
        },
        {
          "internalType": "uint256",
          "name": "_quorum",
          "type": "uint256"
        }
      ],
      "name": "increaseMaxMember",
      "outputs": [],
      "stateMutability": "nonpayable",
      "type": "function"
    },
    {
      "inputs": [
        {
          "internalType": "string",
          "name": "_memo",
          "type": "string"
        }
      ],
      "name": "createCandidate",
      "outputs": [],
      "stateMutability": "nonpayable",
      "type": "function"
    },
    {
      "inputs": [
        {
          "internalType": "address",
          "name": "_layer2",
          "type": "address"
        },
        {
          "internalType": "string",
          "name": "_memo",
          "type": "string"
        }
      ],
      "name": "registerOperator",
      "outputs": [],
      "stateMutability": "nonpayable",
      "type": "function"
    },
    {
      "inputs": [
        {
          "internalType": "address",
          "name": "_operator",
          "type": "address"
        },
        {
          "internalType": "address",
          "name": "_layer2",
          "type": "address"
        },
        {
          "internalType": "string",
          "name": "_memo",
          "type": "string"
        }
      ],
      "name": "registerOperatorByOwner",
      "outputs": [],
      "stateMutability": "nonpayable",
      "type": "function"
    },
    {
      "inputs": [
        {
          "internalType": "uint256",
          "name": "_memberIndex",
          "type": "uint256"
        }
      ],
      "name": "changeMember",
      "outputs": [
        {
          "internalType": "bool",
          "name": "",
          "type": "bool"
        }
      ],
      "stateMutability": "nonpayable",
      "type": "function"
    },
    {
      "inputs": [],
      "name": "retireMember",
      "outputs": [
        {
          "internalType": "bool",
          "name": "",
          "type": "bool"
        }
      ],
      "stateMutability": "nonpayable",
      "type": "function"
    },
    {
      "inputs": [
        {
          "internalType": "uint256",
          "name": "_reducingMemberIndex",
          "type": "uint256"
        },
        {
          "internalType": "uint256",
          "name": "_quorum",
          "type": "uint256"
        }
      ],
      "name": "reduceMemberSlot",
      "outputs": [],
      "stateMutability": "nonpayable",
      "type": "function"
    },
    {
      "inputs": [
        {
          "internalType": "address",
          "name": "owner",
          "type": "address"
        },
        {
          "internalType": "address",
          "name": "spender",
          "type": "address"
        },
        {
          "internalType": "uint256",
          "name": "tonAmount",
          "type": "uint256"
        },
        {
          "internalType": "bytes",
          "name": "data",
          "type": "bytes"
        }
      ],
      "name": "onApprove",
      "outputs": [
        {
          "internalType": "bool",
          "name": "",
          "type": "bool"
        }
      ],
      "stateMutability": "nonpayable",
      "type": "function"
    },
    {
      "inputs": [
        {
          "internalType": "uint256",
          "name": "_quorum",
          "type": "uint256"
        }
      ],
      "name": "setQuorum",
      "outputs": [],
      "stateMutability": "nonpayable",
      "type": "function"
    },
    {
      "inputs": [
        {
          "internalType": "uint256",
          "name": "_fees",
          "type": "uint256"
        }
      ],
      "name": "setCreateAgendaFees",
      "outputs": [],
      "stateMutability": "nonpayable",
      "type": "function"
    },
    {
      "inputs": [
        {
          "internalType": "uint256",
          "name": "_minimumNoticePeriod",
          "type": "uint256"
        }
      ],
      "name": "setMinimumNoticePeriodSeconds",
      "outputs": [],
      "stateMutability": "nonpayable",
      "type": "function"
    },
    {
      "inputs": [
        {
          "internalType": "uint256",
          "name": "_minimumVotingPeriod",
          "type": "uint256"
        }
      ],
      "name": "setMinimumVotingPeriodSeconds",
      "outputs": [],
      "stateMutability": "nonpayable",
      "type": "function"
    },
    {
      "inputs": [
        {
          "internalType": "uint256",
          "name": "_agendaID",
          "type": "uint256"
        },
        {
          "internalType": "uint256",
          "name": "_vote",
          "type": "uint256"
        },
        {
          "internalType": "string",
          "name": "_comment",
          "type": "string"
        }
      ],
      "name": "castVote",
      "outputs": [],
      "stateMutability": "nonpayable",
      "type": "function"
    },
    {
      "inputs": [
        {
          "internalType": "uint256",
          "name": "_agendaID",
          "type": "uint256"
        }
      ],
      "name": "endAgendaVoting",
      "outputs": [],
      "stateMutability": "nonpayable",
      "type": "function"
    },
    {
      "inputs": [
        {
          "internalType": "uint256",
          "name": "_agendaID",
          "type": "uint256"
        }
      ],
      "name": "executeAgenda",
      "outputs": [],
      "stateMutability": "nonpayable",
      "type": "function"
    },
    {
      "inputs": [
        {
          "internalType": "uint256",
          "name": "_agendaID",
          "type": "uint256"
        },
        {
          "internalType": "uint256",
          "name": "_status",
          "type": "uint256"
        },
        {
          "internalType": "uint256",
          "name": "_result",
          "type": "uint256"
        }
      ],
      "name": "setAgendaStatus",
      "outputs": [],
      "stateMutability": "nonpayable",
      "type": "function"
    },
    {
      "inputs": [
        {
          "internalType": "address",
          "name": "_candidate",
          "type": "address"
        }
      ],
      "name": "updateSeigniorage",
      "outputs": [
        {
          "internalType": "bool",
          "name": "",
          "type": "bool"
        }
      ],
      "stateMutability": "nonpayable",
      "type": "function"
    },
    {
      "inputs": [
        {
          "internalType": "address[]",
          "name": "_candidates",
          "type": "address[]"
        }
      ],
      "name": "updateSeigniorages",
      "outputs": [
        {
          "internalType": "bool",
          "name": "",
          "type": "bool"
        }
      ],
      "stateMutability": "nonpayable",
      "type": "function"
    },
    {
      "inputs": [],
      "name": "claimActivityReward",
      "outputs": [],
      "stateMutability": "nonpayable",
      "type": "function"
    },
    {
      "inputs": [
        {
          "internalType": "address",
          "name": "_candidate",
          "type": "address"
        }
      ],
      "name": "isCandidate",
      "outputs": [
        {
          "internalType": "bool",
          "name": "",
          "type": "bool"
        }
      ],
      "stateMutability": "view",
      "type": "function",
      "constant": true
    },
    {
      "inputs": [
        {
          "internalType": "address",
          "name": "_candidate",
          "type": "address"
        }
      ],
      "name": "totalSupplyOnCandidate",
      "outputs": [
        {
          "internalType": "uint256",
          "name": "totalsupply",
          "type": "uint256"
        }
      ],
      "stateMutability": "view",
      "type": "function",
      "constant": true
    },
    {
      "inputs": [
        {
          "internalType": "address",
          "name": "_candidate",
          "type": "address"
        },
        {
          "internalType": "address",
          "name": "_account",
          "type": "address"
        }
      ],
      "name": "balanceOfOnCandidate",
      "outputs": [
        {
          "internalType": "uint256",
          "name": "amount",
          "type": "uint256"
        }
      ],
      "stateMutability": "view",
      "type": "function",
      "constant": true
    },
    {
      "inputs": [
        {
          "internalType": "address",
          "name": "_candidateContract",
          "type": "address"
        }
      ],
      "name": "totalSupplyOnCandidateContract",
      "outputs": [
        {
          "internalType": "uint256",
          "name": "totalsupply",
          "type": "uint256"
        }
      ],
      "stateMutability": "view",
      "type": "function",
      "constant": true
    },
    {
      "inputs": [
        {
          "internalType": "address",
          "name": "_candidateContract",
          "type": "address"
        },
        {
          "internalType": "address",
          "name": "_account",
          "type": "address"
        }
      ],
      "name": "balanceOfOnCandidateContract",
      "outputs": [
        {
          "internalType": "uint256",
          "name": "amount",
          "type": "uint256"
        }
      ],
      "stateMutability": "view",
      "type": "function",
      "constant": true
    },
    {
      "inputs": [],
      "name": "candidatesLength",
      "outputs": [
        {
          "internalType": "uint256",
          "name": "",
          "type": "uint256"
        }
      ],
      "stateMutability": "view",
      "type": "function",
      "constant": true
    },
    {
      "inputs": [
        {
          "internalType": "address",
          "name": "_candidate",
          "type": "address"
        }
      ],
      "name": "isExistCandidate",
      "outputs": [
        {
          "internalType": "bool",
          "name": "isExist",
          "type": "bool"
        }
      ],
      "stateMutability": "view",
      "type": "function",
      "constant": true
    },
    {
      "inputs": [
        {
          "internalType": "address",
          "name": "_candidate",
          "type": "address"
        }
      ],
      "name": "getClaimableActivityReward",
      "outputs": [
        {
          "internalType": "uint256",
          "name": "",
          "type": "uint256"
        }
      ],
      "stateMutability": "view",
      "type": "function",
      "constant": true
    }
  ],
  "bytecode": "0x608060405234801561001057600080fd5b50614f02806100206000396000f3fe608060405234801561001057600080fd5b506004361061038e5760003560e01c80636da8f3ce116101de578063a217fddf1161010f578063c4ef9c00116100ad578063d51b9e931161007c578063d51b9e9314610749578063d525f04f1461075c578063d547741f1461076f578063fce92894146107825761038e565b8063c4ef9c001461071e578063ca15c87314610726578063cc48b94714610739578063cf2a239c146107415761038e565b8063b4f69b6a116100e9578063b4f69b6a146106dd578063b5dd1158146106f0578063c0bc5304146106f8578063c1ba4e591461070b5761038e565b8063a217fddf146106af578063a230c524146106b7578063ad6675dc146106ca5761038e565b8063885b46961161017c5780639010d07c116101565780639010d07c1461066357806391d14854146106765780639932e94c146106895780639eae56221461069c5761038e565b8063885b46961461063557806389ea4300146106485780638bf7a3ab1461065b5761038e565b8063773b7f65116101b8578063773b7f65146105ff57806378767d33146106075780637f3316361461061a578063805aca20146106225761038e565b80636da8f3ce146105d15780636fb7f558146105e45780637657f20a146105ec5761038e565b806336568abe116102c357806357f0a867116102615780635ebe7622116102305780635ebe7622146105855780635fba7a5614610598578063651d08cd146105ab57806369154295146105be5761038e565b806357f0a867146105445780635903bd6c146105575780635c43030f1461055f5780635daf08ca146105725761038e565b806349c39f141161029d57806349c39f14146104f85780634b799db11461050b5780634d288fec1461051e578063561a1dab146105315761038e565b806336568abe146104bf578063410439e8146104d25780634273ca16146104e55761038e565b8063248a9ca3116103305780632af60ff41161030a5780632af60ff4146104625780632e011c1e146104755780632f2ff15d146104995780633477ee2e146104ac5761038e565b8063248a9ca31461042757806324f99b1e1461043a57806327fd92fd1461044d5761038e565b806316f7f9821161036c57806316f7f982146103e65780631703a018146103f9578063216f486b1461040157806323d09fdf146104145761038e565b806303e3c9ac14610393578063047f52f2146103b157806311f19e04146103c6575b600080fd5b61039b610795565b6040516103a89190614503565b60405180910390f35b6103c46103bf366004613dbb565b61079b565b005b6103d96103d4366004614184565b610813565b6040516103a891906144f8565b61039b6103f4366004613df3565b610bd9565b61039b610d30565b6103c461040f366004614184565b610d36565b6103c4610422366004614184565b610ffe565b61039b610435366004614184565b6110d1565b6103c461044836600461422b565b6110e6565b610455611572565b6040516103a8919061435e565b6103c4610470366004613dbb565b611581565b610488610483366004613dbb565b6115f0565b6040516103a895949392919061440d565b6103c46104a736600461419c565b611629565b6104556104ba366004614184565b611690565b6103c46104cd36600461419c565b6116ba565b6103c46104e0366004613e2b565b61171b565b6103d96104f3366004613e8a565b611827565b6103c4610506366004613dbb565b611861565b6103c4610519366004613dbb565b6118d0565b6103c461052c366004613dbb565b61193f565b6103d961053f366004613dbb565b6119ae565b6103d9610552366004613f47565b6119ce565b610455611a0e565b6103c461056d366004613f86565b611a1d565b610455610580366004614184565b611b05565b6103c4610593366004614184565b611b15565b6103c46105a63660046141e1565b611b41565b6104556105b9366004613dbb565b611ebc565b6103c46105cc366004613f86565b611eda565b6103c46105df3660046141c0565b611fbc565b610455612049565b6103c46105fa366004613dbb565b612058565b61039b6120c7565b61039b610615366004613dbb565b6120cd565b61039b612216565b6103c461063036600461427b565b61221c565b6103c4610643366004614184565b612324565b6103d9610656366004613dbb565b612354565b6103c46123df565b6104556106713660046141c0565b6124c9565b6103d961068436600461419c565b6124e1565b61039b610697366004613dbb565b6124f9565b6103c46106aa3660046141c0565b61258b565b61039b61275a565b6103d96106c5366004613dbb565b61275f565b61039b6106d8366004613dbb565b61277f565b6103c46106eb366004614184565b612796565b610455612834565b6103c4610706366004614184565b612843565b6103c4610719366004614184565b6128e1565b6103d96129d1565b61039b610734366004614184565b612bb2565b610455612bc9565b610455612bd8565b6103d9610757366004613dbb565b612be7565b61039b61076a366004613df3565b612cc2565b6103c461077d36600461419c565b612cda565b6103c4610790366004613efa565b612d33565b60085481565b6107a66000336124e1565b6107cb5760405162461bcd60e51b81526004016107c29061491c565b60405180910390fd5b6001600160a01b0381166107f15760405162461bcd60e51b81526004016107c2906148f6565b600380546001600160a01b0319166001600160a01b0392909216919091179055565b600080336001600160a01b0316636c8381f86040518163ffffffff1660e01b815260040160206040518083038186803b15801561084f57600080fd5b505afa158015610863573d6000803e3d6000fd5b505050506040513d601f19601f820116820180604052508101906108879190613dd7565b6001600160a01b0381166000908152600960209081526040918290208251631dffc87160e21b815292519394509233926377ff21c4926004808301939192829003018186803b1580156108d957600080fd5b505afa1580156108ed573d6000803e3d6000fd5b505050506040513d601f19601f820116820180604052508101906109119190614164565b61092d5760405162461bcd60e51b81526004016107c290614ab0565b600854841061094e5760405162461bcd60e51b81526004016107c290614a35565b80546001600160a01b03166109755760405162461bcd60e51b81526004016107c2906149e9565b6001810154156109975760405162461bcd60e51b81526004016107c2906147d7565b6000600785815481106109a657fe5b60009182526020822001546001600160a01b031691506109c582611ebc565b42600185015560028401879055600780549192508591889081106109e557fe5b600091825260209091200180546001600160a01b0319166001600160a01b039283161790558216610a4d57836001600160a01b031686600080516020614dd583398151915284604051610a38919061435e565b60405180910390a36001945050505050610bd4565b806001600160a01b031663817b1cd26040518163ffffffff1660e01b815260040160206040518083038186803b158015610a8657600080fd5b505afa158015610a9a573d6000803e3d6000fd5b505050506040513d601f19601f82011682018060405250810190610abe9190614213565b336001600160a01b031663817b1cd26040518163ffffffff1660e01b815260040160206040518083038186803b158015610af757600080fd5b505afa158015610b0b573d6000803e3d6000fd5b505050506040513d601f19601f82011682018060405250810190610b2f9190614213565b11610b4c5760405162461bcd60e51b81526004016107c29061459b565b6001600160a01b038216600090815260096020526040812060028101919091556001810154610b8b90610b80904290612e13565b600383015490612e55565b6003820155600060018201556040516001600160a01b038616908890600080516020614dd583398151915290610bc290879061435e565b60405180910390a36001955050505050505b919050565b60006001600160a01b038316610c015760405162461bcd60e51b81526004016107c290614662565b600554604051634c063c1960e01b81526000916001600160a01b031690634c063c1990610c3290879060040161435e565b60206040518083038186803b158015610c4a57600080fd5b505afa158015610c5e573d6000803e3d6000fd5b505050506040513d601f19601f82011682018060405250810190610c829190613dd7565b90506001600160a01b038116610caa5760405162461bcd60e51b81526004016107c290614a79565b6040516370a0823160e01b81526001600160a01b038216906370a0823190610cd690869060040161435e565b60206040518083038186803b158015610cee57600080fd5b505afa158015610d02573d6000803e3d6000fd5b505050506040513d601f19601f82011682018060405250810190610d269190614213565b9150505b92915050565b600a5481565b6002546001600160a01b0316610d7d5760405162461bcd60e51b815260040180806020018281038252602c815260200180614e16602c913960400191505060405180910390fd5b6002546040516377f28d5b60e01b81526001600160a01b03909116906377f28d5b90610dad908490600401614503565b60206040518083038186803b158015610dc557600080fd5b505afa158015610dd9573d6000803e3d6000fd5b505050506040513d601f19601f82011682018060405250810190610dfd9190614164565b610e195760405162461bcd60e51b81526004016107c29061485e565b6002546040516373ba374560e01b815260009182916001600160a01b03909116906373ba374590610e4e908690600401614503565b60006040518083038186803b158015610e6657600080fd5b505afa158015610e7a573d6000803e3d6000fd5b505050506040513d6000823e601f3d908101601f19168201604052610ea29190810190613fda565b600254604051631b8c251960e11b81529294509092506001600160a01b0316906337184a3290610ed6908690600401614503565b600060405180830381600087803b158015610ef057600080fd5b505af1158015610f04573d6000803e3d6000fd5b5050505060005b8251811015610fc0576000838281518110610f2257fe5b60200260200101516001600160a01b0316838381518110610f3f57fe5b6020026020010151604051610f549190614342565b6000604051808303816000865af19150503d8060008114610f91576040519150601f19603f3d011682016040523d82523d6000602084013e610f96565b606091505b5050905080610fb75760405162461bcd60e51b81526004016107c290614b00565b50600101610f0b565b50827f785146be3266678a3f4ea454b310ff1f8c91d0ad9a7997bcd0619940d4d67fe683604051610ff1919061443b565b60405180910390a2505050565b6110096000336124e1565b6110255760405162461bcd60e51b81526004016107c29061491c565b6002546001600160a01b031661106c5760405162461bcd60e51b815260040180806020018281038252602c815260200180614e16602c913960400191505060405180910390fd5b6002546040516323d09fdf60e01b81526001600160a01b03909116906323d09fdf9061109c908490600401614503565b600060405180830381600087803b1580156110b657600080fd5b505af11580156110ca573d6000803e3d6000fd5b5050505050565b6000908152600c602052604090206002015490565b6002546001600160a01b031661112d5760405162461bcd60e51b815260040180806020018281038252602c815260200180614e16602c913960400191505060405180910390fd5b600a548061114d5760405162461bcd60e51b81526004016107c290614b4a565b6000336001600160a01b0316636c8381f86040518163ffffffff1660e01b815260040160206040518083038186803b15801561118857600080fd5b505afa15801561119c573d6000803e3d6000fd5b505050506040513d601f19601f820116820180604052508101906111c09190613dd7565b600254604051637e77eb2360e01b81529192506001600160a01b031690637e77eb23906111f590899085908a90600401614bdd565b602060405180830381600087803b15801561120f57600080fd5b505af1158015611223573d6000803e3d6000fd5b505050506040513d601f19601f820116820180604052508101906112479190614164565b50600254604051635772521560e11b8152600091829182916001600160a01b03169063aee4a42a9061127d908c90600401614503565b60606040518083038186803b15801561129557600080fd5b505afa1580156112a9573d6000803e3d6000fd5b505050506040513d601f19601f820116820180604052508101906112cd91906142a6565b9250925092508285116113a957600254604051632b0a851b60e11b81526001600160a01b03909116906356150a369061130d908c90600190600401614bfc565b600060405180830381600087803b15801561132757600080fd5b505af115801561133b573d6000803e3d6000fd5b5050600254604051633625b75960e21b81526001600160a01b03909116925063d896dd649150611372908c90600390600401614c1a565b600060405180830381600087803b15801561138c57600080fd5b505af11580156113a0573d6000803e3d6000fd5b50505050611521565b8185116114465760028054604051632b0a851b60e11b81526001600160a01b03909116916356150a36916113e1918d91600401614bfc565b600060405180830381600087803b1580156113fb57600080fd5b505af115801561140f573d6000803e3d6000fd5b5050600254604051633625b75960e21b81526001600160a01b03909116925063d896dd649150611372908c90600590600401614c1a565b6114508183612e55565b851161152157600254604051632b0a851b60e11b81526001600160a01b03909116906356150a3690611489908c90600390600401614bfc565b600060405180830381600087803b1580156114a357600080fd5b505af11580156114b7573d6000803e3d6000fd5b5050600254604051633625b75960e21b81526001600160a01b03909116925063d896dd6491506114ee908c90600590600401614c1a565b600060405180830381600087803b15801561150857600080fd5b505af115801561151c573d6000803e3d6000fd5b505050505b88336001600160a01b03167ffa0761008653bc7bf9fa040fb7e07672ad3e17a976eb452c44e81dd782a6214b8a8a8a60405161155f93929190614c2b565b60405180910390a3505050505050505050565b6002546001600160a01b031681565b61158c6000336124e1565b6115a85760405162461bcd60e51b81526004016107c29061491c565b6001600160a01b0381166115ce5760405162461bcd60e51b81526004016107c2906148f6565b600480546001600160a01b0319166001600160a01b0392909216919091179055565b600960205260009081526040902080546001820154600283015460038401546004909401546001600160a01b0390931693919290919085565b6000828152600c602052604090206002015461164790610684612eaf565b6116825760405162461bcd60e51b815260040180806020018281038252602f815260200180614d26602f913960400191505060405180910390fd5b61168c8282612eb3565b5050565b600681815481106116a057600080fd5b6000918252602090912001546001600160a01b0316905081565b6116c2612eaf565b6001600160a01b0316816001600160a01b0316146117115760405162461bcd60e51b815260040180806020018281038252602f815260200180614e9e602f913960400191505060405180910390fd5b61168c8282612f1c565b6117266000336124e1565b6117425760405162461bcd60e51b81526004016107c29061491c565b6005546001600160a01b03166117895760405162461bcd60e51b815260040180806020018281038252602b815260200180614e73602b913960400191505060405180910390fd5b6004546001600160a01b03166117d05760405162461bcd60e51b815260040180806020018281038252602d815260200180614d78602d913960400191505060405180910390fd5b6003546001600160a01b03166118175760405162461bcd60e51b8152600401808060200182810382526031815260200180614e426031913960400191505060405180910390fd5b611822838383612f85565b505050565b60008061183484846133be565b90506118538782600001518360200151846040015185606001516133e9565b506001979650505050505050565b61186c6000336124e1565b6118885760405162461bcd60e51b81526004016107c29061491c565b6001600160a01b0381166118ae5760405162461bcd60e51b81526004016107c2906148f6565b600280546001600160a01b0319166001600160a01b0392909216919091179055565b6118db6000336124e1565b6118f75760405162461bcd60e51b81526004016107c29061491c565b6001600160a01b03811661191d5760405162461bcd60e51b81526004016107c2906148f6565b600180546001600160a01b0319166001600160a01b0392909216919091179055565b61194a6000336124e1565b6119665760405162461bcd60e51b81526004016107c29061491c565b6001600160a01b03811661198c5760405162461bcd60e51b81526004016107c2906148f6565b600080546001600160a01b0319166001600160a01b0392909216919091179055565b6001600160a01b0390811660009081526009602052604090205416151590565b6000805b82811015611a07576119fe8484838181106119e957fe5b90506020020160208101906106569190613dbb565b506001016119d2565b5092915050565b6001546001600160a01b031681565b611a286000336124e1565b611a445760405162461bcd60e51b81526004016107c29061491c565b6001600160a01b038116611a6a5760405162461bcd60e51b81526004016107c2906148f6565b60005b82811015611aff57838382818110611a8157fe5b9050602002016020810190611a969190613dbb565b6001600160a01b031663bddae40e836040518263ffffffff1660e01b8152600401611ac1919061435e565b600060405180830381600087803b158015611adb57600080fd5b505af1158015611aef573d6000803e3d6000fd5b505060019092019150611a6d9050565b50505050565b600781815481106116a057600080fd5b611b206000336124e1565b611b3c5760405162461bcd60e51b81526004016107c29061491c565b600b55565b6005546001600160a01b0316611b885760405162461bcd60e51b815260040180806020018281038252602b815260200180614e73602b913960400191505060405180910390fd5b6004546001600160a01b0316611bcf5760405162461bcd60e51b815260040180806020018281038252602d815260200180614d78602d913960400191505060405180910390fd5b6003546001600160a01b0316611c165760405162461bcd60e51b8152600401808060200182810382526031815260200180614e426031913960400191505060405180910390fd5b611c1f336119ae565b15611c3c5760405162461bcd60e51b81526004016107c2906149a0565b60035460055460405163732518fb60e11b81526000926001600160a01b039081169263e64a31f692611c7a9233928792899230921690600401614372565b602060405180830381600087803b158015611c9457600080fd5b505af1158015611ca8573d6000803e3d6000fd5b505050506040513d601f19601f82011682018060405250810190611ccc9190613dd7565b90506001600160a01b038116611cf45760405162461bcd60e51b81526004016107c29061480e565b60048054600554604051635e58d38f60e11b81526001600160a01b039283169363bcb1a71e93611d29938793911691016143cf565b602060405180830381600087803b158015611d4357600080fd5b505af1158015611d57573d6000803e3d6000fd5b505050506040513d601f19601f82011682018060405250810190611d7b9190614164565b611d975760405162461bcd60e51b81526004016107c2906148a6565b336000908152600960205260409020546001600160a01b031615611dcd5760405162461bcd60e51b81526004016107c290614741565b6040805160a0810182526001600160a01b038084168083526000602080850182815285870183815260608701848152608088018581523380875260099095528986209851895498166001600160a01b031998891617895592516001808a01919091559151600289015551600388015590516004909601959095556006805495860181559091527ff652222313e28459528d920b65115c16c04f3efc82aaedc97be59f3f377c0d3f9093018054909216831790915591517f7cf8db18d9a5c7f44156bfabdbb59ac982a8a004e461ca1b87ee71a5cdfbc5ef90611eb090869061450c565b60405180910390a35050565b6001600160a01b039081166000908152600960205260409020541690565b611ee56000336124e1565b611f015760405162461bcd60e51b81526004016107c29061491c565b6001600160a01b038116611f275760405162461bcd60e51b81526004016107c2906148f6565b60005b82811015611aff57838382818110611f3e57fe5b9050602002016020810190611f539190613dbb565b6001600160a01b0316637657f20a836040518263ffffffff1660e01b8152600401611f7e919061435e565b600060405180830381600087803b158015611f9857600080fd5b505af1158015611fac573d6000803e3d6000fd5b505060019092019150611f2a9050565b611fc76000336124e1565b611fe35760405162461bcd60e51b81526004016107c29061491c565b81600854106120045760405162461bcd60e51b81526004016107c290614699565b6008546040518391907f8c0366d1e3a335a312d012257ee764723c38ec2dd5e74cbfad372513521f977190600090a36008829055612040613519565b61168c816128e1565b6005546001600160a01b031681565b6120636000336124e1565b61207f5760405162461bcd60e51b81526004016107c29061491c565b6001600160a01b0381166120a55760405162461bcd60e51b81526004016107c2906148f6565b600580546001600160a01b0319166001600160a01b0392909216919091179055565b60065490565b60006001600160a01b0382166120f55760405162461bcd60e51b81526004016107c290614662565b600554604051634c063c1960e01b81526000916001600160a01b031690634c063c199061212690869060040161435e565b60206040518083038186803b15801561213e57600080fd5b505afa158015612152573d6000803e3d6000fd5b505050506040513d601f19601f820116820180604052508101906121769190613dd7565b90506001600160a01b03811661219e5760405162461bcd60e51b81526004016107c290614a79565b806001600160a01b03166318160ddd6040518163ffffffff1660e01b815260040160206040518083038186803b1580156121d757600080fd5b505afa1580156121eb573d6000803e3d6000fd5b505050506040513d601f19601f8201168201806040525081019061220f9190614213565b9392505050565b600b5481565b6122276000336124e1565b6122435760405162461bcd60e51b81526004016107c29061491c565b6002546001600160a01b03166356150a368483600381111561226157fe5b6040518363ffffffff1660e01b815260040161227e929190614bfc565b600060405180830381600087803b15801561229857600080fd5b505af11580156122ac573d6000803e3d6000fd5b50506002546001600160a01b0316915063d896dd649050848460058111156122d057fe5b6040518363ffffffff1660e01b81526004016122ed929190614c1a565b600060405180830381600087803b15801561230757600080fd5b505af115801561231b573d6000803e3d6000fd5b50505050505050565b60025460405163442da34b60e11b81526001600160a01b039091169063885b46969061109c908490600401614503565b6001600160a01b038082166000908152600960209081526040808320548151633b253c2b60e11b8152915193941692839263764a7856926004808201939182900301818887803b1580156123a757600080fd5b505af11580156123bb573d6000803e3d6000fd5b505050506040513d601f19601f8201168201806040525081019061220f9190614164565b336000818152600960205260408120916123f8906124f9565b90506000811161241a5760405162461bcd60e51b81526004016107c2906146f7565b600154604051633bc3556560e21b81526001600160a01b039091169063ef0d55949061244c90339085906004016143b6565b600060405180830381600087803b15801561246657600080fd5b505af115801561247a573d6000803e3d6000fd5b505042600485015550506000600383015560405133907fe013459a1c3162ae04cb4b22feaa126a5d302e283c7333f41d1ebe1b2cd7384b906124bd908490614503565b60405180910390a25050565b6000828152600c6020526040812061220f9083613571565b6000828152600c6020526040812061220f908361357d565b6001600160a01b03811660009081526009602052604081206003810154600182015415612575578160040154826001015411156125585761255161254a836001015442612e1390919063ffffffff16565b8290612e55565b9050612575565b61257261254a836004015442612e1390919063ffffffff16565b90505b600b54612583908290613592565b949350505050565b6125966000336124e1565b6125b25760405162461bcd60e51b81526004016107c29061491c565b6000600783815481106125c157fe5b60009182526020808320909101546001600160a01b0316808352600990915260409091206007549192509060001901841461267e576007805460009190600019810190811061260c57fe5b60009182526020808320909101546001600160a01b031680835260099091526040909120600281018790556007805492935090918391908890811061264d57fe5b9060005260206000200160006101000a8154816001600160a01b0302191690836001600160a01b0316021790555050505b60006002820155600181015461269990610b80904290612e13565b60038201556000600182015560078054806126b057fe5b600082815260209020810160001990810180546001600160a01b03191690550190556008546126e0906001612e13565b6008556126ec836128e1565b60006001600160a01b031684600080516020614dd583398151915284604051612715919061435e565b60405180910390a360085461272b816001612e55565b6040517f8c0366d1e3a335a312d012257ee764723c38ec2dd5e74cbfad372513521f977190600090a350505050565b600081565b6001600160a01b0316600090815260096020526040902060010154151590565b60008061278b83611ebc565b905061220f816120cd565b6127a16000336124e1565b6127bd5760405162461bcd60e51b81526004016107c29061491c565b6002546001600160a01b03166128045760405162461bcd60e51b815260040180806020018281038252602c815260200180614e16602c913960400191505060405180910390fd5b600254604051635a7b4db560e11b81526001600160a01b039091169063b4f69b6a9061109c908490600401614503565b6003546001600160a01b031681565b61284e6000336124e1565b61286a5760405162461bcd60e51b81526004016107c29061491c565b6002546001600160a01b03166128b15760405162461bcd60e51b815260040180806020018281038252602c815260200180614e16602c913960400191505060405180910390fd5b60025460405163302f14c160e21b81526001600160a01b039091169063c0bc53049061109c908490600401614503565b6128ec6000336124e1565b6129085760405162461bcd60e51b81526004016107c29061491c565b6002546001600160a01b031661294f5760405162461bcd60e51b815260040180806020018281038252602c815260200180614e16602c913960400191505060405180910390fd5b6000811161296f5760405162461bcd60e51b81526004016107c29061451f565b6008548111156129915760405162461bcd60e51b81526004016107c2906145c6565b600a8190556040517f027863d12a407097e086a48e36475bfc859d0b200b7e6f65b5fd3b218e46632e906129c6908390614503565b60405180910390a150565b600080336001600160a01b0316636c8381f86040518163ffffffff1660e01b815260040160206040518083038186803b158015612a0d57600080fd5b505afa158015612a21573d6000803e3d6000fd5b505050506040513d6020811015612a3757600080fd5b50519050612a448161275f565b612a7f5760405162461bcd60e51b8152600401808060200182810382526023815260200180614d556023913960400191505060405180910390fd5b6000336001600160a01b0316636c8381f86040518163ffffffff1660e01b815260040160206040518083038186803b158015612aba57600080fd5b505afa158015612ace573d6000803e3d6000fd5b505050506040513d601f19601f82011682018060405250810190612af29190613dd7565b6001600160a01b038116600090815260096020526040812060028101546007805494955091938110612b2057fe5b9060005260206000200160006101000a8154816001600160a01b0302191690836001600160a01b03160217905550612b68610b80826001015442612e1390919063ffffffff16565b60038201556000600182018190556002820154604051600080516020614dd583398151915290612b9990869061435e565b60405180910390a3600060029091015550600191505090565b6000818152600c60205260408120610d2a906135eb565b6000546001600160a01b031681565b6004546001600160a01b031681565b6001600160a01b03808216600090815260096020526040812080549192909116612c15576000915050610bd4565b8054600090612c34906001600160a01b0316631dffc87160e21b6135f6565b905080612c4657600092505050610bd4565b815460408051631dffc87160e21b815290516001600160a01b03909216916377ff21c491600480820192602092909190829003018186803b158015612c8a57600080fd5b505afa158015612c9e573d6000803e3d6000fd5b505050506040513d601f19601f820116820180604052508101906125839190614164565b600080612cce84611ebc565b9050610d268184610bd9565b6000828152600c6020526040902060020154612cf890610684612eaf565b6117115760405162461bcd60e51b8152600401808060200182810382526030815260200180614da56030913960400191505060405180910390fd5b6005546001600160a01b0316612d7a5760405162461bcd60e51b815260040180806020018281038252602b815260200180614e73602b913960400191505060405180910390fd5b6004546001600160a01b0316612dc15760405162461bcd60e51b815260040180806020018281038252602d815260200180614d78602d913960400191505060405180910390fd5b6003546001600160a01b0316612e085760405162461bcd60e51b8152600401808060200182810382526031815260200180614e426031913960400191505060405180910390fd5b61168c338383612f85565b600061220f83836040518060400160405280601e81526020017f536166654d6174683a207375627472616374696f6e206f766572666c6f770000815250613612565b60008282018381101561220f576040805162461bcd60e51b815260206004820152601b60248201527f536166654d6174683a206164646974696f6e206f766572666c6f770000000000604482015290519081900360640190fd5b3390565b6000828152600c60205260409020612ecb90826136a9565b1561168c57612ed8612eaf565b6001600160a01b0316816001600160a01b0316837f2f8788117e7eff1d82e926ec794901d17c78024a50270940304540a733656f0d60405160405180910390a45050565b6000828152600c60205260409020612f3490826136be565b1561168c57612f41612eaf565b6001600160a01b0316816001600160a01b0316837ff6391f5c32d9c69d2a47ea670b442974b53935d1edc7fd64eb21e047a839171b60405160405180910390a45050565b6005546001600160a01b0316612fcc5760405162461bcd60e51b815260040180806020018281038252602b815260200180614e73602b913960400191505060405180910390fd5b6004546001600160a01b03166130135760405162461bcd60e51b815260040180806020018281038252602d815260200180614d78602d913960400191505060405180910390fd5b6003546001600160a01b031661305a5760405162461bcd60e51b8152600401808060200182810382526031815260200180614e426031913960400191505060405180910390fd5b613063826119ae565b156130805760405162461bcd60e51b81526004016107c2906149a0565b6001600160a01b0382166130a65760405162461bcd60e51b81526004016107c29061480e565b6001600160a01b0382811660009081526009602052604090205416156130de5760405162461bcd60e51b81526004016107c290614b8d565b6000829050806001600160a01b031663882eed2c6040518163ffffffff1660e01b815260040160206040518083038186803b15801561311c57600080fd5b505afa158015613130573d6000803e3d6000fd5b505050506040513d601f19601f820116820180604052508101906131549190614164565b6131705760405162461bcd60e51b81526004016107c290614556565b836001600160a01b0316816001600160a01b031663570ca7356040518163ffffffff1660e01b815260040160206040518083038186803b1580156131b357600080fd5b505afa1580156131c7573d6000803e3d6000fd5b505050506040513d601f19601f820116820180604052508101906131eb9190613dd7565b6001600160a01b0316146132115760405162461bcd60e51b81526004016107c290614969565b60035460055460405163732518fb60e11b81526000926001600160a01b039081169263e64a31f6926132509289926001928a9230921690600401614372565b602060405180830381600087803b15801561326a57600080fd5b505af115801561327e573d6000803e3d6000fd5b505050506040513d601f19601f820116820180604052508101906132a29190613dd7565b90506001600160a01b0381166132ca5760405162461bcd60e51b81526004016107c29061480e565b6040805160a0810182526001600160a01b038084168083526000602080850182815285870183815260608701848152608088018581528d881680875260099095528986209851895498166001600160a01b031998891617895592516001808a01919091559151600289015551600388015590516004909601959095556006805495860181559091527ff652222313e28459528d920b65115c16c04f3efc82aaedc97be59f3f377c0d3f9093018054909216831790915591517f574651c4b47831128b9ed5b0c878675fc9c8e14d7119b755a31c7fef6065e970906133af90879061450c565b60405180910390a35050505050565b6133c6613bb0565b6133d282840184614092565b606085015260408401526020830152815292915050565b6002546000906001600160a01b03166134335760405162461bcd60e51b815260040180806020018281038252602c815260200180614e16602c913960400191505060405180910390fd5b61343c866136d3565b60025460405163490e9c1d60e11b81526000916001600160a01b03169063921d383a906134759089908990899087908a90600401614473565b602060405180830381600087803b15801561348f57600080fd5b505af11580156134a3573d6000803e3d6000fd5b505050506040513d601f19601f820116820180604052508101906134c79190614213565b905080876001600160a01b03167fb0c20bab69de391cff8f119cf876e708b1b41868e0fd397cbcd2b4d3c623b5b88888886040516135079392919061444e565b60405180910390a39695505050505050565b6007545b60085481101561356e5760078054600181810183556000929092527fa66cc928b5edb82af9bd49922954155ab7b0942694bea4ce44661d9a8736c6880180546001600160a01b03191690550161351d565b50565b600061220f8383613894565b600061220f836001600160a01b0384166138f8565b6000826135a157506000610d2a565b828202828482816135ae57fe5b041461220f5760405162461bcd60e51b8152600401808060200182810382526021815260200180614df56021913960400191505060405180910390fd5b6000610d2a82613910565b600061360183613914565b801561220f575061220f8383613947565b600081848411156136a15760405162461bcd60e51b81526004018080602001828103825283818151815260200191508051906020019080838360005b8381101561366657818101518382015260200161364e565b50505050905090810190601f1680156136935780820380516001836020036101000a031916815260200191505b509250505060405180910390fd5b505050900390565b600061220f836001600160a01b03841661396d565b600061220f836001600160a01b0384166139b7565b60025460408051632522a32f60e01b815290516000926001600160a01b031691632522a32f916004808301926020929190829003018186803b15801561371857600080fd5b505afa15801561372c573d6000803e3d6000fd5b505050506040513d601f19601f820116820180604052508101906137509190614213565b6000546040516323b872dd60e01b81529192506001600160a01b0316906323b872dd90613785908590309086906004016143e9565b602060405180830381600087803b15801561379f57600080fd5b505af11580156137b3573d6000803e3d6000fd5b505050506040513d601f19601f820116820180604052508101906137d79190614164565b6137f35760405162461bcd60e51b81526004016107c29061460c565b60005460405163a9059cbb60e01b81526001600160a01b039091169063a9059cbb906138269060019085906004016143b6565b602060405180830381600087803b15801561384057600080fd5b505af1158015613854573d6000803e3d6000fd5b505050506040513d601f19601f820116820180604052508101906138789190614164565b61168c5760405162461bcd60e51b81526004016107c290614796565b815460009082106138d65760405162461bcd60e51b8152600401808060200182810382526022815260200180614d046022913960400191505060405180910390fd5b8260000182815481106138e557fe5b9060005260206000200154905092915050565b60009081526001919091016020526040902054151590565b5490565b6000613927826301ffc9a760e01b613947565b8015610d2a5750613940826001600160e01b0319613947565b1592915050565b60008060006139568585613a7d565b915091508180156139645750805b95945050505050565b600061397983836138f8565b6139af57508154600181810184556000848152602080822090930184905584548482528286019093526040902091909155610d2a565b506000610d2a565b60008181526001830160205260408120548015613a7357835460001980830191908101906000908790839081106139ea57fe5b9060005260206000200154905080876000018481548110613a0757fe5b600091825260208083209091019290925582815260018981019092526040902090840190558654879080613a3757fe5b60019003818190600052602060002001600090559055866001016000878152602001908152602001600020600090556001945050505050610d2a565b6000915050610d2a565b604080516001600160e01b0319831660248083019190915282518083039091018152604490910182526020810180516001600160e01b03166301ffc9a760e01b17815291518151600093849392849283926001600160a01b038a169261753092879282918083835b60208310613b045780518252601f199092019160209182019101613ae5565b6001836020036101000a0380198251168184511680821785525050505050509050019150506000604051808303818686fa925050503d8060008114613b65576040519150601f19603f3d011682016040523d82523d6000602084013e613b6a565b606091505b5091509150602081511015613b885760008094509450505050613ba9565b81818060200190516020811015613b9e57600080fd5b505190955093505050505b9250929050565b6040518060800160405280606081526020016000815260200160008152602001606081525090565b6000613beb613be684614ca1565b614c61565b9050828152838383011115613bff57600080fd5b828260208301376000602084830101529392505050565b60008083601f840112613c27578182fd5b5081356001600160401b03811115613c3d578182fd5b6020830191508360208083028501011115613ba957600080fd5b600082601f830112613c67578081fd5b81356020613c77613be683614c84565b82815281810190858301855b85811015613cc1578135880189603f820112613c9d578788fd5b613cae8a8783013560408401613bd8565b8552509284019290840190600101613c83565b5090979650505050505050565b600082601f830112613cde578081fd5b81516020613cee613be683614c84565b82815281810190858301855b85811015613cc1578151880189603f820112613d14578788fd5b858101516040613d26613be683614ca1565b8281528c82848601011115613d39578a8bfd5b613d48838a8301848701614cc2565b87525050509284019290840190600101613cfa565b60008083601f840112613d6e578182fd5b5081356001600160401b03811115613d84578182fd5b602083019150836020828501011115613ba957600080fd5b600082601f830112613dac578081fd5b61220f83833560208501613bd8565b600060208284031215613dcc578081fd5b813561220f81614cee565b600060208284031215613de8578081fd5b815161220f81614cee565b60008060408385031215613e05578081fd5b8235613e1081614cee565b91506020830135613e2081614cee565b809150509250929050565b600080600060608486031215613e3f578081fd5b8335613e4a81614cee565b92506020840135613e5a81614cee565b915060408401356001600160401b03811115613e74578182fd5b613e8086828701613d9c565b9150509250925092565b600080600080600060808688031215613ea1578283fd5b8535613eac81614cee565b94506020860135613ebc81614cee565b93506040860135925060608601356001600160401b03811115613edd578182fd5b613ee988828901613d5d565b969995985093965092949392505050565b60008060408385031215613f0c578182fd5b8235613f1781614cee565b915060208301356001600160401b03811115613f31578182fd5b613f3d85828601613d9c565b9150509250929050565b60008060208385031215613f59578182fd5b82356001600160401b03811115613f6e578283fd5b613f7a85828601613c16565b90969095509350505050565b600080600060408486031215613f9a578081fd5b83356001600160401b03811115613faf578182fd5b613fbb86828701613c16565b9094509250506020840135613fcf81614cee565b809150509250925092565b60008060408385031215613fec578182fd5b82516001600160401b0380821115614002578384fd5b818501915085601f830112614015578384fd5b81516020614025613be683614c84565b82815281810190858301838502870184018b1015614041578889fd5b8896505b8487101561406c57805161405881614cee565b835260019690960195918301918301614045565b5091880151919650909350505080821115614085578283fd5b50613f3d85828601613cce565b600080600080608085870312156140a7578182fd5b84356001600160401b03808211156140bd578384fd5b818701915087601f8301126140d0578384fd5b813560206140e0613be683614c84565b82815281810190858301838502870184018d10156140fc578889fd5b8896505b8487101561412757803561411381614cee565b835260019690960195918301918301614100565b5098505088013595505060408701359350606087013591508082111561414b578283fd5b5061415887828801613c57565b91505092959194509250565b600060208284031215614175578081fd5b8151801515811461220f578182fd5b600060208284031215614195578081fd5b5035919050565b600080604083850312156141ae578182fd5b823591506020830135613e2081614cee565b600080604083850312156141d2578182fd5b50508035926020909101359150565b6000602082840312156141f2578081fd5b81356001600160401b03811115614207578182fd5b610d2684828501613d9c565b600060208284031215614224578081fd5b5051919050565b60008060008060608587031215614240578182fd5b843593506020850135925060408501356001600160401b03811115614263578283fd5b61426f87828801613d5d565b95989497509550505050565b60008060006060848603121561428f578081fd5b505081359360208301359350604090920135919050565b6000806000606084860312156142ba578081fd5b8351925060208401519150604084015190509250925092565b6000815180845260208085019450808401835b8381101561430b5781516001600160a01b0316875295820195908201906001016142e6565b509495945050505050565b6000815180845261432e816020860160208601614cc2565b601f01601f19169290920160200192915050565b60008251614354818460208701614cc2565b9190910192915050565b6001600160a01b0391909116815260200190565b600060018060a01b038088168352861515602084015260a0604084015261439c60a0840187614316565b948116606084015292909216608090910152509392505050565b6001600160a01b03929092168252602082015260400190565b6001600160a01b0392831681529116602082015260400190565b6001600160a01b039384168152919092166020820152604081019190915260600190565b6001600160a01b03959095168552602085019390935260408401919091526060830152608082015260a00190565b60006020825261220f60208301846142d3565b60006060825261446160608301866142d3565b60208301949094525060400152919050565b600060a0825261448660a08301886142d3565b602087818501528660408501528560608501528382036080850152818551808452828401915082838202850101838801865b838110156144e657601f198784030185526144d4838351614316565b948601949250908501906001016144b8565b50909c9b505050505050505050505050565b901515815260200190565b90815260200190565b60006020825261220f6020830184614316565b6020808252601c908201527f44414f436f6d6d69747465653a20696e76616c69642071756f72756d00000000604082015260600190565b60208082526025908201527f44414f436f6d6d69747465653a20696e76616c6964206c617965723220636f6e6040820152641d1c9858dd60da1b606082015260800190565b6020808252601190820152701b9bdd08195b9bdd59da08185b5bdd5b9d607a1b604082015260600190565b60208082526026908201527f44414f436f6d6d69747465653a2071756f72756d20657863656564206d61782060408201526536b2b6b132b960d11b606082015260800190565b60208082526036908201527f44414f436f6d6d697474656553746f72653a206661696c656420746f207472616040820152753739b332b9103a37b710333937b69031b932b0ba37b960511b606082015260800190565b6020808252601f908201527f54686973206163636f756e74206973206e6f7420612063616e64696461746500604082015260600190565b602080825260409082018190527f44414f436f6d6d697474656553746f72653a20596f75206861766520746f2063908201527f616c6c207265647563654d656d626572536c6f7420746f206465637265617365606082015260800190565b6020808252602a908201527f44414f436f6d6d69747465653a20796f7520646f6e2774206861766520636c6160408201526934b6b0b13632903a37b760b11b606082015260800190565b60208082526035908201527f44414f436f6d6d697474656553746f72653a205468652063616e64696461746560408201527408185b1c9958591e481a185cc818dbdb9d1c9858dd605a1b606082015260800190565b60208082526021908201527f44414f436f6d6d697474656553746f72653a206661696c656420746f206275726040820152603760f91b606082015260800190565b6020808252601c908201527f44414f436f6d6d69747465653a20616c7265616479206d656d62657200000000604082015260600190565b60208082526030908201527f44414f436f6d6d69747465653a206465706c6f7965642063616e64696461746560408201526f436f6e7472616374206973207a65726f60801b606082015260800190565b60208082526028908201527f44414f436f6d6d69747465653a2063616e206e6f74206578656375746520746860408201526765206167656e646160c01b606082015260800190565b60208082526030908201527f44414f436f6d6d69747465653a206661696c656420746f20726567697374657260408201526f416e644465706c6f79436f696e61676560801b606082015260800190565b6020808252600c908201526b7a65726f206164647265737360a01b604082015260600190565b6020808252602d908201527f44414f436f6d6d697474656550726f78793a206d73672e73656e64657220697360408201526c103737ba1030b71030b236b4b760991b606082015260800190565b6020808252601e908201527f44414f436f6d6d69747465653a20696e76616c6964206f70657261746f720000604082015260600190565b60208082526029908201527f44414f436f6d6d69747465653a2063616e64696461746520616c7265616479206040820152681c9959da5cdd195c9960ba1b606082015260800190565b6020808252602c908201527f44414f436f6d6d69747465653a205468652061646472657373206973206e6f7460408201526b20612063616e64696461746560a01b606082015260800190565b60208082526024908201527f44414f436f6d6d69747465653a20696e646578206973206e6f7420617661696c60408201526361626c6560e01b606082015260800190565b6020808252601d908201527f44414f436f6d6d69747465653a20636f696e616765206973207a65726f000000604082015260600190565b60208082526030908201527f44414f436f6d6d69747465653a2073656e646572206973206e6f74206120636160408201526f1b991a59185d194818dbdb9d1c9858dd60821b606082015260800190565b6020808252602a908201527f44414f436f6d6d69747465653a204661696c656420746f206578656375746520604082015269746865206167656e646160b01b606082015260800190565b60208082526023908201527f44414f436f6d6d69747465653a207265717569726564566f746573206973207a60408201526265726f60e81b606082015260800190565b60208082526030908201527f44414f436f6d6d69747465653a205468652063616e64696461746520616c726560408201526f18591e481a185cc818dbdb9d1c9858dd60821b606082015260800190565b9283526001600160a01b03919091166020830152604082015260600190565b8281526040810160048310614c0d57fe5b8260208301529392505050565b8281526040810160068310614c0d57fe5b60008482526040602083015282604083015282846060840137818301606090810191909152601f909201601f1916010192915050565b6040518181016001600160401b0381118282101715614c7c57fe5b604052919050565b60006001600160401b03821115614c9757fe5b5060209081020190565b60006001600160401b03821115614cb457fe5b50601f01601f191660200190565b60005b83811015614cdd578181015183820152602001614cc5565b83811115611aff5750506000910152565b6001600160a01b038116811461356e57600080fdfe456e756d657261626c655365743a20696e646578206f7574206f6620626f756e6473416363657373436f6e74726f6c3a2073656e646572206d75737420626520616e2061646d696e20746f206772616e7453746f726167655374617465436f6d6d69747465653a206e6f742061206d656d62657253746f726167655374617465436f6d6d69747465653a20756e76616c6964204c61796572325265676973747279416363657373436f6e74726f6c3a2073656e646572206d75737420626520616e2061646d696e20746f207265766f6b65663b98adf1afa777e36528b3293a057803f87ed00d2d2518dccfe5d7a6e99ccf536166654d6174683a206d756c7469706c69636174696f6e206f766572666c6f7753746f726167655374617465436f6d6d69747465653a204167656e64614d616e61676572206973207a65726f53746f726167655374617465436f6d6d69747465653a20756e76616c696420436f6d6d69747465654c32466163746f727953746f726167655374617465436f6d6d69747465653a20756e76616c696420536569674d616e6167657265416363657373436f6e74726f6c3a2063616e206f6e6c792072656e6f756e636520726f6c657320666f722073656c66a2646970667358221220ae23f28e66547f79a8703216e93ba2551598c2a72bef1b7026f4e3ce2dca090a64736f6c63430007060033",
  "immutableReferences": {},
  "source": "// SPDX-License-Identifier: MIT\npragma solidity ^0.7.6;\npragma abicoder v2;\n\n//import \"../../node_modules/@openzeppelin/contracts/access/Ownable.sol\";\nimport \"../../node_modules/@openzeppelin/contracts/access/AccessControl.sol\";\nimport \"./StorageStateCommittee.sol\";\n\nimport { SafeMath } from \"../../node_modules/@openzeppelin/contracts/math/SafeMath.sol\";\nimport { IERC20 } from  \"../../node_modules/@openzeppelin/contracts/token/ERC20/IERC20.sol\";\nimport { ICandidate } from \"../interfaces/ICandidate.sol\";\nimport { ILayer2 } from \"../interfaces/ILayer2.sol\";\nimport { IDAOAgendaManager } from \"../interfaces/IDAOAgendaManager.sol\";\nimport { LibAgenda } from \"../lib/Agenda.sol\";\nimport { ERC165Checker } from \"../../node_modules/@openzeppelin/contracts/introspection/ERC165Checker.sol\";\n\ncontract DAOCommittee is StorageStateCommittee, AccessControl {\n    using SafeMath for uint256;\n    using LibAgenda for *;\n     \n    enum ApplyResult { NONE, SUCCESS, NOT_ELECTION, ALREADY_COMMITTEE, SLOT_INVALID, ADDMEMBER_FAIL, LOW_BALANCE }\n\n    struct AgendaCreatingData {\n        address[] target;\n        uint256 noticePeriodSeconds;\n        uint256 votingPeriodSeconds;\n        bytes[] functionBytecode;\n    }\n\n    //////////////////////////////\n    // Events\n    //////////////////////////////\n\n    event QuorumChanged(\n        uint256 newQuorum\n    );\n\n    event AgendaCreated(\n        address indexed from,\n        uint256 indexed id,\n        address[] targets,\n        uint256 noticePeriodSeconds,\n        uint256 votingPeriodSeconds\n    );\n\n    event AgendaVoteCasted(\n        address indexed from,\n        uint256 indexed id,\n        uint voting,\n        string comment\n    );\n\n    event AgendaExecuted(\n        uint256 indexed id,\n        address[] target\n    );\n\n    event CandidateContractCreated(\n        address indexed candidate,\n        address indexed candidateContract,\n        string memo\n    );\n\n    event OperatorRegistered(\n        address indexed candidate,\n        address indexed candidateContract,\n        string memo\n    );\n\n    event ChangedMember(\n        uint256 indexed slotIndex,\n        address prevMember,\n        address indexed newMember\n    );\n\n    event ChangedSlotMaximum(\n        uint256 indexed prevSlotMax,\n        uint256 indexed slotMax\n    );\n\n    event ClaimedActivityReward(\n        address indexed candidate,\n        uint256 amount\n    );\n\n    modifier onlyOwner() {\n        require(hasRole(DEFAULT_ADMIN_ROLE, msg.sender), \"DAOCommitteeProxy: msg.sender is not an admin\");\n        _;\n    }\n\n    //////////////////////////////////////////////////////////////////////\n    // setters\n\n    function setSeigManager(address _seigManager) public onlyOwner {\n        require(_seigManager != address(0), \"zero address\");\n        seigManager = ISeigManager(_seigManager);\n    }\n     \n    function setCandidatesSeigManager(\n        address[] calldata candidateContracts,\n        address _seigManager\n    )\n        public\n        onlyOwner\n    {\n        require(_seigManager != address(0), \"zero address\");\n        for (uint256 i = 0; i < candidateContracts.length; i++) {\n            ICandidate(candidateContracts[i]).setSeigManager(_seigManager);\n        }\n    }\n\n    function setCandidatesCommittee(\n        address[] calldata candidateContracts,\n        address _committee\n    )\n        public\n        onlyOwner\n    {\n        require(_committee != address(0), \"zero address\");\n        for (uint256 i = 0; i < candidateContracts.length; i++) {\n            ICandidate(candidateContracts[i]).setCommittee(_committee);\n        }\n    }\n\n    function setDaoVault(address _daoVault) public onlyOwner {\n        require(_daoVault != address(0), \"zero address\");\n        daoVault = IDAOVault2(_daoVault);\n    }\n\n    function setLayer2Registry(address _layer2Registry) public onlyOwner {\n        require(_layer2Registry != address(0), \"zero address\");\n        layer2Registry = ILayer2Registry(_layer2Registry);\n    }\n\n    function setAgendaManager(address _agendaManager) public onlyOwner {\n        require(_agendaManager != address(0), \"zero address\");\n        agendaManager = IDAOAgendaManager(_agendaManager);\n    }\n\n    function setCandidateFactory(address _candidateFactory) public onlyOwner {\n        require(_candidateFactory != address(0), \"zero address\");\n        candidateFactory = ICandidateFactory(_candidateFactory);\n    }\n\n    function setTon(address _ton) public onlyOwner {\n        require(_ton != address(0), \"zero address\");\n        ton = _ton;\n    }\n\n    function setActivityRewardPerSecond(uint256 _value) public onlyOwner {\n        activityRewardPerSecond = _value;\n    }\n\n    function increaseMaxMember(\n        uint256 _newMaxMember,\n        uint256 _quorum\n    )\n        public\n        onlyOwner\n    {\n        require(maxMember < _newMaxMember, \"DAOCommitteeStore: You have to call reduceMemberSlot to decrease\");\n        emit ChangedSlotMaximum(maxMember, _newMaxMember);\n        maxMember = _newMaxMember;\n        fillMemberSlot();\n        setQuorum(_quorum);\n    }\n\n    //////////////////////////////////////////////////////////////////////\n    // Managing members\n\n    function createCandidate(string memory _memo)\n        public\n        validSeigManager\n        validLayer2Registry\n        validCommitteeL2Factory\n    {\n        require(!isExistCandidate(msg.sender), \"DAOCommittee: candidate already registerd\");\n\n        // Candidate\n        address candidateContract = candidateFactory.deploy(\n            msg.sender,\n            false,\n            _memo,\n            address(this),\n            address(seigManager)\n        );\n\n        require(\n            candidateContract != address(0),\n            \"DAOCommittee: deployed candidateContract is zero\"\n        );\n        require(\n            layer2Registry.registerAndDeployCoinage(candidateContract, address(seigManager)),\n            \"DAOCommittee: failed to registerAndDeployCoinage\"\n        );\n        require(\n            candidateInfos[msg.sender].candidateContract == address(0),\n            \"DAOCommitteeStore: The candidate already has contract\"\n        );\n\n        candidateInfos[msg.sender] = CandidateInfo({\n            candidateContract: candidateContract,\n            memberJoinedTime: 0,\n            indexMembers: 0,\n            rewardPeriod: 0,\n            claimedTimestamp: 0\n        });\n\n        candidates.push(msg.sender);\n       \n        emit CandidateContractCreated(msg.sender, candidateContract, _memo);\n    }\n\n    function registerOperator(address _layer2, string memory _memo)\n        public\n        validSeigManager\n        validLayer2Registry\n        validCommitteeL2Factory\n    {\n        _registerOperator(msg.sender, _layer2, _memo);\n    }\n\n    function registerOperatorByOwner(address _operator, address _layer2, string memory _memo)\n        public\n        onlyOwner\n        validSeigManager\n        validLayer2Registry\n        validCommitteeL2Factory\n    {\n        _registerOperator(_operator, _layer2, _memo);\n    }\n\n    function changeMember(\n        uint256 _memberIndex\n    )\n        public\n        returns (bool)\n    {\n        address newMember = ICandidate(msg.sender).candidate();\n        CandidateInfo storage candidateInfo = candidateInfos[newMember];\n        require(\n            ICandidate(msg.sender).isCandidateContract(),\n            \"DAOCommittee: sender is not a candidate contract\"\n        );\n        require(\n            _memberIndex < maxMember,\n            \"DAOCommittee: index is not available\"\n        );\n        require(\n            candidateInfo.candidateContract != address(0),\n            \"DAOCommittee: The address is not a candidate\"\n        );\n        require(\n            candidateInfo.memberJoinedTime == 0,\n            \"DAOCommittee: already member\"\n        );\n        \n        address prevMember = members[_memberIndex];\n        address prevMemberContract = candidateContract(prevMember);\n\n        candidateInfo.memberJoinedTime = block.timestamp;\n        candidateInfo.indexMembers = _memberIndex;\n\n        members[_memberIndex] = newMember;\n\n        if (prevMember == address(0)) {\n            emit ChangedMember(_memberIndex, prevMember, newMember);\n            return true;\n        }\n\n        require(\n            ICandidate(msg.sender).totalStaked() > ICandidate(prevMemberContract).totalStaked(),\n            \"not enough amount\"\n        );\n\n        CandidateInfo storage prevCandidateInfo = candidateInfos[prevMember];\n        prevCandidateInfo.indexMembers = 0;\n        prevCandidateInfo.rewardPeriod = prevCandidateInfo.rewardPeriod.add(block.timestamp.sub(prevCandidateInfo.memberJoinedTime));\n        prevCandidateInfo.memberJoinedTime = 0;\n\n        emit ChangedMember(_memberIndex, prevMember, newMember);\n\n        return true;\n    }\n    \n    function retireMember() onlyMemberContract public returns (bool) {\n        address candidate = ICandidate(msg.sender).candidate();\n        CandidateInfo storage candidateInfo = candidateInfos[candidate];\n        members[candidateInfo.indexMembers] = address(0);\n        candidateInfo.rewardPeriod = candidateInfo.rewardPeriod.add(block.timestamp.sub(candidateInfo.memberJoinedTime));\n        candidateInfo.memberJoinedTime = 0;\n\n        emit ChangedMember(candidateInfo.indexMembers, candidate, address(0));\n\n        candidateInfo.indexMembers = 0;\n        return true;\n    }\n\n    function reduceMemberSlot(\n        uint256 _reducingMemberIndex,\n        uint256 _quorum\n    )\n        public\n        onlyOwner\n    {\n        address reducingMember = members[_reducingMemberIndex];\n        CandidateInfo storage reducingCandidate = candidateInfos[reducingMember];\n\n        if (_reducingMemberIndex != members.length - 1) {\n            address tailmember = members[members.length - 1];\n            CandidateInfo storage tailCandidate = candidateInfos[tailmember];\n\n            tailCandidate.indexMembers = _reducingMemberIndex;\n            members[_reducingMemberIndex] = tailmember;\n        }\n        reducingCandidate.indexMembers = 0;\n        reducingCandidate.rewardPeriod = reducingCandidate.rewardPeriod.add(block.timestamp.sub(reducingCandidate.memberJoinedTime));\n        reducingCandidate.memberJoinedTime = 0;\n\n        members.pop();\n        maxMember = maxMember.sub(1);\n        setQuorum(_quorum);\n\n        emit ChangedMember(_reducingMemberIndex, reducingMember, address(0));\n        emit ChangedSlotMaximum(maxMember.add(1), maxMember);\n    }\n\n    //////////////////////////////////////////////////////////////////////\n    // Managing agenda\n\n    function onApprove(\n        address owner,\n        address spender,\n        uint256 tonAmount,\n        bytes calldata data\n    ) external returns (bool) {\n        AgendaCreatingData memory agendaData = _decodeAgendaData(data);\n\n        _createAgenda(\n            owner,\n            agendaData.target,\n            agendaData.noticePeriodSeconds,\n            agendaData.votingPeriodSeconds,\n            agendaData.functionBytecode\n        );\n\n        return true;\n    }\n\n    function setQuorum(\n        uint256 _quorum\n    )\n        public\n        onlyOwner\n        validAgendaManager\n    {\n        require(_quorum > 0, \"DAOCommittee: invalid quorum\");\n        require(_quorum <= maxMember, \"DAOCommittee: quorum exceed max member\");\n        quorum = _quorum;\n        emit QuorumChanged(quorum);\n    }\n\n    function setCreateAgendaFees(\n        uint256 _fees\n    )\n        public\n        onlyOwner\n        validAgendaManager\n    {\n        agendaManager.setCreateAgendaFees(_fees);\n    }\n\n    function setMinimumNoticePeriodSeconds(\n        uint256 _minimumNoticePeriod\n    )\n        public\n        onlyOwner\n        validAgendaManager\n    {\n        agendaManager.setMinimumNoticePeriodSeconds(_minimumNoticePeriod);\n    }\n\n    function setMinimumVotingPeriodSeconds(\n        uint256 _minimumVotingPeriod\n    )\n        public\n        onlyOwner\n        validAgendaManager\n    {\n        agendaManager.setMinimumVotingPeriodSeconds(_minimumVotingPeriod);\n    }\n\n    function castVote(\n        uint256 _agendaID,\n        uint _vote,\n        string calldata _comment\n    )\n        public \n        validAgendaManager\n    {\n        uint256 requiredVotes = quorum;\n        require(requiredVotes > 0, \"DAOCommittee: requiredVotes is zero\");\n\n        address candidate = ICandidate(msg.sender).candidate();\n        \n        agendaManager.castVote(\n            _agendaID,\n            candidate,\n            _vote\n        );\n\n        (uint256 yes, uint256 no, uint256 abstain) = agendaManager.getVotingCount(_agendaID);\n\n        if (requiredVotes <= yes) {\n            // yes\n            agendaManager.setResult(_agendaID, LibAgenda.AgendaResult.ACCEPT);\n            agendaManager.setStatus(_agendaID, LibAgenda.AgendaStatus.WAITING_EXEC);\n        } else if (requiredVotes <= no) {\n            // no\n            agendaManager.setResult(_agendaID, LibAgenda.AgendaResult.REJECT);\n            agendaManager.setStatus(_agendaID, LibAgenda.AgendaStatus.ENDED);\n        } else if (requiredVotes <= abstain.add(no) ) {\n            // dismiss\n            agendaManager.setResult(_agendaID, LibAgenda.AgendaResult.DISMISS);\n            agendaManager.setStatus(_agendaID, LibAgenda.AgendaStatus.ENDED);\n        }\n        \n        emit AgendaVoteCasted(msg.sender, _agendaID, _vote, _comment);\n    }\n\n    function endAgendaVoting(uint256 _agendaID) public {\n        agendaManager.endAgendaVoting(_agendaID);\n    }\n\n    function executeAgenda(uint256 _agendaID) public validAgendaManager {\n        require(\n            agendaManager.canExecuteAgenda(_agendaID),\n            \"DAOCommittee: can not execute the agenda\"\n        );\n        \n        (address[] memory target, bytes[] memory functionBytecode) = agendaManager.getExecutionInfo(_agendaID);\n       \n        agendaManager.setExecutedAgenda(_agendaID);\n\n        for (uint256 i = 0; i < target.length; i++) {\n            (bool success, ) = address(target[i]).call(functionBytecode[i]);\n            require(success, \"DAOCommittee: Failed to execute the agenda\");\n        }\n\n        emit AgendaExecuted(_agendaID, target);\n    }\n\n    function setAgendaStatus(uint256 _agendaID, uint256 _status, uint256 _result) public onlyOwner {\n        agendaManager.setResult(_agendaID, LibAgenda.AgendaResult(_result));\n        agendaManager.setStatus(_agendaID, LibAgenda.AgendaStatus(_status));\n    }\n     \n    function updateSeigniorage(address _candidate) public returns (bool) {\n        address candidateContract = candidateInfos[_candidate].candidateContract;\n        return ICandidate(candidateContract).updateSeigniorage();\n    }\n\n    function updateSeigniorages(address[] calldata _candidates) public returns (bool) {\n        for (uint256 i = 0; i < _candidates.length; i++) {\n            updateSeigniorage(_candidates[i]);\n        }\n    }\n\n    function claimActivityReward() public {\n        CandidateInfo storage info = candidateInfos[msg.sender];\n        uint256 amount = getClaimableActivityReward(msg.sender);\n\n        require(amount > 0, \"DAOCommittee: you don't have claimable ton\");\n\n        daoVault.claimTON(msg.sender, amount);\n        info.claimedTimestamp = block.timestamp;\n        info.rewardPeriod = 0;\n\n        emit ClaimedActivityReward(msg.sender, amount);\n    }\n\n    function _registerOperator(address _operator, address _layer2, string memory _memo)\n        internal\n        validSeigManager\n        validLayer2Registry\n        validCommitteeL2Factory\n    {\n        require(!isExistCandidate(_layer2), \"DAOCommittee: candidate already registerd\");\n\n        require(\n            _layer2 != address(0),\n            \"DAOCommittee: deployed candidateContract is zero\"\n        );\n        require(\n            candidateInfos[_layer2].candidateContract == address(0),\n            \"DAOCommittee: The candidate already has contract\"\n        );\n        ILayer2 layer2 = ILayer2(_layer2);\n        require(\n            layer2.isLayer2(),\n            \"DAOCommittee: invalid layer2 contract\"\n        );\n        require(\n            layer2.operator() == _operator,\n            \"DAOCommittee: invalid operator\"\n        );\n\n        address candidateContract = candidateFactory.deploy(\n            _layer2,\n            true,\n            _memo,\n            address(this),\n            address(seigManager)\n        );\n\n        require(\n            candidateContract != address(0),\n            \"DAOCommittee: deployed candidateContract is zero\"\n        );\n\n        candidateInfos[_layer2] = CandidateInfo({\n            candidateContract: candidateContract,\n            memberJoinedTime: 0,\n            indexMembers: 0,\n            rewardPeriod: 0,\n            claimedTimestamp: 0\n        });\n\n        candidates.push(_layer2);\n       \n        emit OperatorRegistered(_layer2, candidateContract, _memo);\n    }\n\n    function fillMemberSlot() internal {\n        for (uint256 i = members.length; i < maxMember; i++) {\n            members.push(address(0));\n        }\n    }\n\n    function _decodeAgendaData(bytes calldata input)\n        internal\n        view\n        returns (AgendaCreatingData memory data)\n    {\n        (data.target, data.noticePeriodSeconds, data.votingPeriodSeconds, data.functionBytecode) = \n            abi.decode(input, (address[], uint256, uint256, bytes[]));\n    }\n\n    function payCreatingAgendaFee(address _creator) internal {\n        uint256 fee = agendaManager.createAgendaFees();\n\n        require(IERC20(ton).transferFrom(_creator, address(this), fee), \"DAOCommitteeStore: failed to transfer ton from creator\");\n        require(IERC20(ton).transfer(address(1), fee), \"DAOCommitteeStore: failed to burn\");\n    }\n   \n    function _createAgenda(\n        address _creator,\n        address[] memory _targets,\n        uint256 _noticePeriodSeconds,\n        uint256 _votingPeriodSeconds,\n        bytes[] memory _functionBytecodes\n    )\n        internal\n        validAgendaManager\n        returns (uint256)\n    {\n        // pay to create agenda, burn ton.\n        payCreatingAgendaFee(_creator);\n\n        uint256 agendaID = agendaManager.newAgenda(\n            _targets,\n            _noticePeriodSeconds,\n            _votingPeriodSeconds,\n            0,\n            _functionBytecodes\n        );\n          \n        emit AgendaCreated(\n            _creator,\n            agendaID,\n            _targets,\n            _noticePeriodSeconds,\n            _votingPeriodSeconds\n        );\n\n        return agendaID;\n    }\n\n    function isCandidate(address _candidate) public view returns (bool) {\n        CandidateInfo storage info = candidateInfos[_candidate];\n\n        if (info.candidateContract == address(0)) {\n            return false;\n        }\n\n        bool supportIsCandidateContract = ERC165Checker.supportsInterface(\n            info.candidateContract,\n            ICandidate(info.candidateContract).isCandidateContract.selector\n        );\n\n        if (supportIsCandidateContract == false) {\n            return false;\n        }\n\n        return ICandidate(info.candidateContract).isCandidateContract();\n    }\n    \n    function totalSupplyOnCandidate(\n        address _candidate\n    )\n        public\n        view\n        returns (uint256 totalsupply)\n    {\n        address candidateContract = candidateContract(_candidate);\n        return totalSupplyOnCandidateContract(candidateContract);\n    }\n\n    function balanceOfOnCandidate(\n        address _candidate,\n        address _account\n    )\n        public\n        view\n        returns (uint256 amount)\n    {\n        address candidateContract = candidateContract(_candidate);\n        return balanceOfOnCandidateContract(candidateContract, _account);\n    }\n    \n    function totalSupplyOnCandidateContract(\n        address _candidateContract\n    )\n        public\n        view\n        returns (uint256 totalsupply)\n    {\n        require(_candidateContract != address(0), \"This account is not a candidate\");\n\n        address coinage = seigManager.coinages(_candidateContract);\n        require(coinage != address(0), \"DAOCommittee: coinage is zero\");\n        return IERC20(coinage).totalSupply();\n    }\n\n    function balanceOfOnCandidateContract(\n        address _candidateContract,\n        address _account\n    )\n        public\n        view\n        returns (uint256 amount)\n    {\n        require(_candidateContract != address(0), \"This account is not a candidate\");\n\n        address coinage = seigManager.coinages(_candidateContract);\n        require(coinage != address(0), \"DAOCommittee: coinage is zero\");\n        return IERC20(coinage).balanceOf(_account);\n    }\n\n    function candidatesLength() public view returns (uint256) {\n        return candidates.length;\n    }\n\n    function isExistCandidate(address _candidate) public view returns (bool isExist) {\n        return candidateInfos[_candidate].candidateContract != address(0);\n    }\n\n    function getClaimableActivityReward(address _candidate) public view returns (uint256) {\n        CandidateInfo storage info = candidateInfos[_candidate];\n        uint256 period = info.rewardPeriod;\n\n        if (info.memberJoinedTime > 0) {\n            if (info.memberJoinedTime > info.claimedTimestamp) {\n                period = period.add(block.timestamp.sub(info.memberJoinedTime));\n            } else {\n                period = period.add(block.timestamp.sub(info.claimedTimestamp));\n            }\n        }\n\n        return period.mul(activityRewardPerSecond);\n    }\n}\n",
  "sourcePath": "/data/github/onther/tokamak-dao-contracts3/contracts/dao/DAOCommittee.sol",
  "compiler": {
    "name": "solc",
    "version": "0.7.6+commit.7338295f.Emscripten.clang"
  },
  "schemaVersion": "3.3.2",
  "updatedAt": "2021-01-22T04:34:02.356Z",
  "networkType": "ethereum",
  "devdoc": {
    "kind": "dev",
    "methods": {
      "getRoleAdmin(bytes32)": {
        "details": "Returns the admin role that controls `role`. See {grantRole} and {revokeRole}. To change a role's admin, use {_setRoleAdmin}."
      },
      "getRoleMember(bytes32,uint256)": {
        "details": "Returns one of the accounts that have `role`. `index` must be a value between 0 and {getRoleMemberCount}, non-inclusive. Role bearers are not sorted in any particular way, and their ordering may change at any point. WARNING: When using {getRoleMember} and {getRoleMemberCount}, make sure you perform all queries on the same block. See the following https://forum.openzeppelin.com/t/iterating-over-elements-on-enumerableset-in-openzeppelin-contracts/2296[forum post] for more information."
      },
      "getRoleMemberCount(bytes32)": {
        "details": "Returns the number of accounts that have `role`. Can be used together with {getRoleMember} to enumerate all bearers of a role."
      },
      "grantRole(bytes32,address)": {
        "details": "Grants `role` to `account`. If `account` had not been already granted `role`, emits a {RoleGranted} event. Requirements: - the caller must have ``role``'s admin role."
      },
      "hasRole(bytes32,address)": {
        "details": "Returns `true` if `account` has been granted `role`."
      },
      "renounceRole(bytes32,address)": {
        "details": "Revokes `role` from the calling account. Roles are often managed via {grantRole} and {revokeRole}: this function's purpose is to provide a mechanism for accounts to lose their privileges if they are compromised (such as when a trusted device is misplaced). If the calling account had been granted `role`, emits a {RoleRevoked} event. Requirements: - the caller must be `account`."
      },
      "revokeRole(bytes32,address)": {
        "details": "Revokes `role` from `account`. If `account` had been granted `role`, emits a {RoleRevoked} event. Requirements: - the caller must have ``role``'s admin role."
      }
    },
    "version": 1
  },
  "userdoc": {
    "kind": "user",
    "methods": {},
    "version": 1
  }
}