{
  "contractName": "DAOCommittee",
  "abi": [
    {
      "anonymous": false,
      "inputs": [
        {
          "indexed": true,
          "internalType": "address",
          "name": "from",
          "type": "address"
        },
        {
          "indexed": true,
          "internalType": "uint256",
          "name": "id",
          "type": "uint256"
        },
        {
          "indexed": false,
          "internalType": "address[]",
          "name": "targets",
          "type": "address[]"
        },
        {
          "indexed": false,
          "internalType": "uint256",
          "name": "noticePeriodSeconds",
          "type": "uint256"
        },
        {
          "indexed": false,
          "internalType": "uint256",
          "name": "votingPeriodSeconds",
          "type": "uint256"
        }
      ],
      "name": "AgendaCreated",
      "type": "event"
    },
    {
      "anonymous": false,
      "inputs": [
        {
          "indexed": true,
          "internalType": "uint256",
          "name": "id",
          "type": "uint256"
        },
        {
          "indexed": false,
          "internalType": "address[]",
          "name": "target",
          "type": "address[]"
        }
      ],
      "name": "AgendaExecuted",
      "type": "event"
    },
    {
      "anonymous": false,
      "inputs": [
        {
          "indexed": true,
          "internalType": "address",
          "name": "from",
          "type": "address"
        },
        {
          "indexed": true,
          "internalType": "uint256",
          "name": "id",
          "type": "uint256"
        },
        {
          "indexed": false,
          "internalType": "uint256",
          "name": "voting",
          "type": "uint256"
        },
        {
          "indexed": false,
          "internalType": "string",
          "name": "comment",
          "type": "string"
        }
      ],
      "name": "AgendaVoteCasted",
      "type": "event"
    },
    {
      "anonymous": false,
      "inputs": [
        {
          "indexed": true,
          "internalType": "address",
          "name": "from",
          "type": "address"
        },
        {
          "indexed": false,
          "internalType": "address",
          "name": "member",
          "type": "address"
        },
        {
          "indexed": false,
          "internalType": "uint256",
          "name": "totalbalance",
          "type": "uint256"
        },
        {
          "indexed": false,
          "internalType": "uint256",
          "name": "memberIndex",
          "type": "uint256"
        }
      ],
      "name": "ApplyMemberSuccess",
      "type": "event"
    },
    {
      "anonymous": false,
      "inputs": [
        {
          "indexed": true,
          "internalType": "address",
          "name": "candidate",
          "type": "address"
        },
        {
          "indexed": true,
          "internalType": "address",
          "name": "candidateContract",
          "type": "address"
        },
        {
          "indexed": false,
          "internalType": "string",
          "name": "memo",
          "type": "string"
        }
      ],
      "name": "CandidateContractCreated",
      "type": "event"
    },
    {
      "anonymous": false,
      "inputs": [
        {
          "indexed": true,
          "internalType": "uint256",
          "name": "slotIndex",
          "type": "uint256"
        },
        {
          "indexed": false,
          "internalType": "address",
          "name": "prevMember",
          "type": "address"
        },
        {
          "indexed": true,
          "internalType": "address",
          "name": "newMember",
          "type": "address"
        }
      ],
      "name": "ChangedMember",
      "type": "event"
    },
    {
      "anonymous": false,
      "inputs": [
        {
          "indexed": true,
          "internalType": "uint256",
          "name": "prevSlotMax",
          "type": "uint256"
        },
        {
          "indexed": true,
          "internalType": "uint256",
          "name": "slotMax",
          "type": "uint256"
        }
      ],
      "name": "ChangedSlotMaximum",
      "type": "event"
    },
    {
      "anonymous": false,
      "inputs": [
        {
          "indexed": true,
          "internalType": "address",
          "name": "candidate",
          "type": "address"
        },
        {
          "indexed": false,
          "internalType": "uint256",
          "name": "amount",
          "type": "uint256"
        }
      ],
      "name": "ClaimedActivityReward",
      "type": "event"
    },
    {
      "anonymous": false,
      "inputs": [
        {
          "indexed": true,
          "internalType": "address",
          "name": "candidate",
          "type": "address"
        },
        {
          "indexed": true,
          "internalType": "address",
          "name": "candidateContract",
          "type": "address"
        },
        {
          "indexed": false,
          "internalType": "string",
          "name": "memo",
          "type": "string"
        }
      ],
      "name": "OperatorRegistered",
      "type": "event"
    },
    {
      "anonymous": false,
      "inputs": [
        {
          "indexed": false,
          "internalType": "uint256",
          "name": "newQuorum",
          "type": "uint256"
        }
      ],
      "name": "QuorumChanged",
      "type": "event"
    },
    {
      "anonymous": false,
      "inputs": [
        {
          "indexed": true,
          "internalType": "bytes32",
          "name": "role",
          "type": "bytes32"
        },
        {
          "indexed": true,
          "internalType": "bytes32",
          "name": "previousAdminRole",
          "type": "bytes32"
        },
        {
          "indexed": true,
          "internalType": "bytes32",
          "name": "newAdminRole",
          "type": "bytes32"
        }
      ],
      "name": "RoleAdminChanged",
      "type": "event"
    },
    {
      "anonymous": false,
      "inputs": [
        {
          "indexed": true,
          "internalType": "bytes32",
          "name": "role",
          "type": "bytes32"
        },
        {
          "indexed": true,
          "internalType": "address",
          "name": "account",
          "type": "address"
        },
        {
          "indexed": true,
          "internalType": "address",
          "name": "sender",
          "type": "address"
        }
      ],
      "name": "RoleGranted",
      "type": "event"
    },
    {
      "anonymous": false,
      "inputs": [
        {
          "indexed": true,
          "internalType": "bytes32",
          "name": "role",
          "type": "bytes32"
        },
        {
          "indexed": true,
          "internalType": "address",
          "name": "account",
          "type": "address"
        },
        {
          "indexed": true,
          "internalType": "address",
          "name": "sender",
          "type": "address"
        }
      ],
      "name": "RoleRevoked",
      "type": "event"
    },
    {
      "inputs": [],
      "name": "DEFAULT_ADMIN_ROLE",
      "outputs": [
        {
          "internalType": "bytes32",
          "name": "",
          "type": "bytes32"
        }
      ],
      "stateMutability": "view",
      "type": "function",
      "constant": true
    },
    {
      "inputs": [],
      "name": "activityRewardPerSecond",
      "outputs": [
        {
          "internalType": "uint256",
          "name": "",
          "type": "uint256"
        }
      ],
      "stateMutability": "view",
      "type": "function",
      "constant": true
    },
    {
      "inputs": [],
      "name": "agendaManager",
      "outputs": [
        {
          "internalType": "contract IDAOAgendaManager",
          "name": "",
          "type": "address"
        }
      ],
      "stateMutability": "view",
      "type": "function",
      "constant": true
    },
    {
      "inputs": [
        {
          "internalType": "address",
          "name": "_candidate",
          "type": "address"
        }
      ],
      "name": "candidateContract",
      "outputs": [
        {
          "internalType": "address",
          "name": "",
          "type": "address"
        }
      ],
      "stateMutability": "view",
      "type": "function",
      "constant": true
    },
    {
      "inputs": [],
      "name": "candidateFactory",
      "outputs": [
        {
          "internalType": "contract ICandidateFactory",
          "name": "",
          "type": "address"
        }
      ],
      "stateMutability": "view",
      "type": "function",
      "constant": true
    },
    {
      "inputs": [
        {
          "internalType": "address",
          "name": "",
          "type": "address"
        }
      ],
      "name": "candidateInfos",
      "outputs": [
        {
          "internalType": "address",
          "name": "candidateContract",
          "type": "address"
        },
        {
          "internalType": "uint256",
          "name": "memberJoinedTime",
          "type": "uint256"
        },
        {
          "internalType": "uint256",
          "name": "indexMembers",
          "type": "uint256"
        },
        {
          "internalType": "uint256",
          "name": "rewardPeriod",
          "type": "uint256"
        },
        {
          "internalType": "uint256",
          "name": "claimedTimestamp",
          "type": "uint256"
        }
      ],
      "stateMutability": "view",
      "type": "function",
      "constant": true
    },
    {
      "inputs": [
        {
          "internalType": "uint256",
          "name": "",
          "type": "uint256"
        }
      ],
      "name": "candidates",
      "outputs": [
        {
          "internalType": "address",
          "name": "",
          "type": "address"
        }
      ],
      "stateMutability": "view",
      "type": "function",
      "constant": true
    },
    {
      "inputs": [],
      "name": "daoVault",
      "outputs": [
        {
          "internalType": "contract IDAOVault2",
          "name": "",
          "type": "address"
        }
      ],
      "stateMutability": "view",
      "type": "function",
      "constant": true
    },
    {
      "inputs": [
        {
          "internalType": "bytes32",
          "name": "role",
          "type": "bytes32"
        }
      ],
      "name": "getRoleAdmin",
      "outputs": [
        {
          "internalType": "bytes32",
          "name": "",
          "type": "bytes32"
        }
      ],
      "stateMutability": "view",
      "type": "function",
      "constant": true
    },
    {
      "inputs": [
        {
          "internalType": "bytes32",
          "name": "role",
          "type": "bytes32"
        },
        {
          "internalType": "uint256",
          "name": "index",
          "type": "uint256"
        }
      ],
      "name": "getRoleMember",
      "outputs": [
        {
          "internalType": "address",
          "name": "",
          "type": "address"
        }
      ],
      "stateMutability": "view",
      "type": "function",
      "constant": true
    },
    {
      "inputs": [
        {
          "internalType": "bytes32",
          "name": "role",
          "type": "bytes32"
        }
      ],
      "name": "getRoleMemberCount",
      "outputs": [
        {
          "internalType": "uint256",
          "name": "",
          "type": "uint256"
        }
      ],
      "stateMutability": "view",
      "type": "function",
      "constant": true
    },
    {
      "inputs": [
        {
          "internalType": "bytes32",
          "name": "role",
          "type": "bytes32"
        },
        {
          "internalType": "address",
          "name": "account",
          "type": "address"
        }
      ],
      "name": "grantRole",
      "outputs": [],
      "stateMutability": "nonpayable",
      "type": "function"
    },
    {
      "inputs": [
        {
          "internalType": "bytes32",
          "name": "role",
          "type": "bytes32"
        },
        {
          "internalType": "address",
          "name": "account",
          "type": "address"
        }
      ],
      "name": "hasRole",
      "outputs": [
        {
          "internalType": "bool",
          "name": "",
          "type": "bool"
        }
      ],
      "stateMutability": "view",
      "type": "function",
      "constant": true
    },
    {
      "inputs": [
        {
          "internalType": "address",
          "name": "_candidate",
          "type": "address"
        }
      ],
      "name": "isMember",
      "outputs": [
        {
          "internalType": "bool",
          "name": "",
          "type": "bool"
        }
      ],
      "stateMutability": "view",
      "type": "function",
      "constant": true
    },
    {
      "inputs": [],
      "name": "layer2Registry",
      "outputs": [
        {
          "internalType": "contract ILayer2Registry",
          "name": "",
          "type": "address"
        }
      ],
      "stateMutability": "view",
      "type": "function",
      "constant": true
    },
    {
      "inputs": [],
      "name": "maxMember",
      "outputs": [
        {
          "internalType": "uint256",
          "name": "",
          "type": "uint256"
        }
      ],
      "stateMutability": "view",
      "type": "function",
      "constant": true
    },
    {
      "inputs": [
        {
          "internalType": "uint256",
          "name": "",
          "type": "uint256"
        }
      ],
      "name": "members",
      "outputs": [
        {
          "internalType": "address",
          "name": "",
          "type": "address"
        }
      ],
      "stateMutability": "view",
      "type": "function",
      "constant": true
    },
    {
      "inputs": [],
      "name": "quorum",
      "outputs": [
        {
          "internalType": "uint256",
          "name": "",
          "type": "uint256"
        }
      ],
      "stateMutability": "view",
      "type": "function",
      "constant": true
    },
    {
      "inputs": [
        {
          "internalType": "bytes32",
          "name": "role",
          "type": "bytes32"
        },
        {
          "internalType": "address",
          "name": "account",
          "type": "address"
        }
      ],
      "name": "renounceRole",
      "outputs": [],
      "stateMutability": "nonpayable",
      "type": "function"
    },
    {
      "inputs": [
        {
          "internalType": "bytes32",
          "name": "role",
          "type": "bytes32"
        },
        {
          "internalType": "address",
          "name": "account",
          "type": "address"
        }
      ],
      "name": "revokeRole",
      "outputs": [],
      "stateMutability": "nonpayable",
      "type": "function"
    },
    {
      "inputs": [],
      "name": "seigManager",
      "outputs": [
        {
          "internalType": "contract ISeigManager",
          "name": "",
          "type": "address"
        }
      ],
      "stateMutability": "view",
      "type": "function",
      "constant": true
    },
    {
      "inputs": [],
      "name": "ton",
      "outputs": [
        {
          "internalType": "address",
          "name": "",
          "type": "address"
        }
      ],
      "stateMutability": "view",
      "type": "function",
      "constant": true
    },
    {
      "inputs": [
        {
          "internalType": "address",
          "name": "_agendaManager",
          "type": "address"
        }
      ],
      "name": "setSeigManager",
      "outputs": [],
      "stateMutability": "nonpayable",
      "type": "function"
    },
    {
      "inputs": [
        {
          "internalType": "address",
          "name": "_daoVault",
          "type": "address"
        }
      ],
      "name": "setDaoVault",
      "outputs": [],
      "stateMutability": "nonpayable",
      "type": "function"
    },
    {
      "inputs": [
        {
          "internalType": "address",
          "name": "_layer2Registry",
          "type": "address"
        }
      ],
      "name": "setLayer2Registry",
      "outputs": [],
      "stateMutability": "nonpayable",
      "type": "function"
    },
    {
      "inputs": [
        {
          "internalType": "address",
          "name": "_agendaManager",
          "type": "address"
        }
      ],
      "name": "setAgendaManager",
      "outputs": [],
      "stateMutability": "nonpayable",
      "type": "function"
    },
    {
      "inputs": [
        {
          "internalType": "address",
          "name": "_candidateFactory",
          "type": "address"
        }
      ],
      "name": "setCandidateFactory",
      "outputs": [],
      "stateMutability": "nonpayable",
      "type": "function"
    },
    {
      "inputs": [
        {
          "internalType": "address",
          "name": "_ton",
          "type": "address"
        }
      ],
      "name": "setTon",
      "outputs": [],
      "stateMutability": "nonpayable",
      "type": "function"
    },
    {
      "inputs": [
        {
          "internalType": "uint256",
          "name": "_value",
          "type": "uint256"
        }
      ],
      "name": "setActivityRewardPerSecond",
      "outputs": [],
      "stateMutability": "nonpayable",
      "type": "function"
    },
    {
      "inputs": [
        {
          "internalType": "uint256",
          "name": "_newMaxMember",
          "type": "uint256"
        },
        {
          "internalType": "uint256",
          "name": "_quorum",
          "type": "uint256"
        }
      ],
      "name": "increaseMaxMember",
      "outputs": [],
      "stateMutability": "nonpayable",
      "type": "function"
    },
    {
      "inputs": [
        {
          "internalType": "string",
          "name": "_memo",
          "type": "string"
        }
      ],
      "name": "createCandidate",
      "outputs": [],
      "stateMutability": "nonpayable",
      "type": "function"
    },
    {
      "inputs": [
        {
          "internalType": "address",
          "name": "_contractAddress",
          "type": "address"
        },
        {
          "internalType": "string",
          "name": "_memo",
          "type": "string"
        }
      ],
      "name": "registerOperator",
      "outputs": [],
      "stateMutability": "nonpayable",
      "type": "function"
    },
    {
      "inputs": [
        {
          "internalType": "address",
          "name": "_operator",
          "type": "address"
        },
        {
          "internalType": "address",
          "name": "_contractAddress",
          "type": "address"
        },
        {
          "internalType": "string",
          "name": "_memo",
          "type": "string"
        }
      ],
      "name": "registerOperatorByOwner",
      "outputs": [],
      "stateMutability": "nonpayable",
      "type": "function"
    },
    {
      "inputs": [
        {
          "internalType": "uint256",
          "name": "_memberIndex",
          "type": "uint256"
        }
      ],
      "name": "changeMember",
      "outputs": [
        {
          "internalType": "bool",
          "name": "",
          "type": "bool"
        }
      ],
      "stateMutability": "nonpayable",
      "type": "function"
    },
    {
      "inputs": [],
      "name": "retireMember",
      "outputs": [
        {
          "internalType": "bool",
          "name": "",
          "type": "bool"
        }
      ],
      "stateMutability": "nonpayable",
      "type": "function"
    },
    {
      "inputs": [
        {
          "internalType": "uint256",
          "name": "_reducingMemberIndex",
          "type": "uint256"
        },
        {
          "internalType": "uint256",
          "name": "_quorum",
          "type": "uint256"
        }
      ],
      "name": "reduceMemberSlot",
      "outputs": [],
      "stateMutability": "nonpayable",
      "type": "function"
    },
    {
      "inputs": [
        {
          "internalType": "address",
          "name": "owner",
          "type": "address"
        },
        {
          "internalType": "address",
          "name": "spender",
          "type": "address"
        },
        {
          "internalType": "uint256",
          "name": "tonAmount",
          "type": "uint256"
        },
        {
          "internalType": "bytes",
          "name": "data",
          "type": "bytes"
        }
      ],
      "name": "onApprove",
      "outputs": [
        {
          "internalType": "bool",
          "name": "",
          "type": "bool"
        }
      ],
      "stateMutability": "nonpayable",
      "type": "function"
    },
    {
      "inputs": [
        {
          "internalType": "uint256",
          "name": "_quorum",
          "type": "uint256"
        }
      ],
      "name": "setQuorum",
      "outputs": [],
      "stateMutability": "nonpayable",
      "type": "function"
    },
    {
      "inputs": [
        {
          "internalType": "uint256",
          "name": "_fees",
          "type": "uint256"
        }
      ],
      "name": "setCreateAgendaFees",
      "outputs": [],
      "stateMutability": "nonpayable",
      "type": "function"
    },
    {
      "inputs": [
        {
          "internalType": "uint256",
          "name": "_minimumNoticePeriod",
          "type": "uint256"
        }
      ],
      "name": "setMinimumNoticePeriodSeconds",
      "outputs": [],
      "stateMutability": "nonpayable",
      "type": "function"
    },
    {
      "inputs": [
        {
          "internalType": "uint256",
          "name": "_minimumVotingPeriod",
          "type": "uint256"
        }
      ],
      "name": "setMinimumVotingPeriodSeconds",
      "outputs": [],
      "stateMutability": "nonpayable",
      "type": "function"
    },
    {
      "inputs": [
        {
          "internalType": "uint256",
          "name": "_agendaID",
          "type": "uint256"
        },
        {
          "internalType": "uint256",
          "name": "_vote",
          "type": "uint256"
        },
        {
          "internalType": "string",
          "name": "_comment",
          "type": "string"
        }
      ],
      "name": "castVote",
      "outputs": [],
      "stateMutability": "nonpayable",
      "type": "function"
    },
    {
      "inputs": [
        {
          "internalType": "uint256",
          "name": "_agendaID",
          "type": "uint256"
        }
      ],
      "name": "endAgendaVoting",
      "outputs": [],
      "stateMutability": "nonpayable",
      "type": "function"
    },
    {
      "inputs": [
        {
          "internalType": "uint256",
          "name": "_agendaID",
          "type": "uint256"
        }
      ],
      "name": "executeAgenda",
      "outputs": [],
      "stateMutability": "nonpayable",
      "type": "function"
    },
    {
      "inputs": [
        {
          "internalType": "uint256",
          "name": "_agendaID",
          "type": "uint256"
        },
        {
          "internalType": "uint256",
          "name": "_status",
          "type": "uint256"
        },
        {
          "internalType": "uint256",
          "name": "_result",
          "type": "uint256"
        }
      ],
      "name": "setAgendaStatus",
      "outputs": [],
      "stateMutability": "nonpayable",
      "type": "function"
    },
    {
      "inputs": [
        {
          "internalType": "address",
          "name": "_candidate",
          "type": "address"
        }
      ],
      "name": "updateSeigniorage",
      "outputs": [
        {
          "internalType": "bool",
          "name": "",
          "type": "bool"
        }
      ],
      "stateMutability": "nonpayable",
      "type": "function"
    },
    {
      "inputs": [
        {
          "internalType": "address[]",
          "name": "_candidates",
          "type": "address[]"
        }
      ],
      "name": "updateSeigniorages",
      "outputs": [
        {
          "internalType": "bool",
          "name": "",
          "type": "bool"
        }
      ],
      "stateMutability": "nonpayable",
      "type": "function"
    },
    {
      "inputs": [],
      "name": "claimActivityReward",
      "outputs": [],
      "stateMutability": "nonpayable",
      "type": "function"
    },
    {
      "inputs": [
        {
          "internalType": "address",
          "name": "_candidate",
          "type": "address"
        }
      ],
      "name": "isCandidate",
      "outputs": [
        {
          "internalType": "bool",
          "name": "",
          "type": "bool"
        }
      ],
      "stateMutability": "view",
      "type": "function",
      "constant": true
    },
    {
      "inputs": [
        {
          "internalType": "address",
          "name": "_candidate",
          "type": "address"
        }
      ],
      "name": "totalSupplyOnCandidate",
      "outputs": [
        {
          "internalType": "uint256",
          "name": "totalsupply",
          "type": "uint256"
        }
      ],
      "stateMutability": "view",
      "type": "function",
      "constant": true
    },
    {
      "inputs": [
        {
          "internalType": "address",
          "name": "_candidate",
          "type": "address"
        },
        {
          "internalType": "address",
          "name": "_account",
          "type": "address"
        }
      ],
      "name": "balanceOfOnCandidate",
      "outputs": [
        {
          "internalType": "uint256",
          "name": "amount",
          "type": "uint256"
        }
      ],
      "stateMutability": "view",
      "type": "function",
      "constant": true
    },
    {
      "inputs": [
        {
          "internalType": "address",
          "name": "_candidateContract",
          "type": "address"
        }
      ],
      "name": "totalSupplyOnCandidateContract",
      "outputs": [
        {
          "internalType": "uint256",
          "name": "totalsupply",
          "type": "uint256"
        }
      ],
      "stateMutability": "view",
      "type": "function",
      "constant": true
    },
    {
      "inputs": [
        {
          "internalType": "address",
          "name": "_candidateContract",
          "type": "address"
        },
        {
          "internalType": "address",
          "name": "_account",
          "type": "address"
        }
      ],
      "name": "balanceOfOnCandidateContract",
      "outputs": [
        {
          "internalType": "uint256",
          "name": "amount",
          "type": "uint256"
        }
      ],
      "stateMutability": "view",
      "type": "function",
      "constant": true
    },
    {
      "inputs": [],
      "name": "candidatesLength",
      "outputs": [
        {
          "internalType": "uint256",
          "name": "",
          "type": "uint256"
        }
      ],
      "stateMutability": "view",
      "type": "function",
      "constant": true
    },
    {
      "inputs": [
        {
          "internalType": "address",
          "name": "_candidate",
          "type": "address"
        }
      ],
      "name": "isExistCandidate",
      "outputs": [
        {
          "internalType": "bool",
          "name": "isExist",
          "type": "bool"
        }
      ],
      "stateMutability": "view",
      "type": "function",
      "constant": true
    },
    {
      "inputs": [
        {
          "internalType": "address",
          "name": "_candidate",
          "type": "address"
        }
      ],
      "name": "getClaimableActivityReward",
      "outputs": [
        {
          "internalType": "uint256",
          "name": "",
          "type": "uint256"
        }
      ],
      "stateMutability": "view",
      "type": "function",
      "constant": true
    }
  ],
  "bytecode": "0x608060405234801561001057600080fd5b50614807806100206000396000f3fe608060405234801561001057600080fd5b50600436106103785760003560e01c80636fb7f558116101d3578063a230c52411610104578063ca15c873116100a2578063d51b9e931161007c578063d51b9e931461070d578063d525f04f14610720578063d547741f14610733578063fce928941461074657610378565b8063ca15c873146106ea578063cc48b947146106fd578063cf2a239c1461070557610378565b8063b5dd1158116100de578063b5dd1158146106b4578063c0bc5304146106bc578063c1ba4e59146106cf578063c4ef9c00146106e257610378565b8063a230c5241461067b578063ad6675dc1461068e578063b4f69b6a146106a157610378565b806389ea43001161017157806391d148541161014b57806391d148541461063a5780639932e94c1461064d5780639eae562214610660578063a217fddf1461067357610378565b806389ea43001461060c5780638bf7a3ab1461061f5780639010d07c1461062757610378565b806378767d33116101ad57806378767d33146105cb5780637f331636146105de578063805aca20146105e6578063885b4696146105f957610378565b80636fb7f558146105a85780637657f20a146105b0578063773b7f65146105c357610378565b806336568abe116102ad57806357f0a8671161024b5780635ebe7622116102255780635ebe76221461055c5780635fba7a561461056f578063651d08cd146105825780636da8f3ce1461059557610378565b806357f0a8671461052e5780635903bd6c146105415780635daf08ca1461054957610378565b806349c39f141161028757806349c39f14146104e25780634b799db1146104f55780634d288fec14610508578063561a1dab1461051b57610378565b806336568abe146104a9578063410439e8146104bc5780634273ca16146104cf57610378565b8063248a9ca31161031a5780632af60ff4116102f45780632af60ff41461044c5780632e011c1e1461045f5780632f2ff15d146104835780633477ee2e1461049657610378565b8063248a9ca31461041157806324f99b1e1461042457806327fd92fd1461043757610378565b806316f7f9821161035657806316f7f982146103d05780631703a018146103e3578063216f486b146103eb57806323d09fdf146103fe57610378565b806303e3c9ac1461037d578063047f52f21461039b57806311f19e04146103b0575b600080fd5b610385610759565b6040516103929190613e43565b60405180910390f35b6103ae6103a9366004613721565b61075f565b005b6103c36103be366004613acb565b6107d7565b6040516103929190613e38565b6103856103de366004613759565b6109ac565b610385610b03565b6103ae6103f9366004613acb565b610b09565b6103ae61040c366004613acb565b610dd1565b61038561041f366004613acb565b610ea4565b6103ae610432366004613b73565b610eb9565b61043f6112d0565b6040516103929190613ca7565b6103ae61045a366004613721565b6112df565b61047261046d366004613721565b61134e565b604051610392959493929190613d4d565b6103ae610491366004613ae3565b611387565b61043f6104a4366004613acb565b6113ee565b6103ae6104b7366004613ae3565b611418565b6103ae6104ca366004613791565b611479565b6103c36104dd3660046137f1565b611585565b6103ae6104f0366004613721565b6115bf565b6103ae610503366004613721565b61162e565b6103ae610516366004613721565b61169d565b6103c3610529366004613721565b61170c565b6103c361053c3660046138b0565b61172c565b61043f61176c565b61043f610557366004613acb565b61177b565b6103ae61056a366004613acb565b61178b565b6103ae61057d366004613b28565b6117b7565b61043f610590366004613721565b611b36565b6103ae6105a3366004613b07565b611b54565b61043f611be1565b6103ae6105be366004613721565b611bf0565b610385611c5f565b6103856105d9366004613721565b611c65565b610385611dae565b6103ae6105f4366004613bc4565b611db4565b6103ae610607366004613acb565b611ebc565b6103c361061a366004613721565b611eec565b6103ae61205a565b61043f610635366004613b07565b612144565b6103c3610648366004613ae3565b61215c565b61038561065b366004613721565b612174565b6103ae61066e366004613b07565b612206565b6103856123d5565b6103c3610689366004613721565b6123da565b61038561069c366004613721565b6123fa565b6103ae6106af366004613acb565b612411565b61043f6124af565b6103ae6106ca366004613acb565b6124be565b6103ae6106dd366004613acb565b61255c565b6103c361264c565b6103856106f8366004613acb565b612746565b61043f61275d565b61043f61276c565b6103c361071b366004613721565b61277b565b61038561072e366004613759565b612856565b6103ae610741366004613ae3565b61286e565b6103ae610754366004613862565b6128c7565b60085481565b61076a60003361215c565b61078f5760405162461bcd60e51b8152600401610786906142ab565b60405180910390fd5b6001600160a01b0381166107b55760405162461bcd60e51b815260040161078690614285565b600380546001600160a01b0319166001600160a01b0392909216919091179055565b33600090815260096020526040812060085483106108075760405162461bcd60e51b8152600401610786906143d3565b80546001600160a01b031661082e5760405162461bcd60e51b815260040161078690614387565b6001810154156108505760405162461bcd60e51b815260040161078690614109565b60006007848154811061085f57fe5b60009182526020909120015442600184015560028301859055600780546001600160a01b03909216925033918690811061089557fe5b600091825260209091200180546001600160a01b0319166001600160a01b0392831617905581166108fb57336001600160a01b0316846000805160206146da833981519152836040516108e89190613ca7565b60405180910390a36001925050506109a7565b610904816123fa565b61090d336123fa565b1161092a5760405162461bcd60e51b815260040161078690613e96565b6001600160a01b0381166000908152600960205260408120600281019190915560018101546109699061095e9042906129a7565b6003830154906129e9565b600382015560006001820155604051339086906000805160206146da83398151915290610997908690613ca7565b60405180910390a3600193505050505b919050565b60006001600160a01b0383166109d45760405162461bcd60e51b815260040161078690613f5d565b600554604051634c063c1960e01b81526000916001600160a01b031690634c063c1990610a05908790600401613ca7565b60206040518083038186803b158015610a1d57600080fd5b505afa158015610a31573d6000803e3d6000fd5b505050506040513d601f19601f82011682018060405250810190610a55919061373d565b90506001600160a01b038116610a7d5760405162461bcd60e51b815260040161078690614417565b6040516370a0823160e01b81526001600160a01b038216906370a0823190610aa9908690600401613ca7565b60206040518083038186803b158015610ac157600080fd5b505afa158015610ad5573d6000803e3d6000fd5b505050506040513d601f19601f82011682018060405250810190610af99190613b5b565b9150505b92915050565b600a5481565b6002546001600160a01b0316610b505760405162461bcd60e51b815260040180806020018281038252602c81526020018061471b602c913960400191505060405180910390fd5b6002546040516377f28d5b60e01b81526001600160a01b03909116906377f28d5b90610b80908490600401613e43565b60206040518083038186803b158015610b9857600080fd5b505afa158015610bac573d6000803e3d6000fd5b505050506040513d601f19601f82011682018060405250810190610bd09190613aab565b610bec5760405162461bcd60e51b8152600401610786906141ed565b6002546040516373ba374560e01b815260009182916001600160a01b03909116906373ba374590610c21908690600401613e43565b60006040518083038186803b158015610c3957600080fd5b505afa158015610c4d573d6000803e3d6000fd5b505050506040513d6000823e601f3d908101601f19168201604052610c75919081019061391f565b9150915060005b8251811015610d31576000838281518110610c9357fe5b60200260200101516001600160a01b0316838381518110610cb057fe5b6020026020010151604051610cc59190613c8b565b6000604051808303816000865af19150503d8060008114610d02576040519150601f19603f3d011682016040523d82523d6000602084013e610d07565b606091505b5050905080610d285760405162461bcd60e51b81526004016107869061444e565b50600101610c7c565b50600254604051631b8c251960e11b81526001600160a01b03909116906337184a3290610d62908690600401613e43565b600060405180830381600087803b158015610d7c57600080fd5b505af1158015610d90573d6000803e3d6000fd5b50505050827f785146be3266678a3f4ea454b310ff1f8c91d0ad9a7997bcd0619940d4d67fe683604051610dc49190613d7b565b60405180910390a2505050565b610ddc60003361215c565b610df85760405162461bcd60e51b8152600401610786906142ab565b6002546001600160a01b0316610e3f5760405162461bcd60e51b815260040180806020018281038252602c81526020018061471b602c913960400191505060405180910390fd5b6002546040516323d09fdf60e01b81526001600160a01b03909116906323d09fdf90610e6f908490600401613e43565b600060405180830381600087803b158015610e8957600080fd5b505af1158015610e9d573d6000803e3d6000fd5b5050505050565b6000908152600c602052604090206002015490565b6002546001600160a01b0316610f005760405162461bcd60e51b815260040180806020018281038252602c81526020018061471b602c913960400191505060405180910390fd5b600a5480610f205760405162461bcd60e51b815260040161078690614498565b600254604051637e77eb2360e01b81526001600160a01b0390911690637e77eb2390610f54908890339089906004016144db565b602060405180830381600087803b158015610f6e57600080fd5b505af1158015610f82573d6000803e3d6000fd5b505050506040513d601f19601f82011682018060405250810190610fa69190613aab565b50600254604051635772521560e11b8152600091829182916001600160a01b03169063aee4a42a90610fdc908b90600401613e43565b60606040518083038186803b158015610ff457600080fd5b505afa158015611008573d6000803e3d6000fd5b505050506040513d601f19601f8201168201806040525081019061102c9190613bef565b92509250925082841161110857600254604051632b0a851b60e11b81526001600160a01b03909116906356150a369061106c908b906001906004016144fa565b600060405180830381600087803b15801561108657600080fd5b505af115801561109a573d6000803e3d6000fd5b5050600254604051633625b75960e21b81526001600160a01b03909116925063d896dd6491506110d1908b90600390600401614518565b600060405180830381600087803b1580156110eb57600080fd5b505af11580156110ff573d6000803e3d6000fd5b50505050611280565b8184116111a55760028054604051632b0a851b60e11b81526001600160a01b03909116916356150a3691611140918c916004016144fa565b600060405180830381600087803b15801561115a57600080fd5b505af115801561116e573d6000803e3d6000fd5b5050600254604051633625b75960e21b81526001600160a01b03909116925063d896dd6491506110d1908b90600590600401614518565b6111af81836129e9565b841161128057600254604051632b0a851b60e11b81526001600160a01b03909116906356150a36906111e8908b906003906004016144fa565b600060405180830381600087803b15801561120257600080fd5b505af1158015611216573d6000803e3d6000fd5b5050600254604051633625b75960e21b81526001600160a01b03909116925063d896dd64915061124d908b90600590600401614518565b600060405180830381600087803b15801561126757600080fd5b505af115801561127b573d6000803e3d6000fd5b505050505b87336001600160a01b03167ffa0761008653bc7bf9fa040fb7e07672ad3e17a976eb452c44e81dd782a6214b8989896040516112be93929190614529565b60405180910390a35050505050505050565b6002546001600160a01b031681565b6112ea60003361215c565b6113065760405162461bcd60e51b8152600401610786906142ab565b6001600160a01b03811661132c5760405162461bcd60e51b815260040161078690614285565b600480546001600160a01b0319166001600160a01b0392909216919091179055565b600960205260009081526040902080546001820154600283015460038401546004909401546001600160a01b0390931693919290919085565b6000828152600c60205260409020600201546113a590610648612a43565b6113e05760405162461bcd60e51b815260040180806020018281038252602f81526020018061462b602f913960400191505060405180910390fd5b6113ea8282612a47565b5050565b600681815481106113fe57600080fd5b6000918252602090912001546001600160a01b0316905081565b611420612a43565b6001600160a01b0316816001600160a01b03161461146f5760405162461bcd60e51b815260040180806020018281038252602f8152602001806147a3602f913960400191505060405180910390fd5b6113ea8282612ab0565b61148460003361215c565b6114a05760405162461bcd60e51b8152600401610786906142ab565b6005546001600160a01b03166114e75760405162461bcd60e51b815260040180806020018281038252602b815260200180614778602b913960400191505060405180910390fd5b6004546001600160a01b031661152e5760405162461bcd60e51b815260040180806020018281038252602d81526020018061467d602d913960400191505060405180910390fd5b6003546001600160a01b03166115755760405162461bcd60e51b81526004018080602001828103825260318152602001806147476031913960400191505060405180910390fd5b611580838383612b19565b505050565b6000806115928484612d64565b90506115b1878260000151836020015184604001518560600151612d8f565b506001979650505050505050565b6115ca60003361215c565b6115e65760405162461bcd60e51b8152600401610786906142ab565b6001600160a01b03811661160c5760405162461bcd60e51b815260040161078690614285565b600280546001600160a01b0319166001600160a01b0392909216919091179055565b61163960003361215c565b6116555760405162461bcd60e51b8152600401610786906142ab565b6001600160a01b03811661167b5760405162461bcd60e51b815260040161078690614285565b600180546001600160a01b0319166001600160a01b0392909216919091179055565b6116a860003361215c565b6116c45760405162461bcd60e51b8152600401610786906142ab565b6001600160a01b0381166116ea5760405162461bcd60e51b815260040161078690614285565b600080546001600160a01b0319166001600160a01b0392909216919091179055565b6001600160a01b0390811660009081526009602052604090205416151590565b6000805b828110156117655761175c84848381811061174757fe5b905060200201602081019061061a9190613721565b50600101611730565b5092915050565b6001546001600160a01b031681565b600781815481106113fe57600080fd5b61179660003361215c565b6117b25760405162461bcd60e51b8152600401610786906142ab565b600b55565b6005546001600160a01b03166117fe5760405162461bcd60e51b815260040180806020018281038252602b815260200180614778602b913960400191505060405180910390fd5b6004546001600160a01b03166118455760405162461bcd60e51b815260040180806020018281038252602d81526020018061467d602d913960400191505060405180910390fd5b6003546001600160a01b031661188c5760405162461bcd60e51b81526004018080602001828103825260318152602001806147476031913960400191505060405180910390fd5b6118953361170c565b156118b25760405162461bcd60e51b81526004016107869061433e565b600354600554600480546040516337d5af5f60e01b81526000946001600160a01b03908116946337d5af5f946118f49433948a94938416939091169101613cbb565b602060405180830381600087803b15801561190e57600080fd5b505af1158015611922573d6000803e3d6000fd5b505050506040513d601f19601f82011682018060405250810190611946919061373d565b90506001600160a01b03811661196e5760405162461bcd60e51b815260040161078690614140565b60048054600554604051635e58d38f60e11b81526001600160a01b039283169363bcb1a71e936119a393879391169101613d0f565b602060405180830381600087803b1580156119bd57600080fd5b505af11580156119d1573d6000803e3d6000fd5b505050506040513d601f19601f820116820180604052508101906119f59190613aab565b611a115760405162461bcd60e51b815260040161078690614235565b336000908152600960205260409020546001600160a01b031615611a475760405162461bcd60e51b81526004016107869061403c565b6040805160a0810182526001600160a01b038084168083526000602080850182815285870183815260608701848152608088018581523380875260099095528986209851895498166001600160a01b031998891617895592516001808a01919091559151600289015551600388015590516004909601959095556006805495860181559091527ff652222313e28459528d920b65115c16c04f3efc82aaedc97be59f3f377c0d3f9093018054909216831790915591517f7cf8db18d9a5c7f44156bfabdbb59ac982a8a004e461ca1b87ee71a5cdfbc5ef90611b2a908690613e4c565b60405180910390a35050565b6001600160a01b039081166000908152600960205260409020541690565b611b5f60003361215c565b611b7b5760405162461bcd60e51b8152600401610786906142ab565b8160085410611b9c5760405162461bcd60e51b815260040161078690613f94565b6008546040518391907f8c0366d1e3a335a312d012257ee764723c38ec2dd5e74cbfad372513521f977190600090a36008829055611bd8612ebf565b6113ea8161255c565b6005546001600160a01b031681565b611bfb60003361215c565b611c175760405162461bcd60e51b8152600401610786906142ab565b6001600160a01b038116611c3d5760405162461bcd60e51b815260040161078690614285565b600580546001600160a01b0319166001600160a01b0392909216919091179055565b60065490565b60006001600160a01b038216611c8d5760405162461bcd60e51b815260040161078690613f5d565b600554604051634c063c1960e01b81526000916001600160a01b031690634c063c1990611cbe908690600401613ca7565b60206040518083038186803b158015611cd657600080fd5b505afa158015611cea573d6000803e3d6000fd5b505050506040513d601f19601f82011682018060405250810190611d0e919061373d565b90506001600160a01b038116611d365760405162461bcd60e51b815260040161078690614417565b806001600160a01b03166318160ddd6040518163ffffffff1660e01b815260040160206040518083038186803b158015611d6f57600080fd5b505afa158015611d83573d6000803e3d6000fd5b505050506040513d601f19601f82011682018060405250810190611da79190613b5b565b9392505050565b600b5481565b611dbf60003361215c565b611ddb5760405162461bcd60e51b8152600401610786906142ab565b6002546001600160a01b03166356150a3684836003811115611df957fe5b6040518363ffffffff1660e01b8152600401611e169291906144fa565b600060405180830381600087803b158015611e3057600080fd5b505af1158015611e44573d6000803e3d6000fd5b50506002546001600160a01b0316915063d896dd64905084846005811115611e6857fe5b6040518363ffffffff1660e01b8152600401611e85929190614518565b600060405180830381600087803b158015611e9f57600080fd5b505af1158015611eb3573d6000803e3d6000fd5b50505050505050565b60025460405163442da34b60e11b81526001600160a01b039091169063885b469690610e6f908490600401613e43565b6001600160a01b0380821660009081526009602052604081205490911680611f265760405162461bcd60e51b815260040161078690614091565b611f3781631dffc87160e21b612f17565b611f535760405162461bcd60e51b815260040161078690614190565b806001600160a01b03166377ff21c46040518163ffffffff1660e01b815260040160206040518083038186803b158015611f8c57600080fd5b505afa158015611fa0573d6000803e3d6000fd5b505050506040513d601f19601f82011682018060405250810190611fc49190613aab565b611fe05760405162461bcd60e51b8152600401610786906142f8565b806001600160a01b031663764a78566040518163ffffffff1660e01b8152600401602060405180830381600087803b15801561201b57600080fd5b505af115801561202f573d6000803e3d6000fd5b505050506040513d601f19601f820116820180604052508101906120539190613aab565b5050919050565b3360008181526009602052604081209161207390612174565b9050600081116120955760405162461bcd60e51b815260040161078690613ff2565b600154604051633bc3556560e21b81526001600160a01b039091169063ef0d5594906120c79033908590600401613cf6565b600060405180830381600087803b1580156120e157600080fd5b505af11580156120f5573d6000803e3d6000fd5b505042600485015550506000600383015560405133907fe013459a1c3162ae04cb4b22feaa126a5d302e283c7333f41d1ebe1b2cd7384b90612138908490613e43565b60405180910390a25050565b6000828152600c60205260408120611da79083612f33565b6000828152600c60205260408120611da79083612f3f565b6001600160a01b038116600090815260096020526040812060038101546001820154156121f0578160040154826001015411156121d3576121cc6121c58360010154426129a790919063ffffffff16565b82906129e9565b90506121f0565b6121ed6121c58360040154426129a790919063ffffffff16565b90505b600b546121fe908290612f54565b949350505050565b61221160003361215c565b61222d5760405162461bcd60e51b8152600401610786906142ab565b60006007838154811061223c57fe5b60009182526020808320909101546001600160a01b031680835260099091526040909120600754919250906000190184146122f9576007805460009190600019810190811061228757fe5b60009182526020808320909101546001600160a01b03168083526009909152604090912060028101879055600780549293509091839190889081106122c857fe5b9060005260206000200160006101000a8154816001600160a01b0302191690836001600160a01b0316021790555050505b6000600282015560018101546123149061095e9042906129a7565b600382015560006001820155600780548061232b57fe5b600082815260209020810160001990810180546001600160a01b031916905501905560085461235b9060016129a7565b6008556123678361255c565b60006001600160a01b0316846000805160206146da833981519152846040516123909190613ca7565b60405180910390a36008546123a68160016129e9565b6040517f8c0366d1e3a335a312d012257ee764723c38ec2dd5e74cbfad372513521f977190600090a350505050565b600081565b6001600160a01b0316600090815260096020526040902060010154151590565b60008061240683611b36565b9050611da781611c65565b61241c60003361215c565b6124385760405162461bcd60e51b8152600401610786906142ab565b6002546001600160a01b031661247f5760405162461bcd60e51b815260040180806020018281038252602c81526020018061471b602c913960400191505060405180910390fd5b600254604051635a7b4db560e11b81526001600160a01b039091169063b4f69b6a90610e6f908490600401613e43565b6003546001600160a01b031681565b6124c960003361215c565b6124e55760405162461bcd60e51b8152600401610786906142ab565b6002546001600160a01b031661252c5760405162461bcd60e51b815260040180806020018281038252602c81526020018061471b602c913960400191505060405180910390fd5b60025460405163302f14c160e21b81526001600160a01b039091169063c0bc530490610e6f908490600401613e43565b61256760003361215c565b6125835760405162461bcd60e51b8152600401610786906142ab565b6002546001600160a01b03166125ca5760405162461bcd60e51b815260040180806020018281038252602c81526020018061471b602c913960400191505060405180910390fd5b600081116125ea5760405162461bcd60e51b815260040161078690613e5f565b60085481111561260c5760405162461bcd60e51b815260040161078690613ec1565b600a8190556040517f027863d12a407097e086a48e36475bfc859d0b200b7e6f65b5fd3b218e46632e90612641908390613e43565b60405180910390a150565b600033612658816123da565b6126935760405162461bcd60e51b815260040180806020018281038252602381526020018061465a6023913960400191505060405180910390fd5b33600090815260096020526040812060028101546007805492939290919081106126b957fe5b9060005260206000200160006101000a8154816001600160a01b0302191690836001600160a01b0316021790555061270161095e8260010154426129a790919063ffffffff16565b600382015560006001820181905560028201546040516000805160206146da83398151915290612732903390613ca7565b60405180910390a360006002909101555090565b6000818152600c60205260408120610afd90612fad565b6000546001600160a01b031681565b6004546001600160a01b031681565b6001600160a01b038082166000908152600960205260408120805491929091166127a95760009150506109a7565b80546000906127c8906001600160a01b0316631dffc87160e21b612f17565b9050806127da576000925050506109a7565b815460408051631dffc87160e21b815290516001600160a01b03909216916377ff21c491600480820192602092909190829003018186803b15801561281e57600080fd5b505afa158015612832573d6000803e3d6000fd5b505050506040513d601f19601f820116820180604052508101906121fe9190613aab565b60008061286284611b36565b9050610af981846109ac565b6000828152600c602052604090206002015461288c90610648612a43565b61146f5760405162461bcd60e51b81526004018080602001828103825260308152602001806146aa6030913960400191505060405180910390fd5b6005546001600160a01b031661290e5760405162461bcd60e51b815260040180806020018281038252602b815260200180614778602b913960400191505060405180910390fd5b6004546001600160a01b03166129555760405162461bcd60e51b815260040180806020018281038252602d81526020018061467d602d913960400191505060405180910390fd5b6003546001600160a01b031661299c5760405162461bcd60e51b81526004018080602001828103825260318152602001806147476031913960400191505060405180910390fd5b6113ea338383612b19565b6000611da783836040518060400160405280601e81526020017f536166654d6174683a207375627472616374696f6e206f766572666c6f770000815250612fb8565b600082820183811015611da7576040805162461bcd60e51b815260206004820152601b60248201527f536166654d6174683a206164646974696f6e206f766572666c6f770000000000604482015290519081900360640190fd5b3390565b6000828152600c60205260409020612a5f908261304f565b156113ea57612a6c612a43565b6001600160a01b0316816001600160a01b0316837f2f8788117e7eff1d82e926ec794901d17c78024a50270940304540a733656f0d60405160405180910390a45050565b6000828152600c60205260409020612ac89082613064565b156113ea57612ad5612a43565b6001600160a01b0316816001600160a01b0316837ff6391f5c32d9c69d2a47ea670b442974b53935d1edc7fd64eb21e047a839171b60405160405180910390a45050565b6005546001600160a01b0316612b605760405162461bcd60e51b815260040180806020018281038252602b815260200180614778602b913960400191505060405180910390fd5b6004546001600160a01b0316612ba75760405162461bcd60e51b815260040180806020018281038252602d81526020018061467d602d913960400191505060405180910390fd5b6003546001600160a01b0316612bee5760405162461bcd60e51b81526004018080602001828103825260318152602001806147476031913960400191505060405180910390fd5b612bf78361170c565b15612c145760405162461bcd60e51b81526004016107869061433e565b6001600160a01b038216612c3a5760405162461bcd60e51b815260040161078690614140565b6001600160a01b038381166000908152600960205260409020541615612c725760405162461bcd60e51b81526004016107869061403c565b6040805160a0810182526001600160a01b038085168083526000602080850182815285870183815260608701848152608088018581528c881680875260099095528986209851895498166001600160a01b031998891617895592516001808a01919091559151600289015551600388015590516004909601959095556006805495860181559091527ff652222313e28459528d920b65115c16c04f3efc82aaedc97be59f3f377c0d3f9093018054909216831790915591517f574651c4b47831128b9ed5b0c878675fc9c8e14d7119b755a31c7fef6065e97090612d57908590613e4c565b60405180910390a3505050565b612d6c613556565b612d78828401846139d8565b606085015260408401526020830152815292915050565b6002546000906001600160a01b0316612dd95760405162461bcd60e51b815260040180806020018281038252602c81526020018061471b602c913960400191505060405180910390fd5b612de286613079565b60025460405163490e9c1d60e11b81526000916001600160a01b03169063921d383a90612e1b9089908990899087908a90600401613db3565b602060405180830381600087803b158015612e3557600080fd5b505af1158015612e49573d6000803e3d6000fd5b505050506040513d601f19601f82011682018060405250810190612e6d9190613b5b565b905080876001600160a01b03167fb0c20bab69de391cff8f119cf876e708b1b41868e0fd397cbcd2b4d3c623b5b8888888604051612ead93929190613d8e565b60405180910390a39695505050505050565b6007545b600854811015612f145760078054600181810183556000929092527fa66cc928b5edb82af9bd49922954155ab7b0942694bea4ce44661d9a8736c6880180546001600160a01b031916905501612ec3565b50565b6000612f228361323a565b8015611da75750611da7838361326d565b6000611da78383613293565b6000611da7836001600160a01b0384166132f7565b600082612f6357506000610afd565b82820282848281612f7057fe5b0414611da75760405162461bcd60e51b81526004018080602001828103825260218152602001806146fa6021913960400191505060405180910390fd5b6000610afd8261330f565b600081848411156130475760405162461bcd60e51b81526004018080602001828103825283818151815260200191508051906020019080838360005b8381101561300c578181015183820152602001612ff4565b50505050905090810190601f1680156130395780820380516001836020036101000a031916815260200191505b509250505060405180910390fd5b505050900390565b6000611da7836001600160a01b038416613313565b6000611da7836001600160a01b03841661335d565b60025460408051632522a32f60e01b815290516000926001600160a01b031691632522a32f916004808301926020929190829003018186803b1580156130be57600080fd5b505afa1580156130d2573d6000803e3d6000fd5b505050506040513d601f19601f820116820180604052508101906130f69190613b5b565b6000546040516323b872dd60e01b81529192506001600160a01b0316906323b872dd9061312b90859030908690600401613d29565b602060405180830381600087803b15801561314557600080fd5b505af1158015613159573d6000803e3d6000fd5b505050506040513d601f19601f8201168201806040525081019061317d9190613aab565b6131995760405162461bcd60e51b815260040161078690613f07565b60005460405163a9059cbb60e01b81526001600160a01b039091169063a9059cbb906131cc906001908590600401613cf6565b602060405180830381600087803b1580156131e657600080fd5b505af11580156131fa573d6000803e3d6000fd5b505050506040513d601f19601f8201168201806040525081019061321e9190613aab565b6113ea5760405162461bcd60e51b8152600401610786906140c8565b600061324d826301ffc9a760e01b61326d565b8015610afd5750613266826001600160e01b031961326d565b1592915050565b600080600061327c8585613423565b9150915081801561328a5750805b95945050505050565b815460009082106132d55760405162461bcd60e51b81526004018080602001828103825260228152602001806146096022913960400191505060405180910390fd5b8260000182815481106132e457fe5b9060005260206000200154905092915050565b60009081526001919091016020526040902054151590565b5490565b600061331f83836132f7565b61335557508154600181810184556000848152602080822090930184905584548482528286019093526040902091909155610afd565b506000610afd565b60008181526001830160205260408120548015613419578354600019808301919081019060009087908390811061339057fe5b90600052602060002001549050808760000184815481106133ad57fe5b6000918252602080832090910192909255828152600189810190925260409020908401905586548790806133dd57fe5b60019003818190600052602060002001600090559055866001016000878152602001908152602001600020600090556001945050505050610afd565b6000915050610afd565b604080516001600160e01b0319831660248083019190915282518083039091018152604490910182526020810180516001600160e01b03166301ffc9a760e01b17815291518151600093849392849283926001600160a01b038a169261753092879282918083835b602083106134aa5780518252601f19909201916020918201910161348b565b6001836020036101000a0380198251168184511680821785525050505050509050019150506000604051808303818686fa925050503d806000811461350b576040519150601f19603f3d011682016040523d82523d6000602084013e613510565b606091505b509150915060208151101561352e576000809450945050505061354f565b8181806020019051602081101561354457600080fd5b505190955093505050505b9250929050565b6040518060800160405280606081526020016000815260200160008152602001606081525090565b600061359161358c846145a1565b61455f565b90508281528383830111156135a557600080fd5b828260208301376000602084830101529392505050565b600082601f8301126135cc578081fd5b813560206135dc61358c83614583565b82815281810190858301855b85811015613626578135880189603f820112613602578788fd5b6136138a878301356040840161357e565b85525092840192908401906001016135e8565b5090979650505050505050565b600082601f830112613643578081fd5b8151602061365361358c83614583565b82815281810190858301855b85811015613626578151880189603f820112613679578788fd5b85810151604061368b61358c836145a1565b8281528c8284860101111561369e578a8bfd5b6136ad838a83018487016145c3565b8752505050928401929084019060010161365f565b60008083601f8401126136d3578182fd5b50813567ffffffffffffffff8111156136ea578182fd5b60208301915083602082850101111561354f57600080fd5b600082601f830112613712578081fd5b611da78383356020850161357e565b600060208284031215613732578081fd5b8135611da7816145f3565b60006020828403121561374e578081fd5b8151611da7816145f3565b6000806040838503121561376b578081fd5b8235613776816145f3565b91506020830135613786816145f3565b809150509250929050565b6000806000606084860312156137a5578081fd5b83356137b0816145f3565b925060208401356137c0816145f3565b9150604084013567ffffffffffffffff8111156137db578182fd5b6137e786828701613702565b9150509250925092565b600080600080600060808688031215613808578283fd5b8535613813816145f3565b94506020860135613823816145f3565b935060408601359250606086013567ffffffffffffffff811115613845578182fd5b613851888289016136c2565b969995985093965092949392505050565b60008060408385031215613874578182fd5b823561387f816145f3565b9150602083013567ffffffffffffffff81111561389a578182fd5b6138a685828601613702565b9150509250929050565b600080602083850312156138c2578182fd5b823567ffffffffffffffff808211156138d9578384fd5b818501915085601f8301126138ec578384fd5b8135818111156138fa578485fd5b866020808302850101111561390d578485fd5b60209290920196919550909350505050565b60008060408385031215613931578182fd5b825167ffffffffffffffff80821115613948578384fd5b818501915085601f83011261395b578384fd5b8151602061396b61358c83614583565b82815281810190858301838502870184018b1015613987578889fd5b8896505b848710156139b257805161399e816145f3565b83526001969096019591830191830161398b565b50918801519196509093505050808211156139cb578283fd5b506138a685828601613633565b600080600080608085870312156139ed578182fd5b843567ffffffffffffffff80821115613a04578384fd5b818701915087601f830112613a17578384fd5b81356020613a2761358c83614583565b82815281810190858301838502870184018d1015613a43578889fd5b8896505b84871015613a6e578035613a5a816145f3565b835260019690960195918301918301613a47565b50985050880135955050604087013593506060870135915080821115613a92578283fd5b50613a9f878288016135bc565b91505092959194509250565b600060208284031215613abc578081fd5b81518015158114611da7578182fd5b600060208284031215613adc578081fd5b5035919050565b60008060408385031215613af5578182fd5b823591506020830135613786816145f3565b60008060408385031215613b19578182fd5b50508035926020909101359150565b600060208284031215613b39578081fd5b813567ffffffffffffffff811115613b4f578182fd5b610af984828501613702565b600060208284031215613b6c578081fd5b5051919050565b60008060008060608587031215613b88578182fd5b8435935060208501359250604085013567ffffffffffffffff811115613bac578283fd5b613bb8878288016136c2565b95989497509550505050565b600080600060608486031215613bd8578081fd5b505081359360208301359350604090920135919050565b600080600060608486031215613c03578081fd5b8351925060208401519150604084015190509250925092565b6000815180845260208085019450808401835b83811015613c545781516001600160a01b031687529582019590820190600101613c2f565b509495945050505050565b60008151808452613c778160208601602086016145c3565b601f01601f19169290920160200192915050565b60008251613c9d8184602087016145c3565b9190910192915050565b6001600160a01b0391909116815260200190565b600060018060a01b03808716835260806020840152613cdd6080840187613c5f565b9481166040840152929092166060909101525092915050565b6001600160a01b03929092168252602082015260400190565b6001600160a01b0392831681529116602082015260400190565b6001600160a01b039384168152919092166020820152604081019190915260600190565b6001600160a01b03959095168552602085019390935260408401919091526060830152608082015260a00190565b600060208252611da76020830184613c1c565b600060608252613da16060830186613c1c565b60208301949094525060400152919050565b600060a08252613dc660a0830188613c1c565b602087818501528660408501528560608501528382036080850152818551808452828401915082838202850101838801865b83811015613e2657601f19878403018552613e14838351613c5f565b94860194925090850190600101613df8565b50909c9b505050505050505050505050565b901515815260200190565b90815260200190565b600060208252611da76020830184613c5f565b6020808252601c908201527f44414f436f6d6d69747465653a20696e76616c69642071756f72756d00000000604082015260600190565b6020808252601190820152701b9bdd08195b9bdd59da08185b5bdd5b9d607a1b604082015260600190565b60208082526026908201527f44414f436f6d6d69747465653a2071756f72756d20657863656564206d61782060408201526536b2b6b132b960d11b606082015260800190565b60208082526036908201527f44414f436f6d6d697474656553746f72653a206661696c656420746f207472616040820152753739b332b9103a37b710333937b69031b932b0ba37b960511b606082015260800190565b6020808252601f908201527f54686973206163636f756e74206973206e6f7420612063616e64696461746500604082015260600190565b602080825260409082018190527f44414f436f6d6d697474656553746f72653a20596f75206861766520746f2063908201527f616c6c207265647563654d656d626572536c6f7420746f206465637265617365606082015260800190565b6020808252602a908201527f44414f436f6d6d69747465653a20796f7520646f6e2774206861766520636c6160408201526934b6b0b13632903a37b760b11b606082015260800190565b60208082526035908201527f44414f436f6d6d697474656553746f72653a205468652063616e64696461746560408201527408185b1c9958591e481a185cc818dbdb9d1c9858dd605a1b606082015260800190565b6020808252601d908201527f44414f436f6d6d69747465653a206e6f7420612063616e646964617465000000604082015260600190565b60208082526021908201527f44414f436f6d6d697474656553746f72653a206661696c656420746f206275726040820152603760f91b606082015260800190565b6020808252601c908201527f44414f436f6d6d69747465653a20616c7265616479206d656d62657200000000604082015260600190565b60208082526030908201527f44414f436f6d6d69747465653a206465706c6f7965642063616e64696461746560408201526f436f6e7472616374206973207a65726f60801b606082015260800190565b6020808252603c908201527f44414f436f6d6d69747465653a2074686520636f6e747261637420646f65736e60408201527f277420737570706f727420757064617465536569676e696f7261676500000000606082015260800190565b60208082526028908201527f44414f436f6d6d69747465653a2063616e206e6f74206578656375746520746860408201526765206167656e646160c01b606082015260800190565b60208082526030908201527f44414f436f6d6d69747465653a206661696c656420746f20726567697374657260408201526f416e644465706c6f79436f696e61676560801b606082015260800190565b6020808252600c908201526b7a65726f206164647265737360a01b604082015260600190565b6020808252602d908201527f44414f436f6d6d697474656550726f78793a206d73672e73656e64657220697360408201526c103737ba1030b71030b236b4b760991b606082015260800190565b60208082526026908201527f44414f436f6d6d69747465653a206e6f7420612063616e64696461746520636f6040820152651b9d1c9858dd60d21b606082015260800190565b60208082526029908201527f44414f436f6d6d69747465653a2063616e64696461746520616c7265616479206040820152681c9959da5cdd195c9960ba1b606082015260800190565b6020808252602c908201527f44414f436f6d6d69747465653a205468652061646472657373206973206e6f7460408201526b20612063616e64696461746560a01b606082015260800190565b60208082526024908201527f44414f436f6d6d69747465653a20696e646578206973206e6f7420617661696c60408201526361626c6560e01b606082015260800190565b6020808252601d908201527f44414f436f6d6d69747465653a20636f696e616765206973207a65726f000000604082015260600190565b6020808252602a908201527f44414f436f6d6d69747465653a204661696c656420746f206578656375746520604082015269746865206167656e646160b01b606082015260800190565b60208082526023908201527f44414f436f6d6d69747465653a207265717569726564566f746573206973207a60408201526265726f60e81b606082015260800190565b9283526001600160a01b03919091166020830152604082015260600190565b828152604081016004831061450b57fe5b8260208301529392505050565b828152604081016006831061450b57fe5b60008482526040602083015282604083015282846060840137818301606090810191909152601f909201601f1916010192915050565b60405181810167ffffffffffffffff8111828210171561457b57fe5b604052919050565b600067ffffffffffffffff82111561459757fe5b5060209081020190565b600067ffffffffffffffff8211156145b557fe5b50601f01601f191660200190565b60005b838110156145de5781810151838201526020016145c6565b838111156145ed576000848401525b50505050565b6001600160a01b0381168114612f1457600080fdfe456e756d657261626c655365743a20696e646578206f7574206f6620626f756e6473416363657373436f6e74726f6c3a2073656e646572206d75737420626520616e2061646d696e20746f206772616e7453746f726167655374617465436f6d6d69747465653a206e6f742061206d656d62657253746f726167655374617465436f6d6d69747465653a20756e76616c6964204c61796572325265676973747279416363657373436f6e74726f6c3a2073656e646572206d75737420626520616e2061646d696e20746f207265766f6b65663b98adf1afa777e36528b3293a057803f87ed00d2d2518dccfe5d7a6e99ccf536166654d6174683a206d756c7469706c69636174696f6e206f766572666c6f7753746f726167655374617465436f6d6d69747465653a204167656e64614d616e61676572206973207a65726f53746f726167655374617465436f6d6d69747465653a20756e76616c696420436f6d6d69747465654c32466163746f727953746f726167655374617465436f6d6d69747465653a20756e76616c696420536569674d616e6167657265416363657373436f6e74726f6c3a2063616e206f6e6c792072656e6f756e636520726f6c657320666f722073656c66a26469706673582212202a608838d80fb6b60516699247392ce9f482c2d8b7b8239c644c58ce2404357864736f6c63430007060033",
  "immutableReferences": {},
  "source": "// SPDX-License-Identifier: MIT\npragma solidity ^0.7.6;\npragma abicoder v2;\n\n//import \"../../node_modules/@openzeppelin/contracts/access/Ownable.sol\";\nimport \"../../node_modules/@openzeppelin/contracts/access/AccessControl.sol\";\nimport \"./StorageStateCommittee.sol\";\n\nimport { SafeMath } from \"../../node_modules/@openzeppelin/contracts/math/SafeMath.sol\";\nimport { IERC20 } from  \"../../node_modules/@openzeppelin/contracts/token/ERC20/IERC20.sol\";\nimport { ICandidate } from \"../interfaces/ICandidate.sol\";\nimport { IDAOAgendaManager } from \"../interfaces/IDAOAgendaManager.sol\";\nimport { LibAgenda } from \"../lib/Agenda.sol\";\nimport { ERC165Checker } from \"../../node_modules/@openzeppelin/contracts/introspection/ERC165Checker.sol\";\n\ncontract DAOCommittee is StorageStateCommittee, AccessControl {\n    using SafeMath for uint256;\n    using LibAgenda for *;\n     \n    enum ApplyResult { NONE, SUCCESS, NOT_ELECTION, ALREADY_COMMITTEE, SLOT_INVALID, ADDMEMBER_FAIL, LOW_BALANCE }\n\n    struct AgendaCreatingData {\n        address[] target;\n        uint256 noticePeriodSeconds;\n        uint256 votingPeriodSeconds;\n        bytes[] functionBytecode;\n    }\n\n    //////////////////////////////\n    // Events\n    //////////////////////////////\n\n    event QuorumChanged(\n        uint256 newQuorum\n    );\n\n    event AgendaCreated(\n        address indexed from,\n        uint256 indexed id,\n        address[] targets,\n        uint256 noticePeriodSeconds,\n        uint256 votingPeriodSeconds\n    );\n\n    event AgendaVoteCasted(\n        address indexed from,\n        uint256 indexed id,\n        uint voting,\n        string comment\n    );\n\n    event AgendaExecuted(\n        uint256 indexed id,\n        address[] target\n    );\n\n    event CandidateContractCreated(\n        address indexed candidate,\n        address indexed candidateContract,\n        string memo\n    );\n\n    event OperatorRegistered(\n        address indexed candidate,\n        address indexed candidateContract,\n        string memo\n    );\n\n    event ChangedMember(\n        uint256 indexed slotIndex,\n        address prevMember,\n        address indexed newMember\n    );\n\n    event ChangedSlotMaximum(\n        uint256 indexed prevSlotMax,\n        uint256 indexed slotMax\n    );\n\n    event ClaimedActivityReward(\n        address indexed candidate,\n        uint256 amount\n    );\n\n    modifier onlyOwner() {\n        require(hasRole(DEFAULT_ADMIN_ROLE, msg.sender), \"DAOCommitteeProxy: msg.sender is not an admin\");\n        _;\n    }\n\n    //////////////////////////////////////////////////////////////////////\n    // setters\n\n    function setSeigManager(address _agendaManager) public onlyOwner {\n        require(_agendaManager != address(0), \"zero address\");\n        seigManager = ISeigManager(_agendaManager);\n    }\n     \n    function setDaoVault(address _daoVault) public onlyOwner {\n        require(_daoVault != address(0), \"zero address\");\n        daoVault = IDAOVault2(_daoVault);\n    }\n\n    function setLayer2Registry(address _layer2Registry) public onlyOwner {\n        require(_layer2Registry != address(0), \"zero address\");\n        layer2Registry = ILayer2Registry(_layer2Registry);\n    }\n\n    function setAgendaManager(address _agendaManager) public onlyOwner {\n        require(_agendaManager != address(0), \"zero address\");\n        agendaManager = IDAOAgendaManager(_agendaManager);\n    }\n\n    function setCandidateFactory(address _candidateFactory) public onlyOwner {\n        require(_candidateFactory != address(0), \"zero address\");\n        candidateFactory = ICandidateFactory(_candidateFactory);\n    }\n\n    function setTon(address _ton) public onlyOwner {\n        require(_ton != address(0), \"zero address\");\n        ton = _ton;\n    }\n\n    function setActivityRewardPerSecond(uint256 _value) public onlyOwner {\n        activityRewardPerSecond = _value;\n    }\n\n    function increaseMaxMember(\n        uint256 _newMaxMember,\n        uint256 _quorum\n    )\n        public\n        onlyOwner\n    {\n        require(maxMember < _newMaxMember, \"DAOCommitteeStore: You have to call reduceMemberSlot to decrease\");\n        emit ChangedSlotMaximum(maxMember, _newMaxMember);\n        maxMember = _newMaxMember;\n        fillMemberSlot();\n        setQuorum(_quorum);\n    }\n\n    //////////////////////////////////////////////////////////////////////\n    // Managing members\n\n    function createCandidate(string memory _memo)\n        public\n        validSeigManager\n        validLayer2Registry\n        validCommitteeL2Factory\n    {\n        require(!isExistCandidate(msg.sender), \"DAOCommittee: candidate already registerd\");\n\n        //uint256 minimumAmount = seigManager.minimumAmount();\n        //require(minimumAmount <= tonAmount, \"DAOCommittee: not enough ton\");\n          \n        // Candidate\n        address candidateContract = candidateFactory.deploy(msg.sender, _memo, address(seigManager), address(layer2Registry));\n        require(\n            candidateContract != address(0),\n            \"DAOCommittee: deployed candidateContract is zero\"\n        );\n        require(\n            layer2Registry.registerAndDeployCoinage(candidateContract, address(seigManager)),\n            \"DAOCommittee: failed to registerAndDeployCoinage\"\n        );\n        require(\n            candidateInfos[msg.sender].candidateContract == address(0),\n            \"DAOCommitteeStore: The candidate already has contract\"\n        );\n\n        candidateInfos[msg.sender] = CandidateInfo({\n            candidateContract: candidateContract,\n            memberJoinedTime: 0,\n            indexMembers: 0,\n            rewardPeriod: 0,\n            claimedTimestamp: 0\n        });\n\n        candidates.push(msg.sender);\n       \n        emit CandidateContractCreated(msg.sender, candidateContract, _memo);\n    }\n\n    function registerOperator(address _contractAddress, string memory _memo)\n        public\n        validSeigManager\n        validLayer2Registry\n        validCommitteeL2Factory\n    {\n        _registerOperator(msg.sender, _contractAddress, _memo);\n    }\n\n    function registerOperatorByOwner(address _operator, address _contractAddress, string memory _memo)\n        public\n        onlyOwner\n        validSeigManager\n        validLayer2Registry\n        validCommitteeL2Factory\n    {\n        _registerOperator(_operator, _contractAddress, _memo);\n    }\n\n    function changeMember(uint256 _memberIndex)\n        public\n        returns (bool)\n    {\n        CandidateInfo storage candidateInfo = candidateInfos[msg.sender];\n        require(\n            _memberIndex < maxMember,\n            \"DAOCommittee: index is not available\"\n        );\n        require(\n            candidateInfo.candidateContract != address(0),\n            \"DAOCommittee: The address is not a candidate\"\n        );\n        require(\n            candidateInfo.memberJoinedTime == 0,\n            \"DAOCommittee: already member\"\n        );\n        \n        address prevMember = members[_memberIndex];\n\n        candidateInfo.memberJoinedTime = block.timestamp;\n        candidateInfo.indexMembers = _memberIndex;\n\n        members[_memberIndex] = msg.sender;\n\n        if (prevMember == address(0)) {\n            emit ChangedMember(_memberIndex, prevMember, msg.sender);\n            return true;\n        }\n\n        require(\n            totalSupplyOnCandidate(msg.sender) > totalSupplyOnCandidate(prevMember),\n            \"not enough amount\"\n        );\n\n        CandidateInfo storage prevCandidate = candidateInfos[prevMember];\n        prevCandidate.indexMembers = 0;\n        prevCandidate.rewardPeriod = prevCandidate.rewardPeriod.add(block.timestamp.sub(prevCandidate.memberJoinedTime));\n        prevCandidate.memberJoinedTime = 0;\n\n        emit ChangedMember(_memberIndex, prevMember, msg.sender);\n\n        return true;\n    }\n    \n    function retireMember() onlyMember(msg.sender) public returns (bool) {\n        CandidateInfo storage candidateInfo = candidateInfos[msg.sender];\n        members[candidateInfo.indexMembers] = address(0);\n        candidateInfo.rewardPeriod = candidateInfo.rewardPeriod.add(block.timestamp.sub(candidateInfo.memberJoinedTime));\n        candidateInfo.memberJoinedTime = 0;\n\n        emit ChangedMember(candidateInfo.indexMembers, msg.sender, address(0));\n\n        candidateInfo.indexMembers = 0;\n    }\n\n    function reduceMemberSlot(\n        uint256 _reducingMemberIndex,\n        uint256 _quorum\n    )\n        public\n        onlyOwner\n    {\n        address reducingMember = members[_reducingMemberIndex];\n        CandidateInfo storage reducingCandidate = candidateInfos[reducingMember];\n\n        if (_reducingMemberIndex != members.length - 1) {\n            address tailmember = members[members.length - 1];\n            CandidateInfo storage tailCandidate = candidateInfos[tailmember];\n\n            tailCandidate.indexMembers = _reducingMemberIndex;\n            members[_reducingMemberIndex] = tailmember;\n        }\n        reducingCandidate.indexMembers = 0;\n        reducingCandidate.rewardPeriod = reducingCandidate.rewardPeriod.add(block.timestamp.sub(reducingCandidate.memberJoinedTime));\n        reducingCandidate.memberJoinedTime = 0;\n\n        members.pop();\n        maxMember = maxMember.sub(1);\n        setQuorum(_quorum);\n\n        emit ChangedMember(_reducingMemberIndex, reducingMember, address(0));\n        emit ChangedSlotMaximum(maxMember.add(1), maxMember);\n    }\n\n    //////////////////////////////////////////////////////////////////////\n    // Managing agenda\n\n    function onApprove(\n        address owner,\n        address spender,\n        uint256 tonAmount,\n        bytes calldata data\n    ) external returns (bool) {\n        AgendaCreatingData memory agendaData = _decodeAgendaData(data);\n\n        _createAgenda(\n            owner,\n            agendaData.target,\n            agendaData.noticePeriodSeconds,\n            agendaData.votingPeriodSeconds,\n            agendaData.functionBytecode\n        );\n\n        return true;\n    }\n\n    function setQuorum(\n        uint256 _quorum\n    )\n        public\n        onlyOwner\n        validAgendaManager\n    {\n        require(_quorum > 0, \"DAOCommittee: invalid quorum\");\n        require(_quorum <= maxMember, \"DAOCommittee: quorum exceed max member\");\n        quorum = _quorum;\n        emit QuorumChanged(quorum);\n    }\n\n    function setCreateAgendaFees(\n        uint256 _fees\n    )\n        public\n        onlyOwner\n        validAgendaManager\n    {\n        agendaManager.setCreateAgendaFees(_fees);\n    }\n\n    function setMinimumNoticePeriodSeconds(\n        uint256 _minimumNoticePeriod\n    )\n        public\n        onlyOwner\n        validAgendaManager\n    {\n        agendaManager.setMinimumNoticePeriodSeconds(_minimumNoticePeriod);\n    }\n\n    function setMinimumVotingPeriodSeconds(\n        uint256 _minimumVotingPeriod\n    )\n        public\n        onlyOwner\n        validAgendaManager\n    {\n        agendaManager.setMinimumVotingPeriodSeconds(_minimumVotingPeriod);\n    }\n\n    function castVote(\n        uint256 _agendaID,\n        uint _vote,\n        string calldata _comment\n    )\n        public \n        validAgendaManager\n    {\n        uint256 requiredVotes = quorum;\n        require(requiredVotes > 0, \"DAOCommittee: requiredVotes is zero\");\n        \n        agendaManager.castVote(\n            _agendaID,\n            msg.sender,\n            _vote\n        );\n\n        (uint256 yes, uint256 no, uint256 abstain) = agendaManager.getVotingCount(_agendaID);\n\n        if (requiredVotes <= yes) {\n            // yes\n            agendaManager.setResult(_agendaID, LibAgenda.AgendaResult.ACCEPT);\n            agendaManager.setStatus(_agendaID, LibAgenda.AgendaStatus.WAITING_EXEC);\n        } else if (requiredVotes <= no) {\n            // no\n            agendaManager.setResult(_agendaID, LibAgenda.AgendaResult.REJECT);\n            agendaManager.setStatus(_agendaID, LibAgenda.AgendaStatus.ENDED);\n        } else if (requiredVotes <= abstain.add(no) ) {\n            // dismiss\n            agendaManager.setResult(_agendaID, LibAgenda.AgendaResult.DISMISS);\n            agendaManager.setStatus(_agendaID, LibAgenda.AgendaStatus.ENDED);\n        }\n        \n        emit AgendaVoteCasted(msg.sender, _agendaID, _vote, _comment);\n    }\n\n    function endAgendaVoting(uint256 _agendaID) public {\n        agendaManager.endAgendaVoting(_agendaID);\n    }\n\n    function executeAgenda(uint256 _agendaID) public validAgendaManager {\n        require(\n            agendaManager.canExecuteAgenda(_agendaID),\n            \"DAOCommittee: can not execute the agenda\"\n        );\n        \n        (address[] memory target, bytes[] memory functionBytecode) = agendaManager.getExecutionInfo(_agendaID);\n       \n        for (uint256 i = 0; i < target.length; i++) {\n            (bool success, ) = address(target[i]).call(functionBytecode[i]);\n            require(success, \"DAOCommittee: Failed to execute the agenda\");\n        }\n\n        agendaManager.setExecutedAgenda(_agendaID);\n\n        emit AgendaExecuted(_agendaID, target);\n    }\n\n    function setAgendaStatus(uint256 _agendaID, uint256 _status, uint256 _result) public onlyOwner {\n        agendaManager.setResult(_agendaID, LibAgenda.AgendaResult(_result));\n        agendaManager.setStatus(_agendaID, LibAgenda.AgendaStatus(_status));\n    }\n     \n    function updateSeigniorage(address _candidate) public returns (bool) {\n        address candidateContract = candidateInfos[_candidate].candidateContract;\n        require(candidateContract != address(0), \"DAOCommittee: not a candidate\");\n        require(\n            ERC165Checker.supportsInterface(\n                candidateContract,\n                ICandidate(candidateContract).isCandidateContract.selector\n            ),\n            \"DAOCommittee: the contract doesn't support updateSeigniorage\"\n        );\n        require(\n            ICandidate(candidateContract).isCandidateContract(),\n            \"DAOCommittee: not a candidate contract\"\n        );\n\n        ICandidate(candidateContract).updateSeigniorage();\n    }\n\n    function updateSeigniorages(address[] calldata _candidates) public returns (bool) {\n        for (uint256 i = 0; i < _candidates.length; i++) {\n            updateSeigniorage(_candidates[i]);\n        }\n    }\n\n    function claimActivityReward() public {\n        CandidateInfo storage info = candidateInfos[msg.sender];\n        uint256 amount = getClaimableActivityReward(msg.sender);\n\n        require(amount > 0, \"DAOCommittee: you don't have claimable ton\");\n\n        daoVault.claimTON(msg.sender, amount);\n        info.claimedTimestamp = block.timestamp;\n        info.rewardPeriod = 0;\n\n        emit ClaimedActivityReward(msg.sender, amount);\n    }\n\n    function _registerOperator(address _operator, address _contractAddress, string memory _memo)\n        internal\n        validSeigManager\n        validLayer2Registry\n        validCommitteeL2Factory\n    {\n        require(!isExistCandidate(_operator), \"DAOCommittee: candidate already registerd\");\n\n        require(\n            _contractAddress != address(0),\n            \"DAOCommittee: deployed candidateContract is zero\"\n        );\n        require(\n            candidateInfos[_operator].candidateContract == address(0),\n            \"DAOCommitteeStore: The candidate already has contract\"\n        );\n\n        candidateInfos[_operator] = CandidateInfo({\n            candidateContract: _contractAddress,\n            memberJoinedTime: 0,\n            indexMembers: 0,\n            rewardPeriod: 0,\n            claimedTimestamp: 0\n        });\n\n        candidates.push(_operator);\n       \n        emit OperatorRegistered(_operator, _contractAddress, _memo);\n    }\n\n    function fillMemberSlot() internal {\n        for (uint256 i = members.length; i < maxMember; i++) {\n            members.push(address(0));\n        }\n    }\n\n    function _decodeAgendaData(bytes calldata input)\n        internal\n        view\n        returns (AgendaCreatingData memory data)\n    {\n        (data.target, data.noticePeriodSeconds, data.votingPeriodSeconds, data.functionBytecode) = \n            abi.decode(input, (address[], uint256, uint256, bytes[]));\n    }\n\n    function payCreatingAgendaFee(address _creator) internal {\n        uint256 fee = agendaManager.createAgendaFees();\n\n        require(IERC20(ton).transferFrom(_creator, address(this), fee), \"DAOCommitteeStore: failed to transfer ton from creator\");\n        require(IERC20(ton).transfer(address(1), fee), \"DAOCommitteeStore: failed to burn\");\n    }\n   \n    function _createAgenda(\n        address _creator,\n        address[] memory _targets,\n        uint256 _noticePeriodSeconds,\n        uint256 _votingPeriodSeconds,\n        bytes[] memory _functionBytecodes\n    )\n        internal\n        validAgendaManager\n        returns (uint256)\n    {\n        // pay to create agenda, burn ton.\n        payCreatingAgendaFee(_creator);\n\n        uint256 agendaID = agendaManager.newAgenda(\n            _targets,\n            _noticePeriodSeconds,\n            _votingPeriodSeconds,\n            0,\n            _functionBytecodes\n        );\n          \n        emit AgendaCreated(\n            _creator,\n            agendaID,\n            _targets,\n            _noticePeriodSeconds,\n            _votingPeriodSeconds\n        );\n\n        return agendaID;\n    }\n\n    function isCandidate(address _candidate) public view returns (bool) {\n        CandidateInfo storage info = candidateInfos[_candidate];\n\n        if (info.candidateContract == address(0)) {\n            return false;\n        }\n\n        bool supportIsCandidateContract = ERC165Checker.supportsInterface(\n            info.candidateContract,\n            ICandidate(info.candidateContract).isCandidateContract.selector\n        );\n\n        if (supportIsCandidateContract == false) {\n            return false;\n        }\n\n        return ICandidate(info.candidateContract).isCandidateContract();\n    }\n    \n    function totalSupplyOnCandidate(\n        address _candidate\n    )\n        public\n        view\n        returns (uint256 totalsupply)\n    {\n        address candidateContract = candidateContract(_candidate);\n        return totalSupplyOnCandidateContract(candidateContract);\n    }\n\n    function balanceOfOnCandidate(\n        address _candidate,\n        address _account\n    )\n        public\n        view\n        returns (uint256 amount)\n    {\n        address candidateContract = candidateContract(_candidate);\n        return balanceOfOnCandidateContract(candidateContract, _account);\n    }\n    \n    function totalSupplyOnCandidateContract(\n        address _candidateContract\n    )\n        public\n        view\n        returns (uint256 totalsupply)\n    {\n        require(_candidateContract != address(0), \"This account is not a candidate\");\n\n        address coinage = seigManager.coinages(_candidateContract);\n        require(coinage != address(0), \"DAOCommittee: coinage is zero\");\n        return IERC20(coinage).totalSupply();\n    }\n\n    function balanceOfOnCandidateContract(\n        address _candidateContract,\n        address _account\n    )\n        public\n        view\n        returns (uint256 amount)\n    {\n        require(_candidateContract != address(0), \"This account is not a candidate\");\n\n        address coinage = seigManager.coinages(_candidateContract);\n        require(coinage != address(0), \"DAOCommittee: coinage is zero\");\n        return IERC20(coinage).balanceOf(_account);\n    }\n\n    function candidatesLength() public view returns (uint256) {\n        return candidates.length;\n    }\n\n    function isExistCandidate(address _candidate) public view returns (bool isExist) {\n        return candidateInfos[_candidate].candidateContract != address(0);\n    }\n\n    function getClaimableActivityReward(address _candidate) public view returns (uint256) {\n        CandidateInfo storage info = candidateInfos[_candidate];\n        uint256 period = info.rewardPeriod;\n\n        if (info.memberJoinedTime > 0) {\n            if (info.memberJoinedTime > info.claimedTimestamp) {\n                period = period.add(block.timestamp.sub(info.memberJoinedTime));\n            } else {\n                period = period.add(block.timestamp.sub(info.claimedTimestamp));\n            }\n        }\n\n        return period.mul(activityRewardPerSecond);\n    }\n}\n",
  "sourcePath": "/data/github/onther/tokamak-dao-contracts3/contracts/dao/DAOCommittee.sol",
  "compiler": {
    "name": "solc",
    "version": "0.7.6+commit.7338295f.Emscripten.clang"
  },
  "schemaVersion": "3.3.2",
  "updatedAt": "2021-01-20T00:57:29.480Z",
  "networkType": "ethereum",
  "devdoc": {
    "kind": "dev",
    "methods": {
      "getRoleAdmin(bytes32)": {
        "details": "Returns the admin role that controls `role`. See {grantRole} and {revokeRole}. To change a role's admin, use {_setRoleAdmin}."
      },
      "getRoleMember(bytes32,uint256)": {
        "details": "Returns one of the accounts that have `role`. `index` must be a value between 0 and {getRoleMemberCount}, non-inclusive. Role bearers are not sorted in any particular way, and their ordering may change at any point. WARNING: When using {getRoleMember} and {getRoleMemberCount}, make sure you perform all queries on the same block. See the following https://forum.openzeppelin.com/t/iterating-over-elements-on-enumerableset-in-openzeppelin-contracts/2296[forum post] for more information."
      },
      "getRoleMemberCount(bytes32)": {
        "details": "Returns the number of accounts that have `role`. Can be used together with {getRoleMember} to enumerate all bearers of a role."
      },
      "grantRole(bytes32,address)": {
        "details": "Grants `role` to `account`. If `account` had not been already granted `role`, emits a {RoleGranted} event. Requirements: - the caller must have ``role``'s admin role."
      },
      "hasRole(bytes32,address)": {
        "details": "Returns `true` if `account` has been granted `role`."
      },
      "renounceRole(bytes32,address)": {
        "details": "Revokes `role` from the calling account. Roles are often managed via {grantRole} and {revokeRole}: this function's purpose is to provide a mechanism for accounts to lose their privileges if they are compromised (such as when a trusted device is misplaced). If the calling account had been granted `role`, emits a {RoleRevoked} event. Requirements: - the caller must be `account`."
      },
      "revokeRole(bytes32,address)": {
        "details": "Revokes `role` from `account`. If `account` had been granted `role`, emits a {RoleRevoked} event. Requirements: - the caller must have ``role``'s admin role."
      }
    },
    "version": 1
  },
  "userdoc": {
    "kind": "user",
    "methods": {},
    "version": 1
  }
}