{
  "contractName": "DAOCommitteeProxy",
  "abi": [
    {
      "inputs": [
        {
          "internalType": "address",
          "name": "_ton",
          "type": "address"
        },
        {
          "internalType": "address",
          "name": "_impl",
          "type": "address"
        },
        {
          "internalType": "address",
          "name": "_seigManager",
          "type": "address"
        },
        {
          "internalType": "address",
          "name": "_layer2Registry",
          "type": "address"
        },
        {
          "internalType": "address",
          "name": "_agendaManager",
          "type": "address"
        },
        {
          "internalType": "address",
          "name": "_candidateFactory",
          "type": "address"
        },
        {
          "internalType": "address",
          "name": "_daoVault",
          "type": "address"
        }
      ],
      "stateMutability": "nonpayable",
      "type": "constructor"
    },
    {
      "anonymous": false,
      "inputs": [
        {
          "indexed": true,
          "internalType": "address",
          "name": "from",
          "type": "address"
        },
        {
          "indexed": false,
          "internalType": "address",
          "name": "member",
          "type": "address"
        },
        {
          "indexed": false,
          "internalType": "uint256",
          "name": "totalbalance",
          "type": "uint256"
        },
        {
          "indexed": false,
          "internalType": "uint256",
          "name": "memberIndex",
          "type": "uint256"
        }
      ],
      "name": "ApplyMemberSuccess",
      "type": "event"
    },
    {
      "anonymous": false,
      "inputs": [
        {
          "indexed": true,
          "internalType": "address",
          "name": "previousOwner",
          "type": "address"
        },
        {
          "indexed": true,
          "internalType": "address",
          "name": "newOwner",
          "type": "address"
        }
      ],
      "name": "OwnershipTransferred",
      "type": "event"
    },
    {
      "anonymous": false,
      "inputs": [
        {
          "indexed": true,
          "internalType": "address",
          "name": "implementation",
          "type": "address"
        }
      ],
      "name": "Upgraded",
      "type": "event"
    },
    {
      "stateMutability": "nonpayable",
      "type": "fallback"
    },
    {
      "inputs": [],
      "name": "_implementation",
      "outputs": [
        {
          "internalType": "address",
          "name": "",
          "type": "address"
        }
      ],
      "stateMutability": "view",
      "type": "function"
    },
    {
      "inputs": [],
      "name": "activityRewardPerSecond",
      "outputs": [
        {
          "internalType": "uint256",
          "name": "",
          "type": "uint256"
        }
      ],
      "stateMutability": "view",
      "type": "function"
    },
    {
      "inputs": [],
      "name": "agendaManager",
      "outputs": [
        {
          "internalType": "contract IDAOAgendaManager",
          "name": "",
          "type": "address"
        }
      ],
      "stateMutability": "view",
      "type": "function"
    },
    {
      "inputs": [
        {
          "internalType": "address",
          "name": "_candidate",
          "type": "address"
        }
      ],
      "name": "candidateContract",
      "outputs": [
        {
          "internalType": "address",
          "name": "",
          "type": "address"
        }
      ],
      "stateMutability": "view",
      "type": "function"
    },
    {
      "inputs": [],
      "name": "candidateFactory",
      "outputs": [
        {
          "internalType": "contract ICandidateFactory",
          "name": "",
          "type": "address"
        }
      ],
      "stateMutability": "view",
      "type": "function"
    },
    {
      "inputs": [
        {
          "internalType": "address",
          "name": "",
          "type": "address"
        }
      ],
      "name": "candidateInfos",
      "outputs": [
        {
          "internalType": "address",
          "name": "candidateContract",
          "type": "address"
        },
        {
          "internalType": "uint256",
          "name": "memberJoinedTime",
          "type": "uint256"
        },
        {
          "internalType": "uint256",
          "name": "indexMembers",
          "type": "uint256"
        },
        {
          "internalType": "uint256",
          "name": "rewardPeriod",
          "type": "uint256"
        }
      ],
      "stateMutability": "view",
      "type": "function"
    },
    {
      "inputs": [
        {
          "internalType": "uint256",
          "name": "",
          "type": "uint256"
        }
      ],
      "name": "candidates",
      "outputs": [
        {
          "internalType": "address",
          "name": "",
          "type": "address"
        }
      ],
      "stateMutability": "view",
      "type": "function"
    },
    {
      "inputs": [],
      "name": "daoVault",
      "outputs": [
        {
          "internalType": "contract IDAOVault2",
          "name": "",
          "type": "address"
        }
      ],
      "stateMutability": "view",
      "type": "function"
    },
    {
      "inputs": [
        {
          "internalType": "address",
          "name": "_candidate",
          "type": "address"
        }
      ],
      "name": "isMember",
      "outputs": [
        {
          "internalType": "bool",
          "name": "",
          "type": "bool"
        }
      ],
      "stateMutability": "view",
      "type": "function"
    },
    {
      "inputs": [],
      "name": "layer2Registry",
      "outputs": [
        {
          "internalType": "contract ILayer2Registry",
          "name": "",
          "type": "address"
        }
      ],
      "stateMutability": "view",
      "type": "function"
    },
    {
      "inputs": [],
      "name": "maxMember",
      "outputs": [
        {
          "internalType": "uint256",
          "name": "",
          "type": "uint256"
        }
      ],
      "stateMutability": "view",
      "type": "function"
    },
    {
      "inputs": [
        {
          "internalType": "uint256",
          "name": "",
          "type": "uint256"
        }
      ],
      "name": "members",
      "outputs": [
        {
          "internalType": "address",
          "name": "",
          "type": "address"
        }
      ],
      "stateMutability": "view",
      "type": "function"
    },
    {
      "inputs": [],
      "name": "owner",
      "outputs": [
        {
          "internalType": "address",
          "name": "",
          "type": "address"
        }
      ],
      "stateMutability": "view",
      "type": "function"
    },
    {
      "inputs": [],
      "name": "pauseProxy",
      "outputs": [
        {
          "internalType": "bool",
          "name": "",
          "type": "bool"
        }
      ],
      "stateMutability": "view",
      "type": "function"
    },
    {
      "inputs": [],
      "name": "renounceOwnership",
      "outputs": [],
      "stateMutability": "nonpayable",
      "type": "function"
    },
    {
      "inputs": [],
      "name": "seigManager",
      "outputs": [
        {
          "internalType": "contract ISeigManager",
          "name": "",
          "type": "address"
        }
      ],
      "stateMutability": "view",
      "type": "function"
    },
    {
      "inputs": [
        {
          "internalType": "bytes4",
          "name": "interfaceId",
          "type": "bytes4"
        }
      ],
      "name": "supportsInterface",
      "outputs": [
        {
          "internalType": "bool",
          "name": "",
          "type": "bool"
        }
      ],
      "stateMutability": "view",
      "type": "function"
    },
    {
      "inputs": [],
      "name": "ton",
      "outputs": [
        {
          "internalType": "address",
          "name": "",
          "type": "address"
        }
      ],
      "stateMutability": "view",
      "type": "function"
    },
    {
      "inputs": [
        {
          "internalType": "address",
          "name": "newOwner",
          "type": "address"
        }
      ],
      "name": "transferOwnership",
      "outputs": [],
      "stateMutability": "nonpayable",
      "type": "function"
    },
    {
      "inputs": [
        {
          "internalType": "bool",
          "name": "_pause",
          "type": "bool"
        }
      ],
      "name": "setProxyPause",
      "outputs": [],
      "stateMutability": "nonpayable",
      "type": "function"
    },
    {
      "inputs": [
        {
          "internalType": "address",
          "name": "impl",
          "type": "address"
        }
      ],
      "name": "upgradeTo",
      "outputs": [],
      "stateMutability": "nonpayable",
      "type": "function"
    },
    {
      "inputs": [],
      "name": "implementation",
      "outputs": [
        {
          "internalType": "address",
          "name": "",
          "type": "address"
        }
      ],
      "stateMutability": "view",
      "type": "function"
    }
  ],
  "bytecode": "0x608060405234801561001057600080fd5b50604051610b4c380380610b4c833981810160405260e081101561003357600080fd5b508051602082015160408301516060840151608085015160a086015160c0909601519495939492939192909190600061006a610177565b600b80546001600160a01b0319166001600160a01b038316908117909155604051919250906000907f8be0079c531659141344cd1fd0a4f28419497f9722a3daafe3b4186f6b6457e0908290a3506100c86301ffc9a760e01b61017b565b600080546001600160a01b03199081166001600160a01b038a811691909117909255600d8054821689841617905560058054821688841617905560048054821687841617905560028054821686841617905560038054821685841617905560018054909116918316919091179055670de0b6b3a7640000600a5561016b7f4273ca16e32229270629d776700e1c07e4a1080fc9b26d21f6608efc2b31dc4d61017b565b505050505050506101ff565b3390565b6001600160e01b031980821614156101da576040805162461bcd60e51b815260206004820152601c60248201527f4552433136353a20696e76616c696420696e7465726661636520696400000000604482015290519081900360640190fd5b6001600160e01b0319166000908152600c60205260409020805460ff19166001179055565b61093e8061020e6000396000f3fe608060405234801561001057600080fd5b50600436106101425760003560e01c8063651d08cd116100b85780638da5cb5b1161007c5780638da5cb5b146102f8578063a230c52414610300578063b5dd115814610326578063cc48b9471461032e578063cf2a239c14610336578063f2fde38b1461033e57610142565b8063651d08cd1461029b5780636fb7f558146102c1578063715018a6146102c95780637cb00d25146102d15780637f331636146102f057610142565b80633659cfe61161010a5780633659cfe6146102385780635903bd6c1461025e57806359679b0f146102665780635c60da1b1461026e5780635daf08ca1461027657806363a8fd891461029357610142565b806301ffc9a71461014c57806303e3c9ac1461018757806327fd92fd146101a15780632e011c1e146101c55780633477ee2e1461021b575b61014a610364565b005b6101736004803603602081101561016257600080fd5b50356001600160e01b0319166103f1565b604080519115158252519081900360200190f35b61018f610410565b60408051918252519081900360200190f35b6101a9610416565b604080516001600160a01b039092168252519081900360200190f35b6101eb600480360360208110156101db57600080fd5b50356001600160a01b0316610425565b604080516001600160a01b0390951685526020850193909352838301919091526060830152519081900360800190f35b6101a96004803603602081101561023157600080fd5b5035610456565b61014a6004803603602081101561024e57600080fd5b50356001600160a01b0316610480565b6101a961056f565b6101a961057e565b6101a961058d565b6101a96004803603602081101561028c57600080fd5b503561059c565b6101736105ac565b6101a9600480360360208110156102b157600080fd5b50356001600160a01b03166105bc565b6101a96105da565b61014a6105e9565b61014a600480360360208110156102e757600080fd5b5035151561068b565b61018f610701565b6101a9610707565b6101736004803603602081101561031657600080fd5b50356001600160a01b0316610716565b6101a9610736565b6101a9610745565b6101a9610754565b61014a6004803603602081101561035457600080fd5b50356001600160a01b0316610763565b600061036e61058d565b90506001600160a01b038116158015906103925750600d54600160a01b900460ff16155b6103cd5760405162461bcd60e51b81526004018080602001828103825260318152602001806108d86031913960400191505060405180910390fd5b3660008037600080366000845af43d6000803e8080156103ec573d6000f35b3d6000fd5b6001600160e01b0319166000908152600c602052604090205460ff1690565b60085481565b6002546001600160a01b031681565b60096020526000908152604090208054600182015460028301546003909301546001600160a01b0390921692909184565b6006818154811061046657600080fd5b6000918252602090912001546001600160a01b0316905081565b61048861085c565b600b546001600160a01b039081169116146104d8576040805162461bcd60e51b815260206004820181905260248201526000805160206108b8833981519152604482015290519081900360640190fd5b600d546001600160a01b03828116911614156105255760405162461bcd60e51b81526004018080602001828103825260318152602001806108876031913960400191505060405180910390fd5b600d80546001600160a01b0319166001600160a01b0383169081179091556040517fbc7cd75a20ee27fd9adebab32041f755214dbc6bffa90cc0225b39da2e5c2d3b90600090a250565b6001546001600160a01b031681565b600d546001600160a01b031681565b600d546001600160a01b031690565b6007818154811061046657600080fd5b600d54600160a01b900460ff1681565b6001600160a01b039081166000908152600960205260409020541690565b6005546001600160a01b031681565b6105f161085c565b600b546001600160a01b03908116911614610641576040805162461bcd60e51b815260206004820181905260248201526000805160206108b8833981519152604482015290519081900360640190fd5b600b546040516000916001600160a01b0316907f8be0079c531659141344cd1fd0a4f28419497f9722a3daafe3b4186f6b6457e0908390a3600b80546001600160a01b0319169055565b61069361085c565b600b546001600160a01b039081169116146106e3576040805162461bcd60e51b815260206004820181905260248201526000805160206108b8833981519152604482015290519081900360640190fd5b600d8054911515600160a01b0260ff60a01b19909216919091179055565b600a5481565b600b546001600160a01b031690565b6001600160a01b0316600090815260096020526040902060010154151590565b6003546001600160a01b031681565b6000546001600160a01b031681565b6004546001600160a01b031681565b61076b61085c565b600b546001600160a01b039081169116146107bb576040805162461bcd60e51b815260206004820181905260248201526000805160206108b8833981519152604482015290519081900360640190fd5b6001600160a01b0381166108005760405162461bcd60e51b81526004018080602001828103825260268152602001806108616026913960400191505060405180910390fd5b600b546040516001600160a01b038084169216907f8be0079c531659141344cd1fd0a4f28419497f9722a3daafe3b4186f6b6457e090600090a3600b80546001600160a01b0319166001600160a01b0392909216919091179055565b339056fe4f776e61626c653a206e6577206f776e657220697320746865207a65726f206164647265737344414f436f6d6d697474656550726f78793a20696d706c656d656e746174696f6e2061646472657373206973207a65726f4f776e61626c653a2063616c6c6572206973206e6f7420746865206f776e657244414f436f6d6d697474656550726f78793a20696d706c206973207a65726f204f522070726f78792069732066616c7365a26469706673582212208f7636f33bd9d9d34a30960c0c37e6f72aaad4707f1a25314b20a2baf6202e3564736f6c63430007060033",
  "immutableReferences": {},
  "source": "// SPDX-License-Identifier: MIT\npragma solidity ^0.7.6;\n\nimport \"./StorageStateCommittee.sol\";\nimport \"../../node_modules/@openzeppelin/contracts/access/Ownable.sol\";\nimport { ERC165 } from \"../../node_modules/@openzeppelin/contracts/introspection/ERC165.sol\";\n\ncontract DAOCommitteeProxy is StorageStateCommittee, Ownable, ERC165 {\n    address public _implementation;\n    bool public pauseProxy;\n\n    event Upgraded(address indexed implementation);\n     \n    constructor(\n        address _ton,\n        address _impl,\n        address _seigManager,\n        address _layer2Registry,\n        address _agendaManager,\n        address _candidateFactory,\n        //address _activityRewardManager,\n        address _daoVault\n    )\n    {\n        ton = _ton;\n        _implementation = _impl;\n        seigManager = ISeigManager(_seigManager);\n        layer2Registry = ILayer2Registry(_layer2Registry);\n        agendaManager = IDAOAgendaManager(_agendaManager);\n        candidateFactory = ICandidateFactory(_candidateFactory);\n        //activityRewardManager = IDAOActivityRewardManager(_activityRewardManager);\n        daoVault = IDAOVault2(_daoVault);\n        //maxMember = 3;\n        activityRewardPerSecond = 1e18;\n\n        _registerInterface(bytes4(keccak256(\"onApprove(address,address,uint256,bytes)\")));\n    }\n\n    function setProxyPause(bool _pause) onlyOwner public {\n        pauseProxy = _pause;\n    }\n\n    /*function setProxyStore(address payable _storeAddress) onlyOwner public {\n        require(_storeAddress != address(0), \"DAOCommitteeProxy: store address is zero\");\n        store = DAOCommitteeStore(_storeAddress);\n    }\n\n    function setProxyAgendaManager(address _addr) onlyOwner validStore public {\n        require(_addr != address(0), \"DAOCommitteeProxy: agendamanager address is zero\");\n        agendaManager = DAOAgendaManager(_addr);\n        store.setAgendaManager(_addr);\n    }\n\n    function setProxyAactivityfeeManager(address _addr) onlyOwner validStore public {\n        require(_addr != address(0), \"DAOCommitteeProxy: ActivityFeeManager address is zero\");\n        activityfeeManager = DAOActivityFeeManager(_addr);\n        store.setActivityFeeManager(_addr);\n    }\n\n    //--\n    function setProxyElection(address _addr) onlyOwner public {\n        require(_addr != address(0), \"DAOCommitteeProxy: election address is zero\");\n        election = DAOElectionStore(_addr);\n    }\n\n    function setProxyCommitteeL2Factory(address _addr) onlyOwner public {\n        require(_addr != address(0), \"DAOCommitteeProxy: factory address is zero\");\n        committeeL2Factory = CommitteeL2FactoryI(_addr);\n        election.setCommitteeL2Factory(_addr);\n    }\n\n    function setProxyLayer2Registry(address _addr) onlyOwner public {\n        require(_addr != address(0), \"DAOCommitteeProxy: registry address is zero\");\n        layer2Registry = Layer2RegistryI(_addr);\n        election.setLayer2Registry(_addr);\n    }\n\n    function setProxySeigManager(address _addr) onlyOwner public {\n        require(_addr != address(0), \"DAOCommitteeProxy: SeigManager address is zero\");\n        seigManager = SeigManagerI(_addr);\n        election.setSeigManager(_addr);\n    }*/\n    //--\n\n    function upgradeTo(address impl) public onlyOwner {\n        require(_implementation != impl, \"DAOCommitteeProxy: implementation address is zero\");\n        _implementation = impl;\n        emit Upgraded(impl);\n    }\n\n    function implementation() public view returns (address) {\n        return _implementation;\n    }\n\n    fallback() external {\n        _fallback();\n    }\n\n    function _fallback() internal {\n        address _impl = implementation();\n        require(_impl != address(0) && pauseProxy == false, \"DAOCommitteeProxy: impl is zero OR proxy is false\");\n\n        assembly {\n            // Copy msg.data. We take full control of memory in this inline assembly\n            // block because it will not return to Solidity code. We overwrite the\n            // Solidity scratch pad at memory position 0.\n            calldatacopy(0, 0, calldatasize())\n\n            // Call the implementation.\n            // out and outsize are 0 because we don't know the size yet.\n            let result := delegatecall(gas(), _impl, 0, calldatasize(), 0, 0)\n\n            // Copy the returned data.\n            returndatacopy(0, 0, returndatasize())\n\n            switch result\n            // delegatecall returns 0 on error.\n            case 0 { revert(0, returndatasize()) }\n            default { return(0, returndatasize()) }\n        }\n    }\n}\n",
  "sourcePath": "/data/github/onther/tokamak-dao-contracts3/contracts/dao/DAOCommitteeProxy.sol",
  "compiler": {
    "name": "solc",
    "version": "0.7.6+commit.7338295f.Emscripten.clang"
  },
  "schemaVersion": "3.3.2",
  "updatedAt": "2021-01-11T00:04:23.800Z",
  "devdoc": {
    "kind": "dev",
    "methods": {
      "owner()": {
        "details": "Returns the address of the current owner."
      },
      "renounceOwnership()": {
        "details": "Leaves the contract without owner. It will not be possible to call `onlyOwner` functions anymore. Can only be called by the current owner. NOTE: Renouncing ownership will leave the contract without an owner, thereby removing any functionality that is only available to the owner."
      },
      "supportsInterface(bytes4)": {
        "details": "See {IERC165-supportsInterface}. Time complexity O(1), guaranteed to always use less than 30 000 gas."
      },
      "transferOwnership(address)": {
        "details": "Transfers ownership of the contract to a new account (`newOwner`). Can only be called by the current owner."
      }
    },
    "version": 1
  },
  "userdoc": {
    "kind": "user",
    "methods": {},
    "version": 1
  }
}