{
  "contractName": "DAOVault2",
  "abi": [
    {
      "inputs": [
        {
          "internalType": "address",
          "name": "_ton",
          "type": "address"
        },
        {
          "internalType": "address",
          "name": "_wton",
          "type": "address"
        }
      ],
      "stateMutability": "nonpayable",
      "type": "constructor"
    },
    {
      "anonymous": false,
      "inputs": [
        {
          "indexed": true,
          "internalType": "address",
          "name": "token",
          "type": "address"
        },
        {
          "indexed": true,
          "internalType": "address",
          "name": "to",
          "type": "address"
        },
        {
          "indexed": true,
          "internalType": "uint256",
          "name": "amount",
          "type": "uint256"
        }
      ],
      "name": "Approved",
      "type": "event"
    },
    {
      "anonymous": false,
      "inputs": [
        {
          "indexed": true,
          "internalType": "address",
          "name": "token",
          "type": "address"
        },
        {
          "indexed": true,
          "internalType": "address",
          "name": "to",
          "type": "address"
        },
        {
          "indexed": true,
          "internalType": "uint256",
          "name": "amount",
          "type": "uint256"
        }
      ],
      "name": "Claimed",
      "type": "event"
    },
    {
      "anonymous": false,
      "inputs": [
        {
          "indexed": true,
          "internalType": "address",
          "name": "previousOwner",
          "type": "address"
        },
        {
          "indexed": true,
          "internalType": "address",
          "name": "newOwner",
          "type": "address"
        }
      ],
      "name": "OwnershipTransferred",
      "type": "event"
    },
    {
      "inputs": [],
      "name": "owner",
      "outputs": [
        {
          "internalType": "address",
          "name": "",
          "type": "address"
        }
      ],
      "stateMutability": "view",
      "type": "function",
      "constant": true
    },
    {
      "inputs": [],
      "name": "renounceOwnership",
      "outputs": [],
      "stateMutability": "nonpayable",
      "type": "function"
    },
    {
      "inputs": [],
      "name": "ton",
      "outputs": [
        {
          "internalType": "contract IERC20",
          "name": "",
          "type": "address"
        }
      ],
      "stateMutability": "view",
      "type": "function",
      "constant": true
    },
    {
      "inputs": [
        {
          "internalType": "address",
          "name": "newOwner",
          "type": "address"
        }
      ],
      "name": "transferOwnership",
      "outputs": [],
      "stateMutability": "nonpayable",
      "type": "function"
    },
    {
      "inputs": [],
      "name": "wton",
      "outputs": [
        {
          "internalType": "contract IERC20",
          "name": "",
          "type": "address"
        }
      ],
      "stateMutability": "view",
      "type": "function",
      "constant": true
    },
    {
      "inputs": [
        {
          "internalType": "address",
          "name": "_ton",
          "type": "address"
        }
      ],
      "name": "setTON",
      "outputs": [],
      "stateMutability": "nonpayable",
      "type": "function"
    },
    {
      "inputs": [
        {
          "internalType": "address",
          "name": "_wton",
          "type": "address"
        }
      ],
      "name": "setWTON",
      "outputs": [],
      "stateMutability": "nonpayable",
      "type": "function"
    },
    {
      "inputs": [
        {
          "internalType": "address",
          "name": "_to",
          "type": "address"
        },
        {
          "internalType": "uint256",
          "name": "_amount",
          "type": "uint256"
        }
      ],
      "name": "approveTON",
      "outputs": [],
      "stateMutability": "nonpayable",
      "type": "function"
    },
    {
      "inputs": [
        {
          "internalType": "address",
          "name": "_to",
          "type": "address"
        },
        {
          "internalType": "uint256",
          "name": "_amount",
          "type": "uint256"
        }
      ],
      "name": "approveWTON",
      "outputs": [],
      "stateMutability": "nonpayable",
      "type": "function"
    },
    {
      "inputs": [
        {
          "internalType": "address",
          "name": "_token",
          "type": "address"
        },
        {
          "internalType": "address",
          "name": "_to",
          "type": "address"
        },
        {
          "internalType": "uint256",
          "name": "_amount",
          "type": "uint256"
        }
      ],
      "name": "approveERC20",
      "outputs": [],
      "stateMutability": "nonpayable",
      "type": "function"
    },
    {
      "inputs": [
        {
          "internalType": "address",
          "name": "_to",
          "type": "address"
        },
        {
          "internalType": "uint256",
          "name": "_amount",
          "type": "uint256"
        }
      ],
      "name": "claimTON",
      "outputs": [],
      "stateMutability": "nonpayable",
      "type": "function"
    },
    {
      "inputs": [
        {
          "internalType": "address",
          "name": "_to",
          "type": "address"
        },
        {
          "internalType": "uint256",
          "name": "_amount",
          "type": "uint256"
        }
      ],
      "name": "claimWTON",
      "outputs": [],
      "stateMutability": "nonpayable",
      "type": "function"
    },
    {
      "inputs": [
        {
          "internalType": "address",
          "name": "_token",
          "type": "address"
        },
        {
          "internalType": "address",
          "name": "_to",
          "type": "address"
        },
        {
          "internalType": "uint256",
          "name": "_amount",
          "type": "uint256"
        }
      ],
      "name": "claimERC20",
      "outputs": [],
      "stateMutability": "nonpayable",
      "type": "function"
    }
  ],
  "bytecode": "0x608060405234801561001057600080fd5b506040516116583803806116588339818101604052604081101561003357600080fd5b50805160209091015160006100466100c1565b600080546001600160a01b0319166001600160a01b0383169081178255604051929350917f8be0079c531659141344cd1fd0a4f28419497f9722a3daafe3b4186f6b6457e0908290a350600180546001600160a01b039384166001600160a01b031991821617909155600280549290931691161790556100c5565b3390565b611584806100d46000396000f3fe608060405234801561001057600080fd5b50600436106100cf5760003560e01c80638da5cb5b1161008c578063ef0d559411610066578063ef0d5594146101ec578063f2fde38b14610218578063f52bba701461023e578063f848091a1461026a576100cf565b80638da5cb5b146101a6578063a8e5e4aa146101ae578063cc48b947146101e4576100cf565b8063230da4f2146100d457806352cceeb6146100fc57806354e68c9a14610128578063662d12b114610154578063715018a61461017a5780638d62d94914610182575b600080fd5b6100fa600480360360208110156100ea57600080fd5b50356001600160a01b03166102a0565b005b6100fa6004803603604081101561011257600080fd5b506001600160a01b03813516906020013561031a565b6100fa6004803603604081101561013e57600080fd5b506001600160a01b0381351690602001356103ca565b6100fa6004803603602081101561016a57600080fd5b50356001600160a01b031661047a565b6100fa6104f4565b61018a610596565b604080516001600160a01b039092168252519081900360200190f35b61018a6105a5565b6100fa600480360360608110156101c457600080fd5b506001600160a01b038135811691602081013590911690604001356105b4565b61018a610666565b6100fa6004803603604081101561020257600080fd5b506001600160a01b038135169060200135610675565b6100fa6004803603602081101561022e57600080fd5b50356001600160a01b0316610965565b6100fa6004803603604081101561025457600080fd5b506001600160a01b038135169060200135610a5d565b6100fa6004803603606081101561028057600080fd5b506001600160a01b03813581169160208101359091169060400135610d6c565b6102a8610ee7565b6000546001600160a01b039081169116146102f8576040805162461bcd60e51b815260206004820181905260248201526000805160206114a5833981519152604482015290519081900360640190fd5b600180546001600160a01b0319166001600160a01b0392909216919091179055565b610322610ee7565b6000546001600160a01b03908116911614610372576040805162461bcd60e51b815260206004820181905260248201526000805160206114a5833981519152604482015290519081900360640190fd5b600154610389906001600160a01b03168383610eeb565b60015460405182916001600160a01b03808616929116907f80da462ebfbe41cfc9bc015e7a9a3c7a2a73dbccede72d8ceb583606c27f8f9090600090a45050565b6103d2610ee7565b6000546001600160a01b03908116911614610422576040805162461bcd60e51b815260206004820181905260248201526000805160206114a5833981519152604482015290519081900360640190fd5b600254610439906001600160a01b03168383610eeb565b60025460405182916001600160a01b03808616929116907f80da462ebfbe41cfc9bc015e7a9a3c7a2a73dbccede72d8ceb583606c27f8f9090600090a45050565b610482610ee7565b6000546001600160a01b039081169116146104d2576040805162461bcd60e51b815260206004820181905260248201526000805160206114a5833981519152604482015290519081900360640190fd5b600280546001600160a01b0319166001600160a01b0392909216919091179055565b6104fc610ee7565b6000546001600160a01b0390811691161461054c576040805162461bcd60e51b815260206004820181905260248201526000805160206114a5833981519152604482015290519081900360640190fd5b600080546040516001600160a01b03909116907f8be0079c531659141344cd1fd0a4f28419497f9722a3daafe3b4186f6b6457e0908390a3600080546001600160a01b0319169055565b6002546001600160a01b031681565b6000546001600160a01b031690565b6105bc610ee7565b6000546001600160a01b0390811691161461060c576040805162461bcd60e51b815260206004820181905260248201526000805160206114a5833981519152604482015290519081900360640190fd5b6106206001600160a01b0384168383610eeb565b80826001600160a01b0316846001600160a01b03167f80da462ebfbe41cfc9bc015e7a9a3c7a2a73dbccede72d8ceb583606c27f8f9060405160405180910390a4505050565b6001546001600160a01b031681565b61067d610ee7565b6000546001600160a01b039081169116146106cd576040805162461bcd60e51b815260206004820181905260248201526000805160206114a5833981519152604482015290519081900360640190fd5b600154604080516370a0823160e01b815230600482015290516000926001600160a01b0316916370a08231916024808301926020929190829003018186803b15801561071857600080fd5b505afa15801561072c573d6000803e3d6000fd5b505050506040513d602081101561074257600080fd5b5051600254604080516370a0823160e01b815230600482015290519293506000926001600160a01b03909216916370a0823191602480820192602092909190829003018186803b15801561079557600080fd5b505afa1580156107a9573d6000803e3d6000fd5b505050506040513d60208110156107bf57600080fd5b50519050826107d76107d083611003565b849061100d565b101561082a576040805162461bcd60e51b815260206004820152601d60248201527f44414f5661756c74323a206e6f7420656e6f7567682062616c616e6365000000604482015290519081900360640190fd5b828083101561090a5750816000610849610844868461106e565b6110b0565b6002546040805163e3b99e8560e01b81526001600160a01b038a8116600483015260248201859052915193945091169163e3b99e85916044808201926020929091908290030181600087803b1580156108a157600080fd5b505af11580156108b5573d6000803e3d6000fd5b505050506040513d60208110156108cb57600080fd5b50516109085760405162461bcd60e51b815260040180806020018281038252602b81526020018061147a602b913960400191505060405180910390fd5b505b600154610921906001600160a01b031686836110b9565b60015460405185916001600160a01b03808916929116907ff7a40077ff7a04c7e61f6f26fb13774259ddf1b6bce9ecf26a8276cdd399268390600090a45050505050565b61096d610ee7565b6000546001600160a01b039081169116146109bd576040805162461bcd60e51b815260206004820181905260248201526000805160206114a5833981519152604482015290519081900360640190fd5b6001600160a01b038116610a025760405162461bcd60e51b815260040180806020018281038252602681526020018061142e6026913960400191505060405180910390fd5b600080546040516001600160a01b03808516939216917f8be0079c531659141344cd1fd0a4f28419497f9722a3daafe3b4186f6b6457e091a3600080546001600160a01b0319166001600160a01b0392909216919091179055565b610a65610ee7565b6000546001600160a01b03908116911614610ab5576040805162461bcd60e51b815260206004820181905260248201526000805160206114a5833981519152604482015290519081900360640190fd5b600154604080516370a0823160e01b815230600482015290516000926001600160a01b0316916370a08231916024808301926020929190829003018186803b158015610b0057600080fd5b505afa158015610b14573d6000803e3d6000fd5b505050506040513d6020811015610b2a57600080fd5b5051600254604080516370a0823160e01b815230600482015290519293506000926001600160a01b03909216916370a0823191602480820192602092909190829003018186803b158015610b7d57600080fd5b505afa158015610b91573d6000803e3d6000fd5b505050506040513d6020811015610ba757600080fd5b5051905082610bbf82610bb9856110b0565b9061100d565b1015610c12576040805162461bcd60e51b815260206004820152601d60248201527f44414f5661756c74323a206e6f7420656e6f7567682062616c616e6365000000604482015290519081900360640190fd5b8280821015610d11576000610c2f610c2a868561106e565b611003565b600254600154859450919250610c52916001600160a01b03908116911683610eeb565b6002546040805163588420b760e01b81526001600160a01b038981166004830152602482018590529151919092169163588420b79160448083019260209291908290030181600087803b158015610ca857600080fd5b505af1158015610cbc573d6000803e3d6000fd5b505050506040513d6020811015610cd257600080fd5b5051610d0f5760405162461bcd60e51b815260040180806020018281038252602a8152602001806114ef602a913960400191505060405180910390fd5b505b600254610d28906001600160a01b031686836110b9565b60025460405185916001600160a01b03808916929116907ff7a40077ff7a04c7e61f6f26fb13774259ddf1b6bce9ecf26a8276cdd399268390600090a45050505050565b610d74610ee7565b6000546001600160a01b03908116911614610dc4576040805162461bcd60e51b815260206004820181905260248201526000805160206114a5833981519152604482015290519081900360640190fd5b80836001600160a01b03166370a08231306040518263ffffffff1660e01b815260040180826001600160a01b0316815260200191505060206040518083038186803b158015610e1257600080fd5b505afa158015610e26573d6000803e3d6000fd5b505050506040513d6020811015610e3c57600080fd5b50511015610e91576040805162461bcd60e51b815260206004820152601d60248201527f44414f5661756c74323a206e6f7420656e6f7567682062616c616e6365000000604482015290519081900360640190fd5b610ea56001600160a01b03841683836110b9565b60025460405182916001600160a01b03808616929116907ff7a40077ff7a04c7e61f6f26fb13774259ddf1b6bce9ecf26a8276cdd399268390600090a4505050565b3390565b801580610f71575060408051636eb1769f60e11b81523060048201526001600160a01b03848116602483015291519185169163dd62ed3e91604480820192602092909190829003018186803b158015610f4357600080fd5b505afa158015610f57573d6000803e3d6000fd5b505050506040513d6020811015610f6d57600080fd5b5051155b610fac5760405162461bcd60e51b81526004018080602001828103825260368152602001806115196036913960400191505060405180910390fd5b604080516001600160a01b038416602482015260448082018490528251808303909101815260649091019091526020810180516001600160e01b031663095ea7b360e01b179052610ffe908490611107565b505050565b633b9aca00900490565b600082820183811015611067576040805162461bcd60e51b815260206004820152601b60248201527f536166654d6174683a206164646974696f6e206f766572666c6f770000000000604482015290519081900360640190fd5b9392505050565b600061106783836040518060400160405280601e81526020017f536166654d6174683a207375627472616374696f6e206f766572666c6f7700008152506111b8565b633b9aca000290565b604080516001600160a01b038416602482015260448082018490528251808303909101815260649091019091526020810180516001600160e01b031663a9059cbb60e01b179052610ffe9084905b600061115c826040518060400160405280602081526020017f5361666545524332303a206c6f772d6c6576656c2063616c6c206661696c6564815250856001600160a01b031661124f9092919063ffffffff16565b805190915015610ffe5780806020019051602081101561117b57600080fd5b5051610ffe5760405162461bcd60e51b815260040180806020018281038252602a8152602001806114c5602a913960400191505060405180910390fd5b600081848411156112475760405162461bcd60e51b81526004018080602001828103825283818151815260200191508051906020019080838360005b8381101561120c5781810151838201526020016111f4565b50505050905090810190601f1680156112395780820380516001836020036101000a031916815260200191505b509250505060405180910390fd5b505050900390565b606061125e8484600085611266565b949350505050565b6060824710156112a75760405162461bcd60e51b81526004018080602001828103825260268152602001806114546026913960400191505060405180910390fd5b6112b0856113c1565b611301576040805162461bcd60e51b815260206004820152601d60248201527f416464726573733a2063616c6c20746f206e6f6e2d636f6e7472616374000000604482015290519081900360640190fd5b600080866001600160a01b031685876040518082805190602001908083835b6020831061133f5780518252601f199092019160209182019101611320565b6001836020036101000a03801982511681845116808217855250505050505090500191505060006040518083038185875af1925050503d80600081146113a1576040519150601f19603f3d011682016040523d82523d6000602084013e6113a6565b606091505b50915091506113b68282866113c7565b979650505050505050565b3b151590565b606083156113d6575081611067565b8251156113e65782518084602001fd5b60405162461bcd60e51b815260206004820181815284516024840152845185939192839260440191908501908083836000831561120c5781810151838201526020016111f456fe4f776e61626c653a206e6577206f776e657220697320746865207a65726f2061646472657373416464726573733a20696e73756666696369656e742062616c616e636520666f722063616c6c44414f5661756c74323a206661696c656420746f207377617020616e64207472616e736665722077746f6e4f776e61626c653a2063616c6c6572206973206e6f7420746865206f776e65725361666545524332303a204552433230206f7065726174696f6e20646964206e6f74207375636365656444414f5661756c74323a206661696c656420746f207377617020616e64207472616e7366657220746f6e5361666545524332303a20617070726f76652066726f6d206e6f6e2d7a65726f20746f206e6f6e2d7a65726f20616c6c6f77616e6365a26469706673582212202d7b1108a52d33f7785b503b8710e6d488eca344ff8eced5de0d3fc5cfe2871164736f6c63430007060033",
  "immutableReferences": {},
  "source": "// SPDX-License-Identifier: MIT\npragma solidity ^0.7.6;\n\nimport \"../../node_modules/@openzeppelin/contracts/access/Ownable.sol\";\nimport { IERC20 } from  \"../../node_modules/@openzeppelin/contracts/token/ERC20/IERC20.sol\";\nimport { SafeMath } from \"../../node_modules/@openzeppelin/contracts/math/SafeMath.sol\";\nimport { SafeERC20 } from \"../../node_modules/@openzeppelin/contracts/token/ERC20/SafeERC20.sol\";\nimport { IWTON } from \"../interfaces/IWTON.sol\";\n\ncontract DAOVault2 is Ownable {\n    using SafeMath for uint256;\n    using SafeERC20 for IERC20;\n    \n    IERC20 public ton;\n    IERC20 public wton;\n    \n    //////////////////////////////\n    // Events\n    //////////////////////////////\n    \n    event Claimed(address indexed token, address indexed to, uint256 indexed amount);\n    event Approved(address indexed token, address indexed to, uint256 indexed amount);\n\n    constructor(address _ton, address _wton) public {\n        ton = IERC20(_ton);\n        wton = IERC20(_wton);\n    }\n\n    /// @notice Set TON address\n    /// @param _ton TON address\n    function setTON(address _ton) external onlyOwner {\n        ton = IERC20(_ton);\n    }\n\n    /// @notice Set WTON address\n    /// @param _wton WTON address\n    function setWTON(address _wton) external onlyOwner {\n        wton = IERC20(_wton);\n    }\n\n    /// @notice Approves TON to specific address\n    /// @param _to Address to be approved\n    /// @param _amount Approving TON amount\n    function approveTON(address _to, uint256 _amount) public onlyOwner {\n        ton.safeApprove(_to, _amount);\n        emit Approved(address(ton), _to, _amount);\n    }\n\n    /// @notice Approves WTON to specific address\n    /// @param _to Address to be approved\n    /// @param _amount Approving WTON amount\n    function approveWTON(address _to, uint256 _amount) public onlyOwner {\n        wton.safeApprove(_to, _amount);\n        emit Approved(address(wton), _to, _amount);\n    }\n\n    /// @notice Approves ERC20 token to specific address\n    /// @param _token Token address\n    /// @param _to Address to be approved\n    /// @param _amount Approving ERC20 token amount\n    function approveERC20(address _token, address _to, uint256 _amount) public onlyOwner {\n        IERC20(_token).safeApprove(_to, _amount);\n        emit Approved(address(_token), _to, _amount);\n    }\n\n    /// @notice Transfers TON to specific address\n    /// @param _to Address to receive\n    /// @param _amount Transfer TON amount\n    function claimTON(address _to, uint256 _amount) public onlyOwner {\n        uint256 tonBalance = ton.balanceOf(address(this));\n        uint256 wtonBalance = wton.balanceOf(address(this));\n        require(\n            tonBalance.add(_toWAD(wtonBalance)) >= _amount,\n            \"DAOVault2: not enough balance\"\n        );\n\n        uint256 tonAmount = _amount;\n        if (tonBalance < _amount) {\n            tonAmount = tonBalance;\n            uint256 wtonAmount = _toRAY(_amount.sub(tonBalance));\n\n            require(\n                IWTON(address(wton)).swapToTONAndTransfer(_to, wtonAmount),\n                \"DAOVault2: failed to swap and transfer wton\"\n            );\n        }\n\n        ton.safeTransfer(_to, tonAmount);\n        emit Claimed(address(ton), _to, _amount);\n    }\n\n    /// @notice Transfers WTON to specific address\n    /// @param _to Address to receive\n    /// @param _amount Transfer WTON amount\n    function claimWTON(address _to, uint256 _amount) public onlyOwner {\n        uint256 tonBalance = ton.balanceOf(address(this));\n        uint256 wtonBalance = wton.balanceOf(address(this));\n        require(\n            _toRAY(tonBalance).add(wtonBalance) >= _amount,\n            \"DAOVault2: not enough balance\"\n        );\n\n        uint256 wtonAmount = _amount;\n        if (wtonBalance < _amount) {\n            uint256 tonAmount = _toWAD(_amount.sub(wtonBalance));\n            wtonAmount = wtonBalance;\n\n            ton.safeApprove(address(wton), tonAmount);\n            require(\n                IWTON(address(wton)).swapFromTONAndTransfer(_to, tonAmount),\n                \"DAOVault2: failed to swap and transfer ton\"\n            );\n        }\n\n        wton.safeTransfer(_to, wtonAmount);\n        emit Claimed(address(wton), _to, _amount);\n    }\n\n    /// @notice Transfers ERC20 token to specific address\n    /// @param _to Address to receive\n    /// @param _amount Transfer ERC20 token amount\n    function claimERC20(address _token, address _to, uint256 _amount) public onlyOwner {\n        require(IERC20(_token).balanceOf(address(this)) >= _amount, \"DAOVault2: not enough balance\");\n        IERC20(_token).safeTransfer(_to, _amount);\n        emit Claimed(address(wton), _to, _amount);\n    }\n\n    function _toRAY(uint256 v) internal pure returns (uint256) {\n        return v * 10 ** 9;\n    }\n\n    function _toWAD(uint256 v) internal pure returns (uint256) {\n        return v / 10 ** 9;\n    }\n}\n",
  "sourcePath": "/data/github/onther/tokamak-dao-contracts3/contracts/dao/DAOVault2.sol",
  "compiler": {
    "name": "solc",
    "version": "0.7.6+commit.7338295f.Emscripten.clang"
  },
  "schemaVersion": "3.3.2",
  "updatedAt": "2021-01-26T04:42:38.216Z",
  "networkType": "ethereum",
  "devdoc": {
    "kind": "dev",
    "methods": {
      "approveERC20(address,address,uint256)": {
        "params": {
          "_amount": "Approving ERC20 token amount",
          "_to": "Address to be approved",
          "_token": "Token address"
        }
      },
      "approveTON(address,uint256)": {
        "params": {
          "_amount": "Approving TON amount",
          "_to": "Address to be approved"
        }
      },
      "approveWTON(address,uint256)": {
        "params": {
          "_amount": "Approving WTON amount",
          "_to": "Address to be approved"
        }
      },
      "claimERC20(address,address,uint256)": {
        "params": {
          "_amount": "Transfer ERC20 token amount",
          "_to": "Address to receive"
        }
      },
      "claimTON(address,uint256)": {
        "params": {
          "_amount": "Transfer TON amount",
          "_to": "Address to receive"
        }
      },
      "claimWTON(address,uint256)": {
        "params": {
          "_amount": "Transfer WTON amount",
          "_to": "Address to receive"
        }
      },
      "owner()": {
        "details": "Returns the address of the current owner."
      },
      "renounceOwnership()": {
        "details": "Leaves the contract without owner. It will not be possible to call `onlyOwner` functions anymore. Can only be called by the current owner. NOTE: Renouncing ownership will leave the contract without an owner, thereby removing any functionality that is only available to the owner."
      },
      "setTON(address)": {
        "params": {
          "_ton": "TON address"
        }
      },
      "setWTON(address)": {
        "params": {
          "_wton": "WTON address"
        }
      },
      "transferOwnership(address)": {
        "details": "Transfers ownership of the contract to a new account (`newOwner`). Can only be called by the current owner."
      }
    },
    "version": 1
  },
  "userdoc": {
    "kind": "user",
    "methods": {
      "approveERC20(address,address,uint256)": {
        "notice": "Approves ERC20 token to specific address"
      },
      "approveTON(address,uint256)": {
        "notice": "Approves TON to specific address"
      },
      "approveWTON(address,uint256)": {
        "notice": "Approves WTON to specific address"
      },
      "claimERC20(address,address,uint256)": {
        "notice": "Transfers ERC20 token to specific address"
      },
      "claimTON(address,uint256)": {
        "notice": "Transfers TON to specific address"
      },
      "claimWTON(address,uint256)": {
        "notice": "Transfers WTON to specific address"
      },
      "setTON(address)": {
        "notice": "Set TON address"
      },
      "setWTON(address)": {
        "notice": "Set WTON address"
      }
    },
    "version": 1
  }
}