{
  "contractName": "DAOVault2",
  "abi": [
    {
      "inputs": [
        {
          "internalType": "address",
          "name": "_ton",
          "type": "address"
        },
        {
          "internalType": "address",
          "name": "_wton",
          "type": "address"
        }
      ],
      "stateMutability": "nonpayable",
      "type": "constructor"
    },
    {
      "anonymous": false,
      "inputs": [
        {
          "indexed": true,
          "internalType": "address",
          "name": "token",
          "type": "address"
        },
        {
          "indexed": true,
          "internalType": "address",
          "name": "to",
          "type": "address"
        },
        {
          "indexed": true,
          "internalType": "uint256",
          "name": "amount",
          "type": "uint256"
        }
      ],
      "name": "Approved",
      "type": "event"
    },
    {
      "anonymous": false,
      "inputs": [
        {
          "indexed": true,
          "internalType": "address",
          "name": "token",
          "type": "address"
        },
        {
          "indexed": true,
          "internalType": "address",
          "name": "to",
          "type": "address"
        },
        {
          "indexed": true,
          "internalType": "uint256",
          "name": "amount",
          "type": "uint256"
        }
      ],
      "name": "Claimed",
      "type": "event"
    },
    {
      "anonymous": false,
      "inputs": [
        {
          "indexed": true,
          "internalType": "address",
          "name": "previousOwner",
          "type": "address"
        },
        {
          "indexed": true,
          "internalType": "address",
          "name": "newOwner",
          "type": "address"
        }
      ],
      "name": "OwnershipTransferred",
      "type": "event"
    },
    {
      "inputs": [],
      "name": "owner",
      "outputs": [
        {
          "internalType": "address",
          "name": "",
          "type": "address"
        }
      ],
      "stateMutability": "view",
      "type": "function"
    },
    {
      "inputs": [],
      "name": "renounceOwnership",
      "outputs": [],
      "stateMutability": "nonpayable",
      "type": "function"
    },
    {
      "inputs": [],
      "name": "ton",
      "outputs": [
        {
          "internalType": "contract IERC20",
          "name": "",
          "type": "address"
        }
      ],
      "stateMutability": "view",
      "type": "function"
    },
    {
      "inputs": [
        {
          "internalType": "address",
          "name": "newOwner",
          "type": "address"
        }
      ],
      "name": "transferOwnership",
      "outputs": [],
      "stateMutability": "nonpayable",
      "type": "function"
    },
    {
      "inputs": [],
      "name": "wton",
      "outputs": [
        {
          "internalType": "contract IERC20",
          "name": "",
          "type": "address"
        }
      ],
      "stateMutability": "view",
      "type": "function"
    },
    {
      "inputs": [
        {
          "internalType": "address",
          "name": "_ton",
          "type": "address"
        }
      ],
      "name": "setTON",
      "outputs": [],
      "stateMutability": "nonpayable",
      "type": "function"
    },
    {
      "inputs": [
        {
          "internalType": "address",
          "name": "_wton",
          "type": "address"
        }
      ],
      "name": "setWTON",
      "outputs": [],
      "stateMutability": "nonpayable",
      "type": "function"
    },
    {
      "inputs": [
        {
          "internalType": "address",
          "name": "_to",
          "type": "address"
        },
        {
          "internalType": "uint256",
          "name": "_amount",
          "type": "uint256"
        }
      ],
      "name": "approveTON",
      "outputs": [],
      "stateMutability": "nonpayable",
      "type": "function"
    },
    {
      "inputs": [
        {
          "internalType": "address",
          "name": "_to",
          "type": "address"
        },
        {
          "internalType": "uint256",
          "name": "_amount",
          "type": "uint256"
        }
      ],
      "name": "approveWTON",
      "outputs": [],
      "stateMutability": "nonpayable",
      "type": "function"
    },
    {
      "inputs": [
        {
          "internalType": "address",
          "name": "_token",
          "type": "address"
        },
        {
          "internalType": "address",
          "name": "_to",
          "type": "address"
        },
        {
          "internalType": "uint256",
          "name": "_amount",
          "type": "uint256"
        }
      ],
      "name": "approveERC20",
      "outputs": [],
      "stateMutability": "nonpayable",
      "type": "function"
    },
    {
      "inputs": [
        {
          "internalType": "address",
          "name": "_to",
          "type": "address"
        },
        {
          "internalType": "uint256",
          "name": "_amount",
          "type": "uint256"
        }
      ],
      "name": "claimTON",
      "outputs": [],
      "stateMutability": "nonpayable",
      "type": "function"
    },
    {
      "inputs": [
        {
          "internalType": "address",
          "name": "_to",
          "type": "address"
        },
        {
          "internalType": "uint256",
          "name": "_amount",
          "type": "uint256"
        }
      ],
      "name": "claimWTON",
      "outputs": [],
      "stateMutability": "nonpayable",
      "type": "function"
    },
    {
      "inputs": [
        {
          "internalType": "address",
          "name": "_token",
          "type": "address"
        },
        {
          "internalType": "address",
          "name": "_to",
          "type": "address"
        },
        {
          "internalType": "uint256",
          "name": "_amount",
          "type": "uint256"
        }
      ],
      "name": "claimERC20",
      "outputs": [],
      "stateMutability": "nonpayable",
      "type": "function"
    }
  ],
  "bytecode": "0x608060405234801561001057600080fd5b506040516111e93803806111e98339818101604052604081101561003357600080fd5b50805160209091015160006100466100c1565b600080546001600160a01b0319166001600160a01b0383169081178255604051929350917f8be0079c531659141344cd1fd0a4f28419497f9722a3daafe3b4186f6b6457e0908290a350600180546001600160a01b039384166001600160a01b031991821617909155600280549290931691161790556100c5565b3390565b611115806100d46000396000f3fe608060405234801561001057600080fd5b50600436106100cf5760003560e01c80638da5cb5b1161008c578063ef0d559411610066578063ef0d5594146101ec578063f2fde38b14610218578063f52bba701461023e578063f848091a1461026a576100cf565b80638da5cb5b146101a6578063a8e5e4aa146101ae578063cc48b947146101e4576100cf565b8063230da4f2146100d457806352cceeb6146100fc57806354e68c9a14610128578063662d12b114610154578063715018a61461017a5780638d62d94914610182575b600080fd5b6100fa600480360360208110156100ea57600080fd5b50356001600160a01b03166102a0565b005b6100fa6004803603604081101561011257600080fd5b506001600160a01b03813516906020013561031a565b6100fa6004803603604081101561013e57600080fd5b506001600160a01b0381351690602001356103ca565b6100fa6004803603602081101561016a57600080fd5b50356001600160a01b031661047a565b6100fa6104f4565b61018a610596565b604080516001600160a01b039092168252519081900360200190f35b61018a6105a5565b6100fa600480360360608110156101c457600080fd5b506001600160a01b038135811691602081013590911690604001356105b4565b61018a610666565b6100fa6004803603604081101561020257600080fd5b506001600160a01b038135169060200135610675565b6100fa6004803603602081101561022e57600080fd5b50356001600160a01b03166107ee565b6100fa6004803603604081101561025457600080fd5b506001600160a01b0381351690602001356108e6565b6100fa6004803603606081101561028057600080fd5b506001600160a01b03813581169160208101359091169060400135610a5f565b6102a8610bda565b6000546001600160a01b039081169116146102f8576040805162461bcd60e51b81526020600482018190526024820152600080516020611060833981519152604482015290519081900360640190fd5b600180546001600160a01b0319166001600160a01b0392909216919091179055565b610322610bda565b6000546001600160a01b03908116911614610372576040805162461bcd60e51b81526020600482018190526024820152600080516020611060833981519152604482015290519081900360640190fd5b600154610389906001600160a01b03168383610bde565b60015460405182916001600160a01b03808616929116907f80da462ebfbe41cfc9bc015e7a9a3c7a2a73dbccede72d8ceb583606c27f8f9090600090a45050565b6103d2610bda565b6000546001600160a01b03908116911614610422576040805162461bcd60e51b81526020600482018190526024820152600080516020611060833981519152604482015290519081900360640190fd5b600254610439906001600160a01b03168383610bde565b60025460405182916001600160a01b03808616929116907f80da462ebfbe41cfc9bc015e7a9a3c7a2a73dbccede72d8ceb583606c27f8f9090600090a45050565b610482610bda565b6000546001600160a01b039081169116146104d2576040805162461bcd60e51b81526020600482018190526024820152600080516020611060833981519152604482015290519081900360640190fd5b600280546001600160a01b0319166001600160a01b0392909216919091179055565b6104fc610bda565b6000546001600160a01b0390811691161461054c576040805162461bcd60e51b81526020600482018190526024820152600080516020611060833981519152604482015290519081900360640190fd5b600080546040516001600160a01b03909116907f8be0079c531659141344cd1fd0a4f28419497f9722a3daafe3b4186f6b6457e0908390a3600080546001600160a01b0319169055565b6002546001600160a01b031681565b6000546001600160a01b031690565b6105bc610bda565b6000546001600160a01b0390811691161461060c576040805162461bcd60e51b81526020600482018190526024820152600080516020611060833981519152604482015290519081900360640190fd5b6106206001600160a01b0384168383610bde565b80826001600160a01b0316846001600160a01b03167f80da462ebfbe41cfc9bc015e7a9a3c7a2a73dbccede72d8ceb583606c27f8f9060405160405180910390a4505050565b6001546001600160a01b031681565b61067d610bda565b6000546001600160a01b039081169116146106cd576040805162461bcd60e51b81526020600482018190526024820152600080516020611060833981519152604482015290519081900360640190fd5b600154604080516370a0823160e01b8152306004820152905183926001600160a01b0316916370a08231916024808301926020929190829003018186803b15801561071757600080fd5b505afa15801561072b573d6000803e3d6000fd5b505050506040513d602081101561074157600080fd5b50511015610796576040805162461bcd60e51b815260206004820152601d60248201527f44414f5661756c74323a206e6f7420656e6f7567682062616c616e6365000000604482015290519081900360640190fd5b6001546107ad906001600160a01b03168383610cf6565b60015460405182916001600160a01b03808616929116907ff7a40077ff7a04c7e61f6f26fb13774259ddf1b6bce9ecf26a8276cdd399268390600090a45050565b6107f6610bda565b6000546001600160a01b03908116911614610846576040805162461bcd60e51b81526020600482018190526024820152600080516020611060833981519152604482015290519081900360640190fd5b6001600160a01b03811661088b5760405162461bcd60e51b81526004018080602001828103825260268152602001806110146026913960400191505060405180910390fd5b600080546040516001600160a01b03808516939216917f8be0079c531659141344cd1fd0a4f28419497f9722a3daafe3b4186f6b6457e091a3600080546001600160a01b0319166001600160a01b0392909216919091179055565b6108ee610bda565b6000546001600160a01b0390811691161461093e576040805162461bcd60e51b81526020600482018190526024820152600080516020611060833981519152604482015290519081900360640190fd5b600254604080516370a0823160e01b8152306004820152905183926001600160a01b0316916370a08231916024808301926020929190829003018186803b15801561098857600080fd5b505afa15801561099c573d6000803e3d6000fd5b505050506040513d60208110156109b257600080fd5b50511015610a07576040805162461bcd60e51b815260206004820152601d60248201527f44414f5661756c74323a206e6f7420656e6f7567682062616c616e6365000000604482015290519081900360640190fd5b600254610a1e906001600160a01b03168383610cf6565b60025460405182916001600160a01b03808616929116907ff7a40077ff7a04c7e61f6f26fb13774259ddf1b6bce9ecf26a8276cdd399268390600090a45050565b610a67610bda565b6000546001600160a01b03908116911614610ab7576040805162461bcd60e51b81526020600482018190526024820152600080516020611060833981519152604482015290519081900360640190fd5b80836001600160a01b03166370a08231306040518263ffffffff1660e01b815260040180826001600160a01b0316815260200191505060206040518083038186803b158015610b0557600080fd5b505afa158015610b19573d6000803e3d6000fd5b505050506040513d6020811015610b2f57600080fd5b50511015610b84576040805162461bcd60e51b815260206004820152601d60248201527f44414f5661756c74323a206e6f7420656e6f7567682062616c616e6365000000604482015290519081900360640190fd5b610b986001600160a01b0384168383610cf6565b60025460405182916001600160a01b03808616929116907ff7a40077ff7a04c7e61f6f26fb13774259ddf1b6bce9ecf26a8276cdd399268390600090a4505050565b3390565b801580610c64575060408051636eb1769f60e11b81523060048201526001600160a01b03848116602483015291519185169163dd62ed3e91604480820192602092909190829003018186803b158015610c3657600080fd5b505afa158015610c4a573d6000803e3d6000fd5b505050506040513d6020811015610c6057600080fd5b5051155b610c9f5760405162461bcd60e51b81526004018080602001828103825260368152602001806110aa6036913960400191505060405180910390fd5b604080516001600160a01b038416602482015260448082018490528251808303909101815260649091019091526020810180516001600160e01b031663095ea7b360e01b179052610cf1908490610d44565b505050565b604080516001600160a01b038416602482015260448082018490528251808303909101815260649091019091526020810180516001600160e01b031663a9059cbb60e01b179052610cf19084905b6000610d99826040518060400160405280602081526020017f5361666545524332303a206c6f772d6c6576656c2063616c6c206661696c6564815250856001600160a01b0316610df59092919063ffffffff16565b805190915015610cf157808060200190516020811015610db857600080fd5b5051610cf15760405162461bcd60e51b815260040180806020018281038252602a815260200180611080602a913960400191505060405180910390fd5b6060610e048484600085610e0e565b90505b9392505050565b606082471015610e4f5760405162461bcd60e51b815260040180806020018281038252602681526020018061103a6026913960400191505060405180910390fd5b610e5885610f69565b610ea9576040805162461bcd60e51b815260206004820152601d60248201527f416464726573733a2063616c6c20746f206e6f6e2d636f6e7472616374000000604482015290519081900360640190fd5b600080866001600160a01b031685876040518082805190602001908083835b60208310610ee75780518252601f199092019160209182019101610ec8565b6001836020036101000a03801982511681845116808217855250505050505090500191505060006040518083038185875af1925050503d8060008114610f49576040519150601f19603f3d011682016040523d82523d6000602084013e610f4e565b606091505b5091509150610f5e828286610f6f565b979650505050505050565b3b151590565b60608315610f7e575081610e07565b825115610f8e5782518084602001fd5b8160405162461bcd60e51b81526004018080602001828103825283818151815260200191508051906020019080838360005b83811015610fd8578181015183820152602001610fc0565b50505050905090810190601f1680156110055780820380516001836020036101000a031916815260200191505b509250505060405180910390fdfe4f776e61626c653a206e6577206f776e657220697320746865207a65726f2061646472657373416464726573733a20696e73756666696369656e742062616c616e636520666f722063616c6c4f776e61626c653a2063616c6c6572206973206e6f7420746865206f776e65725361666545524332303a204552433230206f7065726174696f6e20646964206e6f7420737563636565645361666545524332303a20617070726f76652066726f6d206e6f6e2d7a65726f20746f206e6f6e2d7a65726f20616c6c6f77616e6365a2646970667358221220cc406975a536fa8ded42d950493788a1083fa41687c76582d7f5180e7a1aff1664736f6c63430007060033",
  "immutableReferences": {},
  "source": "// SPDX-License-Identifier: MIT\npragma solidity ^0.7.6;\n\nimport \"../../node_modules/@openzeppelin/contracts/access/Ownable.sol\";\nimport { IERC20 } from  \"../../node_modules/@openzeppelin/contracts/token/ERC20/IERC20.sol\";\nimport { SafeMath } from \"../../node_modules/@openzeppelin/contracts/math/SafeMath.sol\";\nimport { SafeERC20 } from \"../../node_modules/@openzeppelin/contracts/token/ERC20/SafeERC20.sol\";\n\ncontract DAOVault2 is Ownable {\n    using SafeMath for uint256;\n    using SafeERC20 for IERC20;\n    \n    IERC20 public ton;\n    IERC20 public wton;\n    \n    //////////////////////////////\n    // Events\n    //////////////////////////////\n    \n    event Claimed(address indexed token, address indexed to, uint256 indexed amount);\n    event Approved(address indexed token, address indexed to, uint256 indexed amount);\n\n    constructor(address _ton, address _wton) public {\n        ton = IERC20(_ton);\n        wton = IERC20(_wton);\n    }\n\n    function setTON(address _ton) external onlyOwner {\n        ton = IERC20(_ton);\n    }\n\n    function setWTON(address _wton) external onlyOwner {\n        wton = IERC20(_wton);\n    }\n\n    function approveTON(address _to, uint256 _amount) public onlyOwner {\n        ton.safeApprove(_to, _amount);\n        emit Approved(address(ton), _to, _amount);\n    }\n\n    function approveWTON(address _to, uint256 _amount) public onlyOwner {\n        wton.safeApprove(_to, _amount);\n        emit Approved(address(wton), _to, _amount);\n    }\n\n    function approveERC20(address _token, address _to, uint256 _amount) public onlyOwner {\n        IERC20(_token).safeApprove(_to, _amount);\n        emit Approved(address(_token), _to, _amount);\n    }\n\n    function claimTON(address _to, uint256 _amount) public onlyOwner {\n        require(ton.balanceOf(address(this)) >= _amount, \"DAOVault2: not enough balance\");\n        ton.safeTransfer(_to, _amount);\n        emit Claimed(address(ton), _to, _amount);\n    }\n\n    function claimWTON(address _to, uint256 _amount) public onlyOwner {\n        require(wton.balanceOf(address(this)) >= _amount, \"DAOVault2: not enough balance\");\n        wton.safeTransfer(_to, _amount);\n        emit Claimed(address(wton), _to, _amount);\n    }\n\n    function claimERC20(address _token, address _to, uint256 _amount) public onlyOwner {\n        require(IERC20(_token).balanceOf(address(this)) >= _amount, \"DAOVault2: not enough balance\");\n        IERC20(_token).safeTransfer(_to, _amount);\n        emit Claimed(address(wton), _to, _amount);\n    }\n}\n",
  "sourcePath": "/data/github/onther/tokamak-dao-contracts3/contracts/dao/DAOVault2.sol",
  "compiler": {
    "name": "solc",
    "version": "0.7.6+commit.7338295f.Emscripten.clang"
  },
  "schemaVersion": "3.3.2",
  "updatedAt": "2021-01-08T18:51:04.499Z",
  "devdoc": {
    "kind": "dev",
    "methods": {
      "owner()": {
        "details": "Returns the address of the current owner."
      },
      "renounceOwnership()": {
        "details": "Leaves the contract without owner. It will not be possible to call `onlyOwner` functions anymore. Can only be called by the current owner. NOTE: Renouncing ownership will leave the contract without an owner, thereby removing any functionality that is only available to the owner."
      },
      "transferOwnership(address)": {
        "details": "Transfers ownership of the contract to a new account (`newOwner`). Can only be called by the current owner."
      }
    },
    "version": 1
  },
  "userdoc": {
    "kind": "user",
    "methods": {},
    "version": 1
  }
}